:100000000C94AB0D0C94D50D0C94D50D0C94D50D12
:100010000C94D50D0C94D50D0C94D50D0C94D50DD8
:100020000C94D50D0C94D50D0C94D50D0C94D50DC8
:100030000C94D50D0C94D50D0C94D50D0C944292C6
:100040000C94D50D0C94D50D0C94D50D0C94D50DA8
:100050000C94D50D0C94D50D0C94D50D0C94FAE19F
:100060000C94D50D0C94C2110C9402120C94D50D65
:100070000C94D50D0C94D50D0C94D50D0C94D50D78
:100080000C94D50D0C94D50D0C94D50D0C94D50D68
:100090000C9454120C9494120C94D50D0C945DDEB7
:1000A0000C94D50D0C94D3900C94D50D0C94D50DC7
:1000B0000C94D50D0C94D50D0C94D50D0C94D50D38
:1000C0000C94D50D0C94D50D0C94D50D0C94D50D28
:1000D0000C94D50D0C94D50D0C94E6120C942613AB
:1000E0000C94D50DE82EE82E0E2F4C2F2E2F6A2FB4
:1000F000862FB62FE52F3D30B767D567BA67BD6746
:10010000C067C367C667C967CC67CF67D267987B8C
:10011000C47BCC7BCF7BD27B8183D57B8183818366
:100120008183D87BDB7BDE7BEA7B34823482348242
:10013000F67B3482EC7B34823482F97B017CFB7B5E
:10014000FE7B3482017C017C017C017C3482348220
:1001500034823482017C3482037C4A914F915491E1
:1001600059915E91639168916D91729177917C91B3
:100170002BC626C62FC633C640C658C67FC68FC6F6
:10018000CCC7C7C7D0C7D9C7FEC709C821C841C88F
:1001900048C837E33AE32DE331E373E33EE342E358
:1001A00048E34CE350E356E35AE35EE364E368E379
:1001B0006EE3036EDB363D9A9999993DABAAAA2A64
:1001C0003E000000803F084AD73B3BCE016E84BC16
:1001D000BFFDC12F3D6C74319ABD56833DDA3D00A1
:1001E000C77F11BED9E4BB4C3E916BAAAABE0000EA
:1001F00000803F072C7AA5BA6CC590DA3B9365FC6A
:100200008BBC53F810FD3C5692834DBD879D3AB68A
:100210003DCBC9BF5BBE73DA0FC93F05A84CCDB259
:10022000D44EB93836A9020C50B9918688083CA63C
:10023000AAAA2ABE000000803F08000000BE922447
:1002400049123EABAAAA2ABECDCCCC4C3E0000003F
:1002500080BEABAAAAAA3E00000000BF000000803A
:100260003F0000000000084178D3BB4387D1133D15
:10027000190E3CC3BD4282AD2B3E68EC8276BED9DE
:100280008FE1A93E4C80EFFFBE01C4FF7F3F00001D
:100290000000004C6F670064756D70000000000086
:1002A0000000000000E867657261736500000000EF
:1002B00000000000003729656E61626C6500000077
:1002C0000000000000752864697361626C650000BD
:1002D0000000000000752868656C700000000000D8
:1002E0000000000000E818706C616E6E65720067B7
:1002F00063730000000000000000000000728573BE
:10030000657475700065726173650000000000001F
:10031000000000B93D7265736574000000000000C4
:100320000000003828726164696F0000000000005E
:1003300000000051486672616D6500000000000019
:1003400000000025256D6F746F72730000000000BF
:100350000000003A486573630000000000000000E0
:10036000000000BA186C6576656C000000000000A3
:100370000000002E286D6F6465730000000000000F
:10038000000000E247626174746572790000000049
:100390000000002826736F6E6172000000000000EC
:1003A0000000001A3D636F6D706173730000000000
:1003B00000000025406F66667365747300000000DE
:1003C000000000BB3E6465636C696E6174696F6EAA
:1003D000000000813E68656C6900000000000000BC
:1003E00000000076536779726F0000000000000083
:1003F0000000009F2273686F77000000000000007B
:10040000000000553E414320322E302E333320422F
:10041000657461006C6F67730000000000000000ED
:1004200000001A3C73657475700000000000000045
:100430000000B43B7465737400000000000000000D
:1004400000009D3B68656C7000000000000000002B
:100450000000A618706C616E6E65720000000000EE
:100460000000023C746573740070776D000000003A
:10047000000000000000007047726164696F0000B6
:100480000000000000000004476661696C7361664B
:100490006500000000000004466770730000000063
:1004A00000000000000000A921616463000000005A
:1004B000000000000000003A21696D750000000096
:1004C00000000000000000838A6261747465727924
:1004D00000000000000000921874756E65000000B6
:1004E00000000000000000D84574726900000000A0
:1004F00000000000000000754563757272656E743F
:1005000000000000000000EC4472656C617900009E
:10051000000000000000007F19776179706F696E3C
:1005200074730000000000615C616C746974756430
:10053000650000000000005644736F6E6172000099
:1005400000000000000000031D636F6D7061737395
:10055000000000000000003A1C78626565000000A1
:10056000000000000000004D19656564756D7000A5
:1005700000000000000000D71B72617767707300F5
:10058000000000000000000E196D697373696F6E42
:1005900000000000000000FB5C7770002025303276
:1005A0007800253034783A00426567696E205842F9
:1005B000656520582D4354552052616E6765206152
:1005C0006E64205253534920546573743A0A0043B1
:1005D0006F6D706173733A200048656164696E677E
:1005E0003A20256C642C2058595A3A2025642C2036
:1005F00025642C2025642C0958595A6F66663A20C8
:1006000025362E32662C2025362E32662C202536B5
:100610002E32660A00536F6E61723A2025642063A1
:100620006D0A00536F6E61722064697361626C655C
:10063000640A004261726F3A202564636D0A0048C3
:100640006974207261646975733A2025640A002513
:100650006420776179706F696E74730A006F662029
:1006600025646D0A000A00486F6C6420616C74692F
:1006700074756465200052656C6179206F66660A46
:100680000052656C6179206F6E0A00563A2025345D
:100690002E34662C20413A2025342E34662C206DD1
:1006A00041683A2025342E34660A00696E707574EC
:1006B0003A202564096F757470757425640A0064A6
:1006C000697361626C65640A004E6F7420656E61C7
:1006D000626C65640A00256C642C20256C642C20F7
:1006E000256C640A0025642C004144430A004C61D7
:1006F000743A20256C642C204C6F6E20256C642C81
:1007000020416C743A20256C646D2C202373617435
:10071000733A2025640A004C4F532063617573655A
:1007200064206E6F206368616E676520696E20418A
:10073000434D2E0A005448524F54544C45204641D4
:10074000494C534146452041435449564154454440
:100750003A2025642C2000434F4E54524F4C204DDC
:100760004F4445204348414E4745443A20005448B1
:10077000524F54544C45204348414E474544202550
:1007800064200A00556E706C756720626174746530
:1007900072792C207468726F74746C6520696E2095
:1007A0006E65757472616C2C207475726E206F6644
:1007B0006620726164696F2E0A00494E2020313A2A
:1007C00020256409323A20256409333A202564093A
:1007D000343A20256409353A20256409363A202523
:1007E0006409373A2025640A00494E3A20313A20FC
:1007F000256409323A20256409333A2025640934F6
:100800003A20256409353A20256409363A202564C2
:1008100009373A20256409383A2025640A00436FD5
:100820006D6D616E64733A0A20206C6F67730A20E5
:100830002073657475700A2020746573740A202013
:10084000706C616E6E65720A0A4D6F766520746811
:100850006520736C696465207377697463682061CF
:100860006E6420726573657420746F20464C592E37
:100870000A0A000A4F7074696F6E733A5B6F6E2CD0
:10088000206F66665D206761696E0A006F666600AC
:100890006F6E00536572766F202564090974726962
:1008A0006D3A25640A00536572766F202564090944
:1008B000706F733A25640A00496E76616C69642032
:1008C0006D696E2F6D6178206361707475726564F7
:1008D00020726F6C6C3A25642C20207069746368F8
:1008E0003A25642C2020636F6C6C656374697665AF
:1008F000206D696E3A202564206D61783A20256468
:100900002C20207461696C206D696E3A2564206D1D
:1009100061783A25640A004D6F766520636F6C6CD0
:100920002C20726F6C6C2C20706974636820616E6F
:1009300064207461696C20746F2065787472656DD1
:1009400065732C20707265737320276D272077687C
:10095000656E20646F6E650A00436F6C6C6563742E
:10096000697665207768656E20626C6164652070C9
:1009700069746368206174207A65726F3A20256417
:100980000A00097809096578697420262073617660
:10099000650A0009743C616E676C653E0973657495
:1009A000207472696D20282D353030207E2035303E
:1009B00030290A000972090972657665727365202B
:1009C000736572766F0A0009703C616E676C653EF4
:1009D0000973657420706F732028692E652E20704E
:1009E00030203D2066726F6E742C20703930203DAF
:1009F000207269676874290A00096D0909736574B2
:100A000020726F6C6C2C2070697463682C20636F8B
:100A10006C6C206D696E2F6D61780A00096309099D
:100A200073657420636F6C6C207768656E20626CF0
:100A3000616465207069746368207A65726F0A006A
:100A40000961206F72207A09096D6F7665206D69E2
:100A5000642075702F646F776E0A0009317E340947
:100A60000973656C65637420736572766F0A00099B
:100A7000640909646973706C6179207365747469C1
:100A80006E67730A00496E737472756374696F6E72
:100A9000733A0048656164696E673A2025752C20B9
:100AA00009202825642C2025642C202564292C204D
:100AB0002825342E34662C2025342E34662C20250F
:100AC000342E3466290A0063000A4F7074696F6E11
:100AD000733A5B6F6E2C6F66665D0A006F66660028
:100AE0006F6E000A4F7074696F6E733A5B6F6E2C95
:100AF000206F66665D0A006F6666006F6E000A4FC3
:100B00007074696F6E733A206F66662C20312D34D5
:100B1000006F6666000A4D6F766520524320746F41
:100B200067676C652073776974636820746F2065EC
:100B300061636820706F736974696F6E20746F20D1
:100B4000656469742C206D6F76652061696C6572CF
:100B50006F6E20737469636B20746F2073656C65AE
:100B60006374206D6F6465732E000A556E706C752A
:100B7000672C207468656E20706C75672D696E2017
:100B8000626174746572793B2043616C6962726161
:100B9000746520455343732E0A2050726573732089
:100BA000456E74657220746F2063616E63656C2E90
:100BB0000A000A4F7074696F6E733A5B782C2B2CA5
:100BC000765D0A0076002B00700078000A4D6F7683
:100BD0006520616C6C20636F6E74726F6C7320742F
:100BE0006F20656163682065787472656D652E207D
:100BF00048697420456E74657220746F2073617645
:100C0000653A20000A464143544F525920524553F9
:100C1000455420636F6D706C657465202D2072657E
:100C2000626F6F742041504D000A275927202B20F6
:100C3000456E74657220746F20666163746F72799B
:100C40002072657365742C20616E79206F746865FD
:100C500072206B657920746F2061626F72743A0A3A
:100C6000000A436F6D6D616E64733A0A20206475EB
:100C70006D70203C6E3E2020657261736520286196
:100C80006C6C206C6F6773290A2020656E61626C42
:100C900065203C6E616D653E207C20616C6C0A2095
:100CA0002064697361626C65203C6E616D653E20F5
:100CB0007C20616C6C0A0A00656E61626C65004D97
:100CC0004F544F52530043555252454E5400434DDA
:100CD0004400524157004D4F4445004E54554E007C
:100CE0004354554E00504D00475053004154544911
:100CF000545544455F4D454400415454495455446E
:100D0000455F4641535400616C6C006D69737369B3
:100D10006E67206C6F6720747970650A000A4C6FEB
:100D200067206572617365642E0A000A45726173FB
:100D3000696E67206C6F672E2E2E0A006261642038
:100D40006C6F6720232025640A005448525F534F7C
:100D50004E5F005448525F4241525F004E41565F21
:100D600057505F004E41565F4C4F4E5F004E41560C
:100D70005F4C41545F005354425F5941575F0053E9
:100D800054425F5049545F005354425F524C4C5F91
:100D9000004143525F5941575F004143525F504900
:100DA000545F004143525F524C4C5F005243385FE6
:100DB000005243375F005243365F005243355F00B5
:100DC0005243345F005243335F005243325F00525C
:100DD00043315F004759525F4741494E5F004759D1
:100DE000525F454E41424C455F00434F4C5F4D4979
:100DF000445F00434F4C5F4D41585F00434F4C5F91
:100E00004D494E5F005049545F4D41585F00524F6D
:100E10004C5F4D41585F005356335F504F535F0056
:100E20005356325F504F535F005356315F504F530C
:100E30005F004853345F004853335F004853325FCC
:100E4000004853315F004652414D45004553430031
:100E50004D41475F454E41424C4500424154545F2D
:100E6000434150414349545900424154545F4D4F0E
:100E70004E49544F5200534F4E41525F454E4142EE
:100E80004C4500414C545F484F4C445F52544C0019
:100E90004C4F475F4249544D41534B0050495443D6
:100EA000485F4D415800464C544D4F444500545204
:100EB000494D5F5448524F54544C45005448525F7A
:100EC00046535F56414C5545005448525F46535F68
:100ED000414354494F4E005448525F4641494C5398
:100EE000414645005448525F4D4158005448525FB6
:100EF0004D494E0057505F4C4F495445525F524147
:100F0000440057505F5241444955530057505F4D7C
:100F10005553545F494E4445580057505F494E441D
:100F200045580057505F544F54414C0057505F4D47
:100F30004F4445005854524B5F414E474C455F4328
:100F400044005854524B5F4741494E5F534300534E
:100F5000595349445F4D59474353005359534944EA
:100F60005F544849534D41560053595349445F53C8
:100F7000575F545950450053595349445F53575F85
:100F80004D52455600524556004D41580054524965
:100F90004D004D494E00494D415800440049005014
:100FA00000494D555F53454E534F525F43414C00EE
:100FB0004C6F6720232025642C202020207374612F
:100FC00072742025642C202020656E642025640A1C
:100FD000000A2564206C6F67730A000A4E6F206C4C
:100FE0006F67730A54797065202764756D702030BF
:100FF000272E0A0A00204D4F544F525300204355CC
:101000005252454E540020434D4400205241570057
:10101000204E54554E00204354554E0020504D0054
:1010200020475053002041545449545544455F4D86
:101030004544002041545449545544455F4641536A
:1010400054006E6F6E65006C6F677320656E616231
:101050006C65643A200048697420456E746572209E
:10106000746F20657869742E0A0A005465737420C1
:101070004D6F64650A0A0047524F554E4420535441
:10108000415254000A456E746572696E6720696E3C
:101090007465726163746976652073657475702018
:1010A0006D6F64652E2E2E0A0A54797065202768AC
:1010B000656C702720746F206C69737420636F6D8A
:1010C0006D616E64732C2027657869742720746FB6
:1010D000206C656176652061207375626D656E7543
:1010E0002E0A5669736974207468652027736574C5
:1010F000757027206D656E7520666F722066697247
:1011000073742D74696D6520636F6E66696775729F
:101110006174696F6E2E0A0A00506C6561736520F8
:1011200052756E2053657475702E2E2E0A000A0AB1
:10113000496E69742041434D0A0A52414D3A2025B7
:101140006C750A004779726F206F666673657473F9
:101150003A2025342E32662C2025342E32662C205F
:1011600025342E32660A00416363656C206F666623
:10117000736574733A2025342E32662C2025342E64
:1011800032662C2025342E32660A0061626C65645A
:101190000A0064697300656E00646F6E650A000A78
:1011A00045726173696E6720454550524F4D0A0084
:1011B0000A53617665642053657474696E67730AB7
:1011C0000A00506F732025643A20004348373A20C4
:1011D0002564207C2025640A004348363A20256493
:1011E000207C2025640A004348353A202564207C71
:1011F0002025640A004348343A202564207C2025B9
:10120000640A004348333A202564207C2025640A80
:10121000004348323A202564207C2025640A00439C
:1012200048313A202564207C2025640A00503A2069
:1012300025342E32662C20493A25342E32662C2055
:10124000443A25342E32662C20494D41583A256CBB
:10125000640A006761696E3A202564004578746508
:10126000726E616C204779726F3A0A00636F6C6C22
:10127000206D696E3A09256409206D69643A256418
:1012800009206D61783A25640A00706974636820EA
:101290006D61783A200925640A00726F6C6C206DCC
:1012A00061783A200925640A007461696C3A090979
:1012B000256420092564200925640A00333A09259C
:1012C000642009256420092564200925640A003268
:1012D0003A0925642009256420092564200925642C
:1012E0000A00313A09256420092564200925642073
:1012F0000925640A00536572766F2009706F7320A8
:10130000096D696E20096D617820097265760A00A1
:1013100048656C690A00466C69676874206D6F6483
:1013200065730A004D6167206F6666736574733A72
:101330002025342E34662C2025342E34662C20258E
:10134000342E3466004D6167204465633A202534AD
:101350002E34660A00436F6D706173730A00494D45
:10136000550A006D696E3A2025640A6D61783A204D
:1013700025640A6372756973653A2025640A66619B
:10138000696C736166655F656E61626C65643A2065
:1013900025640A6661696C736166655F76616C7568
:1013A000653A202564005468726F74746C650A0095
:1013B00058545241434B3A2025342E32660A585431
:1013C0005241434B20616E676C653A2025640A5098
:1013D000495443485F4D41583A20256C64005854A5
:1013E0007261636B0A00736F6E6172207468726F52
:1013F00074746C653A0A006261726F207468726F6F
:1014000074746C653A0A006C6F6E673A0A004E613C
:10141000763A0A6C61743A0A007961773A0A007088
:10142000697463683A0A000A53746162696C697A84
:10143000653A0A726F6C6C3A0A007961773A0A0071
:1014400070697463683A0A004163726F3A0A726F96
:101450006C6C3A0A004761696E730A0052616469F4
:101460006F0A0048656C69206672616D650A004606
:1014700072616D650A0046572056657273696F6E1A
:101480002025640A00536F6E61720A000A475053A8
:101490000A00636F6D6D616E6420233A202564201D
:1014A00069643A2564206F703A25642070313A25CA
:1014B000642070323A256C642070333A256C6420C5
:1014C00070343A256C64200A00766F6C7473206166
:1014D0006E6420637572006261747420766F6C7440
:1014E0007300342063656C6C7300332063656C6C2F
:1014F00073000A42617474204D6F696E746F720AD2
:10150000000A20547970652027726164696F272072
:10151000746F20636F6E666967757265206E6F7792
:101520002E0A0A000A215761726E696E672C2079B3
:101530006F757220726164696F206973206E6F74B9
:1015400020636F6E66696775726564210053657408
:101550007570204D6F64650A0A0A00506C616E6EEA
:101560006572204D6F64650A4E6F7420696E7465F4
:101570006E64656420666F72206D616E75616C20AB
:101580007573650A0A003C6E617669676174653E31
:10159000205750206572726F72202D206469737419
:1015A000616E6365203C2030004C6F77204261748F
:1015B0007465727921006F7574206F6620636F6D9A
:1015C0006D616E647321006572726F723A206E6F86
:1015D0006E2D4E617620636D6400526561636865AF
:1015E0006420686F6D650053544152542055500A71
:1015F000005241572C002C2025640A004D4F443ADC
:10160000004154542C2025642C2025642C20257561
:101610000A00434D442C2025642C2025642C2025D1
:10162000642C2025642C2025642C20256C642C201F
:10163000256C642C20256C640A00504D2C0043540A
:10164000554E2C2025642C2025642C2025642C202C
:1016500025642C2025642C2025642C2025312E3453
:10166000662C2025642C2025642C2025642C202524
:10167000642C2025642C2025640A004E54554E2CE1
:101680002025642C2025642C2025642C2025642C06
:101690002025642C2025642C2025642C2025640A18
:1016A000004D4F543A2025642C2025642C202564BD
:1016B0002C2025640A00435552523A2025642C20E0
:1016C000256C642C2025342E34662C2025342E34B1
:1016D000662C2025640A004750532C20256C642C6E
:1016E0002025642C2025642C2025342E37662C20C0
:1016F00025342E37662C2025342E34662C202534B4
:101700002E34662C2025642C2025750A003C737429
:101710006172745F6E65775F6C6F673E204C6F67B8
:10172000732066756C6C00666C6967687420706CF9
:10173000616E2072656365697665640061637469D2
:101740006F6E2072656365697665643A2000776123
:1017500079706F696E74207265636569766520744F
:10176000696D656F757400776179706F696E74204B
:1017700073656E642074696D656F757400455854A7
:101780005241330045585452413200455854524159
:101790003100504F534954494F4E005241575F4317
:1017A00054524C0052435F4348414E004558545FE9
:1017B00053544154005241575F53454E53005352C6
:1017C000335F005352305F00253033753A25733A4A
:1017D00020006E6F7420666F756E6400253033755F
:1017E0003A252D33322E3332733A2000756E6B6EEC
:1017F0006F776E2074797065006E6F7420666F75F8
:101800006E640025733A20006D697373696E6720FA
:101810006E616D65206F722076616C7565003F3F6B
:1018200000256400256400256C640025660025669B
:1018300000657869740068656C7000444543004336
:101840004F4D504153535F00245047434D442C317A
:10185000362C302C302C302C302C302A36410D0ACE
:101860000024505542582C34312C312C3030303338
:101870002C303030312C33383430302C302A323662
:101880000024505352463130302C302C3338343011
:10189000302C382C312C302A3343002053695246E7
:1018A0002000204D544B312E3620002075626C6F85
:1018B000782000204D544B312E3420006661696C35
:1018C00065642C207265747279696E67004F4B00F5
:1018D00020002A00496E697420416363656C002A08
:1018E00000496E6974204779726F006E616E0069FD
:1018F0006E660000407A10F35A00A0724E1809007C
:1019000010A5D4E80000E87648170000E40B540264
:101910000000CA9A3B000000E1F50500008096989F
:1019200000000040420F000000A0860100000010EF
:101930002700000000E80300000000640000000031
:10194000000A00000000000100000000002C76D812
:1019500088DC674F0823DFC1DFAE59E1B1B796E5F8
:10196000E3E453C63AE651997696E8E6C28426EB5C
:10197000898C9B62ED407C6FFCEFBC9C9F40F2BA6F
:10198000A56FA5F490055A2AF75C936B6CF9676D07
:10199000C11BFCE0E40D47FEF520E6B500D0ED905C
:1019A0002E0300943577050080841E080000204E29
:1019B0000A000000C80C333333330F986E128311C2
:1019C00041EF8D2114893BE65516CFFEE6DB18D199
:1019D000844B381BF77C1D901DA4BBE4242032846B
:1019E000725E228100C9F124ECA1E53D27000021AF
:1019F00000240027002A002D0030003300010100E0
:101A000000040107010A0100002200250028002B24
:101A1000002E003100340002010000050108010B16
:101A200001000020002300260029002C002F003296
:101A30000000010000030106010901050505050775
:101A40000508080808020202020A0A080804040439
:101A50000401010101010101010303030303030365
:101A600003040707070C0C0C0C0C0C0C0C020202F4
:101A70000206060606060606060B0B0B0B0B0B0BE7
:101A80000B01021020200808102040102040800286
:101A900001020108040201010204081020408080B4
:101AA0004020100804020180040201804020100838
:101AB0000402010804020101020408102040800110
:101AC000020408102040800000090A02080B0C0DD7
:101AD00007060304010000000000000000000000F1
:101AE00000000000000000000000000000000000F6
:101AF000000000100F0E00000000000000000000B9
:101B000000000000000000000000000000494E46F8
:101B1000494E4954594E414ECDCCCC3D0AD7233C79
:101B200017B7D13877CC2B329595E6241FB14F0AE1
:101B3000000020410000C84200401C4620BCBE4CB2
:101B4000CA1B0E5AAEC59D743B3BD191FD99A0CEE8
:101B500061DD343BF69911241FBECFEFD1E2DEBF29
:101B6000CDBF16E0A0E0B2E0E8EAFDED01E00BBF7A
:101B700002C007900D92AA3CB107D9F71AE1AAEC6E
:101B8000B6E001C01D92AF3AB107E1F71BE1C2E533
:101B9000DBE104C02297FE010E9466E8C834D10749
:101BA000C9F70E94DCDF0C94C7EE0C9400002830CB
:101BB00008F027E03327DA01990F311D87FD916086
:101BC00000966105710539F432602E5F3D9330E374
:101BD0002A95E1F708959F3F30F08038710561053F
:101BE00009F03C5F3C5F3D93913008F08068911DA7
:101BF000DF93CF931F930F93FF92EF92192F987F4C
:101C00009695E92F96959695E90FFF27E35BF64E9B
:101C100099273327EE24FF24A701E70105900894B4
:101C2000079428F4360FE71EF81E491F511D660F52
:101C3000771F881F991F0694A1F70590079428F431
:101C4000E70EF81E491F561FC11D770F881F991FE9
:101C5000661F0694A1F70590079428F4F80E491F13
:101C6000561FC71FD11D880F991F661F771F069427
:101C7000A1F70590079420F4490F561FC71FD81FDE
:101C8000990F661F771F881F0694A9F784911095F6
:101C9000177041F0D695C79557954795F794E794F7
:101CA0001A95C1F7E3EFF8E1689415901591359115
:101CB0006591959105907FE27395E118F10A430BC8
:101CC000560BC90BD009C0F7E10CF11E431F561F7C
:101CD000C91FD01D7EF4703311F48A95E6CFE894C5
:101CE000015030F0080F0AF40027021708F4202FE3
:101CF0002395022F7A3328F079E37D932A95E9F72B
:101D000010C07D932A9589F6069497956795379527
:101D100017951794E118F10A430B560BC90BD0091C
:101D200098F023957E9173957A3308F070E37C9355
:101D30002013B8F77E9170617D9330F0839571E345
:101D40007D9370E32A95E1F71124EF90FF900F91B6
:101D50001F91CF91DF91992787FD90950895FA0102
:101D6000AA27283051F1203181F1E8946F936E7FDA
:101D70006E5F7F4F8F4F9F4FAF4FB1E03ED0B4E0CB
:101D80003CD0670F781F891F9A1FA11D680F791F0C
:101D90008A1F911DA11D6A0F711D811D911DA11D1D
:101DA00020D009F468943F912AE0269F112430192D
:101DB000305D3193DEF6CF010895462F4770405DC8
:101DC0004193B3E00FD0C9F7F6CF462F4F70405D77
:101DD0004A3318F0495D31FD4052419302D0A9F7D2
:101DE000EACFB4E0A6959795879577956795BA95CC
:101DF000C9F700976105710508959B01AC010A2E92
:101E000006945795479537952795BA95C9F7620F68
:101E1000731F841F951FA01D0895EF92FF920F93CB
:101E2000DF93CF93CDB7DEB760970FB6F894DEBFE0
:101E30000FBECDBFA82F002309F461C07E01089416
:101E4000E11CF11C88E0F70111928A95E9F72983DA
:101E50003A834B835C836D837E83AF83988780E274
:101E6000801BE82FFF27E7FDF0954D815E816F8194
:101E70007885181684F01D861E861F86188A882786
:101E800099278E1B9F0B04C07695679557954795AC
:101E90008A95D2F728C0202F332727FD3095DB0104
:101EA000CA01022E04C0B695A795979587950A9406
:101EB000D2F78D879E87AF87B88B04C0440F551F1C
:101EC000661F771FEA95D2F789819A81AB81BC8121
:101ED00004C0B695A795979587952A95D2F7482B74
:101EE000592B6A2B7B2B49875A876B877C872985DF
:101EF0003A854B855C856D857E85AF8598898A2F6F
:101F000060960FB6F894DEBF0FBECDBFCF91DF91C4
:101F10000F91FF90EF900895CF93DF93FC01EB01B9
:101F20004230510570F0638574858585968520E083
:101F300030E040E854E40E94E3E60E942BE5798318
:101F4000688382E090E0DF91CF910895CF93DF9393
:101F5000EC01FB014230510518F420E030E012C0E2
:101F60006081718180E090E00E9457E520E030E0E0
:101F700040E85AE30E94E3E66B877C878D879E8763
:101F800022E030E0C901DF91CF910895009719F068
:101F90000197C1F40CC0E091E919F091EA19A08110
:101FA000B1812D913C91CF01F90109950895E091FE
:101FB000EB19F091EC19A081B1812D913C91CF01E9
:101FC000F90109950895EF92FF920F931F93CF9314
:101FD000DF93EC0108836A834B83822F90E0880FA4
:101FE000991FFC01A3E0EE0FFF1FAA95E1F7E81B84
:101FF000F90BEA59F94E81858983822F90E0880F89
:10200000991FDC0163E0AA0FBB1F6A95E1F7A81BCB
:10201000B90BAA59B94E822F90E0880F991FFC0185
:1020200043E0EE0FFF1F4A95E1F7E81BF90BEA5971
:10203000F94E81858F5F19968C93DE0135E0E32E92
:10204000F12CE00EF11E6FEF7FEFE0E0F0E01EC03C
:102050002D912627822F8295807F822790E0382F2E
:102060002227AC01440F551F440F551F440F551F25
:1020700024273527672F77276227732724E0959534
:1020800087952A95E1F7682779273196EE15FF05A0
:10209000FCF2CC5FDE4F699378839801295F3F4F54
:1020A000C901CDB7DEB7E6E00C9455E8FC01DC01D0
:1020B000AC5FBE4F8C91EB5FFE4F6827262F2295B9
:1020C000207F262730E0522F4427C90163E0880F84
:1020D000991F6A95E1F748275927808190E04827A2
:1020E000592784E0359527958A95E1F742275327AC
:1020F0004C9350830895F901E40FF11D292F3327E4
:102100004427552720839C01552737FD5095452F9F
:102110002183272F382F492F552747FD5A95228392
:10212000638384E008957F928F929F92AF92BF92D3
:10213000CF92DF92EF92FF920F931F93722E132F85
:10214000D42EC52EB62EA72E982E892EE00EF11C69
:1021500008E30E940D0FF7012083272D312F4D2D0D
:102160005C2D6B2D7A2D892D982D00E30E940D0F8B
:10217000F7012183272D312F4D2D5C2D6B2D7A2DCD
:10218000892D982D08E20E940D0FF7012283272D3B
:10219000312F4D2D5C2D6B2D7A2D892D982D00E240
:1021A0000E940D0FF7012383272D312F4D2D5C2D1C
:1021B0006B2D7A2D892D982D08E10E940D0FF701C6
:1021C0002483272D312F4D2D5C2D6B2D7A2D892DBC
:1021D000982D00E10E940D0FF7012583272D312F47
:1021E0004D2D5C2D6B2D7A2D892D982D08E00E94A8
:1021F0000D0FF7012683778288E01F910F91FF90E2
:10220000EF90DF90CF90BF90AF909F908F907F9096
:1022100008950E947B100895A0E0B0E0E2E1F1E1B2
:102220000C9437E88C01EB0165E50E94C60FC801EC
:1022300068810E94C60FC80169810E94C60FC8014B
:102240006A810E94C60FC8016B810E94C60FC80137
:102250006C810E94C60F6E01EE24FF2408C0C801E5
:10226000F60164810E94C60F0894E11CF11C0894D9
:10227000C11CD11C888190E0E816F90680F3CC5F80
:10228000DE4FC80169910E94C60FC80168810E9493
:10229000C60FCDB7DEB7E8E00C9453E8A6E0B1E096
:1022A000E4E5F1E10C9437E8D82EC92E5091D90419
:1022B0007091DA0488E28D836E834F833887298793
:1022C0007E010894E11CF11CC701652F472F2D2DBD
:1022D00004E010E00E94E30F8D2D9C2DB7010E94B9
:1022E0000C11CA5FDE4FE8E00C9453E8A6E0B1E0C1
:1022F000ECE7F1E10C9437E8D82EC92E2091D904EF
:102300004091DA048AE28D837E836F837E01089494
:10231000E11CF11CC701622F2D2D02E010E00E948C
:10232000E30F8D2D9C2DB7010E940C11CA5FDE4F6B
:10233000E8E00C9453E8A6E0B1E0E1EAF1E10C94A6
:1023400037E8D82EC92E3091D9045091DA048FE2A3
:102350008D836E834F8328877E010894E11CF11CD6
:10236000C701632F452F2D2D03E010E00E94E30FDE
:102370008D2D9C2DB7010E940C11CA5FDE4FE8E045
:102380000C9453E81F920F920FB60F920BB60F9258
:1023900011242F933F934F938F939F93EF93FF932A
:1023A0004091C6002091A9193091AA192F5F3F4F83
:1023B0008091AD199091AE19282339238091AB19E2
:1023C0009091AC192817390779F08091A91990914B
:1023D000AA19E091AF19F091B019E80FF91F4083E5
:1023E0003093AA192093A919FF91EF919F918F9192
:1023F0004F913F912F910F900BBE0F900FBE0F90FA
:102400001F9018951F920F920FB60F920BB60F9256
:1024100011242F933F938F939F93EF93FF932091DA
:10242000CB193091CC198091C9199091CA192817EC
:102430003907E9F08091CB199091CC19E091CF192F
:10244000F091D019E80FF91F80818093C600809128
:10245000CB199091CC1901962091CD193091CE19BC
:10246000822393239093CC198093CB1910C0209191
:10247000C9193091CA198091CB199091CC1928179C
:10248000390729F48091C1008F7D8093C100FF91AD
:10249000EF919F918F913F912F910F900BBE0F90D5
:1024A0000FBE0F901F9018951F920F920FB60F92AC
:1024B0000BB60F9211242F933F934F938F939F93BB
:1024C000EF93FF934091CE002091B1193091B21952
:1024D0002F5F3F4F8091B5199091B619282339236A
:1024E0008091B3199091B4192817390779F0809128
:1024F000B1199091B219E091B719F091B819E80F9C
:10250000F91F40833093B2192093B119FF91EF91D5
:102510009F918F914F913F912F910F900BBE0F90F4
:102520000FBE0F901F9018951F920F920FB60F922B
:102530000BB60F9211242F933F938F939F93EF939A
:10254000FF932091D3193091D4198091D119909192
:10255000D21928173907E9F08091D3199091D4192D
:10256000E091D719F091D819E80FF91F8081809375
:10257000CE008091D3199091D41901962091D5194C
:102580003091D619822393239093D4198093D31931
:1025900010C02091D1193091D2198091D319909106
:1025A000D4192817390729F48091C9008F7D8093A9
:1025B000C900FF91EF919F918F913F912F910F90C3
:1025C0000BBE0F900FBE0F901F9018951F920F9289
:1025D0000FB60F920BB60F9211242F933F934F9388
:1025E0008F939F93EF93FF93409136012091C119F0
:1025F0003091C2192F5F3F4F8091C5199091C61934
:10260000282339238091C3199091C41928173907B9
:1026100079F08091C1199091C219E091C719F09198
:10262000C819E80FF91F40833093C2192093C119CC
:10263000FF91EF919F918F914F913F912F910F902B
:102640000BBE0F900FBE0F901F9018951F920F9208
:102650000FB60F920BB60F9211242F933F938F93C7
:102660009F93EF93FF932091E3193091E4198091A8
:10267000E1199091E21928173907E9F08091E319DF
:102680009091E419E091E719F091E819E80FF91F2A
:102690008081809336018091E3199091E41901962D
:1026A0002091E5193091E619822393239093E41940
:1026B0008093E31910C02091E1193091E2198091C3
:1026C000E3199091E4192817390729F48091310111
:1026D0008F7D80933101FF91EF919F918F913F9179
:1026E0002F910F900BBE0F900FBE0F901F9018955B
:1026F000EF92FF920F931F9380912A168F5F809322
:102700002A16823008F472C010922A168091EA0AC2
:102710009091EB0A893C9105CCF52091BC15309144
:10272000BD154091BE155091BF152150304040401D
:102730005040E090AD15F090AE150091AF1510919E
:10274000B015D801C70183569040A040B04028176B
:1027500039074A075B0734F4A80197012456304033
:1027600040405040DA01C901243631054105510588
:1027700024F484E690E0A0E0B0E08093BC15909350
:10278000BD15A093BE15B093BF1530C08D5B9240B0
:102790006CF12091BC153091BD154091BE15509142
:1027A000BF152E5F3F4F4F4F5F4FE090AD15F0903C
:1027B000AE150091AF151091B015D801C70189531E
:1027C0009F4FAF4FBF4F82179307A407B50734F44D
:1027D000A801970128533F4F4F4F5F4F2093BC15DF
:1027E0003093BD154093BE155093BF151F910F91A7
:1027F000FF90EF900895AF92BF92CF92DF92EF9249
:10280000FF920F931F935B016C01E0903215F090E3
:102810003315009134151091351522273327A9015E
:10282000261B370B480B590BE216F3060407150756
:102830001CF4DA01C9010DC0DC01CB01782F692F2E
:102840009A2F8B2FEA14FB040C051D0534F4D801D4
:10285000C701782F692F9A2F8B2F709332156093B1
:1028600033159093341580933515809136159091DA
:102870003715A0913815B091391582179307A40721
:10288000B5074CF0A60195018A159B05AC05BD0561
:1028900014F49C01AD012093361530933715409305
:1028A0003815509339151F910F91FF90EF90DF90DD
:1028B000CF90BF90AF900895EF92FF920F931F9328
:1028C00060918604709187048091880490918904B6
:1028D00020918204309183044091840450918504B6
:1028E0000E94E3E67B018C0120E030E040E05FE302
:1028F0000E94B7E4882324F4E0E070E080EC0DC08F
:10290000C801B70120E030E040E85FE30E9493E6B1
:1029100018162CF4E0E070E080E86FE30AC060E095
:1029200070E080E090E4A80197010E94D9E3E62FCF
:10293000692F2E2F372F482F562FB901CA011F910B
:102940000F91FF90EF900895EF92FF920F931F93D6
:102950000E945C147B018C016091461570914715B3
:10296000882777FD8095982F0E9459E5A801970147
:102970000E94E3E60E9426E5CB011616170614F026
:1029800081E090E09093EF0A8093EE0A1F910F91FF
:10299000FF90EF900895EF92FF920F931F930E9484
:1029A0005C147B018C016091EA0A7091EB0A882724
:1029B00077FD8095982F0E9459E5A80197010E9404
:1029C000E3E60E9426E5CB0177FF02C080E090E0BD
:1029D0009093EF0A8093EE0A1F910F91FF90EF9072
:1029E0000895FC017183608386E06A3C780739F4BE
:1029F0007093EA196093E9191386128608C07093E0
:102A0000EC196093EB1981E090E093878287138241
:102A1000128208952091BC153091BD154091BE15CC
:102A20005091BF158091801590918115A0918215CC
:102A3000B091831582179307A407B50774F48091AA
:102A4000AD159091AE15A091AF15B091B0152817A6
:102A500039074A075B07C4F40DC08091AD1590910A
:102A6000AE15A091AF15B091B01582179307A407CA
:102A7000B50754F410927C1510927D1510927E15B6
:102A800010927F1581E0089580E008958091E81507
:102A90008093A304833049F4A8ECB5E1E6EEF5E1B8
:102AA0008FE001900D928150E1F708958091E81533
:102AB000813021F480910B0184600AC0882321F4C5
:102AC00080910B018B7F04C080910B0194E08927DA
:102AD00080930B0108952091900B3091910BC901C7
:102AE0008F5C94408238910510F481E00895C9010B
:102AF000815595408238910510F482E00895C9010E
:102B0000835D95408238910510F483E00895C901F2
:102B1000855596408138910510F484E00895265D2E
:102B2000364014F480E0089585E008952091B314B0
:102B30003091B4144091B5145091B614809126157B
:102B400090912715A0912815B0912915281B390BB4
:102B50004A0B5B0B213586E4380780E0480780E0AC
:102B600058072CF0205A3C48404050400CC0203BB5
:102B700099EB39079FEF49079FEF590724F4205637
:102B800033474F4F5F4F80E0B90137FF03C0709567
:102B900061957F4F615177420CF081E00895A4E088
:102BA000B0E0E5EDF5E10C942DE8609142157091EF
:102BB000431580914415909145150E9459E53B01BC
:102BC0004C018091C7149091C814A091C914B09180
:102BD000CA1489839A83AB83BC8360913E1570913C
:102BE0003F1580914015909141150E9459E51B01B8
:102BF0002C01E0908A04F0908B0400918C041091D9
:102C00008D04C401B30129813A814B815C810E940A
:102C1000E3E65B016C01C201B101A80197010E94CA
:102C2000E3E69B01AC01C601B5010E94DAE30E9414
:102C300026E5609332157093331580933415909385
:102C4000351517FB109517F91095C401B301A801AC
:102C500097010E94E3E67B018C01C201B101298149
:102C60003A814B815C810E94E3E69B01AC01C80183
:102C7000B7010E94DAE30E9426E56093361570934F
:102C8000371580933815909339152496E2E10C940A
:102C900049E8609167157091681580916915909168
:102CA0006A1524E630E040E050E00E94AAE765396A
:102CB00021E1720720E0820720E0920724F064E916
:102CC00071E180E090E06C362EEE72072FEF820704
:102CD0002FEF920724F46CE67EEE8FEF9FEF609368
:102CE0003E1570933F1580934015909341150895BC
:102CF0002091AF143091B0144091B1145091B2149E
:102D00008091FA129091FB12A091FC12B091FD12E9
:102D1000281B390B4A0B5B0B213586E4380780E012
:102D2000480780E058072CF0205A3C48404050406B
:102D30000CC0203B89EB38078FEF48078FEF58070F
:102D400024F4205633474F4F5F4F2093D5143093D0
:102D5000D6144093D7145093D81408952091B314E7
:102D60003091B4144091B5145091B6148091B714B9
:102D70009091B814A091B914B091BA14281B390BD2
:102D80004A0B5B0B213586E4380780E0480780E07A
:102D900058072CF0205A3C48404050400CC0203B83
:102DA00089EB38078FEF48078FEF580724F4205638
:102DB00033474F4F5F4FC90137FF03C0909581954F
:102DC0009F4F9C01442737FD4095542FB901CA01FC
:102DD00008952091400A3091410A8091640A9091AF
:102DE000650A281B390B253631051CF08AE08093D3
:102DF00061162C593F4F1CF486EF80936116809129
:102E0000611618161CF4815080936116809161162A
:102E100087FF03C08F5F80936116809161168130B8
:102E200021F08F3F11F080E00895811181E0089535
:102E3000009719F424E638E013C08130910519F4A5
:102E400028EB38E00DC08230910519F42CE039E010
:102E500007C0039719F020E030E002C020E639E017
:102E6000C9010895FC01DB01452B11F083858C938A
:102E700081E090E00895DC01FB01452B19F0808191
:102E80001B968C9381E090E00895FC016385772781
:102E900067FD7095872F972F0E9459E50895FC01D3
:102EA000DB014230510520F0838594858D939C93FE
:102EB00082E090E00895DC01FB014230510530F0E2
:102EC000808191811C969C938E931B9782E090E069
:102ED0000895FC0163857485882777FD8095982F78
:102EE0000E9459E50895FC01238534854585568562
:102EF000B901CA010895CF93DF93FC01EB0144307F
:102F0000510540F083859485A585B685888399838E
:102F1000AA83BB8384E090E0DF91CF910895CF93A3
:102F2000DF93EC01FB014430510540F08081918139
:102F3000A281B3818B879C87AD87BE8784E090E0B8
:102F4000DF91CF9108958091EA0A9091EB0A893C34
:102F5000910544F09093E2078093E10786ED97E0B6
:102F60000E943295089580913A0C90913B0C8152C9
:102F7000934024F081E080933B16089580913B16A6
:102F8000882389F08091EA0A9091EB0A87399105AC
:102F900044F09093E2078093E10786ED97E00E946A
:102FA000329510923B1608951092720787E697E0CB
:102FB0000E9432951092BE141092BF141092E61522
:102FC00008958CE791E090930D0880930C0881E0C0
:102FD00098E00E943295089580916416882329F024
:102FE0001092641684E460E005C081E0809364166A
:102FF00084E461E00E9474E3089585E260E00E9449
:1030000074E384E260E00E9474E383E260E00E9483
:1030100074E30895809165168F5F809365168150E3
:10302000833011F41092651680916516813059F045
:10303000813018F08230C1F40FC083E260E00E945A
:1030400074E385E205C085E260E00E9474E384E2F7
:1030500061E00E9474E3089584E260E00E9474E3FA
:1030600083E261E00E9474E3089580919C14909142
:10307000AC14882379F4992309F481E08093AC148B
:10308000882319F085E261E002C085E260E00E94D9
:1030900074E30895992339F481E08093AC1485E2B8
:1030A00061E00E9474E30895E091F910F091FA1044
:1030B00085A996A98130910539F00297F9F483E248
:1030C00061E00E9474E3089587A18823D9F090E01D
:1030D0008091AD14882309F491E09093AD14992365
:1030E00019F083E260E002C083E261E00E9474E3D1
:1030F000E091F910F091FA1017A2089583E260E0D0
:103100000E9474E308958091AE14882319F08130F1
:1031100041F405C00E9435180E94541808950E9479
:103120000A18089500D000D08AEC96E0EDB7FEB7FB
:103130009283818389EC96E0948383830E94D6D125
:103140000F900F900F900F9080E0089500D000D066
:103150008AEC96E0EDB7FEB7928381838EE198E02A
:10316000948383830E94D6D10F900F900F900F907D
:1031700080E0089500D000D08AEC96E0EDB7FEB76D
:10318000928381838AE69BE0948383830E94D6D1D5
:1031900081E0809357080F900F900F900F908CE470
:1031A00098E00E94329564E170E080E090E00E9437
:1031B00076E28AEC96E00E944DD2181619069CF72A
:1031C000109257088CE498E00E94329580E00895B0
:1031D00000D000D08AEC96E0EDB7FEB792838183F1
:1031E00081E69CE0948383830E94D6D10F900F9058
:1031F0000F900F90089500D000D08AEC96E0EDB7C4
:10320000FEB79283818386E590E1948383830E9455
:10321000D6D10F900F900F900F9008950E94FB1839
:1032200068EE73E080E090E00E9476E28EEE96E039
:103230000E944DD2892B89F084E261E00E9474E300
:103240008EEE96E00E947BD2682F8CED96E00E9475
:10325000DCD284E260E00E9474E38CED96E00E9490
:103260004DD2892B89F083E261E00E9474E38CEDFA
:1032700096E00E947BD2682F8EEE96E00E94DCD210
:1032800083E260E00E9474E38AEC96E00E944DD2F3
:10329000181619065CF680E008950E94FB1868EE87
:1032A00073E080E090E00E9476E200D000D08AECEB
:1032B00096E0EDB7FEB79283818388EA95E0948328
:1032C00083830E94D6D10F900F900F900F908EEEB7
:1032D00096E00E944DD2892B49F08EEE96E00E9436
:1032E0007BD2682F8EEE96E00E94DCD28AEC96E0CC
:1032F0000E944DD21816190654F780E00895EF92F7
:10330000FF920F931F93CF93DF930E94FB1868EEF9
:1033100073E080E090E00E9476E231E8E32E36E050
:10332000F32E06E716E0CAECD6E000D000D0EDB7E9
:10333000FEB7D283C183F482E3820E94D6D180910A
:103340000B01846080930B010F900F900F900F90F2
:1033500068EB7BE080E090E00E9476E2CE010E9484
:103360004DD218161906FCF000D000D0EDB7FEB70C
:10337000D283C183148303830E94D6D180910B0131
:103380008B7F80930B010F900F900F900F9068EB45
:103390007BE080E090E00E9476E2CE010E944DD278
:1033A0001816190614F680E0CDB7DEB7E6E00C94E7
:1033B00055E88DB79EB740970FB6F8949EBF0FBEE5
:1033C0008DBFEDB7FEB731968AEC96E0ADB7BEB7CC
:1033D00012969C938E93119784E491E19383828358
:1033E0008091DA129091DB12A091DC12B091DD1283
:1033F00084839583A683B7838091DE129091DF1238
:10340000A091E012B091E11280879187A287B387E3
:103410008091E2129091E312A091E412B091E51232
:1034200084879587A687B7870E94D6D18DB79EB728
:1034300040960FB6F8949EBF0FBE8DBF08958DB70E
:103440009EB740970FB6F8949EBF0FBE8DBFEDB7E5
:10345000FEB731968AEC96E0ADB7BEB712969C9354
:103460008E93119787E691E1938382838091E61290
:103470009091E712A091E812B091E91284839583AC
:10348000A683B7838091EA129091EB12A091EC127F
:10349000B091ED1280879187A287B3878091EE1259
:1034A0009091EF12A091F012B091F112848795875C
:1034B000A687B7870E94D6D18DB79EB740960FB624
:1034C000F8949EBF0FBE8DBF08952AEC36E0882386
:1034D00049F000D000D0EDB7FEB73283218386E9F2
:1034E00091E108C000D000D0EDB7FEB73283218350
:1034F00082E991E1948383830E94D6D18AEC96E09D
:10350000EDB7FEB7928381838BE891E19483838347
:103510000E94D6D10F900F900F900F90089500D079
:1035200000D08AEC96E0EDB7FEB79283818380EB02
:1035300091E1948383830E94D6D10F900F900F90D6
:103540000F9008950F931F938DB79EB708970FB6EE
:10355000F8949EBF0FBE8DBFEDB7FEB731960AEC53
:1035600016E0ADB7BEB712961C930E9311978FE17C
:1035700092E1938382838091570A9091580A9583B0
:1035800084838091710A9091720A978386830E9446
:10359000D6D1EDB7FEB73196ADB7BEB712961C9334
:1035A0000E93119781E192E1938382838091AB0A1C
:1035B0009091AC0A958384838091C50A9091C60A44
:1035C000978386830E94D6D1EDB7FEB73196ADB70B
:1035D000BEB712961C930E93119783E092E19383EA
:1035E00082838091FF0A9091000B95838483809160
:1035F000190B90911A0B978386830E94D6D1EDB751
:10360000FEB73196ADB7BEB712961C930E931197C5
:1036100085EF91E1938382838091530B9091540BBA
:103620009583848380916D0B90916E0B9783868335
:103630000E94D6D1EDB7FEB73196ADB7BEB71296A0
:103640001C930E93119787EE91E19383828380916F
:10365000A70B9091A80B958384838091C10B9091C7
:10366000C20B978386830E94D6D1EDB7FEB7319601
:10367000ADB7BEB712961C930E93119789ED91E1E9
:10368000938382838091FB0B9091FC0B95838483C1
:103690008091150C9091160C978386830E94D6D149
:1036A000EDB7FEB73196ADB7BEB712961C930E9329
:1036B00011978BEC91E19383828380914F0C9091D1
:1036C000500C958384838091690C90916A0C978348
:1036D00086830E94D6D18DB79EB708960FB6F89410
:1036E0009EBF0FBE8DBF1F910F910895CF93DF93A3
:1036F000FC018DB79EB744970FB6F8949EBF0FBEDE
:103700008DBF2DB73EB72F5F3F4F8AEC96E0ADB728
:10371000BEB712969C938E9311978DE292E1E901C8
:103720009B838A8386899789A08DB18D8C839D83A5
:10373000AE83BF8385A196A1A7A1B0A588879987ED
:10374000AA87BB8784A995A9A6A9B7A98C879D87B5
:10375000AE87BF87ED5BFF4F80819181AA2797FDE0
:10376000A095BA2FF901808B918BA28BB38B0E940D
:10377000D6D18DB79EB744960FB6F8949EBF0FBEB4
:103780008DBFDF91CF91089500D000D08AEC96E0F4
:10379000EDB7FEB79283818387EE95E194838383AF
:1037A0000E94D6D10F900F900F900F900895A0E037
:1037B000B0E0EDEDFBE10C9435E862EAA62E65E0A1
:1037C000B62E5CE9C52E55E0D52E00E010E04AEC9F
:1037D000E42E46E0F42E00D000D000D0EDB7FEB7C6
:1037E0003196ADB7BEB71296FC92EE921197B382A6
:1037F000A282158304830E94D6D1C0E0D0E08DB7A9
:103800009EB706960FB6F8949EBF0FBE8DBFCE0131
:10381000800F911F0E94DFEC00D000D000D0EDB7E8
:10382000FEB73196ADB7BEB71296FC92EE921197E5
:10383000D382C282848315820E94D6D121968DB70D
:103840009EB706960FB6F8949EBF0FBE8DBFC031CF
:10385000D105E9F6C7010E94FBE0005F1F4F90E130
:103860000030190709F0B7CF80E0CDB7DEB7EAE046
:103870000C9451E8A0E0B0E0E0E4FCE10C942DE809
:1038800080914B08882309F4A3C00E94FB1879EDAE
:10389000272E75E0372ECAECD6E06AEF70E080E0A4
:1038A00090E00E9476E283E291E10E946BA183E2C4
:1038B00091E140E050E060E070E08A019B010E94ED
:1038C000AFAC83E291E10E944CA3FC01408451849F
:1038D0006284738484809580A680B780C080D18004
:1038E000E280F38060912D1170912E1180912F1143
:1038F0009091301121EE3EE245E652E40E94E3E66B
:1039000020E030E048EC52E40E94E3E60E9426E525
:10391000613A2CE8720720E0820720E092072CF041
:10392000605A7C488040904006C097FF04C06056B3
:1039300073478F4F9F4FEDB7FEB77A970FB6F89446
:10394000FEBF0FBEEDBF0DB71EB70F5F1F4FD28377
:10395000C183F8013382228224E630E040E050E067
:103960000E9412E8F80124833583468357838091AF
:10397000271190912811918780878091291190912A
:103980002A119387828780912B1190912C11958712
:103990008487C686D786E08AF18A828A938AA48A37
:1039A000B58A468A578A608E718E0E94D6D12DB70D
:1039B0003EB7265E3F4F0FB6F8943EBF0FBE2DBFF9
:1039C000CE010E944DD2181619060CF066CF15C014
:1039D00000D000D08AEC96E0EDB7FEB792838183E9
:1039E0008FEC95E0948383830E94D6D10F900F9043
:1039F0000F900F9080E00E94651A80E0CDB7DEB78F
:103A0000E2E10C9449E80F931F93CF93DF938091E9
:103A100026088823B9F400D000D08AEC96E0ADB730
:103A2000BEB712969C938E93119783E296E01496FC
:103A30009C938E9313970E94D6D10F900F900F9066
:103A40000F9030C00E94FB1805E116E0CAECD6E0EA
:103A500064E670E080E090E00E9476E282E594E126
:103A60000E94FECD00D000D000D0EDB7FEB7319659
:103A7000ADB7BEB71296DC93CE9311971383028332
:103A8000958384830E94D6D1EDB7FEB736960FB6E4
:103A9000F894FEBF0FBEEDBFCE010E944DD21816A6
:103AA0001906B4F680E0DF91CF911F910F91089530
:103AB0006091E81561504091E9155091EA1582E94D
:103AC00098E10E943291089510921B1610921A16D6
:103AD00010920E1610920D161092101610920F16CC
:103AE0000E9442E26093091670930A1680930B16A7
:103AF00090930C1608958091761590917715892BE7
:103B000009F45AC00E9442E220917015309171155B
:103B10004091721550917315621B730B840B950BBA
:103B2000209174153091751540E050E062177307CD
:103B30008407950708F440C037C001979093771524
:103B4000809376158091761590917715892BA1F148
:103B50000E9442E260937015709371158093721504
:103B60009093731560916F15862F8450843088F47C
:103B70008091761580FF05C0409178155091791598
:103B800004C040917A1550917B1582E998E10E941A
:103B9000329180916F15853079F480910B0194E01A
:103BA000892780930B010895809176159091771560
:103BB0001816190614F2C6CF089585E080936F1584
:103BC0001092701510927115109272151092731553
:103BD0006091ED157091EE158091EF159091F015B3
:103BE0000E9459E520E030E04AEF53E40E94E3E60A
:103BF0000E942BE570937515609374158091E915FB
:103C00009091EA15A091EB15B091EC15880F991FD2
:103C1000AA1FBB1F90937715809376150E947B1D7A
:103C200008951F931091E815115010936F151F5FA1
:103C3000812F8550843008F05BC01092701510926F
:103C4000711510927215109273156091F1157091A3
:103C5000F2158091F3159091F4150E9459E520E03A
:103C600030E04AEF53E40E94E3E60E942BE57093B4
:103C70007515609374158091ED159091EE15A091D6
:103C8000EF15B091F015880F991FAA1FBB1F9093D5
:103C90007715809376158091E9159091EA159093A8
:103CA000791580937815153079F0163018F41430A2
:103CB000E9F405C0163069F01730C1F40FC08091E7
:103CC000B40B9091B50B0EC08091080C9091090C2B
:103CD00009C080915C0C90915D0C04C08091B00C87
:103CE0009091B10C90937B1580937A150E947B1D67
:103CF0001F9108956F927F928F929F92AF92BF9281
:103D0000CF92DF92EF92FF920F931F930E9442E2B5
:103D100020915315309154154091551550915615D9
:103D2000621B730B840B950B20915715309158151E
:103D300040E050E0261737074807590790F4809174
:103D4000591590915A15A0915B15B0915C1580930F
:103D50003A1590933B15A0933C15B0933D1581E027
:103D600077C00E9442E27B018C0160914F157091F7
:103D7000501580915115909152150E9459E53B01C3
:103D80004C0160915D1570915E1580915F15909169
:103D900060150E9459E55B016C018091531590916B
:103DA0005415A0915515B0915615E81AF90A0A0B49
:103DB0001B0BC801B7010E9457E57B018C01609184
:103DC00057157091581580E090E00E9457E59B01CF
:103DD000AC01C801B7010E94BEE49B01AC01C60161
:103DE000B5010E94E3E67B018C016091631570E0F0
:103DF000882777FD8095982F0E9459E59B01AC019B
:103E0000C801B7010E94E3E69B01AC01C401B30104
:103E10000E94DAE30E9426E5613A2CE8720720E06E
:103E2000820720E092072CF0605A7C488040904046
:103E300006C097FF04C0605673478F4F9F4F609333
:103E40003A1570933B1580933C1590933D1580E097
:103E50001F910F91FF90EF90DF90CF90BF90AF90A8
:103E60009F908F907F906F9008950E9442E22091E2
:103E70008015309181154091821550918315621BF8
:103E8000730B840B950B20917C1530917D1540911F
:103E90007E1550917F15261737074807590710F0F0
:103EA00080E0089510927C1510927D1510927E1579
:103EB00010927F1581E008958091C114813761F1DE
:103EC000823718F4803771F505C0823731F08337B7
:103ED00049F525C00E94351F08952091671530913E
:103EE00068154091691550916A1580917C159091E3
:103EF0007D15A0917E15B0917F15281739074A07C7
:103F00005B0784F410927C1510927D1510927E153B
:103F100010927F1581E008950E940A1508950E946D
:103F20007A1E089580E00895EF92FF920F931F93F9
:103F30001092A30480913A1590913B15A0913C15E5
:103F4000B0913D1580934F1590935015A093511546
:103F5000B09352150E9442E260935315709354152A
:103F600080935515909356151091E815109363158D
:103F70000091F115009364156091ED157091EE15A7
:103F80008091EF159091F01524E630E040E050E08C
:103F90000E94AAE77093621560936115672B31F454
:103FA00088EB9BE09093621580936115112319F4BF
:103FB0008FEF809363150023B9F06091E91570913C
:103FC000EA158091EB159091EC1524E630E040E085
:103FD00050E00E94AAE760935D1570935E15809390
:103FE0005F159093601574C06091E9157091EA15A2
:103FF0008091EB159091EC1524E630E040E050E024
:104000000E94AAE77B018C016093591570935A15A1
:1040100080935B1590935C158091631520914F15EB
:104020003091501540915115509152158130C1F485
:10403000D801C701821B930BA40BB50B2E153F05AE
:104040004007510724F080569347AF4FBF4F8093EE
:104050005D1590935E15A0935F15B093601515C024
:10406000E216F3060407150724F0205633474F4F96
:104070005F4F2E193F09400B510B20935D15309374
:104080005E1540935F155093601580915D1590917A
:104090005E15A0915F15B0916015813A2CE89207EA
:1040A00020E0A20720E0B2072CF0805A9C48A040F4
:1040B000B04006C0B7FF04C080569347AF4FBF4F14
:1040C00080935D1590935E15A0935F15B093601576
:1040D0002091611530916215442737FD4095542F8A
:1040E00060915D1570915E1580915F1590916015DE
:1040F0000E9412E8CA01B90128EE33E040E050E026
:104100000E94AAE770935815609357151F910F915D
:10411000FF90EF9008950E9442E2E0E020912A157E
:1041200030912B1540912C1550912D15621B730B5E
:10413000840B950B20912E1530912F154091301541
:1041400050913115261737074807590708F4E1E061
:104150008E2F0895AF92BF92CF92DF92EF92FF928F
:104160000F931F93E0908815F090891500918A15A0
:1041700010918B150E9442E2209184153091851593
:104180004091861550918715621B730B840B950B1C
:1041900024E130E040E050E00E94F0E7E21AF30A48
:1041A000040B150BE092BC15F092BD150093BE15E3
:1041B0001093BF15A090AD15B090AE15C090AF157F
:1041C000D090B01560912015709121158091221525
:1041D000909123156A197B098C099D090E9459E564
:1041E0002DEC3CEC4CE45EE30E94E3E67B018C01A9
:1041F0006091241570912515882777FD8095982F5B
:104200000E9459E52DEC3CEC4CE45FE30E94E3E6B0
:104210009B01AC01C801B7010E94DAE30E9426E5C8
:104220009B017093251560932415A0922015B092E0
:104230002115C0922215D09223158091260888233B
:1042400049F080911A1590911B1588971CF481E014
:1042500080931F15121613061CF081E080931F1522
:1042600080E01F910F91FF90EF90DF90CF90BF9073
:10427000AF900895CF92DF92FF920F931F93CF9349
:10428000DF930E94FB1800D000D00AEC16E0ADB717
:10429000BEB712961C930E93119789EE96E0149672
:1042A0009C938E9313970E94D6D10F900F900F90EE
:1042B0000F9068EE73E080E090E00E9476E2A5EE59
:1042C000CA2EA6E0DA2EC0E0D0E0F02E012F21C0E9
:1042D0008BEF90E16C2F0E94C79200D000D000D0ED
:1042E000EDB7FEB73196ADB7BEB71196FC921197F8
:1042F00012960C93D382C282958384830E94D6D176
:104300002196EDB7FEB736960FB6F894FEBF0FBEF6
:10431000EDBFC930D105E4F28AEC96E00E94FBE0E3
:1043200064E170E080E090E00E9476E28AEC96E042
:104330000E944DD2181619061CF0C0E0D0E0E9CF5B
:1043400080E0DF91CF911F910F91FF90DF90CF9090
:104350000895A0E0B0E0EFEAF1E20C9437E80E94A3
:10436000FB1868EE73E080E090E00E9476E28EEE4B
:10437000C82E86E0D82EBAECEB2EB6E0FB2E6DE40C
:1043800071E080E090E00E9476E20E9454188091F3
:10439000F9109091FA100E946FC8C091F910D09155
:1043A000FA108DA1882309F445C08DB79EB74297B6
:1043B0000FB6F8949EBF0FBE8DBF0DB71EB70F5F2F
:1043C0001F4FEDB7FEB7F282E182F801D382C282BD
:1043D0008A859B85AC85BD8584839583A683B783B9
:1043E0008E859F85A889B98980879187A287B387A1
:1043F0006A897B898C899D8924E630E040E050E021
:104400000E9412E8F80124873587468757878CA1D8
:10441000808B118A0E94D6D1E091F910F091FA10A8
:1044200015A28DB79EB742960FB6F8949EBF0FBEE9
:104430008DBF06C08AEC96E060E072E00E9418E052
:104440008AEC96E00E944DD2181619060CF097CF10
:1044500080E0CDB7DEB7E8E00C9453E8CF93DF936C
:10446000C0E0D0E08AEC96E062E072E00E9418E0E2
:104470002196C832D105B1F78AEC96E064E072E08B
:104480000E9412E1DF91CF910895CF93DF93EC0169
:1044900007C021978AEC96E064E072E00E9412E186
:1044A0001C161D06B4F3DF91CF910895CF93DF93CF
:1044B00000D000D0CAECD6E0ADB7BEB71296DC9300
:1044C000CE9311978CE592E114969C938E9313975B
:1044D0000E94D6D10F900F900F900F900E942E2225
:1044E0008091270A0E94651A8091270A882301F18A
:1044F00000D000D000D0EDB7FEB73196ADB7BEB753
:104500001296DC93CE93119783E592E19383828395
:104510008091330A9091340A958384830E94D6D186
:10452000EDB7FEB736960FB6F894FEBF0FBEEDBFDF
:1045300082E090E00E944522DF91CF910895A0E0B3
:10454000B0E0E5EAF2E20C9438E8D82EEB019AE00C
:10455000E92EF12CE60EF71E0A851B85C80160E9DD
:1045600078E00E94F7E9892B31F581E08093270AF2
:104570008CE19AE00E94329521E02D1508F05AC096
:104580006E897F89888D998D683EE3E07E07E0E043
:104590008E07E0E09E070CF44DC0613DF7E07F0719
:1045A000F0E08F07F0E09F070CF044C07093340AEE
:1045B0006093330A2AC0C8016CE878E00E94F7E9EA
:1045C000892B39F41092270A8CE19AE00E943295E7
:1045D00031C0F70182819381A481B581885E9340C7
:1045E000A040B040895E9340A040B04088F481E094
:1045F0008093270A8CE19AE00E943295F70182812C
:1046000093819093340A8093330A88E29AE0DECF54
:1046100000D000D08AEC96E0EDB7FEB7928381839C
:1046200083E798E0948383830E94D6D10F900F9004
:104630000F900F900E94562280E0CDB7DEB7E7E0E2
:104640000C9454E800D000D08AEC96E0EDB7FEB7A9
:10465000928381838EE593E1948383830E94D6D1F4
:104660000F900F900F900F900E942E220E94D91948
:104670000E941F1A82E090E00E94452208950F9345
:104680001F9300D000D00AEC16E0ADB7BEB712966B
:104690001C930E93119786EA93E114969C938E9344
:1046A00013970E94D6D10F900F900F900F900E94F9
:1046B0002E22EDB7FEB73E970FB6F894FEBF0FBEA1
:1046C000EDBF3196ADB7BEB712961C930E931197FE
:1046D00083E693E1938382838091A2079091A3075D
:1046E000958384838091AF079091B00797838683E9
:1046F0008091E1079091E207918780878091BC07C4
:10470000992787FD9095938782878091D407909110
:10471000D507958784870E94D6D1EDB7FEB73E9620
:104720000FB6F894FEBF0FBEEDBF82E090E00E948E
:1047300045221F910F9108950F931F9300D000D031
:104740000AEC16E0ADB7BEB712961C930E93119704
:104750008EED93E114969C938E9313970E94D6D17D
:104760000F900F900F900F900E942E22EDB7FEB782
:104770003E970FB6F894FEBF0FBEEDBF3196ADB7B2
:10478000BEB712961C930E93119780EB93E193831F
:10479000828380913E0790913F07A0914007B0919E
:1047A000410784839583A683B78380914D079091B9
:1047B0004E07918780878091FF0790910008AA2774
:1047C00097FDA095BA2F82879387A487B5870E940B
:1047D000D6D1EDB7FEB73E960FB6F894FEBF0FBE2A
:1047E000EDBF82E090E00E9445221F910F91089555
:1047F0000F931F9300D000D00AEC16E0EDB7FEB780
:104800001283018385E594E1948383830E94D6D14A
:104810000F900F900F900F900E942E2200D000D08A
:10482000EDB7FEB71283018388E494E19483838318
:104830000E94D6D10F900F900F900F908DE79DE0C2
:104840000E94761B00D000D0EDB7FEB71283018323
:1048500080E494E1948383830E94D6D10F900F90DB
:104860000F900F908EEC9DE00E94761B00D000D040
:10487000EDB7FEB7128301838AE394E194838383C7
:104880000E94D6D10F900F900F900F908FE19EE075
:104890000E94761B00D000D0EDB7FEB712830183D3
:1048A00087E294E1948383830E94D6D10F900F9086
:1048B0000F900F9080E79EE00E94761B00D000D002
:1048C000EDB7FEB7128301838FE194E19483838374
:1048D0000E94D6D10F900F900F900F9081EC9EE028
:1048E0000E94761B00D000D0EDB7FEB71283018383
:1048F00089E194E1948383830E94D6D10F900F9035
:104900000F900F9082E19FE00E94761B00D000D0B4
:10491000EDB7FEB7128301838EE094E19483838325
:104920000E94D6D10F900F900F900F9083E69FE0DA
:104930000E94761B00D000D0EDB7FEB71283018332
:1049400087E094E1948383830E94D6D10F900F90E7
:104950000F900F9084EB9FE00E94761B00D000D058
:10496000EDB7FEB71283018387EF93E194838383CE
:104970000E94D6D10F900F900F900F9086E590E196
:104980000E94761B00D000D0EDB7FEB712830183E2
:1049900086EE93E1948383830E94D6D10F900F908B
:1049A0000F900F9087EA90E10E94761B82E090E0E2
:1049B0000E9445221F910F91089500D000D08AECEB
:1049C00096E0EDB7FEB7928381838CE594E1948302
:1049D00083830E94D6D10F900F900F900F900E946A
:1049E0002E220E94A21A82E090E00E9445220895A1
:1049F0000F931F9300D000D00AEC16E0EDB7FEB77E
:104A0000128301838FE694E1948383830E94D6D13D
:104A10000F900F900F900F900E942E2200D000D088
:104A2000EDB7FEB71283018383E694E19483838319
:104A30000E94D6D10F900F900F900F9082E090E0DF
:104A40000E9445221F910F910895CF93DF93FB01A0
:104A5000C285D385CE016AEC7BE00E94F7E9892B01
:104A600011F481E019C0CE0168EC7BE00E94F7E907
:104A7000892B39F0CE0166EC7BE00E94F7E9892BA7
:104A800019F4109263080AC0CE0164EC7BE00E9426
:104A9000F7E9892B41F482E08093630888E598E088
:104AA0000E94329512C000D000D08AEC96E0EDB79B
:104AB000FEB79283818382EB9BE0948383830E9481
:104AC000D6D10F900F900F900F900E94F82480E0A5
:104AD000DF91CF91089500D000D000D0EDB7FEB7A0
:104AE00031968AEC96E0ADB7BEB712969C938E9342
:104AF000119786E794E19383828380910B079091CD
:104B00000C07958384830E94D6D18DB79EB70696F5
:104B10000FB6F8949EBF0FBE8DBF0E942E2282E07A
:104B200090E00E944522089500D000D08AEC96E0E3
:104B3000EDB7FEB7928381838CE894E194838383FD
:104B40000E94D6D10F900F900F900F900E942E22AE
:104B5000809138160E94651A82E090E00E944522FA
:104B6000089500D000D08AEC96E0EDB7FEB79283AE
:104B7000818382EF94E1948383830E94D6D10F9046
:104B80000F900F900F900E942E2280913208882360
:104B900011F40E94651A80913208813091F400D09E
:104BA00000D08AEC96E0EDB7FEB7928381838AEE5F
:104BB00094E1948383830E94D6D10F900F900F903D
:104BC0000F9080913208823091F400D000D08AECAE
:104BD00096E0EDB7FEB79283818382EE94E19483F1
:104BE00083830E94D6D10F900F900F900F908091E9
:104BF0003208833091F400D000D08AEC96E0EDB713
:104C0000FEB79283818387ED94E1948383830E942E
:104C1000D6D10F900F900F900F9080913208843072
:104C200091F400D000D08AEC96E0EDB7FEB7928305
:104C3000818389EC94E1948383830E94D6D10F9081
:104C40000F900F900F9082E090E00E94452208950F
:104C5000CF93DF93FB01EB012A968285938561E177
:104C60007BE00E94F7E9892B19F4109232080FC0FB
:104C70002A813B814C815D81DA01C9010197A1093B
:104C8000B1090497A105B10538F42093320887E2F1
:104C900098E00E94329512C000D000D08AEC96E0D5
:104CA000EDB7FEB7928381838EEF9AE0948383837E
:104CB0000E94D6D10F900F900F900F900E94B125B7
:104CC00080E0DF91CF910895FF920F931F93F62E0E
:104CD00000D000D000D0EDB7FEB731960AEC16E058
:104CE000ADB7BEB712961C930E93119722EC31E12B
:104CF00033832283848315820E94D6D18DB79EB7D9
:104D000006960FB6F8949EBF0FBE8DBFEF2DF0E054
:104D1000EE0FFF1FE759FB4F60817181C8010E94B0
:104D200012E11F910F91FF900895CF93DF9300D070
:104D300000D08AEC96E0EDB7FEB79283818386E1DE
:104D400093E1948383830E94D6D10F900F900F90AC
:104D50000F900E942E22C0E0D0E0FE01E251F84FF9
:104D60008C2F60810E9464262196C630D105A9F758
:104D700082E090E00E944522DF91CF9108958AEC75
:104D800096E065E072E00E9412E10895AF92BF9252
:104D9000CF92DF92EF92FF920F931F9300D000D03B
:104DA0000AEC16E0ADB7BEB712961C930E9311979E
:104DB00080E193E114969C938E9313970E94D6D131
:104DC0000F900F900F900F900E942E2200D000D0D5
:104DD000EDB7FEB71283018385EF92E1948383835D
:104DE0000E94D6D1E090BF09F090C009C09086081B
:104DF000D0908708A090A008B090A1080F900F90C5
:104E00000F900F9084E698E00E94A3DA2DB73EB78A
:104E10002C5030400FB6F8943EBF0FBE2DBFEDB7FB
:104E2000FEB73196ADB7BEB712961C930E9311978D
:104E300022EE32E133832283F582E482D782C68276
:104E4000B186A086828713860E94D6D1E090CC09D5
:104E5000F090CD09C090DA08D090DB08A090F4085B
:104E6000B090F508EDB7FEB73C960FB6F894FEBFCC
:104E70000FBEEDBF88EB98E00E94A3DA2DB73EB7D6
:104E80002C5030400FB6F8943EBF0FBE2DBFEDB78B
:104E9000FEB73196ADB7BEB712961C930E9311971D
:104EA0002FEC32E133832283F582E482D782C682FB
:104EB000B186A086828713860E94D6D1E090D90958
:104EC000F090DA09C0902E09D0902F09A0904809DF
:104ED000B0904909EDB7FEB73C960FB6F894FEBF07
:104EE0000FBEEDBF8CE099E00E94A3DA2DB73EB76C
:104EF0002C5030400FB6F8943EBF0FBE2DBFEDB71B
:104F0000FEB73196ADB7BEB712961C930E931197AC
:104F10002CEB32E133832283F582E482D782C6828E
:104F2000B186A086828713860E94D6D1E09082093E
:104F3000F0908309C0909C09D0909D09EDB7FEB711
:104F40003C960FB6F894FEBF0FBEEDBF80E699E029
:104F50000E94A3DA2DB73EB72A5030400FB6F8941E
:104F60003EBF0FBE2DBFEDB7FEB73196ADB7BEB792
:104F700012961C930E93119729EA32E13383228310
:104F8000F582E482D782C682808711860E94D6D1BC
:104F90000F900F900F900F90EDB7FEB73196ADB711
:104FA000BEB712961C930E9311978AE992E19383F0
:104FB00082838091E6099091E709958384830E941A
:104FC000D6D1EDB7FEB73196ADB7BEB712961C93EA
:104FD0000E9311978AE892E1938382838091F3097B
:104FE0009091F409958384830E94D6D100D000D09B
:104FF000EDB7FEB73196ADB7BEB712961C930E93C0
:1050000011978CE692E1938382838091000A9091BC
:10501000010A9583848380911A0A90911B0A9783D1
:10502000868380910D0A90910E0A918780870E9455
:10503000D6D1EDB7FEB73A960FB6F894FEBF0FBEC5
:10504000EDBF82E090E00E9445221F910F91FF90FA
:10505000EF90DF90CF90BF90AF90089582EB92E1F8
:105060000E9481CD0E941F1A0E94222380E0089591
:1050700000D000D08AEC96E0EDB7FEB79283818332
:1050800089E29CE0948383830E94D6D10F900F9095
:105090000F900F908AEC96E00E947BD2FFEF8F3F3B
:1050A0009F07C1F38937910529F08935910511F0E2
:1050B0008FEF08950E94F89500D000D08AEC96E01A
:1050C000EDB7FEB79283818384E09CE09483838371
:1050D0000E94D6D10F900F900F900F9068EE73E062
:1050E00080E090E00E9476E2FFCFEF92FF920F9374
:1050F0001F93CF93DF937B018230A1F000D000D0CB
:105100008AEC96E0EDB7FEB7928381838BE09DE059
:10511000948383830E94D6D18FEF0F900F900F90CE
:105120000F9089C0FB0102851385C80167E07DE00F
:105130000E94E4E9892B19F4CFEFDFE75BC0C801D7
:1051400069EF7CE00E94E4E9C0E0D0E0892B11F433
:10515000C1E0D0E0C8016CEE7CE00E94E4E9892B5C
:1051600009F4C260C80168EE7CE00E94E4E9892B82
:1051700009F4C460C80165EE7CE00E94E4E9892B73
:1051800009F4C860C80160EE7CE00E94E4E9892B64
:1051900009F4C061C8016BED7CE00E94E4E9892B51
:1051A00009F4C062C80166ED7CE00E94E4E9892B45
:1051B00009F4C064C80162ED7CE00E94E4E9892B37
:1051C00009F4C068C8016EEC7CE00E94E4E9892B18
:1051D00009F4D160C80166EC7CE00E94E4E9892B07
:1051E00009F4D260C8016FEB7CE00E94E4E9892BEE
:1051F00009F4D460F7018081918168EB7CE00E9422
:10520000E4E9892B39F480910C0890910D08C82BA2
:10521000D92B08C0C095D09580910C0890910D08AD
:10522000C823D923D0930D08C0930C0881E098E0DF
:105230000E94329580E0CDB7DEB7E6E00C9455E8E9
:105240000F931F9308E919E1C80163EA0E94E4CFB4
:10525000C80165E90E94E4CFC8016AE00E94E4CF7A
:10526000C8016AEB0E94E4CF1F910F910895CF937C
:10527000DF9300D000D08AEC96E0EDB7FEB79283C2
:1052800081838BE29DE0948383830E94D6D1C1E029
:10529000D0E00F900F900F900F9088E999E1BE0138
:1052A0000E943ACF2196F0E1C030DF07B1F788E9DC
:1052B00099E161E070E00E942ECF88E999E163EA0C
:1052C0000E94E4CF88E999E165E90E94E4CF88E98A
:1052D00099E160EF0E94E4CF88E999E160E00E94E3
:1052E000E4CF88E999E16AEB0E94E4CF88E999E18B
:1052F0000E945CD000D000D08AEC96E0EDB7FEB7FB
:10530000928381838DE19DE0948383830E94D6D133
:105310000F900F900F900F9080E0DF91CF91089544
:10532000EF92FF920F931F9300D000D00AEC16E08B
:10533000ADB7BEB712961C930E9311978CEF95E103
:1053400014969C938E9313970E94D6D10F900F9032
:105350000F900F9048E9E42E49E1F42EC7010E9416
:10536000D4D0E82FF0E0EE0FFF1FE759FB4F60812C
:105370007181C8010E9418E0C7010E9445D100D088
:1053800000D000D0EDB7FEB73196ADB7BEB71296DC
:105390001C930E93119726EF35E133832283958377
:1053A00084830E94D6D1EDB7FEB736960FB6F89437
:1053B000FEBF0FBEEDBF1F910F91FF90EF900895BC
:1053C000CF92DF92EF92FF920F931F9308E919E1BA
:1053D000C8010E9445D16C01C8010E9445D17C01E1
:1053E000C8010E9445D12DB73EB72A5030400FB6B4
:1053F000F8943EBF0FBE2DBFEDB7FEB731962AEC35
:1054000036E0ADB7BEB712963C932E93119721E0CC
:1054100036E133832283D582C482F782E682918784
:1054200080870E94D6D12DB73EB7265F3F4F0FB67B
:10543000F8943EBF0FBE2DBF1F910F91FF90EF90CC
:10544000DF90CF900895ABE0B0E0E9E2FAE20C948F
:105450002DE808E919E1C8010E9445D1998788879C
:10546000C8010E9445D19F838E83C8010E94D4D079
:105470008D83C8010E9445D19C838B83C8010E9403
:1054800045D19A838983C8010E9445D17C01C80116
:105490000E9445D16C01C8010E9445D19B878A8733
:1054A000C8010E9445D11C01C8010E9445D12C01B0
:1054B000C8010E9445D13C01C8010E9445D14C0160
:1054C000C8010E9445D15C018DB79EB780970FB689
:1054D000F8949EBF0FBE8DBF0DB71EB70F5F1F4F55
:1054E0008AEC96E0EDB7FEB7928381838EE396E176
:1054F000F8019383828388859985958384838E813F
:105500009F81978386839D81908711868B819C8163
:105510009387828789819A8195878487F786E68633
:10552000EE24D7FCE094FE2CC701B6010E9459E599
:10553000F801608B718B828B938B8A859B85958B11
:10554000848B378A268A518E408E738E628E958E1A
:10555000848EB78EA68E0E94D6D1EDB7FEB7B096D8
:105560000FB6F894FEBF0FBEEDBF2B96E2E10C9490
:1055700049E83F924F925F926F927F928F929F92F3
:10558000AF92BF92CF92DF92EF92FF920F931F9351
:1055900008E919E1C8010E9445D12C01C8010E9407
:1055A000D4D0382EC8010E9445D13C01C8010E94C8
:1055B00045D14C01C8010E9445D15C01C8010E943F
:1055C00045D16C01C8010E9445D17C01C8010E94EF
:1055D00045D12DB73EB7245130400FB6F8943EBFA9
:1055E0000FBE2DBFEDB7FEB731962AEC36E0ADB752
:1055F000BEB712963C932E9311972BE736E1338377
:105600002283558244823682178271866086938611
:105610008286B586A486D786C686F18AE08A938B71
:10562000828B0E94D6D12DB73EB72C5E3F4F0FB66E
:10563000F8943EBF0FBE2DBF1F910F91FF90EF90CA
:10564000DF90CF90BF90AF909F908F907F906F90A2
:105650005F904F903F900895AF92BF92CF92DF92AC
:10566000EF92FF920F931F9308E919E1C8010E947E
:1056700045D15C01C8010E9445D16C01C8010E945E
:1056800045D17C01C8010E9445D12DB73EB72C50B1
:1056900030400FB6F8943EBF0FBE2DBFEDB7FEB73A
:1056A00031962AEC36E0ADB7BEB712963C932E93F6
:1056B000119721EA36E133832283B582A482D7820F
:1056C000C682F186E086938782870E94D6D12DB765
:1056D0003EB7245F3F4F0FB6F8943EBF0FBE2DBFBD
:1056E0001F910F91FF90EF90DF90CF90BF90AF9000
:1056F00008951F9388E999E161E070E00E945BD111
:1057000010E088E999E10E94D4D0113051F01130B5
:1057100018F0123099F408C010E0833A79F411E0DF
:105720000DC0853951F407C0803F39F488E999E10B
:105730000E94D4D00AC012E001C010E088E999E1CB
:105740000E9499CE0197E9F280E01F910895EF92AF
:10575000FF920F931F937C01162FBA01A901202FEE
:105760000E949E9788E695E0F701918380831387D6
:1057700080913619909137190C9690933719809330
:1057800036191F910F91FF90EF900895CF92DF92FD
:10579000EF92FF920F937C016B01BA01A901202FB8
:1057A0000E949E9786E795E0F70191838083D486D7
:1057B000C38680913619909137190D9690933719B9
:1057C000809336190F91FF90EF90DF90CF9008955E
:1057D0000F931F938C0124600E949E9789ED95E0A2
:1057E000F8019183808380913619909137190B9637
:1057F00090933719809336191F910F910895FC01EA
:105800008CE495E091838083CF010E94EB9608950C
:10581000FC018AE595E091838083CF010E94EB969D
:105820000895FC0188E695E091838083CF010E9472
:10583000EB960895FC0186E795E091838083CF0184
:105840000E94EB960895FC018CE495E0918380839F
:10585000CF010E94EB960895FC0182E995E09183C7
:105860008083CF010E94EB9608950F931F938C01C4
:1058700080579F4F0E941A2CC8018D579F4F0E943E
:105880001A2CC8018A589F4F0E941A2CC8018759A8
:105890009F4F0E941A2CC801845A9F4F0E941A2CB5
:1058A000C801815B9F4F0E941A2CC8018E5B9F4FDD
:1058B0000E941A2CC801C5960E941A2C89ED95E009
:1058C000F80193A782A7C8018A960E94EB961F91C0
:1058D0000F9108950F931F938C01C8960E941A2C64
:1058E000C80189960E94232CC8014A960E94232C45
:1058F000C8010B960E94232C89ED95E0F801918355
:105900008083C8010E94EB961F910F9108950F9319
:105910001F938C018D5B9F4F0E94112CC801C19673
:105920000E941A2CC80184960E941A2CC80147961E
:105930000E941A2C89ED95E0F80191838083C801BB
:105940000E94EB961F910F910895FC0180EA95E06B
:1059500091838083CF010E94EB960895FC018EEA2B
:1059600095E091838083CF010E94EB9608950F9379
:105970001F938C018CE495E0F80191838083C8012A
:105980000E94EB96C8010E946A9B1F910F91089597
:105990000F931F938C018AE595E0F8019183808332
:1059A000C8010E94EB96C8010E946A9B1F910F914B
:1059B00008950F931F938C0188E695E0F801918379
:1059C0008083C8010E94EB96C8010E946A9B1F91C8
:1059D0000F9108950F931F938C0186E795E0F801CE
:1059E00091838083C8010E94EB96C8010E946A9B44
:1059F0001F910F9108950F931F938C018CE495E0F4
:105A0000F80191838083C8010E94EB96C8010E942F
:105A10006A9B1F910F9108950F931F938C0182E948
:105A200095E0F80191838083C8010E94EB96C8013C
:105A30000E946A9B1F910F9108950F931F938C01F1
:105A400080EA95E0F80191838083C8010E94EB967B
:105A5000C8010E946A9B1F910F9108950F931F9395
:105A60008C018EEA95E0F80191838083C8010E9441
:105A7000EB96C8010E946A9B1F910F9108954630D2
:105A8000510540F0DC011B96FB0186E001900D9270
:105A90008150E1F786E090E00895FC014630510521
:105AA00038F0DB013B9686E001900D928150E1F7E2
:105AB00086E090E008954831510540F0DC011B96E6
:105AC000FB0188E101900D928150E1F788E190E0BF
:105AD0000895FC014831510538F0DB013B9688E11F
