:100000000C9486100C94B2100C94B2100C94B21094
:100010000C94B2100C94B2100C94B2100C94B21058
:100020000C94B2100C94B2100C94B2100C94B21048
:100030000C94B2100C94B2100C94B2100C949B90CF
:100040000C94B2100C94B2100C94B2100C94B21028
:100050000C94B2100C94B2100C94B2100C94D5DE27
:100060000C94B2100C949F140C94DF140C94B210E6
:100070000C94B2100C94B2100C94B2100C94B210F8
:100080000C94B2100C94B2100C94B2100C94B210E8
:100090000C9431150C9471150C94B2100C94FEDA7A
:1000A0000C94B2100C941D8F0C94B2100C94B210DE
:1000B0000C94B2100C94B2100C94B2100C94B210B8
:1000C0000C94B2100C94B2100C94B2100C94B210A8
:1000D0000C94B2100C94B2100C94C3150C9403162B
:1000E0000C94B21079167E16831688168D16921609
:1000F00097169C16A116A616AB16212C212C472C60
:10010000852C672CA32CBF2CEF2C1E2D762D206365
:1001100023632763236323632A632F632363236398
:10012000236337633C6341632363236334636B6EF0
:100130006B6E6B6E696E696E6B6E6B6E696E696EFF
:10014000696E596E696E5C6E696E696E666E177661
:100150003D7649765B76647647806D76478047804A
:100160004780797682768B76A476F87EF87EF87E64
:10017000B076F87EA676F87EBB76B376BE76B57698
:10018000B876F87EBB76BB76BB76BB76F87EF87E1B
:10019000F87EF87EBE76F87EC076F188C588B48891
:1001A0000989098990870388098909890989098941
:1001B0007B877B87098909897B87948F998F9E8F9D
:1001C000A38FA88FAD8FB28FB78FBC8FC18FC68F13
:1001D00038C433C43CC440C44DC465C48CC49CC43E
:1001E000D9C5D4C5DDC5E6C50BC616C62EC64EC6D6
:1001F00055C612E015E008E00CE04EE019E01DE005
:1002000023E027E02BE031E035E039E03FE043E058
:1002100049E0036EDB363D9A9999993DABAAAA2A2B
:100220003E000000803F084AD73B3BCE016E84BCB5
:10023000BFFDC12F3D6C74319ABD56833DDA3D0040
:10024000C77F11BED9E4BB4C3E916BAAAABE000089
:1002500000803F072C7AA5BA6CC590DA3B9365FC09
:100260008BBC53F810FD3C5692834DBD879D3AB62A
:100270003DCBC9BF5BBE73DA0FC93F05A84CCDB2F9
:10028000D44EB93836A9020C50B9918688083CA6DC
:10029000AAAA2ABE000000803F08000000BE9224E7
:1002A00049123EABAAAA2ABECDCCCC4C3E000000DF
:1002B00080BEABAAAAAA3E00000000BF00000080DA
:1002C0003F0000000000084178D3BB4387D1133DB5
:1002D000190E3CC3BD4282AD2B3E68EC8276BED97E
:1002E0008FE1A93E4C80EFFFBE01C4FF7F3F0000BD
:1002F0000000004C6F670064756D70000000000026
:100300000000000000135A65726173650000000070
:100310000000000000A525656E61626C65000000AC
:100320000000000000E42464697361626C650000F1
:100330000000000000E42468656C7000000000000C
:100340000000000000581A706C616E6E65720067E4
:1003500063730000000000000000000000F28073E2
:1003600065747570007265736574000000000000AC
:10037000000000AD24726164696F0000000000009D
:1003800000000022466D6F646573000000000000ED
:10039000000000AF45636F6D706173730000000073
:1003A000000000CA3A6465636C696E6174696F6EBF
:1003B000000000B53A626174746572790000000053
:1003C000000000C52373686F770000000000000084
:1003D0000000007F3A657261736500000000000054
:1003E00000000064384172647550696C6F744D652B
:1003F0006761006C6F677300000000000000000080
:10040000001438736574757000000000000000006F
:1004100000E4377465737400000000000000000001
:1004200000CC3768656C7000000000000000000020
:1004300000441A706C616E6E65720000000000006E
:1004400000FC37746573740070776D000000000065
:10045000000000000000F243726164696F00000058
:10046000000000000000C95C6661696C736166652C
:10047000000000000000B04462617474657279008D
:100480000000000000009D3C72656C617900000076
:10049000000000000000B51C776179706F696E7410
:1004A000730000000000CB52786265650000000018
:1004B0000000000000007F1F656564756D7000001E
:1004C000000000000000B5206D6F646573776974EB
:1004D0006368000000001C4264697073776974638C
:1004E000686573000000394D61646300000000001E
:1004F0000000000000003D20677073000000000055
:10050000000000000000B11F726177677073000087
:10051000000000000000401F696D75000000000031
:10052000000000000000441E6779726F00000000A8
:10053000000000000000951D6169727370656564BC
:10054000000000000000B23D616972707265737353
:100550007572650000006540636F6D7061737300B4
:10056000000000000000443963757272656E74000B
:10057000000000000000465C4E6F7420656E6162F2
:100580006C65640A00563A2025342E34662C2041CE
:100590003A2025342E34662C206D41683A202534CB
:1005A0002E34660A0048656164696E673A20256CDE
:1005B000642C2058595A3A2025642C2025642C207C
:1005C00025642C0958595A6F66663A2025362E3212
:1005D000662C2025362E32662C2025362E32660AD1
:1005E00000436F6D706173733A2000416C743A2060
:1005F00025302E32666D2C205261773A20256C64AE
:100600000A00556E63616C69627261746564207280
:10061000656C617469766520616972707265737367
:100620007572650A0025666D2F730A006169727321
:10063000706565643A200061697273706565643A3B
:10064000200061697273706565645F63683A202594
:10065000750A002564092564092564097C09256457
:100660000925640925640A004779726F207C2041BE
:100670006363656C0A00723A20256409703A20258C
:10068000640920793A2025640A002E004C61743AEE
:1006900020256C642C204C6F6E20256C642C20412E
:1006A0006C743A20256C646D2C2023736174733A4A
:1006B0002025640A00256409004144430A004D696D
:1006C000783A656C65766F6E732009726576206581
:1006D0006C65763A25642C20726576206368313A21
:1006E00025642C20726576206368323A25640A00FE
:1006F0004D69783A7374616E646172642009726541
:100700007620726F6C6C3A25642C207265762070AE
:10071000697463683A25642C20726576207275646A
:100720006465723A25640A0064697020737769749D
:10073000636865732064697361626C65642C2075FD
:1007400073696E6720454550524F4D00506F736975
:1007500074696F6E2025640A00436F6E74726F6C4B
:100760002043482000202530327800253034783A64
:1007700000426567696E205842656520582D4354D4
:10078000552052616E676520616E64205253534953
:1007900020546573743A0A004C6F69746572207254
:1007A00061646975733A2025640A0A0048697420F7
:1007B0007261646975733A2025640A0025642077A4
:1007C0006179706F696E74730A00486F6C642061A0
:1007D0006C746974756465206F662025646D0A0009
:1007E000486F6C642063757272656E7420616C74FE
:1007F00069747564650A0052656C6179206F66667C
:100800000A0052656C6179206F6E0A004E6F742089
:10081000656E61626C65640A00566F6C74733A2091
:10082000313A25322E32662C20323A25322E32666B
:100830002C20333A25322E32662C20343A25322EA3
:1008400032660A004C4F5320636175736564206EF5
:100850006F206368616E676520696E2041504D2E80
:100860000A005448524F54544C45204641494C5379
:10087000414645204143544956415445443A202578
:10088000642C2000434F4E54524F4C204D4F444552
:10089000204348414E4745443A20005448524F5463
:1008A000544C45204348414E474544202564200A86
:1008B00000556E706C756720626174746572792C76
:1008C000207468726F74746C6520696E206E657533
:1008D0007472616C2C207475726E206F6666207263
:1008E0006164696F2E0A00494E20313A202564095F
:1008F000323A20256409333A20256409343A202508
:100900006409353A20256409363A20256409373AC6
:1009100020256409383A2025640A00494E3A0931F5
:100920003A20256409323A20256409333A202564A7
:1009300009343A20256409353A20256409363A20DD
:10094000256409373A20256409383A2025640A00CD
:10095000436F6D6D616E64733A0A20206C6F67732C
:1009600020202020202020206C6F67207265616489
:100970006261636B2F7365747570206D6F64650AB7
:10098000202073657475702020202020202073653E
:10099000747570206D6F64650A202074657374200F
:1009A0002020202020202074657374206D6F6465E2
:1009B0000A0A4D6F76652074686520736C696465FA
:1009C0002073776974636820616E64207265736553
:1009D0007420746F20464C592E0A0A000A5479700C
:1009E000652027592720616E642068697420456E50
:1009F00074657220746F20657261736520616C6C20
:100A000020776179706F696E7420616E6420706107
:100A100072616D6574657220646174612C20616E11
:100A200079206F74686572206B657920746F20611E
:100A3000626F72743A20005261772056616C75655E
:100A4000730A000A4F7074696F6E733A20302D3448
:100A5000000A4F7074696F6E733A5B6F6E2C6F662D
:100A6000665D0A006F666600436F6D706173732088
:100A7000696E697469616C69736174696F6E20660F
:100A800061696C656421006F6E000A4D6F766520A8
:100A9000524320746F67676C65207377697463686D
:100AA00020746F206561636820706F736974696F6B
:100AB0006E20746F20656469742C206D6F766520DC
:100AC00061696C65726F6E20737469636B20746FFB
:100AD0002073656C656374206D6F6465732E000A06
:100AE0004D6F766520616C6C20636F6E74726F6CF5
:100AF0007320746F20656163682065787472656D1A
:100B0000652E2048697420456E74657220746F20CC
:100B1000736176653A200A000A4E6F20726164693B
:100B20006F3B20436865636B20636F6E6E65637413
:100B30006F72732E000A0A526164696F20536574E4
:100B400075703A0A000A464143544F5259205245A3
:100B500053455420636F6D706C657465202D207053
:100B60006C656173652072657365742041504D201A
:100B7000746F20636F6E74696E7565000A547970C6
:100B8000652027592720616E642068697420456EAE
:100B900074657220746F20706572666F726D206666
:100BA0006163746F72792072657365742C20616E55
:100BB00079206F74686572206B657920746F20618D
:100BC000626F72743A20000A436F6D6D616E6473D8
:100BD0003A0A202064756D70203C6E3E2020202053
:100BE00020202020202020202064756D70206C6F34
:100BF00067203C6E3E0A20206572617365202020CC
:100C0000202020202020202020202020206572610C
:100C1000736520616C6C206C6F67730A2020656EB1
:100C200061626C65203C6E616D653E7C616C6C2020
:100C3000202020656E61626C65206C6F6767696E4D
:100C400067203C6E616D653E206F7220657665722F
:100C5000797468696E670A202064697361626C65E3
:100C6000203C6E616D653E7C616C6C202020646967
:100C70007361626C65206C6F6767696E67203C6E9C
:100C8000616D653E206F7220657665727974686962
:100C90006E670A0A00656E61626C6500435552001A
:100CA000434D4400524157004D4F4445004E54556A
:100CB0004E004354554E00504D0047505300415490
:100CC0005449545544455F4D45440041545449549A
:100CD0005544455F4641535400616C6C006D697327
:100CE00073696E67206C6F6720747970650A000AFB
:100CF0004C6F67206572617365642E0A000A457245
:100D00006173696E67206C6F672E2E2E0A00415446
:100D100054454E54494F4E202D2045726173696EE3
:100D200067206C6F6720696E202564207365636F90
:100D30006E64732E2020506F776572206F66662078
:100D40006E6F7720746F2073617665206C6F6721FA
:100D5000200A004C6F67207265616420636F6D70BC
:100D60006C6574650A0044756D70696E67204C6F20
:100D700067206E756D6265722025642C202020200E
:100D8000737461727420706167652025642C202063
:100D900020656E6420706167652025640A006261C9
:100DA00064206C6F67206E756D6265720A00414C3D
:100DB0005432505443485F00454E524759325448CC
:100DC000525F005957325352565F004152535044BC
:100DD00032505443485F0050544348325352565F98
:100DE00000524C4C325352565F0048444E473252E8
:100DF0004C4C5F005243385F005243375F00524310
:100E0000365F005243355F005243345F0052433334
:100E10005F005243325F005243315F0041525350F2
:100E2000445F454E41424C4500494E56455254455B
:100E300044464C545F434800424154545F43415040
:100E4000414349545900424154545F4D4F4E495417
:100E50004F52004D41475F454E41424C4500474E81
:100E6000445F4142535F505245535300474E445FE5
:100E700054454D5000414C545F484F4C445F5254D0
:100E80004C005452494D5F50495443485F4344001D
:100E90005452494D5F41525350445F434D004C4FB3
:100EA000475F4249544D41534B00454C45564F4EC8
:100EB0005F4348325F52455600454C45564F4E5FA2
:100EC0004348315F52455600454C45564F4E5F52A0
:100ED00045564552534500454C45564F4E5F4D498A
:100EE00058494E47005357495443485F454E414285
:100EF0004C45005452494D5F4155544F004C494DAB
:100F00005F50495443485F4D494E004C494D5F5036
:100F1000495443485F4D4158004C494D5F524F4C36
:100F20004C5F434400464C544D4F444500464C549E
:100F30004D4F44455F43480046535F4743535F4529
:100F40004E41424C0046535F4C4F4E475F41435425
:100F50004E0046535F53484F52545F4143544E0036
:100F60005452494D5F5448524F54544C45005448D4
:100F7000525F46535F56414C5545005448525F46B8
:100F800041494C53414645005448525F534C4557E4
:100F900052415445005448525F4D41580054485204
:100FA0005F4D494E0041525350445F4642575F4D9A
:100FB00041580041525350445F4642575F4D494E9D
:100FC0000057505F4C4F495445525F5241440057BF
:100FD000505F5241444955530057505F494E444574
:100FE000580057505F544F54414C004152535044A5
:100FF0005F4F46465345540041525350445F52415F
:1010000054494F00414C545F4D4958005854524B7D
:101010005F414E474C455F4344005854524B5F4735
:1010200041494E5F5343004B46465F54485232504D
:10103000544348004B46465F50544348325448524C
:10104000004B46465F524444524D4958004B464679
:101050005F50544348434F4D500053595349445FE8
:101060004D594743530053595349445F54484953DA
:101070004D41560053595349445F53575F5459509B
:10108000450053595349445F53575F4D52455600ED
:10109000524556004D4158005452494D004D494E5D
:1010A00000494D415800440049005000494D555FEA
:1010B00053454E534F525F43414C004C6F67206E77
:1010C000756D6265722025642C2020202073746168
:1010D000727420706167652025642C202020656E65
:1010E0006420706167652025640A000A2564206C0D
:1010F0006F677320617661696C61626C6520666FF1
:101100007220646F776E6C6F61640A000A4E6F2004
:101110006C6F677320617661696C61626C652066D3
:101120006F7220646F776E6C6F61640A0043555272
:101130000020255300434D440020255300524157C1
:1011400000202553004D4F444500202553004E54A8
:10115000554E00202553004354554E002025530082
:10116000504D002025530047505300202553004187
:10117000545449545544455F4D454400202553007F
:1011800041545449545544455F4641535400202529
:1011900053006E6F6E65006C6F677320656E6162E1
:1011A0006C65643A2000636F6D6D616E6420233A54
:1011B0002025642069643A2564206F7074696F6E1D
:1011C000733A25642070313A25642070323A256CD8
:1011D000642070333A256C642070343A256C6420A6
:1011E0000A0048697420456E74657220746F20652A
:1011F0007869742E0A0A0054657374204D6F646513
:101200000A0A000A0A20526561647920746F204638
:101210004C592E003C737461727475705F67726F05
:10122000756E643E204E4F2061697273706565640F
:10123000003C737461727475705F67726F756E6471
:101240003E207A65726F20616972737065656420F3
:1012500063616C69627261746564003C737461728D
:101260007475705F67726F756E643E2047524F559C
:101270004E44205354415254000A4D6F76652074F9
:10128000686520736C69646520737769746368208E
:10129000616E6420726573657420746F20464C59CA
:1012A0002E0A000A456E746572696E6720696E7455
:1012B0006572616374697665207365747570206DFD
:1012C0006F64652E2E2E0A0A4966207573696E6753
:1012D000207468652041726475696E6F2053657271
:1012E00069616C204D6F6E69746F722C20656E732E
:1012F000757265204C696E6520456E64696E672065
:1013000069732073657420746F2043617272696120
:1013100067652052657475726E2E0A547970652067
:101320002768656C702720746F206C697374206364
:101330006F6D6D616E64732C20276578697427204A
:10134000746F206C656176652061207375626D65D0
:101350006E752E0A56697369742074686520277348
:101360006574757027206D656E7520666F722066D6
:10137000697273742D74696D6520636F6E66696739
:1013800075726174696F6E2E0A00436F6D706173C0
:101390007320696E697469616C69736174696F6ED9
:1013A000206661696C656421007573696E6720252C
:1013B00075206279746573206F66206D656D6F723C
:1013C000790A006C6F61645F616C6C20746F6F6B85
:1013D00020256C7575730A00646F6E652E000A0A0D
:1013E000454550524F4D20666F726D617420766591
:1013F0007273696F6E202564206E6F7420636F6D49
:1014000070617469626C65207769746820746869BA
:1014100073206669726D77617265202872657175D7
:1014200069726573202564290A0A466F7263696EC2
:101430006720636F6D706C65746520706172616D9B
:10144000657465722072657365742E2E2E000A0A0B
:10145000496E6974204172647550696C6F744D6592
:10146000676120322E322E310A0A4672656520529B
:10147000414D3A20256C750A004779726F206F66DE
:1014800066736574733A2025342E32662C20253419
:101490002E32662C2025342E32660A0041636365A5
:1014A0006C206F6666736574733A2025342E32663D
:1014B0002C2025342E32662C2025342E32660A004C
:1014C00061626C65640A0064697300656E00646F34
:1014D0006E650A000A45726173696E672045455062
:1014E000524F4D0A002D000A536176656420536502
:1014F0007474696E67730A0A00506F732025643A2A
:1015000020004348383A202564207C202564207C34
:101510002025640A004348373A202564207C202592
:1015200064207C2025640A004348363A2025642044
:101530007C202564207C2025640A004348353A201D
:101540002564207C202564207C2025640A004348F3
:10155000343A202564207C202564207C2025640AE0
:10156000004348333A202564207C202564207C20D9
:1015700025640A004348323A202564207C202564F3
:10158000207C2025640A004348313A202564207CD1
:10159000202564207C2025640A00503A2025342E22
:1015A00033662C20493A25342E33662C20443A25C4
:1015B000342E33662C20494D41583A256C640A007C
:1015C000466C69676874206D6F6465730A004D61CD
:1015D00067206F6666736574733A2025342E34660F
:1015E0002C2025342E34662C2025342E34660A0017
:1015F0004D61672044656C696E6174696F6E3A2055
:1016000025342E34660A003F3F0048494C00484DBF
:10161000433538343300484D43353838334C004374
:101620006F6D706173733A2000494D550A006D6902
:101630006E3A2025640A6D61783A2025640A637247
:10164000756973653A2025640A6661696C73616621
:10165000655F656E61626C65643A2025640A666147
:10166000696C736166655F76616C75653A202564A7
:101670000A005468726F74746C650A0058545241C1
:10168000434B3A2025342E32660A58545241434B7C
:1016900020616E676C653A2025640A0043726F739F
:1016A00073747261636B0A006E6176207069746393
:1016B0006820616C743A0A00656E65726772792001
:1016C0007468726F74746C653A0A006E617620708B
:1016D000697463682061697270736565643A0A00B1
:1016E0006E617620726F6C6C3A0A00736572766F69
:1016F000207275646465723A0A00736572766F20B1
:1017000070697463683A0A00736572766F20726F4D
:101710006C6C3A0A004761696E730A005261646931
:101720006F0A004D6F6E69746F72696E6720766F15
:101730006C747320616E642063757272656E7400E0
:101740004D6F6E69746F72696E6720626174742088
:10175000766F6C7473004D6F6E69746F72696E672B
:1017600020342063656C6C004D6F6E69746F726914
:101770006E6720332063656C6C0042617474206D69
:101780006F6E69746F72696E672064697361626CF1
:1017900065640042617474204D6F696E746F720AE3
:1017A000005365747570204D6F64650A0A494D5089
:1017B0004F5254414E543A20696620796F75206823
:1017C000617665206E6F742070726576696F7573CF
:1017D0006C792073657420746869732073797374ED
:1017E000656D2075702C20757365207468650A27F7
:1017F00072657365742720636F6D6D616E6420740C
:101800006F20696E697469616C697A6520746865B6
:1018100020454550524F4D20746F2073656E73699B
:10182000626C652064656661756C742076616C75A8
:1018300065730A616E64207468656E207468652043
:1018400027726164696F2720636F6D6D616E64201C
:10185000746F20636F6E66696775726520666F725C
:1018600020796F757220726164696F2E0A0A0062B6
:1018700061726F6D657465722063616C696272611B
:1018800074696F6E20636F6D706C6574652E006196
:1018900062735F707265737375726520256C640A7C
:1018A000004D5347204653204F464620004D534796
:1018B000204653204F4E2000506C616E6E657220A2
:1018C0004D6F64650A0A54686973206D6F64652002
:1018D0006973206E6F7420696E74656E6465642030
:1018E000666F72206D616E75616C207573650A0A92
:1018F000003C6E617669676174653E2057502065D3
:1019000072726F72202D2064697374616E6365203A
:101910003C2030004C6F77204261747465727921ED
:10192000004661696C73616665202D2053686F7293
:1019300074206576656E74206F6666004661696C1A
:1019400073616665202D204C6F6E67206576656E2D
:1019500074206F6E00666C69676874206D6F6465D3
:10196000203D20004661696C73616665202D20531F
:10197000686F7274206576656E74206F6E004D53CB
:10198000473A2072657365745F636F6E74726F6C33
:101990005F737769746368003C70726F636573731B
:1019A0005F6D61793E004E657720636D643A203C3F
:1019B00070726F636573735F6D7573743E006F75DE
:1019C00074206F6620636F6D6D616E6473210042D9
:1019D00061642052657175657374202D2063616E9A
:1019E0006E6F74206368616E676520746F206E6F20
:1019F0006E2D4E617620636D64005265616368658B
:101A00006420686F6D65007665726966795F6D75D3
:101A100073743A204C4F49544552206F7262697476
:101A20007320636F6D706C657465007665726966AE
:101A3000795F6D7573743A204C4F49544552207448
:101A4000696D6520636F6D706C657465003C7665CB
:101A5000726966795F6D7573743A204D41565F43C4
:101A60004D445F4E41565F574159504F494E543E89
:101A7000204D6973736564205750007665726966FE
:101A8000795F6D61793A20496E76616C6964206F87
:101A900072206E6F2063757272656E7420436F6E74
:101AA000646974696F6E20636D640076657269663F
:101AB000795F6D7573743A20496E76616C69642044
:101AC0006F72206E6F2063757272656E74204E6146
:101AD0007620636D640067707320616C743A202512
:101AE0006C64004D5347202D207365745F677569E2
:101AF0006465645F7770004D5347202D2077705FD9
:101B0000696E6465783A20004D5347202D20575068
:101B100020696E64657820697320696E6372656DF3
:101B2000656E74656420746F20004E756D62657219
:101B3000206F66207061636B6574732072656164E9
:101B40003A2025640A004572726F72205265616402
:101B5000696E6720454E445F425954453A202564DA
:101B60000A004572726F722052656164696E672067
:101B70005061636B65743A2025640A000A417264FF
:101B80007550696C6F744D65676120322E322E314D
:101B90000A467265652052414D3A20256C750A004F
:101BA0005241573A004750533A20256C642C202567
:101BB000642C2025642C2025342E37662C202534D7
:101BC0002E37662C2025342E34662C2025342E34D6
:101BD000662C2025342E34662C2025342E34660ABB
:101BE000004D4F443A004154543A2025642C20259E
:101BF000642C2025750A0020256420636F6D6D61BB
:101C00006E647320696E206D656D6F72790A005580
:101C10004E4B4E4F574E2053544152545550202D49
:101C2000200047524F554E44205354415254202DCA
:101C30002000414952205354415254202D2000434A
:101C40004D443A00504D3A004E54554E3A202534FA
:101C50002E34662C2025642C2025342E34662C202E
:101C600025342E34662C2025342E34662C20253441
:101C70002E34662C2025342E34662C0A004354550D
:101C80004E3A00435552523A2025642C2025342EDA
:101C900034662C2025342E34662C2025640A003C22
:101CA00073746172745F6E65775F6C6F673E204C12
:101CB0006F67732066756C6C202D206C6F67676989
:101CC0006E6720646973636F6E74696E7565640016
:101CD000666C6967687420706C616E2072656365FC
:101CE0006976656400616374696F6E20726563650F
:101CF000697665643A2000776179706F696E742047
:101D0000726563656976652074696D656F757400C9
:101D1000776179706F696E742073656E6420746981
:101D20006D656F75740045585452413300455854E1
:101D30005241320045585452413100504F5349549A
:101D4000494F4E005241575F4354524C0052435F3B
:101D50004348414E004558545F535441540052414A
:101D6000575F53454E53005352335F005352305F19
:101D70000044656D6F20536572766F7321002530C6
:101D800033753A25733A20006E6F7420666F756E56
:101D90006400253033753A252D33322E3332733AB1
:101DA0002000756E6B6E6F776E2074797065006EB3
:101DB0006F7420666F756E640025733A20006D693C
:101DC0007373696E67206E616D65206F7220766136
:101DD0006C7565003F3F00256400256400256C6438
:101DE00000256600256600657869740068656C707A
:101DF0000044454300434F4D504153535F0024502E
:101E000047434D442C31362C302C302C302C302C88
:101E1000302A36410D0A0024505542582C34312CBA
:101E2000312C303030332C303030312C33383430AA
:101E3000302C302A32360024505352463130302C68
:101E4000302C33383430302C382C312C302A33437A
:101E50000020536952462000204D544B312E36202D
:101E6000002075626C6F782000204D544B312E3469
:101E700020006661696C65642C20726574727969F2
:101E80006E67004F4B0020002A00496E69742041A4
:101E90006363656C002A00496E6974204779726F2C
:101EA000006E616E00696E660000407A10F35A00A1
:101EB000A0724E18090010A5D4E80000E876481773
:101EC0000000E40B54020000CA9A3B000000E1F558
:101ED00005000080969800000040420F000000A01E
:101EE0008601000000102700000000E80300000049
:101EF000006400000000000A000000000001000073
:101F00000000002C76D888DC674F0823DFC1DFAEE5
:101F100059E1B1B796E5E3E453C63AE651997696AE
:101F2000E8E6C28426EB898C9B62ED407C6FFCEF77
:101F3000BC9C9F40F2BAA56FA5F490055A2AF75CA5
:101F4000936B6CF9676DC11BFCE0E40D47FEF52057
:101F5000E6B500D0ED902E0300943577050080841F
:101F60001E080000204E0A000000C80C3333333333
:101F70000F986E12831141EF8D2114893BE655169F
:101F8000CFFEE6DB18D1844B381BF77C1D901DA4D7
:101F9000BBE424203284725E228100C9F124ECA1CA
:101FA000E53D2700002100240027002A002D0030F5
:101FB00000330001010000040107010A01000022B2
:101FC00000250028002B002E003100340002010003
:101FD00000050108010B0100002000230026002954
:101FE000002C002F0032000001000003010601094F
:101FF0000105050505070508080808020202020A8E
:102000000A0808040404040101010101010101039B
:1020100003030303030303040707070C0C0C0C0C56
:102020000C0C0C0202020206060606060606060B49
:102030000B0B0B0B0B0B0B010210202008081020C0
:102040004010204080020102010804020101020444
:102050000810204080804020100804020180040203
:10206000018040201008040201080402010102045A
:102070000810204080010204081020408000000960
:102080000A02080B0C0D0706030401000000000003
:102090000000000000000000000000000000000040
:1020A000000000000000000000100F0E0000000003
:1020B0000000000000000000000000000000000020
:1020C000000000494E46494E4954594E414ECDCC30
:1020D000CC3D0AD7233C17B7D13877CC2B32959516
:1020E000E6241FB14F0A000020410000C842004012
:1020F0001C4620BCBE4CCA1B0E5AAEC59D74C537CB
:102100002A900D98DFCB02DABE37069811241FBE45
:10211000CFEFD1E2DEBFCDBF00E00CBF16E0A0E004
:10212000B2E0E2E1F7ED01E00BBF02C007900D92D3
:10213000A430B107D9F716E1A4E0B6E001C01D92C2
:10214000A83AB107E1F710E2C8E0D1E204C0229753
:10215000FE010E9441E5CE3FD107C9F70E947DDC18
:102160000C947CEB0C940000283008F027E0332717
:10217000DA01990F311D87FD9160009661057105A7
:1021800039F432602E5F3D9330E32A95E1F70895EC
:102190009F3F30F080387105610509F03C5F3C5F7E
:1021A0003D93913008F08068911DDF93CF931F938A
:1021B0000F93FF92EF92192F987F9695E92F96959E
:1021C0009695E90FFF27ED5FF04E99273327EE2410
:1021D000FF24A701E70105900894079428F4360F1F
:1021E000E71EF81E491F511D660F771F881F991F94
:1021F0000694A1F70590079428F4E70EF81E491FEE
:10220000561FC11D770F881F991F661F0694A1F7DF
:102210000590079428F4F80E491F561FC71FD11DBB
:10222000880F991F661F771F0694A1F705900794E2
:1022300020F4490F561FC71FD81F990F661F771F1D
:10224000881F0694A9F784911095177041F0D695D0
:10225000C79557954795F794E7941A95C1F7E9EA1A
:10226000FEE16894159015913591659195910590D1
:102270007FE27395E118F10A430B560BC90BD009A5
:10228000C0F7E10CF11E431F561FC91FD01D7EF47D
:10229000703311F48A95E6CFE894015030F0080FBE
:1022A0000AF40027021708F4202F2395022F7A330F
:1022B00028F079E37D932A95E9F710C07D932A955C
:1022C00089F6069497956795379517951794E118B1
:1022D000F10A430B560BC90BD00998F023957E9158
:1022E00073957A3308F070E37C932013B8F77E91EE
:1022F00070617D9330F0839571E37D9370E32A954F
:10230000E1F71124EF90FF900F911F91CF91DF9192
:10231000992787FD90950895FA01AA27283051F151
:10232000203181F1E8946F936E7F6E5F7F4F8F4F06
:102330009F4FAF4FB1E03ED0B4E03CD0670F781F65
:10234000891F9A1FA11D680F791F8A1F911DA11D4A
:102350006A0F711D811D911DA11D20D009F4689483
:102360003F912AE0269F11243019305D3193DEF62B
:10237000CF010895462F4770405D4193B3E00FD0E1
:10238000C9F7F6CF462F4F70405D4A3318F0495DCC
:1023900031FD4052419302D0A9F7EACFB4E0A695AF
:1023A0009795879577956795BA95C9F700976105D1
:1023B000710508959B01AC010A2E06945795479527
:1023C00037952795BA95C9F7620F731F841F951F1C
:1023D000A01D0895EF92FF920F93DF93CF93CDB797
:1023E000DEB760970FB6F894DEBF0FBECDBFA82F43
:1023F000002309F461C07E010894E11CF11C88E00F
:10240000F70111928A95E9F729833A834B835C831C
:102410006D837E83AF83988780E2801BE82FFF2740
:10242000E7FDF0954D815E816F817885181684F007
:102430001D861E861F86188A882799278E1B9F0B4C
:1024400004C076956795579547958A95D2F728C029
:10245000202F332727FD3095DB01CA01022E04C04F
:10246000B695A795979587950A94D2F78D879E87FD
:10247000AF87B88B04C0440F551F661F771FEA95BE
:10248000D2F789819A81AB81BC8104C0B695A795AA
:10249000979587952A95D2F7482B592B6A2B7B2B3A
:1024A00049875A876B877C8729853A854B855C8568
:1024B0006D857E85AF8598898A2F60960FB6F894D2
:1024C000DEBF0FBECDBFCF91DF910F91FF90EF9098
:1024D0000895CF93DF93FC01EB014230510570F07A
:1024E000638574858585968520E030E040E854E476
:1024F0000E94BEE30E9406E27983688382E090E056
:10250000DF91CF910895CF93DF93EC01FB0142302F
:10251000510518F420E030E012C06081718180E044
:1025200090E00E9432E220E030E040E85AE30E946E
:10253000BEE36B877C878D879E8722E030E0C901F0
:10254000DF91CF910895009719F00197C1F40CC065
:10255000E091E215F091E315A081B1812D913C91BC
:10256000CF01F90119950895E091E415F091E51571
:10257000A081B1812D913C91CF01F9011995089568
:10258000EF92FF920F931F93CF93DF93EC01088399
:102590006A834B83822F90E0880F991FFC01A3E090
:1025A000EE0FFF1FAA95E1F7E81BF90BE15AFD4E6C
:1025B00081858983822F90E0880F991FDC0163E079
:1025C000AA0FBB1F6A95E1F7A81BB90BA15ABD4E14
:1025D000822F90E0880F991FFC0143E0EE0FFF1F50
:1025E0004A95E1F7E81BF90BE15AFD4E81858F5FB3
:1025F00019968C93DE0135E0E32EF12CE00EF11EEE
:102600006FEF7FEFE0E0F0E01EC02D912627822FD4
:102610008295807F822790E0382F2227AC01440FDB
:10262000551F440F551F440F551F24273527672F6B
:1026300077276227732724E0959587952A95E1F7F8
:10264000682779273196EE15FF05FCF2CC5FDE4F47
:10265000699378839801295F3F4FC901CDB7DEB7F1
:10266000E6E00C9430E5FC01DC01AC5FBE4F8C91E0
:10267000EB5FFE4F6827262F2295207F262730E02C
:10268000522F4427C90163E0880F991F6A95E1F72B
:1026900048275927808190E04827592784E03595BD
:1026A00027958A95E1F7422753274C935083089545
:1026B000F901E40FF11D292F3327442755272083E3
:1026C0009C01552737FD5095452F2183272F382F03
:1026D000492F552747FD5A952283638384E0089547
:1026E0007F928F929F92AF92BF92CF92DF92EF92A2
:1026F000FF920F931F93722E132FD42EC52EB62E3A
:10270000A72E982E892EE00EF11C08E30E94EA11F4
:10271000F7012083272D312F4D2D5C2D6B2D7A2D28
:10272000892D982D00E30E94EA11F7012183272DBE
:10273000312F4D2D5C2D6B2D7A2D892D982D08E292
:102740000E94EA11F7012283272D312F4D2D5C2D98
:102750006B2D7A2D892D982D00E20E94EA11F70148
:102760002383272D312F4D2D5C2D6B2D7A2D892D17
:10277000982D08E10E94EA11F7012483272D312FBB
:102780004D2D5C2D6B2D7A2D892D982D00E10E9409
:10279000EA11F7012583272D312F4D2D5C2D6B2D4F
:1027A0007A2D892D982D08E00E94EA11F7012683E1
:1027B000778288E01F910F91FF90EF90DF90CF908C
:1027C000BF90AF909F908F907F9008950E94581374
:1027D0000895A0E0B0E0EFEEF3E10C9412E58C0177
:1027E000EB0165E50E94A312C80168810E94A31253
:1027F000C80169810E94A312C8016A810E94A312C4
:10280000C8016B810E94A312C8016C810E94A312AF
:102810006E01EE24FF2408C0C801F60164810E9405
:10282000A3120894E11CF11C0894C11CD11C8881DE
:1028300090E0E816F90680F3CC5FDE4FC80169919D
:102840000E94A312C80168810E94A312CDB7DEB70F
:10285000E8E00C942EE5A6E0B1E0E1E3F4E10C94AD
:1028600012E5D82EC92E5091990470919A0488E2ED
:102870008D836E834F83388729877E010894E11CFE
:10288000F11CC701652F472F2D2D04E010E00E9499
:10289000C0128D2D9C2DB7010E94E913CA5FDE4F37
:1028A000E8E00C942EE5A6E0B1E0E9E5F4E10C9453
:1028B00012E5D82EC92E2091990440919A048AE2FB
:1028C0008D837E836F837E010894E11CF11CC70118
:1028D000622F2D2D02E010E00E94C0128D2D9C2D44
:1028E000B7010E94E913CA5FDE4FE8E00C942EE5C1
:1028F000A6E0B1E0EEE7F4E10C9412E5D82EC92E83
:102900003091990450919A048FE28D836E834F83A6
:1029100028877E010894E11CF11CC701632F452F15
:102920002D2D03E010E00E94C0128D2D9C2DB701CB
:102930000E94E913CA5FDE4FE8E00C942EE51F9277
:102940000F920FB60F920BB60F9211242F933F9355
:102950004F938F939F93EF93FF934091C6002091E5
:10296000A2153091A3152F5F3F4F8091A61590912E
:10297000A715282339238091A4159091A515281710
:10298000390779F08091A2159091A315E091A815CF
:10299000F091A915E80FF91F40833093A3152093F8
:1029A000A215FF91EF919F918F914F913F912F91A0
:1029B0000F900BBE0F900FBE0F901F9018951F9297
:1029C0000F920FB60F920BB60F9211242F933F93D5
:1029D0008F939F93EF93FF932091C4153091C5156A
:1029E0008091C2159091C31528173907E9F080919D
:1029F000C4159091C515E091C815F091C915E80F5F
:102A0000F91F80818093C6008091C4159091C515EF
:102A100001962091C6153091C71582239323909378
:102A2000C5158093C41510C02091C2153091C315EF
:102A30008091C4159091C5152817390729F4809104
:102A4000C1008F7D8093C100FF91EF919F918F9185
:102A50003F912F910F900BBE0F900FBE0F901F90C4
:102A600018951F920F920FB60F920BB60F9211246A
:102A70002F933F934F938F939F93EF93FF934091A7
:102A8000CE002091AA153091AB152F5F3F4F80915A
:102A9000AE159091AF15282339238091AC159091F4
:102AA000AD152817390779F08091AA159091AB15CB
:102AB000E091B015F091B115E80FF91F4083309304
:102AC000AB152093AA15FF91EF919F918F914F9194
:102AD0003F912F910F900BBE0F900FBE0F901F9044
:102AE00018951F920F920FB60F920BB60F921124EA
:102AF0002F933F938F939F93EF93FF932091CC1548
:102B00003091CD158091CA159091CB1528173907B2
:102B1000E9F08091CC159091CD15E091D015F09110
:102B2000D115E80FF91F80818093CE008091CC15DC
:102B30009091CD1501962091CE153091CF1582231D
:102B400093239093CD158093CC1510C02091CA1576
:102B50003091CB158091CC159091CD152817390760
:102B600029F48091C9008F7D8093C900FF91EF9176
:102B70009F918F913F912F910F900BBE0F900FBEA1
:102B80000F901F9018951F920F920FB60F920BB6D1
:102B90000F9211242F933F934F938F939F93EF9313
:102BA000FF93409136012091BA153091BB152F5FEC
:102BB0003F4F8091BE159091BF15282339238091F6
:102BC000BC159091BD152817390779F08091BA1579
:102BD0009091BB15E091C015F091C115E80FF91F58
:102BE00040833093BB152093BA15FF91EF919F91CD
:102BF0008F914F913F912F910F900BBE0F900FBE71
:102C00000F901F9018951F920F920FB60F920BB650
:102C10000F9211242F933F938F939F93EF93FF93E2
:102C20002091DC153091DD158091DA159091DB153E
:102C300028173907E9F08091DC159091DD15E091B6
:102C4000E015F091E115E80FF91F808180933601BE
:102C50008091DC159091DD1501962091DE15309163
:102C6000DF15822393239093DD158093DC1510C02C
:102C70002091DA153091DB158091DC159091DD15EE
:102C80002817390729F4809131018F7D8093310114
:102C9000FF91EF919F918F913F912F910F900BBEDC
:102CA0000F900FBE0F901F9018958091AC0F9091D0
:102CB000AD0FA091AE0FB091AF0F8C569E4EAF4F9F
:102CC000BF4F1CF48FEF80930E1180910E1188235B
:102CD00019F0815080930E110895E82FF0E0EB3049
:102CE000F10520F4EE58FF4F0C943FE520E030E072
:102CF00036C020912A0130912B0131C020912C0146
:102D000030912D012CC020918A0030918B0027C07A
:102D100020918C0030918D0022C02091AC00309128
:102D2000AD001DC02091AA003091AB0018C02091C9
:102D30009C0030919D0013C020919A0030919B001F
:102D40000EC0209128013091290109C020918800EE
:102D50003091890004C020919800309199003595F8
:102D60002795C9010895FC017183608386E0643072
:102D7000780739F47093E3156093E2151386128691
:102D800008C07093E5156093E41581E090E09387A7
:102D90008287138212820895EF92FF920F931F93FE
:102DA0008091EC118093AC111092AD11E090ED1177
:102DB000F090EE110091EF111091F011E092A4113A
:102DC000F092A5110093A6111093A71190E06AE06C
:102DD00070E00E94B8E4882777FD8095982F2091B5
:102DE000CF113091D0114091D1115091D211620F79
:102DF000731F841F951F60930812709309128093AC
:102E00000A1290930B12E092DE11F092DF11009300
:102E1000E0111093E11110920C1210920D12109209
:102E20000E1210920F121F910F91FF90EF900895C4
:102E30002091CF113091D0114091D1115091D211E8
:102E40008091A4119091A511A091A611B091A71104
:102E5000281739074A075B0754F01092A411109203
:102E6000A5111092A6111092A71181E008958091EA
:102E7000AC119091AD116AE070E00E94B8E488272F
:102E800077FD8095982F209108123091091240917A
:102E90000A1250910B12260F371F481F591F2093FB
:102EA00008123093091240930A1250930B1280E0DB
:102EB00008958091EC11813021F480910B018460A0
:102EC0000AC0882321F480910B018B7F04C080917C
:102ED0000B0194E0892780930B010895AF92BF9274
:102EE000CF92DF92EF92FF920F931F938091081180
:102EF0008A3070F080914011909141111816190696
:102F00003CF4E0905508F0905608E80EF91E04C015
:102F1000E0905508F0905608A0903E11B0903F11F7
:102F2000B7016A197B09882777FD8095982F0E9441
:102F300034E2609342117093431180934411909353
:102F400045110027F7FC0095102FCC24B7FCC09446
:102F5000DC2CC801B701A80197010E9485E47B0120
:102F60008C01C601B501A60195010E9485E4E61A0F
:102F7000F70A080B190BC801B70120E23EE440E054
:102F800050E00E94EDE420934A1130934B1140939E
:102F90004C1150934D111F910F91FF90EF90DF90C6
:102FA000CF90BF90AF90089580916104882329F459
:102FB00080919808813009F046C080912C11909141
:102FC0002D11A0912E11B0912F112091B00F3091A1
:102FD000B10F4091B20F5091B30F821B930BA40B12
:102FE000B50B80934E1190934F11A0935011B09355
:102FF000511180914E1190914F11A0915011B091AB
:103000005111813526E4920720E0A20720E0B207A3
:103010002CF0805A9C48A040B0400CC0803B29EB6B
:1030200092072FEFA2072FEFB20724F480569347A1
:10303000AF4FBF4F80934E1190934F11A0935011FB
:10304000B09351110895E091AF0DF091B00D8091C2
:103050002C1190912D11A0912E11B0912F11228D34
:10306000338D448D558DB9CFE091AF0DF091B00DFA
:1030700086899789A08DB18D8D529140A040B04036
:1030800034F18091490490914A04A0914B04B0918D
:103090004C048F5F9F4FAF4FBF4FC9F4809198088A
:1030A000882349F08091B00F9091B10FA091B20F99
:1030B000B091B30F04C0828D938DA48DB58D809394
:1030C000490490934A04A0934B04B0934C0480911C
:1030D000490490914A04A0914B04B0914C04B7FD6F
:1030E0000AC080932C1190932D11A0932E11B093B0
:1030F0002F110E94D4172091CF113091D0114091FF
:10310000D1115091D21180916D1190916E11A091B9
:103110006F11B091701182179307A407B50714F0CF
:1031200080E008958FEF9FEFAFEFBFEF80934904EA
:1031300090934A04A0934B04B0934C0481E0809395
:10314000610408956F927F928F929F92AF92BF9287
:10315000CF92DF92EF92FF920F931F93809108110D
:103160008A3009F087C0E0900C12F0900D120091A7
:103170000E1210910F12E114F1040105110509F46A
:1031800079C06090DE117090DF118090E011909016
:10319000E111C401B3010E9434E25B016C01609152
:1031A0008F117091901180919111909192116E51A7
:1031B000704080409040A80197010E9485E40E94E1
:1031C00034E27B018C016091931170919411809194
:1031D0009511909196116E517040804090400E94E0
:1031E00034E29B01AC01C801B7010E9499E19B0147
:1031F000AC01C601B5010E94B4E00E9401E2209139
:10320000C0113091C1114091C2115091C311621689
:10321000730684069506BCF466157705880599053E
:103220004CF03B014C01261737074807590714F4A7
:1032300039014A01609208127092091280920A12B2
:1032400090920B122BC062177307840795074CF0FE
:103250009B01AC01661677068806990614F4A40152
:103260009301209308123093091240930A1250934D
:103270000B1214C080913D11813781F08091DE11D5
:103280009091DF11A091E011B091E11180930812AB
:1032900090930912A0930A12B0930B128091081216
:1032A00090910912A0910A12B0910B122091CF11A6
:1032B0003091D0114091D1115091D211821B930BBA
:1032C000A40BB50B8093521190935311A0935411FA
:1032D000B09355111F910F91FF90EF90DF90CF9019
:1032E000BF90AF909F908F907F906F9008952091A6
:1032F000E2083091E3088091060990910709281BA4
:10330000390B253631051CF08AE080935E122C596A
:103310003F4F1CF486EF80935E1280915E12181668
:103320001CF4815080935E1280915E1287FF03C06F
:103330008F5F80935E1280915E12813019F08F3F13
:1033400009F080E00895CF93DF93FC01EB01443056
:10335000510540F083859485A585B685888399833A
:10336000AA83BB8384E090E0DF91CF910895CF934F
:10337000DF93EC01FB014430510540F080819181E5
:10338000A281B3818B879C87AD87BE8784E090E064
:10339000DF91CF910895FC016385748585859685BD
:1033A0000E9434E20895FC01DB01452B11F0838576
:1033B0008C9381E090E00895DC01FB01452B19F02E
:1033C00080811B968C9381E090E00895FC016385D9
:1033D000772767FD7095872F972F0E9434E2089515
:1033E000FC01DB014230510520F0838594858D93EB
:1033F0009C9382E090E00895DC01FB01423051058E
:1034000030F0808191811C969C938E931B9782E073
:1034100090E00895FC0163857485882777FD809589
:10342000982F0E9434E20895FC0123853485458558
:103430005685B901CA010895CF93DF93FC01EB01D2
:103440004430510540F083859485A585B6858883F1
:103450009983AA83BB8384E090E0DF91CF910895A4
:10346000CF93DF93EC01FB014430510540F08081A4
:103470009181A281B3818B879C87AD87BE8784E0D1
:1034800090E0DF91CF91089500D00F9284E096E014
:10349000EDB7FEB79283818380E599E094838383BF
:1034A0000E9415CF0F900F900F900F9080E008951D
:1034B00000D00F9284E096E0EDB7FEB7928381834F
:1034C00087EC9BE0948383830E9415CF0F900F902D
:1034D0000F900F9080E0089500D00F9284E096E066
:1034E000EDB7FEB79283818382EE91E1948383836B
:1034F0000E9415CF0F900F900F900F9008958DB7E9
:103500009EB740970FB6F8949EBF0FBE8DBFEDB724
:10351000FEB7319684E096E0ADB7BEB712969C93A5
:103520008E93119789E794E1938382838091900F22
:103530009091910FA091920FB091930F84839583F6
:10354000A683B7838091940F9091950FA091960FC9
:10355000B091970F80879187A287B3878091980F4A
:103560009091990FA0919A0FB0919B0F84879587A6
:10357000A687B7870E9415CF8DB79EB740960FB626
:10358000F8949EBF0FBE8DBF08958DB79EB740972C
:103590000FB6F8949EBF0FBE8DBFEDB7FEB7319644
:1035A00084E096E0ADB7BEB712969C938E931197C8
:1035B0008CE994E19383828380919C0F90919D0F7D
:1035C000A0919E0FB0919F0F84839583A683B783AC
:1035D0008091A00F9091A10FA091A20FB091A30F85
:1035E00080879187A287B3878091A40F9091A50FC0
:1035F000A091A60FB091A70F84879587A687B7875C
:103600000E9415CF8DB79EB740960FB6F8949EBF17
:103610000FBE8DBF089524E036E0882349F000D026
:103620000F92EDB7FEB7328321838BEC94E108C093
:1036300000D00F92EDB7FEB73283218387EC94E17F
:10364000948383830E9415CF84E096E0EDB7FEB7A4
:103650009283818380EC94E1948383830E9415CFCD
:103660000F900F900F900F90089500D00F9284E06C
:1036700096E0EDB7FEB79283818387EE94E1948361
:1036800083830E9415CF0F900F900F900F90089595
:103690000F931F938DB79EB70A970FB6F8949EBFEE
:1036A0000FBE8DBFEDB7FEB7319604E016E0ADB7A3
:1036B000BEB712961C930E93119787E895E19383FA
:1036C00082838091F9089091FA0895838483809190
:1036D0000609909107099783868380911309909139
:1036E0001409918780870E9415CFEDB7FEB73196F8
:1036F000ADB7BEB712961C930E93119784E795E170
:103700009383828380914D0990914E0995838483A0
:1037100080915A0990915B0997838683809167090C
:1037200090916809918780870E9415CFEDB7FEB709
:103730003196ADB7BEB712961C930E93119781E6E2
:1037400095E1938382838091A1099091A209958349
:1037500084838091AE099091AF099783868380918D
:10376000BB099091BC09918780870E9415CFEDB766
:10377000FEB73196ADB7BEB712961C930E93119754
:103780008EE495E1938382838091F5099091F60907
:10379000958384838091020A9091030A978386839C
:1037A00080910F0A9091100A918780870E9415CF0F
:1037B000EDB7FEB73196ADB7BEB712961C930E9318
:1037C00011978BE395E1938382838091490A9091CD
:1037D0004A0A958384838091560A9091570A978369
:1037E00086838091630A9091640A918780870E9402
:1037F00015CFEDB7FEB73196ADB7BEB712961C9395
:103800000E93119788E295E19383828380919D0ABC
:1038100090919E0A958384838091AA0A9091AB0A25
:10382000978386838091B70A9091B80A91878087A1
:103830000E9415CFEDB7FEB73196ADB7BEB7129661
:103840001C930E93119785E195E193838283809178
:10385000F10A9091F20A958384838091FE0A9091F7
:10386000FF0A9783868380910B0B90910C0B9187B5
:1038700080870E9415CFEDB7FEB73196ADB7BEB7C2
:1038800012961C930E93119782E095E193838283A5
:103890008091450B9091460B958384838091520BC8
:1038A0009091530B9783868380915F0B9091600B6F
:1038B000918780870E9415CF8DB79EB70A960FB665
:1038C000F8949EBF0FBE8DBF1F910F910895CF93A7
:1038D000DF93FC018DB79EB744970FB6F8949EBF57
:1038E0000FBE8DBF2DB73EB72F5F3F4F84E096E0F0
:1038F000ADB7BEB712969C938E9311978AE995E166
:10390000E9019B838A8386899789A08DB18D8C83F9
:103910009D83AE83BF8385A196A1A7A1B0A588870B
:103920009987AA87BB8784A995A9A6A9B7A98C87D7
:103930009D87AE87BF87ED5BFF4F80819181AA276E
:1039400097FDA095BA2FF901808B918BA28BB38B39
:103950000E9415CF8DB79EB744960FB6F8949EBFC0
:103960000FBE8DBFDF91CF910895EF92FF920F931D
:103970001F93CF93DF930E946C1A68EE73E080E090
:1039800090E00E9451DFB2E0EB2EB8E0FB2E07EF93
:1039900017E0C4E0D6E000D00F92EDB7FEB7D283B7
:1039A000C183F482E3820E9415CF80910B01846071
:1039B00080930B010F900F900F900F9068EB7BE0BE
:1039C00080E090E00E9451DFCE010E948CCF18165B
:1039D0001906FCF000D00F92EDB7FEB7D283C18379
:1039E000148303830E9415CF80910B018B7F8093FA
:1039F0000B010F900F900F900F9068EB7BE080E031
:103A000090E00E9451DFCE010E948CCF181619065B
:103A100014F680E0CDB7DEB7E6E00C9430E5109206
:103A20002312109222121092161210921512109256
:103A3000C00F10926A0F1092C10F1092C20F109215
:103A40001812109217120E941DDF609311127093CA
:103A50001212809313129093141208950E941DDF86
:103A60002091A8113091A9114091AA115091AB1148
:103A7000621B730B840B950B2091A4113091A5113F
:103A80004091A6115091A7112617370748075907EB
:103A900010F080E008951092A4111092A5111092D8
:103AA000A6111092A71181E008950E941DDF609376
:103AB000A8117093A9118093AA119093AB116091F2
:103AC000F1117091F2118091F3119091F41128EE9F
:103AD00033E040E050E00E9485E46093A4117093CD
:103AE000A5118093A6119093A71108958091EA11D2
:103AF0008137C1F0823729F08037B1F40E94551D1B
:103B000008958091F1119091F211A091F311B0916B
:103B1000F4118093A4119093A511A093A611B093D2
:103B2000A71108950E94CC160895EF92FF920F936B
:103B30001F93CF93DF930E946C1A81EB9DE00E944C
:103B4000699168EE73E080E090E00E9451DF00D060
:103B50000F9204E016E0EDB7FEB71283018388E60A
:103B600096E0948383830E9415CF0F900F900F905F
:103B70000F9068EE73E080E090E00E9451DFC3E5B3
:103B8000D6E0780188E69FE00E9459C78DB79EB7BE
:103B900040970FB6F8949EBF0FBE8DBF0DB71EB7EE
:103BA0000F5F1F4FEDB7FEB7E182F282F801D383BA
:103BB000C2836091770F7091780F8091790F909107
:103BC0007A0F0E9401E2F8017583648360917B0F94
:103BD00070917C0F80917D0F90917E0F0E9401E289
:103BE000F8017783668360917F0F7091800F8091D9
:103BF000810F9091820F0E9401E2F8017187608726
:103C000060916B0F70916C0F80916D0F90916E0FA2
:103C10000E9401E2F8017387628760916F0F7091D3
:103C2000700F8091710F9091720F0E9401E2F80164
:103C3000758764876091730F7091740F8091750F11
:103C40009091760F0E9401E2F801778766870E94C3
:103C500015CF8DB79EB740960FB6F8949EBF0FBE96
:103C60008DBF64E670E080E090E00E9451DFC70104
:103C70000E948CCF181619060CF084CF80E0CDB7C7
:103C8000DEB7E6E00C9430E5A4E2B0E0EAE4FEE161
:103C90000C9412E588E69FE060E070E00E94B4CBEF
:103CA0000E946C1A68EE73E080E090E00E9451DFA1
:103CB00006E7C02E06E0D02E14E0E12E16E0F12E2D
:103CC0008E010F5F1F4F64E170E080E090E00E9482
:103CD00051DF0E941DDF2091191230911A1240917C
:103CE0001B1250911C12621B730B840B950B6431D9
:103CF00071058105910508F489C00E941DDF20919E
:103D00001912621B6093211270E080E090E00E9423
:103D100032E220E030E04AE754E40E9499E1609307
:103D200062047093630480936404909365040E941A
:103D30001DDF6093191270931A1280931B129093D7
:103D40001C1240916204509163046091640470916C
:103D5000650488EA9FE00E94F0BC8091980888235F
:103D6000D1F0809128128F5F80932812853099F4CA
:103D700089ED9DE00E94789FD801E5EDFFE084E2A7
:103D800001900D928150E1F789ED9DE0B8010E940C
:103D900074A9109228128DB79EB70A970FB6F8949F
:103DA0009EBF0FBE8DBFEDB7FEB73196ADB7BEB7A4
:103DB0001296FC92EE921197D382C2828091A80F44
:103DC0009091A90F64E670E00E94B8E47583648363
:103DD0008091AC0F9091AD0F64E670E00E94B8E462
:103DE000778366838091B00F9091B10F64E670E0A5
:103DF0000E94A4E4718760870E9415CF8DB79EB79B
:103E00000A960FB6F8949EBF0FBE8DBF84E096E071
:103E10000E948CCF181619060CF055CF80E0A4969E
:103E2000E8E00C942EE5E091AF0DF091B00D85A97E
:103E300096A98130910539F00297E9F483E261E0B7
:103E40000E944FE0089587A18823C9F0809128112E
:103E500091E0892780932811882319F083E260E09C
:103E600002C083E261E00E944FE0E091AF0DF0916B
:103E7000B00D17A2089583E260E00E944FE008951C
:103E80000E946C1A68EE73E080E090E00E9451DFBF
:103E900088E296E00E948CCF892B89F084E261E071
:103EA0000E944FE088E296E00E94BACF682F86E138
:103EB00096E00E941BD084E260E00E944FE086E121
:103EC00096E00E948CCF892B89F083E261E00E940A
:103ED0004FE086E196E00E94BACF682F88E296E034
:103EE0000E941BD083E260E00E944FE084E096E0F5
:103EF0000E948CCF181619065CF680E008950E9487
:103F00006C1A68EE73E080E090E00E9451DF00D010
:103F10000F9284E096E0EDB7FEB79283818381E74C
:103F200097E0948383830E9415CF0F900F900F909A
:103F30000F9088E296E00E948CCF892B49F088E2AE
:103F400096E00E94BACF682F88E296E00E941BD0CC
:103F500084E096E00E948CCF1816190654F780E092
:103F60000895A0E0B0E0E7EBFFE10C9410E50E94BB
:103F70006C1A68EE73E080E090E00E9451DF2CE85C
:103F8000A22E26E0B22E9AE8C92E96E0D92E84E021
:103F9000E82E86E0F82E6DE471E080E090E00E946B
:103FA00051DF0E94131F8091AF0D9091B00D0E94C0
:103FB0007CC6C091AF0DD091B00D8DA1882309F4BE
:103FC00040C08DB79EB742970FB6F8949EBF0FBE04
:103FD0008DBF0DB71EB70F5F1F4FEDB7FEB7F28253
:103FE000E182F801B382A2828A859B85AC85BD857A
:103FF00084839583A683B7838E859F85A889B98995
:1040000080879187A287B3876A897B898C899D89FC
:1040100024E630E040E050E00E94EDE4F80124871F
:104020003587468757878CA1808B118A0E9415CFD0
:104030008DB79EB742960FB6F8949EBF0FBE8DBF48
:104040000EC000D00F92EDB7FEB7F282E182D482AB
:10405000C3820E9415CF0F900F900F900F9084E0B5
:1040600096E00E948CCF181619060CF094CF80E0D1
:10407000CDB7DEB7EAE00C942CE5CF92DF92FF9249
:104080000F931F93CF93DF930E946C1A81EB9DE0F7
:104090000E94699168EE73E080E090E00E9451DF39
:1040A00000D00F9204E016E0ADB7BEB712961C9395
:1040B0000E93119789EB96E014969C938E93139729
:1040C0000E9415CF0F900F900F900F9068EE73E045
:1040D00080E090E00E9451DF35EBC32E36E0D32E16
:1040E000C0E0D0E0F02E012F20C081EB9DE06C2FCE
:1040F0000E94209100D000D0EDB7FEB73196ADB749
:10410000BEB71196FC92119712960C93D382C2827D
:10411000958384830E9415CF2196EDB7FEB736961E
:104120000FB6F894FEBF0FBEEDBFC930D105ECF25B
:1041300084E096E00E94AEDD64E670E080E090E00E
:104140000E9451DF84E096E00E948CCF1816190679
:104150001CF0C0E0D0E0E9CF80E0DF91CF911F916B
:104160000F91FF90DF90CF900895A0E0B0E0EBEBCF
:10417000F0E20C9410E56BE6A62E67E0B62E55E64D
:10418000C52E57E0D52E00E010E044E0E42E46E0D6
:10419000F42E00D000D0EDB7FEB73196ADB7BEB764
:1041A0001296FC92EE921197B382A2821583048339
:1041B0000E9415CFC0E0D0E08DB79EB706960FB62F
:1041C000F8949EBF0FBE8DBFCE01800F911F0E943D
:1041D00094E900D000D0EDB7FEB73196ADB7BEB7C9
:1041E0001296FC92EE921197D382C282848315823A
:1041F0000E9415CF21968DB79EB706960FB6F894FC
:104200009EBF0FBE8DBFC031D105F1F6C7010E9420
:10421000AEDD005F1F4F90E10030190709F0B9CF04
:1042200080E0CDB7DEB7EAE00C942CE5EF92FF9288
:104230000F931F93CF93DF9375EEE72E74E1F72E64
:10424000C0E0D0E004E016E000D00F92EDB7FEB77A
:1042500012830183F482E3820E9415CF21960F908E
:104260000F900F900F90C832D10571F7C80160E030
:1042700072E00E94F8DDCDB7DEB7E6E00C9430E5E1
:10428000CF93DF93EC0107C0219784E096E060E0D4
:1042900072E00E94F8DD1C161D06B4F3DF91CF9189
:1042A000089500D00F9284E096E0EDB7FEB79283B8
:1042B000818389E296E1948383830E9415CF0F90D6
:1042C0000F900F900F900E9416210E947F1A0E945B
:1042D000C51A82E090E00E94402108950F931F9339
:1042E00000D00F9204E016E0ADB7BEB712961C9353
:1042F0000E93119782E796E114969C938E931397F1
:104300000E9415CF0F900F900F900F900E941621D2
:10431000EDB7FEB73E970FB6F894FEBF0FBEEDBFE8
:104320003196ADB7BEB712961C930E9311978EE2DD
:1043300096E19383828380914F07992787FD90951B
:104340009583848380915B07992787FD9095978358
:10435000868380918C07992787FD90959187808728
:1043600080917307992787FD909593878287809125
:104370007F0790918007958784870E9415CFEDB7BE
:10438000FEB73E960FB6F894FEBF0FBEEDBF82E0BB
:1043900090E00E9440211F910F9108950F931F9369
:1043A00000D00F9204E016E0ADB7BEB712961C9392
:1043B0000E9311978CE996E114969C938E93139724
:1043C0000E9415CF0F900F900F900F900E94162112
:1043D000EDB7FEB73A970FB6F894FEBF0FBEEDBF2C
:1043E0003196ADB7BEB712961C930E9311978CE71A
:1043F00096E1938382838091B4069091B506A09153
:10440000B606B091B70684839583A683B78380915F
:10441000C3069091C406918780870E9415CFEDB79F
:10442000FEB73A960FB6F894FEBF0FBEEDBF82E01E
:1044300090E00E9440211F910F9108950F931F93C8
:1044400000D00F9204E016E0EDB7FEB712830183AF
:1044500085E197E1948383830E9415CF0F900F909D
:104460000F900F900E94162100D00F92EDB7FEB76B
:104470001283018388E097E1948383830E9415CFA0
:104480000F900F900F900F9088EC9BE00E94671C9C
:1044900000D00F92EDB7FEB7128301838AEF96E149
:1044A000948383830E9415CF0F900F900F900F90ED
:1044B00089E19CE00E94671C00D00F92EDB7FEB727
:1044C000128301838BEE96E1948383830E9415CF40
:1044D0000F900F900F900F908BEB9CE00E94671C49
:1044E00000D00F92EDB7FEB71283018380EE96E104
:1044F000948383830E9415CF0F900F900F900F909D
:1045000087E79BE00E94671C00D00F92EDB7FEB7D3
:10451000128301838BEC96E1948383830E9415CFF1
:104520000F900F900F900F908AE69CE00E94671CFE
:1045300000D00F92EDB7FEB71283018388EB96E1AE
:10454000948383830E9415CF0F900F900F900F904C
:104550008CE09DE00E94671C00D00F92EDB7FEB783
:104560001283018388EA96E1948383830E9415CFA6
:104570000F900F900F900F908DE59DE00E94671CAB
:1045800082E090E00E9440211F910F91089500D099
:104590000F9284E096E0EDB7FEB7928381838CE1C1
:1045A00097E1948383830E9415CF0F900F900F9013
:1045B0000F900E9416210E94481B82E090E00E940A
:1045C00040210895CF93DF9300D00F92C4E0D6E04E
:1045D000EDB7FEB7D283C18383E997E194838383E8
:1045E0000E9415CF0F900F900F900F900E941621F0
:1045F0008091B108882381F400D00F92EDB7FEB707
:10460000D283C1838AE797E1948383830E9415CF85
:104610000F900F900F900F908091B108813091F41E
:1046200000D00F9284E096E0EDB7FEB792838183CD
:1046300088E697E1948383830E9415CF0F900F90B3
:104640000F900F908091B108823091F400D00F92BA
:1046500084E096E0EDB7FEB79283818386E597E12B
:10466000948383830E9415CF0F900F900F900F902B
:104670008091B108833091F400D00F9284E096E0ED
:10468000EDB7FEB79283818380E497E194838383BF
:104690000E9415CF0F900F900F900F908091B1084E
:1046A000843091F400D00F9284E096E0EDB7FEB72D
:1046B0009283818383E297E1948383830E9415CF61
:1046C0000F900F900F900F9082E090E00E94402199
:1046D000DF91CF910895FF920F931F93F62E00D094
:1046E00000D0EDB7FEB7319604E016E0ADB7BEB727
:1046F00012961C930E93119729EF34E13383228392
:10470000848315820E9415CF8DB79EB706960FB68B
:10471000F8949EBF0FBE8DBFEF2DF0E0EE0FFF1F90
:10472000EA5EFB4F60817181C8010E94F8DD1F9134
:104730000F91FF900895CF93DF9300D00F9284E004
:1047400096E0EDB7FEB79283818380EC95E1948388
:1047500083830E9415CF0F900F900F900F900E94AF
:104760001621C0E0D0E0FE01E853F84F8C2F6081A5
:104770000E946B232196C630D105A9F782E090E014
:104780000E944021DF91CF910895FB01848595859A
:10479000A685B78585309105A105B10538F48093CC
:1047A000B10886EA98E00E945B9312C000D00F9295
:1047B00084E096E0EDB7FEB79283818383E49AE0CC
:1047C000948383830E9415CF0F900F900F900F90CA
:1047D0000E94E22280E008951092130788E097E09B
:1047E0000E945B9310923A1110923B111092EA11C1
:1047F0000895EF92FF920F931F93CF93DF9381EB76
:104800009DE067E00E942091AA2797FDA095BA2F0E
:10481000BC01CD010E9434E2609362117093631178
:104820008093641190936511C0E0D0E064E170E082
:1048300080E090E00E9451DF6091621170916311FD
:10484000809164119091651126E636E646E65FE3B5
:104850000E94BEE37B018C0181EB9DE067E00E943A
:104860002091AA2797FDA095BA2FBC01CD010E94E7
:1048700034E22DEC3CEC4CEC5DE30E94BEE39B018A
:10488000AC01C801B7010E94B5E06093621170935A
:10489000631180936411909365112196CA30D105FC
:1048A00029F60E9401E27093EF066093EE0683EE14
:1048B00096E00E945B93CDB7DEB7E6E00C9430E55E
:1048C0006091ED117091EE118091EF119091F011C6
:1048D000161617061806190674F424E630E040E0B0
:1048E00050E00E9485E470935608609355088AE46E
:1048F00098E00E945B938091F1119091F211A09148
:10490000F311B091F411181619061A061B0634F4A7
:1049100080938C0781E897E00E945B9308958EE472
:1049200091E090934908809348088DE398E00E94B5
:104930005B9308958BE08093C8078093C90782E05A
:104940008093CA078093CB071092CC071092CD07B3
:104950008DEB97E00E945B93089500D00F9284E066
:1049600096E0EDB7FEB7928381838CE79BE094835A
:1049700083830E9415CF0F900F900F900F9084E0CB
:1049800096E00E94BACFFFEF8F3F9F07C1F38937B0
:10499000910529F08935910511F08FEF08950E9456
:1049A000219400D00F9284E096E0EDB7FEB7928399
:1049B000818385E49BE0948383830E9415CF0F90CD
:1049C0000F900F900F90FFCFEF92FF920F931F93D6
:1049D000CF93DF937B018230A1F000D00F9284E06F
:1049E00096E0EDB7FEB7928381838DED9CE09483D2
:1049F00083830E9415CF8FEF0F900F900F900F9031
:104A000081C0FB0102851385C80169ED7CE00E942D
:104A1000A1E6892B19F4CFEFDFE753C0C8016BEC97
:104A20007CE00E94A1E6C0E0D0E0892B11F4C1E057
:104A3000D0E0C8016EEB7CE00E94A1E6892B09F46E
:104A4000C260C8016AEB7CE00E94A1E6892B09F4F0
:104A5000C460C80167EB7CE00E94A1E6892B09F4E1
:104A6000C860C80162EB7CE00E94A1E6892B09F4D2
:104A7000C061C8016DEA7CE00E94A1E6892B09F4BF
:104A8000C062C80168EA7CE00E94A1E6892B09F4B3
:104A9000C064C80164EA7CE00E94A1E6892B09F4A5
:104AA000C068C80160EA7CE00E94A1E6892B09F495
:104AB000D160C8016CE97CE00E94A1E6892B09F471
:104AC000D260F7018081918165E97CE00E94A1E6D6
:104AD000892B39F48091480890914908C82BD92B2B
:104AE00008C0C095D0958091480890914908C82386
:104AF000D923D0934908C09348088DE398E00E94D9
:104B00005B9380E0CDB7DEB7E6E00C9430E5FF9232
:104B10000F931F93F82E01E915E1C80163EA0E9483
:104B200023CDC80165E90E9423CDC80163E00E943E
:104B300023CDC8016F2D0E9423CDC8016AEB0E94CE
:104B400023CD1F910F91FF900895EF92FF920F9345
:104B50001F93CF93DF93BEE0EB2EBDE0FB2ECAE0A8
:104B6000D0E004E016E000D000D0EDB7FEB73196FB
:104B7000ADB7BEB712961C930E931197F382E282E3
:104B8000D583C4830E9415CFEDB7FEB736960FB616
:104B9000F894FEBF0FBEEDBF68EE73E080E090E0DA
:104BA0000E9451DF2197F9F600D00F92ADB7BEB742
:104BB00012961C930E9311978DEF9CE014969C9384
:104BC0008E9313970E9415CFC1E0D0E00F900F9005
:104BD0000F900F9081E995E1BE010E9479CC21965A
:104BE000B0E1C030DB07B1F781E995E161E070E049
:104BF0000E946DCC81E995E163EA0E9423CD81E9B1
:104C000095E165E90E9423CD81E995E160EF0E947D
:104C100023CD81E995E160E00E9423CD81E995E112
:104C20006AEB0E9423CD81E995E10E949BCD00D0E3
:104C30000F9284E096E0EDB7FEB7928381838FEE0A
:104C40009CE0948383830E9415CF0F900F900F9068
:104C50000F9080E0CDB7DEB7E6E00C9430E50F931F
:104C60001F9300D00F9204E016E0EDB7FEB7128359
:104C7000018381EE9BE1948383830E9415CF0F9083
:104C80000F900F900F9081E995E10E9413CEE82FCD
:104C9000F0E0EE0FFF1FEA5EFB4F60817181C801FB
:104CA0000E94F8DD1F910F91089581E995E10E941E
:104CB00013CE882369F400D00F9284E096E0ADB75C
:104CC000BEB712969C938E93119782E39CE119C014
:104CD00024E036E0813059F400D00F92EDB7FEB7F2
:104CE0003283218382E29CE1948383830EC000D0CF
:104CF0000F92ADB7BEB712963C932E9311978FE0EB
:104D00009CE114969C938E9313970E9415CF0F905D
:104D10000F900F900F9081E995E10E9413CE00D083
:104D200000D0EDB7FEB7319624E036E0ADB7BEB7A0
:104D300012963C932E93119727EF3BE13383228306
:104D4000848315820E9415CFEDB7FEB736960FB655
:104D5000F894FEBF0FBEEDBF0895CF92DF92EF92A1
:104D6000FF920F931F9301E915E1C8010E9484CEC1
:104D70006C01C8010E9484CE7C01C8010E9484CECF
:104D80002DB73EB72A5030400FB6F8943EBF0FBE45
:104D90002DBFEDB7FEB7319624E036E0ADB7BEB714
:104DA00012963C932E93119726EE3BE13383228398
:104DB000D582C482F782E682918780870E9415CFD0
:104DC0002DB73EB7265F3F4F0FB6F8943EBF0FBEDC
:104DD0002DBF1F910F91FF90EF90DF90CF9008951E
:104DE000A6E0B0E0E6EFF6E20C9408E501E915E193
:104DF000C8010E9484CE6C01C8010E9484CE1C01AF
:104E0000C8010E9484CE4C01C8010E9484CE2C01AE
:104E1000C8010E9484CE9E838D83C8010E9484CEE7
:104E20009C838B83C8010E9484CE9A8389832DB78B
:104E30003EB72E5130400FB6F8943EBF0FBE2DBF87
:104E40000DB71EB70F5F1F4F84E096E0EDB7FEB7BA
:104E50009283818388E49CE1F80193838283EE242A
:104E6000FF24C701B6010E9432E220E030E048ECA6
:104E700052E40E9499E1F8016483758386839783E5
:104E800031862086AA24BB24C501B4010E9432E2E7
:104E900020E030E048EC52E40E9499E1F80162879A
:104EA00073878487958766247724C301B2010E94A3
:104EB00032E220E030E048EC52E40E9499E1F8014F
:104EC00066877787808B918B2D813E81B9018827FA
:104ED00077FD8095982F0E9434E220E030E048EC86
:104EE00052E40E9499E1F801628B738B848B958B5D
:104EF0002B813C81B901882777FD8095982F0E94EE
:104F000034E220E030E048EC52E40E9499E1F801FC
:104F1000668B778B808F918F29813A81B9018827A1
:104F200077FD8095982F0E9434E220E030E04AE738
:104F300054E40E9499E1F801628F738F848F958FFA
:104F40000E9415CF2DB73EB7225E3F4F0FB6F894A3
:104F50003EBF0FBE2DBF2696E2E10C9424E54F9292
:104F60005F926F927F928F929F92AF92BF92CF92F9
:104F7000DF92EF92FF920F931F9391E9C92E95E173
:104F8000D92EC6010E9484CE3C01C6010E9484CE67
:104F90007C01C6010E9484CE4C01C6010E9484CED1
:104FA0002C018DB79EB740970FB6F8949EBF0FBEE9
:104FB0008DBFCDB6DEB60894C11CD11C84E096E04E
:104FC000EDB7FEB79283818383E89CE1F60193837A
:104FD0008283758264820027F7FC0095102FC80138
:104FE000B7010E9434E220E030E048EC52E40E9435
:104FF00099E1F6016683778380879187AA2497FCDD
:10500000A094BA2CC501B4010E9434E220E030E043
:1050100048EC52E40E9499E1F60162877387848725
:105020009587578646860E9415CF8DB79EB74096C6
:105030000FB6F8949EBF0FBE8DBF1F910F91FF90CA
:10504000EF90DF90CF90BF90AF909F908F907F9028
:105050006F905F904F9008951F9381E995E161E013
:1050600070E00E949ACE10E081E995E10E9413CE93
:10507000113051F0113018F0123099F408C010E0DE
:10508000833A79F411E00DC0853951F407C0803FAF
:1050900039F481E995E10E9413CE0AC012E001C003
:1050A00010E081E995E10E94D8CB0197E9F280E018
:1050B0001F9108958F929F92AF92BF92CF92DF92ED
:1050C000EF920F931F936C014A015B01A801B90194
:1050D0002E2D0E94AD9583EA94E0F60191838083A2
:1050E00083869486A586B68680912F15909130157B
:1050F0000F969093301580932F151F910F91EF907D
:10510000DF90CF90BF90AF909F908F900895CF92F7
:10511000DF92EF92FF920F937C016B01BA01A9011C
:10512000202F0E94AD958DEC94E0F7019183808350
:10513000D486C38680912F15909130150D9690934B
:10514000301580932F150F91FF90EF90DF90CF9047
:105150000895EF92FF920F931F937C01162FBA01CF
:10516000A901202F0E94AD958BED94E0F70191836A
:105170008083138780912F15909130150C96909312
:10518000301580932F151F910F91FF90EF90089588
:105190000F931F938C0124600E94AD958EE395E0E0
:1051A000F8019183808380912F15909130150B9693
:1051B0009093301580932F151F910F910895FC0146
:1051C00083EA94E091838083CF010E94149508952F
:1051D000FC0181EB94E091838083CF010E941495C0
:1051E0000895FC018FEB94E091838083CF010E94AE
:1051F00014950895FC018DEC94E091838083CF0198
:105200000E9414950895FC018BED94E091838083B6
:10521000CF010E9414950895FC0183EA94E09183E4
:105220008083CF010E9414950895FC0187EF94E0DC
:1052300091838083CF010E94149508950F931F934B
:105240008C0180579F4F0E94FA28C8018D579F4FAD
:105250000E94FA28C8018A589F4F0E94FA28C80164
:1052600087599F4F0E94FA28C801845A9F4F0E9475
:10527000FA28C801815B9F4F0E94FA28C8018E5B03
:105280009F4F0E94FA28C801C5960E94FA288EE313
:1052900095E0F80193A782A7C8018A960E94149509
:1052A0001F910F9108950F931F938C01C8960E9430
:1052B000FA28C80189960E940C29C8014A960E94C2
:1052C0000C29C8010B960E940C298EE395E0F80189
:1052D00091838083C8010E9414951F910F910895B6
:1052E0000F931F938C018D5B9F4F0E940329C80170
:1052F000C1960E94FA28C80184960E94FA28C80123
:1053000047960E94FA288EE395E0F8019183808306
:10531000C8010E9414951F910F910895FC0185E02A
:1053200095E091838083CF010E9414950895FC013C
:1053300083E195E091838083CF010E9414950895C5
:105340000F931F938C0183EA94E0F801918380838B
:10535000C8010E941495C8010E9478991F910F916D
:1053600008950F931F938C0181EB94E0F8019183D2
:105370008083C8010E941495C8010E9478991F91EA
:105380000F9108950F931F938C018FEB94E0F80118
:1053900091838083C8010E941495C8010E94789966
:1053A0001F910F9108950F931F938C018DEC94E042
:1053B000F80191838083C8010E941495C8010E945E
:1053C00078991F910F9108950F931F938C018BED86
:1053D00094E0F80191838083C8010E941495C8016C
:1053E0000E9478991F910F9108950F931F938C013C
:1053F00083EA94E0F80191838083C8010E941495A8
:10540000C8010E9478991F910F9108950F931F93DF
:105410008C0187EF94E0F80191838083C8010E949A
:105420001495C8010E9478991F910F9108950F93C8
:105430001F938C0185E095E0F80191838083C8017A
:105440000E941495C8010E9478991F910F910895A8
:105450000F931F938C0183E195E0F8019183808382
:10546000C8010E941495C8010E9478991F910F915C
:1054700008954630510540F0DC011B96FB0186E0A3
:1054800001900D928150E1F786E090E00895FC01D3
:105490004630510538F0DB013B9686E001900D92D5
:1054A0008150E1F786E090E008954831510540F0E1
:1054B000DC011B96FB0188E101900D928150E1F720
:1054C00088E190E00895FC014831510538F0DB0196
:1054D0003B9688E101900D928150E1F788E190E0E0
:1054E00008954C30510540F0DC011B96FB018CE027
:1054F00001900D928150E1F78CE090E00895FC015D
:105500004C30510538F0DB013B968CE001900D9258
:105510008150E1F78CE090E008954432510540F06D
:10552000DC011B96FB0184E201900D928150E1F7B2
:1055300084E290E00895FC014432510538F0DB012B
:105540003B9684E201900D928150E1F784E290E075
:105550000895A6E0B1E0EFEAFAE20C9408E5682EBF
:10556000292E59016A0148015E2C7F2C3090990444
:1055700040909A0486E18D83DE011696FB018FE050
:1055800001900D928150E1F726E0E22EF12CEC0E15
:10559000FD1EC601B5014FE097010E94E613082FDA
:1055A00010E0E82FE15FF0E0D701AE0FBF1F9C9243
:1055B000DE011796EA0FFB1F80828F5E90E0E80EF7
:1055C000F91EF7017082A80FB91F5C920D5E1F4F84
:1055D0007E010894E11CF11CC701632D442D262D8A
:1055E0000E94C012862D922DB7010E94E913CA5F56
:1055F000DE4FE2E10C9424E5A6E0B1E0E2E0FBE25C
:105600000C9412E5D82EC92E1091990470919A0429
:105610008EEF8D836E83DE011796FA0182E301908F
:105620000D928150E1F77E010894E11CF11CC70145
:10563000612F472F2D2D03E310E00E94C0128D2D06
:105640009C2DB7010E94E913CA5FDE4FE8E00C947D
:105650002EE5A3E3B0E0EFE2FBE20C9418E5DE01F7
:1056600012969E012C5C3F4FFA014F5F5F4FE49111
:10567000ED93A217B307C1F7FC0182859385AE01B4
:105680004E5F5F4F0E94FC2AE396E2E00C9434E503
:1056900080911F07992787FD9095A92FB92F2091F9
:1056A0008F11309190114091911150919211821768
:1056B0009307A407B50714F480E008958BE690E102
:1056C00061E04AEF59E10E94292B81E00895809121
:1056D0003D11813761F1823728F48823A1F18037A9
:1056E00049F503C0823731F503C00E942E1D08958D
:1056F00020918F1130919011409191115091921100
:105700008091A4119091A511A091A611B091A7111B
:10571000281739074A075B07BCF41092A4111092AE
:10572000A5111092A6111092A71181E008950E9470
:10573000181708958BE690E163E04BE75AE10E9469
:10574000292B80E00895089580E00895A0E0B0E05E
:10575000ECEAFBE20C9410E5742F052F5901C82EDA
:10576000DD24C601880F991FDC0143E0AA0FBB1F8F
:105770004A95E1F7A81BB90BA15ABD4E15968D911C
:105780009C9116970197099758F11C9211961C92BB
:105790001197F60133E0EE0FFF1F3A95E1F7EC1990
:1057A000FD09EE0FFF1FEF59FD4E108213961C925C
:1057B000139714961C92149716961C921E92159786
:1057C00017961C9217971D961C921E921C971B965B
:1057D0001C921E921A9718961C92189719961C9252
:1057E00086E091E0C89EA001C99E500DD89E500D44
:1057F000112445585D4EF60193E0EE0FFF1F9A9578
:10580000E1F7EC19FD09EE0FFF1FEF59FD4E108275
:10581000C601880F991FFC01A3E0EE0FFF1FAA9598
:10582000E1F7E81BF90BE15AFD4E0580F681E02D0A
:10583000EA30F10508F0C0C1E358FF4FEC010C94C9
:105840003FE5653509F0B8C1C601880F991FFC0115
:1058500023E0EE0FFF1F2A95E1F7E81BF90BE15A51
:10586000FD4E82E090E0968385832FEF3FEF86E048
:1058700091E0C89EF001C99EF00DD89EF00D112454
:10588000E558FD4EEC5FFE4F2193308395C186E0D5
:1058900091E0C89EF001C99EF00DD89EF00D112434
:1058A000E558FD4E60838E01B3E0000F111FBA95DD
:1058B000E1F70C1B1D0B015A1D4ED80117961C92C7
:1058C000CA010E94331384E090E0F8011BC086E017
:1058D00091E0C89EF001C99EF00DD89EF00D1124F4
:1058E000E558FD4E6183CA010E943313FE01A3E017
:1058F000EE0FFF1FAA95E1F7EC1BFD0BE15AFD4EE1
:1059000083E090E09683858357C183E890E0C89E4A
:10591000F001C99EF00DD89EF00D1124EE0FFF1F6F
:10592000E358FD4E6083CA010E943313FE0133E049
:10593000EE0FFF1F3A95E1F7EC1BFD0BE15AFD4E10
:1059400085E090E0DFCF86E091E0C89EF001C99E3F
:10595000F00DD89EF00D1124E558FD4E6383CA0169
:105960000E943313FE0123E0EE0FFF1F2A95E1F79B
:10597000EC1BFD0BE15AFD4E86E090E0C3CF86E0C4
:1059800091E0C89E8001C99E100DD89E100D112473
:1059900005581D4ED80114966C93CA010E9433130A
:1059A000F8018081E601CC0FDD1F882359F4FE0148
:1059B000B3E0EE0FFF1FBA95E1F7EC1BFD0BE15AC8
:1059C000FD4E39C0FE01A3E0EE0FFF1FAA95E1F7DF
:1059D000EC1BFD0BE15AFD4E87E090E093CF7C017C
:1059E000F3E0EE0CFF1CFA95E1F7E81AF90A8FE5EF
:1059F00092E1E80EF91ED70117962C91179786E0D1
:105A000091E0C89E8001C99E100DD89E100D1124F2
:105A100005581D4EF801E20FF11D65832F5F1796A3
:105A20002C93CA010E943313F7019781D8018C91FE
:105A3000981709F0C1C088E090E064CF86E091E05B
:105A4000C89E9001C99E300DD89E300D1124255856
:105A50003D4EA9014C5F5E4FFA018081E601CC0FFB
:105A6000DD1F6817B1F1DE0173E0AA0FBB1F7A9545
:105A7000E1F7AC1BBD0BA15ABD4E14968C91149747
:105A80008F5F14968C931497F60193E0EE0FFF1F2F
:105A90009A95E1F7EC19FD09EE0FFF1FEF59FD4E46
:105AA000108281E090E016969C938E931597653551
:105AB00009F082C082E090E016969C938E93159731
:105AC0008FEF9FEFDA018C93F901EB5FFE4F90832C
:105AD00073C0FE01B3E0EE0FFF1FBA95E1F7EC1BB8
