:100000000C94FC0B0C94260C0C94260C0C94260CD3
:100010000C94260C0C94260C0C94260C0C94260C98
:100020000C94260C0C94260C0C94260C0C94260C88
:100030000C94260C0C94260C0C94260C0C942A88F8
:100040000C94260C0C94260C0C94260C0C94260C68
:100050000C94260C0C94260C0C94260C0C94CED7E5
:100060000C94260C0C9413100C9453100C94260C26
:100070000C94260C0C94260C0C94260C0C94260C38
:100080000C94260C0C94260C0C94260C0C94260C28
:100090000C94A5100C94E5100C94260C0C9431D4FF
:1000A0000C94260C0C94BB860C94260C0C94260CF9
:1000B0000C94260C0C94260C0C94260C0C94260CF8
:1000C0000C94260C0C94260C0C94260C0C94260CE8
:1000D0000C94260C0C94260C0C9437110C9477116C
:1000E0000C94260CCF2BCF2BF52B332C152C512C0D
:1000F0006D2C9D2CCC2C242D945DB25D975D9A5D6A
:100100009D5DA05DA35DA65DA95DAC5DAF5D7371F6
:100110009F71A771AA71AD715C79B0715C795C79DE
:100120005C79B371B671B971C5710F780F780F78BA
:10013000D1710F78C7710F780F78D471DC71D671D7
:10014000D9710F78DC71DC71DC71DC710F780F789C
:100150000F780F78DC710F78DE71328737873C8734
:10016000418746874B87508755875A875F876487C3
:1001700013BC0EBC17BC1BBC28BC40BC67BC77BC06
:10018000B4BDAFBDB8BDC1BDE6BDF1BD09BE29BEA0
:1001900030BE0BD90ED901D905D947D912D916D9F4
:1001A0001CD920D924D92AD92ED932D938D93CD929
:1001B00042D9036EDB363D9A9999993DABAAAA2A9A
:1001C0003E000000803F084AD73B3BCE016E84BC16
:1001D000BFFDC12F3D6C74319ABD56833DDA3D00A1
:1001E000C77F11BED9E4BB4C3E916BAAAABE0000EA
:1001F00000803F072C7AA5BA6CC590DA3B9365FC6A
:100200008BBC53F810FD3C5692834DBD879D3AB68A
:100210003DCBC9BF5BBE73DA0FC93F05A84CCDB259
:10022000D44EB93836A9020C50B9918688083CA63C
:10023000AAAA2ABE000000803F08000000BE922447
:1002400049123EABAAAA2ABECDCCCC4C3E0000003F
:1002500080BEABAAAAAA3E00000000BF000000803A
:100260003F0000000000084178D3BB4387D1133D15
:10027000190E3CC3BD4282AD2B3E68EC8276BED9DE
:100280008FE1A93E4C80EFFFBE01C4FF7F3F00001D
:100290000000004C6F670064756D70000000000086
:1002A0000000000000C55D6572617365000000001C
:1002B00000000000001E26656E61626C6500000093
:1002C00000000000005C2564697361626C650000D9
:1002D00000000000005C2568656C700000000000F4
:1002E00000000000001F17706C616E6E6572006781
:1002F000637300000000000000000000004D7B73ED
:10030000657475700065726173650000000000001F
:10031000000000A2397265736574000000000000DF
:100320000000001F25726164696F0000000000007A
:1003300000000046446672616D6500000000000028
:1003400000000074236D6F746F7273000000000072
:100350000000002D446573630000000000000000F1
:10036000000000F1166C6576656C0000000000006E
:1003700000000015256D6F6465730000000000002B
:10038000000000D54362617474657279000000005A
:100390000000007724736F6E61720000000000009F
:1003A0000000003839636F6D7061737300000000E6
:1003B0000000000A3C6F66667365747300000000FD
:1003C000000000A03A6465636C696E6174696F6EC9
:1003D000000000663A73686F7700000000000000BC
:1003E0000000003E3A414320322E302E333320426B
:1003F000657461006C6F677300000000000000000E
:10040000000038387365747570000000000000004B
:100410000000D23774657374000000000000000013
:100420000000BB3768656C70000000000000000031
:100430000000DD16706C616E6E65720000000000D9
:1004400000002038746573740070776D0000000040
:10045000000000000000006343726164696F0000E7
:1004600000000000000000F7426661696C7361667D
:1004700065000000000000F7416770730000000095
:10048000000000000000009A20616463000000008A
:10049000000000000000002B20696D7500000000C6
:1004A000000000000000006B806261747465727966
:1004B00000000000000000C91674756E65000000A1
:1004C00000000000000000CB4174726900000000D1
:1004D00000000000000000684163757272656E7470
:1004E00000000000000000DF4072656C61790000D0
:1004F00000000000000000B617776179706F696E28
:10050000747300000000003E52616C74697475647D
:10051000650000000000003B40736F6E61720000D8
:10052000000000000000003A1B636F6D7061737380
:1005300000000000000000711A786265650000008C
:10054000000000000000008417656564756D700090
:10055000000000000000000E1A72617767707300DF
:100560000000000000000045176D697373696F6E2D
:1005700000000000000000D85277700020253032C3
:100580007800253034783A00426567696E20584219
:10059000656520582D4354552052616E6765206172
:1005A0006E64205253534920546573743A0A0043D1
:1005B0006F6D706173733A200048656164696E679E
:1005C0003A20256C642C2058595A3A2025642C2056
:1005D00025642C2025642C0958595A6F66663A20E8
:1005E00025362E32662C2025362E32662C202536D6
:1005F0002E32660A00536F6E61723A2025642063C2
:100600006D0A00536F6E61722064697361626C657C
:10061000640A004261726F3A202564636D0A0048E3
:100620006974207261646975733A2025640A002533
:100630006420776179706F696E74730A006F662049
:1006400025646D0A000A00486F6C6420616C74694F
:1006500074756465200052656C6179206F66660A66
:100660000052656C6179206F6E0A00563A2025347D
:100670002E34662C20413A2025342E34662C206DF1
:1006800041683A2025342E34660A00696E7075740C
:100690003A202564096F757470757425640A0064C6
:1006A000697361626C65640A004E6F7420656E61E7
:1006B000626C65640A00256C642C20256C642C2017
:1006C000256C640A0025642C004144430A004C61F7
:1006D000743A20256C642C204C6F6E20256C642CA1
:1006E00020416C743A20256C646D2C202373617456
:1006F000733A2025640A004C4F532063617573657B
:1007000064206E6F206368616E676520696E2041AA
:10071000434D2E0A005448524F54544C45204641F4
:10072000494C534146452041435449564154454460
:100730003A2025642C2000434F4E54524F4C204DFC
:100740004F4445204348414E4745443A20005448D1
:10075000524F54544C45204348414E474544202570
:1007600064200A00556E706C756720626174746550
:1007700072792C207468726F74746C6520696E20B5
:100780006E65757472616C2C207475726E206F6664
:100790006620726164696F2E0A00494E2020313A4A
:1007A00020256409323A20256409333A202564095A
:1007B000343A20256409353A20256409363A202543
:1007C0006409373A2025640A00494E3A20313A201C
:1007D000256409323A20256409333A202564093416
:1007E0003A20256409353A20256409363A202564E3
:1007F00009373A20256409383A2025640A00436FF6
:100800006D6D616E64733A0A20206C6F67730A2005
:100810002073657475700A2020746573740A202033
:10082000706C616E6E65720A0A4D6F766520746831
:100830006520736C696465207377697463682061EF
:100840006E6420726573657420746F20464C592E57
:100850000A0A0048656164696E673A2025752C2094
:1008600009202825642C2025642C202564292C208F
:100870002825342E34662C2025342E34662C202551
:10088000342E3466290A0063000A4F7074696F6E53
:10089000733A5B6F6E2C6F66665D0A006F6666006A
:1008A0006F6E000A4F7074696F6E733A5B6F6E2CD7
:1008B000206F66665D0A006F6666006F6E000A4F05
:1008C0007074696F6E733A206F66662C20312D3418
:1008D000006F6666000A4D6F766520524320746F84
:1008E00067676C652073776974636820746F20652F
:1008F00061636820706F736974696F6E20746F2014
:10090000656469742C206D6F76652061696C657211
:100910006F6E20737469636B20746F2073656C65F0
:100920006374206D6F6465732E000A556E706C756C
:10093000672C207468656E20706C75672D696E2059
:10094000626174746572793B2043616C69627261A3
:10095000746520455343732E0A20507265737320CB
:10096000456E74657220746F2063616E63656C2ED2
:100970000A000A4F7074696F6E733A5B782C2B2CE7
:10098000765D0A0076002B00700078000A4D6F76C5
:100990006520616C6C20636F6E74726F6C73207471
:1009A0006F20656163682065787472656D652E20BF
:1009B00048697420456E74657220746F2073617687
:1009C000653A20000A464143544F5259205245533C
:1009D000455420636F6D706C657465202D207265C1
:1009E000626F6F742041504D000A275927202B2039
:1009F000456E74657220746F20666163746F7279DE
:100A00002072657365742C20616E79206F7468653F
:100A100072206B657920746F2061626F72743A0A7C
:100A2000000A436F6D6D616E64733A0A202064752D
:100A30006D70203C6E3E20206572617365202861D8
:100A40006C6C206C6F6773290A2020656E61626C84
:100A500065203C6E616D653E207C20616C6C0A20D7
:100A60002064697361626C65203C6E616D653E2037
:100A70007C20616C6C0A0A00656E61626C65004DD9
:100A80004F544F52530043555252454E5400434D1C
:100A90004400524157004D4F4445004E54554E00BE
:100AA0004354554E00504D00475053004154544953
:100AB000545544455F4D45440041545449545544B0
:100AC000455F4641535400616C6C006D69737369F6
:100AD0006E67206C6F6720747970650A000A4C6F2E
:100AE00067206572617365642E0A000A457261733E
:100AF000696E67206C6F672E2E2E0A00626164207B
:100B00006C6F6720232025640A005448525F534FBE
:100B10004E5F005448525F4241525F004E41565F63
:100B200057505F004E41565F4C4F4E5F004E41564E
:100B30005F4C41545F005354425F5941575F00532B
:100B400054425F5049545F005354425F524C4C5FD3
:100B5000004143525F5941575F004143525F504942
:100B6000545F004143525F524C4C5F005243385F28
:100B7000005243375F005243365F005243355F00F7
:100B80005243345F005243335F005243325F00529E
:100B900043315F004652414D4500455343004D41AE
:100BA000475F454E41424C4500424154545F4341EA
:100BB00050414349545900424154545F4D4F4E49AE
:100BC000544F5200534F4E41525F454E41424C45A7
:100BD00000414C545F484F4C445F52544C004C4FC2
:100BE000475F4249544D41534B0050495443485F7D
:100BF0004D415800464C544D4F4445005452494DC8
:100C00005F5448524F54544C45005448525F465329
:100C10005F56414C5545005448525F46535F41432F
:100C200054494F4E005448525F4641494C53414647
:100C300045005448525F4D4158005448525F4D4959
:100C40004E0057505F4C4F495445525F524144004B
:100C500057505F5241444955530057505F4D5553CB
:100C6000545F494E4445580057505F494E444558DB
:100C70000057505F544F54414C0057505F4D4F4404
:100C800045005854524B5F414E474C455F4344002A
:100C90005854524B5F4741494E5F53430053595399
:100CA00049445F4D594743530053595349445F5496
:100CB0004849534D41560053595349445F53575F78
:100CC000545950450053595349445F53575F4D524F
:100CD000455600524556004D4158005452494D006A
:100CE0004D494E00494D41580044004900500049CB
:100CF0004D555F53454E534F525F43414C004C6F2F
:100D00006720232025642C202020207374617274B6
:100D10002025642C202020656E642025640A000AAA
:100D20002564206C6F67730A000A4E6F206C6F6732
:100D3000730A54797065202764756D702030272EF2
:100D40000A0A00204D4F544F52530020435552522F
:100D5000454E540020434D44002052415700204E40
:100D600054554E00204354554E0020504D0020470E
:100D70005053002041545449545544455F4D454417
:100D8000002041545449545544455F464153540052
:100D90006E6F6E65006C6F677320656E61626C6567
:100DA000643A200048697420456E74657220746F3F
:100DB00020657869742E0A0A0054657374204D6F9B
:100DC00064650A0A0047524F554E4420535441521D
:100DD00054000A456E746572696E6720696E7465A9
:100DE00072616374697665207365747570206D6FC8
:100DF00064652E2E2E0A0A54797065202768656C6A
:100E0000702720746F206C69737420636F6D6D613F
:100E10006E64732C2027657869742720746F206CAA
:100E2000656176652061207375626D656E752E0A49
:100E300056697369742074686520277365747570CA
:100E400027206D656E7520666F72206669727374F7
:100E50002D74696D6520636F6E6669677572617464
:100E6000696F6E2E0A0A00506C65617365205275B9
:100E70006E2053657475702E2E2E0A000A0A496E74
:100E800069742041434D0A0A52414D3A20256C7540
:100E90000A004779726F206F6666736574733A2033
:100EA00025342E32662C2025342E32662C20253413
:100EB0002E32660A00416363656C206F6666736557
:100EC00074733A2025342E32662C2025342E326657
:100ED0002C2025342E32660A0061626C65640A009B
:100EE00064697300656E00646F6E650A000A45727E
:100EF0006173696E6720454550524F4D0A000A5391
:100F0000617665642053657474696E67730A0A00BC
:100F1000506F732025643A20004348373A202564F7
:100F2000207C2025640A004348363A202564207C32
:100F30002025640A004348353A202564207C20257A
:100F4000640A004348343A202564207C2025640A42
:100F5000004348333A202564207C2025640A00435E
:100F600048323A202564207C2025640A0043483119
:100F70003A202564207C2025640A00503A2025343C
:100F80002E32662C20493A25342E32662C20443AE3
:100F900025342E32662C20494D41583A256C640A7E
:100FA00000466C69676874206D6F6465730A004D54
:100FB0006167206F6666736574733A2025342E343A
:100FC000662C2025342E34662C2025342E346600E1
:100FD0004D6167204465633A2025342E34660A004B
:100FE000436F6D706173730A00494D550A006D6956
:100FF0006E3A2025640A6D61783A2025640A63728E
:10100000756973653A2025640A6661696C73616667
:10101000655F656E61626C65643A2025640A66618D
:10102000696C736166655F76616C75653A202564ED
:10103000005468726F74746C650A005854524143CE
:101040004B3A2025342E32660A58545241434B20E5
:10105000616E676C653A2025640A50495443485FC5
:101060004D41583A20256C640058547261636B0AF4
:1010700000736F6E6172207468726F74746C653A7D
:101080000A006261726F207468726F74746C653AE2
:101090000A006C6F6E673A0A004E61763A0A6C611C
:1010A000743A0A007961773A0A0070697463683AA1
:1010B0000A000A53746162696C697A653A0A726F50
:1010C0006C6C3A0A007961773A0A00706974636857
:1010D0003A0A004163726F3A0A726F6C6C3A0A0006
:1010E0004761696E730A00526164696F0A00562095
:1010F0006D6F64650A002B206D6F64650A005820CF
:101100006D6F64650A00545249206672616D650A0C
:10111000004672616D650A00465720566572736914
:101120006F6E2025640A00536F6E61720A000A47D1
:1011300050530A00636F6D6D616E6420233A202561
:10114000642069643A2564206F703A256420703108
:101150003A25642070323A256C642070333A256C4D
:10116000642070343A256C64200A00766F6C7473C6
:1011700020616E6420637572006261747420766F02
:101180006C747300342063656C6C7300332063658A
:101190006C6C73000A42617474204D6F696E746FD9
:1011A000720A000A20547970652027726164696FA1
:1011B0002720746F20636F6E666967757265206E95
:1011C0006F772E0A0A000A215761726E696E672CCA
:1011D00020796F757220726164696F206973206E67
:1011E0006F7420636F6E6669677572656421005362
:1011F00065747570204D6F64650A0A0A00506C6151
:101200006E6E6572204D6F64650A4E6F7420696E54
:1012100074656E64656420666F72206D616E7561C1
:101220006C207573650A0A003C6E617669676174AB
:10123000653E205750206572726F72202D206469C0
:101240007374616E6365203C2030004C6F772042E0
:1012500061747465727921006F7574206F66206304
:101260006F6D6D616E647321006572726F723A20EA
:101270006E6F6E2D4E617620636D64005265616302
:1012800068656420686F6D65005354415254205561
:10129000500A005241572C002C2025640A004D4F63
:1012A000443A004154542C2025642C2025642C20E1
:1012B00025750A00434D442C2025642C2025642CE0
:1012C0002025642C2025642C2025642C20256C648A
:1012D0002C20256C642C20256C640A00504D2C00B9
:1012E0004354554E2C2025642C2025642C20256445
:1012F0002C2025642C2025642C2025642C202531CD
:101300002E34662C2025642C2025642C2025642C6A
:101310002025642C2025642C2025640A004E545579
:101320004E2C2025642C2025642C2025642C20257F
:10133000642C2025642C2025642C2025642C202559
:10134000640A004D4F543A2025642C2025642C203B
:1013500025642C2025640A00435552523A20256406
:101360002C20256C642C2025342E34662C2025342A
:101370002E34662C2025640A004750532C20256CFF
:10138000642C2025642C2025642C2025342E3766DF
:101390002C2025342E37662C2025342E34662C2024
:1013A00025342E34662C2025642C2025750A003C1B
:1013B00073746172745F6E65775F6C6F673E204C0B
:1013C0006F67732066756C6C00666C696768742063
:1013D000706C616E20726563656976656400616337
:1013E00074696F6E2072656365697665643A200082
:1013F000776179706F696E7420726563656976656F
:101400002074696D656F757400776179706F696EAE
:10141000742073656E642074696D656F7574004522
:1014200058545241330045585452413200455854A3
:1014300052413100504F534954494F4E0052415789
:101440005F4354524C0052435F4348414E0045585D
:10145000545F53544154005241575F53454E53001B
:101460005352335F005352305F00253033753A25B5
:10147000733A20006E6F7420666F756E64002530BD
:1014800033753A252D33322E3332733A2000756E80
:101490006B6E6F776E2074797065006E6F74206666
:1014A0006F756E640025733A20006D697373696E01
:1014B00067206E616D65206F722076616C756500C6
:1014C0003F3F00256400256400256C64002566000C
:1014D000256600657869740068656C700044454352
:1014E00000434F4D504153535F00245047434D44F8
:1014F0002C31362C302C302C302C302C302A3641EC
:101500000D0A0024505542582C34312C312C3030E7
:1015100030332C303030312C33383430302C302ACA
:1015200032360024505352463130302C302C333870
:101530003430302C382C312C302A3343002053697E
:1015400052462000204D544B312E3620002075622B
:101550006C6F782000204D544B312E342000666192
:10156000696C65642C207265747279696E67004FCE
:101570004B0020002A00496E697420416363656C4A
:10158000002A00496E6974204779726F006E616E9F
:1015900000696E660000407A10F35A00A0724E187F
:1015A000090010A5D4E80000E87648170000E40B15
:1015B00054020000CA9A3B000000E1F505000080DB
:1015C000969800000040420F000000A08601000035
:1015D00000102700000000E8030000000064000085
:1015E0000000000A00000000000100000000002CC4
:1015F00076D888DC674F0823DFC1DFAE59E1B1B789
:1016000096E5E3E453C63AE651997696E8E6C28455
:1016100026EB898C9B62ED407C6FFCEFBC9C9F406D
:10162000F2BAA56FA5F490055A2AF75C936B6CF992
:10163000676DC11BFCE0E40D47FEF520E6B500D068
:10164000ED902E0300943577050080841E0800007D
:10165000204E0A000000C80C333333330F986E124B
:10166000831141EF8D2114893BE65516CFFEE6DB51
:1016700018D1844B381BF77C1D901DA4BBE424209B
:101680003284725E228100C9F124ECA1E53D27007D
:10169000002100240027002A002D00300033000123
:1016A000010000040107010A0100002200250028B2
:1016B000002B002E0031003400020100000501085B
:1016C000010B01000020002300260029002C002F20
:1016D00000320000010000030106010901050505B3
:1016E00005070508080808020202020A0A08080499
:1016F00004040401010101010101010303030303C7
:10170000030303040707070C0C0C0C0C0C0C0C0255
:1017100002020206060606060606060B0B0B0B0B5C
:101720000B0B0B0102102020080810204010204055
:101730008002010201080402010102040810204095
:1017400080804020100804020180040201804020B3
:1017500010080402010804020101020408102040DC
:101760008001020408102040800000090A02080BD2
:101770000C0D07060304010000000000000000003B
:101780000000000000000000000000000000000059
:101790000000000000100F0E00000000000000001C
:1017A00000000000000000000000000000000049F0
:1017B0004E46494E4954594E414ECDCCCC3D0AD7A8
:1017C000233C17B7D13877CC2B329595E6241FB13F
:1017D0004F0A000020410000C84200401C4620BCC7
:1017E000BE4CCA1B0E5AAEC59D745937B987E58FDA
:1017F00088C435D35237DE8F11241FBECFEFD1E21C
:10180000DEBFCDBF16E0A0E0B2E0E4E0F9EC01E01D
:101810000BBF02C007900D92AA3CB107D9F718E19F
:10182000AAECB6E001C01D92A43CB107E1F717E1B4
:10183000C4EFD7E104C02297FE010E943ADECA3EFF
:10184000D107C9F70E94B0D50C9475E40C94000040
:10185000283008F027E03327DA01990F311D87FD82
:10186000916000966105710539F432602E5F3D93F9
:1018700030E32A95E1F708959F3F30F080387105F5
:10188000610509F03C5F3C5F3D93913008F0806852
:10189000911DDF93CF931F930F93FF92EF92192F18
:1018A000987F9695E92F96959695E90FFF27E15138
:1018B000FA4E99273327EE24FF24A701E70105906C
:1018C0000894079428F4360FE71EF81E491F511D8F
:1018D000660F771F881F991F0694A1F7059007943C
:1018E00028F4E70EF81E491F561FC11D770F881FE9
:1018F000991F661F0694A1F70590079428F4F80E27
:10190000491F561FC71FD11D880F991F661F771FBC
:101910000694A1F70590079420F4490F561FC71F9E
:10192000D81F990F661F771F881F0694A9F7849107
:101930001095177041F0D695C79557954795F79430
:10194000E7941A95C1F7E5E9F5E1689415901591CA
:1019500035916591959105907FE27395E118F10AB3
:10196000430B560BC90BD009C0F7E10CF11E431F06
:10197000561FC91FD01D7EF4703311F48A95E6CF2F
:10198000E894015030F0080F0AF40027021708F419
:10199000202F2395022F7A3328F079E37D932A951F
:1019A000E9F710C07D932A9589F606949795679577
:1019B000379517951794E118F10A430B560BC90B8D
:1019C000D00998F023957E9173957A3308F070E3EF
:1019D0007C932013B8F77E9170617D9330F08395EE
:1019E00071E37D9370E32A95E1F71124EF90FF9066
:1019F0000F911F91CF91DF91992787FD90950895C1
:101A0000FA01AA27283051F1203181F1E8946F932F
:101A10006E7F6E5F7F4F8F4F9F4FAF4FB1E03ED0D5
:101A2000B4E03CD0670F781F891F9A1FA11D680F73
:101A3000791F8A1F911DA11D6A0F711D811D911DA6
:101A4000A11D20D009F468943F912AE0269F11241B
:101A50003019305D3193DEF6CF010895462F47707F
:101A6000405D4193B3E00FD0C9F7F6CF462F4F70DA
:101A7000405D4A3318F0495D31FD4052419302D038
:101A8000A9F7EACFB4E0A6959795879577956795DE
:101A9000BA95C9F700976105710508959B01AC01DE
:101AA0000A2E06945795479537952795BA95C9F705
:101AB000620F731F841F951FA01D0895EF92FF9260
:101AC0000F93DF93CF93CDB7DEB760970FB6F8943F
:101AD000DEBF0FBECDBFA82F002309F461C07E0179
:101AE0000894E11CF11C88E0F70111928A95E9F74E
:101AF00029833A834B835C836D837E83AF8398878E
:101B000080E2801BE82FFF27E7FDF0954D815E8185
:101B10006F817885181684F01D861E861F86188AA8
:101B2000882799278E1B9F0B04C07695679557953C
:101B300047958A95D2F728C0202F332727FD309567
:101B4000DB01CA01022E04C0B695A795979587952B
:101B50000A94D2F78D879E87AF87B88B04C0440F55
:101B6000551F661F771FEA95D2F789819A81AB814D
:101B7000BC8104C0B695A795979587952A95D2F70D
:101B8000482B592B6A2B7B2B49875A876B877C877D
:101B900029853A854B855C856D857E85AF859889DD
:101BA0008A2F60960FB6F894DEBF0FBECDBFCF91DF
:101BB000DF910F91FF90EF900895CF93DF93FC0199
:101BC000EB014230510570F06385748585859685FB
:101BD00020E030E040E854E40E94B7DC0E94FFDAE5
:101BE0007983688382E090E0DF91CF910895CF936D
:101BF000DF93EC01FB014230510518F420E030E0A6
:101C000012C06081718180E090E00E942BDB20E0B7
:101C100030E040E85AE30E94B7DC6B877C878D8711
:101C20009E8722E030E0C901DF91CF9108950097AF
:101C300019F00197C1F40CC0E091FE17F091FF1765
:101C4000A081B1812D913C91CF01F90109950895B1
:101C5000E0910018F0910118A081B1812D913C9183
:101C6000CF01F90109950895EF92FF920F931F9309
:101C7000CF93DF93EC0108836A834B83822F90E03C
:101C8000880F991FFC01A3E0EE0FFF1FAA95E1F753
:101C9000E81BF90BE558FB4E81858983822F90E084
:101CA000880F991FDC0163E0AA0FBB1F6A95E1F75B
:101CB000A81BB90BA558BB4E822F90E0880F991F27
:101CC000FC0143E0EE0FFF1F4A95E1F7E81BF90B1B
:101CD000E558FB4E81858F5F19968C93DE0135E0C8
:101CE000E32EF12CE00EF11E6FEF7FEFE0E0F0E06D
:101CF0001EC02D912627822F8295807F822790E01B
:101D0000382F2227AC01440F551F440F551F440F95
:101D1000551F24273527672F77276227732724E04D
:101D2000959587952A95E1F7682779273196EE15DD
:101D3000FF05FCF2CC5FDE4F699378839801295F41
:101D40003F4FC901CDB7DEB7E6E00C9429DEFC01B8
:101D5000DC01AC5FBE4F8C91EB5FFE4F6827262FF6
:101D60002295207F262730E0522F4427C90163E0C7
:101D7000880F991F6A95E1F748275927808190E0DD
:101D80004827592784E0359527958A95E1F742271A
:101D900053274C9350830895F901E40FF11D292F27
:101DA00033274427552720839C01552737FD50951D
:101DB000452F2183272F382F492F552747FD5A9527
:101DC0002283638384E008957F928F929F92AF92E3
:101DD000BF92CF92DF92EF92FF920F931F93722EDA
:101DE000132FD42EC52EB62EA72E982E892EE00E98
:101DF000F11C08E30E945E0DF7012083272D312F8F
:101E00004D2D5C2D6B2D7A2D892D982D00E30E9490
:101E10005E0DF7012183272D312F4D2D5C2D6B2D6C
:101E20007A2D892D982D08E20E945E0DF7012283FC
:101E3000272D312F4D2D5C2D6B2D7A2D892D982D31
:101E400000E20E945E0DF7012383272D312F4D2DD7
:101E50005C2D6B2D7A2D892D982D08E10E945E0D49
:101E6000F7012483272D312F4D2D5C2D6B2D7A2DDD
:101E7000892D982D00E10E945E0DF7012583272D05
:101E8000312F4D2D5C2D6B2D7A2D892D982D08E04D
:101E90000E945E0DF7012683778288E01F910F91E3
:101EA000FF90EF90DF90CF90BF90AF909F908F907A
:101EB0007F9008950E94CC0E0895A0E0B0E0E3E684
:101EC000FFE00C940BDE8C01EB0165E50E94170E20
:101ED000C80168810E94170EC80169810E94170E0F
:101EE000C8016A810E94170EC8016B810E94170EFB
:101EF000C8016C810E94170E6E01EE24FF2408C0F9
:101F0000C801F60164810E94170E0894E11CF11CBF
:101F10000894C11CD11C888190E0E816F90680F372
:101F2000CC5FDE4FC80169910E94170EC80168811D
:101F30000E94170ECDB7DEB7E8E00C9427DEA6E0CE
:101F4000B1E0E5EAFFE00C940BDED82EC92E5091EB
:101F5000D9047091DA0488E28D836E834F833887C9
:101F600029877E010894E11CF11CC701652F472FCA
:101F70002D2D04E010E00E94340E8D2D9C2DB70114
:101F80000E945D0FCA5FDE4FE8E00C9427DEA6E0FA
:101F9000B1E0EDECFFE00C940BDED82EC92E2091C1
:101FA000D9044091DA048AE28D837E836F837E01B7
:101FB0000894E11CF11CC701622F2D2D02E010E0F6
:101FC0000E94340E8D2D9C2DB7010E945D0FCA5FBB
:101FD000DE4FE8E00C9427DEA6E0B1E0E2EFFFE0A0
:101FE0000C940BDED82EC92E3091D9045091DA040E
:101FF0008FE28D836E834F8328877E010894E11CD6
:10200000F11CC701632F452F2D2D03E010E00E9426
:10201000340E8D2D9C2DB7010E945D0FCA5FDE4FDF
:10202000E8E00C9427DE1F920F920FB60F920BB6CA
:102030000F9211242F933F934F938F939F93EF937E
:10204000FF934091C6002091BE173091BF172F5FBC
:102050003F4F8091C2179091C31728233923809155
:10206000C0179091C1172817390779F08091BE17D2
:102070009091BF17E091C417F091C517E80FF91FB1
:1020800040833093BF172093BE17FF91EF919F912C
:102090008F914F913F912F910F900BBE0F900FBEDC
:1020A0000F901F9018951F920F920FB60F920BB6BC
:1020B0000F9211242F933F938F939F93EF93FF934E
:1020C0002091E0173091E1178091DE179091DF1792
:1020D00028173907E9F08091E0179091E117E09116
:1020E000E417F091E517E80FF91F80818093C6008F
:1020F0008091E0179091E11701962091E2173091BD
:10210000E317822393239093E1178093E01710C085
:102110002091DE173091DF178091E0179091E11741
:102120002817390729F48091C1008F7D8093C10061
:10213000FF91EF919F918F913F912F910F900BBE47
:102140000F900FBE0F901F9018951F920F920FB611
:102150000F920BB60F9211242F933F934F938F93AF
:102160009F93EF93FF934091CE002091C61730913B
:10217000C7172F5F3F4F8091CA179091CB17282325
:1021800039238091C8179091C9172817390779F01A
:102190008091C6179091C717E091CC17F091CD1799
:1021A000E80FF91F40833093C7172093C617FF919C
:1021B000EF919F918F914F913F912F910F900BBE77
:1021C0000F900FBE0F901F9018951F920F920FB691
:1021D0000F920BB60F9211242F933F938F939F93DF
:1021E000EF93FF932091E8173091E9178091E6175C
:1021F0009091E71728173907E9F08091E817909137
:10220000E917E091EC17F091ED17E80FF91F8081C5
:102210008093CE008091E8179091E9170196209164
:10222000EA173091EB17822393239093E917809359
:10223000E81710C02091E6173091E7178091E81752
:102240009091E9172817390729F48091C9008F7DEB
:102250008093C900FF91EF919F918F913F912F91B2
:102260000F900BBE0F900FBE0F901F9018951F92EE
:102270000F920FB60F920BB60F9211242F933F932C
:102280004F938F939F93EF93FF934091360120914B
:10229000D6173091D7172F5F3F4F8091DA17909163
:1022A000DB17282339238091D8179091D917281745
:1022B000390779F08091D6179091D717E091DC1704
:1022C000F091DD17E80FF91F40833093D717209363
:1022D000D617FF91EF919F918F914F913F912F9141
:1022E0000F900BBE0F900FBE0F901F9018951F926E
:1022F0000F920FB60F920BB60F9211242F933F93AC
:102300008F939F93EF93FF932091F8173091F917D4
:102310008091F6179091F71728173907E9F0809107
:10232000F8179091F917E091FC17F091FD17E80F5D
:10233000F91F8081809336018091F8179091F917E9
:1023400001962091FA173091FB17822393239093E3
:10235000F9178093F81710C02091F6173091F717EE
:102360008091F8179091F9172817390729F480916F
:1023700031018F7D80933101FF91EF919F918F917A
:102380003F912F910F900BBE0F900FBE0F901F909B
:102390001895EF92FF920F931F93809141148F5FD6
:1023A00080934114823008F472C0109241148091DD
:1023B000190990911A09893C9105CCF52091D31304
:1023C0003091D4134091D5135091D6132150304001
:1023D00040405040E090C413F090C5130091C613E4
:1023E0001091C713D801C70183569040A040B04058
:1023F000281739074A075B0734F4A80197012456C8
:10240000304040405040DA01C901243631054105D1
:10241000510524F484E690E0A0E0B0E08093D3136B
:102420009093D413A093D513B093D61330C08D5B83
:1024300092406CF12091D3133091D4134091D51375
:102440005091D6132E5F3F4F4F4F5F4FE090C41314
:10245000F090C5130091C6131091C713D801C7019E
:1024600089539F4FAF4FBF4F82179307A407B507FC
:1024700034F4A801970128533F4F4F4F5F4F2093EB
:10248000D3133093D4134093D5135093D6131F9185
:102490000F91FF90EF900895AF92BF92CF92DF928D
:1024A000EF92FF920F931F935B016C01E090491331
:1024B000F0904A1300914B1310914C1322273327AD
:1024C000A901261B370B480B590BE216F30604072C
:1024D00015071CF4DA01C9010DC0DC01CB01782F0E
:1024E000692F9A2F8B2FEA14FB040C051D0534F479
:1024F000D801C701782F692F9A2F8B2F709349131A
:1025000060934A1390934B1380934C1380914D1317
:1025100090914E13A0914F13B091501382179307CF
:10252000A407B5074CF0A60195018A159B05AC05DB
:10253000BD0514F49C01AD0120934D1330934E134F
:1025400040934F13509350131F910F91FF90EF90B2
:10255000DF90CF90BF90AF900895EF92FF920F93CE
:102560001F936091860470918704809188049091F4
:102570008904209182043091830440918404509115
:1025800085040E94B7DC7B018C0120E030E040E054
:102590005FE30E948BDA882324F4E0E070E080ECB3
:1025A0000DC0C801B70120E030E040E85FE30E94C1
:1025B00067DC18162CF4E0E070E080E86FE30AC0F6
:1025C00060E070E080E090E4A80197010E94ADD93E
:1025D000E62F692F2E2F372F482F562FB901CA010A
:1025E0001F910F91FF90EF900895EF92FF920F933C
:1025F0001F930E94AD127B018C0160915D1370915D
:102600005E13882777FD8095982F0E942DDBA80107
:1026100097010E94B7DC0E94FADACB011616170662
:1026200014F081E090E090931E0980931D091F91A2
:102630000F91FF90EF900895EF92FF920F931F93E9
:102640000E94AD127B018C016091190970911A09E9
:10265000882777FD8095982F0E942DDBA801970190
:102660000E94B7DC0E94FADACB0177FF02C080E05B
:1026700090E090931E0980931D091F910F91FF9088
:10268000EF900895FC017183608386E06A3C7807CF
:1026900039F47093FF176093FE171386128608C0F3
:1026A000709301186093001881E090E0938782870F
:1026B0001382128208952091D3133091D413409144
:1026C000D5135091D6138091971390919813A091A0
:1026D0009913B0919A1382179307A407B50774F45E
:1026E0008091C4139091C513A091C613B091C713E4
:1026F000281739074A075B07C4F40DC08091C4133B
:102700009091C513A091C613B091C7138217930778
:10271000A407B50754F410929313109294131092D7
:1027200095131092961381E0089580E008958091AA
:10273000FF138093A304833049F4AFEDB3E1EDEFD1
:10274000F3E18FE001900D928150E1F708958091BF
:10275000FF13813021F480910B0184600AC088232B
:1027600021F480910B018B7F04C080910B0194E0D8
:10277000892780930B0108952091BF093091C009EA
:10278000C9018F5C94408238910510F481E008956E
:10279000C901815595408238910510F482E0089571
:1027A000C901835D95408238910510F483E0089556
:1027B000C901855596408138910510F484E008954B
:1027C000265D364014F480E0089585E00895209158
:1027D000CA123091CB124091CC125091CD128091FF
:1027E0003D1390913E13A0913F13B0914013281BCD
:1027F000390B4A0B5B0B213586E4380780E048072C
:1028000080E058072CF0205A3C48404050400CC013
:10281000203B99EB39079FEF49079FEF590724F4B5
:10282000205633474F4F5F4F80E0B90137FF03C059
:10283000709561957F4F615177420CF081E008956A
:10284000A4E0B0E0E6E2F4E10C9401DE60915913FB
:1028500070915A1380915B1390915C130E942DDB51
:102860003B014C018091DE129091DF12A091E012A9
:10287000B091E11289839A83AB83BC836091551335
:102880007091561380915713909158130E942DDB2D
:102890001B012C01E0908A04F0908B0400918C04C1
:1028A00010918D04C401B30129813A814B815C816F
:1028B0000E94B7DC5B016C01C201B101A801970164
:1028C0000E94B7DC9B01AC01C601B5010E94AED9E4
:1028D0000E94FADA6093491370934A1380934B1362
:1028E00090934C1317FB109517F91095C401B30181
:1028F000A80197010E94B7DC7B018C01C201B101E4
:1029000029813A814B815C810E94B7DC9B01AC013B
:10291000C801B7010E94AED90E94FADA60934D1344
:1029200070934E1380934F13909350132496E2E1CB
:102930000C941DDE60917E1370917F138091801343
:102940009091811324E630E040E050E00E947EDD6B
:10295000653921E1720720E0820720E0920724F028
:1029600064E971E180E090E06C362EEE72072FEFA3
:1029700082072FEF920724F46CE67EEE8FEF9FEF35
:102980006093551370935613809357139093581375
:1029900008952091C6123091C7124091C8125091EB
:1029A000C9128091291190912A11A0912B11B091F7
:1029B0002C11281B390B4A0B5B0B213586E4380799
:1029C00080E0480780E058072CF0205A3C484040FF
:1029D00050400CC0203B89EB38078FEF48078FEF42
:1029E000580724F4205633474F4F5F4F2093EC1283
:1029F0003093ED124093EE125093EF120895209110
:102A0000CA123091CB124091CC125091CD128091CC
:102A1000CE129091CF12A091D012B091D112281B5A
:102A2000390B4A0B5B0B213586E4380780E04807F9
:102A300080E058072CF0205A3C48404050400CC0E1
:102A4000203B89EB38078FEF48078FEF580724F4B6
:102A5000205633474F4F5F4FC90137FF03C0909552
:102A600081959F4F9C01442737FD4095542FB90114
:102A7000CA01089520916F083091700880919308E1
:102A800090919408281B390B253631051CF08AE0FB
:102A9000809376142C593F4F1CF486EF8093761464
:102AA0008091761418161CF48150809376148091CE
:102AB000761487FF03C08F5F80937614809176141D
:102AC000813021F08F3F11F080E00895811181E085
:102AD0000895FC01DB01452B11F083858C9381E087
:102AE00090E00895DC01FB01452B19F080811B96D5
:102AF0008C9381E090E00895FC016385772767FD62
:102B00007095872F972F0E942DDB0895FC01DB0124
:102B10004230510520F0838594858D939C9382E00B
:102B200090E00895DC01FB014230510530F08081D6
:102B300091811C969C938E931B9782E090E0089560
:102B4000FC0163857485882777FD8095982F0E9406
:102B50002DDB0895FC012385348545855685B90113
:102B6000CA010895CF93DF93FC01EB014430510576
:102B700040F083859485A585B68588839983AA834B
:102B8000BB8384E090E0DF91CF910895CF93DF93F2
:102B9000EC01FB014430510540F080819181A2811C
:102BA000B3818B879C87AD87BE8784E090E0DF91FF
:102BB000CF9108958091190990911A09893C910546
:102BC00044F09093E2078093E10786ED97E00E943E
:102BD0001A8B08958091690A90916A0A81529340F4
:102BE00024F081E080935214089580915214882338
:102BF00089F08091190990911A098739910544F05B
:102C00009093E2078093E10786ED97E00E941A8B8C
:102C10001092521408951092720787E697E00E946E
:102C20001A8B1092D5121092D6121092FD1308959D
:102C30008CE791E090930D0880930C0881E098E078
:102C40000E941A8B089580917914882329F010929C
:102C5000791484E460E005C081E08093791484E411
:102C600061E00E9448D9089585E260E00E9448D959
:102C700084E260E00E9448D983E260E00E9448D983
:102C8000089580917A148F5F80937A1481508330F5
:102C900011F410927A1480917A14813059F08130B5
:102CA00018F08230C1F40FC083E260E00E9448D97E
:102CB00085E205C085E260E00E9448D984E261E0D7
:102CC0000E9448D9089584E260E00E9448D983E2D6
:102CD00061E00E9448D908958091B3129091C31287
:102CE000882379F4992309F481E08093C31288231F
:102CF00019F085E261E002C085E260E00E9448D9F7
:102D00000895992339F481E08093C31285E261E04C
:102D10000E9448D90895E091280FF091290F85A9C4
:102D200096A98130910539F00297F9F483E261E0C8
:102D30000E9448D9089587A18823D9F090E0809116
:102D4000C412882309F491E09093C412992319F0D6
:102D500083E260E002C083E261E00E9448D9E09132
:102D6000280FF091290F17A2089583E260E00E94D6
:102D700048D908958091C512882319F0813041F413
:102D800005C00E946C160E948B1608950E94411681
:102D9000089500D000D08AEC96E0EDB7FEB792839C
:102DA000818389EA96E0948383830E94BEC70F9053
:102DB0000F900F900F9080E0089500D000D08AEC23
:102DC00096E0EDB7FEB7928381838EEF97E0948310
:102DD00083830E94BEC70F900F900F900F9080E0EA
:102DE000089500D000D08AEC96E0EDB7FEB792834C
:102DF00081838AE299E0948383830E94BEC781E045
:102E0000809357080F900F900F900F908CE498E0EC
:102E10000E941A8B64E170E080E090E00E944AD842
:102E20008AEC96E00E9435C8181619069CF7109295
:102E300057088CE498E00E941A8B80E0089500D037
:102E400000D08AEC96E0EDB7FEB79283818381E2F1
:102E50009AE0948383830E94BEC70F900F900F90D7
:102E60000F90089500D000D08AEC96E0EDB7FEB741
:102E70009283818384EA9DE0948383830E94BEC70A
:102E80000F900F900F900F9008950E94321768EEE8
:102E900073E080E090E00E944AD88EEE96E00E94B7
:102EA00035C8892B89F084E261E00E9448D98EEE12
:102EB00096E00E9463C8682F8CED96E00E94C4C81B
:102EC00084E260E00E9448D98CED96E00E9435C80B
:102ED000892B89F083E261E00E9448D98CED96E06D
:102EE0000E9463C8682F8EEE96E00E94C4C883E2F9
:102EF00060E00E9448D98AEC96E00E9435C8181616
:102F000019065CF680E008950E94321768EE73E0BF
:102F100080E090E00E944AD800D000D08AEC96E091
:102F2000EDB7FEB79283818388E895E0948383832D
:102F30000E94BEC70F900F900F900F908EEE96E0FC
:102F40000E9435C8892B49F08EEE96E00E9463C836
:102F5000682F8EEE96E00E94C4C88AEC96E00E942C
:102F600035C81816190654F780E00895EF92FF92BD
:102F70000F931F93CF93DF930E94321768EE73E095
:102F800080E090E00E944AD831E6E32E36E0F32E4E
:102F900006E516E0CAECD6E000D000D0EDB7FEB7EB
:102FA000D283C183F482E3820E94BEC780910B0169
:102FB000846080930B010F900F900F900F9068EB3F
:102FC0007BE080E090E00E944AD8CE010E9435C8A4
:102FD00018161906FCF000D000D0EDB7FEB7D2836A
:102FE000C183148303830E94BEC780910B018B7F32
:102FF00080930B010F900F900F900F9068EB7BE088
:1030000080E090E00E944AD8CE010E9435C8181690
:10301000190614F680E0CDB7DEB7E6E00C9429DEA1
:103020008DB79EB740970FB6F8949EBF0FBE8DBF69
:10303000EDB7FEB731968AEC96E0ADB7BEB7129603
:103040009C938E93119782E99EE093838283809173
:10305000091190910A11A0910B11B0910C11848368
:103060009583A683B78380910D1190910E11A09145
:103070000F11B091101180879187A287B38780913B
:10308000111190911211A0911311B0911411848714
:103090009587A687B7870E94BEC78DB79EB7409613
:1030A0000FB6F8949EBF0FBE8DBF08958DB79EB723
:1030B00040970FB6F8949EBF0FBE8DBFEDB7FEB719
:1030C00031968AEC96E0ADB7BEB712969C938E937C
:1030D000119785EB9EE093838283809115119091E7
:1030E0001611A0911711B091181184839583A683AE
:1030F000B7838091191190911A11A0911B11B09171
:103100001C1180879187A287B38780911D119091B0
:103110001E11A0911F11B091201184879587A68759
:10312000B7870E94BEC78DB79EB740960FB6F8947A
:103130009EBF0FBE8DBF08952AEC36E0882349F06C
:1031400000D000D0EDB7FEB73283218384EE9EE03D
:1031500008C000D000D0EDB7FEB73283218380EEE7
:103160009EE0948383830E94BEC78AEC96E0EDB70D
:10317000FEB79283818389ED9EE0948383830E94CE
:10318000BEC70F900F900F900F90089500D000D001
:103190008AEC96E0EDB7FEB7928381838EEF9EE0D6
:1031A000948383830E94BEC70F900F900F900F905F
:1031B00008950F931F938DB79EB708970FB6F89495
:1031C0009EBF0FBE8DBFEDB7FEB731960AEC16E07D
:1031D000ADB7BEB712961C930E9311978DE69FE084
:1031E0009383828380918608909187089583848356
:1031F0008091A0089091A108978386830E94BEC702
:10320000EDB7FEB73196ADB7BEB712961C930E93CD
:1032100011978FE59FE0938382838091DA089091E4
:10322000DB08958384838091F4089091F508978357
:1032300086830E94BEC7EDB7FEB73196ADB7BEB765
:1032400012961C930E93119781E59FE093838283DE
:1032500080912E0990912F0995838483809148094C
:1032600090914909978386830E94BEC7EDB7FEB748
:103270003196ADB7BEB712961C930E93119783E4A7
:103280009FE0938382838091820990918309958343
:10329000848380919C0990919D09978386830E94E5
:1032A000BEC7EDB7FEB73196ADB7BEB712961C9349
:1032B0000E93119785E39FE0938382838091D609D3
:1032C0009091D709958384838091F0099091F109B9
:1032D000978386830E94BEC7EDB7FEB73196ADB720
:1032E000BEB712961C930E93119787E29FE09383CB
:1032F000828380912A0A90912B0A958384838091FE
:10330000440A9091450A978386830E94BEC7EDB711
:10331000FEB73196ADB7BEB712961C930E931197B8
:1033200089E19FE09383828380917E0A90917F0A56
:10333000958384838091980A9091990A97838683D4
:103340000E94BEC78DB79EB708960FB6F8949EBF71
:103350000FBE8DBF1F910F910895CF93DF93FC0196
:103360008DB79EB744970FB6F8949EBF0FBE8DBF22
:103370002DB73EB72F5F3F4F8AEC96E0ADB7BEB793
:1033800012969C938E9311978BE79FE0E9019B83A4
:103390008A8386899789A08DB18D8C839D83AE8326
:1033A000BF8385A196A1A7A1B0A588879987AA8781
:1033B000BB8784A995A9A6A9B7A98C879D87AE8745
:1033C000BF87ED5BFF4F80819181AA2797FDA09574
:1033D000BA2FF901808B918BA28BB38B0E94BEC751
:1033E0008DB79EB744960FB6F8949EBF0FBE8DBFA3
:1033F000DF91CF91089500D000D08AEC96E0EDB730
:10340000FEB79283818389E892E1948383830E944B
:10341000BEC70F900F900F900F900895A0E0B0E0FE
:10342000E4E1FAE10C9409DE62E8A62E65E0B62E2E
:103430005CE7C52E55E0D52E00E010E04AECE42E06
:1034400046E0F42E00D000D000D0EDB7FEB73196A4
:10345000ADB7BEB71296FC92EE921197B382A282DC
:10346000158304830E94BEC7C0E0D0E08DB79EB72D
:1034700006960FB6F8949EBF0FBE8DBFCE01800F8B
:10348000911F0E948DE200D000D000D0EDB7FEB7B2
:103490003196ADB7BEB71296FC92EE921197D382D9
:1034A000C282848315820E94BEC721968DB79EB7C3
:1034B00006960FB6F8949EBF0FBE8DBFC031D105E2
:1034C000E9F6C7010E94CFD6005F1F4F90E10030A0
:1034D000190709F0B7CF80E0CDB7DEB7EAE00C946A
:1034E00025DEA0E0B0E0E7E7FAE10C9401DE809190
:1034F0004B08882309F4A3C00E94321779EB272ECA
:1035000075E0372ECAECD6E06AEF70E080E090E01C
:103510000E944AD882E59FE00E94539782E59FE08F
:1035200040E050E060E070E08A019B010E9497A2B9
:1035300082E59FE00E943499FC01408451846284BA
:10354000738484809580A680B780C080D180E2801B
:10355000F38060915C0F70915D0F80915E0F909190
:103560005F0F21EE3EE245E652E40E94B7DC20E028
:1035700030E048EC52E40E94B7DC0E94FADA613A8B
:103580002CE8720720E0820720E092072CF0605AB6
:103590007C488040904006C097FF04C06056734747
:1035A0008F4F9F4FEDB7FEB77A970FB6F894FEBFD7
:1035B0000FBEEDBF0DB71EB70F5F1F4FD283C18384
:1035C000F8013382228224E630E040E050E00E949D
:1035D000E6DDF80124833583468357838091560FB7
:1035E0009091570F918780878091580F9091590F34
:1035F0009387828780915A0F90915B0F958784877C
:10360000C686D786E08AF18A828A938AA48AB58A96
:10361000468A578A608E718E0E94BEC72DB73EB70C
:10362000265E3F4F0FB6F8943EBF0FBE2DBFCE01B2
:103630000E9435C8181619060CF066CF15C000D0C8
:1036400000D08AEC96E0EDB7FEB7928381838FEAD3
:1036500095E0948383830E94BEC70F900F900F90D4
:103660000F9080E00E949C1880E0CDB7DEB7E2E1C9
:103670000C941DDE0F931F93CF93DF938091260848
:103680008823B9F400D000D08AEC96E0ADB7BEB77D
:1036900012969C938E93119783E096E014969C93D8
:1036A0008E9313970E94BEC70F900F900F900F90AC
:1036B00030C00E94321705EF15E0CAECD6E064E690
:1036C00070E080E090E00E944AD881E892E10E9498
:1036D000E6C300D000D000D0EDB7FEB73196ADB74D
:1036E000BEB71296DC93CE93119713830283958312
:1036F00084830E94BEC7EDB7FEB736960FB6F89426
:10370000FEBF0FBEEDBFCE010E9435C818161906C8
:10371000B4F680E0DF91CF911F910F9108950F9340
:103720001F9307EA16E140912E0950912F09C80115
:1037300060E00E941A8740912E0950912F09C8011C
:1037400061E00E941A8740912E0950912F09C8010B
:1037500062E00E941A8740912E0950912F09C801FA
:1037600063E00E941A8740912E0950912F09C801E9
:1037700066E00E941A8740912E0950912F09C801D6
:1037800067E00E941A871F910F91089580912E097A
:1037900090912F099093A4128093A3129093A61254
:1037A0008093A5129093AA128093A9122091710878
:1037B000309172084BE0293B34072CF0C29690936D
:1037C000A4128093A3122854344F4CF48091A51274
:1037D0009091A612C2969093A6128093A512809102
:1037E000C5089091C608895B9B404CF08091A91256
:1037F0009091AA12C2969093AA128093A912409116
:10380000A3125091A41287EA96E160E00E941A8701
:103810004091A5125091A61287EA96E161E00E94BC
:103820001A874091A9125091AA1287EA96E163E0A3
:103830000E941A8708958091190990911A09181603
:1038400019061CF481E08093B41240912E09509126
:103850002F09E3EAF2E14193519382E1E33BF80758
:10386000D1F787EA96E160E00E941A8740912E091D
:1038700050912F0987EA96E161E00E941A874091F2
:103880002E0950912F0987EA96E163E00E941A877A
:1038900008956091FF1361504091001450910114FC
:1038A00087EA96E10E941A870895109232141092C6
:1038B000311410922514109224141092271410928F
:1038C00026140E9416D860932014709321148093BC
:1038D000221490932314089580918D1390918E1348
:1038E000892B09F45AC00E9416D820918713309171
:1038F00088134091891350918A13621B730B840BB8
:10390000950B20918B1330918C1340E050E062179F
:1039100073078407950708F440C037C00197909358
:103920008E1380938D1380918D1390918E13892B1C
:10393000A1F10E9416D86093871370938813809327
:10394000891390938A1360918613862F8450843054
:1039500088F480918D1380FF05C040918F135091A2
:10396000901304C0409191135091921387EA96E10D
:103970000E941A8780918613853079F480910B011B
:1039800094E0892780930B01089580918D13909185
:103990008E131816190614F2C6CF089585E0809389
:1039A0008613109287131092881310928913109225
:1039B0008A136091041470910514809106149091FB
:1039C00007140E942DDB20E030E04AEF53E40E9410
:1039D000B7DC0E94FFDA70938C1360938B13809195
:1039E000001490910114A0910214B0910314880F57
:1039F000991FAA1FBB1F90938E1380938D130E9453
:103A00006C1C08951F931091FF131150109386138F
:103A10001F5F812F8550843008F05BC010928713A0
:103A2000109288131092891310928A1360910814CF
:103A30007091091480910A1490910B140E942DDB4F
:103A400020E030E04AEF53E40E94B7DC0E94FFDA46
:103A500070938C1360938B138091041490910514D0
:103A6000A0910614B0910714880F991FAA1FBB1FBD
:103A700090938E1380938D13809100149091011474
:103A80009093901380938F13153079F0163018F4BB
:103A90001430E9F405C0163069F01730C1F40FC0D6
:103AA0008091E3099091E4090EC08091370A9091CA
:103AB000380A09C080918B0A90918C0A04C08091C9
:103AC000DF0A9091E00A90939213809391130E94E1
:103AD0006C1C1F9108956F927F928F929F92AF926C
:103AE000BF92CF92DF92EF92FF920F931F930E94AB
:103AF00016D820916A1330916B1340916C1350913A
:103B00006D13621B730B840B950B20916E13309118
:103B10006F1340E050E0261737074807590790F425
:103B20008091701390917113A0917213B0917313DF
:103B30008093511390935213A0935313B093541343
:103B400081E077C00E9416D87B018C0160916613DA
:103B50007091671380916813909169130E942DDB17
:103B60003B014C0160917413709175138091761331
:103B7000909177130E942DDB5B016C0180916A1399
:103B800090916B13A0916C13B0916D13E81AF90A20
:103B90000A0B1B0BC801B7010E942BDB7B018C01B8
:103BA00060916E1370916F1380E090E00E942BDBA8
:103BB0009B01AC01C801B7010E9492DA9B01AC01E4
:103BC000C601B5010E94B7DC7B018C0160917A13BC
:103BD00070E0882777FD8095982F0E942DDB9B0150
:103BE000AC01C801B7010E94B7DC9B01AC01C40164
:103BF000B3010E94AED90E94FADA613A2CE872074A
:103C000020E0820720E092072CF0605A7C48804038
:103C1000904006C097FF04C0605673478F4F9F4F78
:103C200060935113709352138093531390935413D2
:103C300080E01F910F91FF90EF90DF90CF90BF90A9
:103C4000AF909F908F907F906F9008950E9416D8AC
:103C500020919713309198134091991350919A1392
:103C6000621B730B840B950B20919313309194136B
:103C70004091951350919613261737074807590717
:103C800010F080E008951092931310929413109204
:103C900095131092961381E008958091D812813780
:103CA00061F1823718F4803771F505C0823731F041
:103CB000833749F525C00E94261E089520917E1362
:103CC00030917F1340918013509181138091931311
:103CD00090919413A0919513B091961328173907DA
:103CE0004A075B0784F41092931310929413109276
:103CF00095131092961381E008950E945B13089526
:103D00000E946B1D089580E00895EF92FF920F933B
:103D10001F931092A3048091511390915213A0917C
:103D20005313B09154138093661390936713A09329
:103D30006813B09369130E9416D860936A13709346
:103D40006B1380936C1390936D131091FF1310936A
:103D50007A130091081400937B13609104147091FE
:103D60000514809106149091071424E630E040E099
:103D700050E00E947EDD7093791360937813672B77
:103D800031F488EB9BE0909379138093781311239F
:103D900019F48FEF80937A130023B9F06091001427
:103DA00070910114809102149091031424E630E084
:103DB00040E050E00E947EDD6093741370937513B1
:103DC000809376139093771374C060910014709170
:103DD0000114809102149091031424E630E040E035
:103DE00050E00E947EDD7B018C0160937013709324
:103DF0007113809372139093731380917A132091AF
:103E000066133091671340916813509169138130A4
:103E1000C1F4D801C701821B930BA40BB50B2E155F
:103E20003F054007510724F080569347AF4FBF4FDF
:103E30008093741390937513A0937613B0937713B4
:103E400015C0E216F3060407150724F02056334781
:103E50004F4F5F4F2E193F09400B510B20937413A6
:103E600030937513409376135093771380917413A6
:103E700090917513A0917613B0917713813A2CE845
:103E8000920720E0A20720E0B2072CF0805A9C485D
:103E9000A040B04006C0B7FF04C080569347AF4F64
:103EA000BF4F8093741390937513A0937613B093C0
:103EB00077132091781330917913442737FD40957B
:103EC000542F6091741370917513809176139091B3
:103ED00077130E94E6DDCA01B90128EE33E040E025
:103EE00050E00E947EDD70936F1360936E131F91FC
:103EF0000F91FF90EF9008950E9416D8E0E0209176
:103F00004113309142134091431350914413621B6B
:103F1000730B840B950B2091451330914613409100
:103F2000471350914813261737074807590708F4D5
:103F3000E1E08E2F0895AF92BF92CF92DF92EF9281
:103F4000FF920F931F93E0909F13F090A0130091A6
:103F5000A1131091A2130E9416D820919B133091A7
:103F60009C1340919D1350919E13621B730B840B05
:103F7000950B24E130E040E050E00E94C4DDE21AFD
:103F8000F30A040B150BE092D313F092D4130093B1
:103F9000D5131093D613A090C413B090C513C0903E
:103FA000C613D090C7136091371370913813809166
:103FB000391390913A136A197B098C099D090E9463
:103FC0002DDB2DEC3CEC4CE45EE30E94B7DC7B0186
:103FD0008C0160913B1370913C13882777FD80958D
:103FE000982F0E942DDB2DEC3CEC4CE45FE30E940B
:103FF000B7DC9B01AC01C801B7010E94AED90E9499
:10400000FADA9B0170933C1360933B13A092371331
:10401000B0923813C0923913D0923A138091260887
:10402000882349F0809131139091321388971CF4C2
:1040300081E080933613121613061CF081E0809302
:10404000361380E01F910F91FF90EF90DF90CF909B
:10405000BF90AF900895CF92DF92FF920F931F937E
:10406000CF93DF930E94321700D000D00AEC16E005
:10407000ADB7BEB712961C930E93119789EC96E0DC
:1040800014969C938E9313970E94BEC70F900F9027
:104090000F900F9068EE73E080E090E00E944AD8A5
:1040A000A5ECCA2EA6E0DA2EC0E0D0E0F02E012F5B
:1040B00021C08AE29FE06C2F0E94AF8800D000D020
:1040C00000D0EDB7FEB73196ADB7BEB71196FC92F2
:1040D000119712960C93D382C282958384830E9497
:1040E000BEC72196EDB7FEB736960FB6F894FEBF61
:1040F0000FBEEDBFC930D105E4F28AEC96E00E9414
:10410000CFD664E170E080E090E00E944AD88AEC6B
:1041100096E00E9435C8181619061CF0C0E0D0E0E1
:10412000E9CF80E0DF91CF911F910F91FF90DF9059
:10413000CF900895A0E0B0E0E0EAF0E20C940BDE4E
:104140000E94321768EE73E080E090E00E944AD847
:104150008EECC82E86E0D82EBAECEB2EB6E0FB2E05
:104160006DE471E080E090E00E944AD80E948B16D6
:104170008091280F9091290F0E9457BEC091280F5F
:10418000D091290F8DA1882309F445C08DB79EB722
:1041900042970FB6F8949EBF0FBE8DBF0DB71EB7E6
:1041A0000F5F1F4FEDB7FEB7F282E182F801D382B5
:1041B000C2828A859B85AC85BD8584839583A683D1
:1041C000B7838E859F85A889B98980879187A287C3
:1041D000B3876A897B898C899D8924E630E040E039
:1041E00050E00E94E6DDF80124873587468757872F
:1041F0008CA1808B118A0E94BEC7E091280FF0919C
:10420000290F15A28DB79EB742960FB6F8949EBFA0
:104210000FBE8DBF06C08AEC96E060E072E00E949F
:10422000ECD58AEC96E00E9435C8181619060CF0F9
:1042300097CF80E0CDB7DEB7E8E00C9427DECF93D0
:10424000DF93C0E0D0E08AEC96E062E072E00E948A
:10425000ECD52196C832D105B1F78AEC96E064E03E
:1042600072E00E94E6D6DF91CF910895CF93DF935D
:10427000EC0107C021978AEC96E064E072E00E94AE
:10428000E6D61C161D06B4F3DF91CF91089500D039
:1042900000D08AEC96E0EDB7FEB79283818389EE79
:1042A0009FE0948383830E94BEC70F900F900F906E
:1042B0000F900E941F210E9410180E94561882E041
:1042C00090E00E94362108950F931F9300D000D0F4
:1042D0000AEC16E0ADB7BEB712961C930E93119779
:1042E00081E390E114969C938E9313970E94BEC72E
:1042F0000F900F900F900F900E941F21EDB7FEB707
:104300003E970FB6F894FEBF0FBEEDBF3196ADB726
:10431000BEB712961C930E9311978EEE9FE0938377
:1043200082838091A2079091A307958384838091D3
:10433000AF079091B007978386838091E1079091B2
:10434000E207918780878091BC07992787FD909528
:10435000938782878091D4079091D507958784872A
:104360000E94BEC7EDB7FEB73E960FB6F894FEBFEB
:104370000FBEEDBF82E090E00E9436211F910F91A9
:1043800008950F931F9300D000D00AEC16E0ADB74C
:10439000BEB712961C930E93119789E690E114967E
:1043A0009C938E9313970E94BEC70F900F900F900F
:1043B0000F900E941F21EDB7FEB73E970FB6F894FD
:1043C000FEBF0FBEEDBF3196ADB7BEB712961C93C0
:1043D0000E9311978BE390E19383828380913E0744
:1043E00090913F07A0914007B09141078483958346
:1043F000A683B78380914D0790914E079187808760
:104400008091FF0790910008AA2797FDA095BA2FE9
:1044100082879387A487B5870E94BEC7EDB7FEB792
:104420003E960FB6F894FEBF0FBEEDBF82E090E05F
:104430000E9436211F910F9108950F931F9300D072
:1044400000D00AEC16E0EDB7FEB71283018380EED0
:1044500090E1948383830E94BEC70F900F900F90CA
:104460000F900E941F2100D000D0EDB7FEB712833D
:10447000018383ED90E1948383830E94BEC70F90F4
:104480000F900F900F908CEA9BE00E94AD1900D026
:1044900000D0EDB7FEB7128301838BEC90E19483DB
:1044A00083830E94BEC70F900F900F900F908DEFE7
:1044B0009BE00E94AD1900D000D0EDB7FEB712838B
:1044C000018385EC90E1948383830E94BEC70F90A3
:1044D0000F900F900F908EE49CE00E94AD1900D0D9
:1044E00000D0EDB7FEB71283018382EB90E1948395
:1044F00083830E94BEC70F900F900F900F908FE99B
:104500009CE00E94AD1900D000D0EDB7FEB7128339
:1045100001838AEA90E1948383830E94BEC70F904F
:104520000F900F900F9080EF9CE00E94AD1900D08B
:1045300000D0EDB7FEB71283018384EA90E1948343
:1045400083830E94BEC70F900F900F900F9081E45D
:104550009DE00E94AD1900D000D0EDB7FEB71283E8
:10456000018389E990E1948383830E94BEC70F9001
:104570000F900F900F9082E99DE00E94AD1900D03E
:1045800000D0EDB7FEB71283018382E990E19483F6
:1045900083830E94BEC70F900F900F900F9083EE01
:1045A0009DE00E94AD1900D000D0EDB7FEB7128398
:1045B000018382E890E1948383830E94BEC70F90B9
:1045C0000F900F900F9085E89EE00E94AD1900D0EB
:1045D00000D0EDB7FEB71283018381E790E19483A9
:1045E00083830E94BEC70F900F900F900F9086EDAF
:1045F0009EE00E94AD1982E090E00E9436211F915A
:104600000F91089500D000D08AEC96E0EDB7FEB788
:104610009283818387EE90E1948383830E94BEC757
:104620000F900F900F900F900E941F210E94D91899
:1046300082E090E00E9436210895CF93DF9300D06E
:1046400000D0CAECD6E0EDB7FEB7D283C18381E1DA
:1046500091E1948383830E94BEC70F900F900F90C7
:104660000F900E941F2100D000D0EDB7FEB7D2837B
:10467000C18386E091E1948383830E94BEC78091C9
:1046800063080F900F900F900F90813049F400D085
:1046900000D0EDB7FEB7D283C1838EEF90E115C095
:1046A000882349F400D000D0EDB7FEB7D283C18390
:1046B00086EF90E10AC0823081F400D000D0EDB7DF
:1046C000FEB7D283C1838EEE90E1948383830E94F0
:1046D000BEC70F900F900F900F9082E090E00E9465
:1046E0003621DF91CF910895CF93DF93FB01C285EF
:1046F000D385CE016AE879E00E94ADDF892B11F401
:1047000081E019C0CE0168E879E00E94ADDF892B15
:1047100039F0CE0166E879E00E94ADDF892B19F40B
:10472000109263080AC0CE0164E879E00E94ADDF10
:10473000892B41F482E08093630888E598E00E9429
:104740001A8B12C000D000D08AEC96E0EDB7FEB70D
:104750009283818382E799E0948383830E94BEC71A
:104760000F900F900F900F900E941D2380E0DF911B
:10477000CF91089500D000D000D0EDB7FEB73196AC
:104780008AEC96E0ADB7BEB712969C938E931197C4
:1047900088E191E19383828380910B0790910C07CC
:1047A000958384830E94BEC78DB79EB706960FB6C9
:1047B000F8949EBF0FBE8DBF0E941F2182E090E043
:1047C0000E943621089500D000D08AEC96E0EDB723
:1047D000FEB7928381838EE291E1948383830E946A
:1047E000BEC70F900F900F900F900E941F218091D5
:1047F0004F140E949C1882E090E00E943621089598
:1048000000D000D08AEC96E0EDB7FEB792838183AA
:1048100084E991E1948383830E94BEC70F900F9037
:104820000F900F900E941F2180913208882311F46D
:104830000E949C1880913208813091F400D000D001
:104840008AEC96E0EDB7FEB7928381838CE891E124
:10485000948383830E94BEC70F900F900F900F9098
:1048600080913208823091F400D000D08AEC96E03A
:10487000EDB7FEB79283818384E891E194838383CB
:104880000E94BEC70F900F900F900F90809132083A
:10489000833091F400D000D08AEC96E0EDB7FEB7FB
:1048A0009283818389E791E1948383830E94BEC7C9
:1048B0000F900F900F900F9080913208843091F4F8
:1048C00000D000D08AEC96E0EDB7FEB792838183EA
:1048D0008BE691E1948383830E94BEC70F900F9073
:1048E0000F900F9082E090E00E9436210895CF93C0
:1048F000DF93FB01EB012A968285938561ED78E0D9
:104900000E94ADDF892B19F4109232080FC02A8162
:104910003B814C815D81DA01C9010197A109B1098F
:104920000497A105B10538F42093320887E298E096
:104930000E941A8B12C000D000D08AEC96E0EDB72E
:10494000FEB7928381838EEB98E0948383830E94E9
:10495000BEC70F900F900F900F900E94002480E030
:10496000DF91CF910895FF920F931F93F62E00D001
:1049700000D000D0EDB7FEB731960AEC16E0ADB727
:10498000BEB712961C930E93119720E13FE033833C
:104990002283848315820E94BEC78DB79EB7069678
:1049A0000FB6F8949EBF0FBE8DBFEF2DF0E0EE0F57
:1049B000FF1FE759FB4F60817181C8010E94E6D655
:1049C0001F910F91FF900895CF93DF9300D000D0F7
:1049D0008AEC96E0EDB7FEB79283818381EA9FE08F
:1049E000948383830E94BEC70F900F900F900F9007
:1049F0000E941F21C0E0D0E0FE01E251F84F8C2F51
:104A000060810E94B3242196C630D105A9F782E0C7
:104A100090E00E943621DF91CF9108958AEC96E0D4
:104A200065E072E00E94E6D6089581EE90E10E9472
:104A300069C30E9456180E94472180E0089500D063
:104A400000D08AEC96E0EDB7FEB79283818389EEC1
:104A500099E0948383830E94BEC70F900F900F90BC
:104A60000F908AEC96E00E9463C8FFEF8F3F9F078C
:104A7000C1F38937910529F08935910511F08FEF40
:104A800008950E94E08B00D000D08AEC96E0EDB74C
:104A9000FEB79283818384EC99E0948383830E94A0
:104AA000BEC70F900F900F900F9068EE73E080E0FC
:104AB00090E00E944AD8FFCFEF92FF920F931F938E
:104AC000CF93DF937B018230A1F000D000D08AEC3D
:104AD00096E0EDB7FEB7928381838BEC9AE09483E6
:104AE00083830E94BEC78FEF0F900F900F900F909F
:104AF00089C0FB0102851385C80167EC7AE00E943A
:104B00009ADF892B19F4CFEFDFE75BC0C80169EBAF
:104B10007AE00E949ADFC0E0D0E0892B11F4C1E076
:104B2000D0E0C8016CEA7AE00E949ADF892B09F490
:104B3000C260C80168EA7AE00E949ADF892B09F412
:104B4000C460C80165EA7AE00E949ADF892B09F403
:104B5000C860C80160EA7AE00E949ADF892B09F4F4
:104B6000C061C8016BE97AE00E949ADF892B09F4E1
:104B7000C062C80166E97AE00E949ADF892B09F4D5
:104B8000C064C80162E97AE00E949ADF892B09F4C7
:104B9000C068C8016EE87AE00E949ADF892B09F4A8
:104BA000D160C80166E87AE00E949ADF892B09F497
:104BB000D260C8016FE77AE00E949ADF892B09F47E
:104BC000D460F7018081918168E77AE00E949ADFE2
:104BD000892B39F480910C0890910D08C82BD92BA2
:104BE00008C0C095D09580910C0890910D08C823FD
:104BF000D923D0930D08C0930C0881E098E00E945F
:104C00001A8B80E0CDB7DEB7E6E00C9429DE0F9377
:104C10001F930DEA17E1C80163EA0E94CCC5C801E1
:104C200065E90E94CCC5C8016AE00E94CCC5C801F4
:104C30006AEB0E94CCC51F910F910895CF93DF932B
:104C400000D000D08AEC96E0EDB7FEB79283818366
:104C50008BEE9AE0948383830E94BEC7C1E0D0E0CC
:104C60000F900F900F900F908DEA97E1BE010E9478
:104C700022C52196F0E1C030DF07B1F78DEA97E158
:104C800061E070E00E9416C58DEA97E163EA0E9438
:104C9000CCC58DEA97E165E90E94CCC58DEA97E124
:104CA00060EF0E94CCC58DEA97E160E00E94CCC520
:104CB0008DEA97E16AEB0E94CCC58DEA97E10E94EC
:104CC00044C600D000D08AEC96E0EDB7FEB79283E0
:104CD00081838DED9AE0948383830E94BEC70F90F9
:104CE0000F900F900F9080E0DF91CF910895EF9299
:104CF000FF920F931F9300D000D00AEC16E0ADB7DF
:104D0000BEB712961C930E9311978EE992E11496FA
:104D10009C938E9313970E94BEC70F900F900F9095
:104D20000F903DEAE32E37E1F32EC7010E94BCC687
:104D3000E82FF0E0EE0FFF1FE759FB4F6081718114
:104D4000C8010E94ECD5C7010E942DC700D000D039
:104D500000D0EDB7FEB73196ADB7BEB712961C9333
:104D60000E93119728E932E133832283958384835C
:104D70000E94BEC7EDB7FEB736960FB6F894FEBFD9
:104D80000FBEEDBF1F910F91FF90EF900895CF924E
:104D9000DF92EF92FF920F931F930DEA17E1C80184
:104DA0000E942DC76C01C8010E942DC77C01C8015B
:104DB0000E942DC72DB73EB72A5030400FB6F89449
:104DC0003EBF0FBE2DBFEDB7FEB731962AEC36E0E1
:104DD000ADB7BEB712963C932E93119723EA32E1FA
:104DE00033832283D582C482F782E68291878087CB
:104DF0000E94BEC72DB73EB7265F3F4F0FB6F8944F
:104E00003EBF0FBE2DBF1F910F91FF90EF90DF901F
:104E1000CF900895ABE0B0E0E0E1F7E20C9401DE62
:104E20000DEA17E1C8010E942DC799878887C8013C
:104E30000E942DC79F838E83C8010E94BCC68D83AC
:104E4000C8010E942DC79C838B83C8010E942DC777
:104E50009A838983C8010E942DC77C01C8010E94E2
:104E60002DC76C01C8010E942DC79B878A87C80186
:104E70000E942DC71C01C8010E942DC72C01C8012A
:104E80000E942DC73C01C8010E942DC74C01C801DA
:104E90000E942DC75C018DB79EB780970FB6F8941E
:104EA0009EBF0FBE8DBF0DB71EB70F5F1F4F8AECA1
:104EB00096E0EDB7FEB79283818380EE92E1F80130
:104EC0009383828388859985958384838E819F814E
:104ED000978386839D81908711868B819C819387A0
:104EE000828789819A8195878487F786E686EE2472
:104EF000D7FCE094FE2CC701B6010E942DDBF8011F
:104F0000608B718B828B938B8A859B85958B848B31
:104F1000378A268A518E408E738E628E958E848E4D
:104F2000B78EA68E0E94BEC7EDB7FEB7B0960FB67D
:104F3000F894FEBF0FBEEDBF2B96E2E10C941DDE90
:104F40003F924F925F926F927F928F929F92AF9219
:104F5000BF92CF92DF92EF92FF920F931F930DEAD1
:104F600017E1C8010E942DC72C01C8010E94BCC6D0
:104F7000382EC8010E942DC73C01C8010E942DC7D0
:104F80004C01C8010E942DC75C01C8010E942DC7B9
:104F90006C01C8010E942DC77C01C8010E942DC769
:104FA0002DB73EB7245130400FB6F8943EBF0FBE28
:104FB0002DBFEDB7FEB731962AEC36E0ADB7BEB7E0
:104FC00012963C932E9311972DE133E13383228384
:104FD00055824482368217827186608693868286E5
:104FE000B586A486D786C686F18AE08A938B828BA3
:104FF0000E94BEC72DB73EB72C5E3F4F0FB6F89448
:105000003EBF0FBE2DBF1F910F91FF90EF90DF901D
:10501000CF90BF90AF909F908F907F906F905F9058
:105020004F903F900895AF92BF92CF92DF92EF9250
:10503000FF920F931F930DEA17E1C8010E942DC73D
:105040005C01C8010E942DC76C01C8010E942DC7D8
:105050007C01C8010E942DC72DB73EB72C503040AF
:105060000FB6F8943EBF0FBE2DBFEDB7FEB7319619
:105070002AEC36E0ADB7BEB712963C932E9311974B
:1050800023E433E133832283B582A482D782C682AC
:10509000F186E086938782870E94BEC72DB73EB710
:1050A000245F3F4F0FB6F8943EBF0FBE2DBF1F9138
:1050B0000F91FF90EF90DF90CF90BF90AF90089549
:1050C0001F938DEA97E161E070E00E9443C710E012
:1050D0008DEA97E10E94BCC6113051F0113018F0F2
:1050E000123099F408C010E0833A79F411E00DC051
:1050F000853951F407C0803F39F48DEA97E10E9469
:10510000BCC60AC012E001C010E08DEA97E10E941F
:1051100081C40197E9F280E01F910895CF92DF9258
:10512000EF92FF920F937C016B01BA01A901202F2E
:105130000E94868D88E695E0F70191838083D4866E
:10514000C38680914B1790914C170D9690934C17F6
:1051500080934B170F91FF90EF90DF90CF900895C1
:10516000EF92FF920F931F937C01162FBA01A901B2
:10517000202F0E94868D86E795E0F701918380833A
:10518000138780914B1790914C170C9690934C1766
:1051900080934B171F910F91FF90EF9008950F93FD
:1051A0001F938C0124600E94868D89ED95E0F801A3
:1051B0009183808380914B1790914C170B9690931D
:1051C0004C1780934B171F910F910895FC018CE4AD
:1051D00095E091838083CF010E94D38C0895FC01D8
:1051E0008AE595E091838083CF010E94D38C089556
:1051F000FC0188E695E091838083CF010E94D38CE7
:105200000895FC0186E795E091838083CF010E9499
:10521000D38C0895FC018CE495E091838083CF01C9
:105220000E94D38C0895FC0182E995E091838083EC
:10523000CF010E94D38C08950F931F938C01805748
:105240009F4F0E94F828C8018D579F4F0E94F82851
:10525000C8018A589F4F0E94F828C80187599F4F5C
:105260000E94F828C801845A9F4F0E94F828C8015C
:10527000815B9F4F0E94F828C8018E5B9F4F0E9460
:10528000F828C801C5960E94F82889ED95E0F80134
:1052900093A782A7C8018A960E94D38C1F910F9171
:1052A00008950F931F938C01C8960E94F828C80197
:1052B00089960E940A29C8014A960E940A29C801B3
:1052C0000B960E940A2989ED95E0F801918380836D
:1052D000C8010E94D38C1F910F9108950F931F93C3
:1052E0008C018D5B9F4F0E940129C801C1960E94CD
:1052F000F828C80184960E94F828C80147960E94A1
:10530000F82889ED95E0F80191838083C8010E9417
:10531000D38C1F910F910895FC0180EA95E0918351
:105320008083CF010E94D38C0895FC018EEA95E022
:1053300091838083CF010E94D38C08950F931F9394
:105340008C018CE495E0F80191838083C8010E9470
:10535000D38CC8010E9452911F910F9108950F9311
:105360001F938C018AE595E0F80191838083C80141
:105370000E94D38CC8010E9452911F910F910895F1
:105380000F931F938C0188E695E0F8019183808349
:10539000C8010E94D38CC8010E9452911F910F91A5
:1053A00008950F931F938C0186E795E0F801918390
:1053B0008083C8010E94D38CC8010E9452911F9122
:1053C0000F9108950F931F938C018CE495E0F801E1
:1053D00091838083C8010E94D38CC8010E9452919E
:1053E0001F910F9108950F931F938C0182E995E00F
:1053F000F80191838083C8010E94D38CC8010E9468
:1054000052911F910F9108950F931F938C0180EA81
:1054100095E0F80191838083C8010E94D38CC80174
:105420000E9452911F910F9108950F931F938C0129
:105430008EEA95E0F80191838083C8010E94D38CA5
:10544000C8010E9452911F910F9108954630510555
:1054500040F0DC011B96FB0186E001900D9281502B
:10546000E1F786E090E00895FC014630510538F000
:10547000DB013B9686E001900D928150E1F786E0DA
:1054800090E008954831510540F0DC011B96FB0186
:1054900088E101900D928150E1F788E190E0089554
:1054A000FC014831510538F0DB013B9688E1019061
:1054B0000D928150E1F788E190E008954C3051055C
:1054C00040F0DC011B96FB018CE001900D928150B5
:1054D000E1F78CE090E00895FC014C30510538F084
:1054E000DB013B968CE001900D928150E1F78CE05E
:1054F00090E008954432510540F0DC011B96FB0119
:1055000084E201900D928150E1F784E290E00895E9
:10551000FC014432510538F0DB013B9684E20190F6
:105520000D928150E1F784E290E00895A6E0B1E0A9
:10553000ECE9FAE20C9401DE682E292E59016A0189
:1055400048015E2C7F2C3090D9044090DA0486E12B
:105550008D83DE011696FB018FE001900D92815044
:10556000E1F746E0E42EF12CEC0EFD1EC601B5017C
:105570004FE097010E945A0F082F10E0E82FE15FDB
:10558000F0E0D701AE0FBF1F9C92DE011796EA0F25
:10559000FB1F80828F5E90E0E80EF91EF70170829B
:1055A000A80FB91F5C920D5E1F4F7E010894E11C8D
:1055B000F11CC701632D442D262D0E94340E862D2B
:1055C000922DB7010E945D0FCA5FDE4FE2E10C949D
:1055D0001DDEA6E0B1E0EFEEFAE20C940BDED82E71
:1055E000C92E1091D9047091DA048EEF8D836E83E9
:1055F000DE011796FA0182E301900D928150E1F7E6
:105600007E010894E11CF11CC701612F472F2D2D4D
:1056100003E310E00E94340E8D2D9C2DB7010E94F3
:105620005D0FCA5FDE4FE8E00C9427DEA3E3B0E035
:10563000ECE1FBE20C9411DEDE0112969E012C5C83
:105640003F4FFA014F5F5F4FE491ED93A217B3070D
:10565000C1F7FC0182859385AE014E5F5F4F0E94CA
:10566000E92AE396E2E00C942DDE80918A079927DF
:1056700087FD9095A92FB92F20917E1330917F132C
:10568000409180135091811382179307A407B507A7
:1056900014F480E0089584EE91E161E04CE752E17A
:1056A0000E94162B81E00895A0E0B0E0EAE5FBE25D
:1056B0000C9409DE742F052F5901C82EDD24C60174
:1056C000880F991FDC0143E0AA0FBB1F4A95E1F741
:1056D000A81BB90BA558BB4E15968D919C9116979A
:1056E0000197099758F11C9211961C921197F60197
:1056F00033E0EE0FFF1F3A95E1F7EC19FD09EE0FCD
:10570000FF1FE358FB4E108213961C9213971496BA
:105710001C92149716961C921E92159717961C921F
:1057200017971D961C921E921C971B961C921E92F8
:105730001A9718961C92189719961C9286E091E079
:10574000C89EA001C99E500DD89E500D11244956E7
:105750005B4EF60193E0EE0FFF1F9A95E1F7EC190F
:10576000FD09EE0FFF1FE358FB4E1082C601880FA4
:10577000991FFC01A3E0EE0FFF1FAA95E1F7E81BBC
:10578000F90BE558FB4E0580F681E02DEA30F10576
:1057900008F0C0C1EE58FF4FEC010C9438DE6535BF
:1057A00009F0B8C1C601880F991FFC0123E0EE0F74
:1057B000FF1F2A95E1F7E81BF90BE558FB4E82E045
:1057C00090E0968385832FEF3FEF86E091E0C89EBF
:1057D000F001C99EF00DD89EF00D1124E956FB4E44
:1057E000EC5FFE4F2193308395C186E091E0C89E27
:1057F000F001C99EF00DD89EF00D1124E956FB4E24
:1058000060838E01B3E0000F111FBA95E1F70C1B06
:105810001D0B05581B4ED80117961C92CA010E94F9
:10582000A70E84E090E0F8011BC086E091E0C89EDE
:10583000F001C99EF00DD89EF00D1124E956FB4EE3
:105840006183CA010E94A70EFE01A3E0EE0FFF1FB5
:10585000AA95E1F7EC1BFD0BE558FB4E83E090E0C9
:105860009683858357C183E890E0C89EF001C99E66
:10587000F00DD89EF00D1124EE0FFF1FE756FB4EE2
:105880006083CA010E94A70EFE0133E0EE0FFF1FE6
:105890003A95E1F7EC1BFD0BE558FB4E85E090E0F7
:1058A000DFCF86E091E0C89EF001C99EF00DD89E42
:1058B000F00D1124E956FB4E6383CA010E94A70E26
:1058C000FE0123E0EE0FFF1F2A95E1F7EC1BFD0B15
:1058D000E558FB4E86E090E0C3CF86E091E0C89E9D
:1058E0008001C99E100DD89E100D112409561B4E23
:1058F000D80114966C93CA010E94A70EF80180810A
:10590000E601CC0FDD1F882359F4FE01B3E0EE0F52
:10591000FF1FBA95E1F7EC1BFD0BE558FB4E39C0B4
:10592000FE01A3E0EE0FFF1FAA95E1F7EC1BFD0BB4
:10593000E558FB4E87E090E093CF7C01F3E0EE0C5E
:10594000FF1CFA95E1F7E81AF90A8BE794E1E80EF3
:10595000F91ED70117962C91179786E091E0C89E03
:105960008001C99E100DD89E100D112409561B4EA2
:10597000F801E20FF11D65832F5F17962C93CA0182
:105980000E94A70EF7019781D8018C91981709F012
:10599000C1C088E090E064CF86E091E0C89E9001AD
:1059A000C99E300DD89E300D112429563B4EA901B9
:1059B0004C5F5E4FFA018081E601CC0FDD1F681756
:1059C000B1F1DE0173E0AA0FBB1F7A95E1F7AC1BC2
:1059D000BD0BA558BB4E14968C9114978F5F1496EF
:1059E0008C931497F60193E0EE0FFF1F9A95E1F761
:1059F000EC19FD09EE0FFF1FE358FB4E108281E00A
:105A000090E016969C938E931597653509F082C0A9
:105A100082E090E016969C938E9315978FEF9FEF00
:105A2000DA018C93F901EB5FFE4F908373C0FE01A6
:105A3000B3E0EE0FFF1FBA95E1F7EC1BFD0BE55845
:105A4000FB4E89E090E00CCF86E091E0C89E90018B
:105A5000C99E300DD89E300D112429563B4EA5E02D
:105A6000EA2EA1E0FA2EE20EF31EF7018081E60194
:105A7000CC0FDD1FD601E3E0AA0FBB1FEA95E1F7CB
:105A8000681739F1FE0193E0EE0FFF1F9A95E1F7D9
:105A9000EC1BFD0BE558FB4E84818F5F8483AC19B2
:105AA000BD09AA0FBB1FA358BB4E1C9281E090E01A
:105AB00096838583653571F582E090E096838583D2
:105AC0008FEF9FEFF901EC5FFE4F8083D7019C932E
:105AD00021C0AC19BD09AA0FBB1FA358BB4E81E062
