:100000000C94F30B0C941D0C0C941D0C0C941D0CF7
:100010000C941D0C0C941D0C0C941D0C0C941D0CBC
:100020000C941D0C0C941D0C0C941D0C0C941D0CAC
:100030000C941D0C0C941D0C0C941D0C0C94A0889D
:100040000C941D0C0C941D0C0C941D0C0C941D0C8C
:100050000C941D0C0C941D0C0C941D0C0C9418D6B7
:100060000C941D0C0C940A100C944A100C941D0C4A
:100070000C941D0C0C941D0C0C941D0C0C941D0C5C
:100080000C941D0C0C941D0C0C941D0C0C941D0C4C
:100090000C949C100C94DC100C941D0C0C947BD2D2
:1000A0000C941D0C0C9431870C941D0C0C941D0C9D
:1000B0000C941D0C0C941D0C0C941D0C0C941D0C1C
:1000C0000C941D0C0C941D0C0C941D0C0C941D0C0C
:1000D0000C941D0C0C941D0C0C942E110C946E1190
:1000E0000C941D0CC02BC02BE62B242C062C422C70
:1000F0005E2C8E2CBD2C152D815D9F5D845D875DF2
:100100008A5D8D5D905D935D965D995D9C5DCA7124
:10011000F071FC710D721672017A1F72017A017A08
:10012000017A2B7234723D725472E878E878E8787C
:100130006072E8785672E878E87863726B7265727C
:100140006872E878E878E878E878E878E878E87835
:10015000E878E8786B72E8786D72A887AD87B28727
:10016000B787BC87C187C687CB87D087D587DA8713
:10017000C3B9BEB9C7B9CBB9D8B9F0B917BA27BA9C
:1001800064BB5FBB68BB71BB96BBA1BBB9BBD9BB32
:10019000E0BB55D758D74BD74FD791D75CD760D74F
:1001A00066D76AD76ED774D778D77CD782D786D7E9
:1001B0008CD7036EDB363D9A9999993DABAAAA2A52
:1001C0003E000000803F084AD73B3BCE016E84BC16
:1001D000BFFDC12F3D6C74319ABD56833DDA3D00A1
:1001E000C77F11BED9E4BB4C3E916BAAAABE0000EA
:1001F00000803F072C7AA5BA6CC590DA3B9365FC6A
:100200008BBC53F810FD3C5692834DBD879D3AB68A
:100210003DCBC9BF5BBE73DA0FC93F05A84CCDB259
:10022000D44EB93836A9020C50B9918688083CA63C
:10023000AAAA2ABE000000803F08000000BE922447
:1002400049123EABAAAA2ABECDCCCC4C3E0000003F
:1002500080BEABAAAAAA3E00000000BF000000803A
:100260003F0000000000084178D3BB4387D1133D15
:10027000190E3CC3BD4282AD2B3E68EC8276BED9DE
:100280008FE1A93E4C80EFFFBE01C4FF7F3F00001D
:100290000000004C6F670064756D70000000000086
:1002A0000000000000B25D6572617365000000002F
:1002B00000000000000F26656E61626C65000000A2
:1002C00000000000004D2564697361626C650000E8
:1002D00000000000004D2568656C70000000000003
:1002E00000000000002417706C616E6E657200677C
:1002F000637300000000000000000000004C7C73ED
:10030000657475700065726173650000000000001F
:1003100000000093397265736574000000000000EE
:100320000000001025726164696F00000000000089
:100330000000000B446672616D6500000000000063
:100340000000006E236D6F746F7273000000000078
:10035000000000F24365736300000000000000002D
:10036000000000F6166C6576656C00000000000069
:1003700000000006256D6F6465730000000000003A
:100380000000009A43626174746572790000000095
:100390000000006824736F6E6172000000000000AE
:1003A0000000002939636F6D7061737300000000F5
:1003B000000000FB3B6F666673657473000000000D
:1003C000000000913A6465636C696E6174696F6ED8
:1003D000000000573A73686F7700000000000000CB
:1003E0000000002F3A414320322E302E3235204279
:1003F000657461006C6F677300000000000000000E
:10040000000029387365747570000000000000005A
:100410000000C33774657374000000000000000022
:100420000000AC3768656C70000000000000000040
:100430000000E216706C616E6E65720000000000D4
:1004400000001138746573740070776D000000004F
:10045000000000000000002843726164696F000022
:1004600000000000000000BC426661696C736166B8
:1004700065000000000000BC4167707300000000D0
:10048000000000000000009F206164630000000085
:10049000000000000000003020696D7500000000C1
:1004A00000000000000000E18062617474657279F0
:1004B00000000000000000CE1674756E650000009C
:1004C000000000000000009041747269000000000C
:1004D000000000000000002D4163757272656E74AB
:1004E00000000000000000A44072656C617900000B
:1004F00000000000000000BB17776179706F696E23
:10050000747300000000001B52616C7469747564A0
:10051000650000000000000040736F6E6172000013
:10052000000000000000003F1B636F6D706173737B
:1005300000000000000000761A7862656500000087
:10054000000000000000008917656564756D70008B
:1005500000000000000000131A72617767707300DA
:10056000000000000000004A176D697373696F6E28
:1005700000000000000000B55277700020253032E6
:100580007800253034783A00426567696E20584219
:10059000656520582D4354552052616E6765206172
:1005A0006E64205253534920546573743A0A0043D1
:1005B0006F6D706173733A200048656164696E679E
:1005C0003A20256C642C2058595A3A2025642C2056
:1005D00025642C2025642C0958595A6F66663A20E8
:1005E00025362E32662C2025362E32662C202536D6
:1005F0002E32660A00536F6E61723A2025642063C2
:100600006D0A00536F6E61722064697361626C657C
:10061000640A004261726F3A202564636D0A0048E3
:100620006974207261646975733A2025640A002533
:100630006420776179706F696E74730A006F662049
:1006400025646D0A000A00486F6C6420616C74694F
:1006500074756465200052656C6179206F66660A66
:100660000052656C6179206F6E0A00563A2025347D
:100670002E34662C20413A2025342E34662C206DF1
:1006800041683A2025342E34660A00696E7075740C
:100690003A202564096F757470757425640A0064C6
:1006A000697361626C65640A004E6F7420656E61E7
:1006B000626C65640A00256C642C20256C642C2017
:1006C000256C640A0025642C004144430A004C61F7
:1006D000743A20256C642C204C6F6E20256C642CA1
:1006E00020416C743A20256C646D2C202373617456
:1006F000733A2025640A004C4F532063617573657B
:1007000064206E6F206368616E676520696E2041AA
:10071000434D2E0A005448524F54544C45204641F4
:10072000494C534146452041435449564154454460
:100730003A2025642C2000434F4E54524F4C204DFC
:100740004F4445204348414E4745443A20005448D1
:10075000524F54544C45204348414E474544202570
:1007600064200A00556E706C756720626174746550
:1007700072792C207468726F74746C6520696E20B5
:100780006E65757472616C2C207475726E206F6664
:100790006620726164696F2E0A00494E2020313A4A
:1007A00020256409323A20256409333A202564095A
:1007B000343A20256409353A20256409363A202543
:1007C0006409373A2025640A00494E3A20313A201C
:1007D000256409323A20256409333A202564093416
:1007E0003A20256409353A20256409363A202564E3
:1007F00009373A20256409383A2025640A00436FF6
:100800006D6D616E64733A0A20206C6F67730A2005
:100810002073657475700A2020746573740A202033
:10082000706C616E6E65720A0A4D6F766520746831
:100830006520736C696465207377697463682061EF
:100840006E6420726573657420746F20464C592E57
:100850000A0A0048656164696E673A2025752C2094
:1008600009202825642C2025642C202564292C208F
:100870002825342E34662C2025342E34662C202551
:10088000342E3466290A0063000A4F7074696F6E53
:10089000733A5B6F6E2C6F66665D0A006F6666006A
:1008A0006F6E000A4F7074696F6E733A5B6F6E2CD7
:1008B000206F66665D0A006F6666006F6E000A4F05
:1008C0007074696F6E733A206F66662C20312D3418
:1008D000006F6666000A4D6F766520524320746F84
:1008E00067676C652073776974636820746F20652F
:1008F00061636820706F736974696F6E20746F2014
:10090000656469742C206D6F76652061696C657211
:100910006F6E20737469636B20746F2073656C65F0
:100920006374206D6F6465732E000A556E706C756C
:10093000672C207468656E20706C75672D696E2059
:10094000626174746572793B2043616C69627261A3
:10095000746520455343732E0A20507265737320CB
:10096000456E74657220746F2063616E63656C2ED2
:100970000A000A4F7074696F6E733A5B782C2B5DB6
:100980000A002B00700078000A4D6F766520616CBC
:100990006C20636F6E74726F6C7320746F2065616E
:1009A00063682065787472656D652E2048697420CF
:1009B000456E74657220746F20736176653A20000D
:1009C0000A464143544F52592052455345542063DF
:1009D0006F6D706C657465202D207265626F6F7429
:1009E0002041504D000A275927202B20456E746561
:1009F0007220746F20666163746F72792072657300
:100A000065742C20616E79206F74686572206B6547
:100A10007920746F2061626F72743A0A000A436F22
:100A20006D6D616E64733A0A202064756D70203CB0
:100A30006E3E202065726173652028616C6C206CAD
:100A40006F6773290A2020656E61626C65203C6EB9
:100A5000616D653E207C20616C6C0A2020646973A6
:100A600061626C65203C6E616D653E207C20616C2E
:100A70006C0A0A00656E61626C65004D4F544F52FE
:100A8000530043555252454E5400434D4400524189
:100A900057004D4F4445004E54554E004354554E5B
:100AA00000504D004750530041545449545544455B
:100AB0005F4D45440041545449545544455F4641B7
:100AC000535400616C6C006D697373696E67206CC0
:100AD0006F6720747970650A000A4C6F6720657231
:100AE000617365642E0A000A45726173696E67203E
:100AF0006C6F672E2E2E0A00626164206C6F672077
:100B0000232025640A005448525F534F4E5F00541F
:100B100048525F4241525F004E41565F57505F005E
:100B20004E41565F4C4F4E5F004E41565F4C415414
:100B30005F005354425F5941575F005354425F5026
:100B400049545F005354425F524C4C5F0041435242
:100B50005F5941575F004143525F5049545F004124
:100B600043525F524C4C5F005243385F0052433750
:100B70005F005243365F005243355F005243345F9B
:100B8000005243335F005243325F005243315F00F3
:100B90004652414D4500455343004D41475F454E48
:100BA00041424C4500424154545F43415041434906
:100BB000545900424154545F4D4F4E49544F5200D6
:100BC000534F4E41525F454E41424C4500414C54BB
:100BD0005F484F4C445F52544C004C4F475F424972
:100BE000544D41534B0050495443485F4D415800C8
:100BF000464C544D4F4445005452494D5F54485261
:100C00004F54544C45005448525F46535F56414C34
:100C10005545005448525F46535F414354494F4E37
:100C2000005448525F4641494C53414645005448A0
:100C3000525F4D4158005448525F4D494E004C4F51
:100C4000495445525F5241444955530057505F52F1
:100C500041444955530057505F4D5553545F494ED9
:100C60004445580057505F494E4445580057505F1F
:100C7000544F54414C0057505F4D4F444500585419
:100C80005241434B5F414E474C45005854524B5FD5
:100C90004741494E0053595349445F4D59474353C7
:100CA0000053595349445F544849534D41560053EA
:100CB000595349445F53575F545950450053595352
:100CC00049445F53575F4D52455600524556004DBB
:100CD0004158005452494D004D494E00494D41582C
:100CE00000440049005000494D555F53454E534F55
:100CF000525F43414C004C6F6720232025642C2019
:100D000020202073746172742025642C20202065BB
:100D10006E642025640A000A2564206C6F67730ADC
:100D2000000A4E6F206C6F67730A00204D4F544FBE
:100D30005253002043555252454E540020434D44D7
:100D4000002052415700204E54554E002043545528
:100D50004E0020504D00204750530020415454492C
:100D6000545544455F4D4544002041545449545521
:100D700044455F46415354006E6F6E65006C6F676B
:100D80007320656E61626C65643A20004869742066
:100D9000456E74657220746F20657869742E0A0A36
:100DA0000054657374204D6F64650A0A0047524F02
:100DB000554E44205354415254000A456E74657296
:100DC000696E6720696E7465726163746976652007
:100DD0007365747570206D6F64652E2E2E0A0A542B
:100DE000797065202768656C702720746F206C69A6
:100DF000737420636F6D6D616E64732C202765784A
:100E000069742720746F206C65617665206120739A
:100E100075626D656E752E0A566973697420746803
:100E2000652027736574757027206D656E75206663
:100E30006F722066697273742D74696D6520636FBB
:100E40006E66696775726174696F6E2E0A0A00506A
:100E50006C656173652052756E2053657475702ED4
:100E60002E2E0A000A0A496E69742041434D0A0A6F
:100E700052414D3A20256C750A004779726F206FF8
:100E80006666736574733A2025342E32662C2025ED
:100E9000342E32662C2025342E32660A00416363DC
:100EA000656C206F6666736574733A2025342E3244
:100EB000662C2025342E32662C2025342E32660AEC
:100EC0000061626C65640A0064697300656E0064A9
:100ED0006F6E650A000A45726173696E6720454549
:100EE00050524F4D0A000A53617665642053657471
:100EF00074696E67730A0A00506F732025643A2084
:100F0000004348373A202564207C2025640A0043AA
:100F100048363A202564207C2025640A0043483561
:100F20003A202564207C2025640A004348343A2076
:100F30002564207C2025640A004348333A20256438
:100F4000207C2025640A004348323A202564207C16
:100F50002025640A004348313A202564207C20255E
:100F6000640A00503A2025342E32662C20493A2556
:100F7000342E32662C20443A25342E32662C2049F9
:100F80004D41583A256C640A00466C6967687420C4
:100F90006D6F6465730A004D6167206F66667365E7
:100FA00074733A2025342E34662C2025342E346672
:100FB0002C2025342E3466004D6167204465633A49
:100FC0002025342E34660A00436F6D706173730AF6
:100FD00000494D550A006D696E3A2025640A6D611D
:100FE000783A2025640A6372756973653A2025642E
:100FF0000A6661696C736166655F656E61626C65E6
:10100000643A2025640A6661696C736166655F767F
:10101000616C75653A202564005468726F74746C55
:10102000650A0058545241434B3A2025342E32660B
:101030000A58545241434B20616E676C653A202533
:10104000640A50495443485F4D41583A20256C6426
:101050000058547261636B0A00736F6E6172207482
:1010600068726F74746C653A0A006261726F207402
:1010700068726F74746C653A0A006C6F6E673A0A36
:10108000004E61763A0A6C61743A0A007961773AE7
:101090000A0070697463683A0A000A5374616269ED
:1010A0006C697A653A0A726F6C6C3A0A00796177FA
:1010B0003A0A0070697463683A0A004163726F3AD1
:1010C0000A726F6C6C3A0A004761696E730A0052CB
:1010D0006164696F0A002B206D6F64650A005820F7
:1010E0006D6F64650A00545249206672616D650A2D
:1010F000004672616D650A00465720566572736935
:101100006F6E2025640A00536F6E61720A000A47F1
:1011100050530A00636F6D6D616E6420233A202581
:10112000642069643A2564206F703A256420703128
:101130003A25642070323A256C642070333A256C6D
:10114000642070343A256C64200A00766F6C7473E6
:1011500020616E6420637572006261747420766F22
:101160006C747300342063656C6C730033206365AA
:101170006C6C73000A42617474204D6F696E746FF9
:10118000720A000A20547970652027726164696FC1
:101190002720746F20636F6E666967757265206EB5
:1011A0006F772E0A0A000A215761726E696E672CEA
:1011B00020796F757220726164696F206973206E87
:1011C0006F7420636F6E6669677572656421005382
:1011D00065747570204D6F64650A0A0A00506C6171
:1011E0006E6E6572204D6F64650A0A5468697320DB
:1011F0006D6F6465206973206E6F7420696E74650D
:101200006E64656420666F72206D616E75616C201E
:101210007573650A0A003C6E617669676174653EA4
:10122000205750206572726F72202D20646973748C
:10123000616E6365203C2030004C6F772042617402
:101240007465727921006F7574206F6620636F6D0D
:101250006D616E647321006572726F723A206E6FF9
:101260006E2D4E617620636D640052656163686522
:101270006420686F6D650053544152542055500AE4
:10128000005241572C002C2025640A004D4F443A4F
:10129000004154542C2025642C2025642C202575D5
:1012A0000A00434D442C2025642C2025642C202545
:1012B000642C2025642C2025642C20256C642C2093
:1012C000256C642C20256C640A00504D2C0043547E
:1012D000554E2C2025642C2025642C2025642C20A0
:1012E00025642C2025642C2025642C2025312E34C7
:1012F000662C2025642C2025642C2025642C202598
:10130000642C2025642C2025640A004E54554E2C54
:101310002025642C2025642C2025642C2025642C79
:101320002025642C2025642C2025642C2025640A8B
:10133000004D4F543A2025642C2025642C20256430
:101340002C2025640A00435552523A2025642C2053
:10135000256C642C2025342E34662C2025342E3424
:10136000662C2025640A004750532C20256C642CE1
:101370002025642C2025642C2025342E37662C2033
:1013800025342E37662C2025342E34662C20253427
:101390002E34662C2025642C2025750A003C73749D
:1013A0006172745F6E65775F6C6F673E204C6F672C
:1013B000732066756C6C00666C6967687420706C6D
:1013C000616E207265636569766564006163746946
:1013D0006F6E2072656365697665643A2000776197
:1013E00079706F696E7420726563656976652074C3
:1013F000696D656F757400776179706F696E7420BF
:1014000073656E642074696D656F7574004558541A
:1014100052413300455854524132004558545241CC
:101420003100504F534954494F4E005241575F438A
:1014300054524C0052435F4348414E004558545F5C
:1014400053544154005241575F53454E5300535239
:10145000335F005352305F00253033753A25733ABD
:1014600020006E6F7420666F756E640025303375D2
:101470003A252D33322E3332733A2000756E6B6E5F
:101480006F776E2074797065006E6F7420666F756B
:101490006E640025733A20006D697373696E67206E
:1014A0006E616D65206F722076616C7565003F3FDF
:1014B00000256400256400256C640025660025660F
:1014C00000657869740068656C70004445430043AA
:1014D0004F4D504153535F00245047434D442C31EE
:1014E000362C302C302C302C302C302A36410D0A42
:1014F0000024505542582C34312C312C30303033AC
:101500002C303030312C33383430302C302A3236D5
:101510000024505352463130302C302C3338343084
:10152000302C382C312C302A33430020536952465A
:101530002000204D544B312E3620002075626C6FF8
:10154000782000204D544B312E3420006661696CA8
:1015500065642C207265747279696E67004F4B0068
:1015600020002A00496E697420416363656C002A7B
:1015700000496E6974204779726F006E616E006970
:101580006E660000407A10F35A00A0724E180900EF
:1015900010A5D4E80000E87648170000E40B5402D8
:1015A0000000CA9A3B000000E1F505000080969813
:1015B00000000040420F000000A086010000001063
:1015C0002700000000E803000000006400000000A5
:1015D000000A00000000000100000000002C76D886
:1015E00088DC674F0823DFC1DFAE59E1B1B796E56C
:1015F000E3E453C63AE651997696E8E6C28426EBD0
:10160000898C9B62ED407C6FFCEFBC9C9F40F2BAE2
:10161000A56FA5F490055A2AF75C936B6CF9676D7A
:10162000C11BFCE0E40D47FEF520E6B500D0ED90CF
:101630002E0300943577050080841E080000204E9C
:101640000A000000C80C333333330F986E12831135
:1016500041EF8D2114893BE65516CFFEE6DB18D10C
:10166000844B381BF77C1D901DA4BBE424203284DE
:10167000725E228100C9F124ECA1E53D2700002122
:1016800000240027002A002D003000330001010053
:1016900000040107010A0100002200250028002B98
:1016A000002E003100340002010000050108010B8A
:1016B00001000020002300260029002C002F00320A
:1016C00000000100000301060109010505050507E9
:1016D0000508080808020202020A0A0808040404AD
:1016E00004010101010101010103030303030303D9
:1016F00003040707070C0C0C0C0C0C0C0C02020268
:101700000206060606060606060B0B0B0B0B0B0B5A
:101710000B010210202008081020401020408002F9
:101720000102010804020101020408102040808027
:1017300040201008040201800402018040201008AB
:101740000402010804020101020408102040800183
:10175000020408102040800000090A02080B0C0D4A
:101760000706030401000000000000000000000064
:101770000000000000000000000000000000000069
:10178000000000100F0E000000000000000000002C
:1017900000000000000000000000000000494E466C
:1017A000494E4954594E414ECDCCCC3D0AD7233CED
:1017B00017B7D13877CC2B329595E6241FB14F0A55
:1017C000000020410000C84200401C4620BCBE4C26
:1017D000CA1B0E5AAEC59D744A372F885B90D2C281
:1017E0007FD14337549011241FBECFEFD1E2DEBF2B
:1017F000CDBF17E0A0E0B2E0E8E9F5EC01E00BBFF7
:1018000002C007900D92A830B107D9F718E1A8E0FF
:10181000B7E001C01D92A63FB107E1F717E1C2EEA4
:10182000D7E104C02297FE010E9484DCC83DD107A5
:10183000C9F70E94FAD30C94BFE20C940000283040
:1018400008F027E03327DA01990F311D87FD9160F9
:1018500000966105710539F432602E5F3D9330E3E7
:101860002A95E1F708959F3F30F0803871056105B2
:1018700009F03C5F3C5F3D93913008F08068911D1A
:10188000DF93CF931F930F93FF92EF92192F987FBF
:101890009695E92F96959695E90FFF27E352FA4E14
:1018A00099273327EE24FF24A701E7010590089428
:1018B000079428F4360FE71EF81E491F511D660FC6
:1018C000771F881F991F0694A1F70590079428F4A5
:1018D000E70EF81E491F561FC11D770F881F991F5D
:1018E000661F0694A1F70590079428F4F80E491F87
:1018F000561FC71FD11D880F991F661F771F06949B
:10190000A1F70590079420F4490F561FC71FD81F51
:10191000990F661F771F881F0694A9F78491109569
:10192000177041F0D695C79557954795F794E7946A
:101930001A95C1F7E3E8F5E1689415901591359192
:101940006591959105907FE27395E118F10A430B3B
:10195000560BC90BD009C0F7E10CF11E431F561FEF
:10196000C91FD01D7EF4703311F48A95E6CFE89438
:10197000015030F0080F0AF40027021708F4202F56
:101980002395022F7A3328F079E37D932A95E9F79E
:1019900010C07D932A9589F606949795679537959B
:1019A00017951794E118F10A430B560BC90BD00990
:1019B00098F023957E9173957A3308F070E37C93C9
:1019C0002013B8F77E9170617D9330F0839571E3B9
:1019D0007D9370E32A95E1F71124EF90FF900F912A
:1019E0001F91CF91DF91992787FD90950895FA0176
:1019F000AA27283051F1203181F1E8946F936E7F4E
:101A00006E5F7F4F8F4F9F4FAF4FB1E03ED0B4E03E
:101A10003CD0670F781F891F9A1FA11D680F791F7F
:101A20008A1F911DA11D6A0F711D811D911DA11D90
:101A300020D009F468943F912AE0269F11243019A0
:101A4000305D3193DEF6CF010895462F4770405D3B
:101A50004193B3E00FD0C9F7F6CF462F4F70405DEA
:101A60004A3318F0495D31FD4052419302D0A9F745
:101A7000EACFB4E0A6959795879577956795BA953F
:101A8000C9F700976105710508959B01AC010A2E05
:101A900006945795479537952795BA95C9F7620FDC
:101AA000731F841F951FA01D0895EF92FF920F933F
:101AB000DF93CF93CDB7DEB760970FB6F894DEBF54
:101AC0000FBECDBFA82F002309F461C07E0108948A
:101AD000E11CF11C88E0F70111928A95E9F729834E
:101AE0003A834B835C836D837E83AF83988780E2E8
:101AF000801BE82FFF27E7FDF0954D815E816F8108
:101B00007885181684F01D861E861F86188A8827F9
:101B100099278E1B9F0B04C076956795579547951F
:101B20008A95D2F728C0202F332727FD3095DB0177
:101B3000CA01022E04C0B695A795979587950A9479
:101B4000D2F78D879E87AF87B88B04C0440F551F8F
:101B5000661F771FEA95D2F789819A81AB81BC8194
:101B600004C0B695A795979587952A95D2F7482BE7
:101B7000592B6A2B7B2B49875A876B877C87298552
:101B80003A854B855C856D857E85AF8598898A2FE2
:101B900060960FB6F894DEBF0FBECDBFCF91DF9138
:101BA0000F91FF90EF900895CF93DF93FC01EB012D
:101BB0004230510570F0638574858585968520E0F7
:101BC00030E040E854E40E9401DB0E9449D9798367
:101BD000688382E090E0DF91CF910895CF93DF9307
:101BE000EC01FB014230510518F420E030E012C056
:101BF0006081718180E090E00E9475D920E030E042
:101C000040E85AE30E9401DB6B877C878D879E87C3
:101C100022E030E0C901DF91CF910895009719F0DB
:101C20000197C1F40CC0E0913018F0913118A081F7
:101C3000B1812D913C91CF01F90109950895E09171
:101C40003218F0913318A081B1812D913C91CF01D0
:101C5000F90109950895EF92FF920F931F93CF9387
:101C6000DF93EC0108836A834B83822F90E0880F17
:101C7000991FFC01A3E0EE0FFF1FAA95E1F7E81BF7
:101C8000F90BE355FB4E81858983822F90E0880F05
:101C9000991FDC0163E0AA0FBB1F6A95E1F7A81B3F
:101CA000B90BA355BB4E822F90E0880F991FFC0102
:101CB00043E0EE0FFF1F4A95E1F7E81BF90BE355F0
:101CC000FB4E81858F5F19968C93DE0135E0E32E04
:101CD000F12CE00EF11E6FEF7FEFE0E0F0E01EC0B0
:101CE0002D912627822F8295807F822790E0382FA2
:101CF0002227AC01440F551F440F551F440F551F99
:101D000024273527672F77276227732724E09595A7
:101D100087952A95E1F7682779273196EE15FF0513
:101D2000FCF2CC5FDE4F699378839801295F3F4FC7
:101D3000C901CDB7DEB7E6E00C9473DCFC01DC0131
:101D4000AC5FBE4F8C91EB5FFE4F6827262F22952C
:101D5000207F262730E0522F4427C90163E0880FF7
:101D6000991F6A95E1F748275927808190E0482715
:101D7000592784E0359527958A95E1F7422753271F
:101D80004C9350830895F901E40FF11D292F332757
:101D90004427552720839C01552737FD5095452F13
:101DA0002183272F382F492F552747FD5A95228306
:101DB000638384E008957F928F929F92AF92BF9247
:101DC000CF92DF92EF92FF920F931F93722E132FF9
:101DD000D42EC52EB62EA72E982E892EE00EF11CDD
:101DE00008E30E94550DF7012083272D312F4D2D3B
:101DF0005C2D6B2D7A2D892D982D00E30E94550DB9
:101E0000F7012183272D312F4D2D5C2D6B2D7A2D40
:101E1000892D982D08E20E94550DF7012283272D68
:101E2000312F4D2D5C2D6B2D7A2D892D982D00E2B3
:101E30000E94550DF7012383272D312F4D2D5C2D49
:101E40006B2D7A2D892D982D08E10E94550DF701F3
:101E50002483272D312F4D2D5C2D6B2D7A2D892D2F
:101E6000982D00E10E94550DF7012583272D312F74
:101E70004D2D5C2D6B2D7A2D892D982D08E00E941B
:101E8000550DF7012683778288E01F910F91FF900F
:101E9000EF90DF90CF90BF90AF909F908F907F900A
:101EA00008950E94C30E0895A0E0B0E0EAE5FFE0C7
:101EB0000C9455DC8C01EB0165E50E940E0EC80107
:101EC00068810E940E0EC80169810E940E0EC80131
:101ED0006A810E940E0EC8016B810E940E0EC8011D
:101EE0006C810E940E0E6E01EE24FF2408C0C80112
:101EF000F60164810E940E0E0894E11CF11C089406
:101F0000C11CD11C888190E0E816F90680F3CC5FF3
:101F1000DE4FC80169910E940E0EC80168810E94BF
:101F20000E0ECDB7DEB7E8E00C9471DCA6E0B1E0B0
:101F3000ECE9FFE00C9455DCD82EC92E5091F70443
:101F40007091F80488E28D836E834F8338872987E8
:101F50007E010894E11CF11CC701652F472F2D2D30
:101F600004E010E00E942B0E8D2D9C2DB7010E94E5
:101F7000540FCA5FDE4FE8E00C9471DCA6E0B1E0DC
:101F8000E4ECFFE00C9455DCD82EC92E2091F70428
:101F90004091F8048AE28D837E836F837E010894EA
:101FA000E11CF11CC701622F2D2D02E010E00E9400
:101FB0002B0E8D2D9C2DB7010E94540FCA5FDE4F52
:101FC000E8E00C9471DCA6E0B1E0E9EEFFE00C94EF
:101FD00055DCD82EC92E3091F7045091F8048FE2C9
:101FE0008D836E834F8328877E010894E11CF11C4A
:101FF000C701632F452F2D2D03E010E00E942B0E0B
:102000008D2D9C2DB7010E94540FCA5FDE4FE8E072
:102010000C9471DC1F920F920FB60F920BB60F92B9
:1020200011242F933F934F938F939F93EF93FF939D
:102030004091C6002091F0173091F1172F5F3F4F6C
:102040008091F4179091F517282339238091F21786
:102050009091F3172817390779F08091F017909134
:10206000F117E091F617F091F717E80FF91F408389
:102070003093F1172093F017FF91EF919F918F917B
:102080004F913F912F910F900BBE0F900FBE0F906D
:102090001F9018951F920F920FB60F920BB60F92CA
:1020A00011242F933F938F939F93EF93FF9320914E
:1020B0001218309113188091101890911118281748
:1020C0003907E9F08091121890911318E0911618D1
:1020D000F0911718E80FF91F80818093C600809156
:1020E0001218909113180196209114183091151818
:1020F00082239323909313188093121810C0209179
:1021000010183091111880911218909113182817F7
:10211000390729F48091C1008F7D8093C100FF9120
:10212000EF919F918F913F912F910F900BBE0F9048
:102130000FBE0F901F9018951F920F920FB60F921F
:102140000BB60F9211242F933F934F938F939F932E
:10215000EF93FF934091CE002091F8173091F9173B
:102160002F5F3F4F8091FC179091FD172823392353
:102170008091FA179091FB172817390779F0809111
:10218000F8179091F917E091FE17F091FF17E80FFB
:10219000F91F40833093F9172093F817FF91EF91BF
:1021A0009F918F914F913F912F910F900BBE0F9068
:1021B0000FBE0F901F9018951F920F920FB60F929F
:1021C0000BB60F9211242F933F938F939F93EF930E
:1021D000FF9320911A1830911B1880911818909134
:1021E000191828173907E9F080911A1890911B18CF
:1021F000E0911E18F0911F18E80FF91F808180935D
:10220000CE0080911A1890911B18019620911C18ED
:1022100030911D188223932390931B1880931A18D2
:1022200010C0209118183091191880911A189091A7
:102230001B182817390729F48091C9008F7D8093D6
:10224000C900FF91EF919F918F913F912F910F9036
:102250000BBE0F900FBE0F901F9018951F920F92FC
:102260000FB60F920BB60F9211242F933F934F93FB
:102270008F939F93EF93FF9340913601209108181D
:10228000309109182F5F3F4F80910C1890910D18D5
:102290002823392380910A1890910B1828173907A1
:1022A00079F08091081890910918E0910E18F0913A
:1022B0000F18E80FF91F408330930918209308186E
:1022C000FF91EF919F918F914F913F912F910F909F
:1022D0000BBE0F900FBE0F901F9018951F920F927C
:1022E0000FB60F920BB60F9211242F933F938F933B
:1022F0009F93EF93FF9320912A1830912B18809190
:1023000028189091291828173907E9F080912A1880
:1023100090912B18E0912E18F0912F18E80FF91FCB
:1023200080818093360180912A1890912B18019614
:1023300020912C1830912D188223932390932B18E1
:1023400080932A1810C02091281830912918809164
:102350002A1890912B182817390729F480913101F8
:102360008F7D80933101FF91EF919F918F913F91EC
:102370002F910F900BBE0F900FBE0F901F901895CE
:10238000EF92FF920F931F93809173148F5F80934E
:102390007314823008F472C010927314809157093C
:1023A00090915809893C9105CCF5209114143091F5
:1023B000151440911614509117142150304040408C
:1023C0005040E0900514F09006140091071410910D
:1023D0000814D801C70183569040A040B040281788
:1023E00039074A075B0734F4A801970124563040A7
:1023F00040405040DA01C9012436310541055105FC
:1024000024F484E690E0A0E0B0E08093141490936C
:102410001514A0931614B093171430C08D5B92401E
:102420006CF12091141430911514409116145091B0
:1024300017142E5F3F4F4F4F5F4FE0900514F09001
:1024400006140091071410910814D801C70189538C
:102450009F4FAF4FBF4F82179307A407B50734F4C0
:10246000A801970128533F4F4F4F5F4F20931414FB
:102470003093151440931614509317141F910F9115
:10248000FF90EF900895AF92BF92CF92DF92EF92BC
:10249000FF920F931F935B016C01E0908A13F09001
:1024A0008B1300918C1310918D1322273327A901D0
:1024B000261B370B480B590BE216F30604071507CA
:1024C0001CF4DA01C9010DC0DC01CB01782F692FA2
:1024D0009A2F8B2FEA14FB040C051D0534F4D80148
:1024E000C701782F692F9A2F8B2F70938A136093CF
:1024F0008B1390938C1380938D1380918E139091F6
:102500008F13A0919013B091911382179307A40792
:10251000B5074CF0A60195018A159B05AC05BD05D4
:1025200014F49C01AD0120938E1330938F134093CC
:102530009013509391131F910F91FF90EF90DF90A4
:10254000CF90BF90AF900895EF92FF920F931F939B
:102550006091A5047091A6048091A7049091A804AD
:102560002091A1043091A2044091A3045091A404AD
:102570000E9401DB7B018C0120E030E040E05FE362
:102580000E94D5D8882324F4E0E070E080EC0DC0F0
:10259000C801B70120E030E040E85FE30E94B1DA13
:1025A00018162CF4E0E070E080E86FE30AC060E009
:1025B00070E080E090E4A80197010E94F7D7E62F31
:1025C000692F2E2F372F482F562FB901CA011F917F
:1025D0000F91FF90EF900895EF92FF920F931F934A
:1025E0000E94A4127B018C0160919E1370919F1335
:1025F000882777FD8095982F0E9477D9A8019701A9
:102600000E9401DB0E9444D9CB011616170614F074
:1026100081E090E090935C0980935B091F910F919A
:10262000FF90EF900895EF92FF920F931F930E94F7
:10263000A4127B018C016091570970915809882779
:1026400077FD8095982F0E9477D9A80197010E9465
:1026500001DB0E9444D9CB0177FF02C080E090E00B
:1026600090935C0980935B091F910F91FF90EF900D
:102670000895FC017183608387E06830780739F43E
:1026800070933118609330181386128608C07093C7
:1026900033186093321881E090E093878287138229
:1026A000128208952091141430911514409116143B
:1026B000509117148091D8139091D913A091DA13E7
:1026C000B091DB1382179307A407B50774F48091C8
:1026D000051490910614A0910714B09108142817BE
:1026E00039074A075B07C4F40DC080910514909127
:1026F0000614A0910714B091081482179307A40739
:10270000B50754F41092D4131092D5131092D61327
:102710001092D71381E0089580E0089580914014CD
:102720008093C204833049F4A0E2B4E1EEE3F4E123
:102730008FE001900D928150E1F70895809140144F
:10274000813021F480910B0184600AC0882321F438
:1027500080910B018B7F04C080910B0194E089274D
:1027600080930B0108952091FD093091FE09C90164
:102770008F5C94408238910510F481E00895C9017E
:10278000815595408238910510F482E00895C90181
:10279000835D95408238910510F483E00895C90166
:1027A000855596408138910510F484E00895265DA2
:1027B000364014F480E0089585E0089520910513D3
:1027C00030910613409107135091081380917E13A6
:1027D00090917F13A0918013B0918113281B390B26
:1027E0004A0B5B0B213586E4380780E0480780E020
:1027F00058072CF0205A3C48404050400CC0203B29
:1028000099EB39079FEF49079FEF590724F42056AA
:1028100033474F4F5F4F80E0B90137FF03C07095DA
:1028200061957F4F615177420CF081E00895A4E0FB
:10283000B0E0EDE1F4E10C944BDC60919A137091FF
:102840009B1380919C1390919D130E9477D93B011B
:102850004C018091191390911A13A0911B13B09100
:102860001C1389839A83AB83BC8360919613709108
:10287000971380919813909199130E9477D91B0117
:102880002C01E090A904F090AA040091AB041091EF
:10289000AC04C401B30129813A814B815C810E945F
:1028A00001DB5B016C01C201B101A80197010E942B
:1028B00001DB9B01AC01C601B5010E94F8D70E9463
:1028C00044D960938A1370938B1380938C139093E5
:1028D0008D1317FB109517F91095C401B301A801CA
:1028E00097010E9401DB7B018C01C201B1012981AA
:1028F0003A814B815C810E9401DB9B01AC01C801E4
:10290000B7010E94F8D70E9444D960938E13709348
:102910008F1380939013909391132496E2E10C947B
:1029200067DC6091BF137091C0138091C1139091C7
:10293000C21324E630E040E050E00E94C8DB69307A
:1029400027E0720720E0820720E0920724F068E089
:1029500077E080E090E0683F28EF72072FEF820772
:102960002FEF920724F468EF78EF8FEF9FEF0E942C
:1029700077D92091E60D3091E70D4091E80D509107
:10298000E90D0E9401DB0E9444D960939613709375
:10299000971380939813909399130895209101139E
:1029A00030910213409103135091041380916511EB
:1029B00090916611A0916711B0916811281B390B95
:1029C0004A0B5B0B213586E4380780E0480780E03E
:1029D00058072CF0205A3C48404050400CC0203B47
:1029E00089EB38078FEF48078FEF580724F42056FC
:1029F00033474F4F5F4F20932F1330933013409343
:102A0000311350933213089520910513309106131A
:102A100040910713509108138091091390910A1364
:102A2000A0910B13B0910C13281B390B4A0B5B0BB5
:102A3000213586E4380780E0480780E058072CF00D
:102A4000205A3C48404050400CC0203B89EB38079E
:102A50008FEF48078FEF580724F4205633474F4F26
:102A60005F4FC90137FF03C0909581959F4F9C012F
:102A7000442737FD4095542FB901CA01089520918C
:102A8000AD083091AE088091D1089091D208281BF2
:102A9000390B253631051CF08AE08093A8142C5997
:102AA0003F4F1CF486EF8093A8148091A814181649
:102AB0001CF481508093A8148091A81487FF03C050
:102AC0008F5F8093A8148091A814813021F08F3FEC
:102AD00011F080E00895811181E00895FC01DB018F
:102AE000452B11F083858C9381E090E00895DC0103
:102AF000FB01452B19F080811B968C9381E090E0BF
:102B00000895FC016385772767FD7095872F972FC0
:102B10000E9477D90895FC01DB014230510520F075
:102B2000838594858D939C9382E090E00895DC01E9
:102B3000FB014230510530F0808191811C969C93BD
:102B40008E931B9782E090E00895FC016385748565
:102B5000882777FD8095982F0E9477D90895FC01EA
:102B60002385348545855685B901CA010895CF93DB
:102B7000DF93FC01EB014430510540F083859485DF
:102B8000A585B68588839983AA83BB8384E090E07A
:102B9000DF91CF910895CF93DF93EC01FB01443097
:102BA000510540F080819181A281B3818B879C8700
:102BB000AD87BE8784E090E0DF91CF91089580914A
:102BC000570990915809893C910544F09093200849
:102BD00080931F0884E198E00E94908B0895809173
:102BE000A70A9091A80A8152934024F081E0809333
:102BF0008414089580918414882389F08091570962
:102C0000909158098739910544F09093200880935A
:102C10001F0884E198E00E94908B1092841408951C
:102C20001092B00785EA97E00E94908B10921013E3
:102C30001092111310923E1408958CE791E0909336
:102C40004B0880934A088FE398E00E94908B089588
:102C50008091AB14882329F01092AB1484E460E0D7
:102C600005C081E08093AB1484E461E00E9492D7B8
:102C7000089585E260E00E9492D784E260E00E94BD
:102C800092D783E260E00E9492D708958091AC14BD
:102C90008F5F8093AC148150833011F41092AC1488
:102CA0008091AC14813059F0813018F08230C1F439
:102CB0000FC083E260E00E9492D785E205C085E202
:102CC00060E00E9492D784E261E00E9492D708956A
:102CD00084E260E00E9492D783E261E00E9492D792
:102CE00008958091FA129091FE12882379F4992325
:102CF00009F481E08093FE12882319F085E261E0F7
:102D000002C085E260E00E9492D70895992339F4C9
:102D100081E08093FE1285E261E00E9492D70895DF
:102D2000E091660FF091670F85A996A98130910512
:102D300039F00297F9F483E261E00E9492D7089596
:102D400087A18823D9F090E08091FF12882309F4AD
:102D500091E09093FF12992319F083E260E002C0A2
:102D600083E261E00E9492D7E091660FF091670FD5
:102D700017A2089583E260E00E9492D7089580919F
:102D80000013882319F0813041F405C00E947116A8
:102D90000E94901608950E944616089500D000D013
:102DA00088E097E0EDB7FEB79283818389EA96E0E9
:102DB000948383830E9408C60F900F900F900F900A
:102DC00080E0089500D000D088E097E0EDB7FEB72E
:102DD000928381838EEF97E0948383830E9408C659
:102DE0000F900F900F900F9080E0089500D000D0CA
:102DF00088E097E0EDB7FEB7928381838AE299E09D
:102E0000948383830E9408C681E0809395080F9085
:102E10000F900F900F908AE898E00E94908B64E1E9
:102E200070E080E090E00E9494D688E097E00E94F5
:102E30007FC6181619069CF7109295088AE898E044
:102E40000E94908B80E0089500D000D088E097E049
:102E5000EDB7FEB7928381838DE19AE094838383FB
:102E60000E9408C60F900F900F900F90089500D009
:102E700000D088E097E0EDB7FEB7928381838CE8BD
:102E80009DE0948383830E9408C60F900F900F905B
:102E90000F9008950E94371768EE73E080E090E08D
:102EA0000E9494D68CE297E00E947FC6892B89F01D
:102EB00084E261E00E9492D78CE297E00E94ADC666
:102EC000682F8AE197E00E940EC784E260E00E94CA
:102ED00092D78AE197E00E947FC6892B89F083E22E
:102EE00061E00E9492D78AE197E00E94ADC6682F08
:102EF0008CE297E00E940EC783E260E00E9492D7C6
:102F000088E097E00E947FC6181619065CF680E0FC
:102F100008950E94371768EE73E080E090E00E9409
:102F200094D600D000D088E097E0EDB7FEB792834A
:102F3000818388E895E0948383830E9408C60F907C
:102F40000F900F900F908CE297E00E947FC6892B24
:102F500049F08CE297E00E94ADC6682F8CE297E0C2
:102F60000E940EC788E097E00E947FC618161906D7
:102F700054F780E00895EF92FF920F931F93CF9341
:102F8000DF930E94371768EE73E080E090E00E94C4
:102F900094D631E6E32E36E0F32E06E516E0C8E0DF
:102FA000D7E000D000D0EDB7FEB7D283C183F48262
:102FB000E3820E9408C680910B01846080930B011C
:102FC0000F900F900F900F9068EB7BE080E090E007
:102FD0000E9494D6CE010E947FC618161906FCF0F6
:102FE00000D000D0EDB7FEB7D283C1831483038332
:102FF0000E9408C680910B018B7F80930B010F907C
:103000000F900F900F9068EB7BE080E090E00E94C3
:1030100094D6CE010E947FC61816190614F680E0D9
:10302000CDB7DEB7E6E00C9473DC8DB79EB7409762
:103030000FB6F8949EBF0FBE8DBFEDB7FEB73196A9
:1030400088E097E0ADB7BEB712969C938E93119728
:103050008AE79EE093838283809145119091461187
:10306000A0914711B091481184839583A683B783BB
:103070008091491190914A11A0914B11B0914C113E
:1030800080879187A287B38780914D1190914E11CF
:10309000A0914F11B091501184879587A687B7876B
:1030A0000E9408C68DB79EB740960FB6F8949EBF93
:1030B0000FBE8DBF08958DB79EB740970FB6F89499
:1030C0009EBF0FBE8DBFEDB7FEB7319688E097E08B
:1030D000ADB7BEB712969C938E9311978DE99EE083
:1030E000938382838091511190915211A091531139
:1030F000B091541184839583A683B7838091551131
:1031000090915611A0915711B091581180879187D5
:10311000A287B3878091591190915A11A0915B11A8
:10312000B0915C1184879587A687B7870E9408C6EF
:103130008DB79EB740960FB6F8949EBF0FBE8DBF59
:10314000089528E037E0882349F000D000D0EDB79B
:10315000FEB7328321838CEC9EE008C000D000D003
:10316000EDB7FEB73283218388EC9EE0948383839E
:103170000E9408C688E097E0EDB7FEB7928381838E
:1031800081EC9EE0948383830E9408C60F900F9089
:103190000F900F90089500D000D088E097E0EDB731
:1031A000FEB79283818386EE9EE0948383830E94A0
:1031B00008C60F900F900F900F9008950F931F93D4
:1031C0008DB79EB708970FB6F8949EBF0FBE8DBF00
:1031D000EDB7FEB7319608E017E0ADB7BEB712966F
:1031E0001C930E93119785E59FE0938382838091D2
:1031F000C4089091C508958384838091DE089091DE
:10320000DF08978386830E9408C6EDB7FEB7319624
:10321000ADB7BEB712961C930E93119787E49FE04B
:1032200093838283809118099091190995838483EF
:103230008091320990913309978386830E9408C652
:10324000EDB7FEB73196ADB7BEB712961C930E938D
:10325000119789E39FE09383828380916C09909119
:103260006D0995838483809186099091870997835E
:1032700086830E9408C6EDB7FEB73196ADB7BEB7DC
:1032800012961C930E9311978BE29FE09383828397
:103290008091C0099091C109958384838091DA0956
:1032A0009091DB09978386830E9408C6EDB7FEB72D
:1032B0003196ADB7BEB712961C930E9311978DE160
:1032C0009FE0938382838091140A9091150A9583DD
:1032D000848380912E0A90912F0A978386830E947F
:1032E00008C6EDB7FEB73196ADB7BEB712961C93C0
:1032F0000E9311978FE09FE0938382838091680AF9
:103300009091690A958384838091820A9091830ABF
:10331000978386830E9408C6EDB7FEB73196ADB796
:10332000BEB712961C930E93119781E09FE0938392
:1033300082838091BC0A9091BD0A95838483809199
:10334000D60A9091D70A978386830E9408C68DB7C4
:103350009EB708960FB6F8949EBF0FBE8DBF1F9103
:103360000F910895CF93DF93FC018DB79EB74497DB
:103370000FB6F8949EBF0FBE8DBF2DB73EB72F5F1F
:103380003F4F88E097E0ADB7BEB712969C938E93FF
:10339000119783E69FE0E9019B838A838689978959
:1033A000A08DB18D8C839D83AE83BF8385A196A1B3
:1033B000A7A1B0A588879987AA87BB8784A995A963
:1033C000A6A9B7A98C879D87AE87BF87ED5BFF4F06
:1033D00080819181AA2797FDA095BA2FF901808B52
:1033E000918BA28BB38B0E9408C68DB79EB7449673
:1033F0000FB6F8949EBF0FBE8DBFDF91CF91089599
:1034000000D000D088E097E0EDB7FEB792838183CB
:1034100087E792E1948383830E9408C60F900F9000
:103420000F900F900895A0E0B0E0E9E1FAE10C946C
:1034300053DC62E8A62E65E0B62E5CE7C52E55E0AB
:10344000D52E00E010E048E0E42E47E0F42E00D056
:1034500000D000D0EDB7FEB73196ADB7BEB712962B
:10346000FC92EE921197B382A282158304830E948C
:1034700008C6C0E0D0E08DB79EB706960FB6F894A8
:103480009EBF0FBE8DBFCE01800F911F0E94D7E05F
:1034900000D000D000D0EDB7FEB73196ADB7BEB7C3
:1034A0001296FC92EE921197D382C2828483158287
:1034B0000E9408C621968DB79EB706960FB6F8945F
:1034C0009EBF0FBE8DBFC031D105E9F6C7010E9476
:1034D00019D5005F1F4F90E10030190709F0B7CFF1
:1034E00080E0CDB7DEB7EAE00C946FDCA0E0B0E09E
:1034F000ECE7FAE10C944BDC80918908882309F40D
:10350000A3C00E94371779EB272E75E0372EC8E04D
:10351000D7E06AEF70E080E090E00E9494D680E906
:103520009FE00E94A19380E99FE040E050E060E0CE
:1035300070E08A019B010E941FA080E99FE00E9429
:10354000BC96FC014084518462847384848095809D
:10355000A680B780C080D180E280F3806091980F10
:103560007091990F80919A0F90919B0F21EE3EE2FE
:1035700045E652E40E9401DB20E030E048EC52E4F2
:103580000E9401DB0E9444D9613A2CE8720720E0D6
:10359000820720E092072CF0605A7C4880409040DF
:1035A00006C097FF04C0605673478F4F9F4FEDB71B
:1035B000FEB77A970FB6F894FEBF0FBEEDBF0DB7FA
:1035C0001EB70F5F1F4FD283C183F801338222825F
:1035D00024E630E040E050E00E9430DCF801248333
:1035E0003583468357838091920F9091930F9187F3
:1035F00080878091940F9091950F93878287809117
:10360000960F9091970F95878487C686D786E08A14
:10361000F18A828A938AA48AB58A468A578A608EFA
:10362000718E0E9408C62DB73EB7265E3F4F0FB67B
:10363000F8943EBF0FBE2DBFCE010E947FC6181664
:1036400019060CF066CF15C000D000D088E097E0D6
:10365000EDB7FEB7928381838FEA95E094838383ED
:103660000E9408C60F900F900F900F9080E00E946C
:10367000A11880E0CDB7DEB7E2E10C9467DC0F93D0
:103680001F93CF93DF93809164088823B9F400D00F
:1036900000D088E097E0ADB7BEB712969C938E93AA
:1036A000119783E096E014969C938E9313970E9453
:1036B00008C60F900F900F900F9030C00E943717E0
:1036C00005EF15E0C8E0D7E064E670E080E090E048
:1036D0000E9494D68CEB92E10E9417C200D000D0D9
:1036E00000D0EDB7FEB73196ADB7BEB71296DC93FA
:1036F000CE93119713830283958384830E9408C617
:10370000EDB7FEB736960FB6F894FEBF0FBEEDBF0D
:10371000CE010E947FC618161906B4F680E0DF912C
:10372000CF911F910F9108950F931F9309ED16E10B
:1037300040916C0950916D09C80160E00E9490872A
:1037400040916C0950916D09C80161E00E94908719
:1037500040916C0950916D09C80162E00E94908708
:1037600040916C0950916D09C80163E00E949087F7
:1037700040916C0950916D09C80166E00E949087E4
:1037800040916C0950916D09C80167E00E949087D3
:103790001F910F91089580916C0990916D099093FC
:1037A000DF128093DE129093E1128093E0129093E7
:1037B000E5128093E4122091AF083091B0084BE0FD
:1037C000293B34072CF0C2969093DF128093DE12CF
:1037D0002854344F4CF48091E0129091E112C2963B
:1037E0009093E1128093E012809103099091040973
:1037F000895B9B404CF08091E4129091E512C29657
:103800009093E5128093E4124091DE125091DF1202
:1038100089ED96E160E00E9490874091E01250911E
:10382000E11289ED96E161E00E9490874091E412F7
:103830005091E51289ED96E163E00E94908708952A
:103840008091570990915809181619061CF481E0C7
:103850008093FB1240916C0950916D09EEEDF2E1FD
:103860004193519382E1EE3EF807D1F789ED96E15D
:1038700060E00E94908740916C0950916D0989ED3C
:1038800096E161E00E94908740916C0950916D092A
:1038900089ED96E163E00E9490870895609140145D
:1038A0006150409141145091421489ED96E10E947B
:1038B0009087089510926414109263141092571414
:1038C0001092561410925914109258140E9460D6F7
:1038D000609352147093531480935414909355141E
:1038E00008958091CE139091CF13892B09F45AC07B
:1038F0000E9460D62091C8133091C9134091CA1319
:103900005091CB13621B730B840B950B2091CC133E
:103910003091CD1340E050E062177307840795079C
:1039200008F440C037C001979093CF138093CE1313
:103930008091CE139091CF13892BA1F10E9460D674
:103940006093C8137093C9138093CA139093CB13D9
:103950006091C713862F8450843088F48091CE13F1
:1039600080FF05C04091D0135091D11304C0409105
:10397000D2135091D31389ED96E10E9490878091E4
:10398000C713853079F480910B0194E089278093E7
:103990000B0108958091CE139091CF13181619063C
:1039A00014F2C6CF089585E08093C7131092C81310
:1039B0001092C9131092CA131092CB136091451440
:1039C0007091461480914714909148140E9477D9C1
:1039D00020E030E04AEF53E40E9401DB0E9449D925
:1039E0007093CD136093CC13809141149091421445
:1039F000A0914314B0914414880F991FAA1FBB1FB4
:103A00009093CF138093CE130E94711C08951F933F
:103A10001091401411501093C7131F5F812F8550D0
:103A2000843008F05BC01092C8131092C913109232
:103A3000CA131092CB136091491470914A1480916B
:103A40004B1490914C140E9477D920E030E04AEF5B
:103A500053E40E9401DB0E9449D97093CD13609317
:103A6000CC138091451490914614A0914714B091C5
:103A70004814880F991FAA1FBB1F9093CF138093E0
:103A8000CE1380914114909142149093D11380935E
:103A9000D013153079F0163018F41430E9F405C05D
:103AA000163069F01730C1F40FC08091210A90914F
:103AB000220A0EC08091750A9091760A09C0809101
:103AC000C90A9091CA0A04C080911D0B90911E0BE7
:103AD0009093D3138093D2130E94711C1F91089569
:103AE0006F927F928F929F92AF92BF92CF92DF920E
:103AF000EF92FF920F931F930E9460D62091AB1319
:103B00003091AC134091AD135091AE13621B730B07
:103B1000840B950B2091AF133091B01340E050E02F
:103B2000261737074807590790F48091B1139091F1
:103B3000B213A091B313B091B413809392139093E6
:103B40009313A0939413B093951381E077C00E94D0
:103B500060D67B018C016091A7137091A8138091AE
:103B6000A9139091AA130E9477D93B014C0160914F
:103B7000B5137091B6138091B7139091B8130E944A
:103B800077D95B016C018091AB139091AC13A0913C
:103B9000AD13B091AE13E81AF90A0A0B1B0BC8015A
:103BA000B7010E9475D97B018C016091AF137091B0
:103BB000B01380E090E00E9475D99B01AC01C80170
:103BC000B7010E94DCD89B01AC01C601B5010E947F
:103BD00001DB7B018C016091BB1370E0882777FDCE
:103BE0008095982F0E9477D99B01AC01C801B7013D
:103BF0000E9401DB9B01AC01C401B3010E94F8D714
:103C00000E9444D9613A2CE8720720E0820720E044
:103C100092072CF0605A7C488040904006C097FF85
:103C200004C0605673478F4F9F4F609392137093F9
:103C30009313809394139093951380E01F910F91A9
:103C4000FF90EF90DF90CF90BF90AF909F908F90BC
:103C50007F906F9008950E9460D62091D813309184
:103C6000D9134091DA135091DB13621B730B840B51
:103C7000950B2091D4133091D5134091D6135091C8
:103C8000D713261737074807590710F080E0089523
:103C90001092D4131092D5131092D6131092D713FA
:103CA00081E0089580911313813761F1823718F410
:103CB000803771F505C0823731F0833749F525C06B
:103CC0000E942B1E08952091BF133091C013409184
:103CD000C1135091C2138091D4139091D513A09128
:103CE000D613B091D713281739074A075B0784F416
:103CF0001092D4131092D5131092D6131092D7139A
:103D000081E008950E94521308950E94701D089545
:103D100080E00895EF92FF920F931F931092C204D8
:103D20008091921390919313A0919413B091951355
:103D30008093A7139093A813A093A913B093AA13E9
:103D40000E9460D66093AB137093AC138093AD1355
:103D50009093AE13109140141093BB13009149142B
:103D60000093BC13609145147091461480914714E0
:103D70009091481424E630E040E050E00E94C8DB17
:103D80007093BA136093B913672B31F488EB9BE0FF
:103D90009093BA138093B913112319F48FEF809382
:103DA000BB130023B9F060914114709142148091CB
:103DB00043149091441424E630E040E050E00E9427
:103DC000C8DB6093B5137093B6138093B7139093C9
:103DD000B81374C0609141147091421480914314DF
:103DE0009091441424E630E040E050E00E94C8DBAB
:103DF0007B018C016093B1137093B2138093B31362
:103E00009093B4138091BB132091A7133091A81302
:103E10004091A9135091AA138130C1F4D801C70170
:103E2000821B930BA40BB50B2E153F0540075107C2
:103E300024F080569347AF4FBF4F8093B5139093B4
:103E4000B613A093B713B093B81315C0E216F306D8
:103E50000407150724F0205633474F4F5F4F2E19A4
:103E60003F09400B510B2093B5133093B613409389
:103E7000B7135093B8138091B5139091B613A091D6
:103E8000B713B091B813813A2CE8920720E0A2074B
:103E900020E0B2072CF0805A9C48A040B04006C0F9
:103EA000B7FF04C080569347AF4FBF4F8093B51301
:103EB0009093B613A093B713B093B8132091B9138E
:103EC0003091BA13442737FD4095542F6091B513B4
:103ED0007091B6138091B7139091B8130E9430DCA3
:103EE000CA01B90128EE33E040E050E00E94C8DB8F
:103EF0007093B0136093AF131F910F91FF90EF90E9
:103F000008950E9460D6E0E02091821330918313DF
:103F10004091841350918513621B730B840B950B96
:103F20002091861330918713409188135091891303
:103F3000261737074807590708F4E1E08E2F089540
:103F4000AF92BF92CF92DF92EF92FF920F931F93A7
:103F5000E090E013F090E1130091E2131091E3136D
:103F60000E9460D62091DC133091DD134091DE1366
:103F70005091DF13621B730B840B950B24E130E02F
:103F800040E050E00E940EDCE21AF30A040B150B2D
:103F9000E0921414F0921514009316141093171451
:103FA000A0900514B0900614C0900714D090081487
:103FB000609178137091791380917A1390917B13AB
:103FC0006A197B098C099D090E9477D92DEC3CEC7C
:103FD0004CE45EE30E9401DB7B018C0160917C1369
:103FE00070917D13882777FD8095982F0E9477D94F
:103FF0002DEC3CEC4CE45FE30E9401DB9B01AC0147
:10400000C801B7010E94F8D70E9444D99B01709360
:104010007D1360937C13A0927813B0927913C092B1
:104020007A13D0927B1380916408882349F08091A1
:1040300072139091731388971CF481E08093771327
:10404000121613061CF081E08093771380E01F9115
:104050000F91FF90EF90DF90CF90BF90AF900895B9
:10406000CF92DF92FF920F931F93CF93DF930E9423
:10407000371700D000D008E017E0ADB7BEB71296F2
:104080001C930E93119789EC96E014969C938E9353
:1040900013970E9408C60F900F900F900F9068EE34
:1040A00073E080E090E00E9494D6A5ECCA2EA6E0D2
:1040B000DA2EC0E0D0E0F02E012F21C088E69FE08C
:1040C0006C2F0E94258900D000D000D0EDB7FEB73C
:1040D0003196ADB7BEB71196FC92119712960C931C
:1040E000D382C282958384830E9408C62196EDB74D
:1040F000FEB736960FB6F894FEBF0FBEEDBFC930BF
:10410000D105E4F288E097E00E9419D564E170E0FF
:1041100080E090E00E9494D688E097E00E947FC6FD
:10412000181619061CF0C0E0D0E0E9CF80E0DF915E
:10413000CF911F910F91FF90DF90CF900895A0E055
:10414000B0E0E5EAF0E20C9455DC0E94371768EE27
:1041500073E080E090E00E9494D68EECC82E86E05A
:10416000D82EB8E0EB2EB7E0FB2E6DE471E080E0D6
:1041700090E00E9494D60E9490168091660F9091D4
:10418000670F0E9407BCC091660FD091670F8DA189
:10419000882309F445C08DB79EB742970FB6F894AF
:1041A0009EBF0FBE8DBF0DB71EB70F5F1F4FEDB780
:1041B000FEB7F282E182F801D382C2828A859B85B2
:1041C000AC85BD8584839583A683B7838E859F85C3
:1041D000A889B98980879187A287B3876A897B89F3
:1041E0008C899D8924E630E040E050E00E9430DC7C
:1041F000F80124873587468757878CA1808B118AE1
:104200000E9408C6E091660FF091670F15A28DB766
:104210009EB742960FB6F8949EBF0FBE8DBF06C0E4
:1042200088E097E060E072E00E9436D488E097E092
:104230000E947FC6181619060CF097CF80E0CDB704
:10424000DEB7E8E00C9471DCCF93DF93C0E0D0E000
:1042500088E097E062E072E00E9436D42196C8328E
:10426000D105B1F788E097E064E072E00E9430D5B4
:10427000DF91CF910895CF93DF93EC0107C0219791
:1042800088E097E064E072E00E9430D51C161D06BD
:10429000B4F3DF91CF91089500D000D088E097E08B
:1042A000EDB7FEB79283818381ED9FE09483838392
:1042B0000E9408C60F900F900F900F900E9424212B
:1042C0000E9415180E945B1882E090E00E943B213A
:1042D00008950F931F9300D000D008E017E0ADB70A
:1042E000BEB712961C930E93119789E190E1149634
:1042F0009C938E9313970E9408C60F900F900F9077
:104300000F900E942421EDB7FEB73E970FB6F894A8
:10431000FEBF0FBEEDBF3196ADB7BEB712961C9370
:104320000E93119786ED9FE0938382838091E0073F
:104330009091E107958384838091ED079091EE073A
:104340009783868380911F089091200891878087AA
:104350008091FA07992787FD9095938782878091AE
:10436000120890911308958784870E9408C6EDB7BC
:10437000FEB73E960FB6F894FEBF0FBEEDBF82E0CB
:1043800090E00E943B211F910F9108950F931F937E
:1043900000D000D008E017E0ADB7BEB712961C936E
:1043A0000E93119781E590E114969C938E93139749
:1043B0000E9408C60F900F900F900F900E9424212A
:1043C000EDB7FEB73E970FB6F894FEBF0FBEEDBF38
:1043D0003196ADB7BEB712961C930E93119783E238
:1043E00090E19383828380917C0790917D07A091D7
:1043F0007E07B0917F0784839583A683B7838091DE
:104400008B0790918C079187808780913D089091D0
:104410003E08AA2797FDA095BA2F82879387A48785
:10442000B5870E9408C6EDB7FEB73E960FB6F89462
:10443000FEBF0FBEEDBF82E090E00E943B211F91C6
:104440000F9108950F931F9300D000D008E017E05C
:10445000EDB7FEB71283018388EC90E194838383E8
:104460000E9408C60F900F900F900F900E94242179
:1044700000D000D0EDB7FEB7128301838BEB90E143
:10448000948383830E9408C60F900F900F900F9023
:104490008AEE9BE00E94B21900D000D0EDB7FEB7C3
:1044A0001283018383EB90E1948383830E9408C687
:1044B0000F900F900F900F908BE39CE00E94B21929
:1044C00000D000D0EDB7FEB7128301838DEA90E1F2
:1044D000948383830E9408C60F900F900F900F90D3
:1044E0008CE89CE00E94B21900D000D0EDB7FEB776
:1044F000128301838AE990E1948383830E9408C632
:104500000F900F900F900F908DED9CE00E94B219CC
:1045100000D000D0EDB7FEB71283018382E990E1AD
:10452000948383830E9408C60F900F900F900F9082
:104530008EE29DE00E94B21900D000D0EDB7FEB728
:10454000128301838CE890E1948383830E9408C6E0
:104550000F900F900F900F908FE79DE00E94B2197F
:1045600000D000D0EDB7FEB71283018381E890E15F
:10457000948383830E9408C60F900F900F900F9032
:1045800080ED9DE00E94B21900D000D0EDB7FEB7DB
:10459000128301838AE790E1948383830E9408C693
:1045A0000F900F900F900F9081E29EE00E94B21941
:1045B00000D000D0EDB7FEB7128301838AE690E108
:1045C000948383830E9408C60F900F900F900F90E2
:1045D00083EC9EE00E94B21900D000D0EDB7FEB788
:1045E0001283018389E590E1948383830E9408C646
:1045F0000F900F900F900F9084E19FE00E94B219EE
:1046000082E090E00E943B211F910F91089500D01D
:1046100000D088E097E0EDB7FEB7928381838FECFE
:1046200090E1948383830E9408C60F900F900F90AF
:104630000F900E9424210E94DE1882E090E00E94E8
:104640003B210895CF93DF9300D000D0C8E0D7E09E
:10465000EDB7FEB7D283C18381EF90E1948383836A
:104660000E9408C60F900F900F900F900E94242177
:1046700000D000D0EDB7FEB7D283C18386EE90E1C3
:10468000948383830E9408C68091A1080F900F90A5
:104690000F900F90813049F400D000D0EDB7FEB7F5
:1046A000D283C1838EED90E10AC0882381F400D0CB
:1046B00000D0EDB7FEB7D283C18386ED90E194833D
:1046C00083830E9408C60F900F900F900F9082E096
:1046D00090E00E943B21DF91CF910895CF93DF932B
:1046E000FB01C285D385CE0166E879E00E94F7DD43
:1046F000892B21F481E08093A10810C0CE0164E8E9
:1047000079E00E94F7DD892B39F0CE0162E879E08B
:104710000E94F7DD892B39F41092A10886E998E010
:104720000E94908B12C000D000D088E097E0EDB7D7
:10473000FEB79283818382E799E0948383830E940A
:1047400008C60F900F900F900F900E94222380E0D8
:10475000DF91CF91089500D000D000D0EDB7FEB723
:10476000319688E097E0ADB7BEB712969C938E93D2
:10477000119788EF90E1938382838091490790910C
:104780004A07958384830E9408C68DB79EB7069614
:104790000FB6F8949EBF0FBE8DBF0E94242182E009
:1047A00090E00E943B21089500D000D088E097E07F
:1047B000EDB7FEB7928381838EE091E1948383838A
:1047C0000E9408C60F900F900F900F900E94242116
:1047D000809181140E94A11882E090E00E943B2108
:1047E000089500D000D088E097E0EDB7FEB792833F
:1047F000818384E791E1948383830E9408C60F90AC
:104800000F900F900F900E942421809170088823B0
:1048100011F40E94A11880917008813091F400D0A9
:1048200000D088E097E0EDB7FEB7928381838CE6F5
:1048300091E1948383830E9408C60F900F900F909C
:104840000F9080917008823091F400D000D088E001
:1048500097E0EDB7FEB79283818384E691E194837C
:1048600083830E9408C60F900F900F900F90809145
:104870007008833091F400D000D088E097E0EDB765
:10488000FEB79283818389E591E1948383830E94BB
:1048900008C60F900F900F900F9080917008843091
:1048A00091F400D000D088E097E0EDB7FEB7928396
:1048B00081838BE491E1948383830E9408C60F90E7
:1048C0000F900F900F9082E090E00E943B2108959E
:1048D000CF93DF93FB01EB012A968285938561EDEF
:1048E00078E00E94F7DD892B19F4109270080FC050
:1048F0002A813B814C815D81DA01C9010197A109BF
:10490000B1090497A105B10538F42093700885E634
:1049100098E00E94908B12C000D000D088E097E011
:10492000EDB7FEB7928381838EEB98E09483838307
:104930000E9408C60F900F900F900F900E94F123D5
:1049400080E0DF91CF910895FF920F931F93F62E91
:1049500000D000D000D0EDB7FEB7319608E017E0E8
:10496000ADB7BEB712961C930E93119728EF3EE099
:1049700033832283848315820E9408C68DB79EB735
:1049800006960FB6F8949EBF0FBE8DBFEF2DF0E0D8
:10499000EE0FFF1FE857FB4F60817181C8010E9435
:1049A00030D51F910F91FF900895CF93DF9300D0E2
:1049B00000D088E097E0EDB7FEB79283818389E865
:1049C0009FE0948383830E9408C60F900F900F90FE
:1049D0000F900E942421C0E0D0E0FE01E45DF74F7B
:1049E0008C2F60810E94A4242196C630D105A9F79E
:1049F00082E090E00E943B21DF91CF91089588E012
:104A000097E065E072E00E9430D508958DE191E174
:104A10000E949AC10E945B180E944C2180E0089578
:104A200000D000D088E097E0EDB7FEB79283818395
:104A300085EE99E0948383830E9408C60F900F90BF
:104A40000F900F9088E097E00E94ADC6FFEF8F3F78
:104A50009F07C1F38937910529F08935910511F038
:104A60008FEF08950E94568C00D000D088E097E028
:104A7000EDB7FEB79283818380EC99E094838383C2
:104A80000E9408C60F900F900F900F9068EE73E091
:104A900080E090E00E9494D6FFCFEF92FF920F93B8
:104AA0001F93CF93DF937B018230A1F000D000D021
:104AB00088E097E0EDB7FEB79283818387EC9AE0B8
:104AC000948383830E9408C68FEF0F900F900F90FE
:104AD0000F9089C0FB0102851385C80163EC7AE061
:104AE0000E94E4DD892B19F4CFEFDFEF5BC0C80132
:104AF00065EB7AE00E94E4DDC0E0D0E0892B11F4A0
:104B0000C1E0D0E0C80168EA7AE00E94E4DD892BC8
:104B100009F4C260C80164EA7AE00E94E4DD892BEE
:104B200009F4C460C80161EA7AE00E94E4DD892BDF
:104B300009F4C860C8016CE97AE00E94E4DD892BC1
:104B400009F4C061C80167E97AE00E94E4DD892BBD
:104B500009F4C062C80162E97AE00E94E4DD892BB1
:104B600009F4C064C8016EE87AE00E94E4DD892B94
:104B700009F4C068C8016AE87AE00E94E4DD892B84
:104B800009F4D160C80162E87AE00E94E4DD892B73
:104B900009F4D260C8016BE77AE00E94E4DD892B5A
:104BA00009F4D460F7018081918164E77AE00E9482
:104BB000E4DD892B39F480914A0890914B08C82B89
:104BC000D92B08C0C095D09580914A0890914B0888
:104BD000C823D923D0934B08C0934A088FE398E0A9
:104BE0000E94908B80E0CDB7DEB7E6E00C9473DCDA
:104BF0000F931F930FED17E1C80163EA0E9416C4DB
:104C0000C80165E90E9416C4C8016AE00E9416C482
:104C1000C8016AEB0E9416C41F910F910895CF93AB
:104C2000DF9300D000D088E097E0EDB7FEB7928325
:104C3000818387EE9AE0948383830E9408C6C1E053
:104C4000D0E00F900F900F900F908FED97E1BE0185
:104C50000E946CC32196F0E1C030DF07B1F78FED01
:104C600097E161E070E00E9460C38FED97E163EA35
:104C70000E9416C48FED97E165E90E9416C48FED7E
:104C800097E160EF0E9416C48FED97E160E00E940B
:104C900016C48FED97E16AEB0E9416C48FED97E181
:104CA0000E948EC400D000D088E097E0EDB7FEB738
:104CB0009283818389ED9AE0948383830E9408C65E
:104CC0000F900F900F900F9080E0DF91CF9108959B
:104CD000EF92FF920F931F9300D000D008E017E0EF
:104CE000ADB7BEB712961C930E9311978CE892E164
:104CF00014969C938E9313970E9408C60F900F9062
:104D00000F900F903FEDE32E37E1F32EC7010E9485
:104D100006C5E82FF0E0EE0FFF1FE857FB4F60815C
:104D20007181C8010E9436D4C7010E9477C500D0A6
:104D300000D000D0EDB7FEB73196ADB7BEB7129632
:104D40001C930E93119726E832E1338322839583D7
:104D500084830E9408C6EDB7FEB736960FB6F89466
:104D6000FEBF0FBEEDBF1F910F91FF90EF90089512
:104D7000CF92DF92EF92FF920F931F930FED17E107
:104D8000C8010E9477C56C01C8010E9477C57C01EB
:104D9000C8010E9477C52DB73EB72A5030400FB6E4
:104DA000F8943EBF0FBE2DBFEDB7FEB7319628E099
:104DB00037E0ADB7BEB712963C932E93119721E919
:104DC00032E133832283D582C482F782E6829187DF
:104DD00080870E9408C62DB73EB7265F3F4F0FB6AB
:104DE000F8943EBF0FBE2DBF1F910F91FF90EF9023
:104DF000DF90CF900895ABE0B0E0E1E0F7E20C94F3
:104E00004BDC0FED17E1C8010E9477C599878887B1
:104E1000C8010E9477C59F838E83C8010E9406C582
:104E20008D83C8010E9477C59C838B83C8010E9433
:104E300077C59A838983C8010E9477C57C01C80120
:104E40000E9477C56C01C8010E9477C59B878A873D
:104E5000C8010E9477C51C01C8010E9477C52C01BA
:104E6000C8010E9477C53C01C8010E9477C54C016A
:104E7000C8010E9477C55C018DB79EB780970FB6B9
:104E8000F8949EBF0FBE8DBF0DB71EB70F5F1F4FAB
:104E900088E097E0EDB7FEB7928381838EEC92E1D4
:104EA000F8019383828388859985958384838E8195
:104EB0009F81978386839D81908711868B819C81BA
:104EC0009387828789819A8195878487F786E6868A
:104ED000EE24D7FCE094FE2CC701B6010E9477D9DE
:104EE000F801608B718B828B938B8A859B85958B68
:104EF000848B378A268A518E408E738E628E958E71
:104F0000848EB78EA68E0E9408C6EDB7FEB7B09607
:104F10000FB6F894FEBF0FBEEDBF2B96E2E10C94E6
:104F200067DC3F924F925F926F927F928F929F9237
:104F3000AF92BF92CF92DF92EF92FF920F931F93A7
:104F40000FED17E1C8010E9477C52C01C8010E942E
:104F500006C5382EC8010E9477C53C01C8010E94D1
:104F600077C54C01C8010E9477C55C01C8010E9449
:104F700077C56C01C8010E9477C57C01C8010E94F9
:104F800077C52DB73EB7245130400FB6F8943EBFD9
:104F90000FBE2DBFEDB7FEB7319628E037E0ADB7B5
:104FA000BEB712963C932E9311972BE033E13383D7
:104FB0002283558244823682178271866086938668
:104FC0008286B586A486D786C686F18AE08A938BC8
:104FD000828B0E9408C62DB73EB72C5E3F4F0FB69E
:104FE000F8943EBF0FBE2DBF1F910F91FF90EF9021
:104FF000DF90CF90BF90AF909F908F907F906F90F9
:105000005F904F903F900895AF92BF92CF92DF9202
:10501000EF92FF920F931F930FED17E1C8010E94CB
:1050200077C55C01C8010E9477C56C01C8010E9468
:1050300077C57C01C8010E9477C52DB73EB72C50BB
:1050400030400FB6F8943EBF0FBE2DBFEDB7FEB790
:10505000319628E037E0ADB7BEB712963C932E9359
:10506000119721E333E133832283B582A482D7826F
:10507000C682F186E086938782870E9408C62DB794
:105080003EB7245F3F4F0FB6F8943EBF0FBE2DBF13
:105090001F910F91FF90EF90DF90CF90BF90AF9056
:1050A00008951F938FED97E161E070E00E948DC538
:1050B00010E08FED97E10E9406C5113051F01130DC
:1050C00018F0123099F408C010E0833A79F411E036
:1050D0000DC0853951F407C0803F39F48FED97E159
:1050E0000E9406C50AC012E001C010E08FED97E1F2
:1050F0000E94CBC20197E9F280E01F910895CF9200
:10510000DF92EF92FF920F937C016B01BA01A9012C
:10511000202F0E94FC8D86E895E0F7019183808323
:10512000D486C38680917D1790917E170D969093BB
:105130007E1780937D170F91FF90EF90DF90CF90B7
:105140000895EF92FF920F931F937C01162FBA01DF
:10515000A901202F0E94FC8D84E995E0F70191833D
:105160008083138780917D1790917E170C96909382
:105170007E1780937D171F910F91FF90EF900895F8
:105180000F931F938C0124600E94FC8D87EF95E0A4
:10519000F8019183808380917D1790917E170B9603
:1051A00090937E1780937D171F910F910895FC01B6
:1051B0008AE695E091838083CF010E94498D08950E
:1051C000FC0188E795E091838083CF010E94498D9F
:1051D0000895FC0186E895E091838083CF010E94C9
:1051E000498D0895FC0184E995E091838083CF0186
:1051F0000E94498D0895FC018AE695E091838083A1
:10520000CF010E94498D0895FC0180EB95E09183C8
:105210008083CF010E94498D08950F931F938C01C5
:1052200080579F4F0E94E928C8018D579F4F0E94C9
:10523000E928C8018A589F4F0E94E928C801875968
:105240009F4F0E94E928C801845A9F4F0E94E92875
:10525000C801815B9F4F0E94E928C8018E5B9F4F68
:105260000E94E928C801C5960E94E92887EF95E0C9
:10527000F80193A782A7C8018A960E94498D1F91C1
:105280000F9108950F931F938C01C8960E94E928EF
:10529000C80189960E94FB28C8014A960E94FB28F3
:1052A000C8010B960E94FB2887EF95E0F8019183D7
:1052B0008083C8010E94498D1F910F9108950F931B
:1052C0001F938C018D5B9F4F0E94F228C801C196ED
:1052D0000E94E928C80184960E94E928C8014796DF
:1052E0000E94E92887EF95E0F80191838083C80147
:1052F0000E94498D1F910F910895FC018EEB95E05E
:1053000091838083CF010E94498D0895FC018CEC2C
:1053100095E091838083CF010E94498D08950F937A
:105320001F938C018AE695E0F80191838083C80180
:105330000E94498DC8010E94C8911F910F91089544
:105340000F931F938C0188E795E0F8019183808388
:10535000C8010E94498DC8010E94C8911F910F91F8
:1053600008950F931F938C0186E895E0F8019183CF
:105370008083C8010E94498DC8010E94C8911F9175
:105380000F9108950F931F938C0184E995E0F80124
:1053900091838083C8010E94498DC8010E94C891F1
:1053A0001F910F9108950F931F938C018AE695E04A
:1053B000F80191838083C8010E94498DC8010E9431
:1053C000C8911F910F9108950F931F938C0180EB4B
:1053D00095E0F80191838083C8010E94498DC8013E
:1053E0000E94C8911F910F9108950F931F938C01F4
:1053F0008EEB95E0F80191838083C8010E94498D6E
:10540000C8010E94C8911F910F9108950F931F9397
:105410008C018CEC95E0F80191838083C8010E9497
:10542000498DC8010E94C8911F910F91089546307F
:10543000510540F0DC011B96FB0186E001900D92C6
:105440008150E1F786E090E00895FC014630510577
:1054500038F0DB013B9686E001900D928150E1F738
:1054600086E090E008954831510540F0DC011B963C
:10547000FB0188E101900D928150E1F788E190E015
:105480000895FC014831510538F0DB013B9688E175
:1054900001900D928150E1F788E190E008954C3041
:1054A000510540F0DC011B96FB018CE001900D9250
:1054B0008150E1F78CE090E00895FC014C305105FB
:1054C00038F0DB013B968CE001900D928150E1F7C2
:1054D0008CE090E008954432510540F0DC011B96C9
:1054E000FB0184E201900D928150E1F784E290E0AB
:1054F0000895FC014432510538F0DB013B9684E20B
:1055000001900D928150E1F784E290E00895A6E0C9
:10551000B1E0EDE8FAE20C944BDC682E292E59013B
:105520006A0148015E2C7F2C3090F7044090F8040B
:1055300086E18D83DE011696FB018FE001900D92CE
:105540008150E1F746E0E42EF12CEC0EFD1EC60181
:10555000B5014FE097010E94510F082F10E0E82F8E
:10556000E15FF0E0D701AE0FBF1F9C92DE011796FE
:10557000EA0FFB1F80828F5E90E0E80EF91EF701B4
:105580007082A80FB91F5C920D5E1F4F7E010894B8
:10559000E11CF11CC701632D442D262D0E942B0E0A
:1055A000862D922DB7010E94540FCA5FDE4FE2E1B3
:1055B0000C9467DCA6E0B1E0E0EEFAE20C9455DC76
:1055C000D82EC92E1091F7047091F8048EEF8D83B8
:1055D0006E83DE011796FA0182E301900D928150ED
:1055E000E1F77E010894E11CF11CC701612F472FF0
:1055F0002D2D03E310E00E942B0E8D2D9C2DB70165
:105600000E94540FCA5FDE4FE8E00C9471DCA3E304
:10561000B0E0EDE0FBE20C945BDCDE0112969E0153
:105620002C5C3F4FFA014F5F5F4FE491ED93A2175F
:10563000B307C1F7FC0182859385AE014E5F5F4FD2
:105640000E94DA2AE396E2E00C9477DC8091C807A6
:10565000992787FD9095A92FB92F2091BF133091DD
:10566000C0134091C1135091C21382179307A4072E
:10567000B50714F480E008958FE192E161E04AE615
:1056800052E10E94072B81E00895A0E0B0E0EBE436
:10569000FBE20C9453DC742F052F5901C82EDD2436
:1056A000C601880F991FDC0143E0AA0FBB1F4A9572
:1056B000E1F7A81BB90BA355BB4E15968D919C9194
:1056C00016970197099758F11C9211961C92119701
:1056D000F60133E0EE0FFF1F3A95E1F7EC19FD09F3
:1056E000EE0FFF1FE155FB4E108213961C9213978D
:1056F00014961C92149716961C921E921597179644
:105700001C9217971D961C921E921C971B961C921A
:105710001E921A9718961C92189719961C9286E05A
:1057200091E0C89EA001C99E500DD89E500D112435
:1057300047535B4EF60193E0EE0FFF1F9A95E1F79A
:10574000EC19FD09EE0FFF1FE155FB4E1082C6015B
:10575000880F991FFC01A3E0EE0FFF1FAA95E1F748
:10576000E81BF90BE355FB4E0580F681E02DEA308E
:10577000F10508F0C0C1EE58FF4FEC010C9482DC3B
:10578000653509F0B8C1C601880F991FFC0123E0F7
:10579000EE0FFF1F2A95E1F7E81BF90BE355FB4ECF
:1057A00082E090E0968385832FEF3FEF86E091E0E3
:1057B000C89EF001C99EF00DD89EF00D1124E7534C
:1057C000FB4EEC5FFE4F2193308395C186E091E064
:1057D000C89EF001C99EF00DD89EF00D1124E7532C
:1057E000FB4E60838E01B3E0000F111FBA95E1F705
:1057F0000C1B1D0B03551B4ED80117961C92CA019A
:105800000E949E0E84E090E0F8011BC086E091E0CB
:10581000C89EF001C99EF00DD89EF00D1124E753EB
:10582000FB4E6183CA010E949E0EFE01A3E0EE0FB3
:10583000FF1FAA95E1F7EC1BFD0BE355FB4E83E040
:1058400090E09683858357C183E890E0C89EF0017D
:10585000C99EF00DD89EF00D1124EE0FFF1FE553E9
:10586000FB4E6083CA010E949E0EFE0133E0EE0FE4
:10587000FF1F3A95E1F7EC1BFD0BE355FB4E85E06E
:1058800090E0DFCF86E091E0C89EF001C99EF00D68
:10589000D89EF00D1124E753FB4E6383CA010E948A
:1058A0009E0EFE0123E0EE0FFF1F2A95E1F7EC1B91
:1058B000FD0BE355FB4E86E090E0C3CF86E091E020
:1058C000C89E8001C99E100DD89E100D112407534B
:1058D0001B4ED80114966C93CA010E949E0EF801CB
:1058E0008081E601CC0FDD1F882359F4FE01B3E06F
:1058F000EE0FFF1FBA95E1F7EC1BFD0BE355FB4ED6
:1059000039C0FE01A3E0EE0FFF1FAA95E1F7EC1BE3
:10591000FD0BE355FB4E87E090E093CF7C01F3E075
:10592000EE0CFF1CFA95E1F7E81AF90A8DEA94E10A
:10593000E80EF91ED70117962C91179786E091E093
:10594000C89E8001C99E100DD89E100D11240753CA
:105950001B4EF801E20FF11D65832F5F17962C9304
:10596000CA010E949E0EF7019781D8018C91981769
:1059700009F0C1C088E090E064CF86E091E0C89E65
:105980009001C99E300DD89E300D112427533B4EF7
:10599000A9014C5F5E4FFA018081E601CC0FDD1F4B
:1059A0006817B1F1DE0173E0AA0FBB1F7A95E1F72A
:1059B000AC1BBD0BA355BB4E14968C9114978F5FF7
:1059C00014968C931497F60193E0EE0FFF1F9A95AF
:1059D000E1F7EC19FD09EE0FFF1FE155FB4E1082B8
:1059E00081E090E016969C938E931597653509F0AB
:1059F00082C082E090E016969C938E9315978FEF6D
:105A00009FEFDA018C93F901EB5FFE4F908373C037
:105A1000FE01B3E0EE0FFF1FBA95E1F7EC1BFD0BA3
:105A2000E355FB4E89E090E00CCF86E091E0C89E04
:105A30009001C99E300DD89E300D112427533B4E46
:105A4000A5E0EA2EA1E0FA2EE20EF31EF701808116
:105A5000E601CC0FDD1FD601E3E0AA0FBB1FEA95DC
:105A6000E1F7681739F1FE0193E0EE0FFF1F9A95F9
:105A7000E1F7EC1BFD0BE355FB4E84818F5F8483C4
:105A8000AC19BD09AA0FBB1FA155BB4E1C9281E0EA
:105A900090E096838583653571F582E090E096838A
:105AA00085838FEF9FEFF901EC5FFE4F8083D70175
:105AB0009C9321C0AC19BD09AA0FBB1FA155BB4EB9
:105AC00081E08C93FE0163E0EE0FFF1F6A95E1F722
:105AD000EC1BFD0BE355FB4E81E090E09683858344
