:100000000C944C0C0C94780C0C94780C0C94780C8C
:100010000C94780C0C94780C0C94780C0C94780C50
:100020000C94780C0C94780C0C94780C0C94780C40
:100030000C94780C0C94780C0C94780C0C94FE8D29
:100040000C94780C0C94780C0C94780C0C94780C20
:100050000C94780C0C94780C0C94780C0C94C2D9F9
:100060000C94780C0C9465100C94A5100C94780CDE
:100070000C94780C0C94780C0C94780C0C94780CF0
:100080000C94780C0C94780C0C94780C0C94780CE0
:100090000C94F7100C9437110C94780C0C94F9D53F
:1000A0000C94780C0C946A8C0C94780C0C94780C4E
:1000B0000C94780C0C94780C0C94780C0C94780CB0
:1000C0000C94780C0C94780C0C94780C0C94780CA0
:1000D0000C94780C0C94780C0C9489110C94C91124
:1000E0000C94780C752A752A9B2AD92ABB2AF72AE0
:1000F000132B432B722BCA2BD378F97805791779F8
:1001000020790D8229790D820D820D8235793E7913
:100110004779777975797579757983797579797989
:100120007579757986798E7988798B79757975790C
:1001300075797579757975797579757975798E7936
:1001400075799079E18CE68CEB8CF08CF58CFA8CDF
:10015000FF8C048D098D0E8D138D5FBE5ABE63BE5C
:1001600067BE74BE8CBEB1BEC1BEF5BFF0BFF9BFE5
:1001700001C025C030C047C063C06AC0FFDA02DBDF
:10018000F5DAF9DA3BDB06DB0ADB10DB14DB18DB24
:100190001EDB22DB26DB2CDB30DB36DB036EDB36C3
:1001A0003D9A9999993DABAAAA2A3E000000803F4A
:1001B000084AD73B3BCE016E84BCBFFDC12F3D6CCE
:1001C00074319ABD56833DDA3D00C77F11BED9E434
:1001D000BB4C3E916BAAAABE000000803F072C7A60
:1001E000A5BA6CC590DA3B9365FC8BBC53F810FD47
:1001F0003C5692834DBD879D3AB63DCBC9BF5BBE91
:1002000073DA0FC93F05A84CCDB2D44EB93836A920
:10021000020C50B9918688083CA6AAAA2ABE000002
:1002200000803F08000000BE922449123EABAAAAFB
:100230002ABECDCCCC4C3E00000080BEABAAAAAA00
:100240003E00000000BF000000803F0000000000F2
:10025000084178D3BB4387D1133D190E3CC3BD423F
:1002600082AD2B3E68EC8276BED98FE1A93E4C80F0
:10027000EFFFBE01C4FF7F3F00000000004C6F672E
:100280000064756D70000000000000000000006E4A
:10029000656572617365000000000000000000B039
:1002A00027656E61626C650000000000000000EFD1
:1002B0002664697361626C6500000000000000EF55
:1002C0002668656C70000000000000000000009BC4
:1002D00017736574757000657261736500000000C6
:1002E000000000000038387265736574000000007B
:1002F0000000000000B226706964000000000000E9
:1003000000000000005425726164696F0000000065
:1003100000000000009E426D6F746F727300000059
:1003200000000000006941657363000000000000E8
:1003300000000000006D176C6576656C0000000021
:1003400000000000004A256D6F6465730000000026
:10035000000000000013416672616D65000000003E
:100360000000000000A023626174746572790000CF
:100370000000000000C924736F6E6172000000006D
:100380000000000000AD37636F6D70617373000093
:10039000000000000010396465636C696E61746967
:1003A0006F6E000000FC3873686F7700000000007B
:1003B0000000000000D438414320322E302E33207C
:1003C00042657461006C6F677300000000000000FC
:1003D0000000002437736574757000000000000091
:1003E000000000D636746573740000000000000041
:1003F000000000BF3668656C70000000000000005F
:100400000000005917746573740070776D00000068
:100410000000000000000000A140726164696F00EC
:10042000000000000000000035406661696C7361E7
:100430006665000000000000373F67707300000031
:100440000000000000000000342061646300000030
:100450000000000000000000BC1F696D7500000076
:100460000000000000000000CB85626174746572BA
:100470007900000000000000451774756E650000EB
:100480000000000000000000E23E747269000000FD
:1004900000000000000000007F3E63757272656E10
:1004A0007400000000000000F63D72656C61790088
:1004B00000000000000000003218776179706F6959
:1004C0006E74730000000000C056616C746974752E
:1004D0006465000000000000433C636F6D70617351
:1004E0007300000000000000F31A786265650000E8
:1004F00000000000000000000018656564756D7064
:100500000000000000000000921A726177677073AB
:100510000000000000000000C1176D697373696F6F
:100520006E00000000000000585777700020253052
:10053000327800253034783A00426567696E205879
:1005400042656520582D4354552052616E676520E1
:10055000616E64205253534920546573743A0A0003
:10056000436F6D706173733A200048656164696E12
:10057000673A20256C642C2058595A3A2025642C5F
:100580002025642C2025642C0958595A6F66663A38
:100590002025362E32662C2025362E32662C20253C
:1005A000362E32660A00425F616C743A2025642C54
:1005B00020535F616C743A2025640A0048697420F6
:1005C0007261646975733A2025640A002564207796
:1005D0006179706F696E74730A006F662025646DAF
:1005E0000A000A00486F6C6420616C746974756459
:1005F00065200052656C6179206F66660A0052655D
:100600006C6179206F6E0A00563A2025342E3466CC
:100610002C20413A2025342E34662C206D41683A36
:100620002025342E34660A00696E7075743A2025D0
:1006300064096F757470757425640A00737461625F
:10064000206B443A2025312E33660A004E6F742009
:10065000656E61626C65640A00723A20256C6409FB
:10066000703A20256C640920793A20256C640A00D0
:10067000693A256409004144430A004C61743A20F8
:10068000256C642C204C6F6E20256C642C20416CF2
:10069000743A20256C646D2C2023736174733A20A6
:1006A00025640A004C4F5320636175736564206EA6
:1006B0006F206368616E676520696E2041434D2E2F
:1006C0000A005448524F54544C45204641494C531B
:1006D000414645204143544956415445443A20251A
:1006E000642C2000434F4E54524F4C204D4F4445F4
:1006F000204348414E4745443A20005448524F5405
:10070000544C45204348414E474544202564200A27
:1007100000556E706C756720626174746572792C17
:10072000207468726F74746C6520696E206E6575D4
:100730007472616C2C207475726E206F6666207204
:100740006164696F2E0A00494E2020313A202564E9
:1007500009323A20256409333A20256409343A20C5
:10076000256409353A20256409363A20256409377D
:100770003A2025640A00494E3A20313A202564097E
:10078000323A20256409333A20256409343A202579
:100790006409353A20256409363A20256409373A38
:1007A00020256409383A2025640A00436F6D6D6185
:1007B0006E64733A0A20206C6F67730A2020736599
:1007C0007475700A2020746573740A0A4D6F76651B
:1007D0002074686520736C6964652073776974633D
:1007E0006820616E6420726573657420746F2046A2
:1007F0004C592E0A0A000A4F7074696F6E733A5B87
:100800006F6E2C6F66665D0A006F6666006F6E0025
:100810000A4F7074696F6E733A5B6F6E2C206F664F
:10082000665D0A006F6666006F6E000A4F7074693D
:100830006F6E733A20302D34000A4F7074696F6EFA
:10084000733A5B2B2C20782C207472692C206865FD
:1008500078612B2C2068657861782C2079365D0AC8
:1008600000686578612B00793600686578617800EA
:100870007472690078002B000A4D6F766520524330
:1008800020746F67676C6520737769746368207480
:100890006F206561636820706F736974696F6E2083
:1008A000746F20656469742C206D6F7665206169B2
:1008B0006C65726F6E20737469636B20746F207344
:1008C000656C656374206D6F6465732E000A556EE8
:1008D000706C75672C207468656E20706C75672D60
:1008E000696E20626174746572793B2043616C6942
:1008F000627261746520455343732E0A20507265FD
:10090000737320456E74657220746F2063616E632B
:10091000656C2E0A000A4D6F766520616C6C206351
:100920006F6E74726F6C7320746F206561636820E2
:1009300065787472656D652E2048697420456E7403
:10094000657220746F20736176653A2000736F6E54
:100950006172006261726F006E617600796177008A
:1009600073746162696C697A650064656661756C4F
:1009700074000A464143544F52592052455345543E
:1009800020636F6D706C657465202D207265626FD9
:100990006F742041504D000A275927202B20456EA7
:1009A00074657220746F20666163746F727920724F
:1009B000657365742C20616E79206F746865722090
:1009C0006B657920746F2061626F72743A0A000A55
:1009D000436F6D6D616E64733A0A202064756D70AB
:1009E000203C6E3E202065726173652028616C6C2E
:1009F000206C6F6773290A2020656E61626C652028
:100A00003C6E616D653E207C20616C6C0A20206428
:100A1000697361626C65203C6E616D653E207C206F
:100A2000616C6C0A0A00656E61626C650043555228
:100A300052454E5400434D4400524157004D4F44DF
:100A400045004E54554E004354554E00504D0047FE
:100A500050530041545449545544455F4D4544005A
:100A600041545449545544455F4641535400616CC8
:100A70006C006D697373696E67206C6F67207479A1
:100A800070650A000A4C6F67206572617365642E99
:100A90000A000A45726173696E67206C6F672E2EBB
:100AA0002E0A00415454454E54494F4E202D2045A6
:100AB000726173696E67206C6F6720696E202564B0
:100AC000207365636F6E64732E0A00446F6E650A4F
:100AD0000044756D70696E67204C6F67206E756D90
:100AE0006265722025642C2020202073746172744A
:100AF0002025642C202020656E642025640A006275
:100B00006164206C6F67206E756D6265720A0059B2
:100B100041575F44414D50005354425F44414D5052
:100B2000005448525F534F4E5F005448525F424159
:100B3000525F004E41565F57505F004E41565F4C2A
:100B40004F4E5F004E41565F4C41545F005354423C
:100B50005F5941575F005354425F5049545F0053FF
:100B600054425F524C4C5F004143525F5941575FC2
:100B7000004143525F5049545F004143525F524C21
:100B80004C5F00524331305F005243395F005243A3
:100B9000385F005243375F005243365F005243359F
:100BA0005F005243345F005243335F005243325F71
:100BB000005243315F00455343004D41475F454E6E
:100BC00041424C4500424154545F434150414349E6
:100BD000545900424154545F4D4F4E49544F5200B6
:100BE000534F4E41525F454E41424C4500465241A3
:100BF0004D455F434F4E46494700414C545F484F77
:100C00004C445F52544C00474E445F4142535F5046
:100C10005245535300474E445F54454D50004C4F8E
:100C2000475F4249544D41534B0050495443485F3C
:100C30004D415800464C494748545F4D4F44455339
:100C400000464C545F4D4F44455F43480054524961
:100C50004D5F5448524F54544C45005448525F46DF
:100C6000535F56414C5545005448525F46535F41CF
:100C70004354494F4E005448525F4641494C5341FA
:100C80004645005448525F4D4158005448525F4D0C
:100C9000494E004C4F495445525F524144495553C7
:100CA0000057505F5241444955530057505F4D55CE
:100CB00053545F494E4445580057505F494E444590
:100CC000580057505F544F54414C0057505F4D4FA0
:100CD00044450058545241434B5F414E474C4500F8
:100CE0005854524B5F4741494E004D4158005452B1
:100CF000494D004D494E00494D41580044004900BE
:100D00005000494D555F53454E534F525F43414C40
:100D1000004C6F6720232025642C20202020737432
:100D20006172742025642C202020656E6420256467
:100D30000A000A2564206C6F67730A000A4E6F2050
:100D40006C6F67730A0043555252454E540020257C
:100D50005300434D440020255300524157002025A5
:100D600053004D4F444500202553004E54554E002E
:100D7000202553004354554E0020255300504D006C
:100D80002025530047505300202553004154544917
:100D9000545544455F4D454400202553004154546B
:100DA00049545544455F4641535400202553006E35
:100DB0006F6E65006C6F677320656E61626C656451
:100DC0003A200048697420456E74657220746F2063
:100DD000657869742E0A0A0054657374204D6F6437
:100DE000650A0A0047524F554E442053544152540D
:100DF000000A456E746572696E6720696E7465726B
:100E0000616374697665207365747570206D6F64B5
:100E1000652E2E2E0A0A54797065202768656C703D
:100E20002720746F206C69737420636F6D6D616E21
:100E300064732C2027657869742720746F206C6593
:100E40006176652061207375626D656E752E0A5638
:100E500069736974207468652027736574757027D9
:100E6000206D656E7520666F722066697273742DD1
:100E700074696D6520636F6E666967757261746908
:100E80006F6E2E0A0A00506C656173652052756E94
:100E90002053657475702E2E2E0A000A0A496E6959
:100EA000742041434D0A0A52414D3A20256C750A7F
:100EB000004779726F206F6666736574733A2025F8
:100EC000342E32662C2025342E32662C2025342EEA
:100ED00032660A00416363656C206F6666736574F1
:100EE000733A2025342E32662C2025342E32662C7F
:100EF0002025342E32660A0061626C65640A006443
:100F0000697300656E00646F6E650A000A45726160
:100F100073696E6720454550524F4D0A000A536170
:100F20007665642053657474696E67730A0A0050AD
:100F30006F732025643A20004348383A2025642006
:100F40007C2025640A004348373A202564207C2011
:100F500025640A004348363A202564207C20256415
:100F60000A004348353A202564207C2025640A0085
:100F70004348343A202564207C2025640A004348F5
:100F8000333A202564207C2025640A004348323A05
:100F9000202564207C2025640A004348313A20251E
:100FA00064207C2025640A00503A2025342E3366C4
:100FB0002C20493A25342E33662C20443A25342EF1
:100FC00033662C20494D41583A256C640A00466C22
:100FD00069676874206D6F6465730A004D616720EE
:100FE0006F6666736574733A2025342E34662C2040
:100FF00025342E34662C2025342E3466004D61674E
:10100000204465633A2025342E34660A00436F6D10
:10101000706173730A00494D550A006D696E3A207C
:1010200025640A6D61783A2025640A6372756973D4
:10103000653A2025640A6661696C736166655F655F
:101040006E61626C65643A2025640A6661696C733E
:101050006166655F76616C75653A20256400546849
:10106000726F74746C650A0058545241434B3A20B5
:1010700025342E32660A58545241434B20616E6724
:101080006C653A2025640A50495443485F4D4158E5
:101090003A20256C640058547261636B0A00736FC8
:1010A0006E6172207468726F74746C653A0A0062C3
:1010B00061726F207468726F74746C653A0A006CA8
:1010C0006F6E673A0A004E61763A0A6C61743A0AAA
:1010D0000059617720443A2025342E33660A0A00ED
:1010E0005374616220443A2025342E33660A007915
:1010F00061773A0A0070697463683A0A000A5374A7
:101100006162696C697A653A0A726F6C6C3A0A00BE
:101110007961773A0A0070697463683A0A0041633A
:10112000726F3A0A726F6C6C3A0A004761696E73AB
:101130000A00526164696F0A006672616D65202859
:101140002564290048455841202B00593620004885
:101150004558412058005452492000506C75732066
:10116000005820004672616D650A0046572056659A
:101170007273696F6E2025640A00536F6E61720A84
:10118000000A4750530A00636F6D6D616E6420233F
:101190003A2025642069643A2564206F703A2564FA
:1011A0002070313A25642070323A256C6420703307
:1011B0003A256C642070343A256C64200A00766FFE
:1011C0006C747320616E6420637572006261747464
:1011D00020766F6C747300342063656C6C7300331D
:1011E0002063656C6C730042617474206D6F6E2EA9
:1011F0002064697361626C65640042617474204D9F
:101200006F696E746F720A000A2054797065202726
:10121000726164696F2720746F20636F6E666967FF
:10122000757265206E6F772E0A0A000A2157617267
:101230006E696E672C20796F757220726164696FB8
:10124000206973206E6F7420636F6E6669677572B4
:10125000656421005365747570204D6F64650A0ADA
:101260000A003C6E617669676174653E20575020C4
:101270006572726F72202D2064697374616E63658C
:10128000203C2030004C6F77204261747465727985
:1012900021006F7574206F6620636F6D6D616E64E1
:1012A0007321006572726F723A206E6F6E2D4E61FF
:1012B0007620636D64005265616368656420686FC1
:1012C0006D65007665726966795F6D7573743A2035
:1012D0004C4F495445522074696D6520636F6D70A1
:1012E0006C657465004572726F722045423A202524
:1012F000640A004572726F7220503A2025640A0019
:101300005241572C004D4F443A004154542C202553
:10131000642C2025642C2025750A00434D442C2084
:1013200025642C2025642C2025642C2025642C2069
:1013300025642C20256C642C20256C642C20256CC5
:10134000640A00504D2C004354554E2C2025642C2B
:101350002025642C2025642C2025642C2025642C39
:101360002025642C2025642C2025312E34662C2049
:1013700025642C2025642C2025642C2025642C2019
:1013800025640A00435552523A2025642C20256CCE
:10139000642C2025342E34662C2025342E34662CE3
:1013A0002025640A004750532C20256C642C2025EE
:1013B000642C2025642C2025342E37662C202534DF
:1013C0002E37662C2025342E34662C2025342E34DE
:1013D000662C2025342E34662C2025640A004E54B9
:1013E000554E2C2025642C2025642C2025642C208F
:1013F00025642C2025642C2025642C2025642C2099
:1014000025642C2025642C2025642C2025642C2088
:1014100025642C2025642C20256C642C2025342E5A
:1014200034662C2025342E34662C2025342E346648
:101430002C2025342E346620003C73746172745F56
:101440006E65775F6C6F673E204C6F6773206675C3
:101450006C6C00666C6967687420706C616E2072D9
:101460006563656976656400616374696F6E207297
:10147000656365697665643A2000636F6D706F6EB1
:10148000656E74206964206D69736D6174636800B2
:10149000776179706F696E742072656365697665CE
:1014A0002074696D656F757400776179706F696E0E
:1014B000742073656E642074696D656F7574004582
:1014C0005854524133004558545241320045585403
:1014D00052413100504F534954494F4E00524157E9
:1014E0005F4354524C0052435F4348414E004558BD
:1014F000545F53544154005241575F53454E53007B
:101500005352335F005352305F00253033753A2514
:10151000733A20006E6F7420666F756E640025301C
:1015200033753A252D33322E3332733A2000756EDF
:101530006B6E6F776E2074797065006E6F742066C5
:101540006F756E640025733A20006D697373696E60
:1015500067206E616D65206F722076616C75650025
:101560003F3F00256400256400256C64002566006B
:10157000256600657869740068656C7000444543B1
:1015800000434F4D504153535F00245047434D4457
:101590002C31362C302C302C302C302C302A36414B
:1015A0000D0A0024505542582C34312C312C303047
:1015B00030332C303030312C33383430302C302A2A
:1015C00032360024505352463130302C302C3338D0
:1015D0003430302C382C312C302A334300205369DE
:1015E00052462000204D544B312E3620002075628B
:1015F0006C6F782000204D544B312E3420006661F2
:10160000696C65642C207265747279696E67004F2D
:101610004B0020002A00496E697420416363656CA9
:10162000002A00496E6974204779726F006E616EFE
:1016300000696E660000407A10F35A00A0724E18DE
:10164000090010A5D4E80000E87648170000E40B74
:1016500054020000CA9A3B000000E1F5050000803A
:10166000969800000040420F000000A08601000094
:1016700000102700000000E80300000000640000E4
:101680000000000A00000000000100000000002C23
:1016900076D888DC674F0823DFC1DFAE59E1B1B7E8
:1016A00096E5E3E453C63AE651997696E8E6C284B5
:1016B00026EB898C9B62ED407C6FFCEFBC9C9F40CD
:1016C000F2BAA56FA5F490055A2AF75C936B6CF9F2
:1016D000676DC11BFCE0E40D47FEF520E6B500D0C8
:1016E000ED902E0300943577050080841E080000DD
:1016F000204E0A000000C80C333333330F986E12AB
:10170000831141EF8D2114893BE65516CFFEE6DBB0
:1017100018D1844B381BF77C1D901DA4BBE42420FA
:101720003284725E228100C9F124ECA1E53D2700DC
:10173000002100240027002A002D00300033000182
:10174000010000040107010A010000220025002811
:10175000002B002E003100340002010000050108BA
:10176000010B01000020002300260029002C002F7F
:101770000032000001000003010601090105050512
:1017800005070508080808020202020A0A080804F8
:101790000404040101010101010101030303030326
:1017A000030303040707070C0C0C0C0C0C0C0C02B5
:1017B00002020206060606060606060B0B0B0B0BBC
:1017C0000B0B0B01021020200808102040102040B5
:1017D00080020102010804020101020408102040F5
:1017E0008080402010080402018004020180402013
:1017F000100804020108040201010204081020403C
:101800008001020408102040800000090A02080B31
:101810000C0D07060304010000000000000000009A
:1018200000000000000000000000000000000000B8
:101830000000000000100F0E00000000000000007B
:10184000000000000000000000000000000000494F
:101850004E46494E4954594E414ECDCCCC3D0AD707
:10186000233C17B7D13877CC2B329595E6241FB19E
:101870004F0A000020410000C84200401C4620BC26
:10188000BE4CCA1B0E5AAEC59D74B836738DB0954A
:101890003EC7FDD4B136A99511241FBECFEFD1E2CA
:1018A000DEBFCDBF00E00CBF17E0A0E0B2E0ECEE81
:1018B000FCEC01E00BBF02C007900D92A830B1070D
:1018C000D9F718E1A8E0B7E001C01D92A433B10731
:1018D000E1F718E1C4E9D8E104C02297FE010E94B3
:1018E0002EE0CA38D107C9F70E9478D70C9469E670
:1018F0000C940000283008F027E03327DA01990F14
:10190000311D87FD916000966105710539F43260E3
:101910002E5F3D9330E32A95E1F708959F3F30F025
:1019200080387105610509F03C5F3C5F3D93913063
:1019300008F08068911DDF93CF931F930F93FF9260
:10194000EF92192F987F9695E92F96959695E90F26
:10195000FF27E157F94E99273327EE24FF24A701EB
:10196000E70105900894079428F4360FE71EF81E47
:10197000491F511D660F771F881F991F0694A1F7F5
:101980000590079428F4E70EF81E491F561FC11D45
:10199000770F881F991F661F0694A1F7059007947B
:1019A00028F4F80E491F561FC71FD11D880F991F15
:1019B000661F771F0694A1F70590079420F4490F3E
:1019C000561FC71FD81F990F661F771F881F0694C1
:1019D000A9F784911095177041F0D695C795579542
:1019E0004795F794E7941A95C1F7E5E3F6E1689413
:1019F0001590159135916591959105907FE27395BC
:101A0000E118F10A430B560BC90BD009C0F7E10CE2
:101A1000F11E431F561FC91FD01D7EF4703311F4F1
:101A20008A95E6CFE894015030F0080F0AF40027B9
:101A3000021708F4202F2395022F7A3328F079E338
:101A40007D932A95E9F710C07D932A9589F606942F
:101A500097956795379517951794E118F10A430BF9
:101A6000560BC90BD00998F023957E9173957A3364
:101A700008F070E37C932013B8F77E9170617D933A
:101A800030F0839571E37D9370E32A95E1F711249B
:101A9000EF90FF900F911F91CF91DF91992787FDD4
:101AA00090950895FA01AA27283051F1203181F14B
:101AB000E8946F936E7F6E5F7F4F8F4F9F4FAF4F56
:101AC000B1E03ED0B4E03CD0670F781F891F9A1F69
:101AD000A11D680F791F8A1F911DA11D6A0F711D1D
:101AE000811D911DA11D20D009F468943F912AE029
:101AF000269F11243019305D3193DEF6CF01089511
:101B0000462F4770405D4193B3E00FD0C9F7F6CF41
:101B1000462F4F70405D4A3318F0495D31FD405209
:101B2000419302D0A9F7EACFB4E0A695979587959F
:101B300077956795BA95C9F700976105710508957E
:101B40009B01AC010A2E069457954795379527952A
:101B5000BA95C9F7620F731F841F951FA01D0895C2
:101B6000EF92FF920F93DF93CF93CDB7DEB76097DD
:101B70000FB6F894DEBF0FBECDBFA82F002309F427
:101B800061C07E010894E11CF11C88E0F70111920C
:101B90008A95E9F729833A834B835C836D837E833F
:101BA000AF83988780E2801BE82FFF27E7FDF09541
:101BB0004D815E816F817885181684F01D861E86A2
:101BC0001F86188A882799278E1B9F0B04C076953D
:101BD0006795579547958A95D2F728C0202F3327C8
:101BE00027FD3095DB01CA01022E04C0B695A795EA
:101BF000979587950A94D2F78D879E87AF87B88B84
:101C000004C0440F551F661F771FEA95D2F78981DC
:101C10009A81AB81BC8104C0B695A79597958795AD
:101C20002A95D2F7482B592B6A2B7B2B49875A8749
:101C30006B877C8729853A854B855C856D857E859C
:101C4000AF8598898A2F60960FB6F894DEBF0FBED5
:101C5000CDBFCF91DF910F91FF90EF900895CF937B
:101C6000DF93FC01EB014230510570F06385748510
:101C70008585968520E030E040E854E40E94ABDEA4
:101C80000E94F3DC7983688382E090E0DF91CF915A
:101C90000895CF93DF93EC01FB014230510518F416
:101CA00020E030E012C06081718180E090E00E940D
:101CB0001FDD20E030E040E85AE30E94ABDE6B8796
:101CC0007C878D879E8722E030E0C901DF91CF912C
:101CD0000895009719F00197C1F40CC0E0916E17B8
:101CE000F0916F17A081B1812D913C91CF01F90145
:101CF00019950895E0917017F0917117A081B18145
:101D00002D913C91CF01F90119950895EF92FF9221
:101D10000F931F93CF93DF93EC0108836A834B8368
:101D2000822F90E0880F991FFC01A3E0EE0FFF1FA8
:101D3000AA95E1F7E81BF90BEC5CFB4E81858983E2
:101D4000822F90E0880F991FDC0163E0AA0FBB1F70
:101D50006A95E1F7A81BB90BAC5CBB4E822F90E0F3
:101D6000880F991FFC0143E0EE0FFF1F4A95E1F732
:101D7000E81BF90BEC5CFB4E81858F5F19968C9309
:101D8000DE0135E0E32EF12CE00EF11E6FEF7FEF68
:101D9000E0E0F0E01EC02D912627822F8295807F03
:101DA000822790E0382F2227AC01440F551F440FA3
:101DB000551F440F551F24273527672F7727622784
:101DC000732724E0959587952A95E1F76827792769
:101DD0003196EE15FF05FCF2CC5FDE4F69937883F8
:101DE0009801295F3F4FC901CDB7DEB7E6E00C94FB
:101DF0001DE0FC01DC01AC5FBE4F8C91EB5FFE4F40
:101E00006827262F2295207F262730E0522F44274F
:101E1000C90163E0880F991F6A95E1F748275927A0
:101E2000808190E04827592784E0359527958A9549
:101E3000E1F7422753274C9350830895F901E40FAB
:101E4000F11D292F33274427552720839C0155272F
:101E500037FD5095452F2183272F382F492F5527A0
:101E600047FD5A952283638384E008957F928F9281
:101E70009F92AF92BF92CF92DF92EF92FF920F9319
:101E80001F93722E132FD42EC52EB62EA72E982E4A
:101E9000892EE00EF11C08E30E94B00DF7012083AB
:101EA000272D312F4D2D5C2D6B2D7A2D892D982DC1
:101EB00000E30E94B00DF7012183272D312F4D2D16
:101EC0005C2D6B2D7A2D892D982D08E20E94B00D86
:101ED000F7012283272D312F4D2D5C2D6B2D7A2D6F
:101EE000892D982D00E20E94B00DF7012383272D44
:101EF000312F4D2D5C2D6B2D7A2D892D982D08E1DC
:101F00000E94B00DF7012483272D312F4D2D5C2D1C
:101F10006B2D7A2D892D982D00E10E94B00DF701CF
:101F20002583272D312F4D2D5C2D6B2D7A2D892D5D
:101F3000982D08E00E94B00DF7012683778288E093
:101F40001F910F91FF90EF90DF90CF90BF90AF90D7
:101F50009F908F907F9008950E941E0F0895A0E09B
:101F6000B0E0E5EBFFE00C94FFDF8C01EB0165E5F1
:101F70000E94690EC80168810E94690EC8016981CA
:101F80000E94690EC8016A810E94690EC8016B81B6
:101F90000E94690EC8016C810E94690E6E01EE24D8
:101FA000FF2408C0C801F60164810E94690E0894EC
:101FB000E11CF11C0894C11CD11C888190E0E8163A
:101FC000F90680F3CC5FDE4FC80169910E94690E6B
:101FD000C80168810E94690ECDB7DEB7E8E00C94B5
:101FE0001BE0A6E0B1E0E7EFFFE00C94FFDFD82EA6
:101FF000C92E5091F9047091FA0488E28D836E83A2
:102000004F83388729877E010894E11CF11CC701A2
:10201000652F472F2D2D04E010E00E94860E8D2D98
:102020009C2DB7010E94AF0FCA5FDE4FE8E00C9411
:102030001BE0A6E0B1E0EFE1F0E10C94FFDFD82E69
:10204000C92E2091F9044091FA048AE28D837E839F
:102050006F837E010894E11CF11CC701622F2D2DB6
:1020600002E010E00E94860E8D2D9C2DB7010E948B
:10207000AF0FCA5FDE4FE8E00C941BE0A6E0B1E0D2
:10208000E4E4F0E10C94FFDFD82EC92E3091F9047E
:102090005091FA048FE28D836E834F8328877E01EF
:1020A0000894E11CF11CC701632F452F2D2D03E07F
:1020B00010E00E94860E8D2D9C2DB7010E94AF0F5F
:1020C000CA5FDE4FE8E00C941BE01F920F920FB640
:1020D0000F920BB60F9211242F933F934F938F9330
:1020E0009F93EF93FF934091C60020912E1730915C
:1020F0002F172F5F3F4F809132179091331728236E
:10210000392380913017909131172817390779F0CA
:1021100080912E1790912F17E0913417F091351779
:10212000E80FF91F408330932F1720932E17FF914C
:10213000EF919F918F914F913F912F910F900BBEF7
:102140000F900FBE0F901F9018951F920F920FB611
:102150000F920BB60F9211242F933F938F939F935F
:10216000EF93FF93209150173091511780914E17A4
:1021700090914F1728173907E9F0809150179091E7
:102180005117E0915417F0915517E80FF91F80810E
:102190008093C6008091501790915117019620911D
:1021A00052173091531782239323909351178093A2
:1021B000501710C020914E1730914F178091501733
:1021C000909151172817390729F48091C1008F7D0C
:1021D0008093C100FF91EF919F918F913F912F913B
:1021E0000F900BBE0F900FBE0F901F9018951F926F
:1021F0000F920FB60F920BB60F9211242F933F93AD
:102200004F938F939F93EF93FF934091CE00209134
:102210003617309137172F5F3F4F80913A179091C3
:102220003B172823392380913817909139172817A5
:10223000390779F08091361790913717E0913C1764
:10224000F0913D17E80FF91F408330933717209323
:102250003617FF91EF919F918F914F913F912F9161
:102260000F900BBE0F900FBE0F901F9018951F92EE
:102270000F920FB60F920BB60F9211242F933F932C
:102280008F939F93EF93FF93209158173091591795
:10229000809156179091571728173907E9F08091C8
:1022A000581790915917E0915C17F0915D17E80F5E
:1022B000F91F80818093CE00809158179091591713
:1022C000019620915A1730915B17822393239093A4
:1022D00059178093581710C02091561730915717EF
:1022E00080915817909159172817390729F4809130
:1022F000C9008F7D8093C900FF91EF919F918F91CD
:102300003F912F910F900BBE0F900FBE0F901F901B
:1023100018951F920F920FB60F920BB60F921124C1
:102320002F933F934F938F939F93EF93FF934091FE
:10233000360120914617309147172F5F3F4F80910C
:102340004A1790914B172823392380914817909171
:1023500049172817390779F0809146179091471748
:10236000E0914C17F0914D17E80FF91F408330931F
:10237000471720934617FF91EF919F918F914F91AF
:102380003F912F910F900BBE0F900FBE0F901F909B
:1023900018951F920F920FB60F920BB60F92112441
:1023A0002F933F938F939F93EF93FF932091681701
:1023B0003091691780916617909167172817390730
:1023C000E9F08091681790916917E0916C17F0918E
:1023D0006D17E80FF91F808180933601809168178F
:1023E00090916917019620916A1730916B1782239B
:1023F0009323909369178093681710C020916617F4
:1024000030916717809168179091691728173907DD
:1024100029F4809131018F7D80933101FF91EF91FB
:102420009F918F913F912F910F900BBE0F900FBEF8
:102430000F901F9018958091FF138F5F8093FF136B
:10244000823008F46BC01092FF1380914109909183
:102450004209893C91059CF52091A0133091A1136C
:102460004091A2135091A3138091911390919213D4
:10247000A0919313B091941380599140A040B04023
:102480002350304040405040281739074A075B0727
:1024900014F49C01AD01DA01C9012436310541056E
:1024A000510524F484E690E0A0E0B0E08093A0130E
:1024B0009093A113A093A213B093A31308958D5BDF
:1024C000924064F18091A0139091A113A091A21366
:1024D000B091A3130396A11DB11D8093A0139093F7
:1024E000A113A093A213B093A31320919113309141
:1024F0009213409193135091941320573E4F4F4F96
:102500005F4F281739074A075B0744F42093A0134D
:102510003093A1134093A2135093A3130895609195
:102520001C0A70911D0A882777FD8095982F0E94BC
:1025300021DD20E030E04AE754E40E9486DC60932D
:10254000020F7093030F8093040F9093050F08956B
:10255000AF92BF92CF92DF92EF92FF920F931F93B1
:102560005B016C01E0901713F090181300911913A0
:1025700010911A1322273327A901261B370B480B6A
:10258000590BE216F306040715071CF4DA01C9011A
:102590000DC0DC01CB01782F692F9A2F8B2FEA1405
:1025A000FB040C051D0534F4D801C701782F692FF1
:1025B0009A2F8B2F709317136093181390931913FE
:1025C00080931A1380911B1390911C13A0911D13DB
:1025D000B0911E1382179307A407B5074CF0A6010C
:1025E00095018A159B05AC05BD0514F49C01AD0150
:1025F00020931B1330931C1340931D1350931E13F1
:102600001F910F91FF90EF90DF90CF90BF90AF9010
:102610000895EF92FF920F931F936091A30470911E
:10262000A4048091A5049091A60420919F04309168
:10263000A0044091A1045091A2040E94ABDE7B0152
:102640008C0120E030E040E05FE30E947FDC8823E3
:1026500024F4E0E070E080EC0DC0C801B70120E098
:1026600030E040E85FE30E945BDE18162CF4E0E007
:1026700070E080E86FE30AC060E070E080E090E422
:10268000A80197010E94A1DBE62F692F2E2F372F7B
:10269000482F562FB901CA011F910F91FF90EF905B
:1026A0000895EF92FF920F931F930E9409137B01ED
:1026B0008C0160912B1370912C13882777FD8095E6
:1026C000982F0E9421DDA80197010E94ABDE0E9495
:1026D000EEDCCB011616170614F081E090E0909323
:1026E0004609809345091F910F91FF90EF9008953F
:1026F000EF92FF920F931F930E9409137B018C01AD
:102700006091410970914209882777FD8095982F43
:102710000E9421DDA80197010E94ABDE0E94EEDC41
:1027200070934609609345091F910F91FF90EF90B8
:102730000895FC017183608387E06830780739F47D
:1027400070936F1760936E171386128608C070938C
:1027500071176093701781E090E0938782871382EE
:10276000128208952091A0133091A1134091A213D9
:102770005091A3138091641390916513A0916613F7
:10278000B091671382179307A407B50774F480917B
:10279000911390919213A0919313B09194132817D1
:1027A00039074A075B07C4F40DC0809191139091DB
:1027B0009213A0919313B091941382179307A407D7
:1027C000B50754F4109260131092611310926213C3
:1027D0001092631381E0089580E008958091CC13F6
:1027E0008093C404833049F4ACEAB3E1EAECF3E14A
:1027F0008FE001900D928150E1F708958091CC1304
:10280000813021F480910B0184600AC0882321F477
:1028100080910B018B7F04C080910B0194E089278C
:1028200080930B0108952091D1093091D209C901FB
:102830008F5C94408238910510F481E00895C901BD
:10284000815595408238910510F482E00895C901C0
:10285000835D95408238910510F483E00895C901A5
:10286000855596408138910510F484E00895265DE1
:10287000364014F480E0089585E008958091410980
:1028800090914209892B91F580918A0990918B0949
:102890002FE0813A9207DCF0809133148A3010F1F6
:1028A00081E080939A128AE0809333148091111111
:1028B00090911211A0911311B09114118093CD1227
:1028C0009093CE12A093CF12B093D0120895805659
:1028D000904F64F4809133148A3020F010929A1251
:1028E0008AE001C08F5F80933314089510923314EF
:1028F00008952091A7123091A8124091A9125091E9
:10290000AA1280910B1390910C13A0910D13B0910A
:102910000E13281B390B4A0B5B0B213586E4380755
:1029200080E0480780E058072CF0205A3C4840409F
:1029300050400CC0203B99EB39079FEF49079FEFB0
:10294000590724F4205633474F4F5F4F80E0B901B9
:1029500037FF03C0709561957F4F615177420CF04E
:1029600081E0089560914B1370914C1380914D1349
:1029700090914E1324E630E040E050E00E9472DF78
:10298000693027E0720720E0820720E0920724F0F8
:1029900068E077E080E090E0683F28EF72072FEF73
:1029A00082072FEF920724F468EF78EF8FEF9FEF05
:1029B0000E9421DD2091780D3091790D40917A0DA2
:1029C00050917B0D0E94ABDE0E94EEDC60932313DE
:1029D00070932413809325139093261308956F9278
:1029E0007F928F929F92AF92BF92CF92DF92EF929F
:1029F000FF920F931F93A0904B13B0904C13C09075
:102A00004D13D0904E136090780D7090790D80909A
:102A10007A0D90907B0DE091160FF091170FE688DC
:102A2000F788008D118D8091B1129091B212AA2772
:102A300097FDA095BA2FA8019701281B390B4A0BC7
:102A40005B0BCA01B9010E9421DD2091380E309143
:102A5000390E40913A0E50913B0E0E94ABDE0E941F
:102A6000EEDCF092B212E092B11238EF683F7307D9
:102A70004CF438EFE32E38EFF32E3FEF032F3FEF08
:102A8000132F0BC047E06930740714F068E077E05B
:102A90007B010027F7FC0095102FC601B50124E645
:102AA00030E040E050E00E9472DF693057E0750787
:102AB00050E0850750E0950724F068E077E080E07B
:102AC00090E0683F28EF72072FEF82072FEF920701
:102AD00024F468EF78EF8FEF9FEF0E9421DDA401CF
:102AE00093010E94ABDE0E94EEDC6E197F09800B21
:102AF000910B609323137093241380932513909369
:102B000026131F910F91FF90EF90DF90CF90BF9011
:102B1000AF909F908F907F906F9008952091A31217
:102B20003091A4124091A5125091A61280911111DA
:102B300090911211A0911311B0911411281B390B0F
:102B40004A0B5B0B213586E4380780E0480780E0BC
:102B500058072CF0205A3C48404050400CC0203BC5
:102B600089EB38078FEF48078FEF580724F420567A
:102B700033474F4F5F4F2093D3123093D41240937B
:102B8000D5125093D61208952091A7123091A81211
:102B90004091A9125091AA128091AB129091AC125F
:102BA000A091AD12B091AE12281B390B4A0B5B0BF2
:102BB000213586E4380780E0480780E058072CF08C
:102BC000205A3C48404050400CC0203B89EB38071D
:102BD0008FEF48078FEF580724F4205633474F4FA5
:102BE0005F4FC90137FF03C0909581959F4F9C01AE
:102BF000442737FD4095542FB901CA01089520910B
:102C0000AD083091AE088091D1089091D208281B70
:102C1000390B253631051CF08AE0809331142C598C
:102C20003F4F1CF486EF80933114809131141816B5
:102C30001CF48150809331148091311487FF03C0BC
:102C40008F5F8093311480913114813021F08F3F58
:102C500011F080E00895811181E00895FC01DB010D
:102C6000452B11F083858C9381E090E00895DC0181
:102C7000FB01452B19F080811B968C9381E090E03D
:102C80000895FC016385772767FD7095872F972F3F
:102C90000E9421DD0895FC01DB014230510520F046
:102CA000838594858D939C9382E090E00895DC0168
:102CB000FB014230510530F0808191811C969C933C
:102CC0008E931B9782E090E00895FC0163857485E4
:102CD000882777FD8095982F0E9421DD0895FC01BB
:102CE0002385348545855685B901CA010895CF935A
:102CF000DF93FC01EB014430510540F0838594855E
:102D0000A585B68588839983AA83BB8384E090E0F8
:102D1000DF91CF910895CF93DF93EC01FB01443015
:102D2000510540F080819181A281B3818B879C877E
:102D3000AD87BE8784E090E0DF91CF9108958091C8
:102D40003413882379F48091410990914209893C98
:102D5000910544F09093FA078093F9078EEE97E07F
:102D60000E94E490089510928A078FE797E00E94EE
:102D7000E4901092B4121092B5121092CA130895F2
:102D80008CEF91E0909331088093300885E298E0D1
:102D90000E94E4900895809130148F5F80933014E6
:102DA0008150833011F410923014809130148130AE
:102DB00059F0813018F08230C1F40FC083E260E036
:102DC0000E943CDB85E205C085E260E00E943CDBBE
:102DD00084E261E00E943CDB089584E260E00E94AE
:102DE0003CDB83E261E00E943CDB089580919A1213
:102DF0009091A112813081F480E0992309F481E05F
:102E00008093A112882319F085E261E002C085E277
:102E100060E00E943CDB0895992339F481E08093BF
:102E2000A11285E261E00E943CDB0895E091160F5B
:102E3000F091170F81A992A98130910539F002977D
:102E4000F9F483E261E00E943CDB089587A18823C6
:102E5000D9F090E08091A212882309F491E0909338
:102E6000A212992319F083E260E002C083E261E0DC
:102E70000E943CDBE091160FF091170F17A2089506
:102E800083E260E00E943CDB089500D00F9288E06E
:102E900097E0EDB7FEB7928381838CE496E094834C
:102EA00083830E9474CA0F900F900F900F9080E060
:102EB000089500D00F9288E097E0EDB7FEB79283B7
:102EC00081838BEA97E0948383830E9474CA0F9076
:102ED0000F900F900F9080E0089500D00F9288E03F
:102EE00097E0EDB7FEB7928381838DEC98E09483F1
:102EF00083830E9474CA81E08093A1080F900F9091
:102F00000F900F9086E998E00E94E49064E170E0F1
:102F100080E090E00E943EDA88E097E00E94EBCAF1
:102F2000181619069CF71092A10886E998E00E94ED
:102F3000E49080E0089500D00F9288E097E0EDB72C
:102F4000FEB7928381838FEC99E0948383830E9400
:102F500074CA0F900F900F900F90089500D00F92A9
:102F600088E097E0EDB7FEB79283818383EC9DE024
:102F7000948383830E9474CA0F900F900F900F90D8
:102F800008950E94AE1768EE73E080E090E00E9422
:102F90003EDA8CE297E00E94EBCA892B89F084E24A
:102FA00061E00E943CDB8CE297E00E9401CB682F3D
:102FB0008AE197E00E9462CB84E260E00E943CDB01
:102FC0008AE197E00E94EBCA892B89F083E261E0F5
:102FD0000E943CDB8AE197E00E9401CB682F8CE2E3
:102FE00097E00E9462CB83E260E00E943CDB88E0D5
:102FF00097E00E94EBCA181619065CF680E0089567
:103000000E94AE1768EE73E080E090E00E943EDA26
:1030100000D00F9288E097E0EDB7FEB792838183EE
:1030200089E395E0948383830E9474CA0F900F9084
:103030000F900F908CE297E00E94EBCA892B49F029
:103040008CE297E00E9401CB682F8CE297E00E940F
:1030500062CB88E097E00E94EBCA1816190654F775
:1030600080E00895EF92FF920F931F93CF93DF9329
:103070000E94AE1768EE73E080E090E00E943EDAB6
:103080004EEFE42E45E0F42E03EF15E0C8E0D7E064
:1030900000D00F92EDB7FEB7D283C183F482E382F2
:1030A0000E9474CA80910B01846080930B010F9081
:1030B0000F900F900F9068EB7BE080E090E00E9413
:1030C0003EDACE010E94EBCA18161906FCF000D0B9
:1030D0000F92EDB7FEB7D283C183148303830E949E
:1030E00074CA80910B018B7F80930B010F900F901E
:1030F0000F900F9068EB7BE080E090E00E943EDA5A
:10310000CE010E94EBCA1816190614F680E0CDB75E
:10311000DEB7E6E00C941DE08DB79EB740970FB682
:10312000F8949EBF0FBE8DBFEDB7FEB7319688E015
:1031300097E0ADB7BEB712969C938E93119781EB33
:103140009EE0938382838091F1109091F210A09180
:10315000F310B091F41084839583A683B783809194
:10316000F5109091F610A091F710B091F8108087AB
:103170009187A287B3878091F9109091FA10A0915E
:10318000FB10B091FC1084879587A687B7870E94B3
:1031900074CA8DB79EB740960FB6F8949EBF0FBE07
:1031A0008DBF08958DB79EB740970FB6F8949EBF18
:1031B0000FBE8DBFEDB7FEB7319688E097E0ADB793
:1031C000BEB712969C938E93119784ED9EE09383E5
:1031D00082838091FD109091FE10A091FF10B0911C
:1031E000001184839583A683B78380910111909108
:1031F0000211A0910311B091041180879187A287D9
:10320000B3878091051190910611A0910711B0919B
:10321000081184879587A687B7870E9474CA8DB7DF
:103220009EB740960FB6F8949EBF0FBE8DBF08950F
:1032300028E037E0882349F000D00F92EDB7FEB7C1
:103240003283218383E09FE008C000D00F92EDB766
:10325000FEB7328321838FEF9EE0948383830E94A5
:1032600074CA88E097E0EDB7FEB79283818388EF58
:103270009EE0948383830E9474CA0F900F900F90F6
:103280000F90089500D00F9288E097E0EDB7FEB759
:10329000928381838DE19FE0948383830E9474CA2B
:1032A0000F900F900F900F9008950F931F938DB76D
:1032B0009EB708970FB6F8949EBF0FBE8DBFEDB7AF
:1032C000FEB7319608E017E0ADB7BEB712961C9373
:1032D0000E9311978AE99FE0938382838091C408BB
:1032E0009091C508958384838091DE089091DF08D2
:1032F000978386830E9474CAEDB7FEB73196ADB747
:10330000BEB712961C930E9311978CE89FE093839F
:10331000828380910D0990910E0995838483809119
:10332000270990912809978386830E9474CAEDB774
:10333000FEB73196ADB7BEB712961C930E93119798
:103340008EE79FE09383828380915609909157097D
:103350009583848380917009909171099783868306
:103360000E9474CAEDB7FEB73196ADB7BEB71296DC
:103370001C930E93119780E79FE093838283809143
:103380009F099091A009958384838091B9099091B8
:10339000BA09978386830E9474CAEDB7FEB7319647
:1033A000ADB7BEB712961C930E93119782E69FE0BD
:1033B000938382838091E8099091E90995838483BE
:1033C0008091020A9091030A978386830E9474CAAF
:1033D000EDB7FEB73196ADB7BEB712961C930E93FC
:1033E000119784E59FE0938382838091310A9091C5
:1033F000320A9583848380914B0A90914C0A97837B
:1034000086830E9474CAEDB7FEB73196ADB7BEB7DA
:1034100012961C930E93119786E49FE09383828308
:1034200080917A0A90917B0A958384838091940A93
:103430009091950A978386830E9474CAEDB7FEB770
:103440003196ADB7BEB712961C930E93119788E3D1
:103450009FE0938382838091C30A9091C40A9583ED
:1034600084838091DD0A9091DE0A978386830E948F
:1034700074CA8DB79EB708960FB6F8949EBF0FBE5C
:103480008DBF1F910F910895CF93DF93FC018DB7EE
:103490009EB744970FB6F8949EBF0FBE8DBF2DB751
:1034A0003EB72F5F3F4F88E097E0ADB7BEB71296AB
:1034B0009C938E93119788EA9FE0E9019B838A830E
:1034C00086899789A08DB18D8C839D83AE83BF83C0
:1034D00085A196A1A7A1B0A588879987AA87BB8750
:1034E00084A995A9A6A9B7A98C879D87AE87BF8710
:1034F000ED5BFF4F80819181AA2797FDA095BA2FA0
:10350000F901808B918BA28BB38B0E9474CA8DB70B
:103510009EB744960FB6F8949EBF0FBE8DBFDF9145
:10352000CF910895A0E0B0E0E8E9FAE10C94FDDF66
:1035300073E3A72E75E0B72E6DE2C62E65E0D62E9A
:1035400000E010E058E0E52E57E0F52E00D000D066
:10355000EDB7FEB73196ADB7BEB71296FC92EE92BC
:103560001197B382A282158304830E9474CAC0E0BB
:10357000D0E08DB79EB706960FB6F8949EBF0FBEEB
:103580008DBFCE01800F911F0E9481E400D000D03A
:10359000EDB7FEB73196ADB7BEB71296FC92EE927C
:1035A0001197D382C282848315820E9474CA2196A5
:1035B0008DB79EB706960FB6F8949EBF0FBE8DBF0F
:1035C000C031D105F1F6C7010E94A9D8005F1F4F95
:1035D00090E10030190709F0B9CF80E0CDB7DEB730
:1035E000EAE00C9419E0A0E0B0E0E9EFFAE10C9415
:1035F000F5DF80919508882309F4A3C00E94AE17D7
:10360000EAE62E2EE5E03E2EC8E0D7E06AEF70E055
:1036100080E090E00E943EDA80E49FE00E94F39810
:1036200080E49FE040E050E060E070E08A019B01B0
:103630000E9465A580E49FE00E940E9CFC014084EE
:1036400051846284738484809580A680B780C08012
:10365000D180E280F3806091480F7091490F809192
:103660004A0F90914B0F21EE3EE245E652E40E9454
:10367000ABDE20E030E048EC52E40E94ABDE0E947A
:10368000EEDC613A2CE8720720E0820720E0920726
:103690002CF0605A7C488040904006C097FF04C0E0
:1036A000605673478F4F9F4FEDB7FEB77A970FB6AF
:1036B000F894FEBF0FBEEDBF0DB71EB70F5F1F4FD3
:1036C000D283C183F8013382228224E630E040E0D5
:1036D00050E00E94DADFF801248335834683578364
:1036E0008091420F9091430F918780878091440F82
:1036F0009091450F938782878091460F9091470F55
:1037000095878487C686D786E08AF18A828A938ADB
:10371000A48AB58A468A578A608E718E0E9474CABE
:103720002DB73EB7265E3F4F0FB6F8943EBF0FBE93
:103730002DBFCE010E94EBCA181619060CF066CFF9
:1037400015C000D00F9288E097E0EDB7FEB79283E6
:10375000818380E695E0948383830E9474CA0F90EE
:103760000F900F900F9080E00E94181980E0CDB765
:10377000DEB7E2E10C9411E00F931F9300E616E12F
:103780004091560950915709C80160E00E94C98CC8
:103790004091560950915709C80161E00E94C98CB7
:1037A0004091560950915709C80162E00E94C98CA6
:1037B0004091560950915709C80163E00E94C98C95
:1037C0004091560950915709C80166E00E94C98C82
:1037D0004091560950915709C80167E00E94C98C71
:1037E0001F910F9108956091CC1361504091CD13BA
:1037F0005091CE1380E696E10E94C98C08951092F4
:10380000F0131092EF131092E3131092E213109240
:10381000E5131092E4130E940ADA6093DE137093AA
:10382000DF138093E0139093E113089580915A136E
:1038300090915B13892B09F45CC00E940ADA2091F5
:103840005413309155134091561350915713621BE6
:10385000730B840B950B2091581330915913442707
:1038600037FD4095542F621773078407950708F4B6
:1038700040C037C0019790935B1380935A13809197
:103880005A1390915B13892BA1F10E940ADA60937D
:10389000541370935513809356139093571360915C
:1038A0005313862F8450843088F480915A1380FFFC
:1038B00005C040915C1350915D1304C040915E13AC
:1038C00050915F1380E696E10E94C98C809153135A
:1038D000853079F480910B0194E0892780930B0166
:1038E000089580915A1390915B131816190614F2DB
:1038F000C6CF089585E0809353131092541310920D
:10390000551310925613109257136091D113709162
:10391000D2138091D3139091D4130E9421DD20E023
:1039200030E04AEF53E40E94ABDE0E94EEDC70937D
:103930005913609358138091CD139091CE13A09199
:10394000CF13B091D013880F991FAA1FBB1F90935C
:103950005B1380935A130E94161C08951F931091B5
:10396000CC131150109353131F5F812F8550843057
:1039700008F05BC010925413109255131092561316
:10398000109257136091D5137091D6138091D7136D
:103990009091D8130E9421DD20E030E04AEF53E4FB
:1039A0000E94ABDE0E94EEDC7093591360935813B3
:1039B0008091D1139091D213A091D313B091D413CD
:1039C000880F991FAA1FBB1F90935B1380935A13F4
:1039D0008091CD139091CE1390935D1380935C13DF
:1039E000153079F0163018F41430E9F405C01630AB
:1039F00069F01730C1F40FC08091F5099091F60974
:103A00000EC080913E0A90913F0A09C08091870ABA
:103A10009091880A04C08091D00A9091D10A909325
:103A20005F1380935E130E94161C1F9108956F927E
:103A30007F928F929F92AF92BF92CF92DF92EF923E
:103A4000FF920F931F930E940ADA2091391330914D
:103A50003A1340913B1350913C13621B730B840B40
:103A6000950B20913D1330913E13442737FD40952F
:103A7000542F261737074807590790F480913F13B2
:103A800090914013A0914113B091421380931F1362
:103A900090932013A0932113B093221381E079C057
:103AA0000E940ADA7B018C01609135137091361304
:103AB00080913713909138130E9421DD3B014C0116
:103AC0006091431370914413809145139091461374
:103AD0000E9421DD5B016C018091391390913A13B2
:103AE000A0913B13B0913C13E81AF90A0A0B1B0B87
:103AF000C801B7010E941FDD7B018C0160913D135D
:103B000070913E13882777FD8095982F0E9421DDC4
:103B10009B01AC01C801B7010E9486DC9B01AC018E
:103B2000C601B5010E94ABDE7B018C016091491397
:103B300070E0882777FD8095982F0E9421DD9B01FA
:103B4000AC01C801B7010E94ABDE9B01AC01C4010E
:103B5000B3010E94A2DB0E94EEDC613A2CE87207FE
:103B600020E0820720E092072CF0605A7C488040D9
:103B7000904006C097FF04C0605673478F4F9F4F19
:103B800060931F137093201380932113909322133B
:103B900080E01F910F91FF90EF90DF90CF90BF904A
:103BA000AF909F908F907F906F9008950E940ADA57
:103BB00020916413309165134091661350916713FF
:103BC000621B730B840B950B209160133091611372
:103BD000409162135091631326173707480759071E
:103BE00010F080E00895109260131092611310920B
:103BF00062131092631381E008958091B7128137A8
:103C000061F1823718F4803771F505C0823731F0E1
:103C1000833749F525C00E94D61D089520914B1386
:103C200030914C1340914D1350914E13809160137D
:103C300090916113A0916213B09163132817390713
:103C40004A075B0784F4109260131092611310927C
:103C500062131092631381E008950E94B2130895D5
:103C60000E94171D089580E00895EF92FF920F9330
:103C70001F931092C40480911F1390912013A09160
:103C80002113B09122138093351390933613A09390
:103C90003713B09338130E940ADA60933913709384
:103CA0003A1380933B1390933C131091CC131093D1
:103CB00049130091D51300934A136091D113709169
:103CC000D2138091D3139091D41324E630E040E0D6
:103CD00050E00E9472DF7093481360934713672B84
:103CE00031F480E797E190934813809347131123B1
:103CF00019F48FEF809349130023B9F06091CD132D
:103D00007091CE138091CF139091D01324E630E0C0
:103D100040E050E00E9472DF6093431370934413BD
:103D2000809345139093461374C06091CD137091A6
:103D3000CE138091CF139091D01324E630E040E071
:103D400050E00E9472DF7B018C0160933F137093FF
:103D50004013809341139093421380914913209113
:103D60003513309136134091371350913813813009
:103D7000C1F4D801C701821B930BA40BB50B2E1500
:103D80003F054007510724F080569347AF4FBF4F80
:103D90008093431390934413A0934513B093461319
:103DA00015C0E216F3060407150724F02056334722
:103DB0004F4F5F4F2E193F09400B510B2093431378
:103DC000309344134093451350934613809143130B
:103DD00090914413A0914513B0914613813A2CE879
:103DE000920720E0A20720E0B2072CF0805A9C48FE
:103DF000A040B04006C0B7FF04C080569347AF4F05
:103E0000BF4F8093431390934413A0934513B093F3
:103E100046132091471330914813442737FD4095AE
:103E2000542F6091431370914413809145139091E6
:103E300046130E94DADFCA01B90128EE33E040E000
:103E400050E00E9472DF70933E1360933D131F9108
:103E50000F91FF90EF900895AF92BF92CF92DF92B3
:103E6000EF92FF920F931F93E0906C13F0906D13FD
:103E700000916E1310916F130E940ADA209168135B
:103E80003091691340916A1350916B13621B730B4D
:103E9000840B950B25E030E040E050E00E94B8DF55
:103EA000E21AF30A040B150BE092A013F092A1138F
:103EB0000093A2131093A313A0909113B0909213A8
:103EC000C0909313D09094136091051370910613D2
:103ED00080910713909108136A197B098C099D0939
:103EE0000E9421DD2DEC3CEC4CE45EE30E94ABDE55
:103EF0007B018C016091091370910A13882777FD6B
:103F00008095982F0E9421DD2DEC3CEC4CE45FE382
:103F10000E94ABDE9B01AC01C801B7010E94A2DB8D
:103F20000E94EEDC9B0170930A1360930913A09228
:103F30000513B0920613C0920713D0920813809114
:103F40007008882349F08091FD129091FE128897A5
:103F50001CF481E080930413121613061CF081E018
:103F60008093041380E01F910F91FF90EF90DF90FA
:103F7000CF90BF90AF900895CF92DF92FF920F93B2
:103F80001F93CF93DF930E94AE1788E19FE00E94BA
:103F9000C28E68EE73E080E090E00E943EDA00D0CE
:103FA0000F9208E017E0ADB7BEB712961C930E93C0
:103FB000119786E796E014969C938E9313970E9430
:103FC00074CA0F900F900F900F9068EE73E080E02E
:103FD00090E00E943EDA30E7C32E36E0D32EC0E0F8
:103FE000D0E0F02E012F20C088E19FE06C2F0E94CE
:103FF000938E00D000D0EDB7FEB73196ADB7BEB707
:104000001196FC92119712960C93D382C2829583DB
:1040100084830E9474CA2196EDB7FEB736960FB618
:10402000F894FEBF0FBEEDBFC930D105ECF288E0B9
:1040300097E00E94A9D864E170E080E090E00E94DF
:104040003EDA88E097E00E94EBCA181619061CF0C9
:10405000C0E0D0E0E9CF80E0DF91CF911F910F91D8
:10406000FF90DF90CF900895A0E0B0E0EAE3F0E2A7
:104070000C94FFDF0E94AE1768EE73E080E090E0E2
:104080000E943EDA5BE7C52E56E0D52E48E0E42ECE
:1040900047E0F42E6DE471E080E090E00E943EDAAB
:1040A0000E9416178091160F9091170F0E9490C0D2
:1040B000C091160FD091170F8DA1882309F440C02D
:1040C0008DB79EB742970FB6F8949EBF0FBE8DBFB7
:1040D0000DB71EB70F5F1F4FEDB7FEB7F282E1823B
:1040E000F801D382C2828A859B85AC85BD85848395
:1040F0009583A683B7838E859F85A889B989808794
:104100009187A287B3876A897B898C899D8924E6F8
:1041100030E040E050E00E94DADFF8012487358784
:10412000468757878CA1808B118A0E9474CA8DB7ED
:104130009EB742960FB6F8949EBF0FBE8DBF06C0C5
:1041400088E097E060E072E00E94B4D788E097E0F2
:104150000E94EBCA181619060CF09CCF80E0CDB770
:10416000DEB7E8E00C941BE0CF93DF93C0E0D0E033
:1041700088E097E062E072E00E94B4D72196C832EE
:10418000D105B1F788E097E064E072E00E94DAD8E8
:10419000DF91CF910895CF93DF93EC0107C0219772
:1041A00088E097E064E072E00E94DAD81C161D06F1
:1041B000B4F3DF91CF91089500D00F9288E097E09B
:1041C000EDB7FEB79283818386E190E19483838388
:1041D0000E9474CA0F900F900F900F900E94B4200D
:1041E0000E948C180E94D21882E090E00E94CB209E
:1041F00008950F931F9300D00F9208E017E0ADB71A
:10420000BEB712961C930E9311978EE590E114960B
:104210009C938E9313970E9474CA0F900F900F90E7
:104220000F900E94B420EDB7FEB73E970FB6F894FA
:10423000FEBF0FBEEDBF3196ADB7BEB712961C9351
:104240000E9311978BE190E1938382838091BA075B
:104250009091BB07958384838091C7079091C8078D
:10426000978386838091F9079091FA0791878087D9
:104270008091D407992787FD9095938782878091B5
:10428000EC079091ED07958784870E9474CAEDB77B
:10429000FEB73E960FB6F894FEBF0FBEEDBF82E0AC
:1042A00090E00E94CB201F910F9108950F931F93D0
:1042B00000D00F9208E017E0ADB7BEB712961C937E
:1042C0000E93119786E990E114969C938E93139721
:1042D0000E9474CA0F900F900F900F900E94B4200C
:1042E000EDB7FEB73E970FB6F894FEBF0FBEEDBF19
:1042F0003196ADB7BEB712961C930E93119788E610
:1043000090E1938382838091560790915707A09103
:104310005807B091590784839583A683B78380910A
:104320006507909166079187808780912308909117
:104330002408AA2797FDA095BA2F82879387A48780
:10434000B5870E9474CAEDB7FEB73E960FB6F894D3
:10435000FEBF0FBEEDBF82E090E00E94CB201F9118
:104360000F9108950F931F9300D00F9208E017E06C
:10437000ADB7BEB712961C930E9311978BE291E1E5
:1043800014969C938E9313970E9474CA0F900F906B
:104390000F900F900E94B42000D00F92EDB7FEB79F
:1043A000128301838EE191E1948383830E9474CA16
:1043B0000F900F900F900F908CE79BE00E94441A93
:1043C00000D00F92ADB7BEB712961C930E93119703
:1043D00086E191E114969C938E9313970E9474CA80
:1043E0000F900F900F900F908DEC9BE00E94441A5D
:1043F00000D00F92EDB7FEB71283018380E191E107
:10440000948383830E9474CA0F900F900F900F9033
:104410008EE19CE00E94441A00D00F92ADB7BEB767
:1044200012961C930E9311978DEF90E114969C9326
:104430008E9313970E9474CA0F900F900F900F9055
:104440008FE69CE00E94441A00D00F92EDB7FEB7B1
:104450001283018385EF90E1948383830E9474CA61
:104460000F900F900F900F9080EC9CE00E94441AE8
:1044700000D00F92ADB7BEB712961C930E93119752
:104480008FEE90E114969C938E9313970E9474CABA
:104490000F900F900F900F9081E19DE00E94441AC1
:1044A000EDB7FEB738970FB6F894FEBF0FBEEDBF5D
:1044B0003196ADB7BEB712961C930E93119780EE4E
:1044C00090E1938382838091020F9091030FA091DA
:1044D000040FB091050F84839583A683B7830E9450
:1044E00074CAEDB7FEB73196ADB7BEB712961C933E
:1044F0000E93119781ED90E1938382838091110F48
:104500009091120FA091130FB091140F8483958393
:10451000A683B7830E9474CA0F900F900F900F90DC
:10452000EDB7FEB71283018386EC90E19483838319
:104530000E9474CA0F900F900F900F9082E69DE03A
:104540000E94441A00D00F92ADB7BEB712961C93CA
:104550000E9311978FEB90E114969C938E93139783
:104560000E9474CA0F900F900F900F9083EB9DE004
:104570000E94441A00D00F92EDB7FEB71283018358
:104580008FEA90E1948383830E9474CA0F900F9006
:104590000F900F9085E59EE00E94441A00D00F9284
:1045A000ADB7BEB712961C930E9311978EE990E1AA
:1045B00014969C938E9313970E9474CA0F900F9039
:1045C0000F900F9086EA9EE00E94441A82E090E0ED
:1045D0000E94CB201F910F91089500D00F9288E088
:1045E00097E0EDB7FEB79283818382E391E19483F4
:1045F00083830E9474CA0F900F900F900F900E94B7
:10460000B4200E94551982E090E00E94CB200895CA
:10461000CF93DF9300D00F92C8E0D7E0ADB7BEB71D
:104620001296DC93CE93119784E691E114969C93B5
:104630008E9313970E9474CA0F900F900F900F9053
:104640000E94B42080916408813049F400D00F9218
:10465000EDB7FEB7D283C18381E691E12FC08823F5
:1046600059F400D00F92ADB7BEB71296DC93CE933B
:1046700011978BE591E131C0823049F400D00F925F
:10468000EDB7FEB7D283C18386E591E117C08330D1
:1046900059F400D00F92ADB7BEB71296DC93CE930B
:1046A00011978FE491E119C0843059F400D00F9232
:1046B000EDB7FEB7D283C1838BE491E1948383830A
:1046C00010C08530A1F400D00F92ADB7BEB71296DE
:1046D000DC93CE93119784E491E114969C938E938E
:1046E00013970E9474CA0F900F900F900F9000D0F4
:1046F00000D0EDB7FEB7319688E097E0ADB7BEB712
:1047000012969C938E93119789E391E19383828310
:1047100080916408992787FD9095958384830E94F2
:1047200074CAEDB7FEB736960FB6F894FEBF0FBE4B
:10473000EDBF82E090E00E94CB20DF91CF91089501
:10474000CF93DF93FB01C285D385CE0166E778E086
:104750000E94A1E1892B19F41092640842C0CE0195
:1047600064E778E00E94A1E1892B11F481E023C085
:10477000CE0160E778E00E94A1E1892B11F482E08C
:104780001AC0CE016AE678E00E94A1E1892B11F4FB
:1047900083E011C0CE0167E678E00E94A1E1892B99
:1047A00011F484E008C0CE0161E678E00E94A1E146
:1047B000892B21F485E08093640813C000D00F9208
:1047C00088E097E0EDB7FEB79283818389E398E0B4
:1047D000948383830E9474CA0F900F900F900F9060
:1047E00004C089E598E00E94E4900E94082380E0DC
:1047F000DF91CF91089500D000D0EDB7FEB731968C
:1048000088E097E0ADB7BEB712969C938E93119750
:104810008BE691E1938382838091490790914A07C7
:10482000958384830E9474CA8DB79EB706960FB68F
:10483000F8949EBF0FBE8DBF0E94B42082E090E02E
:104840000E94CB20089500D00F9288E097E0EDB74A
:10485000FEB79283818381E891E1948383830E94F0
:1048600074CA0F900F900F900F900E94B420809107
:104870000D140E94181982E090E00E94CB20089548
:10488000CF93DF9300D00F92C8E0D7E0EDB7FEB72B
:10489000D283C1838AEF91E1948383830E9474CA97
:1048A0000F900F900F900F900E94B42080917C0881
:1048B000882381F400D00F92EDB7FEB7D283C18375
:1048C00087EE91E1948383830E9474CA0F900F90C6
:1048D0000F900F9080917C08813091F400D00F925E
:1048E00088E097E0EDB7FEB7928381838FED91E189
:1048F000948383830E9474CA0F900F900F900F903F
:1049000080917C08823091F400D00F9288E097E08B
:10491000EDB7FEB79283818387ED91E19483838322
:104920000E9474CA0F900F900F900F9080917C0896
:10493000833091F400D00F9288E097E0EDB7FEB796
:10494000928381838CEC91E1948383830E9474CA67
:104950000F900F900F900F9080917C08843091F40D
:1049600000D00F9288E097E0EDB7FEB79283818385
:104970008EEB91E1948383830E9474CA0F900F9011
:104980000F900F9082E090E00E94CB20DF91CF91BA
:104990000895FB0184859585A685B78585309105A9
:1049A000A105B10538F480937C0881E798E00E9466
:1049B000E49012C000D00F9288E097E0EDB7FEB708
:1049C000928381838BE298E0948383830E9474CAEC
:1049D0000F900F900F900F900E94402480E0089558
:1049E000FF920F931F93F62E00D000D0EDB7FEB7C5
:1049F000319608E017E0ADB7BEB712961C930E9340
:104A000011972FE23FE033832283848315820E9433
:104A100074CA8DB79EB706960FB6F8949EBF0FBEA8
:104A20008DBFEF2DF0E0EE0FFF1FEA57FB4F6081C7
:104A30007181C8010E94DAD81F910F91FF900895EB
:104A4000CF93DF9300D00F9288E097E0EDB7FEB7E9
:104A5000928381838EEC9FE0948383830E9474CA47
:104A60000F900F900F900F900E94B420C0E0D0E004
:104A7000FE01EE5EF74F8C2F60810E94F02421969C
:104A8000C630D105A9F782E090E00E94CB20DF91EB
:104A9000CF91089589EC90E10E941FC60E94D21820
:104AA0000E94DC2080E008950F931F93CF93DF9343
:104AB000EB010A851B85C8016AE679E00E94A1E145
:104AC000892B09F448C1C80160E679E00E94A1E1A0
:104AD000892B89F5FE01749686819781A085B18521
:104AE0008093850C9093860CA093870CB093880CD0
:104AF00086819781A085B1858093D60C9093D70C41
:104B0000A093D80CB093D90C8CA19DA1AEA1BFA14C
:104B10008093020F9093030FA093040FB093050F9F
:104B200087EF9EE00E94E4908FE69CE00E9435D2E1
:104B300080EC9CE00EC1C8016CE579E00E94A1E127
:104B4000892B09F58A8D9B8DAC8DBD8D8093270DAA
:104B50009093280DA093290DB0932A0D81E19DE03B
:104B60000E9435D28CA19DA1AEA1BFA18093110F4F
:104B70009093120FA093130FB093140F86E09FE051
:104B80000E94E490E8C0C80168E579E00E94A1E1D4
:104B9000892B09F063C0BE016C5E7F4FFB018681EB
:104BA0009781A085B1858093780D9093790DA0931E
:104BB0007A0DB0937B0DAE01425E5F4FFA018681A4
:104BC0009781A085B1858093870D9093880DA093E0
:104BD000890DB0938A0DFE01B896228133813093FE
:104BE000A60D2093A50D37FF08C088279927821BA3
:104BF000930B9093A60D8093A50DEB018E819F8161
:104C0000A885B9858093C90D9093CA0DA093CB0D4B
:104C1000B093CC0DEA018E819F81A885B9858093E0
:104C2000D80D9093D90DA093DA0DB093DB0D62816E
:104C300073817093F70D6093F60D77FF08C0882796
:104C40009927861B970B9093F70D8093F60D83EBB6
:104C50009DE00E9435D282E69DE07BC0C80163E5FD
:104C600079E00E94A1E1892BB9F58A8D9B8DAC8DED
:104C7000BD8D80936B0E90936C0EA0936D0EB093D0
:104C80006E0E8CA19DA1AEA1BFA180937A0E9093D0
:104C90007B0EA0937C0EB0937D0E80E090E0A0E0B0
:104CA000B0E08093890E90938A0EA0938B0EB09300
:104CB0008C0E6AA57BA57093990E6093980E77FF72
:104CC00008C088279927861B970B9093990E80938D
:104CD000980E85E59EE03DC0C8016DE479E00E9434
:104CE000A1E1892BC1F58A8D9B8DAC8DBD8D809303
:104CF000BC0E9093BD0EA093BE0EB093BF0E8CA1C0
:104D00009DA1AEA1BFA18093CB0E9093CC0EA0939A
:104D1000CD0EB093CE0E8EA59FA5A8A9B9A980935C
:104D2000DA0E9093DB0EA093DC0EB093DD0E6CA92F
:104D30007DA97093EA0E6093E90E77FF08C088277B
:104D40009927861B970B9093EA0E8093E90E86EACB
:104D50009EE00E9435D20E94B221DF91CF911F9137
:104D60000F91089500D00F9288E097E0EDB7FEB75D
:104D70009283818387E999E0948383830E9474CA34
:104D80000F900F900F900F9088E097E00E9401CB5A
:104D9000FFEF8F3F9F07C1F38937910529F08935D0
:104DA000910511F08FEF08950E94AA9100D00F9203
:104DB00088E097E0EDB7FEB79283818382E799E0C0
:104DC000948383830E9474CA0F900F900F900F906A
:104DD00068EE73E080E090E00E943EDAFFCFEF9251
:104DE000FF920F931F93CF93DF937B018230A1F04B
:104DF00000D00F9288E097E0EDB7FEB792838183F1
:104E000082E79AE0948383830E9474CA8FEF0F90A5
:104E10000F900F900F9081C0FB0102851385C80190
:104E20006EE67AE00E948EE1892B19F4CFEFDFEF76
:104E300053C0C80160E67AE00E948EE1C0E0D0E095
:104E4000892B11F4C1E0D0E0C80163E57AE00E944B
:104E50008EE1892B09F4C260C8016FE47AE00E94F8
:104E60008EE1892B09F4C460C8016CE47AE00E94E9
:104E70008EE1892B09F4C860C80167E47AE00E94DA
:104E80008EE1892B09F4C061C80162E47AE00E94D6
:104E90008EE1892B09F4C062C8016DE37AE00E94BB
:104EA0008EE1892B09F4C064C80169E37AE00E94AD
:104EB0008EE1892B09F4C068C80165E37AE00E949D
:104EC0008EE1892B09F4D160C8016DE27AE00E947D
:104ED0008EE1892B09F4D260F7018081918166E22D
:104EE0007AE00E948EE1892B39F48091300890910C
:104EF0003108C82BD92B08C0C095D09580913008B7
:104F000090913108C823D923D0933108C093300839
:104F100085E298E00E94E49080E0CDB7DEB7E6E05D
:104F20000C941DE0FF920F931F93F82E0DE117E1F3
:104F3000C80163EA0E9482C8C80165E90E9482C86C
:104F4000C80163E00E9482C8C8016F2D0E9482C818
:104F5000C8016AEB0E9482C81F910F91FF900895CB
:104F6000EF92FF920F931F93CF93DF9373EAE72E95
:104F70007AE0F72ECAE0D0E008E017E000D000D0D9
:104F8000EDB7FEB73196ADB7BEB712961C930E9330
:104F90001197F382E282D583C4830E9474CAEDB76D
:104FA000FEB736960FB6F894FEBF0FBEEDBF68EEA3
:104FB00073E080E090E00E943EDA2197F9F600D09D
:104FC0000F92ADB7BEB712961C930E93119782E95C
:104FD0009AE014969C938E9313970E9474CAC1E032
:104FE000D0E00F900F900F900F908DE197E1BE01F0
:104FF0000E94D8C72196B0E1C030DB07B1F78DE140
:1050000097E161E070E00E94CCC78DE197E163EA2F
:105010000E9482C88DE197E165E90E9482C88DE116
:1050200097E160EF0E9482C88DE197E160E00E9405
:1050300082C88DE197E16AEB0E9482C88DE197E119
:105040000E94FAC800D00F9288E097E0EDB7FEB753
:105050009283818384E89AE0948383830E9474CA54
:105060000F900F900F900F90CDB7DEB7E6E00C9445
:105070001DE0CF92DF92EF92FF920F937C016B01C4
:10508000BA01A901202F0E9450938AE795E0F70109
:1050900091838083D486C3868091BB169091BC1681
:1050A0000D969093BC168093BB160F91FF90EF90D6
:1050B000DF90CF900895EF92FF920F931F937C01A2
:1050C000162FBA01A901202F0E94509388E895E07D
:1050D000F7019183808313878091BB169091BC1652
:1050E0000C969093BC168093BB161F910F91FF9066
:1050F000EF9008950F931F938C0124600E945093AA
:1051000089EF95E0F801918380838091BB1690919F
:10511000BC160B969093BC168093BB161F910F91F3
:1051200008954630510540F0DC011B96FB0186E0F6
:1051300001900D928150E1F786E090E00895FC0126
:105140004630510538F0DB013B9686E001900D9228
:105150008150E1F786E090E008954831510540F034
:10516000DC011B96FB0188E101900D928150E1F773
:1051700088E190E00895FC014831510538F0DB01E9
:105180003B9688E101900D928150E1F788E190E033
:1051900008954C30510540F0DC011B96FB018CE07A
:1051A00001900D928150E1F78CE090E00895FC01B0
:1051B0004C30510538F0DB013B968CE001900D92AC
:1051C0008150E1F78CE090E008954432510540F0C1
:1051D000DC011B96FB0184E201900D928150E1F706
:1051E00084E290E00895FC014432510538F0DB017F
:1051F0003B9684E201900D928150E1F784E290E0C9
:105200000895A6E0B1E0E7E0F9E20C94F5DF682E3E
:10521000292E59016A0148015E2C7F2C3090F90437
:105220004090FA0486E18D83DE011696FB018FE043
:1052300001900D928150E1F7E6E0EE2EF12CEC0E9C
:10524000FD1EC601B5014FE097010E94AC0F082F6B
:1052500010E0E82FE15FF0E0D701AE0FBF1F9C9296
:10526000DE011796EA0FFB1F80828F5E90E0E80E4A
:10527000F91EF7017082A80FB91F5C920D5E1F4FD7
:105280007E010894E11CF11CC701632D442D262DDD
:105290000E94860E862D922DB7010E94AF0FCA5F25
:1052A000DE4FE2E10C9411E0A6E0B1E0EAE5F9E2BC
:1052B0000C94FFDFD82EC92E1091F9047091FA04D6
:1052C0008EEF8D836E83DE011796FA0182E30190E3
:1052D0000D928150E1F77E010894E11CF11CC70199
:1052E000612F472F2D2D03E310E00E94860E8D2D98
:1052F0009C2DB7010E94AF0FCA5FDE4FE8E00C940F
:105300001BE0A3E3B0E0E7E8F9E20C9405E0DE017E
:1053100012969E012C5C3F4FFA014F5F5F4FE49164
:10532000ED93A217B307C1F7FC0182859385AE0107
:105330004E5F5F4F0E945429E396E2E00C9421E017
:105340008091A207992787FD9095A92FB92F2091C9
:105350004B1330914C1340914D1350914E138217C3
:105360009307A407B50714F480E008958FEB91E14B
:1053700061E046EB52E10E94812981E008950E949C
:105380000ADA20910F1330911013409111135091AC
:105390001213621B730B840B950B20911313309126
:1053A0001413409115135091161326173707480709
:1053B000590710F080E008958FEB91E161E043EC34
:1053C00052E10E94812981E008959091F9048917A2
:1053D00011F081E008958091FA04681711F480E0DB
:1053E00008958FEB91E161E04AE754E10E94812941
:1053F00080E00895A0E0B0E0E0E0FAE20C94FDDF88
:10540000742F052F5901C82EDD24C601880F991F5E
:10541000DC0143E0AA0FBB1F4A95E1F7A81BB90BBB
:10542000AC5CBB4E15968D919C9116970197099790
:1054300058F11C9211961C921197F60133E0EE0F71
:10544000FF1F3A95E1F7EC19FD09EE0FFF1FEA5C2B
:10545000FB4E108213961C92139714961C9214976D
:1054600016961C921E92159717961C9217971D96CA
:105470001C921E921C971B961C921E921A971896AD
:105480001C92189719961C9286E091E0C89EA00184
:10549000C99E500DD89E500D1124405B5B4EF60105
:1054A00093E0EE0FFF1F9A95E1F7EC19FD09EE0F5F
:1054B000FF1FEA5CFB4E1082C601880F991FFC019A
:1054C000A3E0EE0FFF1FAA95E1F7E81BF90BEC5CD8
:1054D000FB4E0580F681E02DEA30F10508F0C0C1F1
:1054E000EE58FF4FEC010C942CE0653509F0B8C183
:1054F000C601880F991FFC0123E0EE0FFF1F2A95BC
:10550000E1F7E81BF90BEC5CFB4E82E090E0968340
:1055100085832FEF3FEF86E091E0C89EF001C99EA2
:10552000F00DD89EF00D1124E05BFB4EEC5FFE4FBA
:105530002193308395C186E091E0C89EF001C99E19
:10554000F00DD89EF00D1124E05BFB4E60838E01C0
:10555000B3E0000F111FBA95E1F70C1B1D0B0C5C9B
:105560001B4ED80117961C92CA010E94F90E84E0C6
:1055700090E0F8011BC086E091E0C89EF001C99E52
:10558000F00DD89EF00D1124E05BFB4E6183CA0143
:105590000E94F90EFE01A3E0EE0FFF1FAA95E1F7AE
:1055A000EC1BFD0BEC5CFB4E83E090E09683858367
:1055B00057C183E890E0C89EF001C99EF00DD89EC7
:1055C000F00D1124EE0FFF1FEE5AFB4E6083CA014F
:1055D0000E94F90EFE0133E0EE0FFF1F3A95E1F74E
:1055E000EC1BFD0BEC5CFB4E85E090E0DFCF86E032
:1055F00091E0C89EF001C99EF00DD89EF00D1124D7
:10560000E05BFB4E6383CA010E94F90EFE0123E0BA
:10561000EE0FFF1F2A95E1F7EC1BFD0BEC5CFB4E38
:1056200086E090E0C3CF86E091E0C89E8001C99EED
:10563000100DD89E100D1124005B1B4ED80114963E
:105640006C93CA010E94F90EF8018081E601CC0F2B
:10565000DD1F882359F4FE01B3E0EE0FFF1FBA955A
:10566000E1F7EC1BFD0BEC5CFB4E39C0FE01A3E047
:10567000EE0FFF1FAA95E1F7EC1BFD0BEC5CFB4E58
:1056800087E090E093CF7C01F3E0EE0CFF1CFA95ED
:10569000E1F7E81AF90A84E394E1E80EF91ED7016C
:1056A00017962C91179786E091E0C89E8001C99EBD
:1056B000100DD89E100D1124005B1B4EF801E20F57
:1056C000F11D65832F5F17962C93CA010E94F90E76
:1056D000F7019781D8018C91981709F0C1C088E033
:1056E00090E064CF86E091E0C89E9001C99E300DA5
:1056F000D89E300D1124205B3B4EA9014C5F5E4FBC
:10570000FA018081E601CC0FDD1F6817B1F1DE01DF
:1057100073E0AA0FBB1F7A95E1F7AC1BBD0BAC5C25
:10572000BB4E14968C9114978F5F14968C9314979C
:10573000F60193E0EE0FFF1F9A95E1F7EC19FD09D2
:10574000EE0FFF1FEA5CFB4E108281E090E01696A0
:105750009C938E931597653509F082C082E090E0A6
:1057600016969C938E9315978FEF9FEFDA018C938B
:10577000F901EB5FFE4F908373C0FE01B3E0EE0FC3
:10578000FF1FBA95E1F7EC1BFD0BEC5CFB4E89E0CB
:1057900090E00CCF86E091E0C89E9001C99E300D4C
:1057A000D89E300D1124205B3B4EA5E0EA2EA1E0EF
:1057B000FA2EE20EF31EF7018081E601CC0FDD1F09
:1057C000D601E3E0AA0FBB1FEA95E1F7681739F1AC
:1057D000FE0153E0EE0FFF1F5A95E1F7EC1BFD0BA6
:1057E000EC5CFB4E84818F5F8483AC19BD09AA0FEA
:1057F000BB1FAA5CBB4E1C9281E090E09683858320
:10580000653571F582E090E0968385838FEF9FEF99
:10581000F901EC5FFE4F8083D7019C9321C0AC1946
:10582000BD09AA0FBB1FAA5CBB4E81E08C93FE0191
:1058300083E0EE0FFF1F8A95E1F7EC1BFD0BEC5C9C
:10584000FB4E81E090E096838583272F302FC9019E
:10585000DC01FA0186E091E001900D920197E1F7F9
:10586000F601B3E0EE0FFF1FBA95E1F7EC19FD0961
:10587000EE0FFF1FEA5CFB4E80818130C1F5C6014F
:10588000880F991FDC0163E0AA0FBB1F6A95E1F73F
:10589000A81BB90BAC5CBB4E86E091E0C89EF00142
:1058A000C99EF00DD89EF00D1124E05BFB4E818166
:1058B00018968C9318971A968D919C911B97892B0B
:1058C00021F41D961C921E921C97C601880F991FE9
:1058D000FC0143E0EE0FFF1F4A95E1F7E81BF90BCF
:1058E000EC5CFB4E82859385019693878287C60187
:1058F000880F991FFC0123E0EE0FFF1F2A95E1F7A7
:10590000E81BF90BEC5CFB4E80858F5FD501189688
:105910008C931897828593851B969C938E931A97E8
:1059200084811C968C931C971D961C921482F60100
:10593000B3E0EE0FFF1FBA95E1F7EC19FD09EE0F8A
:10594000FF1FEA5CFB4E8081CDB7DEB7EAE00C9426
:1059500019E0FC018CE695E091838083CF010E94E1
:105960009D920895FC018AE795E091838083CF01A1
:105970000E949D920895FC0188E895E091838083C0
:10598000CF010E949D920895FC0184EA95E09183E5
:105990008083CF010E949D920895FC0184EA95E0E6
:1059A00091838083CF010E949D920895FC0182EB38
:1059B00095E091838083CF010E949D9208950F937B
:1059C0001F938C0180579F4F0E94B22CC8018D57A6
:1059D0009F4F0E94B22CC8018A589F4F0E94B22C40
:1059E000C80187599F4F0E94B22CC801845A9F4F0B
:1059F0000E94B22CC801815B9F4F0E94B22CC8014B
:105A00008E5B9F4F0E94B22CC801C5960E94B22C9B
:105A100089EF95E0F80193A782A7C8018A960E94B2
:105A20009D921F910F9108950F931F938C01C8961B
:105A30000E94B22CC80189960E94CD2CC8014A96BA
:105A40000E94CD2CC8010B960E94CD2C89EF95E0C9
:105A5000F80191838083C8010E949D921F910F914C
:105A600008950F931F938C01C1960E94B22CC80118
:105A700084960E94B22CC80147960E94B22C89EFEE
:105A800095E0F80191838083C8010E949D921F9147
:105A90000F910895FC0180EC95E091838083CF0104
:105AA0000E949D920895FC018EEC95E09183808385
:105AB000CF010E949D9208950F931F938C018CE655
:105AC00095E0F80191838083C8010E949D92C801EE
:105AD0000E941B971F910F9108950F931F938C01A4
