:100000000C94F40B0C94200C0C94200C0C94200CED
:100010000C94200C0C94200C0C94200C0C94200CB0
:100020000C94200C0C94200C0C94200C0C94200CA0
:100030000C94200C0C94200C0C94200C0C945C8AD6
:100040000C94200C0C94200C0C94200C0C94200C80
:100050000C94200C0C94200C0C94200C0C94D2D7F3
:100060000C94200C0C940D100C944D100C94200C3E
:100070000C94200C0C94200C0C94200C0C94200C50
:100080000C94200C0C94200C0C94200C0C94200C40
:100090000C949F100C94DF100C94200C0C9435D40D
:1000A0000C94200C0C94DF880C94200C0C94200CE5
:1000B0000C94200C0C94200C0C94200C0C94200C10
:1000C0000C94200C0C94200C0C94200C0C94200C00
:1000D0000C94200C0C94200C0C9431110C94711184
:1000E0000C94200C692C692C8F2CCD2CAF2CEB2C74
:1000F000072D372D662DBE2D3E5F5C5F415F445F4F
:10010000475F4A5F4D5F505F535F565F595F84732F
:10011000AA73B673C773D073BB7BD973BB7BBB7B2E
:10012000BB7BE573EE73F7730E74A27AA27AA27AA0
:100130001A74A27A1074A27AA27A1D7425741F749C
:100140002274A27AA27AA27AA27AA27AA27AA27A55
:10015000A27AA27A2574A27A277456895B8960896B
:1001600065896A896F89748979897E898389888993
:100170007DBB78BB81BB85BB92BBAABBD1BBE1BBBE
:100180001EBD19BD22BD2BBD50BD5BBD73BD93BD52
:100190009ABD0FD912D905D909D94BD916D91AD96F
:1001A00020D924D928D92ED932D936D93CD940D909
:1001B00046D9036EDB363D9A9999993DABAAAA2A96
:1001C0003E000000803F084AD73B3BCE016E84BC16
:1001D000BFFDC12F3D6C74319ABD56833DDA3D00A1
:1001E000C77F11BED9E4BB4C3E916BAAAABE0000EA
:1001F00000803F072C7AA5BA6CC590DA3B9365FC6A
:100200008BBC53F810FD3C5692834DBD879D3AB68A
:100210003DCBC9BF5BBE73DA0FC93F05A84CCDB259
:10022000D44EB93836A9020C50B9918688083CA63C
:10023000AAAA2ABE000000803F08000000BE922447
:1002400049123EABAAAA2ABECDCCCC4C3E0000003F
:1002500080BEABAAAAAA3E00000000BF000000803A
:100260003F0000000000084178D3BB4387D1133D15
:10027000190E3CC3BD4282AD2B3E68EC8276BED9DE
:100280008FE1A93E4C80EFFFBE01C4FF7F3F00001D
:100290000000004C6F670064756D70000000000086
:1002A00000000000006F5F65726173650000000070
:1002B0000000000000B926656E61626C65000000F8
:1002C0000000000000F72564697361626C6500003E
:1002D0000000000000F72568656C70000000000059
:1002E00000000000002717706C616E6E6572006779
:1002F00063730000000000000000000000F97D733F
:10030000657475700065726173650000000000001F
:100310000000003C3A726573657400000000000044
:10032000000000BA25726164696F000000000000DF
:10033000000000B1446672616D65000000000000BD
:100340000000001A246D6F746F72730000000000CB
:100350000000009844657363000000000000000086
:10036000000000F9166C6576656C00000000000066
:10037000000000B0256D6F64657300000000000090
:1003800000000040446261747465727900000000EE
:100390000000001325736F6E617200000000000002
:1003A000000000D239636F6D70617373000000004C
:1003B000000000A43C6F6666736574730000000063
:1003C0000000003A3B6465636C696E6174696F6E2E
:1003D000000000003B73686F770000000000000021
:1003E000000000D83A414320322E302E32352042D0
:1003F000657461006C6F677300000000000000000E
:100400000000D238736574757000000000000000B1
:1004100000006C3874657374000000000000000078
:100420000000553868656C70000000000000000096
:100430000000E516706C616E6E65720000000000D1
:100440000000BA38746573740070776D00000000A6
:1004500000000000000000CE43726164696F00007C
:100460000000000000000062436661696C73616611
:100470006500000000000064426770730000000027
:10048000000000000000004B2161646300000000D8
:1004900000000000000000DD20696D750000000014
:1004A000000000000000008E826261747465727941
:1004B00000000000000000D11674756E6500000099
:1004C0000000000000000038427472690000000063
:1004D00000000000000000D54163757272656E7403
:1004E000000000000000004C4172656C6179000062
:1004F00000000000000000BE17776179706F696E20
:1005000074730000000000DB53616C7469747564DF
:1005100065000000000000A940736F6E617200006A
:1005200000000000000000401B636F6D706173737A
:1005300000000000000000771A7862656500000086
:10054000000000000000008C17656564756D700088
:1005500000000000000000161A72617767707300D7
:10056000000000000000004D176D697373696F6E25
:100570000000000000000073547770002025303226
:100580007800253034783A00426567696E20584219
:10059000656520582D4354552052616E6765206172
:1005A0006E64205253534920546573743A0A0043D1
:1005B0006F6D706173733A200048656164696E679E
:1005C0003A20256C642C2058595A3A2025642C2056
:1005D00025642C2025642C0958595A6F66663A20E8
:1005E00025362E32662C2025362E32662C202536D6
:1005F0002E32660A00536F6E61723A2025642063C2
:100600006D0A00536F6E61722064697361626C657C
:10061000640A004261726F3A202564636D0A0048E3
:100620006974207261646975733A2025640A002533
:100630006420776179706F696E74730A006F662049
:1006400025646D0A000A00486F6C6420616C74694F
:1006500074756465200052656C6179206F66660A66
:100660000052656C6179206F6E0A00563A2025347D
:100670002E34662C20413A2025342E34662C206DF1
:1006800041683A2025342E34660A00696E7075740C
:100690003A202564096F757470757425640A0064C6
:1006A000697361626C65640A004E6F7420656E61E7
:1006B000626C65640A00256C642C20256C642C2017
:1006C000256C640A0025642C004144430A004C61F7
:1006D000743A20256C642C204C6F6E20256C642CA1
:1006E00020416C743A20256C646D2C202373617456
:1006F000733A2025640A004C4F532063617573657B
:1007000064206E6F206368616E676520696E2041AA
:10071000434D2E0A005448524F54544C45204641F4
:10072000494C534146452041435449564154454460
:100730003A2025642C2000434F4E54524F4C204DFC
:100740004F4445204348414E4745443A20005448D1
:10075000524F54544C45204348414E474544202570
:1007600064200A00556E706C756720626174746550
:1007700072792C207468726F74746C6520696E20B5
:100780006E65757472616C2C207475726E206F6664
:100790006620726164696F2E0A00494E2020313A4A
:1007A00020256409323A20256409333A202564095A
:1007B000343A20256409353A20256409363A202543
:1007C0006409373A2025640A00494E3A20313A201C
:1007D000256409323A20256409333A202564093416
:1007E0003A20256409353A20256409363A202564E3
:1007F00009373A20256409383A2025640A00436FF6
:100800006D6D616E64733A0A20206C6F67730A2005
:100810002073657475700A2020746573740A202033
:10082000706C616E6E65720A0A4D6F766520746831
:100830006520736C696465207377697463682061EF
:100840006E6420726573657420746F20464C592E57
:100850000A0A0048656164696E673A2025752C2094
:1008600009202825642C2025642C202564292C208F
:100870002825342E34662C2025342E34662C202551
:10088000342E3466290A0063000A4F7074696F6E53
:10089000733A5B6F6E2C6F66665D0A006F6666006A
:1008A0006F6E000A4F7074696F6E733A5B6F6E2CD7
:1008B000206F66665D0A006F6666006F6E000A4F05
:1008C0007074696F6E733A206F66662C20312D3418
:1008D000006F6666000A4D6F766520524320746F84
:1008E00067676C652073776974636820746F20652F
:1008F00061636820706F736974696F6E20746F2014
:10090000656469742C206D6F76652061696C657211
:100910006F6E20737469636B20746F2073656C65F0
:100920006374206D6F6465732E000A556E706C756C
:10093000672C207468656E20706C75672D696E2059
:10094000626174746572793B2043616C69627261A3
:10095000746520455343732E0A20507265737320CB
:10096000456E74657220746F2063616E63656C2ED2
:100970000A000A4F7074696F6E733A5B782C2B5DB6
:100980000A002B00700078000A4D6F766520616CBC
:100990006C20636F6E74726F6C7320746F2065616E
:1009A00063682065787472656D652E2048697420CF
:1009B000456E74657220746F20736176653A20000D
:1009C0000A464143544F52592052455345542063DF
:1009D0006F6D706C657465202D207265626F6F7429
:1009E0002041504D000A275927202B20456E746561
:1009F0007220746F20666163746F72792072657300
:100A000065742C20616E79206F74686572206B6547
:100A10007920746F2061626F72743A0A000A436F22
:100A20006D6D616E64733A0A202064756D70203CB0
:100A30006E3E202065726173652028616C6C206CAD
:100A40006F6773290A2020656E61626C65203C6EB9
:100A5000616D653E207C20616C6C0A2020646973A6
:100A600061626C65203C6E616D653E207C20616C2E
:100A70006C0A0A00656E61626C65004D4F544F52FE
:100A8000530043555252454E5400434D4400524189
:100A900057004D4F4445004E54554E004354554E5B
:100AA00000504D004750530041545449545544455B
:100AB0005F4D45440041545449545544455F4641B7
:100AC000535400616C6C006D697373696E67206CC0
:100AD0006F6720747970650A000A4C6F6720657231
:100AE000617365642E0A000A45726173696E67203E
:100AF0006C6F672E2E2E0A00626164206C6F672077
:100B0000232025640A005448525F534F4E5F00541F
:100B100048525F4241525F004E41565F57505F005E
:100B20004E41565F4C4F4E5F004E41565F4C415414
:100B30005F005354425F5941575F005354425F5026
:100B400049545F005354425F524C4C5F0041435242
:100B50005F5941575F004143525F5049545F004124
:100B600043525F524C4C5F005243385F0052433750
:100B70005F005243365F005243355F005243345F9B
:100B8000005243335F005243325F005243315F00F3
:100B90004652414D4500455343004D41475F454E48
:100BA00041424C4500424154545F43415041434906
:100BB000545900424154545F4D4F4E49544F5200D6
:100BC000534F4E41525F454E41424C4500414C54BB
:100BD0005F484F4C445F52544C004C4F475F424972
:100BE000544D41534B0050495443485F4D415800C8
:100BF000464C544D4F4445005452494D5F54485261
:100C00004F54544C45005448525F46535F56414C34
:100C10005545005448525F46535F414354494F4E37
:100C2000005448525F4641494C53414645005448A0
:100C3000525F4D4158005448525F4D494E004C4F51
:100C4000495445525F5241444955530057505F52F1
:100C500041444955530057505F4D5553545F494ED9
:100C60004445580057505F494E4445580057505F1F
:100C7000544F54414C0057505F4D4F444500585419
:100C80005241434B5F414E474C45005854524B5FD5
:100C90004741494E0053595349445F4D59474353C7
:100CA0000053595349445F544849534D41560053EA
:100CB000595349445F53575F545950450053595352
:100CC00049445F53575F4D52455600524556004DBB
:100CD0004158005452494D004D494E00494D41582C
:100CE00000440049005000494D555F53454E534F55
:100CF000525F43414C004C6F6720232025642C2019
:100D000020202073746172742025642C20202065BB
:100D10006E642025640A000A2564206C6F67730ADC
:100D2000000A4E6F206C6F67730A00204D4F544FBE
:100D30005253002043555252454E540020434D44D7
:100D4000002052415700204E54554E002043545528
:100D50004E0020504D00204750530020415454492C
:100D6000545544455F4D4544002041545449545521
:100D700044455F46415354006E6F6E65006C6F676B
:100D80007320656E61626C65643A20004869742066
:100D9000456E74657220746F20657869742E0A0A36
:100DA0000054657374204D6F64650A0A0047524F02
:100DB000554E44205354415254000A456E74657296
:100DC000696E6720696E7465726163746976652007
:100DD0007365747570206D6F64652E2E2E0A0A542B
:100DE000797065202768656C702720746F206C69A6
:100DF000737420636F6D6D616E64732C202765784A
:100E000069742720746F206C65617665206120739A
:100E100075626D656E752E0A566973697420746803
:100E2000652027736574757027206D656E75206663
:100E30006F722066697273742D74696D6520636FBB
:100E40006E66696775726174696F6E2E0A0A00506A
:100E50006C656173652052756E2053657475702ED4
:100E60002E2E0A000A0A496E69742041434D0A0A6F
:100E700052414D3A20256C750A004779726F206FF8
:100E80006666736574733A2025342E32662C2025ED
:100E9000342E32662C2025342E32660A00416363DC
:100EA000656C206F6666736574733A2025342E3244
:100EB000662C2025342E32662C2025342E32660AEC
:100EC0000061626C65640A0064697300656E0064A9
:100ED0006F6E650A000A45726173696E6720454549
:100EE00050524F4D0A000A53617665642053657471
:100EF00074696E67730A0A00506F732025643A2084
:100F0000004348373A202564207C2025640A0043AA
:100F100048363A202564207C2025640A0043483561
:100F20003A202564207C2025640A004348343A2076
:100F30002564207C2025640A004348333A20256438
:100F4000207C2025640A004348323A202564207C16
:100F50002025640A004348313A202564207C20255E
:100F6000640A00503A2025342E32662C20493A2556
:100F7000342E32662C20443A25342E32662C2049F9
:100F80004D41583A256C640A00466C6967687420C4
:100F90006D6F6465730A004D6167206F66667365E7
:100FA00074733A2025342E34662C2025342E346672
:100FB0002C2025342E3466004D6167204465633A49
:100FC0002025342E34660A00436F6D706173730AF6
:100FD00000494D550A006D696E3A2025640A6D611D
:100FE000783A2025640A6372756973653A2025642E
:100FF0000A6661696C736166655F656E61626C65E6
:10100000643A2025640A6661696C736166655F767F
:10101000616C75653A202564005468726F74746C55
:10102000650A0058545241434B3A2025342E32660B
:101030000A58545241434B20616E676C653A202533
:10104000640A50495443485F4D41583A20256C6426
:101050000058547261636B0A00736F6E6172207482
:1010600068726F74746C653A0A006261726F207402
:1010700068726F74746C653A0A006C6F6E673A0A36
:10108000004E61763A0A6C61743A0A007961773AE7
:101090000A0070697463683A0A000A5374616269ED
:1010A0006C697A653A0A726F6C6C3A0A00796177FA
:1010B0003A0A0070697463683A0A004163726F3AD1
:1010C0000A726F6C6C3A0A004761696E730A0052CB
:1010D0006164696F0A002B206D6F64650A005820F7
:1010E0006D6F64650A0048657861206672616D65A0
:1010F0000A004672616D650A004657205665727394
:10110000696F6E2025640A00536F6E61720A000ACF
:101110004750530A00636F6D6D616E6420233A205F
:1011200025642069643A2564206F703A2564207034
:10113000313A25642070323A256C642070333A25A8
:101140006C642070343A256C64200A00766F6C74ED
:101150007320616E6420637572006261747420761E
:101160006F6C747300342063656C6C7300332063A0
:10117000656C6C73000A42617474204D6F696E7403
:101180006F720A000A2054797065202772616469C1
:101190006F2720746F20636F6E66696775726520B4
:1011A0006E6F772E0A0A000A215761726E696E67A8
:1011B0002C20796F757220726164696F20697320C9
:1011C0006E6F7420636F6E66696775726564210067
:1011D0005365747570204D6F64650A0A0A00506C7F
:1011E000616E6E6572204D6F64650A0A546869739A
:1011F000206D6F6465206973206E6F7420696E7452
:10120000656E64656420666F72206D616E75616CD9
:10121000207573650A0A003C6E61766967617465C2
:101220003E205750206572726F72202D20646973C2
:1012300074616E6365203C2030004C6F7720426102
:10124000747465727921006F7574206F6620636F06
:101250006D6D616E647321006572726F723A206EFB
:101260006F6E2D4E617620636D6400526561636818
:10127000656420686F6D6500535441525420555089
:101280000A005241572C002C2025640A004D4F447F
:101290003A004154542C2025642C2025642C202510
:1012A000750A00434D442C2025642C2025642C20F5
:1012B00025642C2025642C2025642C20256C642C8E
:1012C00020256C642C20256C640A00504D2C0043B2
:1012D00054554E2C2025642C2025642C2025642C6C
:1012E0002025642C2025642C2025642C2025312EDB
:1012F00034662C2025642C2025642C2025642C2089
:1013000025642C2025642C2025640A004E54554E5B
:101310002C2025642C2025642C2025642C20256479
:101320002C2025642C2025642C2025642C20256469
:101330000A004D4F543A2025642C2025642C20258A
:10134000642C2025640A00435552523A2025642C0F
:1013500020256C642C2025342E34662C2025342E38
:1013600034662C2025640A004750532C20256C64D9
:101370002C2025642C2025642C2025342E37662C27
:101380002025342E37662C2025342E34662C20253B
:10139000342E34662C2025642C2025750A003C73DD
:1013A000746172745F6E65775F6C6F673E204C6F1F
:1013B00067732066756C6C00666C69676874207072
:1013C0006C616E2072656365697665640061637443
:1013D000696F6E2072656365697665643A2000778F
:1013E0006179706F696E74207265636569766520D6
:1013F00074696D656F757400776179706F696E746B
:101400002073656E642074696D656F75740045584E
:1014100054524133004558545241320045585452B9
:10142000413100504F534954494F4E005241575F8C
:101430004354524C0052435F4348414E0045585478
:101440005F53544154005241575F53454E5300532C
:1014500052335F005352305F00253033753A2573A5
:101460003A20006E6F7420666F756E64002530330D
:10147000753A252D33322E3332733A2000756E6B58
:101480006E6F776E2074797065006E6F7420666F72
:10149000756E640025733A20006D697373696E6719
:1014A000206E616D65206F722076616C7565003FFE
:1014B0003F00256400256400256C64002566002536
:1014C0006600657869740068656C70004445430087
:1014D000434F4D504153535F00245047434D442CDC
:1014E00031362C302C302C302C302C302A36410D1B
:1014F0000A0024505542582C34312C312C303030D5
:10150000332C303030312C33383430302C302A32D8
:10151000360024505352463130302C302C3338347E
:1015200030302C382C312C302A3343002053695270
:10153000462000204D544B312E3620002075626C21
:101540006F782000204D544B312E342000666169A5
:101550006C65642C207265747279696E67004F4BFC
:101560000020002A00496E697420416363656C00A5
:101570002A00496E6974204779726F006E616E00AF
:10158000696E660000407A10F35A00A0724E180986
:101590000010A5D4E80000E87648170000E40B54DA
:1015A000020000CA9A3B000000E1F50500008096A9
:1015B0009800000040420F000000A08601000000DB
:1015C000102700000000E803000000006400000095
:1015D00000000A00000000000100000000002C765E
:1015E000D888DC674F0823DFC1DFAE59E1B1B79679
:1015F000E5E3E453C63AE651997696E8E6C28426D6
:10160000EB898C9B62ED407C6FFCEFBC9C9F40F2B1
:10161000BAA56FA5F490055A2AF75C936B6CF9672D
:101620006DC11BFCE0E40D47FEF520E6B500D0EDF2
:10163000902E0300943577050080841E080000205A
:101640004E0A000000C80C333333330F986E1283F8
:101650001141EF8D2114893BE65516CFFEE6DB18CC
:10166000D1844B381BF77C1D901DA4BBE424203291
:1016700084725E228100C9F124ECA1E53D270000BF
:101680002100240027002A002D0030003300010132
:101690000000040107010A010000220025002800C3
:1016A0002B002E003100340002010000050108016A
:1016B0000B01000020002300260029002C002F0031
:1016C00032000001000003010601090105050505BE
:1016D000070508080808020202020A0A08080404AA
:1016E00004040101010101010101030303030303D8
:1016F0000303040707070C0C0C0C0C0C0C0C020267
:10170000020206060606060606060B0B0B0B0B0B63
:101710000B0B0102102020080810204010204080F0
:1017200002010201080402010102040810204080A5
:101730008040201008040201800402018040201033
:10174000080402010804020101020408102040807C
:1017500001020408102040800000090A02080B0C56
:101760000D07060304010000000000000000000057
:101770000000000000000000000000000000000069
:1017800000000000100F0E0000000000000000002C
:101790000000000000000000000000000000494EB2
:1017A00046494E4954594E414ECDCCCC3D0AD723E3
:1017B0003C17B7D13877CC2B329595E6241FB14F23
:1017C0000A000020410000C84200401C4620BCBE68
:1017D0004CCA1B0E5AAEC59D7400F337EB891892A4
:1017E0008CC439D3EC37119211241FBECFEFD1E254
:1017F000DEBFCDBF00E00CBF17E0A0E0B2E0ECE040
:10180000F9EC01E00BBF02C007900D92A830B107C0
:10181000D9F718E1A8E0B7E001C01D92A63FB107D3
:10182000E1F717E1C4EED7E104C02297FE010E9460
:101830003EDECA3DD107C9F70E94B4D50C9479E4C5
:101840000C940000283008F027E03327DA01990FC4
:10185000311D87FD916000966105710539F4326094
:101860002E5F3D9330E32A95E1F708959F3F30F0D6
:1018700080387105610509F03C5F3C5F3D93913014
:1018800008F08068911DDF93CF931F930F93FF9211
:10189000EF92192F987F9695E92F96959695E90FD7
:1018A000FF27E252FA4E99273327EE24FF24A7019F
:1018B000E70105900894079428F4360FE71EF81EF8
:1018C000491F511D660F771F881F991F0694A1F7A6
:1018D0000590079428F4E70EF81E491F561FC11DF6
:1018E000770F881F991F661F0694A1F7059007942C
:1018F00028F4F80E491F561FC71FD11D880F991FC6
:10190000661F771F0694A1F70590079420F4490FEE
:10191000561FC71FD81F990F661F771F881F069471
:10192000A9F784911095177041F0D695C7955795F2
:101930004795F794E7941A95C1F7E4E8F5E16894C0
:101940001590159135916591959105907FE273956C
:10195000E118F10A430B560BC90BD009C0F7E10C93
:10196000F11E431F561FC91FD01D7EF4703311F4A2
:101970008A95E6CFE894015030F0080F0AF400276A
:10198000021708F4202F2395022F7A3328F079E3E9
:101990007D932A95E9F710C07D932A9589F60694E0
:1019A00097956795379517951794E118F10A430BAA
:1019B000560BC90BD00998F023957E9173957A3315
:1019C00008F070E37C932013B8F77E9170617D93EB
:1019D00030F0839571E37D9370E32A95E1F711244C
:1019E000EF90FF900F911F91CF91DF91992787FD85
:1019F00090950895FA01AA27283051F1203181F1FC
:101A0000E8946F936E7F6E5F7F4F8F4F9F4FAF4F06
:101A1000B1E03ED0B4E03CD0670F781F891F9A1F19
:101A2000A11D680F791F8A1F911DA11D6A0F711DCD
:101A3000811D911DA11D20D009F468943F912AE0D9
:101A4000269F11243019305D3193DEF6CF010895C1
:101A5000462F4770405D4193B3E00FD0C9F7F6CFF2
:101A6000462F4F70405D4A3318F0495D31FD4052BA
:101A7000419302D0A9F7EACFB4E0A6959795879550
:101A800077956795BA95C9F700976105710508952F
:101A90009B01AC010A2E06945795479537952795DB
:101AA000BA95C9F7620F731F841F951FA01D089573
:101AB000EF92FF920F93DF93CF93CDB7DEB760978E
:101AC0000FB6F894DEBF0FBECDBFA82F002309F4D8
:101AD00061C07E010894E11CF11C88E0F7011192BD
:101AE0008A95E9F729833A834B835C836D837E83F0
:101AF000AF83988780E2801BE82FFF27E7FDF095F2
:101B00004D815E816F817885181684F01D861E8652
:101B10001F86188A882799278E1B9F0B04C07695ED
:101B20006795579547958A95D2F728C0202F332778
:101B300027FD3095DB01CA01022E04C0B695A7959A
:101B4000979587950A94D2F78D879E87AF87B88B34
:101B500004C0440F551F661F771FEA95D2F789818D
:101B60009A81AB81BC8104C0B695A795979587955E
:101B70002A95D2F7482B592B6A2B7B2B49875A87FA
:101B80006B877C8729853A854B855C856D857E854D
:101B9000AF8598898A2F60960FB6F894DEBF0FBE86
:101BA000CDBFCF91DF910F91FF90EF900895CF932C
:101BB000DF93FC01EB014230510570F063857485C1
:101BC0008585968520E030E040E854E40E94BBDC47
:101BD0000E9403DB7983688382E090E0DF91CF91FC
:101BE0000895CF93DF93EC01FB014230510518F4C7
:101BF00020E030E012C06081718180E090E00E94BE
:101C00002FDB20E030E040E85AE30E94BBDC6B872A
:101C10007C878D879E8722E030E0C901DF91CF91DC
:101C20000895009719F00197C1F40CC0E0913018A5
:101C3000F0913118A081B1812D913C91CF01F90132
:101C400019950895E0913218F0913318A081B1816F
:101C50002D913C91CF01F90119950895EF92FF92D2
:101C60000F931F93CF93DF93EC0108836A834B8319
:101C7000822F90E0880F991FFC01A3E0EE0FFF1F59
:101C8000AA95E1F7E81BF90BE355FB4E81858983A3
:101C9000822F90E0880F991FDC0163E0AA0FBB1F21
:101CA0006A95E1F7A81BB90BA355BB4E822F90E0B4
:101CB000880F991FFC0143E0EE0FFF1F4A95E1F7E3
:101CC000E81BF90BE355FB4E81858F5F19968C93CA
:101CD000DE0135E0E32EF12CE00EF11E6FEF7FEF19
:101CE000E0E0F0E01EC02D912627822F8295807FB4
:101CF000822790E0382F2227AC01440F551F440F54
:101D0000551F440F551F24273527672F7727622734
:101D1000732724E0959587952A95E1F76827792719
:101D20003196EE15FF05FCF2CC5FDE4F69937883A8
:101D30009801295F3F4FC901CDB7DEB7E6E00C94AB
:101D40002DDEFC01DC01AC5FBE4F8C91EB5FFE4FE2
:101D50006827262F2295207F262730E0522F442700
:101D6000C90163E0880F991F6A95E1F74827592751
:101D7000808190E04827592784E0359527958A95FA
:101D8000E1F7422753274C9350830895F901E40F5C
:101D9000F11D292F33274427552720839C015527E0
:101DA00037FD5095452F2183272F382F492F552751
:101DB00047FD5A952283638384E008957F928F9232
:101DC0009F92AF92BF92CF92DF92EF92FF920F93CA
:101DD0001F93722E132FD42EC52EB62EA72E982EFB
:101DE000892EE00EF11C08E30E94580DF7012083B4
:101DF000272D312F4D2D5C2D6B2D7A2D892D982D72
:101E000000E30E94580DF7012183272D312F4D2D1E
:101E10005C2D6B2D7A2D892D982D08E20E94580D8E
:101E2000F7012283272D312F4D2D5C2D6B2D7A2D1F
:101E3000892D982D00E20E94580DF7012383272D4C
:101E4000312F4D2D5C2D6B2D7A2D892D982D08E18C
:101E50000E94580DF7012483272D312F4D2D5C2D25
:101E60006B2D7A2D892D982D00E10E94580DF701D8
:101E70002583272D312F4D2D5C2D6B2D7A2D892D0E
:101E8000982D08E00E94580DF7012683778288E09C
:101E90001F910F91FF90EF90DF90CF90BF90AF9088
:101EA0009F908F907F9008950E94C60E0895A0E0A5
:101EB000B0E0EDE5FFE00C940FDE8C01EB0165E591
:101EC0000E94110EC80168810E94110EC80169812B
:101ED0000E94110EC8016A810E94110EC8016B8117
:101EE0000E94110EC8016C810E94110E6E01EE2439
:101EF000FF2408C0C801F60164810E94110E0894F5
:101F0000E11CF11C0894C11CD11C888190E0E816EA
:101F1000F90680F3CC5FDE4FC80169910E94110E73
:101F2000C80168810E94110ECDB7DEB7E8E00C94BD
:101F30002BDEA6E0B1E0EFE9FFE00C940FDED82E37
:101F4000C92E5091F7047091F80488E28D836E8356
:101F50004F83388729877E010894E11CF11CC70153
:101F6000652F472F2D2D04E010E00E942E0E8D2DA1
:101F70009C2DB7010E94570FCA5FDE4FE8E00C941A
:101F80002BDEA6E0B1E0E7ECFFE00C940FDED82EEC
:101F9000C92E2091F7044091F8048AE28D837E8354
:101FA0006F837E010894E11CF11CC701622F2D2D67
:101FB00002E010E00E942E0E8D2D9C2DB7010E9494
:101FC000570FCA5FDE4FE8E00C942BDEA6E0B1E0CD
:101FD000ECEEFFE00C940FDED82EC92E3091F70402
:101FE0005091F8048FE28D836E834F8328877E01A2
:101FF0000894E11CF11CC701632F452F2D2D03E030
:1020000010E00E942E0E8D2D9C2DB7010E94570FBF
:10201000CA5FDE4FE8E00C942BDE1F920F920FB6E2
:102020000F920BB60F9211242F933F934F938F93E0
:102030009F93EF93FF934091C6002091F01730914A
:10204000F1172F5F3F4F8091F4179091F5172823D8
:1020500039238091F2179091F3172817390779F0F7
:102060008091F0179091F117E091F617F091F71722
:10207000E80FF91F40833093F1172093F017FF9179
:10208000EF919F918F914F913F912F910F900BBEA8
:102090000F900FBE0F901F9018951F920F920FB6C2
:1020A0000F920BB60F9211242F933F938F939F9310
:1020B000EF93FF932091121830911318809110180C
:1020C0009091111828173907E9F080911218909112
:1020D0001318E0911618F0911718E80FF91F808176
:1020E0008093C60080911218909113180196209148
:1020F000141830911518822393239093131880930A
:10210000121810C0209110183091111880911218D7
:10211000909113182817390729F48091C1008F7DF9
:102120008093C100FF91EF919F918F913F912F91EB
:102130000F900BBE0F900FBE0F901F9018951F921F
:102140000F920FB60F920BB60F9211242F933F935D
:102150004F938F939F93EF93FF934091CE002091E5
:10216000F8173091F9172F5F3F4F8091FC1790912E
:10217000FD17282339238091FA179091FB17281710
:10218000390779F08091F8179091F917E091FE17CF
:10219000F091FF17E80FF91F40833093F917209350
:1021A000F817FF91EF919F918F914F913F912F9150
:1021B0000F900BBE0F900FBE0F901F9018951F929F
:1021C0000F920FB60F920BB60F9211242F933F93DD
:1021D0008F939F93EF93FF9320911A1830911B18C0
:1021E000809118189091191828173907E9F08091F3
:1021F0001A1890911B18E0911E18F0911F18E80F03
:10220000F91F80818093CE0080911A1890911B183D
:10221000019620911C1830911D18822393239093CE
:102220001B1880931A1810C0209118183091191893
:1022300080911A1890911B182817390729F480915A
:10224000C9008F7D8093C900FF91EF919F918F917D
:102250003F912F910F900BBE0F900FBE0F901F90CC
:1022600018951F920F920FB60F920BB60F92112472
:102270002F933F934F938F939F93EF93FF934091AF
:10228000360120910818309109182F5F3F4F809137
:102290000C1890910D182823392380910A189091D9
:1022A0000B182817390779F08091081890910918B0
:1022B000E0910E18F0910F18E80FF91F408330934A
:1022C000091820930818FF91EF919F918F914F91DA
:1022D0003F912F910F900BBE0F900FBE0F901F904C
:1022E00018951F920F920FB60F920BB60F921124F2
:1022F0002F933F938F939F93EF93FF9320912A18EF
:1023000030912B1880912818909129182817390797
:10231000E9F080912A1890912B18E0912E18F091F5
:102320002F18E80FF91F80818093360180912A18B9
:1023300090912B18019620912C1830912D18822302
:10234000932390932B1880932A1810C0209128185B
:102350003091291880912A1890912B182817390745
:1023600029F4809131018F7D80933101FF91EF91AC
:102370009F918F913F912F910F900BBE0F900FBEA9
:102380000F901F901895EF92FF920F931F938091DB
:1023900073148F5F80937314823008F472C01092AC
:1023A00073148091570990915809893C9105CCF597
:1023B0002091141430911514409116145091171453
:1023C0002150304040405040E0900514F0900614F9
:1023D0000091071410910814D801C701835690404A
:1023E000A040B040281739074A075B0734F4A8011A
:1023F00097012456304040405040DA01C90124364C
:1024000031054105510524F484E690E0A0E0B0E0F8
:102410008093141490931514A0931614B09317146A
:1024200030C08D5B92406CF12091141430911514E2
:1024300040911614509117142E5F3F4F4F4F5F4F2E
:10244000E0900514F0900614009107141091081400
:10245000D801C70189539F4FAF4FBF4F82179307D2
:10246000A407B50734F4A801970128533F4F4F4FF5
:102470005F4F209314143093151440931614509307
:1024800017141F910F91FF90EF900895AF92BF9294
:10249000CF92DF92EF92FF920F931F935B016C013B
:1024A000E0908A13F0908B1300918C1310918D1390
:1024B00022273327A901261B370B480B590BE2169D
:1024C000F306040715071CF4DA01C9010DC0DC018D
:1024D000CB01782F692F9A2F8B2FEA14FB040C0560
:1024E0001D0534F4D801C701782F692F9A2F8B2F3F
:1024F00070938A1360938B1390938C1380938D1336
:1025000080918E1390918F13A0919013B09191139D
:1025100082179307A407B5074CF0A60195018A1509
:102520009B05AC05BD0514F49C01AD0120938E13F1
:1025300030938F1340939013509391131F910F91E9
:10254000FF90EF90DF90CF90BF90AF900895EF9203
:10255000FF920F931F936091A5047091A604809140
:10256000A7049091A8042091A1043091A204409165
:10257000A3045091A4040E94BBDC7B018C0120E0E9
:1025800030E040E05FE30E948FDA882324F4E0E04B
:1025900070E080EC0DC0C801B70120E030E040E8F9
:1025A0005FE30E946BDC18162CF4E0E070E080E83A
:1025B0006FE30AC060E070E080E090E4A80197015A
:1025C0000E94B1D9E62F692F2E2F372F482F562F73
:1025D000B901CA011F910F91FF90EF900895EF92FA
:1025E000FF920F931F930E94A7127B018C016091B1
:1025F0009E1370919F13882777FD8095982F0E94D6
:1026000031DBA80197010E94BBDC0E94FEDACB01FE
:102610001616170614F081E090E090935C09809301
:102620005B091F910F91FF90EF900895EF92FF9239
:102630000F931F930E94A7127B018C016091570991
:1026400070915809882777FD8095982F0E9431DB7B
:10265000A80197010E94BBDC0E94FEDACB0177FF44
:1026600002C080E090E090935C0980935B091F9129
:102670000F91FF90EF900895FC017183608387E0D4
:102680006830780739F470933118609330181386E6
:10269000128608C0709333186093321881E090E07E
:1026A00093878287138212820895209114143091A7
:1026B000151440911614509117148091D8139091CD
:1026C000D913A091DA13B091DB1382179307A407F3
:1026D000B50774F48091051490910614A091071425
:1026E000B0910814281739074A075B07C4F40DC0D6
:1026F0008091051490910614A0910714B0910814CC
:1027000082179307A407B50754F41092D4131092BC
:10271000D5131092D6131092D71381E0089580E05C
:102720000895809140148093C204833049F4A0E25C
:10273000B4E1EEE3F4E18FE001900D928150E1F716
:10274000089580914014813021F480910B018460C0
:102750000AC0882321F480910B018B7F04C08091F3
:102760000B0194E0892780930B0108952091FD09C6
:102770003091FE09C9018F5C94408238910510F4B4
:1027800081E00895C901815595408238910510F482
:1027900082E00895C901835D95408238910510F467
:1027A00083E00895C901855596408138910510F45C
:1027B00084E00895265D364014F480E0089585E0B5
:1027C00008952091051330910613409107135091FD
:1027D000081380917E1390917F13A0918013B09184
:1027E0008113281B390B4A0B5B0B213586E4380714
:1027F00080E0480780E058072CF0205A3C484040D1
:1028000050400CC0203B99EB39079FEF49079FEFE1
:10281000590724F4205633474F4F5F4F80E0B901EA
:1028200037FF03C0709561957F4F615177420CF07F
:1028300081E00895A4E0B0E0E0E2F4E10C9405DE6C
:1028400060919A1370919B1380919C1390919D13AA
:102850000E9431DB3B014C018091191390911A13B6
:10286000A0911B13B0911C1389839A83AB83BC8303
:10287000609196137091971380919813909199138A
:102880000E9431DB1B012C01E090A904F090AA0406
:102890000091AB041091AC04C401B30129813A81C9
:1028A0004B815C810E94BBDC5B016C01C201B10108
:1028B000A80197010E94BBDC9B01AC01C601B501D8
:1028C0000E94B2D90E94FEDA60938A1370938B1330
:1028D00080938C1390938D1317FB109517F9109517
:1028E000C401B301A80197010E94BBDC7B018C01EC
:1028F000C201B10129813A814B815C810E94BBDC1C
:102900009B01AC01C801B7010E94B2D90E94FEDA56
:1029100060938E1370938F13809390139093911301
:102920002496E2E10C9421DE6091BF137091C013F4
:102930008091C1139091C21324E630E040E050E052
:102940000E9482DD693027E0720720E0820720E0E4
:10295000920724F068E077E080E090E0683F28EF9D
:1029600072072FEF82072FEF920724F468EF78EFBA
:102970008FEF9FEF0E9431DB2091E60D3091E70D44
:102980004091E80D5091E90D0E94BBDC0E94FEDAF7
:102990006093961370939713809398139093991361
:1029A0000895209101133091021340910313509127
:1029B00004138091651190916611A0916711B091F7
:1029C0006811281B390B4A0B5B0B213586E438074D
:1029D00080E0480780E058072CF0205A3C484040EF
:1029E00050400CC0203B89EB38078FEF48078FEF32
:1029F000580724F4205633474F4F5F4F20932F132F
:102A00003093301340933113509332130895209133
:102A100005133091061340910713509108138091CC
:102A2000091390910A13A0910B13B0910C13281B5A
:102A3000390B4A0B5B0B213586E4380780E04807E9
:102A400080E058072CF0205A3C48404050400CC0D1
:102A5000203B89EB38078FEF48078FEF580724F4A6
:102A6000205633474F4F5F4FC90137FF03C0909542
:102A700081959F4F9C01442737FD4095542FB90104
:102A8000CA0108952091AD083091AE088091D10817
:102A90009091D208281B390B253631051CF08AE0AD
:102AA0008093A8142C593F4F1CF486EF8093A814F0
:102AB0008091A81418161CF481508093A81480915A
:102AC000A81487FF03C08F5F8093A8148091A81477
:102AD000813021F08F3F11F080E00895811181E075
:102AE0000895FC01DB01452B11F083858C9381E077
:102AF00090E00895DC01FB01452B19F080811B96C5
:102B00008C9381E090E00895FC016385772767FD51
:102B10007095872F972F0E9431DB0895FC01DB0110
:102B20004230510520F0838594858D939C9382E0FB
:102B300090E00895DC01FB014230510530F08081C6
:102B400091811C969C938E931B9782E090E0089550
:102B5000FC0163857485882777FD8095982F0E94F6
:102B600031DB0895FC012385348545855685B901FF
:102B7000CA010895CF93DF93FC01EB014430510566
:102B800040F083859485A585B68588839983AA833B
:102B9000BB8384E090E0DF91CF910895CF93DF93E2
:102BA000EC01FB014430510540F080819181A2810C
:102BB000B3818B879C87AD87BE8784E090E0DF91EF
:102BC000CF9108958091570990915809893C9105BA
:102BD00044F09093200880931F0884E198E00E94BD
:102BE0004C8D08958091A70A9091A80A8152934034
:102BF00024F081E0809384140895809184148823C4
:102C000089F080915709909158098739910544F0CE
:102C10009093200880931F0884E198E00E944C8DD7
:102C20001092841408951092B00785EA97E00E94EC
:102C30004C8D109210131092111310923E1408959F
:102C40008CE791E090934B0880934A088FE398E0DB
:102C50000E944C8D08958091AB14882329F0109226
:102C6000AB1484E460E005C081E08093AB1484E49D
:102C700061E00E944CD9089585E260E00E944CD941
:102C800084E260E00E944CD983E260E00E944CD96B
:102C900008958091AC148F5F8093AC148150833081
:102CA00011F41092AC148091AC14813059F0813041
:102CB00018F08230C1F40FC083E260E00E944CD96A
:102CC00085E205C085E260E00E944CD984E261E0C3
:102CD0000E944CD9089584E260E00E944CD983E2BE
:102CE00061E00E944CD908958091FA129091FE12F1
:102CF000882379F4992309F481E08093FE128823D4
:102D000019F085E261E002C085E260E00E944CD9E2
:102D10000895992339F481E08093FE1285E261E001
:102D20000E944CD90895E091660FF091670F85A934
:102D300096A98130910539F00297F9F483E261E0B8
:102D40000E944CD9089587A18823D9F090E0809102
:102D5000FF12882309F491E09093FF12992319F050
:102D600083E260E002C083E261E00E944CD9E0911E
:102D7000660FF091670F17A2089583E260E00E944A
:102D80004CD9089580910013882319F0813041F4C3
:102D900005C00E9474160E94931608950E94491659
:102DA000089500D00F9288E097E0EDB7FEB79283C8
:102DB000818389EA96E0948383830E94C2C70F903F
:102DC0000F900F900F9080E0089500D00F9288E050
:102DD00097E0EDB7FEB7928381838EEF97E09483FF
:102DE00083830E94C2C70F900F900F900F9080E0D6
:102DF000089500D00F9288E097E0EDB7FEB7928378
:102E000081838AE299E0948383830E94C2C781E030
:102E1000809395080F900F900F900F908AE898E09C
:102E20000E944C8D64E170E080E090E00E944ED8FA
:102E300088E097E00E9439C8181619069CF710928E
:102E400095088AE898E00E944C8D80E0089500D0B3
:102E50000F9288E097E0EDB7FEB7928381838DE112
:102E60009AE0948383830E94C2C70F900F900F90C3
:102E70000F90089500D00F9288E097E0EDB7FEB76D
:102E8000928381838CE89DE0948383830E94C2C7F0
:102E90000F900F900F900F9008950E943A1768EED0
:102EA00073E080E090E00E944ED88CE297E00E94B0
:102EB00039C8892B89F084E261E00E944CD98CE208
:102EC00097E00E9467C8682F8AE197E00E94C8C80F
:102ED00084E260E00E944CD98AE197E00E9439C800
:102EE000892B89F083E261E00E944CD98AE197E066
:102EF0000E9467C8682F8CE297E00E94C8C883E2EE
:102F000060E00E944CD988E097E00E9439C818160A
:102F100019065CF680E008950E943A1768EE73E0A7
:102F200080E090E00E944ED800D00F9288E097E0B9
:102F3000EDB7FEB79283818388E895E0948383831D
:102F40000E94C2C70F900F900F900F908CE297E0F5
:102F50000E9439C8892B49F08CE297E00E9467C82B
:102F6000682F8CE297E00E94C8C888E097E00E9432
:102F700039C81816190654F780E00895EF92FF92A9
:102F80000F931F93CF93DF930E943A1768EE73E07D
:102F900080E090E00E944ED831E6E32E36E0F32E3A
:102FA00006E516E0C8E0D7E000D00F92EDB7FEB717
:102FB000D283C183F482E3820E94C2C780910B0155
:102FC000846080930B010F900F900F900F9068EB2F
:102FD0007BE080E090E00E944ED8CE010E9439C88C
:102FE00018161906FCF000D00F92EDB7FEB7D28389
:102FF000C183148303830E94C2C780910B018B7F1E
:1030000080930B010F900F900F900F9068EB7BE077
:1030100080E090E00E944ED8CE010E9439C8181678
:10302000190614F680E0CDB7DEB7E6E00C942DDE8D
:103030008DB79EB740970FB6F8949EBF0FBE8DBF59
:10304000EDB7FEB7319688E097E0ADB7BEB7129600
:103050009C938E9311978AE79EE09383828380915D
:10306000451190914611A0914711B0914811848368
:103070009583A683B7838091491190914A11A091BD
:103080004B11B0914C1180879187A287B3878091B3
:103090004D1190914E11A0914F11B0915011848714
:1030A0009587A687B7870E94C2C78DB79EB74096FF
:1030B0000FB6F8949EBF0FBE8DBF08958DB79EB713
:1030C00040970FB6F8949EBF0FBE8DBFEDB7FEB709
:1030D000319688E097E0ADB7BEB712969C938E9379
:1030E00011978DE99EE09383828380915111909195
:1030F0005211A0915311B091541184839583A683EA
:10310000B7838091551190915611A0915711B091AC
:10311000581180879187A287B38780915911909128
:103120005A11A0915B11B0915C1184879587A68795
:10313000B7870E94C2C78DB79EB740960FB6F89466
:103140009EBF0FBE8DBF089528E037E0882349F069
:1031500000D00F92EDB7FEB7328321838CEC9EE056
:1031600008C000D00F92EDB7FEB73283218388EC00
:103170009EE0948383830E94C2C788E097E0EDB706
:10318000FEB79283818381EC9EE0948383830E94C7
:10319000C2C70F900F900F900F90089500D00F921C
:1031A00088E097E0EDB7FEB79283818386EE9EE0DC
:1031B000948383830E94C2C70F900F900F900F904B
:1031C00008950F931F938DB79EB708970FB6F89485
:1031D0009EBF0FBE8DBFEDB7FEB7319608E017E07A
:1031E000ADB7BEB712961C930E93119785E59FE07D
:1031F000938382838091C4089091C50895838483CA
:103200008091DE089091DF08978386830E94C2C771
:10321000EDB7FEB73196ADB7BEB712961C930E93BD
:10322000119787E49FE0938382838091180990919E
:10323000190995838483809132099091330997838A
:1032400086830E94C2C7EDB7FEB73196ADB7BEB751
:1032500012961C930E93119789E39FE093838283C8
:1032600080916C0990916D09958384838091860982
:1032700090918709978386830E94C2C7EDB7FEB7F6
:103280003196ADB7BEB712961C930E9311978BE291
:103290009FE0938382838091C0099091C1099583B7
:1032A00084838091DA099091DB09978386830E9459
:1032B000C2C7EDB7FEB73196ADB7BEB712961C9335
:1032C0000E9311978DE19FE0938382838091140A7E
:1032D0009091150A9583848380912E0A90912F0AEC
:1032E000978386830E94C2C7EDB7FEB73196ADB70C
:1032F000BEB712961C930E9311978FE09FE09383B5
:1033000082838091680A9091690A95838483809171
:10331000820A9091830A978386830E94C2C7EDB781
:10332000FEB73196ADB7BEB712961C930E931197A8
:1033300081E09FE0938382838091BC0A9091BD0AD3
:10334000958384838091D60A9091D70A9783868348
:103350000E94C2C78DB79EB708960FB6F8949EBF5D
:103360000FBE8DBF1F910F910895CF93DF93FC0186
:103370008DB79EB744970FB6F8949EBF0FBE8DBF12
:103380002DB73EB72F5F3F4F88E097E0ADB7BEB790
:1033900012969C938E93119783E69FE0E9019B839D
:1033A0008A8386899789A08DB18D8C839D83AE8316
:1033B000BF8385A196A1A7A1B0A588879987AA8771
:1033C000BB8784A995A9A6A9B7A98C879D87AE8735
:1033D000BF87ED5BFF4F80819181AA2797FDA09564
:1033E000BA2FF901808B918BA28BB38B0E94C2C73D
:1033F0008DB79EB744960FB6F8949EBF0FBE8DBF93
:10340000DF91CF91089500D00F9288E097E0EDB75B
:10341000FEB79283818388E792E1948383830E943D
:10342000C2C70F900F900F900F900895A0E0B0E0EA
:10343000ECE1FAE10C940DDE62E8A62E65E0B62E12
:103440005CE7C52E55E0D52E00E010E048E0E42E04
:1034500047E0F42E00D000D0EDB7FEB73196ADB7FF
:10346000BEB71296FC92EE921197B382A282158398
:1034700004830E94C2C7C0E0D0E08DB79EB7069615
:103480000FB6F8949EBF0FBE8DBFCE01800F911F67
:103490000E9491E200D000D0EDB7FEB73196ADB7F3
:1034A000BEB71296FC92EE921197D382C2828483A9
:1034B00015820E94C2C721968DB79EB706960FB699
:1034C000F8949EBF0FBE8DBFC031D105F1F6C70184
:1034D0000E94D3D6005F1F4F90E10030190709F01A
:1034E000B9CF80E0CDB7DEB7EAE00C9429DEA0E0EA
:1034F000B0E0EDE7FAE10C9405DE809189088823BD
:1035000009F4A3C00E943A1779EB272E75E0372EF5
:10351000C8E0D7E06AEF70E080E090E00E944ED80B
:1035200080E99FE00E945B9580E99FE040E050E0E9
:1035300060E070E08A019B010E94D9A180E99FE0D0
:103540000E947698FC014084518462847384848054
:103550009580A680B780C080D180E280F3806091A2
:10356000980F7091990F80919A0F90919B0F21EE77
:103570003EE245E652E40E94BBDC20E030E048EC4D
:1035800052E40E94BBDC0E94FEDA613A2CE872072A
:1035900020E0820720E092072CF0605A7C488040AF
:1035A000904006C097FF04C0605673478F4F9F4FEF
:1035B000EDB7FEB77A970FB6F894FEBF0FBEEDBF1A
:1035C0000DB71EB70F5F1F4FD283C183F80133823F
:1035D000228224E630E040E050E00E94EADDF8017B
:1035E00024833583468357838091920F9091930F64
:1035F000918780878091940F9091950F9387828710
:103600008091960F9091970F95878487C686D7866D
:10361000E08AF18A828A938AA48AB58A468A578A7E
:10362000608E718E0E94C2C72DB73EB7265E3F4F97
:103630000FB6F8943EBF0FBE2DBFCE010E9439C811
:10364000181619060CF066CF15C000D00F9288E04E
:1036500097E0EDB7FEB7928381838FEA95E094837C
:1036600083830E94C2C70F900F900F900F9080E04D
:103670000E94A41880E0CDB7DEB7E2E10C9421DE11
:103680000F931F93CF93DF93809164088823B9F43D
:1036900000D00F9288E097E0ADB7BEB712969C932A
:1036A0008E93119783E096E014969C938E931397D4
:1036B0000E94C2C70F900F900F900F902FC00E94D2
:1036C0003A1705EF15E0C8E0D7E064E670E080E067
:1036D00090E00E944ED88CEB92E10E94D1C300D0C2
:1036E00000D0EDB7FEB73196ADB7BEB71296DC93FA
:1036F000CE93119713830283958384830E94C2C75C
:10370000EDB7FEB736960FB6F894FEBF0FBEEDBF0D
:10371000CE010E9439C818161906BCF680E0DF9168
:10372000CF911F910F9108950F931F9309ED16E10B
:1037300040916C0950916D09C80160E00E943E897A
:1037400040916C0950916D09C80161E00E943E8969
:1037500040916C0950916D09C80162E00E943E8958
:1037600040916C0950916D09C80163E00E943E8947
:1037700040916C0950916D09C80166E00E943E8934
:1037800040916C0950916D09C80167E00E943E8923
:103790001F910F91089520916C0930916D0930931C
:1037A000DF122093DE123093E1122093E012309367
:1037B000E3122093E2123093E5122093E412309347
:1037C000EB122093EA123093ED122093EC128091C9
:1037D000A108813009F04BC08091AF089091B008EA
:1037E0004BE0893B940734F02E5C3F4F3093DF125F
:1037F0002093DE128854944F4CF48091E012909103
:10380000E112C2969093E1128093E0122091030995
:10381000309104094BE0293B340794F08091EC127D
:103820009091ED12C2969093ED128093EC128091DC
:10383000E4129091E512C2969093E5128093E412FF
:103840002854344F0CF057C08091EA129091EB123B
:10385000C2969093EB128093EA128091E2129091BB
:10386000E312C2969093E3128093E21244C0409117
:10387000AF085091B0088BE0493B580754F0C9019C
:10388000C2969093E5128093E4129093ED12809388
:10389000EC124854544F94F48091EA129091EB1238
:1038A000C2969093EB128093EA128091E21290916B
:1038B000E312C2969093E3128093E21220910309DF
:1038C000309104094BE0293B34074CF08091E01221
:1038D0009091E112C2969093E1128093E0122854E5
:1038E000344F4CF48091DE129091DF12C296909387
:1038F000DF128093DE124091DE125091DF1289EDCB
:1039000096E160E00E943E894091E0125091E11200
:1039100089ED96E161E00E943E894091E21250916A
:10392000E31289ED96E162E00E943E894091E41243
:103930005091E51289ED96E163E00E943E89409145
:10394000EA125091EB1289ED96E166E00E943E8901
:103950004091EC125091ED1289ED96E167E00E94E2
:103960003E890895809157099091580918161906B3
:103970001CF481E08093FB1240916C0950916D0919
:10398000EEEDF2E14193519382E1EE3EF807D1F77B
:1039900089ED96E160E00E943E8940916C0950916A
:1039A0006D0989ED96E161E00E943E8940916C09C4
:1039B00050916D0989ED96E162E00E943E89409147
:1039C0006C0950916D0989ED96E163E00E943E8992
:1039D00040916C0950916D0989ED96E166E00E9475
:1039E0003E8940916C0950916D0989ED96E167E03F
:1039F0000E943E89089560914014615040914114A5
:103A00005091421489ED96E10E943E8908951092EA
:103A1000641410926314109257141092561410925A
:103A20005914109258140E941AD86093521470932B
:103A30005314809354149093551408958091CE1389
:103A40009091CF13892B09F45AC00E941AD8209163
:103A5000C8133091C9134091CA135091CB13621B04
:103A6000730B840B950B2091CC133091CD1340E058
:103A700050E0621773078407950708F440C037C009
:103A800001979093CF138093CE138091CE13909192
:103A9000CF13892BA1F10E941AD86093C813709399
:103AA000C9138093CA139093CB136091C713862FC9
:103AB0008450843088F48091CE1380FF05C04091FB
:103AC000D0135091D11304C04091D2135091D3130D
:103AD00089ED96E10E943E898091C713853079F483
:103AE00080910B0194E0892780930B0108958091C8
:103AF000CE139091CF131816190614F2C6CF08955D
:103B000085E08093C7131092C8131092C9131092C6
:103B1000CA131092CB136091451470914614809192
:103B20004714909148140E9431DB20E030E04AEFC6
:103B300053E40E94BBDC0E9403DB7093CD136093BF
:103B4000CC138091411490914214A0914314B091F0
:103B50004414880F991FAA1FBB1F9093CF13809303
:103B6000CE130E941E1D08951F93109140141150F2
:103B70001093C7131F5F812F8550843008F05BC0FE
:103B80001092C8131092C9131092CA131092CB133B
:103B90006091491470914A1480914B1490914C1487
:103BA0000E9431DB20E030E04AEF53E40E94BBDCAE
:103BB0000E9403DB7093CD136093CC138091451466
:103BC00090914614A0914714B0914814880F991F02
:103BD000AA1FBB1F9093CF138093CE1380914114E3
:103BE000909142149093D1138093D013153079F0B3
:103BF000163018F41430E9F405C0163069F01730A7
:103C0000C1F40FC08091210A9091220A0EC08091C8
:103C1000750A9091760A09C08091C90A9091CA0AE2
:103C200004C080911D0B90911E0B9093D313809331
:103C3000D2130E941E1D1F9108956F927F928F9242
:103C40009F92AF92BF92CF92DF92EF92FF920F932B
:103C50001F930E941AD82091AB133091AC1340915E
:103C6000AD135091AE13621B730B840B950B209117
:103C7000AF133091B01340E050E0261737074807E4
:103C8000590790F48091B1139091B213A091B3139E
:103C9000B091B4138093921390939313A0939413C1
:103CA000B093951381E077C00E941AD87B018C01F4
:103CB0006091A7137091A8138091A9139091AA13F2
:103CC0000E9431DB3B014C016091B5137091B6133A
:103CD0008091B7139091B8130E9431DB5B016C01A6
:103CE0008091AB139091AC13A091AD13B091AE1332
:103CF000E81AF90A0A0B1B0BC801B7010E942FDB57
:103D00007B018C016091AF137091B01380E090E063
:103D10000E942FDB9B01AC01C801B7010E9496DA1B
:103D20009B01AC01C601B5010E94BBDC7B018C018B
:103D30006091BB1370E0882777FD8095982F0E94D3
:103D400031DB9B01AC01C801B7010E94BBDC9B01C8
:103D5000AC01C401B3010E94B2D90E94FEDA613AFB
:103D60002CE8720720E0820720E092072CF0605ACE
:103D70007C488040904006C097FF04C0605673475F
:103D80008F4F9F4F6093921370939313809394136C
:103D90009093951380E01F910F91FF90EF90DF902B
:103DA000CF90BF90AF909F908F907F906F9008952D
:103DB0000E941AD82091D8133091D9134091DA1368
:103DC0005091DB13621B730B840B950B2091D41362
:103DD0003091D5134091D6135091D713261737073A
:103DE0004807590710F080E008951092D4131092FC
:103DF000D5131092D6131092D71381E008958091B5
:103E00001313813761F1823718F4803771F505C0DB
:103E1000823731F0833749F525C00E94D81E0895B6
:103E20002091BF133091C0134091C1135091C21320
:103E30008091D4139091D513A091D613B091D7133C
:103E4000281739074A075B0784F41092D41310929D
:103E5000D5131092D6131092D71381E008950E94C3
:103E6000551308950E941D1E089580E00895EF9255
:103E7000FF920F931F931092C2048091921390911E
:103E80009313A0919413B09195138093A7139093DB
:103E9000A813A093A913B093AA130E941AD86093F1
:103EA000AB137093AC138093AD139093AE1310913A
:103EB00040141093BB13009149140093BC136091FC
:103EC000451470914614809147149091481424E64B
:103ED00030E040E050E00E9482DD7093BA136093BE
:103EE000B913672B31F488EB9BE09093BA1380935E
:103EF000B913112319F48FEF8093BB130023B9F08A
:103F00006091411470914214809143149091441433
:103F100024E630E040E050E00E9482DD6093B5137B
:103F20007093B6138093B7139093B81374C06091D5
:103F3000411470914214809143149091441424E6EA
:103F400030E040E050E00E9482DD7B018C01609314
:103F5000B1137093B2138093B3139093B413809101
:103F6000BB132091A7133091A8134091A91350912E
:103F7000AA138130C1F4D801C701821B930BA40B93
:103F8000B50B2E153F054007510724F08056934787
:103F9000AF4FBF4F8093B5139093B613A093B71351
:103FA000B093B81315C0E216F3060407150724F002
:103FB000205633474F4F5F4F2E193F09400B510B8F
:103FC0002093B5133093B6134093B7135093B8139F
:103FD0008091B5139091B613A091B713B091B81317
:103FE000813A2CE8920720E0A20720E0B2072CF0EB
:103FF000805A9C48A040B04006C0B7FF04C080561D
:104000009347AF4FBF4F8093B5139093B613A093D0
:10401000B713B093B8132091B9133091BA13442752
:1040200037FD4095542F6091B5137091B613809170
:10403000B7139091B8130E94EADDCA01B90128EEC6
:1040400033E040E050E00E9482DD7093B013609353
:10405000AF131F910F91FF90EF9008950E941AD80F
:10406000E0E02091821330918313409184135091AA
:104070008513621B730B840B950B20918613309173
:1040800087134091881350918913261737074807E3
:10409000590708F4E1E08E2F0895AF92BF92CF92B6
:1040A000DF92EF92FF920F931F93E090E013F09056
:1040B000E1130091E2131091E3130E941AD82091AA
:1040C000DC133091DD134091DE135091DF13621B3E
:1040D000730B840B950B24E130E040E050E00E942C
:1040E000C8DDE21AF30A040B150BE0921414F092E7
:1040F00015140093161410931714A0900514B09083
:104100000614C0900714D090081460917813709131
:10411000791380917A1390917B136A197B098C092A
:104120009D090E9431DB2DEC3CEC4CE45EE30E94E7
:10413000BBDC7B018C0160917C1370917D1388271F
:1041400077FD8095982F0E9431DB2DEC3CEC4CE400
:104150005FE30E94BBDC9B01AC01C801B7010E9478
:10416000B2D90E94FEDA9B0170937D1360937C1399
:10417000A0927813B0927913C0927A13D0927B13E5
:1041800080916408882349F0809172139091731391
:1041900088971CF481E080937713121613061CF0A5
:1041A00081E08093771380E01F910F91FF90EF9053
:1041B000DF90CF90BF90AF900895CF92DF92FF92A3
:1041C0000F931F93CF93DF930E943A1700D00F9263
:1041D00008E017E0ADB7BEB712961C930E93119787
:1041E00089EC96E014969C938E9313970E94C2C715
:1041F0000F900F900F900F9068EE73E080E090E0CA
:104200000E944ED8A5ECCA2EA6E0DA2EC0E0D0E07F
:10421000F02E012F20C088E69FE06C2F0E94E18ADB
:1042200000D000D0EDB7FEB73196ADB7BEB711964E
:10423000FC92119712960C93D382C2829583848349
:104240000E94C2C72196EDB7FEB736960FB6F89416
:10425000FEBF0FBEEDBFC930D105ECF288E097E09C
:104260000E94D3D664E170E080E090E00E944ED8D6
:1042700088E097E00E9439C8181619061CF0C0E0C3
:10428000D0E0E9CF80E0DF91CF911F910F91FF90B7
:10429000DF90CF900895A0E0B0E0E1E5F1E20C946A
:1042A0000FDE0E943A1768EE73E080E090E00E9413
:1042B0004ED88EECC82E86E0D82EB8E0EB2EB7E0B4
:1042C000FB2E6DE471E080E090E00E944ED80E94E9
:1042D00093168091660F9091670F0E94C1BDC091A7
:1042E000660FD091670F8DA1882309F445C08DB763
:1042F0009EB742970FB6F8949EBF0FBE8DBF0DB705
:104300001EB70F5F1F4FEDB7FEB7F282E182F801D3
:10431000D382C2828A859B85AC85BD858483958343
:10432000A683B7838E859F85A889B9898087918761
:10433000A287B3876A897B898C899D8924E630E0CE
:1043400040E050E00E94EADDF80124873587468787
:1043500057878CA1808B118A0E94C2C7E091660F9B
:10436000F091670F15A28DB79EB742960FB6F894DD
:104370009EBF0FBE8DBF06C088E097E060E072E090
:104380000E94F0D588E097E00E9439C818161906F7
:104390000CF097CF80E0CDB7DEB7E8E00C942BDED1
:1043A000CF93DF93C0E0D0E088E097E062E072E076
:1043B0000E94F0D52196C832D105B1F788E097E088
:1043C00064E072E00E94EAD6DF91CF910895CF9326
:1043D000DF93EC0107C0219788E097E064E072E08A
:1043E0000E94EAD61C161D06B4F3DF91CF91089502
:1043F00000D00F9288E097E0EDB7FEB792838183FB
:1044000081ED9FE0948383830E94C2C70F900F9039
:104410000F900F900E94D0210E9418180E945E18E1
:1044200082E090E00E94E72108950F931F9300D04F
:104430000F9208E017E0ADB7BEB712961C930E932B
:10444000119789E190E114969C938E9313970E94A3
:10445000C2C70F900F900F900F900E94D021EDB720
:10446000FEB73E970FB6F894FEBF0FBEEDBF319674
:10447000ADB7BEB712961C930E93119786ED9FE0D1
:10448000938382838091E0079091E10795838483F1
:104490008091ED079091EE079783868380911F08A6
:1044A00090912008918780878091FA07992787FD4E
:1044B0009095938782878091120890911308958731
:1044C00084870E94C2C7EDB7FEB73E960FB6F89438
:1044D000FEBF0FBEEDBF82E090E00E94E7211F917A
:1044E0000F9108950F931F9300D00F9208E017E0EB
:1044F000ADB7BEB712961C930E93119781E590E16C
:1045000014969C938E9313970E94C2C70F900F909E
:104510000F900F900E94D021EDB7FEB73E970FB6D7
:10452000F894FEBF0FBEEDBF3196ADB7BEB7129681
:104530001C930E93119783E290E193838283809181
:104540007C0790917D07A0917E07B0917F078483BF
:104550009583A683B78380918B0790918C07918771
:10456000808780913D0890913E08AA2797FDA095ED
:10457000BA2F82879387A487B5870E94C2C7EDB7F9
:10458000FEB73E960FB6F894FEBF0FBEEDBF82E0B9
:1045900090E00E94E7211F910F9108950F931F93C0
:1045A00000D00F9208E017E0EDB7FEB71283018349
:1045B00088EC90E1948383830E94C2C70F900F9090
:1045C0000F900F900E94D02100D00F92EDB7FEB750
:1045D000128301838BEB90E1948383830E94C2C793
:1045E0000F900F900F900F908AEE9BE00E94B519EC
:1045F00000D00F92EDB7FEB71283018383EB90E1F9
:10460000948383830E94C2C70F900F900F900F90E6
:104610008BE39CE00E94B51900D00F92EDB7FEB776
:10462000128301838DEA90E1948383830E94C2C741
:104630000F900F900F900F908CE89CE00E94B5199E
:1046400000D00F92EDB7FEB7128301838AE990E1A3
:10465000948383830E94C2C70F900F900F900F9096
:104660008DED9CE00E94B51900D00F92EDB7FEB71A
:104670001283018382E990E1948383830E94C2C7FD
:104680000F900F900F900F908EE29DE00E94B51951
:1046900000D00F92EDB7FEB7128301838CE890E152
:1046A000948383830E94C2C70F900F900F900F9046
:1046B0008FE79DE00E94B51900D00F92EDB7FEB7CD
:1046C0001283018381E890E1948383830E94C2C7AF
:1046D0000F900F900F900F9080ED9DE00E94B51904
:1046E00000D00F92EDB7FEB7128301838AE790E105
:1046F000948383830E94C2C70F900F900F900F90F6
:1047000081E29EE00E94B51900D00F92EDB7FEB78E
:10471000128301838AE690E1948383830E94C2C757
:104720000F900F900F900F9083EC9EE00E94B519B0
:1047300000D00F92EDB7FEB71283018389E590E1B7
:10474000948383830E94C2C70F900F900F900F90A5
:1047500084E19FE00E94B51982E090E00E94E72189
:104760001F910F91089500D00F9288E097E0EDB768
:10477000FEB7928381838FEC90E1948383830E94C0
:10478000C2C70F900F900F900F900E94D0210E94EF
:10479000E11882E090E00E94E7210895CF93DF9333
:1047A00000D00F92C8E0D7E0EDB7FEB7D283C18347
:1047B00082EF90E1948383830E94C2C70F900F9091
:1047C0000F900F900E94D02100D00F92EDB7FEB74E
:1047D000D283C18386EE90E1948383830E94C2C713
:1047E0008091A1080F900F900F900F90813049F4A5
:1047F00000D00F92EDB7FEB7D283C1838EED90E16A
:104800000AC0882381F400D00F92EDB7FEB7D2839F
:10481000C18386ED90E1948383830E94C2C70F9089
:104820000F900F900F9082E090E00E94E721DF91BF
:10483000CF910895CF93DF93FB01C285D385CE013D
:1048400066E879E00E94B1DF892B21F481E0809352
:10485000A10810C0CE0164E879E00E94B1DF892B85
:1048600039F0CE0162E879E00E94B1DF892B39F49A
:104870001092A10886E998E00E944C8D12C000D0E9
:104880000F9288E097E0EDB7FEB79283818382E7CD
:1048900099E0948383830E94C2C70F900F900F907A
:1048A0000F900E94CE2380E0DF91CF91089500D039
:1048B00000D0EDB7FEB7319688E097E0ADB7BEB750
:1048C00012969C938E93119789EF90E19383828344
:1048D0008091490790914A07958384830E94C2C7BB
:1048E0008DB79EB706960FB6F8949EBF0FBE8DBFCC
:1048F0000E94D02182E090E00E94E721089500D03C
:104900000F9288E097E0EDB7FEB7928381838FE046
:1049100091E1948383830E94C2C70F900F900F9000
:104920000F900E94D021809181140E94A41882E0EF
:1049300090E00E94E721089500D00F9288E097E070
:10494000EDB7FEB79283818385E791E194838383FA
:104950000E94C2C70F900F900F900F900E94D0211D
:1049600080917008882311F40E94A4188091700827
:10497000813091F400D00F9288E097E0EDB7FEB758
:10498000928381838DE691E1948383830E94C2C7E1
:104990000F900F900F900F9080917008823091F4DB
:1049A00000D00F9288E097E0EDB7FEB79283818345
:1049B00085E691E1948383830E94C2C70F900F9094
:1049C0000F900F9080917008833091F400D00F9277
:1049D00088E097E0EDB7FEB7928381838AE591E1A5
:1049E000948383830E94C2C70F900F900F900F9003
:1049F00080917008843091F400D00F9288E097E0A5
:104A0000EDB7FEB7928381838CE491E19483838335
:104A10000E94C2C70F900F900F900F9082E090E01D
:104A20000E94E7210895CF93DF93FB01EB012A96C3
:104A30008285938561ED78E00E94B1DF892B19F4BE
:104A4000109270080FC02A813B814C815D81DA0190
:104A5000C9010197A109B1090497A105B10538F46D
:104A60002093700885E698E00E944C8D12C000D01B
:104A70000F9288E097E0EDB7FEB7928381838EEBCB
:104A800098E0948383830E94C2C70F900F900F9089
:104A90000F900E949C2480E0DF91CF910895FF92B7
:104AA0000F931F93F62E00D000D0EDB7FEB73196CE
:104AB00008E017E0ADB7BEB712961C930E9311979E
:104AC00028EF3EE033832283848315820E94C2C78D
:104AD0008DB79EB706960FB6F8949EBF0FBE8DBFDA
:104AE000EF2DF0E0EE0FFF1FE857FB4F6081718163
:104AF000C8010E94EAD61F910F91FF900895CF93AD
:104B0000DF9300D00F9288E097E0EDB7FEB7928375
:104B1000818389E89FE0948383830E94C2C70F90BA
:104B20000F900F900F900E94D021C0E0D0E0FE01C6
:104B3000E45DF74F8C2F60810E944F252196C6308F
:104B4000D105A9F782E090E00E94E721DF91CF91A3
:104B5000089588E097E065E072E00E94EAD6089543
:104B60008DE191E10E9454C30E945E180E94F821D9
:104B700080E0089500D00F9288E097E0EDB7FEB78F
:104B80009283818385EE99E0948383830E94C2C7D8
:104B90000F900F900F900F9088E097E00E9467C8E9
:104BA000FFEF8F3F9F07C1F38937910529F08935C2
:104BB000910511F08FEF08950E94128E00D00F9290
:104BC00088E097E0EDB7FEB79283818380EC99E0AF
:104BD000948383830E94C2C70F900F900F900F9011
:104BE00068EE73E080E090E00E944ED8FFCFEF9235
:104BF000FF920F931F93CF93DF937B018230A1F03D
:104C000000D00F9288E097E0EDB7FEB792838183E2
:104C100087EC9AE0948383830E94C2C78FEF0F9042
:104C20000F900F900F9089C0FB0102851385C8017A
:104C300063EC7AE00E949EDF892B19F4CFEFDFEF5F
:104C40005BC0C80165EB7AE00E949EDFC0E0D0E067
:104C5000892B11F4C1E0D0E0C80168EA7AE00E9433
:104C60009EDF892B09F4C260C80164EA7AE00E94E1
:104C70009EDF892B09F4C460C80161EA7AE00E94D2
:104C80009EDF892B09F4C860C8016CE97AE00E94B4
:104C90009EDF892B09F4C061C80167E97AE00E94B0
:104CA0009EDF892B09F4C062C80162E97AE00E94A4
:104CB0009EDF892B09F4C064C8016EE87AE00E9487
:104CC0009EDF892B09F4C068C8016AE87AE00E9477
:104CD0009EDF892B09F4D160C80162E87AE00E9466
:104CE0009EDF892B09F4D260C8016BE77AE00E944D
:104CF0009EDF892B09F4D460F7018081918164E7FC
:104D00007AE00E949EDF892B39F480914A089091C5
:104D10004B08C82BD92B08C0C095D09580914A0864
:104D200090914B08C823D923D0934B08C0934A08CD
:104D30008FE398E00E944C8D80E0CDB7DEB7E6E0CF
:104D40000C942DDE0F931F930FED17E1C80163EA5A
:104D50000E94D0C5C80165E90E94D0C5C8016AE0BB
:104D60000E94D0C5C8016AEB0E94D0C51F910F9167
:104D70000895CF93DF9300D00F9288E097E0EDB7CE
:104D8000FEB79283818387EE9AE0948383830E94A7
:104D9000C2C7C1E0D0E00F900F900F900F908FED41
:104DA00097E1BE010E9426C52196F0E1C030DF07E1
:104DB000B1F78FED97E161E070E00E941AC58FEDC9
:104DC00097E163EA0E94D0C58FED97E165E90E9403
:104DD000D0C58FED97E160EF0E94D0C58FED97E1D0
:104DE00060E00E94D0C58FED97E16AEB0E94D0C5CC
:104DF0008FED97E10E9448C600D00F9288E097E0BF
:104E0000EDB7FEB79283818389ED9AE09483838323
:104E10000E94C2C70F900F900F900F9080E0DF911B
:104E2000CF910895EF92FF920F931F9300D00F92AE
:104E300008E017E0ADB7BEB712961C930E9311971A
:104E40008DE892E114969C938E9313970E94C2C7AB
:104E50000F900F900F900F903FEDE32E37E1F32E60
:104E6000C7010E94C0C6E82FF0E0EE0FFF1FE85711
:104E7000FB4F60817181C8010E94F0D5C7010E947B
:104E800031C700D000D0EDB7FEB73196ADB7BEB791
:104E900012961C930E93119727E832E133832283F5
:104EA000958384830E94C2C7EDB7FEB736960FB6CE
:104EB000F894FEBF0FBEEDBF1F910F91FF90EF90D2
:104EC0000895CF92DF92EF92FF920F931F930FED11
:104ED00017E1C8010E9431C76C01C8010E9431C7A7
:104EE0007C01C8010E9431C72DB73EB72A5030401F
:104EF0000FB6F8943EBF0FBE2DBFEDB7FEB731968B
:104F000028E037E0ADB7BEB712963C932E931197C9
:104F100022E932E133832283D582C482F782E6829A
:104F2000918780870E94C2C72DB73EB7265F3F4F4B
:104F30000FB6F8943EBF0FBE2DBF1F910F91FF908B
:104F4000EF90DF90CF900895ABE0B0E0EAEAF7E2AF
:104F50000C9405DE0FED17E1C8010E9431C7998757
:104F60008887C8010E9431C79F838E83C8010E9431
:104F7000C0C68D83C8010E9431C79C838B83C80142
:104F80000E9431C79A838983C8010E9431C77C017E
:104F9000C8010E9431C76C01C8010E9431C79B87BC
:104FA0008A87C8010E9431C71C01C8010E9431C70D
:104FB0002C01C8010E9431C73C01C8010E9431C7C1
:104FC0004C01C8010E9431C75C018DB79EB7809724
:104FD0000FB6F8949EBF0FBE8DBF0DB71EB70F5F03
:104FE0001F4F88E097E0EDB7FEB7928381838FEC87
:104FF00092E1F801938382838885998595838483E0
:105000008E819F81978386839D81908711868B8176
:105010009C819387828789819A8195878487F78687
:10502000E686EE24D7FCE094FE2CC701B6010E9470
:1050300031DBF801608B718B828B938B8A859B852A
:10504000958B848B378A268A518E408E738E628E22
:10505000958E848EB78EA68E0E94C2C7EDB7FEB71E
:10506000B0960FB6F894FEBF0FBEEDBF2B96E2E1EF
:105070000C9421DE3F924F925F926F927F928F92BB
:105080009F92AF92BF92CF92DF92EF92FF920F93D7
:105090001F930FED17E1C8010E9431C72C01C80111
:1050A0000E94C0C6382EC8010E9431C73C01C80109
:1050B0000E9431C74C01C8010E9431C75C01C80180
:1050C0000E9431C76C01C8010E9431C77C01C80130
:1050D0000E9431C72DB73EB7245130400FB6F89427
:1050E0003EBF0FBE2DBFEDB7FEB7319628E037E0CB
:1050F000ADB7BEB712963C932E9311972CE033E1D7
:105100003383228355824482368217827186608679
:1051100093868286B586A486D786C686F18AE08A7B
:10512000938B828B0E94C2C72DB73EB72C5E3F4F38
:105130000FB6F8943EBF0FBE2DBF1F910F91FF9089
:10514000EF90DF90CF90BF90AF909F908F907F9027
:105150006F905F904F903F900895AF92BF92CF9223
:10516000DF92EF92FF920F931F930FED17E1C801AB
:105170000E9431C75C01C8010E9431C76C01C8019F
:105180000E9431C77C01C8010E9431C72DB73EB7CC
:105190002C5030400FB6F8943EBF0FBE2DBFEDB778
:1051A000FEB7319628E037E0ADB7BEB712963C9314
:1051B0002E93119722E333E133832283B582A482B5
:1051C000D782C682F186E086938782870E94C2C713
:1051D0002DB73EB7245F3F4F0FB6F8943EBF0FBECA
:1051E0002DBF1F910F91FF90EF90DF90CF90BF9058
:1051F000AF9008951F938FED97E161E070E00E94FA
:1052000047C710E08FED97E10E94C0C6113051F002
:10521000113018F0123099F408C010E0833A79F494
:1052200011E00DC0853951F407C0803F39F48FED8E
:1052300097E10E94C0C60AC012E001C010E08FEDE5
:1052400097E10E9485C40197E9F280E01F910895DB
:10525000CF92DF92EF92FF920F937C016B01BA0124
:10526000A901202F0E94B88F86E895E0F70191836D
:105270008083D486C38680917D1790917E170D968A
:1052800090937E1780937D170F91FF90EF90DF90A2
:10529000CF900895EF92FF920F931F937C01162FEA
:1052A000BA01A901202F0E94B88F84E995E0F70187
:1052B00091838083138780917D1790917E170C9640
:1052C00090937E1780937D171F910F91FF90EF9021
:1052D00008950F931F938C0124600E94B88F87EF6D
:1052E00095E0F8019183808380917D1790917E17DE
:1052F0000B9690937E1780937D171F910F910895C1
:10530000FC018AE695E091838083CF010E94058F9E
:105310000895FC0188E795E091838083CF010E9486
:10532000058F0895FC0186E895E091838083CF0185
:105330000E94058F0895FC0184E995E091838083A4
:10534000CF010E94058F0895FC018AE695E09183C4
:105350008083CF010E94058F0895FC0180EB95E0CA
:1053600091838083CF010E94058F08950F931F932F
:105370008C0180579F4F0E949229C8018D579F4FE3
:105380000E949229C8018A589F4F0E949229C80101
:1053900087599F4F0E949229C801845A9F4F0E94AB
:1053A0009229C801815B9F4F0E949229C8018E5BA0
:1053B0009F4F0E949229C801C5960E94922987EFAB
:1053C00095E0F80193A782A7C8018A960E94058FED
:1053D0001F910F9108950F931F938C01C8960E94FF
:1053E0009229C80189960E94A429C8014A960E9460
:1053F000A429C8010B960E94A42987EF95E0F80123
:1054000091838083C8010E94058F1F910F91089599
:105410000F931F938C018D5B9F4F0E949B29C801A6
:10542000C1960E949229C80184960E949229C801BF
:1054300047960E94922987EF95E0F8019183808337
:10544000C8010E94058F1F910F910895FC018EEBFA
:1054500095E091838083CF010E94058F0895FC0120
:105460008CEC95E091838083CF010E94058F089595
:105470000F931F938C018AE695E0F8019183808356
:10548000C8010E94058FC8010E9483931F910F914C
:1054900008950F931F938C0188E795E0F80191839D
:1054A0008083C8010E94058FC8010E9483931F91C9
:1054B0000F9108950F931F938C0186E895E0F801F2
:1054C00091838083C8010E94058FC8010E94839345
:1054D0001F910F9108950F931F938C0184E995E01C
:1054E000F80191838083C8010E94058FC8010E9442
:1054F00083931F910F9108950F931F938C018AE658
:1055000095E0F80191838083C8010E94058FC8014E
:105510000E9483931F910F9108950F931F938C0105
:1055200080EB95E0F80191838083C8010E94058F8C
:10553000C8010E9483931F910F9108950F931F93A9
:105540008C018EEB95E0F80191838083C8010E9465
:10555000058FC8010E9483931F910F9108950F93A7
:105560001F938C018CEC95E0F80191838083C80136
:105570000E94058FC8010E9483931F910F91089587
:105580004630510540F0DC011B96FB0186E001909E
:105590000D928150E1F786E090E00895FC014630DD
:1055A000510538F0DB013B9686E001900D92815069
:1055B000E1F786E090E008954831510540F0DC01C4
:1055C0001B96FB0188E101900D928150E1F788E183
:1055D00090E00895FC014831510538F0DB013B961D
:1055E00088E101900D928150E1F788E190E0089503
:1055F0004C30510540F0DC011B96FB018CE0019022
:105600000D928150E1F78CE090E00895FC014C3060
:10561000510538F0DB013B968CE001900D928150F2
:10562000E1F78CE090E008954432510540F0DC0150
:105630001B96FB0184E201900D928150E1F784E218
:1056400090E00895FC014432510538F0DB013B96AF
:1056500084E201900D928150E1F784E290E0089598
:10566000A6E0B1E0E6E3FBE20C9405DE682E292E0D
:1056700059016A0148015E2C7F2C3090F70440905C
:10568000F80486E18D83DE011696FB018FE0019020
:105690000D928150E1F746E0E42EF12CEC0EFD1E58
:1056A000C601B5014FE097010E94540F082F10E08A
:1056B000E82FE15FF0E0D701AE0FBF1F9C92DE0143
:1056C0001796EA0FFB1F80828F5E90E0E80EF91EAE
:1056D000F7017082A80FB91F5C920D5E1F4F7E010B
:1056E0000894E11CF11CC701632D442D262D0E9456
:1056F0002E0E862D922DB7010E94570FCA5FDE4FE6
:10570000E2E10C9421DEA6E0B1E0E9E8FBE20C94D2
:105710000FDED82EC92E1091F7047091F8048EEF89
:105720008D836E83DE011796FA0182E301900D925C
:105730008150E1F77E010894E11CF11CC701612F43
:10574000472F2D2D03E310E00E942E0E8D2D9C2D52
:10575000B7010E94570FCA5FDE4FE8E00C942BDEC2
:10576000A3E3B0E0E6EBFBE20C9415DEDE0112965B
:105770009E012C5C3F4FFA014F5F5F4FE491ED9328
:10578000A217B307C1F7FC0182859385AE014E5F76
:105790005F4F0E94832BE396E2E00C9431DE809110
:1057A000C807992787FD9095A92FB92F2091BF137E
:1057B0003091C0134091C1135091C21382179307C7
:1057C000A407B50714F480E008958FE192E161E049
:1057D0004BE652E10E94B02B81E00895A0E0B0E0DA
:1057E000E4EFFBE20C940DDE742F052F5901C82E57
:1057F000DD24C601880F991FDC0143E0AA0FBB1FFF
:105800004A95E1F7A81BB90BA355BB4E15968D9190
:105810009C9116970197099758F11C9211961C922A
:105820001197F60133E0EE0FFF1F3A95E1F7EC19FF
:10583000FD09EE0FFF1FE155FB4E108213961C92DF
:10584000139714961C92149716961C921E921597F5
:1058500017961C9217971D961C921E921C971B96CA
:105860001C921E921A9718961C92189719961C92C1
:1058700086E091E0C89EA001C99E500DD89E500DB3
:10588000112447535B4EF60193E0EE0FFF1F9A95EC
:10589000E1F7EC19FD09EE0FFF1FE155FB4E1082F9
:1058A000C601880F991FFC01A3E0EE0FFF1FAA9508
:1058B000E1F7E81BF90BE355FB4E0580F681E02D7F
:1058C000EA30F10508F0C0C1EE58FF4FEC010C942E
:1058D0003CDE653509F0B8C1C601880F991FFC018F
:1058E00023E0EE0FFF1F2A95E1F7E81BF90BE355C4
:1058F000FB4E82E090E0968385832FEF3FEF86E0BA
:1059000091E0C89EF001C99EF00DD89EF00D1124C3
:10591000E753FB4EEC5FFE4F2193308395C186E049
:1059200091E0C89EF001C99EF00DD89EF00D1124A3
:10593000E753FB4E60838E01B3E0000F111FBA9551
:10594000E1F70C1B1D0B03551B4ED80117961C923B
:10595000CA010E94A10E84E090E0F8011BC086E01D
:1059600091E0C89EF001C99EF00DD89EF00D112463
:10597000E753FB4E6183CA010E94A10EFE01A3E022
:10598000EE0FFF1FAA95E1F7EC1BFD0BE355FB4E55
:1059900083E090E09683858357C183E890E0C89EBA
:1059A000F001C99EF00DD89EF00D1124EE0FFF1FDF
:1059B000E553FB4E6083CA010E94A10EFE0133E055
:1059C000EE0FFF1F3A95E1F7EC1BFD0BE355FB4E85
:1059D00085E090E0DFCF86E091E0C89EF001C99EAF
:1059E000F00DD89EF00D1124E753FB4E6383CA01DE
:1059F0000E94A10EFE0123E0EE0FFF1F2A95E1F7A2
:105A0000EC1BFD0BE355FB4E86E090E0C3CF86E038
:105A100091E0C89E8001C99E100DD89E100D1124E2
:105A200007531B4ED80114966C93CA010E94A10E15
:105A3000F8018081E601CC0FDD1F882359F4FE01B7
:105A4000B3E0EE0FFF1FBA95E1F7EC1BFD0BE3553A
:105A5000FB4E39C0FE01A3E0EE0FFF1FAA95E1F750
:105A6000EC1BFD0BE355FB4E87E090E093CF7C01F0
:105A7000F3E0EE0CFF1CFA95E1F7E81AF90A8DEA5B
:105A800094E1E80EF91ED70117962C91179786E03E
:105A900091E0C89E8001C99E100DD89E100D112462
:105AA00007531B4EF801E20FF11D65832F5F179618
:105AB0002C93CA010E94A10EF7019781D8018C9105
:105AC000981709F0C1C088E090E064CF86E091E0CB
:105AD000C89E9001C99E300DD89E300D11242753C9
