:100000000C94140E0C94400E0C94400E0C94400E64
:100010000C94400E0C94400E0C94400E0C94400E28
:100020000C94400E0C94400E0C94400E0C94400E18
:100030000C94400E0C94400E0C94400E0C94F67CE4
:100040000C94400E0C94400E0C94400E0C94400EF8
:100050000C94400E0C94400E0C94400E0C941D9F7A
:100060000C94400E0C9434120C9474120C94400EA8
:100070000C94400E0C94400E0C94400E0C94400EC8
:100080000C94400E0C94400E0C94400E0C94400EB8
:100090000C94C6120C9406130C94400E0C945A9BAC
:1000A0000C94400E0C946B7B0C94400E0C94400E00
:1000B0000C94400E0C94400E0C94400E0C94400E88
:1000C0000C94400E0C94400E0C94400E0C94400E78
:1000D0000C94400E0C94400E0C9458130C949813EE
:1000E0000C94400E0B14101415141A141F1424141D
:1000F00029142E14331438143D14452645266B2636
:10010000A9268B26C726E326132742279A27095EAE
:10011000095E095E075E075E095E095E075E075EAF
:10012000075EFA5D075EFD5D095E095E7B66A76698
:10013000B066BD66C0662572C366257225722572DB
:10014000C666C966CC66DF66F970F970F970EB6651
:10015000F970E166F970F666EE66F966F066F366C8
:10016000F970F666F666F666F666F970F970F9707B
:10017000F970F966F970FB66E27BE77BEC7BF17B5B
:10018000F67BFB7B007C057C0A7C0F7C147C5AA0F0
:100190005DA050A054A096A061A065A06BA06FA028
:1001A00073A079A07DA081A087A08BA091A0036EF1
:1001B000DB363D9A9999993DABAAAA2A3E000000E8
:1001C000803F084AD73B3BCE016E84BCBFFDC12FA8
:1001D0003D6C74319ABD56833DDA3D00C77F11BE38
:1001E000D9E4BB4C3E916BAAAABE000000803F0739
:1001F0002C7AA5BA6CC590DA3B9365FC8BBC53F89E
:1002000010FD3C5692834DBD879D3AB63DCBC9BF8C
:100210005BBE73DA0FC93F05A84CCDB2D44EB938D6
:1002200036A9020C50B9918688083CA6AAAA2ABE13
:10023000000000803F4C6F670064756D7000000027
:1002400000000000000000A44E65726173650000AC
:10025000000000000000003022656E61626C6500E5
:10026000000000000000006F2164697361626C652A
:10027000000000000000006F2168656C7000000045
:10028000000000000000009E19706C616E6E6572C7
:10029000006763730000000000000000000000D051
:1002A0007273657475700072657365740000000088
:1002B00000000000007520726164696F000000009A
:1002C0000000000000D6386D6F6465730000000008
:1002D00000000000006138636F6D7061737300008F
:1002E0000000000000E9316465636C696E61746947
:1002F0006F6E000000D53162617474657279000020
:100300000000000000EB1F73686F77000000000022
:1003100000000000009F31657261736500000000FD
:100320000000000000DD304172647550696C6F742C
:100330004D656761006C6F6773000000000000008E
:1003400000000054307365747570000000000000F8
:100350000000002630746573740000000000000087
:100360000000000F3068656C7000000000000000A5
:100370000000008A19706C616E6E657200000000EA
:100380000000003D30746573740070776D000000EC
:100390000000000000000000A436726164696F0074
:1003A0000000000000000000C23C6661696C7361DF
:1003B0006665000000000000623762617474657257
:1003C0007900000000000000B33372656C617900B1
:1003D00000000000000000004F1C776179706F6919
:1003E0006E74730000000000784578626565000057
:1003F00000000000000000000A1D656564756D7056
:100400000000000000000000A91C6D6F6465737798
:100410006974636800000000E93464697073776987
:100420007463686573000000D21B4D69783A656C8F
:1004300065766F6E73200972657620656C65763A15
:1004400025642C20726576206368313A25642C205F
:10045000726576206368323A25640A004D69783AFD
:100460007374616E64617264200972657620726FC4
:100470006C6C3A25642C2072657620706974636810
:100480003A25642C20726576207275646465723A30
:1004900025640A00506F736974696F6E2025640AC1
:1004A00000436F6E74726F6C20434820002025302B
:1004B000327800253034783A00426567696E2058FA
:1004C00042656520582D4354552052616E67652062
:1004D000616E64205253534920546573743A0A0084
:1004E0004C6F69746572207261646975733A202576
:1004F000640A0A00486974207261646975733A205D
:1005000025640A00256420776179706F696E7473C1
:100510000A00486F6C6420616C74697475646520AE
:100520006F662025646D0A00486F6C6420637572E5
:1005300072656E7420616C7469747564650A00522A
:10054000656C6179206F66660A0052656C6179207E
:100550006F6E0A004E6F7420656E61626C65640A8E
:1005600000566F6C74733A20313A25322E32662C65
:1005700020323A25322E32662C20333A25322E3262
:10058000662C20343A25322E32660A004C4F532016
:10059000636175736564206E6F206368616E676563
:1005A00020696E2041504D2E0A005448524F545439
:1005B0004C45204641494C5341464520414354490E
:1005C00056415445443A2025642C2000434F4E5454
:1005D000524F4C204D4F4445204348414E474544DF
:1005E0003A20005448524F54544C45204348414E01
:1005F000474544202564200A00556E706C756720BD
:10060000626174746572792C207468726F74746C92
:100610006520696E206E65757472616C2C2074752E
:10062000726E206F666620726164696F2E0A0049DF
:100630004E20313A20256409323A20256409333AA4
:1006400020256409343A20256409353A20256409B7
:10065000363A20256409373A20256409383A20259E
:10066000640A00494E3A20313A20256409323A2082
:10067000256409333A20256409343A202564093574
:100680003A20256409363A20256409373A20256442
:1006900009383A2025640A00436F6D6D616E6473FA
:1006A0003A0A20206C6F6773202020202020202011
:1006B0006C6F6720726561646261636B2F73657430
:1006C0007570206D6F64650A2020736574757020E5
:1006D0002020202020207365747570206D6F646564
:1006E0000A2020746573742020202020202020748C
:1006F000657374206D6F64650A0A4D6F76652074AA
:10070000686520736C696465207377697463682019
:10071000616E6420726573657420746F20464C5955
:100720002E0A0A000A547970652027592720616E25
:10073000642068697420456E74657220746F20654A
:100740007261736520616C6C20776179706F696E7E
:100750007420616E6420706172616D6574657220D1
:10076000646174612C20616E79206F7468657220F9
:100770006B657920746F2061626F72743A20005249
:1007800061772056616C7565730A000A4F70746951
:100790006F6E733A20302D34000A4F7074696F6E9B
:1007A000733A5B6F6E2C6F66665D0A006F6666005B
:1007B0006F6E000A4D6F766520524320746F676735
:1007C0006C652073776974636820746F206561635A
:1007D0006820706F736974696F6E20746F20656430
:1007E00069742C206D6F76652061696C65726F6E1F
:1007F00020737469636B20746F2073656C65637418
:10080000206D6F6465732E000A4D6F766520616CF4
:100810006C20636F6E74726F6C7320746F206561EF
:1008200063682065787472656D652E204869742050
:10083000456E74657220746F20736176653A200A84
:10084000000A4E6F20726164696F3B2043686563E4
:100850006B20636F6E6E6563746F72732E000A0A8D
:10086000526164696F2053657475703A0A000A46D4
:100870004143544F525920524553455420636F6DA4
:10088000706C657465202D20706C656173652072D5
:10089000657365742041504D20746F20636F6E74D2
:1008A000696E7565000A54797065202759272061A3
:1008B0006E642068697420456E74657220746F20C0
:1008C000706572666F726D20666163746F727920F5
:1008D00072657365742C20616E79206F746865721F
:1008E000206B657920746F2061626F72743A20000A
:1008F0000A436F6D6D616E64733A0A202064756DF2
:1009000070203C6E3E20202020202020202020200F
:10091000202064756D70206C6F67203C6E3E0A204D
:100920002065726173652020202020202020202057
:10093000202020202020657261736520616C6C206E
:100940006C6F67730A2020656E61626C65203C6E77
:10095000616D653E7C616C6C20202020656E61625B
:100960006C65206C6F6767696E67203C6E616D65B2
:100970003E206F722065766572797468696E670AC9
:10098000202064697361626C65203C6E616D653E18
:100990007C616C6C20202064697361626C65206CE2
:1009A0006F6767696E67203C6E616D653E206F7290
:1009B0002065766572797468696E670A0A00656EEB
:1009C00061626C650043555200434D4400524157EB
:1009D000004D4F4445004E54554E004354554E0073
:1009E000504D004750530041545449545544455FBD
:1009F0004D45440041545449545544455F46415384
:100A00005400616C6C006D697373696E67206C6F64
:100A10006720747970650A000A4C6F6720657261FF
:100A20007365642E0A000A45726173696E67206CF3
:100A30006F672E2E2E0A00415454454E54494F4E96
:100A4000202D2045726173696E67206C6F67206985
:100A50006E202564207365636F6E64732E202050B2
:100A60006F776572206F6666206E6F7720746F20D7
:100A700073617665206C6F6721200A004C6F6720D8
:100A80007265616420636F6D706C6574650A004403
:100A9000756D70696E67204C6F67206E756D62654D
:100AA000722025642C2020202073746172742070C1
:100AB0006167652025642C202020656E64207061AC
:100AC00067652025640A00626164206C6F67206E90
:100AD000756D6265720A00414C5432505443485F50
:100AE00000454E524759325448525F0059573253CD
:100AF00052565F00415253504432505443485F00B5
:100B000050544348325352565F00524C4C32535269
:100B1000565F0048444E4732524C4C5F00524338B7
:100B20005F005243375F005243365F005243355FE8
:100B3000005243345F005243335F005243325F0040
:100B40005243315F00424154545F43415041434955
:100B5000545900424154545F4D4F4E49544F520036
:100B60004D41475F454E41424C4500474E445F4131
:100B700042535F505245535300474E445F54454DD6
:100B80005000414C545F484F4C445F52544C005409
:100B900052494D5F50495443485F434400545249C1
:100BA0004D5F41525350445F434D004C4F475F42AD
:100BB00049544D41534B005357495443485F454EA8
:100BC00041424C45005452494D5F4155544F004CF1
:100BD000494D5F50495443485F4D494E004C494D83
:100BE0005F50495443485F4D4158004C494D5F5256
:100BF0004F4C4C5F434400464C544D4F44450046D7
:100C00004C544D4F44455F43480046535F47435360
:100C10005F454E41424C0046535F4C4F4E475F414B
:100C200043544E0046535F53484F52545F41435420
:100C30004E005452494D5F5448524F54544C450055
:100C40005448525F46535F56414C554500544852F4
:100C50005F4641494C53414645005448525F4D411F
:100C600058005448525F4D494E0041525350445F22
:100C70004642575F4D41580041525350445F4642EF
:100C8000575F4D494E0057505F4C4F495445525F96
:100C90005241440057505F52414449555300575008
:100CA0005F494E4445580057505F544F54414C00E3
:100CB00041525350445F524154494F00414C545F9C
:100CC0004D4958005854524B5F414E474C455F4385
:100CD00044005854524B5F4741494E5F5343004BC9
:100CE00046465F5448523250544348004B46465F94
:100CF0005054434832544852004B46465F52444495
:100D0000524D4958004B46465F50544348434F4D5F
:100D1000500053595349445F4D5947435300535969
:100D20005349445F544849534D4156004D41580082
:100D30005452494D004D494E00494D415800440020
:100D4000490050004C6F67206E756D6265722025FA
:100D5000642C202020207374617274207061676598
:100D60002025642C202020656E642070616765203A
:100D700025640A000A2564206C6F67732061766120
:100D8000696C61626C6520666F7220646F776E6C4F
:100D90006F61640A000A4E6F206C6F677320617682
:100DA00061696C61626C6520666F7220646F776E3A
:100DB0006C6F61640A004355520020255300434D77
:100DC00044002025530052415700202553004D4F29
:100DD000444500202553004E54554E002025530015
:100DE0004354554E0020255300504D0020255300FC
:100DF000475053002025530041545449545544450D
:100E00005F4D4544002025530041545449545544F6
:100E1000455F4641535400202553006E6F6E6500B8
:100E20006C6F677320656E61626C65643A20006365
:100E30006F6D6D616E6420233A2025642069643AE9
:100E40002564206F7074696F6E733A256420703169
:100E50003A25642070323A256C642070333A256C50
:100E6000642070343A256C64200A00486974204577
:100E70006E74657220746F20657869742E0A0A009A
:100E800054657374204D6F64650A0A000A0A205283
:100E90006561647920746F20464C592E003C737450
:100EA00061727475705F67726F756E643E20475231
:100EB0004F554E44205354415254000A4D6F7665AD
:100EC0002074686520736C69646520737769746346
:100ED0006820616E6420726573657420746F2046AB
:100EE0004C592E0A000A456E746572696E67206956
:100EF0006E7465726163746976652073657475706C
:100F0000206D6F64652E2E2E0A0A4966207573695E
:100F10006E67207468652041726475696E6F205336
:100F2000657269616C204D6F6E69746F722C2065FB
:100F30006E73757265204C696E6520456E64696ECE
:100F4000672069732073657420746F204361727227
:100F5000696167652052657475726E2E0A547970E6
:100F600065202768656C702720746F206C69737426
:100F700020636F6D6D616E64732C202765786974D2
:100F80002720746F206C656176652061207375621F
:100F90006D656E752E0A56697369742074686520D4
:100FA00027736574757027206D656E7520666F7286
:100FB0002066697273742D74696D6520636F6E6647
:100FC000696775726174696F6E2E0A007573696E58
:100FD00067202575206279746573206F66206D65C2
:100FE0006D6F72790A006C6F61645F616C6C207464
:100FF0006F6F6B20256C7575730A00646F6E652EBC
:10100000000A0A454550524F4D20666F726D61745B
:101010002076657273696F6E202564206E6F742070
:10102000636F6D70617469626C65207769746820A4
:1010300074686973206669726D77617265202872C1
:1010400065717569726573202564290A0A466F7295
:1010500063696E6720636F6D706C65746520706185
:1010600072616D657465722072657365742E2E2EC3
:10107000000A0A496E6974204172647550696C6F88
:10108000744D65676120322E322E300A0A46726531
:10109000652052414D3A20256C750A004779726FE0
:1010A000206F6666736574733A2025342E32662C81
:1010B0002025342E32662C2025342E32660A00413B
:1010C0006363656C206F6666736574733A202534BC
:1010D0002E32662C2025342E32662C2025342E32DA
:1010E000660A0061626C65640A0064697300656E7B
:1010F00000646F6E650A000A45726173696E67204D
:10110000454550524F4D0A002D000A5361766564E3
:101110002053657474696E67730A0A00506F7320F8
:1011200025643A20004348383A202564207C202555
:1011300064207C2025640A004348373A2025642037
:101140007C202564207C2025640A004348363A2010
:101150002564207C202564207C2025640A004348E7
:10116000353A202564207C202564207C2025640AD3
:10117000004348343A202564207C202564207C20CC
:1011800025640A004348333A202564207C202564E6
:10119000207C2025640A004348323A202564207CC4
:1011A000202564207C2025640A004348313A20250C
:1011B00064207C202564207C2025640A00503A208D
:1011C00025342E33662C20493A25342E33662C20C4
:1011D000443A25342E33662C20494D41583A256C2B
:1011E000640A00466C69676874206D6F6465730AF1
:1011F000004D6167206F6666736574733A2025340D
:101200002E34662C2025342E34662C2025342E34A2
:10121000660A004D61672044656C696E6174696F90
:101220006E3A2025342E34660A00436F6D70617368
:10123000730A00494D550A006D696E3A2025640A0B
:101240006D61783A2025640A6372756973653A2086
:1012500025640A6661696C736166655F656E6162CB
:101260006C65643A2025640A6661696C7361666521
:101270005F76616C75653A2025640A005468726F68
:1012800074746C650A0058545241434B3A2025341B
:101290002E32660A58545241434B20616E676C658A
:1012A0003A2025640A0043726F7373747261636B32
:1012B0000A006E617620706974636820616C743A0C
:1012C0000A00656E6572677279207468726F747453
:1012D0006C653A0A006E61762070697463682061FB
:1012E000697270736565643A0A006E617620726F88
:1012F0006C6C3A0A00736572766F2072756464656F
:10130000723A0A00736572766F2070697463683A86
:101310000A00736572766F20726F6C6C3A0A004730
:1013200061696E730A00526164696F0A004D6F6EE5
:1013300069746F72696E6720766F6C747320616E6A
:10134000642063757272656E74004D6F6E69746FA0
:1013500072696E67206261747420766F6C747300BA
:101360004D6F6E69746F72696E6720342063656CAF
:101370006C004D6F6E69746F72696E672033206305
:10138000656C6C0042617474206D6F6E69746F726D
:10139000696E672064697361626C656400426174A0
:1013A00074204D6F696E746F720A005365747570A6
:1013B000204D6F64650A0A494D504F5254414E54B6
:1013C0003A20696620796F752068617665206E6FB6
:1013D000742070726576696F75736C7920736574AB
:1013E00020746869732073797374656D2075702C2F
:1013F00020757365207468650A27726573657427A4
:1014000020636F6D6D616E6420746F20696E697406
:1014100069616C697A652074686520454550524F52
:101420004D20746F2073656E7369626C652064650E
:101430006661756C742076616C7565730A616E64A3
:10144000207468656E207468652027726164696F16
:101450002720636F6D6D616E6420746F20636F6E03
:1014600066696775726520666F7220796F75722084
:10147000726164696F2E0A0A004D5347204653205B
:101480004F464620004D5347204653204F4E2000E4
:10149000506C616E6E6572204D6F64650A0A546807
:1014A0006973206D6F6465206973206E6F742069A5
:1014B0006E74656E64656420666F72206D616E7512
:1014C000616C207573650A0A003C6E61766967611C
:1014D00074653E205750206572726F72202D206413
:1014E000697374616E6365203C2030004C6F772017
:1014F0004261747465727921004661696C7361663A
:1015000065202D2053686F7274206576656E742097
:101510006F6666004661696C73616665202D204CBC
:101520006F6E67206576656E74206F6E00666C69FD
:10153000676874206D6F6465203D20004661696CAA
:1015400073616665202D2053686F7274206576651F
:101550006E74206F6E004D53473A20726573657448
:101560005F636F6E74726F6C5F737769746368002A
:101570003C70726F636573735F6D61793E004E6599
:101580007720636D643A203C70726F636573735F9C
:101590006D7573743E006F7574206F6620636F6D98
:1015A0006D616E64732100426164205265717565DE
:1015B0007374202D2063616E6E6F74206368616E9A
:1015C000676520746F206E6F6E2D4E617620636D9F
:1015D00064005265616368656420686F6D650076BC
:1015E00065726966795F6D7573743A204C4F495422
:1015F0004552206F726269747320636F6D706C6501
:101600007465007665726966795F6D7573743A20EA
:101610004C4F495445522074696D6520636F6D705D
:101620006C657465003C7665726966795F6D75738B
:10163000743A204D41565F434D445F4E41565F57CB
:101640004159504F494E543E204D69737365642093
:101650005750007665726966795F6D61793A204905
:101660006E76616C6964206F72206E6F2063757294
:1016700072656E7420436F6E646974696F6E206367
:101680006D64007665726966795F6D7573743A2072
:10169000496E76616C6964206F72206E6F2063758D
:1016A0007272656E74204E617620636D640067709F
:1016B0007320616C743A20256C64004D5347203CC4
:1016C0007365745F6E6578745F77703E2077705FC6
:1016D000696E6465783A20004D5347203C696E631B
:1016E00072656D656E745F57505F696E6465783EB4
:1016F00020575020696E64657820697320696E6395
:1017000072656D656E74656420746F20004E756D32
:10171000626572206F66207061636B6574732072FE
:101720006561643A2025640A004572726F72205226
:10173000656164696E6720454E445F425954453A7D
:101740002025640A004572726F72205265616469D7
:101750006E67205061636B65743A2025640A0052FD
:1017600041573A004750533A20256C642C20256499
:101770002C2025642C2025342E37662C2025342E51
:1017800037662C2025342E34662C2025342E3466E2
:101790002C2025342E34662C2025342E34660A0065
:1017A0004D4F443A004154543A2025642C2025647E
:1017B0002C2025750A0020256420636F6D6D616EF5
:1017C000647320696E206D656D6F72790A00554EE5
:1017D0004B4E4F574E2053544152545550202D20BC
:1017E0000047524F554E44205354415254202D200F
:1017F00000414952205354415254202D2000434D62
:10180000443A00504D3A004E54554E3A2025342E5D
:1018100034662C2025642C2025342E34662C20257B
:10182000342E34662C2025342E34662C2025342E7C
:1018300034662C2025342E34662C0A004354554E31
:101840003A00435552523A2025642C2025342E3438
:10185000662C2025342E34662C2025640A003C7327
:10186000746172745F6E65775F6C6F673E204C6F5A
:1018700067732066756C6C202D206C6F6767696ECE
:101880006720646973636F6E74696E756564006662
:101890006C6967687420706C616E2072656365693D
:1018A00076656400616374696F6E20726563656953
:1018B0007665643A2000776179706F696E74207282
:1018C0006563656976652074696D656F7574007709
:1018D0006179706F696E742073656E642074696DD0
:1018E000656F757400455854524133004558545241
:1018F00041320045585452413100504F53495449E8
:101900004F4E005241575F4354524C0052435F4385
:1019100048414E004558545F53544154005241577A
:101920005F53454E53005352335F005352305F00B4
:1019300044656D6F20536572766F732100253033D7
:10194000753A25733A20006E6F7420666F756E6469
:1019500000253033753A252D33322E3332733A2039
:1019600000756E6B6E6F776E2074797065006E6FA8
:101970007420666F756E640025733A20006D69737C
:1019800073696E67206E616D65206F722076616C81
:101990007565003F3F00256400256400256C6400E8
:1019A000256600256600657869740068656C7000BE
:1019B00044454300434F4D504153535F006E616EA9
:1019C00000696E660000407A10F35A00A0724E184B
:1019D000090010A5D4E80000E87648170000E40BE1
:1019E00054020000CA9A3B000000E1F505000080A7
:1019F000969800000040420F000000A08601000001
:101A000000102700000000E8030000000064000050
:101A10000000000A00000000000100000000002C8F
:101A200076D888DC674F0823DFC1DFAE59E1B1B754
:101A300096E5E3E453C63AE651997696E8E6C28421
:101A400026EB898C9B62ED407C6FFCEFBC9C9F4039
:101A5000F2BAA56FA5F490055A2AF75C936B6CF95E
:101A6000676DC11BFCE0E40D47FEF520E6B500D034
:101A7000ED902E0300943577050080841E08000049
:101A8000204E0A000000C80C333333330F986E1217
:101A9000831141EF8D2114893BE65516CFFEE6DB1D
:101AA00018D1844B381BF77C1D901DA4BBE4242067
:101AB0003284725E228100C9F124ECA1E53D270049
:101AC000002100240027002A002D003000330001EF
:101AD000010000040107010A01000022002500287E
:101AE000002B002E00310034000201000005010827
:101AF000010B01000020002300260029002C002FEC
:101B0000003200000100000301060109010505057E
:101B100005070508080808020202020A0A08080464
:101B20000404040101010101010101030303030392
:101B3000030303040707070C0C0C0C0C0C0C0C0221
:101B400002020206060606060606060B0B0B0B0B28
:101B50000B0B0B0102102020080810204010204021
:101B60008002010201080402010102040810204061
:101B7000808040201008040201800402018040207F
:101B800010080402010804020101020408102040A8
:101B90008001020408102040800000090A02080B9E
:101BA0000C0D070603040100000000000000000007
:101BB0000000000000000000000000000000000025
:101BC0000000000000100F0E0000000000000000E8
:101BD00000000000000000000000000000000049BC
:101BE0004E46494E4954594E414ECDCCCC3D0AD774
:101BF000233C17B7D13877CC2B329595E6241FB10B
:101C00004F0A000020410000C84200401C4620BC92
:101C1000BE4CCA1B0E5AAEC59D7408306B7CFE8349
:101C2000798D599B0130F78311241FBECFEFD1E28C
:101C3000DEBFCDBF00E00CBF14E0A0E0B2E0EEE4F8
:101C4000F7E501E00BBF02C007900D92A038B10785
:101C5000D9F713E1A0E8B4E001C01D92A234B107A6
:101C6000E1F71CE1C4E2DCE104C02297FE010E941E
:101C700082A5CA31D107C9F70E94D99C0C949AABAE
:101C80000C940000283008F027E03327DA01990F80
:101C9000311D87FD916000966105710539F4326050
:101CA0002E5F3D9330E32A95E1F708959F3F30F092
:101CB00080387105610509F03C5F3C5F3D939130D0
:101CC00008F08068911DDF93CF931F930F93FF92CD
:101CD000EF92192F987F9695E92F96959695E90F93
:101CE000FF27E15EF54E99273327EE24FF24A70155
:101CF000E70105900894079428F4360FE71EF81EB4
:101D0000491F511D660F771F881F991F0694A1F761
:101D10000590079428F4E70EF81E491F561FC11DB1
:101D2000770F881F991F661F0694A1F705900794E7
:101D300028F4F80E491F561FC71FD11D880F991F81
:101D4000661F771F0694A1F70590079420F4490FAA
:101D5000561FC71FD81F990F661F771F881F06942D
:101D6000A9F784911095177041F0D695C7955795AE
:101D70004795F794E7941A95C1F7E5ECF9E1689473
:101D80001590159135916591959105907FE2739528
:101D9000E118F10A430B560BC90BD009C0F7E10C4F
:101DA000F11E431F561FC91FD01D7EF4703311F45E
:101DB0008A95E6CFE894015030F0080F0AF4002726
:101DC000021708F4202F2395022F7A3328F079E3A5
:101DD0007D932A95E9F710C07D932A9589F606949C
:101DE00097956795379517951794E118F10A430B66
:101DF000560BC90BD00998F023957E9173957A33D1
:101E000008F070E37C932013B8F77E9170617D93A6
:101E100030F0839571E37D9370E32A95E1F7112407
:101E2000EF90FF900F911F91CF91DF91992787FD40
:101E300090950895FA01AA27283051F1203181F1B7
:101E4000E8946F936E7F6E5F7F4F8F4F9F4FAF4FC2
:101E5000B1E03ED0B4E03CD0670F781F891F9A1FD5
:101E6000A11D680F791F8A1F911DA11D6A0F711D89
:101E7000811D911DA11D20D009F468943F912AE095
:101E8000269F11243019305D3193DEF6CF0108957D
:101E9000462F4770405D4193B3E00FD0C9F7F6CFAE
:101EA000462F4F70405D4A3318F0495D31FD405276
:101EB000419302D0A9F7EACFB4E0A695979587950C
:101EC00077956795BA95C9F70097610571050895EB
:101ED0009B01AC010A2E0694579547953795279597
:101EE000BA95C9F7620F731F841F951FA01D08952F
:101EF000EF92FF920F93DF93CF93CDB7DEB760974A
:101F00000FB6F894DEBF0FBECDBFA82F002309F493
:101F100061C07E010894E11CF11C88E0F701119278
:101F20008A95E9F729833A834B835C836D837E83AB
:101F3000AF83988780E2801BE82FFF27E7FDF095AD
:101F40004D815E816F817885181684F01D861E860E
:101F50001F86188A882799278E1B9F0B04C07695A9
:101F60006795579547958A95D2F728C0202F332734
:101F700027FD3095DB01CA01022E04C0B695A79556
:101F8000979587950A94D2F78D879E87AF87B88BF0
:101F900004C0440F551F661F771FEA95D2F7898149
:101FA0009A81AB81BC8104C0B695A795979587951A
:101FB0002A95D2F7482B592B6A2B7B2B49875A87B6
:101FC0006B877C8729853A854B855C856D857E8509
:101FD000AF8598898A2F60960FB6F894DEBF0FBE42
:101FE000CDBFCF91DF910F91FF90EF900895CF93E8
:101FF000DF93FC01EB014230510570F0638574857D
:102000008585968520E030E040E854E40E94FFA3F7
:102010000E944EA27983688382E090E0DF91CF91A5
:102020000895CF93DF93EC01FB014230510518F482
:1020300020E030E012C06081718180E090E00E9479
:102040007AA220E030E040E85AE30E94FFA36B87C9
:102050007C878D879E8722E030E0C901DF91CF9198
:102060000895089508950895FC01838D138E0895B1
:10207000009719F00197C1F40CC0E091C312F091E0
:10208000C412A081B1812D913C91CF01F901199524
:102090000895E091C512F091C612A081B1812D91F1
:1020A0003C91CF01F90119950895EF92FF920F939A
:1020B0001F93CF93DF93EC0108836A834B83822FB6
:1020C00090E0880F991FFC01A3E0EE0FFF1FAA9577
:1020D000E1F7E81BF90BE657F04F81858983822FE2
:1020E00090E0880F991FDC0163E0AA0FBB1F6A957F
:1020F000E1F7A81BB90BA657B04F822F90E0880FCD
:10210000991FFC0143E0EE0FFF1F4A95E1F7E81B22
:10211000F90BE657F04F81858F5F19968C93DE019E
:1021200035E0E32EF12CE00EF11E6FEF7FEFE0E0E3
:10213000F0E01EC02D912627822F8295807F822776
:1021400090E0382F2227AC01440F551F440F551F34
:10215000440F551F24273527672F772762277327BA
:1021600024E0959587952A95E1F768277927319698
:10217000EE15FF05FCF2CC5FDE4F69937883980182
:10218000295F3F4FC901CDB7DEB7E6E00C9471A5DA
:10219000FC01DC01AC5FBE4F8C91EB5FFE4F68270A
:1021A000262F2295207F262730E0522F4427C90171
:1021B00063E0880F991F6A95E1F7482759278081C6
:1021C00090E04827592784E0359527958A95E1F7CF
:1021D000422753274C9350830895F901E40FF11DD2
:1021E000292F33274427552720839C01552737FD66
:1021F0005095452F2183272F382F492F552747FDED
:102200005A952283638384E008957F928F929F92F0
:10221000AF92BF92CF92DF92EF92FF920F931F93F4
:10222000722E132FD42EC52EB62EA72E982E892EA1
:10223000E00EF11C08E30E94780FF7012083272DA0
:10224000312F4D2D5C2D6B2D7A2D892D982D00E38E
:102250000E94780FF7012183272D312F4D2D5C2D02
:102260006B2D7A2D892D982D08E20E94780FF701A9
:102270002283272D312F4D2D5C2D6B2D7A2D892D0D
:10228000982D00E20E94780FF7012383272D312F2C
:102290004D2D5C2D6B2D7A2D892D982D08E10E94F6
:1022A000780FF7012483272D312F4D2D5C2D6B2DB9
:1022B0007A2D892D982D00E10E94780FF701258352
:1022C000272D312F4D2D5C2D6B2D7A2D892D982D9D
:1022D00008E00E94780FF7012683778288E01F913B
:1022E0000F91FF90EF90DF90CF90BF90AF909F90B5
:1022F0008F907F9008950E94ED100895A0E0B0E0C7
:10230000E4E8F1E10C9453A58C01EB0165E50E9432
:102310003810C80168810E943810C80169810E9484
:102320003810C8016A810E943810C8016B810E9470
:102330003810C8016C810E9438106E01EE24FF2411
:1023400008C0C801F60164810E9438100894E11C9D
:10235000F11C0894C11CD11C888190E0E816F90694
:1023600080F3CC5FDE4FC80169910E943810C8012C
:1023700068810E943810CDB7DEB7E8E00C946FA5F5
:10238000A6E0B1E0E6ECF1E10C9453A5D82EC92EFD
:1023900050917E0370917F0388E28D836E834F831B
:1023A000388729877E010894E11CF11CC701652F3D
:1023B000472F2D2D04E010E00E9455108D2D9C2DEF
:1023C000B7010E947E11CA5FDE4FE8E00C946FA552
:1023D000A6E0B1E0EEEEF1E10C9453A5D82EC92EA3
:1023E00020917E0340917F038AE28D837E836F83F9
:1023F0007E010894E11CF11CC701622F2D2D02E023
:1024000010E00E9455108D2D9C2DB7010E947E1169
:10241000CA5FDE4FE8E00C946FA5A6E0B1E0E3E10F
:10242000F2E10C9453A5D82EC92E30917E03509121
:102430007F038FE28D836E834F8328877E0108940C
:10244000E11CF11CC701632F452F2D2D03E010E087
:102450000E9455108D2D9C2DB7010E947E11CA5FE0
:10246000DE4FE8E00C946FA51F920F920FB60F920B
:102470000BB60F9211242F933F934F938F939F93FB
:10248000EF93FF934091C600209183123091841204
:102490002F5F3F4F80918712909188122823392314
:1024A00080918512909186122817390779F08091D2
:1024B000831290918412E0918912F0918A12E80FB0
:1024C000F91F40833093841220938312FF91EF9180
:1024D0009F918F914F913F912F910F900BBE0F9035
:1024E0000FBE0F901F9018951F920F920FB60F926C
:1024F0000BB60F9211242F933F938F939F93EF93DB
:10250000FF932091A5123091A6128091A312909171
:10251000A41228173907E9F08091A5129091A6120C
:10252000E091A912F091AA12E80FF91F808180931F
:10253000C6008091A5129091A61201962091A71233
:102540003091A812822393239093A6128093A51210
:1025500010C02091A3123091A4128091A5129091E5
:10256000A6122817390729F48091C1008F7D809326
:10257000C100FF91EF919F918F913F912F910F900B
:102580000BBE0F900FBE0F901F9018951F920F92C9
:102590000FB60F920BB60F9211242F933F934F93C8
:1025A0008F939F93EF93FF934091CE0020918B12D6
:1025B00030918C122F5F3F4F80918F12909190122B
:1025C0002823392380918D1290918E122817390774
:1025D00079F080918B1290918C12E0919112F09190
:1025E0009212E80FF91F408330938C1220938B12C4
:1025F000FF91EF919F918F914F913F912F910F906C
:102600000BBE0F900FBE0F901F9018951F920F9248
:102610000FB60F920BB60F9211242F933F938F9307
:102620009F93EF93FF932091AD123091AE12809162
:10263000AB129091AC1228173907E9F08091AD12D6
:102640009091AE12E091B112F091B212E80FF91F21
:1026500080818093CE008091AD129091AE12019650
:102660002091AF123091B012822393239093AE1237
:102670008093AD1210C02091AB123091AC128091BA
:10268000AD129091AE122817390729F48091C90034
:102690008F7D8093C900FF91EF919F918F913F9122
:1026A0002F910F900BBE0F900FBE0F901F9018959B
:1026B0001F920F920FB60F920BB60F9211242F9309
:1026C0003F934F938F939F93EF93FF9340913601E6
:1026D00020919B1230919C122F5F3F4F80919F124F
:1026E0009091A0122823392380919D1290919E12DF
:1026F0002817390779F080919B1290919C12E091F4
:10270000A112F091A212E80FF91F408330939C129E
:1027100020939B12FF91EF919F918F914F913F9149
:102720002F910F900BBE0F900FBE0F901F9018951A
:102730001F920F920FB60F920BB60F9211242F9388
:102740003F938F939F93EF93FF932091BD1230910E
:10275000BE128091BB129091BC1228173907E9F084
:102760008091BD129091BE12E091C112F091C212FF
:10277000E80FF91F8081809336018091BD129091FE
:10278000BE1201962091BF123091C0128223932372
:102790009093BE128093BD1210C02091BB12309155
:1027A000BC128091BD129091BE122817390729F4EE
:1027B000809131018F7D80933101FF91EF919F9145
:1027C0008F913F912F910F900BBE0F900FBE0F90E6
:1027D0001F90189580916C0B90916D0BA0916E0BD2
:1027E000B0916F0B8C569E4EAF4FBF4F1CF48FEFC6
:1027F0008093F70D8091F70D882319F08150809315
:10280000F70D0895E82FF0E0EB30F105D0F5EE5824
:10281000FF4F0C9480A520912A0130912B0131C0EB
:1028200020912C0130912D012CC020918A003091F3
:102830008B0027C020918C0030918D0022C0209108
:10284000AC003091AD001DC02091AA003091AB00CA
:1028500018C020919C0030919D0013C020919A00D7
:1028600030919B000EC0209128013091290109C0B0
:10287000209188003091890004C020919800309107
:10288000990035952795C9010895FC0171836083EE
:1028900084E06038780739F47093C4126093C312EF
:1028A0001386128608C07093C6126093C51281E029
:1028B00090E0938782871382128208955F926F92CD
:1028C0007F928F929F92AF92BF92CF92DF92EF92C0
:1028D000FF920F931F935B016C0139014A018091B4
:1028E000500F9091510FA091520FB091530FA81615
:1028F000B906CA06DB0610F41092540FA601950122
:10290000281B390B4A0B5B0BDA01C901815090443B
:10291000A040B04010F01092540F8091540F8830B6
:1029200009F070C0E0914F0FF0E0A3E0EE0FFF1F41
:10293000AA95E1F7DF01A15FB04FED90FD900D91F9
:102940001C918091550F9091560FA091570FB09107
:10295000580F8E199F09A00BB10B8093550F9093C0
:10296000560FA093570FB093580FED5EF04F208194
:102970003181428153818091590F90915A0FA091DA
:102980005B0FB0915C0F821B930BA40BB50B809374
:10299000590F90935A0FA0935B0FB0935C0FC8012F
:1029A000B7010E94C6A420915D0F30915E0F409147
:1029B0005F0F5091600F261B370B480B590B20936C
:1029C0005D0F30935E0F40935F0F5093600FC8010F
:1029D000B701A80197010E94C6A42091610F309110
:1029E000620F4091630F5091640F261B370B480B09
:1029F000590B2093610F3093620F4093630F5093F4
:102A0000640F2DC0882341F5A092500FB092510F52
:102A1000C092520FD092530F1092550F1092560F32
:102A20001092570F1092580F1092590F10925A0F80
:102A300010925B0F10925C0F10925D0F10925E0F60
:102A400010925F0F1092600F1092610F1092620F40
:102A50001092630F1092640F8F5F8093540F509009
:102A60004F0FE52DF0E063E0EE0FFF1F6A95E1F7F1
:102A70009F01215F304F8091500F9091510FA09195
:102A8000520FB091530F86017501E81AF90A0A0B2B
:102A90001B0BD901ED92FD920D931C931397ED5EE4
:102AA000F04F60827182828293828091550F909163
:102AB000560FA091570FB091580F8E0D9F1DA01F5C
:102AC000B11F8093550F9093560FA093570FB0935B
:102AD000580F8091590F90915A0FA0915B0FB091B0
:102AE0005C0F860D971DA81DB91D8093590F9093FB
:102AF0005A0FA0935B0FB0935C0FC401B301A80100
:102B000097010E94C6A420915D0F30915E0F409105
:102B10005F0F5091600F260F371F481F591F2093DA
:102B20005D0F30935E0F40935F0F5093600FC801AD
:102B3000B701A80197010E94C6A42091610F3091AE
:102B4000620F4091630F5091640F260F371F481F8B
:102B5000591F2093610F3093620F4093630F50937E
:102B6000640FE52DEF5FE0934F0FE83010F0109207
:102B70004F0F1F910F91FF90EF90DF90CF90BF907C
:102B8000AF909F908F907F906F905F900895EF929D
:102B9000FF920F931F938091D00E8093900E10920E
:102BA000910EE090D10EF090D20E0091D30E1091C4
:102BB000D40EE092880EF092890E00938A0E109344
:102BC0008B0E90E06AE070E00E94F9A4882777FD00
:102BD0008095982F2091B30E3091B40E4091B50E90
:102BE0005091B60E620F731F841F951F6093DD0E08
:102BF0007093DE0E8093DF0E9093E00EE092C20E93
:102C0000F092C30E0093C40E1093C50E1092E10E05
:102C10001092E20E1092E30E1092E40E1F910F91AB
:102C2000FF90EF9008952091B30E3091B40E409133
:102C3000B50E5091B60E8091880E9091890EA0919C
:102C40008A0EB0918B0E281739074A075B0754F09C
:102C50001092880E1092890E10928A0E10928B0E8E
:102C600081E008958091900E9091910E6AE070E05D
:102C70000E94F9A4882777FD8095982F2091DD0E7A
:102C80003091DE0E4091DF0E5091E00E260F371F7F
:102C9000481F591F2093DD0E3093DE0E4093DF0E48
:102CA0005093E00E80E008958091D00E813021F4A1
:102CB00080910B0184600AC0882321F480910B016C
:102CC0008B7F04C080910B0194E0892780930B01D6
:102CD000089580910901881F8827881F8093140E0A
:102CE0008823F1F48CB11092110E87FF03C081E0AC
:102CF0008093110E8CB190E026E0969587952A95E9
:102D0000E1F781708093120E8091090190E0B6E0A6
:102D100096958795BA95E1F781708093130E089583
:102D2000679903C081E090E002C08FEF9FEF90931E
:102D30003E0380933D03669903C081E090E002C0AA
:102D40008FEF9FEF9093400380933F0380910901A1
:102D500086FD03C081E090E002C08FEF9FEF90936B
:102D60004203809341030895AF92BF92CF92DF92C6
:102D7000EF92FF920F931F938091F20D8A3070F0C3
:102D800080912D0E90912E0E181619063CF4E090AD
:102D90007C06F0907D06E80EF91E04C0E0907C06EB
:102DA000F0907D06A0902B0EB0902C0EB7016A1902
:102DB0007B09882777FD8095982F0E947CA26093DD
:102DC0002F0E7093300E8093310E9093320E0027A9
:102DD000F7FC0095102FCC24B7FCC094DC2CC80164
:102DE000B701A80197010E94C6A47B018C01C6010E
:102DF000B501A60195010E94C6A4E61AF70A080BC0
:102E0000190BC801B70120E23EE440E050E00E9407
:102E10002EA52093370E3093380E4093390E5093E1
:102E20003A0E1F910F91FF90EF90DF90CF90BF90DF
:102E3000AF90089580916803882329F48091BF069C
:102E4000813009F046C08091190E90911A0EA09120
:102E50001B0EB0911C0E2091700B3091710B4091A4
:102E6000720B5091730B821B930BA40BB50B8093C9
:102E70003C0E90933D0EA0933E0EB0933F0E80917A
:102E80003C0E90913D0EA0913E0EB0913F0E8135CB
:102E900026E4920720E0A20720E0B2072CF0805A37
:102EA0009C48A040B0400CC0803B29EB92072FEF1C
:102EB000A2072FEFB20724F480569347AF4FBF4FBE
:102EC00080933C0E90933D0EA0933E0EB0933F0E28
:102ED0000895E091660BF091670B8091190E909127
:102EE0001A0EA0911B0EB0911C0E228D338D448DB5
:102EF000558DB9CFE091660BF091670B8689978964
:102F0000A08DB18D8D529140A040B04034F18091A0
:102F1000500390915103A0915203B09153038F5FDE
:102F20009F4FAF4FBF4FC9F48091BF06882349F030
:102F30008091700B9091710BA091720BB091730BFB
:102F400004C0828D938DA48DB58D80935003909392
:102F50005103A0935203B093530380915003909177
:102F60005103A0915203B0915303B7FD0AC080935F
:102F7000190E90931A0EA0931B0EB0931C0E0E9474
:102F80001A172091B30E3091B40E4091B50E5091A6
:102F9000B60E8091510E9091520EA091530EB091A9
:102FA000540E82179307A407B50714F080E0089524
:102FB0008FEF9FEFAFEFBFEF8093500390935103DC
:102FC000A0935203B093530381E080936803089564
:102FD0006F927F928F929F92AF92BF92CF92DF9229
:102FE000EF92FF920F931F938091F20D8A3009F0B8
:102FF00087C0E090E10EF090E20E0091E30E109198
:10300000E40EE114F1040105110509F479C06090A2
:10301000C20E7090C30E8090C40E9090C50EC40175
:10302000B3010E947CA25B016C016091730E7091F0
:10303000740E8091750E9091760E6E5170408040A6
:103040009040A80197010E94C6A40E947CA27B0127
:103050008C016091770E7091780E8091790E90912D
:103060007A0E6E517040804090400E947CA29B017D
:10307000AC01C801B7010E94E1A19B01AC01C601EE
:10308000B5010E94FCA00E9449A22091A40E30919B
:10309000A50E4091A60E5091A70E621673068406E7
:1030A0009506BCF466157705880599054CF03B013B
:1030B0004C01261737074807590714F439014A010C
:1030C0006092DD0E7092DE0E8092DF0E9092E00E26
:1030D0002BC062177307840795074CF09B01AC0166
:1030E000661677068806990614F4A40193012093C6
:1030F000DD0E3093DE0E4093DF0E5093E00E14C0D1
:1031000080912A0E813781F08091C20E9091C30E7A
:10311000A091C40EB091C50E8093DD0E9093DE0E8B
:10312000A093DF0EB093E00E8091DD0E9091DE0E45
:10313000A091DF0EB091E00E2091B30E3091B40E4D
:103140004091B50E5091B60E821B930BA40BB50B9C
:103150008093400E9093410EA093420EB093430E85
:103160001F910F91FF90EF90DF90CF90BF90AF90A5
:103170009F908F907F906F9008952091F1063091ED
:10318000F2068091150790911607281B390B2536FA
:1031900031051CF08AE08093890F2C593F4F1CF4B5
:1031A00086EF8093890F8091890F18161CF4815047
:1031B0008093890F8091890F87FF03C08F5F809371
:1031C000890F8091890F813019F08F3F09F080E0DD
:1031D0000895CF93DF93FC01EB014430510540F09B
:1031E00083859485A585B68588839983AA83BB83C7
:1031F00084E090E0DF91CF910895CF93DF93EC01CD
:10320000FB014430510540F080819181A281B3815E
:103210008B879C87AD87BE8784E090E0DF91CF915C
:103220000895FC0163857485858596850E947CA23E
:103230000895FC01DB01452B11F083858C9381E01F
:1032400090E00895DC01FB01452B19F080811B966D
:103250008C9381E090E00895FC016385772767FDFA
:103260007095872F972F0E947CA20895FC01DB01A7
:103270004230510520F0838594858D939C9382E0A4
:1032800090E00895DC01FB014230510530F080816F
:1032900091811C969C938E931B9782E090E00895F9
:1032A000FC0163857485882777FD8095982F0E949F
:1032B0007CA20895FC012385348545855685B90196
:1032C000CA010895CF93DF93FC01EB01443051050F
:1032D00040F083859485A585B68588839983AA83E4
:1032E000BB8384E090E0DF91CF910895CF93DF938B
:1032F000EC01FB014430510540F080819181A281B5
:10330000B3818B879C87AD87BE8784E090E0DF9197
:10331000CF91089500D00F9280E894E0EDB7FEB70A
:103320009283818388E996E0948383830E94AF909F
:103330000F900F900F900F9080E0089500D00F92A3
:1033400080E894E0EDB7FEB79283818380EF98E048
:10335000948383830E94AF900F900F900F900F90F3
:10336000089500D00F9280E894E0EDB7FEB7928305
:1033700081838BE69EE0948383830E94AF900F90BD
:103380000F900F900F9008958DB79EB740970FB68E
:10339000F8949EBF0FBE8DBFEDB7FEB7319680E8A3
:1033A00094E0ADB7BEB712969C938E9311978CE9BB
:1033B00090E19383828380E090E0A0E0B0E084839A
:1033C0009583A683B78380879187A287B3878487F5
:1033D0009587A687B7870E94AF908DB79EB7409616
:1033E0000FB6F8949EBF0FBE8DBF08958DB79EB7E0
:1033F00040970FB6F8949EBF0FBE8DBFEDB7FEB7D6
:10340000319680E894E0ADB7BEB712969C938E9348
:1034100011978FEB90E19383828380E090E0A0E0AE
:10342000B0E084839583A683B78380879187A28742
:10343000B38784879587A687B7870E94AF908DB79B
:103440009EB740960FB6F8949EBF0FBE8DBF0895ED
:1034500020E834E0882349F000D00F92EDB7FEB7A2
:10346000328321838EEE90E108C000D00F92EDB739
:10347000FEB7328321838AEE90E1948383830E9496
:10348000AF9080E894E0EDB7FEB79283818383EE3E
:1034900090E1948383830E94AF900F900F900F90E0
:1034A0000F90089500D00F9280E894E0EDB7FEB73A
:1034B000928381838AE091E1948383830E94AF9019
:1034C0000F900F900F900F9008950F931F938DB74B
:1034D0009EB70A970FB6F8949EBF0FBE8DBFEDB78B
:1034E000FEB7319600E814E0ADB7BEB712961C9354
:1034F0000E9311978AEA91E1938382838091080762
:103500009091090795838483809115079091160700
:1035100097838683809122079091230791878087E4
:103520000E94AF90EDB7FEB73196ADB7BEB7129619
:103530001C930E93119787E991E193838283809185
:103540005107909152079583848380915E079091F3
:103550005F079783868380916B0790916C079187B3
:1035600080870E94AF90EDB7FEB73196ADB7BEB77A
:1035700012961C930E93119784E891E193838283B2
:1035800080919A0790919B07958384838091A707E8
:103590009091A807978386838091B4079091B5078F
:1035A000918780870E94AF90EDB7FEB73196ADB797
:1035B000BEB712961C930E93119781E791E1938306
:1035C00082838091E3079091E407958384838091BF
:1035D000F0079091F107978386838091FD07909182
:1035E000FE07918780870E94AF90EDB7FEB73196B6
:1035F000ADB7BEB712961C930E9311978EE591E16D
:103600009383828380912C0890912D0895838483E5
:103610008091390890913A08978386838091460873
:1036200090914708918780870E94AF90EDB7FEB7D1
:103630003196ADB7BEB712961C930E9311978BE4DB
:1036400091E19383828380917508909176089583A8
:1036500084838091820890918308978386838091E8
:103660008F0890919008918780870E94AF90EDB766
:10367000FEB73196ADB7BEB712961C930E93119755
:1036800088E391E1938382838091BE089091BF0883
:10369000958384838091CB089091CC08978386830F
:1036A0008091D8089091D908918780870E94AF9027
:1036B000EDB7FEB73196ADB7BEB712961C930E9319
:1036C000119785E291E1938382838091070990911C
:1036D0000809958384838091140990911509978333
:1036E00086838091210990912209918780870E9489
:1036F000AF908DB79EB70A960FB6F8949EBF0FBED7
:103700008DBF1F910F910895CF93DF93FC018DB76B
:103710009EB744970FB6F8949EBF0FBE8DBF2DB7CE
:103720003EB72F5F3F4F80E894E0ADB7BEB712962B
:103730009C938E9311978DEB91E1E9019B838A8392
:1037400086899789A08DB18D8C839D83AE83BF833D
:1037500085A196A1A7A1B0A588879987AA87BB87CD
:1037600084A995A9A6A9B7A98C879D87AE87BF878D
:10377000ED5BFF4F80819181AA2797FDA095BA2F1D
:10378000F901808B918BA28BB38B0E94AF908DB788
:103790009EB744960FB6F8949EBF0FBE8DBFDF91C3
:1037A000CF910895EF92FF920F931F93CF93DF93E2
:1037B0000E94B11968EE73E080E090E00E94999F4A
:1037C0003CE5E32E34E0F32E0AE214E0C0E8D4E056
:1037D00064E670E080E090E00E94999F0E94691684
:1037E0008091140E882301F58DB79EB70A970FB606
:1037F000F8949EBF0FBE8DBFEDB7FEB73196ADB743
:10380000BEB71296DC93CE931197F382E282809139
:10381000110E848315828091120E86831782809107
:10382000130E8087118623C0ADB7BEB71A970FB6A7
:10383000F894BEBF0FBEADBFEDB7FEB7319612967E
:10384000DC93CE9311971383028380913D03909173
:103850003E039583848380913F0390914003978337
:1038600086838091410390914203918780870E94D3
:10387000AF908DB79EB70A960FB6F8949EBF0FBE55
:103880008DBF80E894E00E942691181619060CF06E
:103890009FCF80E0CDB7DEB7E6E00C9471A5EF9244
:1038A000FF920F931F93CF93DF930E94B11968EE9D
:1038B00073E080E090E00E94999F4AE4E42E45E0A6
:1038C000F42E0FE315E0C0E8D4E000D00F92EDB77E
:1038D000FEB7D283C183F482E3820E94AF908091CD
:1038E0000B01846080930B010F900F900F900F904D
:1038F00068EB7BE080E090E00E94999FCE010E94FF
:10390000269118161906FCF000D00F92EDB7FEB7FD
:10391000D283C183148303830E94AF9080910B01F3
:103920008B7F80930B010F900F900F900F9068EB9F
:103930007BE080E090E00E94999FCE010E9426915A
:103940001816190614F680E0CDB7DEB7E6E00C9441
:1039500071A5A0E0B0E0EFEAFCE10C9451A573EB97
:10396000A72E74E0B72E6DEAC62E64E0D62E00E0D6
:1039700010E050E8E52E54E0F52E00D000D0EDB771
:10398000FEB73196ADB7BEB71296FC92EE92119784
:10399000B382A282158304830E94AF90C0E0D0E07E
:1039A0008DB79EB706960FB6F8949EBF0FBE8DBF1B
:1039B000CE01800F911F0E94B2A900D000D0EDB7B8
:1039C000FEB73196ADB7BEB71296FC92EE92119744
:1039D000D382C282848315820E94AF9021968DB7D4
:1039E0009EB706960FB6F8949EBF0FBE8DBFC0312E
:1039F000D105F1F6C7010E94F69D005F1F4F90E1CF
:103A00000030190709F0B9CF80E0CDB7DEB7EAE0A2
:103A10000C946DA50E94B11968EE73E080E090E00F
:103A20000E94999F00D00F9280E894E0EDB7FEB716
:103A30009283818389EB94E0948383830E94AF9087
:103A40000F900F900F900F9084EA94E00E942691BF
:103A5000892B49F084EA94E00E943C91682F84EA23
:103A600094E00E949D9180E894E00E9426911816AF
:103A7000190654F780E00895EF92FF920F931F9379
:103A8000CF93DF93E8E0EE2EE1E1FE2EC0E0D0E040
:103A900000E814E000D00F92EDB7FEB71283018367
:103AA000F482E3820E94AF9021960F900F900F90C6
:103AB0000F90C832D10571F7C80160E072E00E9432
:103AC000409ECDB7DEB7E6E00C9471A5CF93DF93AF
:103AD000EC0107C0219780E894E060E072E00E946A
:103AE000409E1C161D06B4F3DF91CF91089500D0BF
:103AF0000F9280E894E0EDB7FEB79283818383E371
:103B000092E1948383830E94AF900F900F900F9067
:103B10000F900E943C1D0E94C4190E94F61982E079
:103B200090E00E94661D08950F931F9300D00F929E
:103B300000E814E0ADB7BEB712961C930E93119730
:103B40008CE792E114969C938E9313970E94AF900A
:103B50000F900F900F900F900E943C1DEDB7FEB795
:103B60003E970FB6F894FEBF0FBEEDBF3196ADB7CE
:103B7000BEB712961C930E93119788E392E193833C
:103B800082838091B205992787FD909595838483E0
:103B90008091BE05992787FD9095978386838091B4
:103BA000E305992787FD9095918780878091CA05C5
:103BB000992787FD9095938782878091D60590916C
:103BC000D705958784870E94AF90EDB7FEB73E96E4
:103BD0000FB6F894FEBF0FBEEDBF82E090E00E94EA
:103BE000661D1F910F9108950F931F9300D00F92A0
:103BF00000E814E0ADB7BEB712961C930E93119770
:103C000086EA92E114969C938E9313970E94AF904C
:103C10000F900F900F900F900E943C1DEDB7FEB7D4
:103C20003A970FB6F894FEBF0FBEEDBF3196ADB711
:103C3000BEB712961C930E93119786E892E1938378
:103C400082838091240590912505A0912605B0914D
:103C5000270584839583A683B7838091330590914C
:103C60003405918780870E94AF90EDB7FEB73A96F2
:103C70000FB6F894FEBF0FBEEDBF82E090E00E9449
:103C8000661D1F910F9108950F931F9300D00F92FF
:103C900000E814E0EDB7FEB7128301838FE193E1F2
:103CA000948383830E94AF900F900F900F900F909A
:103CB0000E943C1D00D00F92EDB7FEB71283018326
:103CC00082E193E1948383830E94AF900F900F90E1
:103CD0000F900F908FE799E00E94841B00D00F9205
:103CE000EDB7FEB71283018384E093E1948383836D
:103CF0000E94AF900F900F900F900F9080ED99E081
:103D00000E94841B00D00F92EDB7FEB7128301838F
:103D100085EF92E1948383830E94AF900F900F9080
:103D20000F900F9082E79AE00E94841B00D00F92C0
:103D3000EDB7FEB7128301838AEE92E19483838309
:103D40000E94AF900F900F900F900F908EE299E02D
:103D50000E94841B00D00F92EDB7FEB7128301833F
:103D600085ED92E1948383830E94AF900F900F9032
:103D70000F900F9081E29AE00E94841B00D00F9276
:103D8000EDB7FEB71283018382EC92E194838383C3
:103D90000E94AF900F900F900F900F9083EC9AE0DD
:103DA0000E94841B00D00F92EDB7FEB712830183EF
:103DB00082EB92E1948383830E94AF900F900F90E7
:103DC0000F900F9084E19BE00E94841B82E090E0C2
:103DD0000E94661D1F910F91089500D00F9280E8F8
:103DE00094E0EDB7FEB79283818386E293E19483FA
:103DF00083830E94AF900F900F900F900F900E94BE
:103E00003C1D0E94651A82E090E00E94661D0895A4
:103E1000CF93DF9300D00F92C0E8D4E0EDB7FEB7A8
:103E2000D283C1838DE993E1948383830E94AF9011
:103E30000F900F900F900F900E943C1D8091D8061C
:103E4000882381F400D00F92EDB7FEB7D283C183EF
:103E500084E893E1948383830E94AF900F900F9046
:103E60000F900F908091D806813091F400D00F927E
:103E700080E894E0EDB7FEB79283818382E793E117
:103E8000948383830E94AF900F900F900F900F90B8
:103E90008091D806823091F400D00F9280E894E0AF
:103EA000EDB7FEB79283818380E693E194838383A9
:103EB0000E94AF900F900F900F900F908091D806B6
:103EC000833091F400D00F9280E894E0EDB7FEB714
:103ED000928381838AE493E1948383830E94AF90E9
:103EE0000F900F900F900F908091D806843091F42E
:103EF00000D00F9280E894E0EDB7FEB79283818303
:103F00008DE293E1948383830E94AF900F900F9092
:103F10000F900F9082E090E00E94661DDF91CF919C
:103F20000895FF920F931F93F62E00D000D0EDB7A7
:103F3000FEB7319600E814E0ADB7BEB712961C93F9
:103F40000E9311972CE131E1338322838483158210
:103F50000E94AF908DB79EB706960FB6F8949EBF9D
:103F60000FBE8DBFEF2DF0E0EE0FFF1FE95EFC4F9F
:103F700060817181C8010E94409E1F910F91FF9046
:103F80000895CF93DF9300D00F9280E894E0EDB7CF
:103F9000FEB79283818383EE91E1948383830E94B1
:103FA000AF900F900F900F900F900E943C1DC0E0BB
:103FB000D0E0FE01E15EF94F8C2F60810E94911FDD
:103FC0002196C630D105A9F782E090E00E94661DD7
:103FD000DF91CF910895FB0184859585A685B785EE
:103FE00085309105A105B10538F48093D8068DEC94
:103FF00096E00E944C7F12C000D00F9280E894E0BF
:10400000EDB7FEB7928381838BE897E09483838337
:104010000E94AF900F900F900F900F900E94081F7A
:1040200080E00895109276058BE695E00E944C7F23
:104030001092270E1092280E1092CE0E08956091C5
:10404000D10E7091D20E8091D30E9091D40E16168F
:1040500017061806190674F424E630E040E050E034
:104060000E94C6A470937D0660937C0681E796E06B
:104070000E944C7F6091D50E7091D60E8091D70E24
:104080009091D80E161617061806190664F424E641
:1040900030E040E050E00E94C6A46093E30588ED64
:1040A00095E00E944C7F08958EE491E09093700615
:1040B00080936F0684E696E00E944C7F08958AE024
:1040C00080931F068BE08093200685E08093210675
:1040D00086E08093220682E08093230610922406D5
:1040E00084E196E00E944C7F089500D00F9280E812
:1040F00094E0EDB7FEB79283818385EA98E09483DC
:1041000083830E94AF900F900F900F900F9080E8E4
:1041100094E00E943C91FFEF8F3F9F07C1F38937E6
:10412000910529F08935910511F08FEF08950E94CE
:10413000128000D00F9280E894E0EDB7FEB7928332
:1041400081838EE698E0948383830E94AF900F90E2
:104150000F900F900F90FFCF1092F80E1092F70E65
:104160001092EB0E1092EA0E1092800B10929E0CA1
:104170001092810B1092820B1092ED0E1092EC0EA9
:104180000E94659F6093E60E7093E70E8093E80EA1
:104190009093E90E08950E94659F20918C0E3091B6
:1041A0008D0E40918E0E50918F0E621B730B840BFF
:1041B000950B2091880E3091890E40918A0E509176
:1041C0008B0E261737074807590710F080E008952F
:1041D0001092880E1092890E10928A0E10928B0EF9
:1041E00081E008950E94659F60938C0E70938D0E00
:1041F00080938E0E90938F0E6091D50E7091D60E97
:104200008091D70E9091D80E28EE33E040E050E038
:104210000E94C6A46093880E7093890E80938A0EC4
:1042200090938B0E08958091CE0E8137C1F0823726
:1042300029F08037B1F40E94F22008958091D50EC4
:104240009091D60EA091D70EB091D80E8093880E83
:104250009093890EA0938A0EB0938B0E08950E94BE
:10426000C7150895EF92FF920F931F93E091660B8D
:10427000F091670B82899389A489B5898093B30EE5
:104280009093B40EA093B50EB093B60E8091FD0E30
:10429000882301F58091FF0E8823E1F40E94659F39
:1042A00024E630E040E050E00E940CA579018A014C
:1042B000E091660BF091670B628973898489958917
:1042C0002AE030E040E050E00E942EA5C801B7018E
:1042D0000E945E141F910F91FF90EF900895EF924E
:1042E000FF920F931F93CF93DF937B018230A1F056
:1042F00000D00F9280E894E0EDB7FEB792838183FF
:1043000086E09AE0948383830E94AF908FEF0F90B2
:104310000F900F900F9081C0FB0102851385C8019B
:1043200062E07AE00E94C6A6892B19F4CFEFDFEF96
:1043300053C0C80164EF79E00E94C6A6C0E0D0E097
:10434000892B11F4C1E0D0E0C80167EE79E00E944A
:10435000C6A6892B09F4C260C80163EE79E00E9409
:10436000C6A6892B09F4C460C80160EE79E00E94FA
:10437000C6A6892B09F4C860C8016BED79E00E94DC
:10438000C6A6892B09F4C061C80166ED79E00E94D8
:10439000C6A6892B09F4C062C80161ED79E00E94CC
:1043A000C6A6892B09F4C064C8016DEC79E00E94AF
:1043B000C6A6892B09F4C068C80169EC79E00E949F
:1043C000C6A6892B09F4D160C80165EC79E00E948A
:1043D000C6A6892B09F4D260F701808191816EEB2A
:1043E00079E00E94C6A6892B39F480916F069091DE
:1043F0007006C82BD92B08C0C095D09580916F0648
:1044000090917006C823D923D0937006C0936F068D
:1044100084E696E00E944C7F80E0CDB7DEB7E6E010
:104420000C9471A5FF920F931F93F82E02E712E1EF
:10443000C80163EA0E94BD8EC80165E90E94BD8E75
:10444000C80163E00E94BD8EC8016F2D0E94BD8E21
:10445000C8016AEB0E94BD8E1F910F91FF900895D5
:10446000EF92FF920F931F93CF93DF93B7E3EB2E5F
:10447000BAE0FB2ECAE0D0E000E814E000D000D0A3
:10448000EDB7FEB73196ADB7BEB712961C930E933B
:104490001197F382E282D583C4830E94AF90EDB777
:1044A000FEB736960FB6F894FEBF0FBEEDBF68EEAE
:1044B00073E080E090E00E94999F2197F9F600D088
:1044C0000F92ADB7BEB712961C930E93119786E26A
:1044D0009AE014969C938E9313970E94AF90C1E03C
:1044E000D0E00F900F900F900F9082E792E1BE0105
:1044F0000E94138E2196B0E1C030DB07B1F782E74E
:1045000092E161E070E00E94078E82E792E163EA47
:104510000E94BD8E82E792E165E90E94BD8E82E72E
:1045200092E160EF0E94BD8E82E792E160E00E941E
:10453000BD8E82E792E16AEB0E94BD8E82E792E136
:104540000E94358F00D00F9280E894E0EDB7FEB75F
:104550009283818388E19AE0948383830E94AF9061
:104560000F900F900F900F90CDB7DEB7E6E00C9450
:1045700071A58F929F92AF92BF92CF92DF92EF92EE
:104580000F931F936C014A015B01A801B9012E2D05
:104590000E949E8188E893E0F60191838083838660
:1045A0009486A586B68680911112909112120F966C
:1045B00090931212809311121F910F91EF90DF9040
:1045C000CF90BF90AF909F908F900895EF92FF9201
:1045D0000F931F937C01162FBA01A901202F0E946F
:1045E0009E8182EB93E0F701918380831387809112
:1045F0001112909112120C96909312128093111234
:104600001F910F91FF90EF900895CF92DF92EF925C
:10461000FF920F937C016B01BA01A901202F0E9428
:104620009E8180EC93E0F70191838083D486C386DA
:1046300080911112909112120D9690931212809304
:1046400011120F91FF90EF90DF90CF9008950F938C
:104650001F938C0124600E949E8189E194E0F801FF
:104660009183808380911112909112120B969093F6
:104670001212809311121F910F910895FC0188E886
:1046800093E091838083CF010E9405810895FC010E
:1046900086E993E091838083CF010E94058108958C
:1046A000FC0184EA93E091838083CF010E9405811D
:1046B0000895FC0182EB93E091838083CF010E94F7
:1046C00005810895FC0180EC93E091838083CF0104
:1046D0000E9405810895FC0188E893E0918380831E
:1046E000CF010E94058108950F931F938C0180577D
:1046F0009F4F0E946223C8018D579F4F0E946223E3
:10470000C8018A589F4F0E946223C80187599F4F52
:104710000E946223C801845A9F4F0E946223C801ED
:10472000815B9F4F0E946223C8018E5B9F4F0E9456
:104730006223C801C5960E94622389E194E0F801D2
:1047400093A782A7C8018A960E9405811F910F91A5
:1047500008950F931F938C01C8960E946223C8018D
:1047600089960E946B23C8014A960E946B23C80158
:104770000B960E946B2389E194E0F801918380837A
:10478000C8010E9405811F910F9108950F931F93F7
:104790008C01C1960E946223C80184960E94622304
:1047A000C80147960E94622389E194E0F801918351
:1047B0008083C8010E9405811F910F910895FC011B
:1047C00088EE93E091838083CF010E940581089554
:1047D000FC0186EF93E091838083CF010E940581E5
:1047E00008950F931F938C0188E893E0F80191835B
:1047F0008083C8010E940581C8010E9469851F91BC
:104800000F9108950F931F938C0186E993E0F801AF
:1048100091838083C8010E940581C8010E94698537
:104820001F910F9108950F931F938C0184EA93E0D9
:10483000F80191838083C8010E940581C8010E940C
:1048400069851F910F9108950F931F938C0182EB3F
:1048500093E0F80191838083C8010E940581C8011B
:104860000E9469851F910F9108950F931F938C01EA
:1048700080EC93E0F80191838083C8010E94058158
:10488000C8010E9469851F910F9108950F931F938E
:104890008C0188E893E0F80191838083C8010E942D
:1048A0000581C8010E9469851F910F9108950F939A
:1048B0001F938C0188EE93E0F80191838083C801F7
:1048C0000E940581C8010E9469851F910F9108957A
:1048D0000F931F938C0186EF93E0F80191838083FF
:1048E000C8010E940581C8010E9469851F910F912E
:1048F00008954630510540F0DC011B96FB0186E02F
:1049000001900D928150E1F786E090E00895FC015E
:104910004630510538F0DB013B9686E001900D9260
:104920008150E1F786E090E008954C30510540F069
:10493000DC011B96FB018CE001900D928150E1F7A8
:104940008CE090E00895FC014C30510538F0DB011B
:104950003B968CE001900D928150E1F78CE090E065
:1049600008954432510540F0DC011B96FB0184E2BE
:1049700001900D928150E1F784E290E00895FC01EE
:104980004432510538F0DB013B9684E201900D92F0
:104990008150E1F784E290E00895A6E0B1E0E3ED14
:1049A000F4E20C9449A5682E292E59016A014801A8
:1049B0005E2C7F2C30907E0340907F0386E18D83B8
:1049C000DE011696FB018FE001900D928150E1F718
:1049D00016E0E12EF12CEC0EFD1EC601B5014FE0F4
:1049E00097010E947B11082F10E0E82FE15FF0E0B3
:1049F000D701AE0FBF1F9C92DE011796EA0FFB1F77
:104A000080828F5E90E0E80EF91EF7017082A80F99
:104A1000B91F5C920D5E1F4F7E010894E11CF11CD2
:104A2000C701632D442D262D0E945510862D922DF1
:104A3000B7010E947E11CA5FDE4FE2E10C9465A5CA
:104A4000A6E0B1E0E6E2F5E20C9453A5D82EC92E1B
:104A500010917E0370917F038EEF8D836E83DE0154
:104A60001796FA0182E301900D928150E1F77E01E1
:104A70000894E11CF11CC701612F472F2D2D03E382
:104A800010E00E9455108D2D9C2DB7010E947E11C3
:104A9000CA5FDE4FE8E00C946FA5A3E3B0E0E3E566
:104AA000F5E20C9459A5DE0112969E012C5C3F4F55
:104AB000FA014F5F5F4FE491ED93A217B307C1F77F
:104AC000FC0182859385AE014E5F5F4F0E942025D9
:104AD000E396E2E00C9475A580918205992787FD05
:104AE0009095A92FB92F2091730E3091740E40919B
:104AF000750E5091760E82179307A407B50714F42C
:104B000080E0089585E59DE061E042ED55E10E9479
:104B10004D2581E0089580912A0E813761F1823719
:104B200028F48823A1F1803749F503C0823731F595
:104B300003C00E94CB2008952091730E3091740E13
:104B40004091750E5091760E8091880E9091890E4D
:104B5000A0918A0EB0918B0E281739074A075B0780
:104B6000BCF41092880E1092890E10928A0E109248
:104B70008B0E81E008950E941316089585E59DE04F
:104B800063E043E556E10E944D2580E008950895D5
:104B900080E00895A0E0B0E0E0EDF5E20C9451A5CE
:104BA000742F052F5901C82EDD24C601880F991FC7
:104BB000DC0143E0AA0FBB1F4A95E1F7A81BB90B24
:104BC000A657B04F15968D919C911697019709970E
:104BD00058F11C9211961C921197F60133E0EE0FDA
:104BE000FF1F3A95E1F7EC19FD09EE0FFF1FE4579F
:104BF000F04F108213961C92139714961C921497E0
:104C000016961C921E92159717961C9217971D9632
:104C10001C921E921C971B961C921E921A97189615
:104C20001C92189719961C9286E091E0C89EA001EC
:104C3000C99E500DD89E500D11244A55504FF60173
:104C400093E0EE0FFF1F9A95E1F7EC19FD09EE0FC7
:104C5000FF1FE457F04F1082C601880F991FFC0117
:104C6000A3E0EE0FFF1FAA95E1F7E81BF90BE6574B
:104C7000F04F0580F681E02DEA30F10508F0C0C163
:104C8000E358FF4FEC010C9480A5653509F0B8C1DD
:104C9000C601880F991FFC0123E0EE0FFF1F2A9524
:104CA000E1F7E81BF90BE657F04F82E090E09683BE
:104CB00085832FEF3FEF86E091E0C89EF001C99E0B
:104CC000F00DD89EF00D1124EA55F04FEC5FFE4F29
:104CD0002193308395C186E091E0C89EF001C99E82
:104CE000F00DD89EF00D1124EA55F04F60838E012F
:104CF000B3E0000F111FBA95E1F70C1B1D0B06570F
:104D0000104FD80117961C92CA010E94C81084E067
:104D100090E0F8011BC086E091E0C89EF001C99EBA
:104D2000F00DD89EF00D1124EA55F04F6183CA01B1
:104D30000E94C810FE01A3E0EE0FFF1FAA95E1F745
:104D4000EC1BFD0BE657F04F83E090E096838583E4
:104D500057C183E890E0C89EF001C99EF00DD89E2F
:104D6000F00D1124EE0FFF1FE855F04F6083CA01CC
:104D70000E94C810FE0133E0EE0FFF1F3A95E1F7E5
:104D8000EC1BFD0BE657F04F85E090E0DFCF86E0AF
:104D900091E0C89EF001C99EF00DD89EF00D11243F
:104DA000EA55F04F6383CA010E94C810FE0123E058
:104DB000EE0FFF1F2A95E1F7EC1BFD0BE657F04FB6
:104DC00086E090E0C3CF86E091E0C89E8001C99E56
:104DD000100DD89E100D11240A55104FD8011496AD
:104DE0006C93CA010E94C810F8018081E601CC0FC3
:104DF000DD1F882359F4FE01B3E0EE0FFF1FBA95C3
:104E0000E1F7EC1BFD0BE657F04F39C0FE01A3E0C4
:104E1000EE0FFF1FAA95E1F7EC1BFD0BE657F04FD5
:104E200087E090E093CF7C01F3E0EE0CFF1CFA9555
:104E3000E1F7E81AF90A8AE89FE0E80EF91ED701BF
:104E400017962C91179786E091E0C89E8001C99E25
:104E5000100DD89E100D11240A55104FF801E20FC5
:104E6000F11D65832F5F17962C93CA010E94C8100D
:104E7000F7019781D8018C91981709F0C1C088E09B
:104E800090E064CF86E091E0C89E9001C99E300D0D
:104E9000D89E300D11242A55304FA9014C5F5E4F2A
:104EA000FA018081E601CC0FDD1F6817B1F1DE0148
:104EB00073E0AA0FBB1F7A95E1F7AC1BBD0BA65799
:104EC000B04F14968C9114978F5F14968C9314970F
:104ED000F60193E0EE0FFF1F9A95E1F7EC19FD093B
:104EE000EE0FFF1FE457F04F108281E090E016961E
:104EF0009C938E931597653509F082C082E090E00F
:104F000016969C938E9315978FEF9FEFDA018C93F3
:104F1000F901EB5FFE4F908373C0FE01B3E0EE0F2B
:104F2000FF1FBA95E1F7EC1BFD0BE657F04F89E048
:104F300090E00CCF86E091E0C89E9001C99E300DB4
:104F4000D89E300D11242A55304FA5E0EA2EA1E05D
:104F5000FA2EE20EF31EF7018081E601CC0FDD1F71
:104F6000D601E3E0AA0FBB1FEA95E1F7681739F114
:104F7000FE0153E0EE0FFF1F5A95E1F7EC1BFD0B0E
:104F8000E657F04F84818F5F8483AC19BD09AA0F67
:104F9000BB1FA457B04F1C9281E090E0968385839D
:104FA000653571F582E090E0968385838FEF9FEF02
:104FB000F901EC5FFE4F8083D7019C9321C0AC19AF
:104FC000BD09AA0FBB1FA457B04F81E08C93FE010F
:104FD00083E0EE0FFF1F8A95E1F7EC1BFD0BE65710
:104FE000F04F81E090E096838583272F302FC90111
:104FF000DC01FA0186E091E001900D920197E1F762
:10500000F601B3E0EE0FFF1FBA95E1F7EC19FD09C9
:10501000EE0FFF1FE457F04F80818130C1F5C601CC
:10502000880F991FDC0163E0AA0FBB1F6A95E1F7A7
:10503000A81BB90BA657B04F86E091E0C89EF001BF
:10504000C99EF00DD89EF00D1124EA55F04F8181D4
:1050500018968C9318971A968D919C911B97892B73
:1050600021F41D961C921E921C97C601880F991F51
:10507000FC0143E0EE0FFF1F4A95E1F7E81BF90B37
:10508000E657F04F82859385019693878287C60104
:10509000880F991FFC0123E0EE0FFF1F2A95E1F70F
:1050A000E81BF90BE657F04F80858F5FD501189606
:1050B0008C931897828593851B969C938E931A9751
:1050C00084811C968C931C971D961C921482F60169
:1050D00093E0EE0FFF1F9A95E1F7EC19FD09EE0F33
:1050E000FF1FE457F04F8081CDB7DEB7EAE00C94A4
:1050F0006DA5AF92BF92CF92DF92EF920F931F9365
:105100006C01590198010E2D0E94618180EC93E0A1
:10511000F60191838083B486A386809111129091C9
:1051200012120D9690931212809311121F910F91EB
:10513000EF90DF90CF90BF90AF900895A0E0B0E0E7
:10514000E4EAF8E20C9452A5EC016A01F82EBD2EB7
:1051500020E00E942723188A1F86C114D10419F465
:1051600000E010E002C005E31DE0CE0147966F2D80
:105170007B2D40E050E02CED35E0EE240E947928B4
:10518000C114D10419F400E010E002C000E31DE0F6
:10519000CE0184966F2D7B2D41E050E02CED35E063
:1051A000EE240E947928C114D10419F400E010E023
:1051B00002C00CE21DE0CE01C1966F2D7B2D42E0B6
:1051C00050E02CED35E0EE240E947928EE9680E048
:1051D00090E0A0E8BFE389939993A993B99381E004
:1051E00089938883229681E090E099838883CDB764
:1051F000DEB7E9E00C946EA5CF92DF92EF920F93A9
:105200001F93CF93DF93EC011D861C8688EE93E0FD
:105210009BA38AA39DA38CA3EAE2CE2ED12CCC0E15
:10522000DD1E6E36710519F44BE259E102C046E20B
:1052300059E1C60120E00E942723CE01C596B601A0
:1052400040E050E020E030E00DE119E1EE240E9462
:105250007928CE018E5B9F4FB60141E050E020E0FF
:1052600030E004E119E10E947928CE01815B9F4F73
:10527000B60142E050E020E030E00CE019E10E948D
:105280007928CE01845A9F4FB60143E050E020E0D8
:1052900030E003E019E10E947928CE0187599F4F41
:1052A000B60144E050E020E030E00AEF18E10E944F
:1052B0007928CE018A589F4FB60145E050E020E0A2
:1052C00030E003EF18E10E947928CE018D579F4FFF
:1052D000B60146E050E020E030E00CEE18E10E941C
:1052E0007928CE0180579F4FB60147E050E020E07B
:1052F00030E005EE18E10E947928DF91CF911F91EF
:105300000F91EF90DF90CF9008956F927F928F92E0
:105310009F92AF92BF92CF92EF92FF920F931F9303
:105320005C013801490197010C2D0E946181F50152
:1053300063867486858696868091111290911212EA
:105340002EEC33E0318320834E969093121280939B
:1053500011121F910F91FF90EF90CF90BF90AF90DF
:105360009F908F907F906F9008952F923F924F92D1
:105370005F926F927F928F929F92AF92BF92CF92E5
:10538000DF92EF92FF920F931F935C014901380166
:105390002701160120E00E942723F40100811181DA
:1053A00022813381C5010B96B50140E050E0E2E473
:1053B000EE2EEDE0FE2ECC240E948529F301008123
:1053C000118122813381C5014A96B50141E050E047
:1053D000B0E4EB2EBDE0FB2E0E948529F201008196
:1053E000118122813381C5018996B50142E050E0E7
:1053F000AEE3EA2EADE0FA2E0E948529F10120816C
:105400003181C501C896B50143E050E009E31DE0D4
:10541000EE240E9479281F910F91FF90EF90DF906A
:10542000CF90BF90AF909F908F907F906F905F9044
:105430004F903F902F900895A2E6B0E0E2E2FAE2AA
:105440000C944BA53C0166E070E040E050E020E0A9
:1054500030E000E00E940523C3010D9661E070E09A
:1054600040E750E02EE13DE00E940523C3014A964B
:105470006FEF70E041E750E022E13DE00E9405233C
:10548000C30187964DEC5CEC6CE47EE328EC30E0E5
:1054900005E01DE0EE240E94B922C301C69640E05B
:1054A00050E060E07FE329EC30E009EF1CE00E946F
:1054B000B922C3018B5B9F4F40E050E060E070E099
:1054C0002AEC30E00CEE1CE00E94B922C3018C5A99
:1054D0009F4F40E050E060E070E02BEC30E00FEDDB
:1054E0001CE00E94B922C3018D599F4F40E050E05B
:1054F00068EC72E420EA30E002ED1CE00E94B92280
:10550000C3018E589F4F68EB7BE041EA50E024ECEA
:105510003CE000E00E940523C30181589F4F40E01A
:1055200050E060E87FE32DE830E00CEB1CE00E94E7
:10553000B922C30182579F4F49E45EE26FEF7FE3D8
:105540002EE830E000EB1CE00E94B922C301835634
:105550009F4F60E04FEF5FEF20E030E000E00E94FF
:10556000E622C30187559F4F60E04DED50E027EAEA
:105570003CE00E94E622C3018B549F4F60E04EED59
:1055800050E02EE93CE00E94E622C3018F539F4F7A
:105590006EE14FED50E024E93CE00E94E622C301B9
:1055A00083539F4F6CE340EE50E026E83CE00E94BE
:1055B000E622C30187529F4F66E048E750E028E7A4
:1055C0003CE00E94E622C3018B519F4F66E149E710
:1055D00050E02AE63CE00E94E622C3018F509F4F34
:1055E00060E04CEB50E022E63CE00E94E622C30182
:1055F00083509F4F6BE44DEB50E02AE53CE00E9466
:10560000E622C301875F9E4F61E04EEB50E02DE440
:105610003CE00E94E622C3018B5E9E4F66EB73E086
:105620004FEB50E020E43CE00E940523C3018E5D77
:105630009E4F6DE240EC50E022E33CE00E94E62207
:10564000C301825D9E4F62E043EC50E024E23CE007
:105650000E94E622C301865C9E4F62E044EC50E06B
:1056600027E13CE00E94E622C3018A5B9E4F60E096
:1056700045EC50E02AE03CE00E94E622C3018E5A4D
:105680009E4F68E041EC50E02FEF3BE00E94E622A5
:105690008301025A1E4FC80162EC70E047EF5BE0E5
:1056A00020E00E949E8186E993E0D8018D939C932F
:1056B0008091111290911212419690931212809340
:1056C0001112C30181599E4F64E971E142EA50E031
:1056D0002BEE3BE000E00E940523C30184589E4F5F
:1056E0006CED75E043EA50E02DED3BE00E940523B0
:1056F000C30187579E4F6CE376EF44EA50E02FECEE
:105700003BE00E940523C3018A569E4F61E041E0C1
:1057100050E025EC3BE00E94E622C3018E559E4FEF
:1057200061E042E050E027EB3BE00E94E622C3014B
:1057300082559E4F60E070E843E050E02BEA3BE08A
:105740000E940523C30185549E4F64EC79E045EA2D
:1057500050E02DE93BE00E940523C30188539E4F92
:1057600060E070E044E050E02FE83BE00E94052359
:10577000C3018B529E4F60E177E246EA50E022E897
:105780003BE00E940523C3018E519E4F60E070E014
:105790004FE850E029E73BE00E94052383010151D7
:1057A0001E4FC80160E970E04BE65BE020E00E941C
:1057B0009E8184EA93E0F801918380838AEF91E0EF
:1057C000680E791ED3011D921D921D921C92139793
:1057D000E6E0FEEF6E0E7F1E809111129091121284
:1057E0000F969093121280931112C30182509E4F14
:1057F00061E041E950E020E63BE000E00E94E62263
:10580000C301865F9D4F60E070E04FEF5FEF20E0E7
:1058100030E00E940523C301895E9D4F60E043E9AB
:1058200050E023E53BE00E94E622C3018D5D9D4FE1
:1058300060EE76E044E950E025E43BE00E94052379
:10584000C301805D9D4F64EB70E040E45BE00E942B
:105850009E28C30187589D4F65EB70E04BE35BE0EA
:105860000E949E28C3018E539D4F66EB70E046E375
:105870005BE00E949E28C301855F9C4F67EB70E050
:1058800041E35BE00E949E28C3018C5A9C4F68EB69
:1058900070E04CE25BE00E949E28C30183569C4F5F
:1058A00069EB70E047E25BE00E949E28C3018A51E9
:1058B0009C4F6AEB70E042E25BE00E949E28C301CD
:1058C000815D9B4F6BEB70E04DE15BE00E949E2899
:1058D00083E393E3A3E3BFE38F87988BA98BBA8B12
:1058E0000F2EF0E08F2EF0E09F2EF0E0AF2EF0E0D4
:1058F000BF2EF02D8B8A9C8AAD8ABE8A8AE097EDF6
:10590000A3EABCE38F8B988FA98FBA8FB4EF4B2E8D
:10591000B1E05B2E5A824982C30188589B4F60EFE9
:1059200070E043E15BE09E01215F3F4F8E010D5E21
:105930001F4FA7E1EA2EF12CEC0EFD1E6E0108941C
:10594000C11CD11C0E94B5298DEC9CECACECBEE3D3
:105950008B8F9C8FAD8FBE8F8F8E98A2A9A2BAA27B
:105960008BA29CA2ADA2BEA25C824B82C3018753D4
:105970009B4F61EF70E04AE05BE09E01255E3F4F88
:105980008E01015E1F4FF3E2EF2EF12CEC0EFD1E97
:10599000E3E0CE2ED12CCC0EDD1E0E94B5298AE983
:1059A00099E9A9E1BFE38FA398A7A9A7BAA78BA6F6
:1059B0009CA6ADA6BEA68FA698AAA9AABAAA5E82E0
:1059C0004D82C301865E9A4F62EF70E040E05BE07B
:1059D0009E01295D3F4F8E01055D1F4FBFE2EB2EFB
:1059E000F12CEC0EFD1EA5E0CA2ED12CCC0EDD1E36
:1059F0000E94B52986E696E6A6E2BFE38BAB9CAB98
:105A0000ADABBEAB8FAA98AEA9AEBAAE8BAE9CAE14
:105A1000ADAEBEAE58864F82C30185599A4F63EF33
:105A200070E044EF5AE09E012D5C3F4F8E01095C0F
:105A30001F4FFBE3EF2EF12CEC0EFD1EE7E0CE2E08
:105A4000D12CCC0EDD1E0E94B5299E01215C3F4F5A
:105A5000D9018D929D92AD92BC921397DE01AD5B00
:105A6000BF4F8D929D92AD92BC921397FE01E95B60
:105A7000FF4F80829182A282B3821A861986C30167
:105A800084549A4F64EF70E04CEE5AE08D017F0130
:105A9000B9E0CB2ED12CCC0EDD1E0E94B5299E0183
:105AA000255B3F4F80E090E0A0E0BFE3F9018083F9
:105AB0009183A283B383DE01A15BBF4F8D929D9240
:105AC000AD92BC921397FE01ED5AFF4F80829182F6
:105AD000A282B38284E190E09C878B87C301835FBD
