:100000000C94E5100C9411110C9411110C94111115
:100010000C9411110C9411110C9411110C941111D8
:100020000C9411110C9411110C9411110C941111C8
:100030000C9411110C9411110C9411110C945292F6
:100040000C9411110C9411110C9411110C941111A8
:100050000C9411110C9411110C9411110C9468E171
:100060000C9411110C94FE140C943E150C94111167
:100070000C9411110C9411110C9411110C94111178
:100080000C9411110C9411110C9411110C94111168
:100090000C9490150C94D0150C9411110C9491DDC6
:1000A0000C9411110C94D4900C9411110C94111106
:1000B0000C9411110C9411110C9411110C94111138
:1000C0000C9411110C9411110C9411110C94111128
:1000D0000C9411110C9411110C9422160C946216AC
:1000E0000C941111D816DD16E216E716EC16F1166F
:1000F000F616FB16001705170A17053605362B36B8
:1001000069364B368736A336D33602375A37FC6307
:10011000FF630364FF63FF6306640B64FF63FF63B5
:10012000FF63136418641D64FF63FF631064936FBF
:10013000936F936F916F916F936F936F916F916FB7
:10014000916F816F916F846F916F916F8E6FA277B6
:10015000C877D477E677EF773382F87733823382C4
:10016000338204780D7816782F78DB80DB80DB8093
:100170003B78DB803178DB8046783E784978407880
:100180004378DB804678467846784678DB80DB80AB
:10019000DB80DB804978DB804B78DD8AB18AA08AFE
:1001A000F58AF58A7C89EF89F58AF58AF58AF58AD8
:1001B00067896789F58AF58A67894B9150915591CE
:1001C0005A915F91649169916E91739178917D914B
:1001D000EFC5EAC5F3C5F7C504C61CC643C653C67A
:1001E00090C78BC794C79DC7C2C7CDC7E5C705C811
:1001F0000CC8A5E2A8E29BE29FE2E1E2ACE2B0E239
:10020000B6E2BAE2BEE2C4E2C8E2CCE2D2E2D6E2B0
:10021000DCE2036EDB363D9A9999993DABAAAA2A96
:100220003E000000803F084AD73B3BCE016E84BCB5
:10023000BFFDC12F3D6C74319ABD56833DDA3D0040
:10024000C77F11BED9E4BB4C3E916BAAAABE000089
:1002500000803F072C7AA5BA6CC590DA3B9365FC09
:100260008BBC53F810FD3C5692834DBD879D3AB62A
:100270003DCBC9BF5BBE73DA0FC93F05A84CCDB2F9
:10028000D44EB93836A9020C50B9918688083CA6DC
:10029000AAAA2ABE000000803F08000000BE9224E7
:1002A00049123EABAAAA2ABECDCCCC4C3E000000DF
:1002B00080BEABAAAAAA3E00000000BF00000080DA
:1002C0003F0000000000084178D3BB4387D1133DB5
:1002D000190E3CC3BD4282AD2B3E68EC8276BED97E
:1002E0008FE1A93E4C80EFFFBE01C4FF7F3F0000BD
:1002F0000000004C6F670064756D70000000000026
:100300000000000000DA5A657261736500000000A9
:1003100000000000000126656E61626C650000004F
:100320000000000000402564697361626C65000094
:100330000000000000402568656C700000000000AF
:100340000000000000B71A706C616E6E6572006785
:1003500063730000000000000000000000DE8273F4
:1003600065747570007265736574000000000000AC
:100370000000000925726164696F00000000000040
:10038000000000D4466D6F6465730000000000003B
:100390000000002C46636F6D7061737300000000F5
:1003A000000000473B6465636C696E6174696F6E41
:1003B000000000323B6261747465727900000000D5
:1003C0000000002E2473686F77000000000000001A
:1003D000000000FC3A6572617365000000000000D7
:1003E000000000D13841504D207472756E6B006C66
:1003F0006F67730000000000000000000081387388
:100400006574757000000000000000000051387431
:1004100065737400000000000000000000393868B7
:10042000656C7000000000000000000000A31A705E
:100430006C616E6E65720000000000000069387427
:100440006573740070776D0000000000000000000C
:1004500000006F44726164696F00000000000000DA
:100460000000905D6661696C736166650000000064
:1004700000002D456261747465727900000000000F
:1004800000001A3D72656C617900000000000000F8
:100490000000141D776179706F696E74730000003D
:1004A00000007D53786265650000000000000000D8
:1004B0000000E21F656564756D70000000000000BB
:1004C000000018216D6F64657377697463680000BC
:1004D000000099426469707377697463686573009A
:1004E0000000EB4D616463000000000000000000AC
:1004F0000000A020677073000000000000000000F2
:100500000000142072617767707300000000000023
:100510000000A31F696D75000000000000000000CE
:100520000000F81D6779726F0000000000000000F5
:100530000000C71E61697273706565640000000089
:1005400000002F3E61697270726573737572650089
:100550000000E240636F6D70617373000000000083
:100560000000B13963757272656E7400000000009E
:1005700000000D5D4E6F7420656E61626C65640AEB
:1005800000563A2025342E34662C20413A2025345A
:100590002E34662C206D41683A2025342E34660AAC
:1005A00000736176696E67206F66667365747300A9
:1005B00048656164696E673A20256C642C2058593F
:1005C0005A3A2025642C2025642C2025642C0958B7
:1005D000595A6F66663A2025362E32662C2025360B
:1005E0002E32662C2025362E32660A00436F6D703F
:1005F0006173733A2000416C743A2025302E3266C4
:100600006D2C205261773A20256C640A00556E6388
:10061000616C696272617465642072656C61746991
:1006200076652061697270726573737572650A0010
:1006300025666D2F730A0061697273706565643A8F
:10064000200061697273706565643A2000616972A7
:1006500073706565645F63683A2025750A002564D8
:10066000092564092564097C09256409256409258F
:10067000640A004779726F207C20416363656C0ACD
:1006800000723A20256409703A2025640920793ADD
:100690002025640A002E004C61743A20256C642CDD
:1006A000204C6F6E20256C642C20416C743A202500
:1006B0006C646D2C2023736174733A2025640A00E6
:1006C000256409004144430A004D69783A656C6528
:1006D000766F6E73200972657620656C65763A25B3
:1006E000642C20726576206368313A25642C207270
:1006F0006576206368323A25640A004D69783A735A
:1007000074616E64617264200972657620726F6C28
:100710006C3A25642C207265762070697463683A9F
:1007200025642C20726576207275646465723A25A2
:10073000640A006469702073776974636865732064
:1007400064697361626C65642C207573696E6720DF
:10075000454550524F4D00506F736974696F6E205C
:1007600025640A00436F6E74726F6C20434820004A
:10077000202530327800253034783A0042656769A8
:100780006E205842656520582D4354552052616EA5
:10079000676520616E642052535349205465737419
:1007A0003A0A004C6F6974657220726164697573EE
:1007B0003A2025640A0A00486974207261646975E8
:1007C000733A2025640A00256420776179706F6987
:1007D0006E74730A00486F6C6420616C7469747580
:1007E0006465206F662025646D0A00486F6C642084
:1007F00063757272656E7420616C7469747564657A
:100800000A0052656C6179206F66660A0052656C59
:100810006179206F6E0A004E6F7420656E61626CA4
:1008200065640A00566F6C74733A20313A25322E93
:1008300032662C20323A25322E32662C20333A256D
:10084000322E32662C20343A25322E32660A004C83
:100850004F5320636175736564206E6F2063686118
:100860006E676520696E2041504D2E0A0054485233
:100870004F54544C45204641494C53414645204134
:1008800043544956415445443A2025642C200043A2
:100890004F4E54524F4C204D4F4445204348414EFB
:1008A0004745443A20005448524F54544C45204345
:1008B00048414E474544202564200A00556E706C1F
:1008C000756720626174746572792C207468726F28
:1008D00074746C6520696E206E65757472616C2C21
:1008E000207475726E206F666620726164696F2E67
:1008F0000A00494E20313A20256409323A20256405
:1009000009333A20256409343A20256409353A2010
:10091000256409363A20256409373A2025640938C8
:100920003A2025640A00494E3A09313A20256409E3
:10093000323A20256409333A20256409343A2025C7
:100940006409353A20256409363A20256409373A86
:1009500020256409383A2025640A00436F6D6D61D3
:100960006E64733A0A20206C6F6773202020202069
:100970002020206C6F6720726561646261636B2F59
:100980007365747570206D6F64650A2020736574DB
:100990007570202020202020207365747570206DD4
:1009A0006F64650A20207465737420202020202045
:1009B000202074657374206D6F64650A0A4D6F762C
:1009C000652074686520736C696465207377697449
:1009D000636820616E6420726573657420746F2093
:1009E000464C592E0A0A000A547970652027592767
:1009F00020616E642068697420456E74657220748D
:100A00006F20657261736520616C6C20776179700D
:100A10006F696E7420616E6420706172616D6574BF
:100A2000657220646174612C20616E79206F746836
:100A30006572206B657920746F2061626F72743A01
:100A400020005261772056616C7565730A000A4F69
:100A50007074696F6E733A20302D34000A4F7074D1
:100A6000696F6E733A5B6F6E2C6F66665D0A006F1E
:100A7000666600436F6D7061737320696E69746997
:100A8000616C69736174696F6E206661696C65641D
:100A900021006F6E000A4D6F766520524320746FFF
:100AA00067676C652073776974636820746F20656D
:100AB00061636820706F736974696F6E20746F2052
:100AC000656469742C206D6F76652061696C657250
:100AD0006F6E20737469636B20746F2073656C652F
:100AE0006374206D6F6465732E000A4D6F76652008
:100AF000616C6C20636F6E74726F6C7320746F2006
:100B0000656163682065787472656D652E2048693B
:100B10007420456E74657220746F20736176653A37
:100B2000200A000A4E6F20726164696F3B2043689F
:100B300065636B20636F6E6E6563746F72732E00F6
:100B40000A0A526164696F2053657475703A0A002D
:100B50000A464143544F525920524553455420634D
:100B60006F6D706C657465202D20706C65617365A8
:100B70002072657365742041504D20746F20636F3F
:100B80006E74696E7565000A54797065202759275F
:100B900020616E642068697420456E7465722074EB
:100BA0006F20706572666F726D20666163746F721C
:100BB000792072657365742C20616E79206F74687A
:100BC0006572206B657920746F2061626F72743A70
:100BD00020000A436F6D6D616E64733A0A202064D1
:100BE000756D70203C6E3E2020202020202020208B
:100BF0002020202064756D70206C6F67203C6E3E55
:100C00000A2020657261736520202020202020208A
:100C10002020202020202020657261736520616CD7
:100C20006C206C6F67730A2020656E61626C6520B2
:100C30003C6E616D653E7C616C6C20202020656E91
:100C400061626C65206C6F6767696E67203C6E61DE
:100C50006D653E206F722065766572797468696E85
:100C6000670A202064697361626C65203C6E616D67
:100C7000653E7C616C6C20202064697361626C65E8
:100C8000206C6F6767696E67203C6E616D653E2002
:100C90006F722065766572797468696E670A0A00FA
:100CA000656E61626C650043555200434D440052CD
:100CB0004157004D4F4445004E54554E0043545546
:100CC0004E00504D00475053004154544954554430
:100CD000455F4D45440041545449545544455F4691
:100CE00041535400616C6C006D697373696E6720C9
:100CF0006C6F6720747970650A000A4C6F67206515
:100D000072617365642E0A000A45726173696E67C9
:100D1000206C6F672E2E2E0A00415454454E5449C4
:100D20004F4E202D2045726173696E67206C6F678E
:100D300020696E202564207365636F6E64732E20B6
:100D400020506F776572206F6666206E6F77207413
:100D50006F2073617665206C6F6721200A004C6FED
:100D600067207265616420636F6D706C6574650ADD
:100D70000044756D70696E67204C6F67206E756DED
:100D80006265722025642C202020207374617274A7
:100D900020706167652025642C202020656E64200A
:100DA000706167652025640A00626164206C6F676A
:100DB000206E756D6265720A00414C543250544386
:100DC000485F00454E524759325448525F005957C8
:100DD000325352565F0041525350443250544348AC
:100DE0005F0050544348325352565F00524C4C32CD
:100DF0005352565F0048444E4732524C4C5F0052AB
:100E000043385F005243375F005243365F0052431E
:100E1000355F005243345F005243335F0052433228
:100E20005F005243315F0041525350445F454E4191
:100E3000424C4500534F4E41525F454E41424C4556
:100E400000494E564552544544464C545F43480071
:100E5000424154545F434150414349545900424137
:100E600054545F4D4F4E49544F52004D41475F45DA
:100E70004E41424C4500474E445F4142535F505201
:100E800045535300474E445F54454D5000414C5428
:100E90005F484F4C445F52544C005452494D5F5090
:100EA000495443485F4344005452494D5F415253B3
:100EB00050445F434D004C4F475F4249544D4153AE
:100EC0004B00454C45564F4E5F4348325F524556A6
:100ED00000454C45564F4E5F4348315F52455600E2
:100EE000454C45564F4E5F52455645525345004579
:100EF0004C45564F4E5F4D4958494E470053574950
:100F00005443485F454E41424C45005452494D5F61
:100F10004155544F004C494D5F50495443485F4D33
:100F2000494E004C494D5F50495443485F4D41582C
:100F3000004C494D5F524F4C4C5F434400464C546B
:100F40004D4F44453600464C544D4F4445350046C0
:100F50004C544D4F44453400464C544D4F4445335A
:100F600000464C544D4F44453200464C544D4F447E
:100F7000453100464C544D4F44455F43480046536D
:100F80005F4743535F454E41424C0046535F4C4FD1
:100F90004E475F4143544E0046535F53484F5254AF
:100FA0005F4143544E005452494D5F5448524F5490
:100FB000544C45005448525F46535F56414C55458A
:100FC000005448525F4641494C53414645005448FD
:100FD000525F534C455752415445005448525F4D5F
:100FE0004158005448525F4D494E004152535044BD
:100FF0005F4642575F4D41580041525350445F464F
:1010000042575F4D494E0057505F4C4F495445522F
:101010005F5241440057505F524144495553005775
:10102000505F494E4445580057505F544F54414C0F
:101030000041525350445F4F46465345540041527D
:101040005350445F524154494F00414C545F4D4905
:1010500058005854524B5F414E474C455F43440043
:101060005854524B5F4741494E5F5343004B4646ED
:101070005F5448523250544348004B46465F5054E8
:10108000434832544852004B46465F524444524D06
:101090004958004B46465F50544348434F4D50001B
:1010A00053595349445F4D5947435300535953498A
:1010B000445F544849534D41560053595349445F86
:1010C00053575F545950450053595349445F535740
:1010D0005F4D52455600524556004D4158005452FE
:1010E000494D004D494E00494D41580044004900CA
:1010F0005000494D555F53454E534F525F43414C4D
:10110000004C6F67206E756D6265722025642C201F
:1011100020202073746172742070616765202564DB
:101120002C202020656E6420706167652025640A8C
:10113000000A2564206C6F677320617661696C61B9
:10114000626C6520666F7220646F776E6C6F61648D
:101150000A000A4E6F206C6F677320617661696CBC
:1011600061626C6520666F7220646F776E6C6F6170
:10117000640A004355520020255300434D4400208B
:1011800025530052415700202553004D4F44450040
:10119000202553004E54554E0020255300435455EE
:1011A0004E0020255300504D00202553004750533A
:1011B000002025530041545449545544455F4D4542
:1011C00044002025530041545449545544455F463A
:1011D00041535400202553006E6F6E65006C6F679D
:1011E0007320656E61626C65643A2000636F6D6D9B
:1011F000616E6420233A2025642069643A256420C6
:101200006F7074696F6E733A25642070313A25648B
:101210002070323A256C642070333A256C6420705B
:10122000343A256C64200A0048697420456E746560
:101230007220746F20657869742E0A0A00546573F1
:1012400074204D6F64650A0A000A0A2052656164C1
:101250007920746F20464C592E003C73746172746F
:1012600075705F67726F756E643E204E4F206169C6
:10127000727370656564003C737461727475705F3D
:1012800067726F756E643E207A65726F2061697255
:1012900073706565642063616C6962726174656412
:1012A000003C737461727475705F67726F756E6401
:1012B0003E2047524F554E44205354415254000A49
:1012C0004D6F76652074686520736C696465207362
:1012D000776974636820616E642072657365742039
:1012E000746F20464C592E0A000A456E7465726967
:1012F0006E6720696E7465726163746976652073C8
:1013000065747570206D6F64652E2E2E0A0A49660D
:10131000207573696E672074686520417264756911
:101320006E6F2053657269616C204D6F6E69746FCA
:10133000722C20656E73757265204C696E65204550
:101340006E64696E672069732073657420746F2002
:1013500043617272696167652052657475726E2EA1
:101360000A54797065202768656C702720746F2097
:101370006C69737420636F6D6D616E64732C2027CC
:10138000657869742720746F206C656176652061CB
:10139000207375626D656E752E0A566973697420C7
:1013A0007468652027736574757027206D656E7588
:1013B00020666F722066697273742D74696D652082
:1013C000636F6E66696775726174696F6E2E0A006D
:1013D000436F6D7061737320696E697469616C69C4
:1013E000736174696F6E206661696C656421007554
:1013F00073696E67202575206279746573206F6646
:10140000206D656D6F72790A006C6F61645F616C4D
:101410006C20746F6F6B20256C7575730A00646F98
:101420006E652E000A0A454550524F4D20666F7278
:101430006D61742076657273696F6E202564206E0D
:101440006F7420636F6D70617469626C6520776979
:1014500074682074686973206669726D776172655B
:1014600020287265717569726573202564290A0ADE
:10147000466F7263696E6720636F6D706C6574652B
:1014800020706172616D6574657220726573657438
:101490002E2E2E000A0A496E69742041726475501E
:1014A000696C6F744D65676120556E737461626C11
:1014B0006520446576656C6F706D656E742054723E
:1014C000756E6B202D2028666F6C6C6F77696E6768
:1014D00020322E322E30290A0A467265652052418A
:1014E0004D3A20256C750A004779726F206F666649
:1014F000736574733A2025342E32662C2025342EE1
:1015000032662C2025342E32660A00416363656CF6
:10151000206F6666736574733A2025342E32662C0C
:101520002025342E32662C2025342E32660A0061A6
:10153000626C65640A0064697300656E00646F6EB6
:10154000650A000A45726173696E6720454550520D
:101550004F4D0A002D000A5361766564205365746F
:1015600074696E67730A0A00506F732025643A200D
:10157000004348383A202564207C202564207C20C4
:1015800025640A004348373A202564207C202564DE
:10159000207C2025640A004348363A202564207CBC
:1015A000202564207C2025640A004348353A202504
:1015B00064207C202564207C2025640A0043483474
:1015C0003A202564207C202564207C2025640A00A4
:1015D0004348333A202564207C202564207C202544
:1015E000640A004348323A202564207C2025642088
:1015F0007C2025640A004348313A202564207C2061
:101600002564207C2025640A00503A2025342E339E
:10161000662C20493A25342E33662C20443A253452
:101620002E33662C20494D41583A256C640A0046F9
:101630006C69676874206D6F6465730A004D61673B
:10164000206F6666736574733A2025342E34662CD9
:101650002025342E34662C2025342E34660A004D85
:1016600061672044656C696E6174696F6E3A20250C
:10167000342E34660A003F3F0048494C00484D4331
:101680003538343300484D43353838334C00436FD8
:101690006D706173733A2000494D550A006D696E93
:1016A0003A2025640A6D61783A2025640A637275D0
:1016B0006973653A2025640A6661696C73616665C1
:1016C0005F656E61626C65643A2025640A666169D3
:1016D0006C736166655F76616C75653A2025640A96
:1016E000005468726F74746C650A00585452414318
:1016F0004B3A2025342E32660A58545241434B202F
:10170000616E676C653A2025640A0043726F7373DB
:10171000747261636B0A006E61762070697463682D
:1017200020616C743A0A00656E6572677279207484
:1017300068726F74746C653A0A006E617620706925
:101740007463682061697270736565643A0A006E3B
:10175000617620726F6C6C3A0A00736572766F2046
:101760007275646465723A0A00736572766F2070F0
:10177000697463683A0A00736572766F20726F6CE1
:101780006C3A0A004761696E730A00526164696FBE
:101790000A004D6F6E69746F72696E6720766F6CA8
:1017A000747320616E642063757272656E74004D8F
:1017B0006F6E69746F72696E6720626174742076EF
:1017C0006F6C7473004D6F6E69746F72696E672011
:1017D000342063656C6C004D6F6E69746F72696E56
:1017E0006720332063656C6C0042617474206D6FF8
:1017F0006E69746F72696E672064697361626C658B
:10180000640042617474204D6F696E746F720A00D7
:101810005365747570204D6F64650A0A494D504FC9
:101820005254414E543A20696620796F75206861A0
:101830007665206E6F742070726576696F75736C53
:101840007920736574207468697320737973746583
:101850006D2075702C20757365207468650A277279
:10186000657365742720636F6D6D616E6420746F9E
:1018700020696E697469616C697A65207468652095
:10188000454550524F4D20746F2073656E736962E9
:101890006C652064656661756C742076616C756535
:1018A000730A616E64207468656E20746865202711
:1018B000726164696F2720636F6D6D616E6420745F
:1018C0006F20636F6E66696775726520666F722040
:1018D000796F757220726164696F2E0A0A00626105
:1018E000726F6D657465722063616C696272617498
:1018F000696F6E20636F6D706C6574652E00616238
:10190000735F707265737375726520256C640A006D
:101910004D5347204653204F464620004D53472005
:101920004653204F4E2000506C616E6E6572204D04
:101930006F64650A0A54686973206D6F6465206975
:1019400073206E6F7420696E74656E6465642066C2
:101950006F72206D616E75616C207573650A0A0087
:101960003C6E617669676174653E205750206572F0
:10197000726F72202D2064697374616E6365203C00
:101980002030004C6F7720426174746572792100B9
:101990004661696C73616665202D2053686F7274AF
:1019A000206576656E74206F6666004661696C73AB
:1019B000616665202D204C6F6E67206576656E74BC
:1019C000206F6E00666C69676874206D6F646520B7
:1019D0003D20004661696C73616665202D20536867
:1019E0006F7274206576656E74206F6E004D53477C
:1019F0003A2072657365745F636F6E74726F6C5FAB
:101A0000737769746368003C70726F636573735FAA
:101A10006D61793E004E657720636D643A203C70BD
:101A2000726F636573735F6D7573743E006F757469
:101A3000206F6620636F6D6D616E6473210042617B
:101A4000642052657175657374202D2063616E6E1C
:101A50006F74206368616E676520746F206E6F6EAF
:101A60002D4E617620636D64005265616368656424
:101A700020686F6D65007665726966795F6D757354
:101A8000743A204C4F49544552206F726269747306
:101A900020636F6D706C6574650076657269667938
:101AA0005F6D7573743A204C4F49544552207469E8
:101AB0006D6520636F6D706C657465003C76657252
:101AC0006966795F6D7573743A204D41565F434D79
:101AD000445F4E41565F574159504F494E543E2046
:101AE0004D69737365642057500076657269667935
:101AF0005F6D61793A20496E76616C6964206F721E
:101B0000206E6F2063757272656E7420436F6E6411
:101B10006974696F6E20636D6400766572696679B9
:101B20005F6D7573743A20496E76616C6964206FDD
:101B300072206E6F2063757272656E74204E6176CE
:101B400020636D640067707320616C743A20256CAB
:101B500064004D5347203C7365745F677569646525
:101B6000645F77703E004D5347203C7365745F6E31
:101B70006578745F77703E2077705F696E64657812
:101B80003A20004D5347203C696E6372656D656E67
:101B9000745F57505F696E6465783E2057502069C6
:101BA0006E64657820697320696E6372656D656E19
:101BB00074656420746F20004E756D626572206FCD
:101BC00066207061636B65747320726561643A208E
:101BD00025640A004572726F722052656164696EF5
:101BE0006720454E445F425954453A2025640A0017
:101BF0004572726F722052656164696E6720506130
:101C0000636B65743A2025640A000A41726475505A
:101C1000696C6F744D65676120556E737461626C99
:101C20006520446576656C6F706D656E74205472C6
:101C3000756E6B202D2028666F6C6C6F77696E67F0
:101C400020322E322E30290A467265652052414DCF
:101C50003A20256C750A005241573A004750533AD2
:101C600020256C642C2025642C2025642C20253410
:101C70002E37662C2025342E37662C2025342E3422
:101C8000662C2025342E34662C2025342E34662CE8
:101C90002025342E34662C2025342E34660A004D3F
:101CA0004F443A004154543A2025642C2025642C9A
:101CB0002025750A0020256420636F6D6D616E64B8
:101CC0007320696E206D656D6F72790A00554E4BF9
:101CD0004E4F574E2053544152545550202D200002
:101CE00047524F554E44205354415254202D20000A
:101CF000414952205354415254202D2000434D4419
:101D00003A00504D3A004E54554E3A2025342E3468
:101D1000662C2025642C2025342E34662C20253476
:101D20002E34662C2025342E34662C2025342E3477
:101D3000662C2025342E34662C0A004354554E3A26
:101D400000435552523A2025642C2025342E346607
:101D50002C2025342E34662C2025640A003C737414
:101D60006172745F6E65775F6C6F673E204C6F6762
:101D7000732066756C6C202D206C6F6767696E67C9
:101D800020646973636F6E74696E75656400666C58
:101D90006967687420706C616E207265636569762E
:101DA000656400616374696F6E207265636569764E
:101DB00065643A2000776179706F696E742072658E
:101DC00063656976652074696D656F757400776108
:101DD00079706F696E742073656E642074696D65C7
:101DE0006F75740045585452413300455854524160
:101DF000320045585452413100504F534954494FD5
:101E00004E005241575F4354524C0052435F434887
:101E1000414E004558545F53544154005241575F5E
:101E200053454E53005352335F005352305F0044CA
:101E3000656D6F20536572766F73210025303375A1
:101E40003A25733A20006E6F7420666F756E6400D9
:101E5000253033753A252D33322E3332733A200034
:101E6000756E6B6E6F776E2074797065006E6F742F
:101E700020666F756E640025733A20006D69737378
:101E8000696E67206E616D65206F722076616C757A
:101E900065003F3F00256400256400256C64002533
:101EA0006600256600657869740068656C7000449A
:101EB000454300434F4D504153535F002450474327
:101EC0004D442C31362C302C302C302C302C302AF8
:101ED00036410D0A0024505542582C34312C312CF7
:101EE000303030332C303030312C33383430302CEB
:101EF000302A32360024505352463130302C302CA8
:101F000033383430302C382C312C302A33430020F5
:101F1000536952462000204D544B312E362000206C
:101F200075626C6F782000204D544B312E342000A8
:101F30006661696C65642C207265747279696E677C
:101F4000004F4B0020002A00496E697420416363F2
:101F5000656C002A00496E6974204779726F006EC3
:101F6000616E00696E660000407A10F35A00A0723C
:101F70004E18090010A5D4E80000E87648170000C4
:101F8000E40B54020000CA9A3B000000E1F5050092
:101F90000080969800000040420F000000A08601DB
:101FA000000000102700000000E8030000000064AB
:101FB00000000000000A0000000000010000000016
:101FC000002C76D888DC674F0823DFC1DFAE59E1EB
:101FD000B1B796E5E3E453C63AE651997696E8E65A
:101FE000C28426EB898C9B62ED407C6FFCEFBC9C2D
:101FF0009F40F2BAA56FA5F490055A2AF75C936B3F
:102000006CF9676DC11BFCE0E40D47FEF520E6B5F9
:1020100000D0ED902E0300943577050080841E08D3
:102020000000204E0A000000C80C333333330F98F1
:102030006E12831141EF8D2114893BE65516CFFEB8
:10204000E6DB18D1844B381BF77C1D901DA4BBE444
:1020500024203284725E228100C9F124ECA1E53D86
:102060002700002100240027002A002D0030003323
:102070000001010000040107010A010000220025FF
:102080000028002B002E0031003400020100000562
:102090000108010B01000020002300260029002C6C
:1020A000002F0032000001000003010601090105B4
:1020B000050505070508080808020202020A0A08C1
:1020C00008040404040101010101010101030303E7
:1020D0000303030303040707070C0C0C0C0C0C0C84
:1020E0000C0202020206060606060606060B0B0B8B
:1020F0000B0B0B0B0B0102102020080810204010C6
:1021000020408002010201080402010102040810BB
:1021100020408080402010080402018004020180D9
:102120004020100804020108040201010204081002
:1021300020408001020408102040800000090A02AB
:10214000080B0C0D0706030401000000000000004E
:10215000000000000000000000000000000000007F
:1021600000000000000000100F0E00000000000042
:10217000000000000000000000000000000000005F
:1021800000494E46494E4954594E414ECDCCCC3D66
:102190000AD7233C17B7D13877CC2B329595E62454
:1021A0001FB14F0A000020410000C84200401C46F9
:1021B00020BCBE4CCA1B0E5AAEC59D743334E1918F
:1021C000C49972CE95DC2C34BD9911241FBECFEF7B
:1021D000D1E2DEBFCDBF00E00CBF16E0A0E0B2E070
:1021E000E8E3FCED01E00BBF02C007900D92AE32B8
:1021F000B107D9F717E1AEE2B6E001C01D92A933ED
:10220000B107E1F711E2C6ECD1E204C02297FE016A
:102210000E94D4E7CC3BD107C9F70E9410DF0C9491
:102220000FEE0C940000283008F027E03327DA0185
:10223000990F311D87FD916000966105710539F494
:1022400032602E5F3D9330E32A95E1F708959F3F7A
:1022500030F080387105610509F03C5F3C5F3D93CB
:10226000913008F08068911DDF93CF931F930F93F7
:10227000FF92EF92192F987F9695E92F9695969554
:10228000E90FFF27EF53F04E99273327EE24FF2461
:10229000A701E70105900894079428F4360FE71E7C
:1022A000F81E491F511D660F771F881F991F06943E
:1022B000A1F70590079428F4E70EF81E491F561F52
:1022C000C11D770F881F991F661F0694A1F70590FF
:1022D000079428F4F80E491F561FC71FD11D880FF9
:1022E000991F661F771F0694A1F70590079420F4A5
:1022F000490F561FC71FD81F990F661F771F881FCA
:102300000694A9F784911095177041F0D695C7955A
:1023100057954795F794E7941A95C1F7E7E6FFE1DB
:1023200068941590159135916591959105907FE28E
:102330007395E118F10A430B560BC90BD009C0F78E
:10234000E10CF11E431F561FC91FD01D7EF47033D0
:1023500011F48A95E6CFE894015030F0080F0AF4A2
:102360000027021708F4202F2395022F7A3328F034
:1023700079E37D932A95E9F710C07D932A9589F634
:10238000069497956795379517951794E118F10A74
:10239000430B560BC90BD00998F023957E9173958A
:1023A0007A3308F070E37C932013B8F77E91706164
:1023B0007D9330F0839571E37D9370E32A95E1F787
:1023C0001124EF90FF900F911F91CF91DF919927EA
:1023D00087FD90950895FA01AA27283051F1203100
:1023E00081F1E8946F936E7F6E5F7F4F8F4F9F4FA9
:1023F000AF4FB1E03ED0B4E03CD0670F781F891FEB
:102400009A1FA11D680F791F8A1F911DA11D6A0FB8
:10241000711D811D911DA11D20D009F468943F916B
:102420002AE0269F11243019305D3193DEF6CF016A
:102430000895462F4770405D4193B3E00FD0C9F730
:10244000F6CF462F4F70405D4A3318F0495D31FD9D
:102450004052419302D0A9F7EACFB4E0A6959795F0
:10246000879577956795BA95C9F7009761057105C6
:1024700008959B01AC010A2E069457954795379510
:102480002795BA95C9F7620F731F841F951FA01D6A
:102490000895EF92FF920F93DF93CF93CDB7DEB7FE
:1024A00060970FB6F894DEBF0FBECDBFA82F0023F4
:1024B00009F461C07E010894E11CF11C88E0F70179
:1024C00011928A95E9F729833A834B835C836D8364
:1024D0007E83AF83988780E2801BE82FFF27E7FD8C
:1024E000F0954D815E816F817885181684F01D8688
:1024F0001E861F86188A882799278E1B9F0B04C06B
:1025000076956795579547958A95D2F728C0202FDD
:10251000332727FD3095DB01CA01022E04C0B69592
:10252000A795979587950A94D2F78D879E87AF8751
:10253000B88B04C0440F551F661F771FEA95D2F76A
:1025400089819A81AB81BC8104C0B695A795979586
:1025500087952A95D2F7482B592B6A2B7B2B4987D5
:102560005A876B877C8729853A854B855C856D8585
:102570007E85AF8598898A2F60960FB6F894DEBF66
:102580000FBECDBFCF91DF910F91FF90EF900895D7
:10259000CF93DF93FC01EB014230510570F063856E
:1025A00074858585968520E030E040E854E40E94FB
:1025B00051E60E9499E47983688382E090E0DF919C
:1025C000CF910895CF93DF93EC01FB014230510589
:1025D00018F420E030E012C06081718180E090E06A
:1025E0000E94C5E420E030E040E85AE30E9451E652
:1025F0006B877C878D879E8722E030E0C901DF9161
:10260000CF910895009719F00197C1F40CC0E091A3
:102610007316F0917416A081B1812D913C91CF0178
:10262000F90119950895E0917516F0917616A0813B
:10263000B1812D913C91CF01F90119950895EF9247
:10264000FF920F931F93CF93DF93EC0108836A836C
:102650004B83822F90E0880F991FFC01A3E0EE0FBF
:10266000FF1FAA95E1F7E81BF90BE051FD4E8185AC
:102670008983822F90E0880F991FDC0163E0AA0F05
:10268000BB1F6A95E1F7A81BB90BA051BD4E822F65
:1026900090E0880F991FFC0143E0EE0FFF1F4A9561
:1026A000E1F7E81BF90BE051FD4E81858F5F19962C
:1026B0008C93DE0135E0E32EF12CE00EF11E6FEF7E
:1026C0007FEFE0E0F0E01EC02D912627822F82955B
:1026D000807F822790E0382F2227AC01440F551FBE
:1026E000440F551F440F551F24273527672F772781
:1026F0006227732724E0959587952A95E1F7682747
:1027000079273196EE15FF05FCF2CC5FDE4F699319
:1027100078839801295F3F4FC901CDB7DEB7E6E066
:102720000C94C3E7FC01DC01AC5FBE4F8C91EB5F06
:10273000FE4F6827262F2295207F262730E0522F34
:102740004427C90163E0880F991F6A95E1F748277C
:102750005927808190E04827592784E035952795AF
:102760008A95E1F7422753274C9350830895F90146
:10277000E40FF11D292F33274427552720839C017F
:10278000552737FD5095452F2183272F382F492F67
:10279000552747FD5A952283638384E008957F92ED
:1027A0008F929F92AF92BF92CF92DF92EF92FF9261
:1027B0000F931F93722E132FD42EC52EB62EA72E35
:1027C000982E892EE00EF11C08E30E944912F701B1
:1027D0002083272D312F4D2D5C2D6B2D7A2D892DAA
:1027E000982D00E30E944912F7012183272D312FF4
:1027F0004D2D5C2D6B2D7A2D892D982D08E20E9490
:102800004912F7012283272D312F4D2D5C2D6B2D81
:102810007A2D892D982D00E20E944912F701238319
:10282000272D312F4D2D5C2D6B2D7A2D892D982D37
:1028300008E10E944912F7012483272D312F4D2DE5
:102840005C2D6B2D7A2D892D982D00E10E94491267
:10285000F7012583272D312F4D2D5C2D6B2D7A2DE2
:10286000892D982D08E00E944912F701268377826E
:1028700088E01F910F91FF90EF90DF90CF90BF9075
:10288000AF909F908F907F9008950E94B713089506
:10289000A0E0B0E0EEE4F4E10C94A5E78C01EB01DC
:1028A00065E50E940213C80168810E940213C801F5
:1028B00069810E940213C8016A810E940213C80143
:1028C0006B810E940213C8016C810E9402136E0189
:1028D000EE24FF2408C0C801F60164810E9402139F
:1028E0000894E11CF11C0894C11CD11C888190E063
:1028F000E816F90680F3CC5FDE4FC80169910E94AB
:102900000213C80168810E940213CDB7DEB7E8E068
:102910000C94C1E7A6E0B1E0E0E9F4E10C94A5E78E
:10292000D82EC92E5091B4047091B50488E28D83DD
:102930006E834F83388729877E010894E11CF11C40
:10294000C701652F472F2D2D04E010E00E941F13B3
:102950008D2D9C2DB7010E944814CA5FDE4FE8E020
:102960000C94C1E7A6E0B1E0E8EBF4E10C94A5E734
:10297000D82EC92E2091B4044091B5048AE28D83EB
:102980007E836F837E010894E11CF11CC701622FD6
:102990002D2D02E010E00E941F138D2D9C2DB701FC
:1029A0000E944814CA5FDE4FE8E00C94C1E7A6E03D
:1029B000B1E0EDEDF4E10C94A5E7D82EC92E3091ED
:1029C000B4045091B5048FE28D836E834F832887C2
:1029D0007E010894E11CF11CC701632F452F2D2DAA
:1029E00003E010E00E941F138D2D9C2DB7010E9463
:1029F0004814CA5FDE4FE8E00C94C1E71F920F92C3
:102A00000FB60F920BB60F9211242F933F934F9353
:102A10008F939F93EF93FF934091C60020913316BD
:102A2000309134162F5F3F4F8091371690913816B2
:102A300028233923809135169091361628173907A7
:102A400079F08091331690913416E0913916F09117
:102A50003A16E80FF91F408330933416209333164B
:102A6000FF91EF919F918F914F913F912F910F90F7
:102A70000BBE0F900FBE0F901F9018951F920F92D4
:102A80000FB60F920BB60F9211242F933F938F9393
:102A90009F93EF93FF932091551630915616809196
:102AA00053169091541628173907E9F0809155165E
:102AB00090915616E0915916F0915A16E80FF91FA9
:102AC00080818093C600809155169091561601968C
:102AD00020915716309158168223932390935616BF
:102AE0008093551610C02091531630915416809142
:102AF0005516909156162817390729F48091C10070
:102B00008F7D8093C100FF91EF919F918F913F91B5
:102B10002F910F900BBE0F900FBE0F901F90189526
:102B20001F920F920FB60F920BB60F9211242F9394
:102B30003F934F938F939F93EF93FF934091CE00DA
:102B400020913B1630913C162F5F3F4F80913F16EE
:102B5000909140162823392380913D1690913E167E
:102B60002817390779F080913B1690913C16E09137
:102B70004116F0914216E80FF91F408330933C163E
:102B800020933B16FF91EF919F918F914F913F9131
:102B90002F910F900BBE0F900FBE0F901F901895A6
:102BA0001F920F920FB60F920BB60F9211242F9314
:102BB0003F938F939F93EF93FF9320915D163091F6
:102BC0005E1680915B1690915C1628173907E9F024
:102BD00080915D1690915E16E0916116F0916216FB
:102BE000E80FF91F80818093CE0080915D1690914F
:102BF0005E16019620915F16309160168223932312
:102C000090935E1680935D1610C020915B163091F4
:102C10005C1680915D1690915E162817390729F48D
:102C20008091C9008F7D8093C900FF91EF919F91A2
:102C30008F913F912F910F900BBE0F900FBE0F9071
:102C40001F9018951F920F920FB60F920BB60F920E
:102C500011242F933F934F938F939F93EF93FF9361
:102C60004091360120914B1630914C162F5F3F4F0B
:102C700080914F16909150162823392380914D163C
:102C800090914E162817390779F080914B16909144
:102C90004C16E0915116F0915216E80FF91F40833F
:102CA00030934C1620934B16FF91EF919F918F918B
:102CB0004F913F912F910F900BBE0F900FBE0F9031
:102CC0001F9018951F920F920FB60F920BB60F928E
:102CD00011242F933F938F939F93EF93FF93209112
:102CE0006D1630916E1680916B1690916C162817A8
:102CF0003907E9F080916D1690916E16E09171168A
:102D0000F0917216E80FF91F80818093360180914F
:102D10006D1690916E16019620916F163091701677
:102D20008223932390936E1680936D1610C020918A
:102D30006B1630916C1680916D1690916E16281757
:102D4000390729F4809131018F7D80933101FF9102
:102D5000EF919F918F913F912F910F900BBE0F900C
:102D60000FBE0F901F9018958091191090911A1016
:102D7000A0911B10B0911C108C569E4EAF4FBF4FB0
:102D80001CF48FEF80939B1180919B11882319F085
:102D9000815080939B110895E82FF0E0EB30F1050E
:102DA00020F4EE58FF4F0C94D2E720E030E036C01C
:102DB00020912A0130912B0131C020912C013091BA
:102DC0002D012CC020918A0030918B0027C02091CA
:102DD0008C0030918D0022C02091AC003091AD006C
:102DE0001DC02091AA003091AB0018C020919C001A
:102DF00030919D0013C020919A0030919B000EC02D
:102E0000209128013091290109C02091880030913A
:102E1000890004C02091980030919900359527953C
:102E2000C9010895FC017183608386E06E327807E2
:102E300039F470937416609373161386128608C063
:102E4000709376166093751681E090E09387828781
:102E5000138212820895EF92FF920F931F93809135
:102E60007B1280933B1210923C12E0907C12F09007
:102E70007D1200917E1210917F12E0923312F09237
:102E80003412009335121093361290E06AE070E02D
:102E90000E944BE7882777FD8095982F20915E123E
:102EA00030915F124091601250916112620F731F56
:102EB000841F951F609397127093981280939912B4
:102EC00090939A12E0926D12F0926E1200936F122C
:102ED0001093701210929B1210929C1210929D12DD
:102EE00010929E121F910F91FF90EF9008952091E4
:102EF0005E1230915F124091601250916112809188
:102F0000331290913412A0913512B09136122817D5
:102F100039074A075B0754F01092331210923412AB
:102F2000109235121092361281E0089580913B1272
:102F300090913C126AE070E00E944BE7882777FD91
:102F40008095982F20919712309198124091991264
:102F500050919A12260F371F481F591F209397121E
:102F6000309398124093991250939A1280E00895EA
:102F700080917B12813021F480910B0184600AC022
:102F8000882321F480910B018B7F04C080910B0179
:102F900094E0892780930B010895AF92BF92CF925E
:102FA000DF92EF92FF920F931F93809195118A30D9
:102FB00070F08091CD119091CE11181619063CF445
:102FC000E090B608F090B708E80EF91E04C0E09053
:102FD000B608F090B708A090CB11B090CC11B70113
:102FE0006A197B09882777FD8095982F0E94C7E48E
:102FF0006093CF117093D0118093D1119093D2111F
:103000000027F7FC0095102FCC24B7FCC094DC2CD3
:10301000C801B701A80197010E9418E77B018C0144
:10302000C601B501A60195010E9418E7E61AF70A44
:10303000080B190BC801B70120E23EE440E050E064
:103040000E9480E72093D7113093D8114093D91173
:103050005093DA111F910F91FF90EF90DF90CF9076
:10306000BF90AF90089580917C04882329F48091CB
:10307000F908813009F046C08091B9119091BA11D8
:10308000A091BB11B091BC1120911D1030911E1068
:1030900040911F1050912010821B930BA40BB50B75
:1030A0008093DB119093DC11A093DD11B093DE11BE
:1030B0008091DB119091DC11A091DD11B091DE11B6
:1030C000813526E4920720E0A20720E0B2072CF029
:1030D000805A9C48A040B0400CC0803B29EB92072E
:1030E0002FEFA2072FEFB20724F480569347AF4F7C
:1030F000BF4F8093DB119093DC11A093DD11B0934F
:10310000DE110895E0911C0EF0911D0E8091B91111
:103110009091BA11A091BB11B091BC11228D338D49
:10312000448D558DB9CFE0911C0EF0911D0E86890E
:103130009789A08DB18D8D529140A040B04034F15F
:103140008091640490916504A0916604B091670435
:103150008F5F9F4FAF4FBF4FC9F48091F90888230D
:1031600049F080911D1090911E10A0911F10B091F8
:10317000201004C0828D938DA48DB58D809364043E
:1031800090936504A0936604B093670480916404EF
:1031900090916504A0916604B0916704B7FD0AC0E0
:1031A0008093B9119093BA11A093BB11B093BC1145
:1031B0000E94331820915E1230915F12409160128C
:1031C000509161128091FC119091FD11A091FE111E
:1031D000B091FF1182179307A407B50714F080E0A0
:1031E00008958FEF9FEFAFEFBFEF8093640490934C
:1031F0006504A0936604B093670481E080937C0427
:1032000008956F927F928F929F92AF92BF92CF92CA
:10321000DF92EF92FF920F931F93809195118A3066
:1032200009F087C0E0909B12F0909C1200919D12D3
:1032300010919E12E114F1040105110509F479C001
:1032400060906D1270906E1280906F12909070125C
:10325000C401B3010E94C7E45B016C0160911E12BE
:1032600070911F1280912012909121126E51704026
:1032700080409040A80197010E9418E70E94C7E48F
:103280007B018C0160912212709123128091241293
:10329000909125126E517040804090400E94C7E48A
:1032A0009B01AC01C801B7010E942CE49B01AC0159
:1032B000C601B5010E9447E30E9494E420914F1299
:1032C0003091501240915112509152126216730671
:1032D00084069506BCF466157705880599054CF0BB
:1032E0003B014C01261737074807590714F43901E9
:1032F0004A0160929712709298128092991290925D
:103300009A122BC062177307840795074CF09B0134
:10331000AC01661677068806990614F4A401930199
:1033200020939712309398124093991250939A12C7
:1033300014C08091CA11813781F080916D129091F3
:103340006E12A0916F12B0917012809397129093A9
:103350009812A0939912B0939A128091971290911B
:103360009812A0919912B0919A1220915E12309108
:103370005F124091601250916112821B930BA40B5B
:10338000B50B8093DF119093E011A093E111B093FE
:10339000E2111F910F91FF90EF90DF90CF90BF90BF
:1033A000AF909F908F907F906F90089520914F09DC
:1033B000309150098091730990917409281B390B41
:1033C000253631051CF08AE08093EF122C593F4FCF
:1033D0001CF486EF8093EF128091EF1218161CF404
:1033E00081508093EF128091EF1287FF03C08F5FAF
:1033F0008093EF128091EF12813019F08F3F09F026
:1034000080E00895CF93DF93FC01EB014430510538
:1034100040F083859485A585B68588839983AA83A2
:10342000BB8384E090E0DF91CF910895CF93DF9349
:10343000EC01FB014430510540F080819181A28173
:10344000B3818B879C87AD87BE8784E090E0DF9156
:10345000CF910895FC0163857485858596850E94CA
:10346000C7E40895FC01DB01452B11F083858C93A3
:1034700081E090E00895DC01FB01452B19F080818B
:103480001B968C9381E090E00895FC01638577277B
:1034900067FD7095872F972F0E94C7E40895FC0160
:1034A000DB014230510520F0838594858D939C93F8
:1034B00082E090E00895DC01FB014230510530F0DC
:1034C000808191811C969C938E931B9782E090E063
:1034D0000895FC0163857485882777FD8095982F72
:1034E0000E94C7E40895FC012385348545855685EF
:1034F000B901CA010895CF93DF93FC01EB01443079
:10350000510540F083859485A585B6858883998388
:10351000AA83BB8384E090E0DF91CF910895CF939D
:10352000DF93EC01FB014430510540F08081918133
:10353000A281B3818B879C87AD87BE8784E090E0B2
:10354000DF91CF91089500D00F928EE296E0EDB713
:10355000FEB7928381838BE599E0948383830E94F5
:10356000A8D10F900F900F900F9080E0089500D099
:103570000F928EE296E0EDB7FEB79283818382EDE3
:103580009BE0948383830E94A8D10F900F900F90AB
:103590000F9080E0089500D00F928EE296E0EDB794
:1035A000FEB79283818388E292E1948383830E94B1
:1035B000A8D10F900F900F900F9008958DB79EB7E0
:1035C00040970FB6F8949EBF0FBE8DBFEDB7FEB704
:1035D00031968EE296E0ADB7BEB712969C938E936D
:1035E000119788EE94E1938382838091FD0F9091EF
:1035F000FE0FA091FF0FB091001084839583A683E6
:10360000B7838091011090910210A0910310B091A6
:10361000041080879187A287B387809105109091CD
:103620000610A0910710B091081084879587A6878F
:10363000B7870E94A8D18DB79EB740960FB6F89471
:103640009EBF0FBE8DBF08958DB79EB740970FB632
:10365000F8949EBF0FBE8DBFEDB7FEB731968EE2D8
:1036600096E0ADB7BEB712969C938E9311978BE000
:1036700095E1938382838091091090910A10A09123
:103680000B10B0910C1084839583A683B78380912F
:103690000D1090910E10A0910F10B0911010808716
:1036A0009187A287B3878091111090911210A091F9
:1036B0001310B091141084879587A687B7870E944E
:1036C000A8D18DB79EB740960FB6F8949EBF0FBE97
:1036D0008DBF08952EE236E0882349F000D00F9286
:1036E000EDB7FEB7328321838AE395E108C000D0AD
:1036F0000F92EDB7FEB73283218386E395E1948381
:1037000083830E94A8D18EE296E0EDB7FEB7928344
:1037100081838FE295E1948383830E94A8D10F90E7
:103720000F900F900F90089500D00F928EE296E0C8
:10373000EDB7FEB79283818386E595E19483838319
:103740000E94A8D10F900F900F900F9008950F93A3
:103750001F938DB79EB70A970FB6F8949EBF0FBE02
:103760008DBFEDB7FEB731960EE216E0ADB7BEB72E
:1037700012961C930E93119786EF95E193838283A3
:10378000809166099091670995838483809173097C
:103790009091740997838683809180099091810923
:1037A000918780870E94A8D1EDB7FEB73196ADB75B
:1037B000BEB712961C930E93119783EE95E19383F7
:1037C00082838091BA099091BB099583848380910B
:1037D000C7099091C809978386838091D4099091F5
:1037E000D509918780870E94A8D1EDB7FEB73196A1
:1037F000ADB7BEB712961C930E93119780ED95E16D
:103800009383828380910E0A90910F0A958384831B
:1038100080911B0A90911C0A978386838091280AC5
:103820009091290A918780870E94A8D1EDB7FEB7B1
:103830003196ADB7BEB712961C930E9311978DEBD0
:1038400095E1938382838091620A9091630A9583C4
:10385000848380916F0A9091700A97838683809108
:103860007C0A90917D0A918780870E94A8D1EDB74C
:10387000FEB73196ADB7BEB712961C930E93119753
:103880008AEA95E1938382838091B60A9091B70A80
:10389000958384838091C30A9091C40A9783868319
:1038A0008091D00A9091D10A918780870E94A8D1F7
:1038B000EDB7FEB73196ADB7BEB712961C930E9317
:1038C000119787E995E19383828380910A0B909108
:1038D0000B0B958384838091170B9091180B978322
:1038E00086838091240B9091250B918780870E947D
:1038F000A8D1EDB7FEB73196ADB7BEB712961C93FF
:103900000E93119784E895E19383828380915E0BF7
:1039100090915F0B9583848380916B0B90916C0BDE
:10392000978386838091780B9091790B918780871C
:103930000E94A8D1EDB7FEB73196ADB7BEB71296CB
:103940001C930E93119781E795E193838283809175
:10395000B20B9091B30B958384838091BF0B9091B0
:10396000C00B978386838091CC0B9091CD0B918770
:1039700080870E94A8D18DB79EB70A960FB6F8949B
:103980009EBF0FBE8DBF1F910F910895CF93DF9300
:10399000FC018DB79EB744970FB6F8949EBF0FBE3B
:1039A0008DBF2DB73EB72F5F3F4F8EE296E0ADB78C
:1039B000BEB712969C938E93119789E096E1E90128
:1039C0009B838A8386899789A08DB18D8C839D8303
:1039D000AE83BF8385A196A1A7A1B0A5888799874B
:1039E000AA87BB8784A995A9A6A9B7A98C879D8713
:1039F000AE87BF87ED5BFF4F80819181AA2797FD3E
:103A0000A095BA2FF901808B918BA28BB38B0E946A
:103A1000A8D18DB79EB744960FB6F8949EBF0FBE3F
:103A20008DBFDF91CF910895EF92FF920F931F9377
:103A3000CF93DF930E94CB1A68EE73E080E090E0B2
:103A40000E94E4E1BDE0EB2EB8E0FB2E02E018E0BE
:103A5000CEE2D6E000D00F92EDB7FEB7D283C1839D
:103A6000F482E3820E94A8D180910B01846080934C
:103A70000B010F900F900F900F9068EB7BE080E0B0
:103A800090E00E94E4E1CE010E941FD218161906B0
:103A9000FCF000D00F92EDB7FEB7D283C183148340
:103AA00003830E94A8D180910B018B7F80930B012F
:103AB0000F900F900F900F9068EB7BE080E090E00C
:103AC0000E94E4E1CE010E941FD21816190614F6D6
:103AD00080E0CDB7DEB7E6E00C94C3E71092B412F5
:103AE0001092B3121092A5121092A41210922D10DF
:103AF0001092D70F10922E1010922F101092A71222
:103B00001092A6121092A9121092A8120E94B0E16F
:103B10006093A0127093A1128093A2129093A312AB
:103B200008950E94B0E120913712309138124091EF
:103B3000391250913A12621B730B840B950B209132
:103B400033123091341240913512509136122617AB
:103B500037074807590710F080E008951092331294
:103B600010923412109235121092361281E008959C
:103B70000E94B0E16093371270933812809339122B
:103B800090933A126091801270918112809182120A
:103B90009091831228EE33E040E050E00E9418E755
:103BA00060933312709334128093351290933612CF
:103BB0000895809179128137C1F0823729F08037DA
:103BC000B1F40E94B81D08958091801290918112E5
:103BD000A0918212B0918312809333129093341289
:103BE000A0933512B093361208950E942B170895B2
:103BF000A4E2B0E0EEEFFDE10C94A5E785ED9FE0D7
:103C000060E070E00E946BCD0E94CB1A68EE73E01A
:103C100080E090E00E94E4E101E8C02E06E0D02EB2
:103C20001EE2E12E16E0F12E8E010F5F1F4F64E1C0
:103C300070E080E090E00E94E4E10E94B0E1209119
:103C4000AA123091AB124091AC125091AD12621B8E
:103C5000730B840B950B643171058105910508F494
:103C600089C00E94B0E12091AA12621B6093B21237
:103C700070E080E090E00E94C5E420E030E04AE798
:103C800054E40E942CE460937D0470937E0480933E
:103C90007F04909380040E94B0E16093AA12709315
:103CA000AB128093AC129093AD1240917D04509171
:103CB0007E0460917F047091800485E190E10E9410
:103CC000A7BE8091F9088823D1F08091B9128F5F47
:103CD0008093B912853099F486E49EE00E942FA16A
:103CE000D801E2E4F0E184E201900D928150E1F725
:103CF00086E49EE0B8010E942BAB1092B9128DB7FA
:103D00009EB70A970FB6F8949EBF0FBE8DBFEDB752
:103D1000FEB73196ADB7BEB71296FC92EE921197F0
:103D2000D382C282809115109091161064E670E0E3
:103D30000E944BE7758364838091191090911A104B
:103D400064E670E00E944BE77783668380911D10E4
:103D500090911E1064E670E00E9437E771876087DB
:103D60000E94A8D18DB79EB70A960FB6F8949EBF51
:103D70000FBE8DBF8EE296E00E941FD21816190664
:103D80000CF055CF80E0A496E8E00C94C1E7EF92E8
:103D9000FF920F931F93CF93DF930E94CB1A8EE174
:103DA0009EE00E94209368EE73E080E090E00E9425
:103DB000E4E100D00F920EE216E0EDB7FEB71283F9
:103DC000018383E796E0948383830E94A8D10F90B8
:103DD0000F900F900F9068EE73E080E090E00E94EB
:103DE000E4E1CEE5D6E0780185ED9FE00E9410C9C0
:103DF0008DB79EB740970FB6F8949EBF0FBE8DBF8C
:103E00000DB71EB70F5F1F4FEDB7FEB7E182F2820D
:103E1000F801D383C2836091E40F7091E50F809124
:103E2000E60F9091E70F0E9494E4F8017583648394
:103E30006091E80F7091E90F8091EA0F9091EB0F7C
:103E40000E9494E4F801778366836091EC0F70918F
:103E5000ED0F8091EE0F9091EF0F0E9494E4F80126
:103E6000718760876091D80F7091D90F8091DA0FB8
:103E70009091DB0F0E9494E4F80173876287609150
:103E8000DC0F7091DD0F8091DE0F9091DF0F0E94AB
:103E900094E4F801758764876091E00F7091E10FF9
:103EA0008091E20F9091E30F0E9494E4F8017787EC
:103EB00066870E94A8D18DB79EB740960FB6F8943A
:103EC0009EBF0FBE8DBF64E670E080E090E00E9470
:103ED000E4E1C7010E941FD2181619060CF084CF26
:103EE00080E0CDB7DEB7E6E00C94C3E7E0911C0EAE
:103EF000F0911D0E85A996A98130910539F00297A0
:103F0000E9F483E261E00E94E2E2089587A1882358
:103F1000C9F08091B51191E089278093B51188236C
:103F200019F083E260E002C083E261E00E94E2E215
:103F3000E0911C0EF0911D0E17A2089583E260E03F
:103F40000E94E2E208950E94CB1A68EE73E080E0DE
:103F500090E00E94E4E182E596E00E941FD2892B66
:103F600089F084E261E00E94E2E282E596E00E944C
:103F70004DD2682F80E496E00E94AED284E260E0E9
:103F80000E94E2E280E496E00E941FD2892B89F031
:103F900083E261E00E94E2E280E496E00E944DD27A
:103FA000682F82E596E00E94AED283E260E00E9434
:103FB000E2E28EE296E00E941FD2181619065CF625
:103FC00080E008950E94CB1A68EE73E080E090E0F4
:103FD0000E94E4E100D00F928EE296E0EDB7FEB7CA
:103FE000928381838CE797E0948383830E94A8D196
:103FF0000F900F900F900F9082E596E00E941FD2D5
:10400000892B49F082E596E00E944DD2682F82E527
:1040100096E00E94AED28EE296E00E941FD2181661
:10402000190654F780E00895A0E0B0E0EAE1F0E27C
:104030000C94A3E70E94CB1A68EE73E080E090E056
:104040000E94E4E127E9A22E26E0B22E95E9C92ECE
:1040500096E0D92E8EE2E82E86E0F82E6DE471E02F
:1040600080E090E00E94E4E10E94761F80911C0EA7
:1040700090911D0E0E9433C8C0911C0ED0911D0E50
:104080008DA1882309F440C08DB79EB742970FB623
:10409000F8949EBF0FBE8DBF0DB71EB70F5F1F4FA9
:1040A000EDB7FEB7F282E182F801B382A2828A857F
:1040B0009B85AC85BD8584839583A683B7838E85D8
:1040C0009F85A889B98980879187A287B3876A89E4
:1040D0007B898C899D8924E630E040E050E00E9495
:1040E00080E7F80124873587468757878CA1808B26
:1040F000118A0E94A8D18DB79EB742960FB6F89448
:104100009EBF0FBE8DBF0EC000D00F92EDB7FEB7A1
:10411000F282E182D482C3820E94A8D10F900F90D4
:104120000F900F908EE296E00E941FD2181619068B
:104130000CF094CF80E0CDB7DEB7EAE00C94BFE797
:10414000CF92DF92FF920F931F93CF93DF930E9442
:10415000CB1A8EE19EE00E94209368EE73E080E02F
:1041600090E00E94E4E100D00F920EE216E0ADB7BD
:10417000BEB712961C930E93119784EC96E014969A
:104180009C938E9313970E94A8D10F900F900F903D
:104190000F9068EE73E080E090E00E94E4E130EC84
:1041A000C32E36E0D32EC0E0D0E0F02E012F20C089
:1041B0008EE19EE06C2F0E94D79200D000D0EDB728
:1041C000FEB73196ADB7BEB71196FC921197129615
:1041D0000C93D382C282958384830E94A8D12196B6
:1041E000EDB7FEB736960FB6F894FEBF0FBEEDBF23
:1041F000C930D105ECF28EE296E00E9441E064E61F
:1042000070E080E090E00E94E4E18EE296E00E949F
:104210001FD2181619061CF0C0E0D0E0E9CF80E0EC
:10422000DF91CF911F910F91FF90DF90CF90089574
:10423000A0E0B0E0EEE1F1E20C94A3E766E7A62E81
:1042400067E0B62E50E7C52E57E0D52E00E010E00F
:104250004EE2E42E46E0F42E00D000D0EDB7FEB7DB
:104260003196ADB7BEB71296FC92EE921197B3821B
:10427000A282158304830E94A8D1C0E0D0E08DB74C
:104280009EB706960FB6F8949EBF0FBE8DBFCE01A7
:10429000800F911F0E9427EC00D000D0EDB7FEB731
:1042A0003196ADB7BEB71296FC92EE921197D382BB
:1042B000C282848315820E94A8D121968DB79EB7B1
:1042C00006960FB6F8949EBF0FBE8DBFC031D105C4
:1042D000F1F6C7010E9441E0005F1F4F90E10030FE
:1042E000190709F0B9CF80E0CDB7DEB7EAE00C944A
:1042F000BFE7EF92FF920F931F93CF93DF9374E585
:10430000E72E75E1F72EC0E0D0E00EE216E000D017
:104310000F92EDB7FEB712830183F482E3820E940D
:10432000A8D121960F900F900F900F90C832D10511
:1043300071F7C80160E072E00E948BE0CDB7DEB794
:10434000E6E00C94C3E7CF93DF93EC0107C021971D
:104350008EE296E060E072E00E948BE01C161D0683
:10436000B4F3DF91CF91089500D00F928EE296E0E2
:10437000EDB7FEB79283818388E996E194838383C6
:104380000E94A8D10F900F900F900F900E9479215A
:104390000E94DE1A0E94241B82E090E00E94A3216A
:1043A00008950F931F9300D00F920EE216E0ADB761
:1043B000BEB712961C930E93119781EE96E1149658
:1043C0009C938E9313970E94A8D10F900F900F90FB
:1043D0000F900E947921EDB7FEB73E970FB6F89483
:1043E000FEBF0FBEEDBF3196ADB7BEB712961C93A0
:1043F0000E9311978DE996E19383828380917907DB
:10440000992787FD909595838483809185079927C7
:1044100087FD9095978386838091B607992787FDBE
:1044200090959187808780919D07992787FD90952A
:10443000938782878091A9079091AA07958784879F
:104440000E94A8D1EDB7FEB73E960FB6F894FEBF16
:104450000FBEEDBF82E090E00E94A3211F910F915B
:1044600008950F931F9300D00F920EE216E0ADB7A0
:10447000BEB712961C930E9311978BE097E114969A
:104480009C938E9313970E94A8D10F900F900F903A
:104490000F900E947921EDB7FEB73A970FB6F894C6
:1044A000FEBF0FBEEDBF3196ADB7BEB712961C93DF
:1044B0000E9311978BEE96E1938382838091DE06B3
:1044C0009091DF06A091E006B091E1068483958388
:1044D000A683B7838091ED069091EE069187808741
:1044E0000E94A8D1EDB7FEB73A960FB6F894FEBF7A
:1044F0000FBEEDBF82E090E00E94A3211F910F91BB
:1045000008950F931F9300D00F920EE216E0EDB7BF
:10451000FEB71283018384E897E1948383830E942A
:10452000A8D10F900F900F900F900E94792100D08A
:104530000F92EDB7FEB71283018387E797E194836B
:1045400083830E94A8D10F900F900F900F9085E366
:104550009CE00E94C61C00D00F92EDB7FEB71283FC
:10456000018389E697E1948383830E94A8D10F9009
:104570000F900F900F9086E89CE00E94C61C00D020
:104580000F92EDB7FEB7128301838AE597E194831A
:1045900083830E94A8D10F900F900F900F9088E214
:1045A0009DE00E94C61C00D00F92EDB7FEB71283AB
:1045B00001838FE497E1948383830E94A8D10F90B5
:1045C0000F900F900F9084EE9BE00E94C61C00D0CD
:1045D0000F92EDB7FEB7128301838AE397E19483CC
:1045E00083830E94A8D10F900F900F900F9087EDBA
:1045F0009CE00E94C61C00D00F92EDB7FEB712835C
:10460000018387E297E1948383830E94A8D10F906E
:104610000F900F900F9089E79DE00E94C61C00D07C
:104620000F92EDB7FEB71283018387E197E1948380
:1046300083830E94A8D10F900F900F900F908AEC67
:104640009DE00E94C61C82E090E00E94A3211F9181
:104650000F91089500D00F928EE296E0EDB7FEB76D
:10466000928381838BE897E1948383830E94A8D10E
:104670000F900F900F900F900E9479210E94A71B1E
:1046800082E090E00E94A3210895CF93DF9300D0B1
:104690000F92CEE2D6E0EDB7FEB7D283C18382E0BF
:1046A00098E1948383830E94A8D10F900F900F907C
:1046B0000F900E94792180911209882381F400D003
:1046C0000F92EDB7FEB7D283C18389EE97E1948351
:1046D00083830E94A8D10F900F900F900F9080912C
:1046E0001209813091F400D00F928EE296E0EDB77E
:1046F000FEB79283818387ED97E1948383830E9441
:10470000A8D10F900F900F900F90809112098230D6
:1047100091F400D00F928EE296E0EDB7FEB792834F
:10472000818385EC97E1948383830E94A8D10F90C5
:104730000F900F900F9080911209833091F400D068
:104740000F928EE296E0EDB7FEB7928381838FEAF7
:1047500097E1948383830E94A8D10F900F900F90CC
:104760000F9080911209843091F400D00F928EE264
:1047700096E0EDB7FEB79283818382E997E1948357
:1047800083830E94A8D10F900F900F900F9082E02A
:1047900090E00E94A321DF91CF910895FF920F93A3
:1047A0001F93F62E00D000D0EDB7FEB731960EE283
:1047B00016E0ADB7BEB712961C930E93119728E67C
:1047C00035E133832283848315820E94A8D18DB77B
:1047D0009EB706960FB6F8949EBF0FBE8DBFEF2D05
:1047E000F0E0EE0FFF1FEF5CFB4F60817181C801AD
:1047F0000E948BE01F910F91FF9008951F93CF931C
:10480000DF9300D00F928EE296E0EDB7FEB7928371
:1048100081838FE296E1948383830E94A8D10F90D5
:104820000F900F900F900E947921C0E0D0E010E02F
:10483000E0912D04F0912E04EC0FFD1F812F638574
:104840000E94CE232C961F5F163091F782E090E0F5
:104850000E94A321DF91CF911F910895FB018485D0
:104860009585A685B78585309105A105B10538F4F4
:104870008093120987E099E00E94129512C000D03F
:104880000F928EE296E0EDB7FEB7928381838EE4BD
:104890009AE0948383830E94A8D10F900F900F9089
:1048A0000F900E94452380E0089510923D0782E317
:1048B00097E00E9412951092C7111092C8111092A1
:1048C00079120895EF92FF920F931F93CF93DF9386
:1048D0008EE19EE067E00E94D792AA2797FDA095FF
:1048E000BA2FBC01CD010E94C7E46093EF11709311
:1048F000F0118093F1119093F211C0E0D0E064E1E7
:1049000070E080E090E00E94E4E16091EF1170912E
:10491000F0118091F1119091F21126E636E646E60B
:104920005FE30E9451E67B018C018EE19EE067E02F
:104930000E94D792AA2797FDA095BA2FBC01CD015E
:104940000E94C7E42DEC3CEC4CEC5DE30E9451E688
:104950009B01AC01C801B7010E9448E36093EF11CD
:104960007093F0118093F1119093F2112196CA3057
:10497000D10529F60E9494E47093190760931807F3
:104980008DE097E00E941295CDB7DEB7E6E00C947B
:10499000C3E760917C1270917D1280917E1290919C
:1049A0007F12161617061806190674F424E630E06E
:1049B00040E050E00E9418E77093B7086093B60893
:1049C0008BEA98E00E94129560918012709181129A
:1049D00080918212909183121616170618061906F6
:1049E00064F424E630E040E050E00E9418E7609371
:1049F000B6078BEA97E00E94129508958EE491E045
:104A00009093AA088093A9088EE998E00E941295D5
:104A1000089500D00F928EE296E0EDB7FEB7928334
:104A2000818387E89BE0948383830E94A8D10F90C1
:104A30000F900F900F908EE296E00E944DD2FFEF04
:104A40008F3F9F07C1F38937910529F0893591057B
:104A500011F08FEF08950E94D89500D00F928EE24A
:104A600096E0EDB7FEB79283818380E59BE0948367
:104A700083830E94A8D10F900F900F900F90FFCFCB
:104A8000EF92FF920F931F93CF93DF937B018230BE
:104A9000A1F000D00F928EE296E0EDB7FEB79283C0
:104AA000818388EE9CE0948383830E94A8D18FEF5A
:104AB0000F900F900F900F9081C0FB01028513851E
:104AC000C80164EE7CE00E9434E9892B19F4CFEF31
:104AD000DFE753C0C80166ED7CE00E9434E9C0E026
:104AE000D0E0892B11F4C1E0D0E0C80169EC7CE092
:104AF0000E9434E9892B09F4C260C80165EC7CE0AE
:104B00000E9434E9892B09F4C460C80162EC7CE09E
:104B10000E9434E9892B09F4C860C8016DEB7CE080
:104B20000E9434E9892B09F4C061C80168EB7CE07C
:104B30000E9434E9892B09F4C062C80163EB7CE070
:104B40000E9434E9892B09F4C064C8016FEA7CE053
:104B50000E9434E9892B09F4C068C8016BEA7CE043
:104B60000E9434E9892B09F4D160C80167EA7CE02E
:104B70000E9434E9892B09F4D260F7018081918188
:104B800060EA7CE00E9434E9892B39F48091A9081D
:104B90009091AA08C82BD92B08C0C095D0958091B8
:104BA000A9089091AA08C823D923D093AA08C09332
:104BB000A9088EE998E00E94129580E0CDB7DEB793
:104BC000E6E00C94C3E7FF920F931F93F82E02E2E6
:104BD00016E1C80163EA0E94B6CFC80165E90E94E8
:104BE000B6CFC80163E00E94B6CFC8016F2D0E9406
:104BF000B6CFC8016AEB0E94B6CF1F910F91FF900C
:104C00000895EF92FF920F931F93CF93DF93B9E133
:104C1000EB2EBDE0FB2ECAE0D0E00EE216E000D0A5
:104C200000D0EDB7FEB73196ADB7BEB712961C9364
:104C30000E931197F382E282D583C4830E94A8D198
:104C4000EDB7FEB736960FB6F894FEBF0FBEEDBFB8
:104C500068EE73E080E090E00E94E4E12197F9F6CD
:104C600000D00F92ADB7BEB712961C930E9311975A
:104C700088E09DE014969C938E9313970E94A8D190
:104C8000C1E0D0E00F900F900F900F9082E296E17C
:104C9000BE010E940CCF2196B0E1C030DB07B1F716
:104CA00082E296E161E070E00E9400CF82E296E14C
:104CB00063EA0E94B6CF82E296E165E90E94B6CF30
:104CC00082E296E160EF0E94B6CF82E296E160E078
:104CD0000E94B6CF82E296E16AEB0E94B6CF82E2F2
:104CE00096E10E942ED000D00F928EE296E0EDB7B2
:104CF000FEB7928381838AEF9CE0948383830E9432
:104D0000A8D10F900F900F900F9080E0CDB7DEB735
:104D1000E6E00C94C3E70F931F9300D00F920EE2CE
:104D200016E0EDB7FEB7128301838FE99CE194830F
:104D300083830E94A8D10F900F900F900F9082E272
:104D400096E10E94A6D0E82FF0E0EE0FFF1FEF5C87
:104D5000FB4F60817181C8010E948BE01F910F9110
:104D6000089582E296E10E94A6D0882369F400D0DB
:104D70000F928EE296E0ADB7BEB712969C938E93DB
:104D8000119780EF9CE119C02EE236E0813059F492
:104D900000D00F92EDB7FEB73283218380EE9CE105
:104DA000948383830EC000D00F92ADB7BEB7129626
:104DB0003C932E9311978DEC9CE114969C938E93CB
:104DC00013970E94A8D10F900F900F900F9082E23E
:104DD00096E10E94A6D000D000D0EDB7FEB7319684
:104DE0002EE236E0ADB7BEB712963C932E931197E4
:104DF00025EB3CE133832283848315820E94A8D172
:104E0000EDB7FEB736960FB6F894FEBF0FBEEDBFF6
:104E10000895CF92DF92EF92FF920F931F9302E2D9
:104E200016E1C8010E9417D16C01C8010E9417D178
:104E30007C01C8010E9417D12DB73EB72A503040DF
:104E40000FB6F8943EBF0FBE2DBFEDB7FEB731963B
:104E50002EE236E0ADB7BEB712963C932E93119773
:104E600024EA3CE133832283D582C482F782E6823E
:104E7000918780870E94A8D12DB73EB7265F3F4F0C
:104E80000FB6F8943EBF0FBE2DBF1F910F91FF903C
:104E9000EF90DF90CF900895A6E0B0E0E2E5F7E272
:104EA0000C949BE702E216E1C8010E9417D16C0145
:104EB000C8010E9417D11C01C8010E9417D14C01E2
:104EC000C8010E9417D12C01C8010E9417D19E83EE
:104ED0008D83C8010E9417D19C838B83C8010E94D7
:104EE00017D19A8389832DB73EB72E5130400FB624
:104EF000F8943EBF0FBE2DBF0DB71EB70F5F1F4FFB
:104F00008EE296E0EDB7FEB79283818386E09DE165
:104F1000F80193838283EE24FF24C701B6010E9427
:104F2000C5E420E030E048EC52E40E942CE4F801B3
:104F3000648375838683978331862086AA24BB2465
:104F4000C501B4010E94C5E420E030E048EC52E421
:104F50000E942CE4F8016287738784879587662412
:104F60007724C301B2010E94C5E420E030E048ECA0
:104F700052E40E942CE4F80166877787808B918B3E
:104F80002D813E81B901882777FD8095982F0E9459
:104F9000C7E420E030E048EC52E40E942CE4F80141
:104FA000628B738B848B958B2B813C81B901882715
:104FB00077FD8095982F0E94C7E420E030E048EC10
:104FC00052E40E942CE4F801668B778B808F918FDE
:104FD00029813A81B901882777FD8095982F0E9411
:104FE000C7E420E030E04AE754E40E942CE4F801F2
:104FF000628F738F848F958F0E94A8D12DB73EB793
:10500000225E3F4F0FB6F8943EBF0FBE2DBF2696CF
:10501000E2E10C94B7E74F925F926F927F928F928A
:105020009F92AF92BF92CF92DF92EF92FF920F9337
:105030001F9392E2C92E96E1D92EC6010E9417D184
:105040003C01C6010E9417D17C01C6010E9417D104
:105050004C01C6010E9417D12C018DB79EB7409715
:105060000FB6F8949EBF0FBE8DBFCDB6DEB60894C6
:10507000C11CD11C8EE296E0EDB7FEB7928381830E
:1050800081E49DE1F6019383828375826482002727
:10509000F7FC0095102FC801B7010E94C7E420E07B
:1050A00030E048EC52E40E942CE4F60166837783FA
:1050B00080879187AA2497FCA094BA2CC501B401DB
:1050C0000E94C7E420E030E048EC52E40E942CE467
:1050D000F6016287738784879587578646860E9484
:1050E000A8D18DB79EB740960FB6F8949EBF0FBE5D
:1050F0008DBF1F910F91FF90EF90DF90CF90BF90E9
:10510000AF909F908F907F906F905F904F90089599
:105110001F9382E296E161E070E00E942DD110E0E1
:1051200082E296E10E94A6D0113051F0113018F0C1
:10513000123099F408C010E0833A79F411E00DC000
:10514000853951F407C0803F39F482E296E10E942C
:10515000A6D00AC012E001C010E082E296E10E94EF
:105160006BCE0197E9F280E01F9108958F929F9294
:10517000AF92BF92CF92DF92EF920F931F936C0189
:105180004A015B01A801B9012E2D0E9464978EEBA4
:1051900094E0F6019183808383869486A586B68603
:1051A0008091C0159091C1150F969093C115809371
:1051B000C0151F910F91EF90DF90CF90BF90AF90EF
:1051C0009F908F900895CF92DF92EF92FF920F936E
:1051D0007C016B01BA01A901202F0E9464978AED1E
:1051E00094E0F70191838083D486C3868091C015B3
:1051F0009091C1150D969093C1158093C0150F9194
:10520000FF90EF90DF90CF900895EF92FF920F9371
:105210001F937C01162FBA01A901202F0E946497C9
:1052200088EE94E0F7019183808313878091C01505
:105230009091C1150C969093C1158093C0151F9144
:105240000F91FF90EF9008950F931F938C012460AE
:105250000E9464978BE495E0F801918380838091AC
:10526000C0159091C1150B969093C1158093C015F0
:105270001F910F910895FC018EEB94E09183808340
:10528000CF010E94CB960895FC018CEC94E09183B1
:105290008083CF010E94CB960895FC018AED94E0B3
:1052A00091838083CF010E94CB960895FC0188EE04
:1052B00094E091838083CF010E94CB960895FC01F6
:1052C0008EEB94E091838083CF010E94CB9608956A
:1052D000FC0184E095E091838083CF010E94CB960E
:1052E00008950F931F938C0180579F4F0E944D2963
:1052F000C8018D579F4F0E944D29C8018A589F4F62
:105300000E944D29C80187599F4F0E944D29C8010D
:10531000845A9F4F0E944D29C801815B9F4F0E9474
:105320004D29C8018E5B9F4F0E944D29C801C5962B
:105330000E944D298BE495E0F80193A782A7C8014C
:105340008A960E94CB961F910F9108950F931F93F9
:105350008C01C8960E944D29C80189960E945F2938
:10536000C8014A960E945F29C8010B960E945F29D6
:105370008BE495E0F80191838083C8010E94CB966D
:105380001F910F9108950F931F938C018D5B9F4F79
:105390000E945629C801C1960E944D29C8018496D1
:1053A0000E944D29C80147960E944D298BE495E043
:1053B000F80191838083C8010E94CB961F910F91C1
:1053C0000895FC0182E195E091838083CF010E94E2
:1053D000CB960895FC0180E295E091838083CF0114
:1053E0000E94CB9608950F931F938C018EEB94E04F
:1053F000F80191838083C8010E94CB96C8010E9466
:105400002F9B1F910F9108950F931F938C018CEC8C
:1054100094E0F80191838083C8010E94CB96C80173
:105420000E942F9B1F910F9108950F931F938C0142
:105430008AED94E0F80191838083C8010E94CB96A5
:10544000C8010E942F9B1F910F9108950F931F93E6
:105450008C0188EE94E0F80191838083C8010E945A
:10546000CB96C8010E942F9B1F910F9108950F9317
:105470001F938C018EEB94E0F80191838083C80127
:105480000E94CB96C8010E942F9B1F910F910895F7
:105490000F931F938C0184E095E0F8019183808342
:1054A000C8010E94CB96C8010E942F9B1F910F91AB
:1054B00008950F931F938C0182E195E0F801918389
:1054C0008083C8010E94CB96C8010E942F9B1F9128
:1054D0000F9108950F931F938C0180E295E0F801DE
:1054E00091838083C8010E94CB96C8010E942F9BA4
:1054F0001F910F910895AF92BF92CF92DF92EF92DA
:105500000F931F936C01590198010E2D0E9427974C
:105510008AED94E0F60191838083B486A38680911E
:10552000C0159091C1150D969093C1158093C0152B
:105530001F910F91EF90DF90CF90BF90AF900895A3
:10554000CF92DF92EF920F931F93CF93DF93EC01F3
:105550001D861C8688EE93E09BA38AA39DA38CA343
:105560002AE2C22ED12CCC0EDD1E6E36710519F446
:105570004AE25EE102C045E25EE1C60120E00E942F
:105580002429CE01C596B60140E050E020E030E08D
:105590000CE11EE1EE240E947B2ACE018E5B9F4F20
:1055A000B60141E050E020E030E003E11EE10E945E
:1055B0007B2ACE01815B9F4FB60142E050E020E0A4
:1055C00030E00BE01EE10E947B2ACE01845A9F4FFF
:1055D000B60143E050E020E030E002E01EE10E942E
:1055E0007B2ACE0187599F4FB60144E050E020E06E
:1055F00030E009EF1DE10E947B2ACE018A589F4FBF
:10560000B60145E050E020E030E002EF1DE10E94ED
:105610007B2ACE018D579F4FB60146E050E020E037
:1056200030E00BEE1DE10E947B2ACE0180579F4F98
:10563000B60147E050E020E030E004EE1DE10E94BA
:105640007B2ADF91CF911F910F91EF90DF90CF9048
:105650000895A0E0B0E0EFE2FBE20C94A3E7EC01D8
:105660006A01B82EAD2E20E00E942429188A1F86D8
:10567000C114D10419F400E010E002C003EE10E1FF
:10568000CE0147966B2D7A2D40E050E02CED35E0B1
:10569000EE240E947B2AC114D10419F400E010E02A
:1056A00002C00EED10E1CE0184966B2D7A2D41E003
:1056B00050E02CED35E0EE240E947B2AC114D10489
:1056C00019F400E010E002C00AED10E1CE01C1962D
:1056D0006B2D7A2D42E050E02CED35E0EE240E9457
:1056E0007B2AEE9680E090E0A0E8BFE3899399934F
:1056F000A993B99381E08883C254D040C114D104E6
:1057000019F420E030E002C026ED30E143E4E42E5D
:10571000F12CEC0EFD1EC7016B2D7A2D43E050E0FD
:1057200000E00E94279788EE94E0F7019183808340
:10573000C25BDF4F81E088838091C0159091C115D5
:105740000C969093C1158093C015229681E090E04D
:1057500099838883CDB7DEB7EAE00C94BFE76F92F8
:105760007F928F929F92AF92BF92CF92EF92FF92D1
:105770000F931F935C013801490197010C2D0E9482
:105780002797F50163867486858696868091C01575
:105790009091C11526EF34E0318320834E9690938B
:1057A000C1158093C0151F910F91FF90EF90CF907E
:1057B000BF90AF909F908F907F906F9008952F92A1
:1057C0003F924F925F926F927F928F929F92AF9291
:1057D000BF92CF92DF92EF92FF920F931F935C01E3
:1057E000490138012701160120E00E942429F40113
:1057F0000081118122813381C5010B96B50140E002
:1058000050E0A0EFEA2EA0E1FA2ECC240E94AF2BAC
:10581000F3010081118122813381C5014A96B501CE
:1058200041E050E0FEEEEF2EF0E1FF2E0E94AF2BA4
:10583000F2010081118122813381C5018996B50170
:1058400042E050E0ECEEEE2EE0E1FE2E0E94AF2BA7
:10585000F10120813181C501C896B50143E050E0D6
:1058600007EE10E1EE240E947B2A1F910F91FF901A
:10587000EF90DF90CF90BF90AF909F908F907F90F0
:105880006F905F904F903F902F900895A2E6B0E008
:10589000ECE4FCE20C949DE75C0169E070E040E020
:1058A00050E028EC30E100E00E94E328C5010D96AD
:1058B00060E041E050E02AEB30E10E940529C5019B
:1058C000499661E070E040E750E02CEA30E10E9448
:1058D000E328C50186966FEF70E041E750E020EACB
:1058E00030E10E94E328C501C3964DEC5CEC6CE40A
:1058F0007EE328EC30E003E910E1EE240E94B628B4
:10590000C5018E5B9F4F40E050E060E07FE329ECF3
:1059100030E007E810E10E94B628C5018F5A9F4F7A
:1059200040E050E060E070E02AEC30E00AE710E18F
:105930000E94B628C501805A9F4F40E050E060E0C9
:1059400070E02BEC30E00DE610E10E94B628C501B6
:1059500081599F4F40E050E068EC72E420EA30E06B
:1059600000E610E10E94B628C50182589F4F68EBFF
:105970007BE041EA50E022E530E100E00E94E328CC
:10598000C50185579F4F40E050E060E87FE32DE878
:1059900030E00AE410E10E94B628C50186569F4F08
:1059A00049E45EE26FEF7FE32EE830E00EE310E1C2
:1059B0000E94B628C50187559F4F60E070E045E919
:1059C00050E021E330E100E00E94E328C5018A5461
:1059D0009F4F60E04FEF5FEF20E030E00E9405292D
:1059E000C5018E539F4F60E04DED50E028E230E15D
:1059F0000E940529C50182539F4F60E04EED50E0A3
:105A00002FE130E10E940529C50186529F4F6EE1CA
:105A10004FED50E025E130E10E940529C5018A5192
:105A20009F4F6CE340EE50E027E030E10E940529F3
:105A3000C5018E509F4F66E048E750E029EF3FE0F8
:105A40000E940529C50182509F4F66E149E750E059
:105A50002BEE3FE00E940529C501865F9E4F60E066
:105A60004CEB50E023EE3FE00E940529C5018A5E21
:105A70009E4F6BE44DEB50E02BED3FE00E9405297B
:105A8000C5018E5D9E4F60E044EC50E02EEC3FE09F
:105A90000E940529C501825D9E4F61E04EEB50E0FA
:105AA00021EC3FE00E940529C501865C9E4F66EB14
:105AB00073E04FEB50E024EB3FE00E94E328C50188
:105AC000895B9E4F6DE240EC50E026EA3FE00E9489
:105AD0000529C5018D5A9E4F60E041EC50E028E950
