:100000000C941A100C9446100C9446100C94461044
:100010000C9446100C9446100C9446100C94461008
:100020000C9446100C9446100C9446100C944610F8
:100030000C9446100C9446100C9446100C942A9084
:100040000C9446100C9446100C9446100C944610D8
:100050000C9446100C9446100C9446100C94A3DBA0
:100060000C9446100C9433140C9473140C94461096
:100070000C9446100C9446100C9446100C944610A8
:100080000C9446100C9446100C9446100C94461098
:100090000C94C5140C9405150C9446100C94CCD7F4
:1000A0000C9446100C94928E0C9446100C944610AE
:1000B0000C9446100C9446100C9446100C94461068
:1000C0000C9446100C9446100C9446100C94461058
:1000D0000C9446100C9446100C9457150C949715DC
:1000E0000C9446100A160F16141619161E1623160F
:1000F00028162D16321637163C16F32CF32C192D14
:10010000572D392D752D912DC12DF02D482E9F6124
:10011000A261A661A261A261A961AF61A261A261AF
:10012000A261B261B761BC61A261A261AC61006E03
:10013000006E006EFE6DFE6D006E006EFE6DFE6D5B
:10014000FE6DEE6DFE6DF16DFE6DFE6DFB6DA375CA
:10015000C975D575E775F0750980F975098009804D
:10016000098005760E7617763076C07EC07EC07E1A
:100170003C76C07E3276C07E47763F764A764176C0
:100180004476C07E4776477647764776C07EC07E07
:10019000C07EC07E4A76C07E4C76608834882388D4
:1001A00078887888158772877888788878887888BA
:1001B00000870087788878880087098F0E8F138FD3
:1001C000188F1D8F228F278F2C8F318F368F3B8F6B
:1001D000A6C0A1C0AAC0AEC0BBC0D3C0F8C008C1F1
:1001E0003CC237C240C248C26CC277C28EC2AAC2E9
:1001F000B1C2E0DCE3DCD6DCDADC1CDDE7DCEBDC26
:10020000F1DCF5DCF9DCFFDC03DD07DD0DDD11DD04
:1002100017DD036EDB363D9A9999993DABAAAA2A60
:100220003E000000803F084AD73B3BCE016E84BCB5
:10023000BFFDC12F3D6C74319ABD56833DDA3D0040
:10024000C77F11BED9E4BB4C3E916BAAAABE000089
:1002500000803F072C7AA5BA6CC590DA3B9365FC09
:100260008BBC53F810FD3C5692834DBD879D3AB62A
:100270003DCBC9BF5BBE73DA0FC93F05A84CCDB2F9
:10028000D44EB93836A9020C50B9918688083CA6DC
:10029000AAAA2ABE000000803F08000000BE9224E7
:1002A00049123EABAAAA2ABECDCCCC4C3E000000DF
:1002B00080BEABAAAAAA3E00000000BF00000080DA
:1002C0003F0000000000084178D3BB4387D1133DB5
:1002D000190E3CC3BD4282AD2B3E68EC8276BED97E
:1002E0008FE1A93E4C80EFFFBE01C4FF7F3F0000BD
:1002F0000000004C6F670064756D70000000000026
:1003000000000000006A5B65726173650000000018
:100310000000000000A328656E61626C65000000AB
:100320000000000000E22764697361626C650000F0
:100330000000000000E22768656C7000000000000B
:1003400000000000009D1B706C616E6E657200679E
:1003500063730000000000000000000000B4807320
:1003600065747570007265736574000000000000AC
:10037000000000AB27726164696F0000000000009C
:100380000000009D446D6F64657300000000000074
:100390000000002844636F6D7061737300000000FB
:1003A0000000007B396465636C696E6174696F6E0F
:1003B00000000067396261747465727900000000A2
:1003C000000000242773686F770000000000000021
:1003D00000000031396572617365000000000000A3
:1003E0000000006F384172647550696C6F744D6520
:1003F0006761006C6F677300000000000000000080
:100400000020387365747570000000000000000063
:1004100000F23774657374000000000000000000F3
:1004200000DB3768656C7000000000000000000011
:1004300000891B706C616E6E657200000000000028
:10044000000938746573740070776D000000000057
:100450000000000000006B42726164696F000000E0
:1004600000000000000043496661696C73616665C5
:100470000000000000002943626174746572790015
:10048000000000000000453B72656C6179000000CF
:10049000000000000000761E776179706F696E744D
:1004A0007300000000003E527862656500000000A5
:1004B000000000000000DE22656564756D700000BC
:1004C00000000000000014246D6F64657377697488
:1004D000636800000000B0406469707377697463FA
:1004E000686573000000F91D61646300000000008E
:1004F0000000000000009C236770730000000000F3
:100500000000000000001023726177677073000024
:100510000000000000009F22696D750000000000CF
:10052000000000000000A3216779726F0000000046
:10053000000000000000F42061697273706565645A
:10054000000000000000353C6169727072657373D1
:10055000757265000000D53E636F6D706173730046
:10056000000000000000561F63757272656E740013
:10057000000000000000C0484E6F7420656E61628C
:100580006C65640A00563A2025342E34662C2041CE
:100590003A2025342E34662C206D41683A202534CB
:1005A0002E34660A00436F6D706173733A20004801
:1005B000656164696E673A20256C642C2058595A2D
:1005C0003A2025642C2025642C2025642C095859B8
:1005D0005A6F66663A2025362E32662C2025362E36
:1005E00032662C2025362E32660A00416C743A2081
:1005F00025302E32666D2C205261773A20256C64AE
:100600000A00556E63616C69627261746564207280
:10061000656C617469766520616972707265737367
:100620007572650A0025666D2F730A006169727321
:10063000706565643A200061697273706565643A3B
:1006400020002564092564092564097C09256409BD
:1006500025640925640A004779726F207C20416374
:1006600063656C0A00723A20256409703A2025649B
:100670000920793A2025640A002E004C61743A2042
:10068000256C642C204C6F6E20256C642C20416CF2
:10069000743A20256C646D2C2023736174733A20A6
:1006A00025640A00256409004144430A004D697825
:1006B0003A656C65766F6E73200972657620656C9D
:1006C00065763A25642C20726576206368313A2578
:1006D000642C20726576206368323A25640A004DE6
:1006E00069783A7374616E64617264200972657628
:1006F00020726F6C6C3A25642C20726576207069CC
:100700007463683A25642C2072657620727564647F
:1007100065723A25640A00506F736974696F6E20C0
:1007200025640A00436F6E74726F6C20434820008A
:10073000202530327800253034783A0042656769E8
:100740006E205842656520582D4354552052616EE5
:10075000676520616E642052535349205465737459
:100760003A0A004C6F69746572207261646975732E
:100770003A2025640A0A0048697420726164697528
:10078000733A2025640A00256420776179706F69C7
:100790006E74730A00486F6C6420616C74697475C0
:1007A0006465206F662025646D0A00486F6C6420C4
:1007B00063757272656E7420616C746974756465BA
:1007C0000A0052656C6179206F66660A0052656C9A
:1007D0006179206F6E0A004E6F7420656E61626CE5
:1007E00065640A00566F6C74733A20313A25322ED4
:1007F00032662C20323A25322E32662C20333A25AE
:10080000322E32662C20343A25322E32660A004CC3
:100810004F5320636175736564206E6F2063686158
:100820006E676520696E2041504D2E0A0054485273
:100830004F54544C45204641494C53414645204174
:1008400043544956415445443A2025642C200043E2
:100850004F4E54524F4C204D4F4445204348414E3B
:100860004745443A20005448524F54544C45204385
:1008700048414E474544202564200A00556E706C5F
:10088000756720626174746572792C207468726F68
:1008900074746C6520696E206E65757472616C2C61
:1008A000207475726E206F666620726164696F2EA7
:1008B0000A00494E20313A20256409323A20256445
:1008C00009333A20256409343A20256409353A2051
:1008D000256409363A20256409373A202564093809
:1008E0003A2025640A00494E3A20313A202564090D
:1008F000323A20256409333A20256409343A202508
:100900006409353A20256409363A20256409373AC6
:1009100020256409383A2025640A00436F6D6D6113
:100920006E64733A0A20206C6F67732020202020A9
:100930002020206C6F6720726561646261636B2F99
:100940007365747570206D6F64650A20207365741B
:100950007570202020202020207365747570206D14
:100960006F64650A20207465737420202020202085
:10097000202074657374206D6F64650A0A4D6F766C
:10098000652074686520736C696465207377697489
:10099000636820616E6420726573657420746F20D3
:1009A000464C592E0A0A000A5479706520275927A7
:1009B00020616E642068697420456E7465722074CD
:1009C0006F20657261736520616C6C20776179704E
:1009D0006F696E7420616E6420706172616D657400
:1009E000657220646174612C20616E79206F746877
:1009F0006572206B657920746F2061626F72743A42
:100A000020005261772056616C7565730A000A4FA9
:100A10007074696F6E733A20302D34000A4F707411
:100A2000696F6E733A5B6F6E2C6F66665D0A006F5E
:100A30006666006F6E000A4D6F7665205243207423
:100A40006F67676C652073776974636820746F20C3
:100A50006561636820706F736974696F6E20746F6D
:100A600020656469742C206D6F76652061696C6502
:100A7000726F6E20737469636B20746F2073656C82
:100A8000656374206D6F6465732E000A4D6F766523
:100A900020616C6C20636F6E74726F6C7320746F66
:100AA00020656163682065787472656D652E2048E5
:100AB000697420456E74657220746F207361766569
:100AC0003A200A000A4E6F20726164696F3B20432E
:100AD0006865636B20636F6E6E6563746F72732EEF
:100AE000000A0A526164696F2053657475703A0A8E
:100AF000000A464143544F52592052455345542011
:100B0000636F6D706C657465202D20706C6561730A
:100B1000652072657365742041504D20746F2063A9
:100B20006F6E74696E7565000A5479706520275977
:100B30002720616E642068697420456E7465722098
:100B4000746F20706572666F726D20666163746F7A
:100B500072792072657365742C20616E79206F74D0
:100B6000686572206B657920746F2061626F7274A2
:100B70003A20000A436F6D6D616E64733A0A20205B
:100B800064756D70203C6E3E2020202020202020A7
:100B9000202020202064756D70206C6F67203C6ED3
:100BA0003E0A2020657261736520202020202020CD
:100BB0002020202020202020206572617365206184
:100BC0006C6C206C6F67730A2020656E61626C65C7
:100BD000203C6E616D653E7C616C6C202020206540
:100BE0006E61626C65206C6F6767696E67203C6E32
:100BF000616D653E206F72206576657279746869F3
:100C00006E670A202064697361626C65203C6E61C6
:100C10006D653E7C616C6C20202064697361626C40
:100C200065206C6F6767696E67203C6E616D653E1D
:100C3000206F722065766572797468696E670A0A3A
:100C400000656E61626C650043555200434D44007F
:100C5000524157004D4F4445004E54554E004354A9
:100C6000554E00504D00475053004154544954557F
:100C700044455F4D45440041545449545544455FF3
:100C80004641535400616C6C006D697373696E6703
:100C9000206C6F6720747970650A000A4C6F6720BA
:100CA0006572617365642E0A000A45726173696E2C
:100CB00067206C6F672E2E2E0A00415454454E5407
:100CC000494F4E202D2045726173696E67206C6F0D
:100CD0006720696E202564207365636F6E64732ED0
:100CE0002020506F776572206F6666206E6F7720C8
:100CF000746F2073617665206C6F6721200A004C49
:100D00006F67207265616420636F6D706C657465D8
:100D10000A0044756D70696E67204C6F67206E75B0
:100D20006D6265722025642C20202020737461720E
:100D30007420706167652025642C202020656E6416
:100D400020706167652025640A00626164206C6F11
:100D500067206E756D6265720A00414C54325054C2
:100D600043485F00454E524759325448525F00593C
:100D700057325352565F00415253504432505443FD
:100D8000485F0050544348325352565F00524C4C17
:100D9000325352565F0048444E4732524C4C5F002B
:100DA0005243385F005243375F005243365F005270
:100DB00043355F005243345F005243335F00524378
:100DC000325F005243315F00424154545F4341500F
:100DD000414349545900424154545F4D4F4E495488
:100DE0004F52004D41475F454E41424C4500474EF2
:100DF000445F4142535F505245535300474E445F56
:100E000054454D5000414C545F484F4C445F525440
:100E10004C005452494D5F50495443485F4344008D
:100E20005452494D5F41525350445F434D004C4F23
:100E3000475F4249544D41534B005357495443482F
:100E40005F454E41424C45005452494D5F41555417
:100E50004F004C494D5F50495443485F4D494E0047
:100E60004C494D5F50495443485F4D4158004C49EF
:100E70004D5F524F4C4C5F434400464C544D4F44E1
:100E80004500464C544D4F44455F43480046535F30
:100E90004743535F454E41424C0046535F4C4F4ED3
:100EA000475F4143544E0046535F53484F52545F8F
:100EB0004143544E005452494D5F5448524F54548C
:100EC0004C45005448525F46535F56414C554500CF
:100ED0005448525F4641494C53414645005448529C
:100EE0005F4D4158005448525F4D494E00415253A6
:100EF00050445F4642575F4D415800415253504461
:100F00005F4642575F4D494E0057505F4C4F495422
:100F100045525F5241440057505F52414449555336
:100F20000057505F494E4445580057505F544F5446
:100F3000414C0041525350445F524154494F00418B
:100F40004C545F4D4958005854524B5F414E474CEA
:100F5000455F4344005854524B5F4741494E5F53ED
:100F600043004B46465F5448523250544348004B6E
:100F700046465F5054434832544852004B46465F01
:100F8000524444524D4958004B46465F50544348E2
:100F9000434F4D500053595349445F4D59474353B4
:100FA0000053595349445F544849534D41560053E7
:100FB000595349445F53575F54595045005359534F
:100FC00049445F53575F4D52455600524556004DB8
:100FD0004158005452494D004D494E00494D415829
:100FE00000440049005000494D555F53454E534F52
:100FF000525F43414C004C6F67206E756D626572A5
:101000002025642C2020202073746172742070616C
:1010100067652025642C202020656E642070616740
:10102000652025640A000A2564206C6F67732061BF
:101030007661696C61626C6520666F7220646F779F
:101040006E6C6F61640A000A4E6F206C6F677320CC
:10105000617661696C61626C6520666F7220646F95
:10106000776E6C6F61640A0043555200202553006F
:10107000434D440020255300524157002025530082
:101080004D4F444500202553004E54554E00202519
:1010900053004354554E0020255300504D00202549
:1010A0005300475053002025530041545449545590
:1010B00044455F4D45440020255300415454495454
:1010C0005544455F4641535400202553006E6F6ED2
:1010D00065006C6F677320656E61626C65643A20B1
:1010E00000636F6D6D616E6420233A202564206972
:1010F000643A2564206F7074696F6E733A256420BA
:1011000070313A25642070323A256C642070333A8D
:10111000256C642070343A256C64200A0048697498
:1011200020456E74657220746F20657869742E0A8C
:101130000A0054657374204D6F64650A0A000A0A38
:1011400020526561647920746F20464C592E003C12
:10115000737461727475705F67726F756E643E2030
:101160004E4F206169727370656564003C737461F1
:10117000727475705F67726F756E643E207A657207
:101180006F2061697273706565642063616C696268
:101190007261746564003C737461727475705F672A
:1011A000726F756E643E2047524F554E4420535423
:1011B000415254000A4D6F76652074686520736C47
:1011C0006964652073776974636820616E64207256
:1011D0006573657420746F20464C592E0A000A45C9
:1011E0006E746572696E6720696E7465726163748E
:1011F000697665207365747570206D6F64652E2E39
:101200002E0A0A4966207573696E67207468652026
:1012100041726475696E6F2053657269616C204D0F
:101220006F6E69746F722C20656E73757265204CD9
:10123000696E6520456E64696E6720697320736509
:101240007420746F20436172726961676520526512
:101250007475726E2E0A54797065202768656C70FB
:101260002720746F206C69737420636F6D6D616EDD
:1012700064732C2027657869742720746F206C654F
:101280006176652061207375626D656E752E0A56F4
:101290006973697420746865202773657475702795
:1012A000206D656E7520666F722066697273742D8D
:1012B00074696D6520636F6E6669677572617469C4
:1012C0006F6E2E0A007573696E672025752062792E
:1012D000746573206F66206D656D6F72790A006C9E
:1012E0006F61645F616C6C20746F6F6B20256C752F
:1012F00075730A00646F6E652E000A0A45455052E8
:101300004F4D20666F726D61742076657273696FE0
:101310006E202564206E6F7420636F6D7061746938
:10132000626C6520776974682074686973206669E7
:10133000726D776172652028726571756972657367
:10134000202564290A0A466F7263696E6720636FFD
:101350006D706C65746520706172616D6574657225
:101360002072657365742E2E2E000A0A496E697408
:10137000204172647550696C6F744D6567612055CA
:101380006E737461626C6520446576656C6F706D18
:10139000656E74205472756E6B202D2028666F6CFC
:1013A0006C6F77696E6720322E322E30290A0A461A
:1013B0007265652052414D3A20256C750A004779C7
:1013C000726F206F6666736574733A2025342E320F
:1013D000662C2025342E32662C2025342E32660AC7
:1013E00000416363656C206F6666736574733A20B1
:1013F00025342E32662C2025342E32662C202534BE
:101400002E32660A0061626C65640A0064697300CA
:10141000656E00646F6E650A000A45726173696EDD
:101420006720454550524F4D0A002D000A53617602
:1014300065642053657474696E67730A0A00506F9F
:10144000732025643A20004348383A202564207CE4
:10145000202564207C2025640A004348373A202553
:1014600064207C202564207C2025640A00434836C3
:101470003A202564207C202564207C2025640A00F5
:101480004348353A202564207C202564207C202593
:10149000640A004348343A202564207C20256420D7
:1014A0007C2025640A004348333A202564207C20B0
:1014B0002564207C2025640A004348323A202564B4
:1014C000207C202564207C2025640A004348313A92
:1014D000202564207C202564207C2025640A00507F
:1014E0003A2025342E33662C20493A25342E336693
:1014F0002C20443A25342E33662C20494D41583A4D
:10150000256C640A00466C69676874206D6F6465B9
:10151000730A004D6167206F6666736574733A20C5
:1015200025342E34662C2025342E34662C20253488
:101530002E34660A004D61672044656C696E6174E3
:10154000696F6E3A2025342E34660A00436F6D7041
:101550006173730A00494D550A006D696E3A202582
:10156000640A6D61783A2025640A6372756973654F
:101570003A2025640A6661696C736166655F656E11
:1015800061626C65643A2025640A6661696C736106
:1015900066655F76616C75653A2025640A0054685B
:1015A000726F74746C650A0058545241434B3A2070
:1015B00025342E32660A58545241434B20616E67DF
:1015C0006C653A2025640A0043726F73737472610C
:1015D000636B0A006E617620706974636820616CC9
:1015E000743A0A00656E6572677279207468726F6A
:1015F00074746C653A0A006E617620706974636871
:101600002061697270736565643A0A006E617620C4
:10161000726F6C6C3A0A00736572766F2072756433
:101620006465723A0A00736572766F20706974633C
:10163000683A0A00736572766F20726F6C6C3A0AB2
:10164000004761696E730A00526164696F0A004D58
:101650006F6E69746F72696E6720766F6C74732039
:10166000616E642063757272656E74004D6F6E6991
:10167000746F72696E67206261747420766F6C7427
:1016800073004D6F6E69746F72696E6720342063EA
:10169000656C6C004D6F6E69746F72696E67203394
:1016A0002063656C6C0042617474206D6F6E6974A8
:1016B0006F72696E672064697361626C6564004271
:1016C000617474204D6F696E746F720A0053657493
:1016D0007570204D6F64650A0A494D504F52544150
:1016E0004E543A20696620796F75206861766520CE
:1016F0006E6F742070726576696F75736C79207384
:10170000657420746869732073797374656D2075CE
:10171000702C20757365207468650A27726573657F
:10172000742720636F6D6D616E6420746F20696E25
:10173000697469616C697A652074686520454550F3
:10174000524F4D20746F2073656E7369626C652013
:1017500064656661756C742076616C7565730A6189
:101760006E64207468656E207468652027726164F9
:10177000696F2720636F6D6D616E6420746F2063E5
:101780006F6E66696775726520666F7220796F7516
:101790007220726164696F2E0A0A006261726F6D55
:1017A000657465722063616C6962726174696F6EE1
:1017B00020636F6D706C6574652E006162735F707D
:1017C0007265737375726520256C640A004D53470A
:1017D000204653204F464620004D53472046532075
:1017E0004F4E2000506C616E6E6572204D6F6465C7
:1017F0000A0A54686973206D6F6465206973206EEE
:101800006F7420696E74656E64656420666F722003
:101810006D616E75616C207573650A0A003C6E61BE
:101820007669676174653E205750206572726F72E9
:10183000202D2064697374616E6365203C20300044
:101840004C6F77204261747465727921004661693A
:101850006C73616665202D2053686F727420657605
:10186000656E74206F6666004661696C73616665BB
:10187000202D204C6F6E67206576656E74206F6E2C
:1018800000666C69676874206D6F6465203D200098
:101890004661696C73616665202D2053686F7274B0
:1018A000206576656E74206F6E004D53473A207246
:1018B000657365745F636F6E74726F6C5F73776965
:1018C000746368003C70726F636573735F6D6179F8
:1018D0003E004E657720636D643A203C70726F6302
:1018E0006573735F6D7573743E006F7574206F66FA
:1018F00020636F6D6D616E647321004261642052DC
:10190000657175657374202D2063616E6E6F742030
:101910006368616E676520746F206E6F6E2D4E6117
:101920007620636D64005265616368656420686F4A
:101930006D65007665726966795F6D7573743A20BE
:101940004C4F49544552206F726269747320636F23
:101950006D706C657465007665726966795F6D752A
:1019600073743A204C4F495445522074696D652078
:10197000636F6D706C657465003C7665726966793D
:101980005F6D7573743A204D41565F434D445F4E11
:1019900041565F574159504F494E543E204D69734F
:1019A000736564205750007665726966795F6D6172
:1019B000793A20496E76616C6964206F72206E6F8F
:1019C0002063757272656E7420436F6E646974690A
:1019D0006F6E20636D64007665726966795F6D7500
:1019E00073743A20496E76616C6964206F72206E60
:1019F0006F2063757272656E74204E617620636D20
:101A0000640067707320616C743A20256C64004D2B
:101A10005347203C7365745F6775696465645F77DD
:101A2000703E004D5347203C7365745F6E6578745B
:101A30005F77703E2077705F696E6465783A20004A
:101A40004D5347203C696E6372656D656E745F57D8
:101A5000505F696E6465783E20575020696E6465FA
:101A60007820697320696E6372656D656E74656454
:101A700020746F20004E756D626572206F66207055
:101A800061636B65747320726561643A2025640A32
:101A9000004572726F722052656164696E672045FD
:101AA0004E445F425954453A2025640A00457272FB
:101AB0006F722052656164696E67205061636B6567
:101AC000743A2025640A005241573A004750533A6D
:101AD00020256C642C2025642C2025642C202534A2
:101AE0002E37662C2025342E37662C2025342E34B4
:101AF000662C2025342E34662C2025342E34662C7A
:101B00002025342E34660A004D4F443A0041545487
:101B10003A2025642C2025642C2025750A002025D8
:101B20006420636F6D6D616E647320696E206D65F6
:101B30006D6F72790A00554E4B4E4F574E205354DD
:101B40004152545550202D200047524F554E4420AD
:101B50005354415254202D200041495220535441A6
:101B60005254202D2000434D443A00504D3A004E2F
:101B700054554E3A2025342E34662C2025642C20D2
:101B800025342E34662C2025342E34662C20253422
:101B90002E34662C2025342E34662C2025342E3409
:101BA000662C0A004354554E3A00435552523A208F
:101BB00025642C2025342E34662C2025342E3466C2
:101BC0002C2025640A003C73746172745F6E657723
:101BD0005F6C6F673E204C6F67732066756C6C207E
:101BE0002D206C6F6767696E6720646973636F6E21
:101BF00074696E75656400666C6967687420706CE2
:101C0000616E2072656365697665640061637469FD
:101C10006F6E2072656365697665643A200077614E
:101C200079706F696E74207265636569766520747A
:101C3000696D656F757400776179706F696E742076
:101C400073656E642074696D656F757400455854D2
:101C50005241330045585452413200455854524184
:101C60003100504F534954494F4E005241575F4342
:101C700054524C0052435F4348414E004558545F14
:101C800053544154005241575F53454E53005352F1
:101C9000335F005352305F0044656D6F20536572AF
:101CA000766F732100253033753A25733A20006E24
:101CB0006F7420666F756E6400253033753A252D7C
:101CC00033322E3332733A2000756E6B6E6F776E3F
:101CD0002074797065006E6F7420666F756E640095
:101CE00025733A20006D697373696E67206E616DAC
:101CF00065206F722076616C7565003F3F0025643A
:101D000000256400256C6400256600256600657862
:101D100069740068656C700044454300434F4D5042
:101D20004153535F00245047434D442C31362C30EF
:101D30002C302C302C302C302A36410D0A00245007
:101D40005542582C34312C312C303030332C30303B
:101D500030312C33383430302C302A323600245095
:101D60005352463130302C302C33383430302C380C
:101D70002C312C302A334300205369524620002056
:101D80004D544B312E3620002075626C6F78200048
:101D9000204D544B312E3420006661696C65642CF3
:101DA000207265747279696E67004F4B0020002ABB
:101DB00000496E697420416363656C002A00496EB6
:101DC0006974204779726F006E616E00696E6600FB
:101DD00000407A10F35A00A0724E18090010A5D4E2
:101DE000E80000E87648170000E40B54020000CA3F
:101DF0009A3B000000E1F505000080969800000085
:101E000040420F000000A0860100000010270000E3
:101E10000000E803000000006400000000000A0069
:101E2000000000000100000000002C76D888DC676C
:101E30004F0823DFC1DFAE59E1B1B796E5E3E453C4
:101E4000C63AE651997696E8E6C28426EB898C9BE1
:101E500062ED407C6FFCEFBC9C9F40F2BAA56FA581
:101E6000F490055A2AF75C936B6CF9676DC11BFC03
:101E7000E0E40D47FEF520E6B500D0ED902E03001E
:101E8000943577050080841E080000204E0A00006B
:101E900000C80C333333330F986E12831141EF8D2A
:101EA0002114893BE65516CFFEE6DB18D1844B386A
:101EB0001BF77C1D901DA4BBE424203284725E229B
:101EC0008100C9F124ECA1E53D2700002100240098
:101ED00027002A002D00300033000101000004011A
:101EE00007010A0100002200250028002B002E0017
:101EF0003100340002010000050108010B0100005F
:101F000020002300260029002C002F0032000001B1
:101F1000000003010601090105050505070508087C
:101F20000808020202020A0A080804040404010163
:101F30000101010101010303030303030303040778
:101F400007070C0C0C0C0C0C0C0C0202020206060F
:101F50000606060606060B0B0B0B0B0B0B0B010202
:101F600010202008081020401020408002010201AB
:101F70000804020101020408102040808040201063
:101F800008040201800402018040201008040201BC
:101F90000804020101020408102040800102040824
:101FA000102040800000090A02080B0C0D070603F0
:101FB000040100000000000000000000000000001C
:101FC0000000000000000000000000000000000011
:101FD000100F0E00000000000000000000000000D4
:101FE00000000000000000000000494E46494E4934
:101FF00054594E414ECDCCCC3D0AD7233C17B7D1D6
:102000003877CC2B329595E6241FB14F0A0000207B
:10201000410000C84200401C4620BCBE4CCA1B0EFA
:102020005AAEC59D7400D4379F8F9C97B7C8D0D641
:10203000CD37959711241FBECFEFD1E2DEBFCDBFC4
:1020400000E00CBF16E0A0E0B2E0EEEAF0ED01E047
:102050000BBF02C007900D92AC31B107D9F716E162
:10206000ACE1B6E001C01D92A43BB107E1F710E27C
:10207000C0E3D0E204C02297FE010E940FE2C63204
:10208000D107C9F70E944BD90C944AE80C94000080
:10209000283008F027E03327DA01990F311D87FD3A
:1020A000916000966105710539F432602E5F3D93B1
:1020B00030E32A95E1F708959F3F30F080387105AD
:1020C000610509F03C5F3C5F3D93913008F080680A
:1020D000911DDF93CF931F930F93FF92EF92192FD0
:1020E000987F9695E92F96959695E90FFF27E65DDF
:1020F000F14E99273327EE24FF24A701E70105902D
:102100000894079428F4360FE71EF81E491F511D46
:10211000660F771F881F991F0694A1F705900794F3
:1021200028F4E70EF81E491F561FC11D770F881FA0
:10213000991F661F0694A1F70590079428F4F80EDE
:10214000491F561FC71FD11D880F991F661F771F74
:102150000694A1F70590079420F4490F561FC71F56
:10216000D81F990F661F771F881F0694A9F78491BF
:102170001095177041F0D695C79557954795F794E8
:10218000E7941A95C1F7E0EDFDE16894159015917B
:1021900035916591959105907FE27395E118F10A6B
:1021A000430B560BC90BD009C0F7E10CF11E431FBE
:1021B000561FC91FD01D7EF4703311F48A95E6CFE7
:1021C000E894015030F0080F0AF40027021708F4D1
:1021D000202F2395022F7A3328F079E37D932A95D7
:1021E000E9F710C07D932A9589F60694979567952F
:1021F000379517951794E118F10A430B560BC90B45
:10220000D00998F023957E9173957A3308F070E3A6
:102210007C932013B8F77E9170617D9330F08395A5
:1022200071E37D9370E32A95E1F71124EF90FF901D
:102230000F911F91CF91DF91992787FD9095089578
:10224000FA01AA27283051F1203181F1E8946F93E7
:102250006E7F6E5F7F4F8F4F9F4FAF4FB1E03ED08D
:10226000B4E03CD0670F781F891F9A1FA11D680F2B
:10227000791F8A1F911DA11D6A0F711D811D911D5E
:10228000A11D20D009F468943F912AE0269F1124D3
:102290003019305D3193DEF6CF010895462F477037
:1022A000405D4193B3E00FD0C9F7F6CF462F4F7092
:1022B000405D4A3318F0495D31FD4052419302D0F0
:1022C000A9F7EACFB4E0A695979587957795679596
:1022D000BA95C9F700976105710508959B01AC0196
:1022E0000A2E06945795479537952795BA95C9F7BD
:1022F000620F731F841F951FA01D0895EF92FF9218
:102300000F93DF93CF93CDB7DEB760970FB6F894F6
:10231000DEBF0FBECDBFA82F002309F461C07E0130
:102320000894E11CF11C88E0F70111928A95E9F705
:1023300029833A834B835C836D837E83AF83988745
:1023400080E2801BE82FFF27E7FDF0954D815E813D
:102350006F817885181684F01D861E861F86188A60
:10236000882799278E1B9F0B04C0769567955795F4
:1023700047958A95D2F728C0202F332727FD30951F
:10238000DB01CA01022E04C0B695A79597958795E3
:102390000A94D2F78D879E87AF87B88B04C0440F0D
:1023A000551F661F771FEA95D2F789819A81AB8105
:1023B000BC8104C0B695A795979587952A95D2F7C5
:1023C000482B592B6A2B7B2B49875A876B877C8735
:1023D00029853A854B855C856D857E85AF85988995
:1023E0008A2F60960FB6F894DEBF0FBECDBFCF9197
:1023F000DF910F91FF90EF900895CF93DF93FC0151
:10240000EB014230510570F06385748585859685B2
:1024100020E030E040E854E40E948CE00E94D4DEEA
:102420007983688382E090E0DF91CF910895CF9324
:10243000DF93EC01FB014230510518F420E030E05D
:1024400012C06081718180E090E00E9400DF20E096
:1024500030E040E85AE30E948CE06B877C878D87F0
:102460009E8722E030E0C901DF91CF910895009767
:1024700019F00197C1F40CC0E091EE15F091EF1541
:10248000A081B1812D913C91CF01F9011995089559
:10249000E091F015F091F115A081B1812D913C9161
:1024A000CF01F90119950895EF92FF920F931F93B1
:1024B000CF93DF93EC0108836A834B83822F90E0F4
:1024C000880F991FFC01A3E0EE0FFF1FAA95E1F70B
:1024D000E81BF90BE559FD4E81858983822F90E039
:1024E000880F991FDC0163E0AA0FBB1F6A95E1F713
:1024F000A81BB90BA559BD4E822F90E0880F991FDC
:10250000FC0143E0EE0FFF1F4A95E1F7E81BF90BD2
:10251000E559FD4E81858F5F19968C93DE0135E07C
:10252000E32EF12CE00EF11E6FEF7FEFE0E0F0E024
:102530001EC02D912627822F8295807F822790E0D2
:10254000382F2227AC01440F551F440F551F440F4D
:10255000551F24273527672F77276227732724E005
:10256000959587952A95E1F7682779273196EE1595
:10257000FF05FCF2CC5FDE4F699378839801295FF9
:102580003F4FC901CDB7DEB7E6E00C94FEE1FC0198
:10259000DC01AC5FBE4F8C91EB5FFE4F6827262FAE
:1025A0002295207F262730E0522F4427C90163E07F
:1025B000880F991F6A95E1F748275927808190E095
:1025C0004827592784E0359527958A95E1F74227D2
:1025D00053274C9350830895F901E40FF11D292FDF
:1025E00033274427552720839C01552737FD5095D5
:1025F000452F2183272F382F492F552747FD5A95DF
:102600002283638384E008957F928F929F92AF929A
:10261000BF92CF92DF92EF92FF920F931F93722E91
:10262000132FD42EC52EB62EA72E982E892EE00E4F
:10263000F11C08E30E947E11F7012083272D312F22
:102640004D2D5C2D6B2D7A2D892D982D00E30E9448
:102650007E11F7012183272D312F4D2D5C2D6B2D00
:102660007A2D892D982D08E20E947E11F701228390
:10267000272D312F4D2D5C2D6B2D7A2D892D982DE9
:1026800000E20E947E11F7012383272D312F4D2D6B
:102690005C2D6B2D7A2D892D982D08E10E947E11DD
:1026A000F7012483272D312F4D2D5C2D6B2D7A2D95
:1026B000892D982D00E10E947E11F7012583272D99
:1026C000312F4D2D5C2D6B2D7A2D892D982D08E005
:1026D0000E947E11F7012683778288E01F910F9177
:1026E000FF90EF90DF90CF90BF90AF909F908F9032
:1026F0007F9008950E94EC120895A0E0B0E0E3E816
:10270000F3E10C94E0E18C01EB0165E50E943712E6
:10271000C80168810E943712C80169810E9437127E
:10272000C8016A810E943712C8016B810E9437126A
:10273000C8016C810E9437126E01EE24FF2408C08C
:10274000C801F60164810E9437120894E11CF11C53
:102750000894C11CD11C888190E0E816F90680F32A
:10276000CC5FDE4FC80169910E943712C8016881B1
:102770000E943712CDB7DEB7E8E00C94FCE1A6E08A
:10278000B1E0E5ECF3E10C94E0E1D82EC92E5091D4
:1027900090047091910488E28D836E834F83388713
:1027A00029877E010894E11CF11CC701652F472F82
:1027B0002D2D04E010E00E9454128D2D9C2DB701A8
:1027C0000E947D13CA5FDE4FE8E00C94FCE1A6E0B6
:1027D000B1E0EDEEF3E10C94E0E1D82EC92E2091AA
:1027E0009004409191048AE28D837E836F837E0101
:1027F0000894E11CF11CC701622F2D2D02E010E0AE
:102800000E9454128D2D9C2DB7010E947D13CA5F2A
:10281000DE4FE8E00C94FCE1A6E0B1E0E2E1F4E197
:102820000C94E0E1D82EC92E30919004509191047F
:102830008FE28D836E834F8328877E010894E11C8D
:10284000F11CC701632F452F2D2D03E010E00E94DE
:1028500054128D2D9C2DB7010E947D13CA5FDE4F4F
:10286000E8E00C94FCE11F920F920FB60F920BB6AA
:102870000F9211242F933F934F938F939F93EF9336
:10288000FF934091C6002091AE153091AF152F5F98
:102890003F4F8091B2159091B31528233923809131
:1028A000B0159091B1152817390779F08091AE15C0
:1028B0009091AF15E091B415F091B515E80FF91F9F
:1028C00040833093AF152093AE15FF91EF919F9108
:1028D0008F914F913F912F910F900BBE0F900FBE94
:1028E0000F901F9018951F920F920FB60F920BB674
:1028F0000F9211242F933F938F939F93EF93FF9306
:102900002091D0153091D1158091CE159091CF1591
:1029100028173907E9F08091D0159091D115E091F1
:10292000D415F091D515E80FF91F80818093C6006A
:102930008091D0159091D11501962091D2153091AA
:10294000D315822393239093D1158093D01510C073
:102950002091CE153091CF158091D0159091D11541
:102960002817390729F48091C1008F7D8093C10019
:10297000FF91EF919F918F913F912F910F900BBEFF
:102980000F900FBE0F901F9018951F920F920FB6C9
:102990000F920BB60F9211242F933F934F938F9367
:1029A0009F93EF93FF934091CE002091B615309105
:1029B000B7152F5F3F4F8091BA159091BB15282313
:1029C00039238091B8159091B9152817390779F0F6
:1029D0008091B6159091B715E091BC15F091BD1599
:1029E000E80FF91F40833093B7152093B615FF9178
:1029F000EF919F918F914F913F912F910F900BBE2F
:102A00000F900FBE0F901F9018951F920F920FB648
:102A10000F920BB60F9211242F933F938F939F9396
:102A2000EF93FF932091D8153091D9158091D61549
:102A30009091D71528173907E9F08091D815909112
:102A4000D915E091DC15F091DD15E80FF91F8081B3
:102A50008093CE008091D8159091D9150196209140
:102A6000DA153091DB15822393239093D915809347
:102A7000D81510C02091D6153091D7158091D81552
:102A80009091D9152817390729F48091C9008F7DB5
:102A90008093C900FF91EF919F918F913F912F916A
:102AA0000F900BBE0F900FBE0F901F9018951F92A6
:102AB0000F920FB60F920BB60F9211242F933F93E4
:102AC0004F938F939F93EF93FF9340913601209103
:102AD000C6153091C7152F5F3F4F8091CA15909151
:102AE000CB15282339238091C8159091C915281733
:102AF000390779F08091C6159091C715E091CC15F2
:102B0000F091CD15E80FF91F40833093C71520933E
:102B1000C615FF91EF919F918F914F913F912F910A
:102B20000F900BBE0F900FBE0F901F9018951F9225
:102B30000F920FB60F920BB60F9211242F933F9363
:102B40008F939F93EF93FF932091E8153091E915B0
:102B50008091E6159091E71528173907E9F08091E3
:102B6000E8159091E915E091EC15F091ED15E80F5D
:102B7000F91F8081809336018091E8159091E915C5
:102B800001962091EA153091EB15822393239093BF
:102B9000E9158093E81510C02091E6153091E715EE
:102BA0008091E8159091E9152817390729F480914B
:102BB00031018F7D80933101FF91EF919F918F9132
:102BC0003F912F910F900BBE0F900FBE0F901F9053
:102BD000189580915D0F90915E0FA0915F0FB0915D
:102BE000600F8C569E4EAF4FBF4F1CF48FEF8093FB
:102BF000BD108091BD10882319F081508093BD10C5
:102C00000895E82FF0E0EB30F105D0F5EE58FF4FD6
:102C10000C940DE220912A0130912B0131C02091BA
:102C20002C0130912D012CC020918A0030918B0015
:102C300027C020918C0030918D0022C02091AC00E3
:102C40003091AD001DC02091AA003091AB0018C09A
:102C500020919C0030919D0013C020919A003091EA
:102C60009B000EC0209128013091290109C02091BC
:102C700088003091890004C020919800309199001B
:102C800035952795C9010895FC017183608386E01D
:102C90006C31780739F47093EF156093EE15138655
:102CA000128608C07093F1156093F01581E090E0F2
:102CB000938782871382128208955F926F927F9228
:102CC0008F929F92AF92BF92CF92DF92EF92FF923C
:102CD0000F931F935B016C0139014A0180913112FE
:102CE00090913212A0913312B0913412A816B90605
:102CF000CA06DB0610F410923512A6019501281BB6
:102D0000390B4A0B5B0BDA01C90181509044A0409A
:102D1000B04010F01092351280913512883009F0D1
:102D200070C0E0913012F0E0A3E0EE0FFF1FAA9513
:102D3000E1F7DF01A051BE4EED90FD900D911C9189
:102D40008091361290913712A0913812B0913912B9
:102D50008E199F09A00BB10B8093361290933712F6
:102D6000A0933812B0933912EC50FE4E208131817D
:102D70004281538180913A1290913B12A0913C1272
:102D8000B0913D12821B930BA40BB50B80933A12AA
:102D900090933B12A0933C12B0933D12C801B7012F
:102DA0000E9453E120913E1230913F124091401217
:102DB00050914112261B370B480B590B20933E12A2
:102DC00030933F124093401250934112C801B70113
:102DD000A80197010E9453E12091421230914312C1
:102DE0004091441250914512261B370B480B590B4A
:102DF0002093421230934312409344125093451251
:102E00002DC0882341F5A0923112B0923212C092A7
:102E10003312D0923412109236121092371210924E
:102E200038121092391210923A1210923B121092EC
:102E30003C1210923D1210923E1210923F121092CC
:102E400040121092411210924212109243121092AC
:102E50004412109245128F5F8093351250903012B9
:102E6000E52DF0E063E0EE0FFF1F6A95E1F79F01AB
:102E700020513E4E8091311290913212A091331226
:102E8000B091341286017501E81AF90A0A0B1B0B7E
:102E9000D901ED92FD920D931C931397EC50FE4EC9
:102EA0006082718282829382809136129091371271
:102EB000A0913812B09139128E0D9F1DA01FB11F25
:102EC0008093361290933712A0933812B093391230
:102ED00080913A1290913B12A0913C12B0913D1218
:102EE000860D971DA81DB91D80933A1290933B1231
:102EF000A0933C12B0933D12C401B301A801970105
:102F00000E9453E120913E1230913F1240914012B5
:102F100050914112260F371F481F591F20933E1210
:102F200030933F124093401250934112C801B701B1
:102F3000A80197010E9453E120914212309143125F
:102F40004091441250914512260F371F481F591FB8
:102F500020934212309343124093441250934512EF
:102F6000E52DEF5FE0933012E83010F01092301250
:102F70001F910F91FF90EF90DF90CF90BF90AF9097
:102F80009F908F907F906F905F900895EF92FF9247
:102F90000F931F938091A21180936211109263117D
:102FA000E090A311F090A4110091A5111091A61129
:102FB000E0925A11F0925B1100935C1110935D1135
:102FC00090E06AE070E00E9486E1882777FD8095B6
:102FD000982F209185113091861140918711509141
:102FE0008811620F731F841F951F6093BE11709329
:102FF000BF118093C0119093C111E0929411F0928F
:10300000951100939611109397111092C21110927E
:10301000C3111092C4111092C5111F910F91FF900E
:10302000EF9008952091851130918611409187117C
:103030005091881180915A1190915B11A0915C116F
:10304000B0915D11281739074A075B0754F01092B9
:103050005A1110925B1110925C1110925D1181E077
:10306000089580916211909163116AE070E00E946E
:1030700086E1882777FD8095982F2091BE113091A9
:10308000BF114091C0115091C111260F371F481F29
:10309000591F2093BE113093BF114093C01150931C
:1030A000C11180E008958091A211813021F48091B6
:1030B0000B0184600AC0882321F480910B018B7F6F
:1030C00004C080910B0194E0892780930B0108953F
:1030D00080910901881F8827881F8093DA10882330
:1030E000F1F48CB11092D71087FF03C081E0809378
:1030F000D7108CB190E026E0969587952A95E1F758
:1031000081708093D8108091090190E0B6E0969587
:103110008795BA95E1F781708093D91008956799E2
:1031200003C081E090E002C08FEF9FEF90933004E6
:1031300080932F04669903C081E090E002C08FEF76
:103140009FEF90933204809331048091090186FDB2
:1031500003C081E090E002C08FEF9FEF90933404B2
:10316000809333040895AF92BF92CF92DF92EF9293
:10317000FF920F931F938091B8108A3070F0809166
:10318000F3109091F410181619063CF4E0902408FE
:10319000F0902508E80EF91E04C0E0902408F09095
:1031A0002508A090F110B090F210B7016A197B09C0
:1031B000882777FD8095982F0E9402DF6093F51095
:1031C0007093F6108093F7109093F8100027F7FC97
:1031D0000095102FCC24B7FCC094DC2CC801B7019B
:1031E000A80197010E9453E17B018C01C601B50142
:1031F000A60195010E9453E1E61AF70A080B190B84
:10320000C801B70120E23EE440E050E00E94BBE18B
:103210002093FD103093FE104093FF105093001147
:103220001F910F91FF90EF90DF90CF90BF90AF90E4
:10323000089580915A04882329F480916708813089
:1032400009F046C08091DF109091E010A091E1104C
:10325000B091E2102091610F3091620F4091630FA5
:103260005091640F821B930BA40BB50B809302113A
:1032700090930311A0930411B09305118091021152
:1032800090910311A0910411B0910511813526E4AC
:10329000920720E0A20720E0B2072CF0805A9C4859
:1032A000A040B0400CC0803B29EB92072FEFA20753
:1032B0002FEFB20724F480569347AF4FBF4F809350
:1032C000021190930311A0930411B0930511089576
:1032D000E091660DF091670D8091DF109091E01004
:1032E000A091E110B091E210228D338D448D558D67
:1032F000B9CFE091660DF091670D86899789A08D11
:10330000B18D8D529140A040B04034F18091420483
:1033100090914304A0914404B09145048F5F9F4F66
:10332000AF4FBF4FC9F480916708882349F080915F
:10333000610F9091620FA091630FB091640F04C070
:10334000828D938DA48DB58D809342049093430418
:10335000A0934404B09345048091420490914304A7
:10336000A0914404B0914504B7FD0AC08093DF10DA
:103370009093E010A093E110B093E2100E9419190D
:1033800020918511309186114091871150918811BB
:103390008091231190912411A0912511B0912611B3
:1033A00082179307A407B50714F080E008958FEF04
:1033B0009FEFAFEFBFEF8093420490934304A0933D
:1033C0004404B093450481E080935A0408956F92B9
:1033D0007F928F929F92AF92BF92CF92DF92EF92A5
:1033E000FF920F931F938091B8108A3009F087C025
:1033F000E090C211F090C3110091C4111091C51159
:10340000E114F1040105110509F479C060909411EB
:10341000709095118090961190909711C401B3010E
:103420000E9402DF5B016C016091451170914611B1
:1034300080914711909148116E51704080409040AA
:10344000A80197010E9453E10E9402DF7B018C01D9
:103450006091491170914A1180914B1190914C11DA
:103460006E517040804090400E9402DF9B01AC0191
:10347000C801B7010E9467DE9B01AC01C601B5011E
:103480000E9482DD0E94CFDE20917611309177116B
:103490004091781150917911621673068406950651
:1034A000BCF466157705880599054CF03B014C0185
:1034B000261737074807590714F439014A01609263
:1034C000BE117092BF118092C0119092C1112BC099
:1034D00062177307840795074CF09B01AC016616D1
:1034E00077068806990614F4A40193012093BE116F
:1034F0003093BF114093C0115093C11114C08091FB
:10350000F010813781F08091941190919511A091E4
:103510009611B09197118093BE119093BF11A09313
:10352000C011B093C1118091BE119091BF11A091B3
:10353000C011B091C1112091851130918611409137
:10354000871150918811821B930BA40BB50B8093AC
:10355000061190930711A0930811B09309111F91C0
:103560000F91FF90EF90DF90CF90BF90AF909F9022
:103570008F907F906F9008952091990830919A08CC
:103580008091BD089091BE08281B390B2536310566
:103590001CF08AE080936A122C593F4F1CF486EF8E
:1035A00080936A1280916A1218161CF481508093DD
:1035B0006A1280916A1287FF03C08F5F80936A123C
:1035C00080916A12813019F08F3F09F080E00895F0
:1035D000CF93DF93FC01EB014430510540F083852C
:1035E0009485A585B68588839983AA83BB8384E067
:1035F00090E0DF91CF910895CF93DF93EC01FB0131
:103600004430510540F080819181A281B3818B8744
:103610009C87AD87BE8784E090E0DF91CF910895CD
:10362000FC0163857485858596850E9402DF089577
:10363000FC01DB01452B11F083858C9381E090E048
:103640000895DC01FB01452B19F080811B968C93BA
:1036500081E090E00895FC016385772767FD709510
:10366000872F972F0E9402DF0895FC01DB01423073
:10367000510520F0838594858D939C9382E090E0A2
:103680000895DC01FB014230510530F080819181C9
:103690001C969C938E931B9782E090E00895FC010A
:1036A00063857485882777FD8095982F0E9402DFB7
:1036B0000895FC012385348545855685B901CA01E5
:1036C0000895CF93DF93FC01EB014430510540F0A6
:1036D00083859485A585B68588839983AA83BB83D2
:1036E00084E090E0DF91CF910895CF93DF93EC01D8
:1036F000FB014430510540F080819181A281B3816A
:103700008B879C87AD87BE8784E090E0DF91CF9167
:10371000089500D00F928CE196E0EDB7FEB792834A
:1037200081838BE199E0948383830E94EDCB0F909A
:103730000F900F900F9080E0089500D00F928CE1D1
:1037400096E0EDB7FEB79283818383E79BE0948395
:1037500083830E94EDCB0F900F900F900F900895F0
:1037600000D00F928CE196E0EDB7FEB79283818393
:103770008DE191E1948383830E94EDCB0F900F90B4
:103780000F900F9008958DB79EB740970FB6F8949D
:103790009EBF0FBE8DBFEDB7FEB731968CE196E0B0
:1037A000ADB7BEB712969C938E9311978EEB93E1B3
:1037B000938382838091410F9091420FA091430F98
:1037C000B091440F84839583A683B7838091450F7E
:1037D0009091460FA091470FB091480F8087918735
:1037E000A287B3878091490F90914A0FA0914B0F08
:1037F000B0914C0F84879587A687B7870E94EDCB41
:103800008DB79EB740960FB6F8949EBF0FBE8DBF82
:1038100008958DB79EB740970FB6F8949EBF0FBE20
:103820008DBFEDB7FEB731968CE196E0ADB7BEB770
:1038300012969C938E93119781EE93E193838283EA
:1038400080914D0F90914E0FA0914F0FB091500F5E
:1038500084839583A683B7838091510F9091520FF3
:10386000A091530FB091540F80879187A287B3879F
:103870008091550F9091560FA091570FB091580F0E
:1038800084879587A687B7870E94EDCB8DB79EB7B3
:1038900040960FB6F8949EBF0FBE8DBF08952CE1E1
:1038A00036E0882349F000D00F92EDB7FEB732839F
:1038B000218380E194E108C000D00F92EDB7FEB7FC
:1038C000328321838CE094E1948383830E94EDCB47
:1038D0008CE196E0EDB7FEB79283818385E094E1B9
:1038E000948383830E94EDCB0F900F900F900F90E5
:1038F000089500D00F928CE196E0EDB7FEB7928369
:1039000081838CE294E1948383830E94EDCB0F90BA
:103910000F900F900F9008950F931F938DB79EB740
:103920000A970FB6F8949EBF0FBE8DBFEDB7FEB7D6
:1039300031960CE116E0ADB7BEB712961C930E930C
:1039400011978CEC94E1938382838091B0089091DD
:10395000B108958384838091BD089091BE089783B8
:1039600086838091CA089091CB08918780870E94B6
:10397000EDCBEDB7FEB73196ADB7BEB712961C933F
:103980000E93119789EB94E19383828380910409CC
:103990009091050995838483809111099091120972
:1039A0009783868380911E0990911F099187808754
:1039B0000E94EDCBEDB7FEB73196ADB7BEB712960C
:1039C0001C930E93119786EA94E1938382838091EE
:1039D0005809909159099583848380916509909144
:1039E0006609978386838091720990917309918704
:1039F00080870E94EDCBEDB7FEB73196ADB7BEB76D
:103A000012961C930E93119783E994E1938382831A
:103A10008091AC099091AD09958384838091B90917
:103A20009091BA09978386838091C6099091C709BE
:103A3000918780870E94EDCBEDB7FEB73196ADB789
:103A4000BEB712961C930E93119780E894E193836E
:103A500082838091000A9091010A958384838091EA
:103A60000D0A90910E0A9783868380911A0A90918D
:103A70001B0A918780870E94EDCBEDB7FEB7319688
:103A8000ADB7BEB712961C930E9311978DE694E1D5
:103A9000938382838091540A9091550A95838483FD
:103AA0008091610A9091620A9783868380916E0A61
:103AB00090916F0A918780870E94EDCBEDB7FEB79A
:103AC0003196ADB7BEB712961C930E9311978AE547
:103AD00094E1938382838091A80A9091A90A9583A7
:103AE00084838091B50A9091B60A978386838091EA
:103AF000C20A9091C30A918780870E94EDCBEDB7EF
:103B0000FEB73196ADB7BEB712961C930E931197C0
:103B100087E494E1938382838091FC0A9091FD0A6B
:103B2000958384838091090B90910A0B97838683F8
:103B30008091160B9091170B918780870E94EDCB97
:103B40008DB79EB70A960FB6F8949EBF0FBE8DBF75
:103B50001F910F910895CF93DF93FC018DB79EB70E
:103B600044970FB6F8949EBF0FBE8DBF2DB73EB7DA
:103B70002F5F3F4F8CE196E0ADB7BEB712969C9396
:103B80008E9311978FED94E1E9019B838A83868957
:103B90009789A08DB18D8C839D83AE83BF8385A1D2
:103BA00096A1A7A1B0A588879987AA87BB8784A972
:103BB00095A9A6A9B7A98C879D87AE87BF87ED5B1E
:103BC000FF4F80819181AA2797FDA095BA2FF90117
:103BD000808B918BA28BB38B0E94EDCB8DB79EB760
:103BE00044960FB6F8949EBF0FBE8DBFDF91CF9164
:103BF0000895EF92FF920F931F93CF93DF930E944C
:103C0000B01B68EE73E080E090E00E941FDC3FEDA7
:103C1000E32E36E0F32E0DEA16E0CCE1D6E064E6C2
:103C200070E080E090E00E941FDC0E9468188091A4
:103C3000DA10882301F58DB79EB70A970FB6F8946E
:103C40009EBF0FBE8DBFEDB7FEB73196ADB7BEB705
:103C50001296DC93CE931197F382E2828091D71073
:103C6000848315828091D810868317828091D91021
:103C70008087118623C0ADB7BEB71A970FB6F894E8
:103C8000BEBF0FBEADBFEDB7FEB731961296DC9347
:103C9000CE9311971383028380912F049091300467
:103CA0009583848380913104909132049783868335
:103CB0008091330490913404918780870E94EDCBEA
:103CC0008DB79EB70A960FB6F8949EBF0FBE8DBFF4
:103CD0008CE196E00E9464CC181619060CF09FCF78
:103CE00080E0CDB7DEB7E6E00C94FEE1EF92FF9204
:103CF0000F931F93CF93DF930E94B01B68EE73E086
:103D000080E090E00E941FDC4DECE42E47E0F42EB2
:103D100002EC17E0CCE1D6E000D00F92EDB7FEB791
:103D2000D283C183F482E3820E94EDCB80910B01A8
:103D3000846080930B010F900F900F900F9068EBB1
:103D40007BE080E090E00E941FDCCE010E9464CC0A
:103D500018161906FCF000D00F92EDB7FEB7D2830B
:103D6000C183148303830E94EDCB80910B018B7F71
:103D700080930B010F900F900F900F9068EB7BE0FA
:103D800080E090E00E941FDCCE010E9464CC1816F7
:103D9000190614F680E0CDB7DEB7E6E00C94FEE13C
:103DA0001092D9111092D8111092CC111092CB11FF
:103DB0001092710F10921B0F1092720F1092730FCE
:103DC0001092CE111092CD110E94EBDB6093C711BF
:103DD0007093C8118093C9119093CA1108950E94DD
:103DE000EBDB20915E1130915F1140916011509199
:103DF0006111621B730B840B950B20915A1130914A
:103E00005B1140915C1150915D11261737074807EF
:103E1000590710F080E0089510925A1110925B112A
:103E200010925C1110925D1181E008950E94EBDB0D
:103E300060935E1170935F11809360119093611194
:103E40006091A7117091A8118091A9119091AA1168
:103E500028EE33E040E050E00E9453E160935A11B5
:103E600070935B1180935C1190935D110895809124
:103E7000A0118137C1F0823729F08037B1F40E9458
:103E8000161F08958091A7119091A811A091A911D2
:103E9000B091AA1180935A1190935B11A0935C1179
:103EA000B0935D1108950E94C6170895A8E4B0E08C
:103EB000ECE5FFE10C94D6E180916708882309F4D2
:103EC00015C10E94B01B00E010E055E2252E312CF8
:103ED0002C0E3D1E64E170E080E090E00E941FDC4B
:103EE0000E94EBDB2091CF113091D0114091D11184
:103EF0005091D211621B730B840B950B64317105C9
:103F00008105910508F4E9C00E94EBDB2091CF11F7
:103F1000621B6093D71170E080E090E00E9400DFA8
:103F200020E030E04AE754E40E9467DE60935B04DF
:103F300070935C0480935D0490935E040E94EBDBBD
:103F40006093CF117093D0118093D1119093D211BF
:103F500040915B0450915C0460915D0470915E043B
:103F600089E59FE00E948DB980916708882351F10F
:103F70008091DE118F5F8093DE11853019F580E925
:103F80009DE00E94DF9ADE011196E6E8FFE084E200
:103F900001900D928150E1F780E99DE0BE016F5FD5
:103FA0007F4F0E9409A6D101E6E8FFE084E201907C
:103FB0000D928150E1F780E99DE0B1010E94939F4D
:103FC0001092DE110F5F1F4F053111050CF485C0F3
:103FD00080E99DE00E94FA9DFC0140845184628446
:103FE000738484809580A680B780C080D180E28071
:103FF000F3806091980D7091990D80919A0D909138
:104000009B0D21EE3EE245E652E40E948CE020E06A
:1040100030E048EC52E40E948CE00E94CFDE613A2E
:104020002CE8720720E0820720E092072CF0605A0B
:104030007C488040904006C097FF04C0605673479C
:104040008F4F9F4FEDB7FEB77A970FB6F894FEBF2C
:104050000FBEEDBF0DB71EB70F5F1F4F2CE136E04F
:10406000328321832FEA35E0F8013383228324E66B
:1040700030E040E050E00E94BBE1F801248335834A
:10408000468357838091920D9091930D91878087FD
:104090008091940D9091950D938782878091960DD4
:1040A0009091970D95878487C686D786E08AF18A96
:1040B000828A938AA48AB58A468A578A608E718ECC
:1040C0000E94EDCB00E010E02DB73EB7265E3F4FDB
:1040D0000FB6F8943EBF0FBE2DBF8CE196E00E9454
:1040E00064CC181619060CF0F5CE15C000D00F924E
:1040F0008CE196E0EDB7FEB79283818385EA95E087
:10410000948383830E94EDCB0F900F900F900F90BC
:1041100080E00E944F1C80E0C85BDF4FE2E10C941E
:10412000F2E1EF92FF920F931F93CF93DF9388E614
:104130009DE067E00E94AF90AA2797FDA095BA2F57
:10414000BC01CD010E9402DF60931611709317111C
:104150008093181190931911C0E0D0E064E170E0F1
:1041600080E090E00E941FDC6091161170911711A1
:10417000809118119091191126E636E646E65FE324
:104180000E948CE07B018C0188E69DE067E00E9444
:10419000AF90AA2797FDA095BA2FBC01CD010E9430
:1041A00002DF2DEC3CEC4CEC5DE30E948CE09B01CB
:1041B000AC01C801B7010E9483DD609316117093B2
:1041C000171180931811909319112196C233D105BC
:1041D00029F60E94CFDE70931B1160931A11CDB7A0
:1041E000DEB7E6E00C94FEE1EF92FF920F931F938F
:1041F000CF93DF930E94B01B88E69DE00E94F89069
:1042000068EE73E080E090E00E941FDC00D00F9227
:104210000CE116E0EDB7FEB71283018387E596E067
:10422000948383830E94EDCB0F900F900F900F909B
:1042300068EE73E080E090E00E941FDCC2E4D6E00C
:10424000780189E19FE00E9402C48DB79EB7409734
:104250000FB6F8949EBF0FBE8DBF0DB71EB70F5F90
:104260001F4FEDB7FEB7E182F282F801D383C2831C
:104270006091280F7091290F80912A0F90912B0F38
:104280000E94CFDEF8017583648360912C0F7091DA
:104290002D0F80912E0F90912F0F0E94CFDEF801ED
:1042A000778366836091300F7091310F8091320F68
:1042B0009091330F0E94CFDEF80171876087609183
:1042C0001C0F70911D0F80911E0F90911F0F0E9467
:1042D000CFDEF801738762876091200F7091210F04
:1042E0008091220F9091230F0E94CFDEF8017587F5
:1042F00064876091240F7091250F8091260F909113
:10430000270F0E94CFDEF801778766870E94EDCBEA
:104310008DB79EB740960FB6F8949EBF0FBE8DBF67
:1043200064E670E080E090E00E941FDCC7010E941C
:1043300064CC181619060CF084CF80E0CDB7DEB738
:10434000E6E00C94FEE1A4E2B0E0E9EAF1E20C94CC
:10435000E0E189E19FE060E070E00E948CC80E948B
:10436000B01B68EE73E080E090E00E941FDC75E611
:10437000C72E76E0D72E6CE1E62E66E0F62E8E0193
:104380000F5F1F4F64E170E080E090E00E941FDC4F
:104390000E94EBDB2091CF113091D0114091D111CF
:1043A0005091D211621B730B840B950B6431710514
:1043B0008105910508F489C00E94EBDB2091CF11A3
:1043C000621B6093D71170E080E090E00E9400DFF4
:1043D00020E030E04AE754E40E9467DE60935B042B
:1043E00070935C0480935D0490935E040E94EBDB09
:1043F0006093CF117093D0118093D1119093D2110B
:1044000040915B0450915C0460915D0470915E0486
:1044100089E59FE00E948DB9809167088823D1F0DB
:104420008091DE118F5F8093DE11853099F480E9F1
:104430009DE00E94DF9AD801E6E8FFE084E2019067
:104440000D928150E1F780E99DE0B8010E9409A634
:104450001092DE118DB79EB70A970FB6F8949EBFE3
:104460000FBE8DBFEDB7FEB73196ADB7BEB7129692
:10447000FC92EE921197D382C2828091590F909153
:104480005A0F64E670E00E9486E175836483809130
:104490005D0F90915E0F64E670E00E9486E1778385
:1044A00066838091610F9091620F64E670E00E94D4
:1044B00072E1718760870E94EDCB8DB79EB70A9637
:1044C0000FB6F8949EBF0FBE8DBF8CE196E00E94A0
:1044D00064CC181619060CF055CF80E0A496E8E0DD
:1044E0000C94FCE1E091660DF091670D81A992A911
:1044F0008130910539F00297E9F483E261E00E948E
:104500001DDD089587A18823C9F08091DB1091E01B
:1045100089278093DB10882319F083E260E002C0D2
:1045200083E261E00E941DDDE091660DF091670D70
:1045300017A2089583E260E00E941DDD08950E94A5
:10454000B01B68EE73E080E090E00E941FDC80E426
:1045500096E00E9464CC892B89F084E261E00E949D
:104560001DDD80E496E00E9492CC682F8EE296E0FA
:104570000E94F3CC84E260E00E941DDD8EE296E0B2
:104580000E9464CC892B89F083E261E00E941DDDEA
:104590008EE296E00E9492CC682F80E496E00E9422
:1045A000F3CC83E260E00E941DDD8CE196E00E9486
:1045B00064CC181619065CF680E008950E94B01BC2
:1045C00068EE73E080E090E00E941FDC00D00F9264
:1045D0008CE196E0EDB7FEB7928381838CE397E0A0
:1045E000948383830E94EDCB0F900F900F900F90D8
:1045F00080E496E00E9464CC892B49F080E496E048
:104600000E9492CC682F80E496E00E94F3CC8CE16B
:1046100096E00E9464CC1816190654F780E00895BD
:10462000A0E0B0E0E6E1F3E20C94DEE10E94B01B12
:1046300068EE73E080E090E00E941FDCABE7AA2EFA
:10464000A6E0BA2EF9E7CF2EF6E0DF2EECE1EE2E53
:10465000E6E0FE2E6DE471E080E090E00E941FDC59
:104660000E9472228091660D9091670D0E94D7C2C0
:10467000C091660DD091670D8DA1882309F440C0CB
:104680008DB79EB742970FB6F8949EBF0FBE8DBFF1
:104690000DB71EB70F5F1F4FEDB7FEB7F282E18275
:1046A000F801B382A2828A859B85AC85BD8584830F
:1046B0009583A683B7838E859F85A889B9898087CE
:1046C0009187A287B3876A897B898C899D8924E633
:1046D00030E040E050E00E94BBE1F80124873587DC
:1046E000468757878CA1808B118A0E94EDCB8DB7AE
:1046F0009EB742960FB6F8949EBF0FBE8DBF0EC0F8
:1047000000D00F92EDB7FEB7F282E182D482C3826D
:104710000E94EDCB0F900F900F900F908CE196E0E0
:104720000E9464CC181619060CF094CF80E0CDB727
:10473000DEB7EAE00C94FAE1CF92DF92FF920F939A
:104740001F93CF93DF930E94B01B88E69DE00E94E9
:10475000F89068EE73E080E090E00E941FDC00D0EB
:104760000F920CE116E0ADB7BEB712961C930E93F4
:10477000119788EA96E014969C938E9313970E9463
:10478000EDCB0F900F900F900F9068EE73E080E0EC
:1047900090E00E941FDCB4EACB2EB6E0DB2EC0E036
:1047A000D0E0F02E012F20C088E69DE06C2F0E9403
:1047B000AF9000D000D0EDB7FEB73196ADB7BEB721
:1047C0001196FC92119712960C93D382C282958314
:1047D00084830E94EDCB2196EDB7FEB736960FB6D7
:1047E000F894FEBF0FBEEDBFC930D105ECF28CE1ED
:1047F00096E00E947CDA64E670E080E090E00E943F
:104800001FDC8CE196E00E9464CC181619061CF09F
:10481000C0E0D0E0E9CF80E0DF91CF911F910F9110
:10482000FF90DF90CF900895A0E0B0E0EAE1F4E2DD
:104830000C94DEE126E3A22E27E0B22E90E3C92EEF
:1048400097E0D92E00E010E08CE1E82E86E0F82E0B
:1048500000D000D0EDB7FEB73196ADB7BEB7129617
:10486000FC92EE921197B382A282158304830E9478
:10487000EDCBC0E0D0E08DB79EB706960FB6F894AA
:104880009EBF0FBE8DBFCE01800F911F0E9462E6BA
:1048900000D000D0EDB7FEB73196ADB7BEB71296D7
:1048A000FC92EE921197D382C282848315820E9479
:1048B000EDCB21968DB79EB706960FB6F8949EBFA6
:1048C0000FBE8DBFC031D105F1F6C7010E947CDA61
:1048D000005F1F4F90E10030190709F0B9CF80E069
:1048E000CDB7DEB7EAE00C94FAE1EF92FF920F93B6
:1048F0001F93CF93DF933AE2E32E34E1F32EC0E02F
:10490000D0E00CE116E000D00F92EDB7FEB71283B5
:104910000183F482E3820E94EDCB21960F900F90E9
:104920000F900F90C832D10571F7C80160E072E0B6
:104930000E94C6DACDB7DEB7E6E00C94FEE1CF9375
:10494000DF93EC0107C021978CE196E060E072E014
:104950000E94C6DA1C161D06B4F3DF91CF910895AC
:1049600000D00F928CE196E0EDB7FEB79283818381
:1049700085E595E1948383830E94EDCB0F900F90A2
:104980000F900F900E9475240E94C31B0E94091C67
:1049900082E090E00E949F2408950F931F9300D01F
:1049A0000F920CE116E0ADB7BEB712961C930E93B2
:1049B00011978EE995E114969C938E9313970E941C
:1049C000EDCB0F900F900F900F900E947524EDB7D4
:1049D000FEB73E970FB6F894FEBF0FBEEDBF3196FF
:1049E000ADB7BEB712961C930E9311978AE595E169
:1049F0009383828380915A07992787FD90959583A9
:104A0000848380916607992787FD90959783868395
:104A100080918B07992787FD90959187808780915A
:104A20007207992787FD90959387828780917E07EB
:104A300090917F07958784870E94EDCBEDB7FEB7F5
:104A40003E960FB6F894FEBF0FBEEDBF82E090E039
:104A50000E949F241F910F9108950F931F9300D0E0
:104A60000F920CE116E0ADB7BEB712961C930E93F1
:104A7000119788EC95E114969C938E9313970E945E
:104A8000EDCB0F900F900F900F900E947524EDB713
:104A9000FEB73A970FB6F894FEBF0FBEEDBF319642
:104AA000ADB7BEB712961C930E93119788EA95E1A5
:104AB000938382838091CC069091CD06A091CE06FF
:104AC000B091CF0684839583A683B7838091DB065C
:104AD0009091DC06918780870E94EDCBEDB7FEB701
:104AE0003A960FB6F894FEBF0FBEEDBF82E090E09D
:104AF0000E949F241F910F9108950F931F9300D040
:104B00000F920CE116E0EDB7FEB71283018381E44A
:104B100096E1948383830E94EDCB0F900F900F90CA
:104B20000F900E94752400D00F92EDB7FEB712834C
:104B3000018384E396E1948383830E94EDCB0F90FD
:104B40000F900F900F908FE79BE00E94AB1D00D05D
:104B50000F92EDB7FEB71283018386E296E194834C
:104B600083830E94EDCB0F900F900F900F9080EDFC
:104B70009BE00E94AB1D00D00F92EDB7FEB71283F1
:104B8000018387E196E1948383830E94EDCB0F90AC
:104B90000F900F900F9082E79CE00E94AB1D00D019
:104BA0000F92EDB7FEB7128301838CE096E19483F8
:104BB00083830E94EDCB0F900F900F900F908EE2A9
:104BC0009BE00E94AB1D00D00F92EDB7FEB71283A1
:104BD000018387EF95E1948383830E94EDCB0F904F
:104BE0000F900F900F9081E29CE00E94AB1D00D0CF
:104BF0000F92EDB7FEB71283018384EE95E19483A3
:104C000083830E94EDCB0F900F900F900F9083EC59
:104C10009CE00E94AB1D00D00F92EDB7FEB712834F
:104C2000018384ED95E1948383830E94EDCB0F9003
:104C30000F900F900F9084E19DE00E94AB1D82E0E9
:104C400090E00E949F241F910F91089500D00F9231
:104C50008CE196E0EDB7FEB79283818388E496E11C
:104C6000948383830E94EDCB0F900F900F900F9051
:104C70000E9475240E948C1C82E090E00E949F2478
:104C80000895CF93DF9300D00F92CCE1D6E0EDB73B
:104C9000FEB7D283C1838FEB96E1948383830E9416
:104CA000EDCB0F900F900F900F900E947524809184
:104CB0008008882381F400D00F92EDB7FEB7D2832D
:104CC000C18386EA96E1948383830E94EDCB0F90A3
:104CD0000F900F900F9080918008813091F400D058
:104CE0000F928CE196E0EDB7FEB79283818384E961
:104CF00096E1948383830E94EDCB0F900F900F90E9
:104D00000F9080918008823091F400D00F928CE156
:104D100096E0EDB7FEB79283818382E896E19483B3
:104D200083830E94EDCB0F900F900F900F90809196
:104D30008008833091F400D00F928CE196E0EDB7BB
:104D4000FEB7928381838CE696E1948383830E94ED
:104D5000EDCB0F900F900F900F90809180088430D2
:104D600091F400D00F928CE196E0EDB7FEB79283FC
:104D700081838FE496E1948383830E94EDCB0F902F
:104D80000F900F900F9082E090E00E949F24DF919F
:104D9000CF910895FF920F931F93F62E00D000D06D
:104DA000EDB7FEB731960CE116E0ADB7BEB712967F
:104DB0001C930E9311972EE334E133832283848373
:104DC00015820E94EDCB8DB79EB706960FB6F8946C
:104DD0009EBF0FBE8DBFEF2DF0E0EE0FFF1FE75F10
:104DE000FB4F60817181C8010E94C6DA1F910F914B
:104DF000FF900895CF93DF9300D00F928CE196E05F
:104E0000EDB7FEB79283818385E095E19483838338
:104E10000E94EDCB0F900F900F900F900E94752481
:104E2000C0E0D0E0FE01E953F84F8C2F60810E9472
:104E3000CA262196C630D105A9F782E090E00E94EB
:104E40009F24DF91CF910895FB0184859585A685E8
:104E5000B78585309105A105B10538F480938008A8
:104E600085E798E00E94EA9212C000D00F928CE190
:104E700096E0EDB7FEB7928381838EE09AE094834B
:104E800083830E94EDCB0F900F900F900F900E94A4
:104E9000412680E0089510921E0783E197E00E946A
:104EA000EA921092ED101092EE101092A011089557
:104EB0006091A3117091A4118091A5119091A611F8
:104EC000161617061806190674F424E630E040E0BA
:104ED00050E00E9453E1709325086093240889E113
:104EE00098E00E94EA926091A7117091A8118091B8
:104EF000A9119091AA11161617061806190664F43E
:104F000024E630E040E050E00E9453E160938B07DC
:104F100080E897E00E94EA9208958EE491E09093F1
:104F20001808809317088CE098E00E94EA92089590
:104F30008BE08093C7078093C80782E08093C907FE
:104F40008093CA071092CB071092CC078CEB97E0A6
:104F50000E94EA92089500D00F928CE196E0EDB79E
:104F6000FEB79283818388E29BE0948383830E94CF
:104F7000EDCB0F900F900F900F908CE196E00E9478
:104F800092CCFFEF8F3F9F07C1F38937910529F03E
:104F90008935910511F08FEF08950E94B09300D0EC
:104FA0000F928CE196E0EDB7FEB79283818381EF9B
:104FB0009AE0948383830E94EDCB0F900F900F9023
:104FC0000F90FFCFEF92FF920F931F93CF93DF933A
:104FD0007B018230A1F000D00F928CE196E0EDB71A
:104FE000FEB79283818389E89CE0948383830E9447
:104FF000EDCB8FEF0F900F900F900F9081C0FB01C2
:1050000002851385C80165E87CE00E946FE3892B67
:1050100019F4CFEFDFEF53C0C80167E77CE00E94CF
:105020006FE3C0E0D0E0892B11F4C1E0D0E0C8010B
:105030006AE67CE00E946FE3892B09F4C260C80134
:1050400066E67CE00E946FE3892B09F4C460C80126
:1050500063E67CE00E946FE3892B09F4C860C80115
:105060006EE57CE00E946FE3892B09F4C061C80102
:1050700069E57CE00E946FE3892B09F4C062C801F6
:1050800064E57CE00E946FE3892B09F4C064C801E9
:1050900060E57CE00E946FE3892B09F4C068C801D9
:1050A0006CE47CE00E946FE3892B09F4D160C801B5
:1050B00068E47CE00E946FE3892B09F4D260F70179
:1050C0008081918161E47CE00E946FE3892B39F457
:1050D0008091170890911808C82BD92B08C0C0954B
:1050E000D0958091170890911808C823D923D093A0
:1050F0001808C09317088CE098E00E94EA9280E0BC
:10510000CDB7DEB7E6E00C94FEE1FF920F931F935C
:10511000F82E0DE915E1C80163EA0E94FBC9C80138
:1051200065E90E94FBC9C80163E00E94FBC9C80190
:105130006F2D0E94FBC9C8016AEB0E94FBC91F9139
:105140000F91FF900895EF92FF920F931F93CF93CB
:10515000DF935AEBE52E5CE0F52ECAE0D0E00CE1DF
:1051600016E000D000D0EDB7FEB73196ADB7BEB7B0
:1051700012961C930E931197F382E282D583C48317
:105180000E94EDCBEDB7FEB736960FB6F894FEBF92
:105190000FBEEDBF68EE73E080E090E00E941FDC80
:1051A0002197F9F600D00F92ADB7BEB712961C93B7
:1051B0000E93119789EA9CE014969C938E93139713
:1051C0000E94EDCBC1E0D0E00F900F900F900F90B8
:1051D0008DE995E1BE010E9451C92196B0E1C03030
:1051E000DB07B1F78DE995E161E070E00E9445C908
:1051F0008DE995E163EA0E94FBC98DE995E165E9D6
:105200000E94FBC98DE995E160EF0E94FBC98DE921
:1052100095E160E00E94FBC98DE995E16AEB0E948F
:10522000FBC98DE995E10E9473CA00D00F928CE111
:1052300096E0EDB7FEB7928381838BE99CE094837F
:1052400083830E94EDCB0F900F900F900F90CDB7FE
:10525000DEB7E6E00C94FEE18F929F92AF92BF9290
:10526000CF92DF92EF920F931F936C014A015B0183
:10527000A801B9012E2D0E943C958AE994E0F6011F
:105280009183808383869486A586B68680913B151C
:1052900090913C150F9690933C1580933B151F9170
:1052A0000F91EF90DF90CF90BF90AF909F908F9035
:1052B0000895EF92FF920F931F937C01162FBA016E
:1052C000A901202F0E943C9584EC94E0F701918382
:1052D0008083138780913B1590913C150C96909399
:1052E0003C1580933B151F910F91FF90EF9008950F
:1052F000CF92DF92EF92FF920F937C016B01BA0184
:10530000A901202F0E943C9582ED94E0F701918342
:105310008083D486C38680913B1590913C150D9671
:1053200090933C1580933B150F91FF90EF90DF9089
:10533000CF9008950F931F938C0124600E943C9599
:1053400085E395E0F8019183808380913B159091EE
:105350003C150B9690933C1580933B151F910F9134
:105360000895FC018AE994E091838083CF010E9433
:10537000A3940895FC0188EA94E091838083CF018F
:105380000E94A3940895FC0186EB94E091838083AE
:10539000CF010E94A3940895FC0184EC94E09183D2
:1053A0008083CF010E94A3940895FC0182ED94E0D4
:1053B00091838083CF010E94A3940895FC018AE920
:1053C00094E091838083CF010E94A3940895FC010F
:1053D0008EEE94E091838083CF010E94A394089580
:1053E0000F931F938C0180579F4F0E94D529C801AE
:1053F0008D579F4F0E94D529C8018A589F4F0E9400
:10540000D529C80187599F4F0E94D529C801845AC0
:105410009F4F0E94D529C801815B9F4F0E94D529CB
:10542000C8018E5B9F4F0E94D529C801C5960E9476
:10543000D52985E395E0F80193A782A7C8018A964C
:105440000E94A3941F910F9108950F931F938C01B5
:10545000C8960E94D529C80189960E94DE29C801F4
:105460004A960E94DE29C8010B960E94DE2985E338
:1054700095E0F80191838083C8010E94A3941F9155
:105480000F9108950F931F938C018D5B9F4F0E9486
:10549000CC29C801C1960E94D529C80184960E94D2
:1054A000D529C80147960E94D52985E395E0F801E2
:1054B00091838083C8010E94A3941F910F91089546
:1054C000FC018CEF94E091838083CF010E94A39430
:1054D0000895FC018AE095E091838083CF010E94CA
:1054E000A39408950F931F938C018AE994E0F80127
:1054F00091838083C8010E94A394C8010E940799E8
:105500001F910F9108950F931F938C0188EA94E0E7
:10551000F80191838083C8010E94A394C8010E946E
:1055200007991F910F9108950F931F938C0186EB9C
:1055300094E0F80191838083C8010E94A394C8017C
:105540000E9407991F910F9108950F931F938C014B
:1055500084EC94E0F80191838083C8010E94A394B5
:10556000C8010E9407991F910F9108950F931F93EF
:105570008C0182ED94E0F80191838083C8010E9440
:10558000A394C8010E9407991F910F9108950F934A
:105590001F938C018AE994E0F80191838083C8010C
:1055A0000E94A394C8010E9407991F910F9108952A
:1055B0000F931F938C018EEE94E0F801918380830A
:1055C000C8010E94A394C8010E9407991F910F91DE
:1055D00008950F931F938C018CEF94E0F801918351
:1055E0008083C8010E94A394C8010E9407991F915B
:1055F0000F9108950F931F938C018AE095E0F801B5
:1056000091838083C8010E94A394C8010E940799D6
:105610001F910F9108954630510540F0DC011B9613
:10562000FB0186E001900D928150E1F786E090E069
:105630000895FC014630510538F0DB013B9686E0C9
:1056400001900D928150E1F786E090E00895483195
:10565000510540F0DC011B96FB0188E101900D92A1
:105660008150E1F788E190E00895FC01483151054F
:1056700038F0DB013B9688E101900D928150E1F713
:1056800088E190E008954C30510540F0DC011B9614
:10569000FB018CE001900D928150E1F78CE090E0ED
:1056A0000895FC014C30510538F0DB013B968CE04D
:1056B00001900D928150E1F78CE090E00895443222
:1056C000510540F0DC011B96FB0184E201900D9234
:1056D0008150E1F784E290E00895FC0144325105E5
:1056E00038F0DB013B9684E201900D928150E1F7A6
:1056F00084E290E00895A6E0B1E0E1E8FBE20C94DA
:10570000D6E1682E292E59016A0148015E2C7F2CB2
:10571000309090044090910486E18D83DE011696CE
:10572000FB018FE001900D928150E1F766E0E62EDB
:10573000F12CEC0EFD1EC601B5014FE097010E9451
:105740007A13082F10E0E82FE15FF0E0D701AE0FE9
:10575000BF1F9C92DE011796EA0FFB1F80828F5EAF
:1057600090E0E80EF91EF7017082A80FB91F5C9255
:105770000D5E1F4F7E010894E11CF11CC701632DD3
:10578000442D262D0E945412862D922DB7010E9481
:105790007D13CA5FDE4FE2E10C94F2E1A6E0B1E0D6
:1057A000E4EDFBE20C94E0E1D82EC92E10919004B8
:1057B000709191048EEF8D836E83DE011796FA014E
:1057C00082E301900D928150E1F77E010894E11C83
:1057D000F11CC701612F472F2D2D03E310E00E941C
:1057E00054128D2D9C2DB7010E947D13CA5FDE4F90
:1057F000E8E00C94FCE1A3E3B0E0E1E0FCE20C940F
:10580000E6E1DE0112969E012C5C3F4FFA014F5FEC
:105810005F4FE491ED93A217B307C1F7FC018285B6
:105820009385AE014E5F5F4F0E94CE2BE396E2E080
:105830000C9402E280912A07992787FD9095A92F61
:10584000B92F209145113091461140914711509147
:10585000481182179307A407B50714F480E0089550
:105860008BE190E161E046E259E10E94FB2B81E08F
:1058700008958091F010813761F1823728F48823F0
:10588000A1F1803749F503C0823731F503C00E948A
:10589000EF1E089520914511309146114091471116
:1058A0005091481180915A1190915B11A0915C1117
:1058B000B0915D11281739074A075B07BCF41092B5
:1058C0005A1110925B1110925C1110925D1181E0DF
:1058D00008950E94121808958BE190E163E047EA71
:1058E00059E10E94FB2B80E00895089580E008951F
:1058F000A0E0B0E0EEE7FCE20C94DEE1742F052FAF
:105900005901C82EDD24C601880F991FDC0143E030
:10591000AA0FBB1F4A95E1F7A81BB90BA559BD4EAD
:1059200015968D919C9116970197099758F11C92A5
:1059300011961C921197F60133E0EE0FFF1F3A9576
:10594000E1F7EC19FD09EE0FFF1FE359FD4E108240
:1059500013961C92139714961C92149716961C92E9
:105960001E92159717961C9217971D961C921E92C1
:105970001C971B961C921E921A9718961C921897A9
:1059800019961C9286E091E0C89EA001C99E500D18
:10599000D89E500D112449575D4EF60193E0EE0F4D
:1059A000FF1F9A95E1F7EC19FD09EE0FFF1FE35970
:1059B000FD4E1082C601880F991FFC01A3E0EE0F77
:1059C000FF1FAA95E1F7E81BF90BE559FD4E05808D
:1059D000F681E02DEA30F10508F0C0C1E358FF4F31
:1059E000EC010C940DE2653509F0B8C1C601880FD1
:1059F000991FFC0123E0EE0FFF1F2A95E1F7E81B3A
:105A0000F90BE559FD4E82E090E0968385832FEFF8
:105A10003FEF86E091E0C89EF001C99EF00DD89E50
:105A2000F00D1124E957FD4EEC5FFE4F21933083BA
:105A300095C186E091E0C89EF001C99EF00DD89E08
:105A4000F00D1124E957FD4E60838E01B3E0000F85
:105A5000111FBA95E1F70C1B1D0B05591D4ED801FE
:105A600017961C92CA010E94C71284E090E0F801C8
:105A70001BC086E091E0C89EF001C99EF00DD89E43
:105A8000F00D1124E957FD4E6183CA010E94C7122F
:105A9000FE01A3E0EE0FFF1FAA95E1F7EC1BFD0B43
:105AA000E559FD4E83E090E09683858357C183E8F6
:105AB00090E0C89EF001C99EF00DD89EF00D112413
:105AC000EE0FFF1FE757FD4E6083CA010E94C71209
:105AD000FE0133E0EE0FFF1F3A95E1F7EC1BFD0BE3
