:100000000C94D70B0C94010C0C94010C0C94010C67
:100010000C94010C0C94010C0C94010C0C94010C2C
:100020000C94010C0C94010C0C94010C0C94010C1C
:100030000C94010C0C94010C0C94010C0C94E58AAA
:100040000C94010C0C94010C0C94010C0C94010CFC
:100050000C94010C0C94010C0C94010C0C9462D5C2
:100060000C94010C0C94EE0F0C942E100C94010CBB
:100070000C94010C0C94010C0C94010C0C94010CCC
:100080000C94010C0C94010C0C94010C0C94010CBC
:100090000C9480100C94C0100C94010C0C9499D109
:1000A0000C94010C0C9451890C94010C0C94010CCF
:1000B0000C94010C0C94010C0C94010C0C94010C8C
:1000C0000C94010C0C94010C0C94010C0C94010C7C
:1000D0000C94010C0C94010C0C9412110C94521100
:1000E0000C94010C742874289A28D828BA28F62869
:1000F000122942297129C9294B737E73887394731D
:100100009E73B77CA773B77CB77CB77CB073BD73A5
:10011000C973F973F773F773F7730574F773FB73A8
:10012000F773F773087410740A740D74F773F77328
:10013000F773F773F773F773F773F773F773107455
:10014000F7731274C889CD89D289D789DC89E1898E
:10015000E689EB89F089F589FA890ABA05BA0EBAF7
:1001600012BA1FBA37BA5CBA6CBA98BB93BB9CBBC5
:10017000A4BBC8BBD3BBEABB06BC0DBC9FD6A2D6F2
:1001800095D699D6DBD6A6D6AAD6B0D6B4D6B8D64A
:10019000BED6C2D6C6D6CCD6D0D6D6D6036EDB3621
:1001A0003D9A9999993DABAAAA2A3E000000803F4A
:1001B000084AD73B3BCE016E84BCBFFDC12F3D6CCE
:1001C00074319ABD56833DDA3D00C77F11BED9E434
:1001D000BB4C3E916BAAAABE000000803F072C7A60
:1001E000A5BA6CC590DA3B9365FC8BBC53F810FD47
:1001F0003C5692834DBD879D3AB63DCBC9BF5BBE91
:1002000073DA0FC93F05A84CCDB2D44EB93836A920
:10021000020C50B9918688083CA6AAAA2ABE000002
:1002200000803F08000000BE922449123EABAAAAFB
:100230002ABECDCCCC4C3E00000080BEABAAAAAA00
:100240003E00000000BF000000803F0000000000F2
:10025000084178D3BB4387D1133D190E3CC3BD423F
:1002600082AD2B3E68EC8276BED98FE1A93E4C80F0
:10027000EFFFBE01C4FF7F3F00000000004C6F672E
:100280000064756D700000000000000000000006B2
:100290005D6572617365000000000000000000C52C
:1002A00025656E61626C65000000000000000004BE
:1002B0002564697361626C65000000000000000441
:1002C0002568656C70000000000000000000002D33
:1002D00017736574757000657261736500000000C6
:1002E000000000000027387265736574000000008C
:1002F0000000000000C724706964000000000000D6
:1003000000000000006923726164696F0000000052
:10031000000000000049406D6F746F7273000000B0
:10032000000000000009426C6576656C000000006A
:1003300000000000005F236D6F6465730000000023
:100340000000000000F33F6672616D650000000070
:100350000000000000992063757272656E740000E1
:1003600000000000007F21736F6E617200000000CA
:1003700000000000009C37636F6D706173730000B4
:100380000000000000FF386465636C696E61746989
:100390006F6E000000EB3873686F7700000000009C
:1003A0000000000000C33841434D006C6F677300CC
:1003B0000000000000000000000B377365747570CA
:1003C000000000000000000000BD3674657374007A
:1003D000000000000000000000A63668656C700098
:1003E000000000000000000000191774657374001D
:1003F00070776D0000000000000000000000813FE9
:10040000726164696F000000000000000000153F89
:100410006661696C73616665000000000000153E4E
:1004200073746162696C697A650000000000828300
:1004300067707300000000000000000000002C1D29
:100440006164630000000000000000000000B31CB5
:10045000696D750000000000000000000000B2821D
:100460006261747465727900000000000000051775
:1004700074756E6500000000000000000000023E80
:1004800074726900000000000000000000009F3D41
:1004900063757272656E7400000000000000163D06
:1004A00072656C6179000000000000000000C41754
:1004B000776179706F696E74730000000000995362
:1004C000616C7469747564650000000000004D3B48
:1004D000636F6D7061737300000000000000871A85
:1004E00078626565000000000000000000009217BF
:1004F000656564756D700000000000000000241A3E
:1005000072617767707300000000000000005317ED
:100510006D697373696F6E00000000000000335452
:10052000777000202530327800253034783A004248
:100530006567696E205842656520582D43545520E3
:1005400052616E676520616E642052535349205496
:100550006573743A0A00436F6D706173733A2000DB
:1005600048656164696E673A20256C642C2058598F
:100570005A3A2025642C2025642C2025642C095807
:10058000595A6F66663A2025362E32662C2025365B
:100590002E32662C2025362E32660A00425F616CB0
:1005A000743A20256C642C20535F616C743A2025CA
:1005B0006C640A00486974207261646975733A203A
:1005C00025640A00256420776179706F696E747301
:1005D0000A006F662025646D0A000A00486F6C648B
:1005E00020616C746974756465200052656C617972
:1005F000206F66660A0052656C6179206F6E0A0092
:10060000563A2025342E34662C20413A2025342EAB
:1006100034662C206D41683A2025342E34660A0059
:10062000696E7075743A202564096F7574707574FD
:1006300025640A004E6F7420656E61626C65640A01
:1006400000723A20256C6409703A20256C640920F8
:10065000793A20256C640A00693A2564090041440E
:10066000430A004C61743A20256C642C204C6F6E58
:1006700020256C642C20416C743A20256C646D2C10
:100680002023736174733A2025640A00723A20258E
:10069000642C20703A25642C207263313A25642C36
:1006A00020006D61785F73746162696C697A655F5F
:1006B00064616D70656E65723A25640A0A20006790
:1006C0002E7069645F73746162696C697A655F72C8
:1006D0006F6C6C2E6B503A2025342E34660A004C19
:1006E0004F5320636175736564206E6F206368618A
:1006F0006E676520696E2041434D2E0A00544852B2
:100700004F54544C45204641494C534146452041A5
:1007100043544956415445443A2025642C20004313
:100720004F4E54524F4C204D4F4445204348414E6C
:100730004745443A20005448524F54544C452043B6
:1007400048414E474544202564200A00556E706C90
:10075000756720626174746572792C207468726F99
:1007600074746C6520696E206E65757472616C2C92
:10077000207475726E206F666620726164696F2ED8
:100780000A00494E2020313A20256409323A2025BA
:100790006409333A20256409343A20256409353A3E
:1007A00020256409363A20256409373A2025640A51
:1007B00000494E3A20313A20256409323A20256416
:1007C00009333A20256409343A20256409353A2052
:1007D000256409363A20256409373A20256409380A
:1007E0003A2025640A00436F6D6D616E64733A0AA6
:1007F00020206C6F67730A202073657475700A205F
:1008000020746573740A0A4D6F76652074686520DC
:10081000736C6964652073776974636820616E64C2
:1008200020726573657420746F20464C592E0A0A35
:10083000000A4F7074696F6E733A5B6F6E2C6F664F
:10084000665D0A006F6666006F6E000A4F7074691D
:100850006F6E733A5B6F6E2C206F66665D0A006F79
:100860006666006F6E000A4F7074696F6E733A5B54
:100870006F6E2C206F66662C206D41685D0A006FDC
:100880006666006F6E000A4F7074696F6E733A5B34
:100890002B2C20782C207472692C20686578612CB0
:1008A0002079365D0A00686578612B00793600682A
:1008B00065786178007472690078002B000A4D6FCA
:1008C000766520524320746F67676C652073776983
:1008D00074636820746F206561636820706F73694A
:1008E00074696F6E20746F20656469742C206D6F5D
:1008F00076652061696C65726F6E20737469636BD5
:1009000020746F2073656C656374206D6F6465730C
:100910002E000A4D6F766520616C6C20636F6E74DB
:10092000726F6C7320746F206561636820657874E2
:1009300072656D652E2048697420456E746572205D
:10094000746F20736176653A2000736F6E61720078
:100950006261726F006E6176007961770073746115
:1009600062696C697A650064656661756C74000A19
:10097000464143544F525920524553455420636FCA
:100980006D706C657465202D207265626F6F7420C8
:1009900041504D000A275927202B20456E7465725F
:1009A00020746F20666163746F727920726573655D
:1009B000742C20616E79206F74686572206B657984
:1009C00020746F2061626F72743A0A000A436F6D7F
:1009D0006D616E64733A0A202064756D70203C6E00
:1009E0003E202065726173652028616C6C206C6FFD
:1009F0006773290A2020656E61626C65203C6E6118
:100A00006D653E207C20616C6C0A202064697361F6
:100A1000626C65203C6E616D653E207C20616C6C73
:100A20000A0A00656E61626C650043555252454E7C
:100A30005400434D4400524157004D4F4445004E31
:100A400054554E004354554E00504D0047505300EE
:100A500041545449545544455F4D45440041545414
:100A600049545544455F4641535400616C6C006DD8
:100A7000697373696E67206C6F6720747970650A9B
:100A8000000A4C6F67206572617365642E0A000A64
:100A900045726173696E67206C6F672E2E2E0A0097
:100AA000415454454E54494F4E202D204572617398
:100AB000696E67206C6F6720696E202564207365FE
:100AC000636F6E64732E0A00446F6E650A0044758E
:100AD0006D70696E67204C6F67206E756D62657210
:100AE0002025642C202020207374617274202564DA
:100AF0002C202020656E642025640A006261642039
:100B00006C6F67206E756D6265720A005941575FA0
:100B100044414D50005354425F44414D50005448AD
:100B2000525F534F4E5F005448525F4241525F0044
:100B30004E41565F57505F004E41565F4C4F4E5FDF
:100B4000004E41565F4C41545F005354425F59413F
:100B5000575F005354425F5049545F005354425F03
:100B6000524C4C5F004143525F5941575F00414333
:100B7000525F5049545F004143525F524C4C5F00FA
:100B8000524331305F005243395F005243385F00B7
:100B90005243375F005243365F005243355F005285
:100BA00043345F005243335F005243325F0052438D
:100BB000315F004D41475F454E41424C45004D413C
:100BC000480043555252454E545F454E41424C45B4
:100BD00000534F4E41525F454E41424C45004652F4
:100BE000414D455F434F4E46494700414C545F4895
:100BF0004F4C445F52544C00474E445F4142535F58
:100C0000505245535300474E445F54454D50004C9D
:100C10004F475F4249544D41534B0050495443485C
:100C20005F4D415800464C494748545F4D4F44453D
:100C30005300464C545F4D4F44455F434800545267
:100C4000494D5F5448524F54544C45005448525FEC
:100C500046535F56414C5545005448525F46535FDA
:100C6000414354494F4E005448525F4641494C530A
:100C7000414645005448525F4D4158005448525F28
:100C80004D494E004C4F495445525F5241444955DD
:100C9000530057505F5241444955530057505F4DE0
:100CA0005553545F494E4445580057505F494E4490
:100CB00045580057505F544F54414C0057505F4DBA
:100CC0004F44450058545241434B5F414E474C45B9
:100CD000005854524B5F4741494E004D4158005413
:100CE00052494D004D494E00494D4158004400497C
:100CF000005000494D555F53454E534F525F43419D
:100D00004C004C6F6720232025642C20202020736A
:100D1000746172742025642C202020656E64202567
:100D2000640A000A2564206C6F67730A000A4E6F1C
:100D3000206C6F67730A0043555252454E54002091
:100D4000255300434D4400202553005241570020B5
:100D50002553004D4F444500202553004E54554E19
:100D600000202553004354554E0020255300504D7C
:100D70000020255300475053002025530041545470
:100D800049545544455F4D45440020255300415486
:100D90005449545544455F4641535400202553005F
:100DA0006E6F6E65006C6F677320656E61626C6557
:100DB000643A200048697420456E74657220746F2F
:100DC00020657869742E0A0A0054657374204D6F8B
:100DD00064650A0A0047524F554E4420535441520D
:100DE00054000A456E746572696E6720696E746599
:100DF00072616374697665207365747570206D6FB8
:100E000064652E2E2E0A0A54797065202768656C59
:100E1000702720746F206C69737420636F6D6D612F
:100E20006E64732C2027657869742720746F206C9A
:100E3000656176652061207375626D656E752E0A39
:100E400056697369742074686520277365747570BA
:100E500027206D656E7520666F72206669727374E7
:100E60002D74696D6520636F6E6669677572617454
:100E7000696F6E2E0A0A00506C65617365205275A9
:100E80006E2053657475702E2E2E0A000A0A496E64
:100E900069742041434D0A0A52414D3A20256C7530
:100EA0000A004779726F206F6666736574733A2023
:100EB00025342E32662C2025342E32662C20253403
:100EC0002E32660A00416363656C206F6666736547
:100ED00074733A2025342E32662C2025342E326647
:100EE0002C2025342E32660A0061626C65640A008B
:100EF00064697300656E00646F6E650A000A45726E
:100F00006173696E6720454550524F4D0A000A5380
:100F1000617665642053657474696E67730A0A00AC
:100F2000506F732025643A20004348383A202564E6
:100F3000207C2025640A004348373A202564207C21
:100F40002025640A004348363A202564207C202569
:100F5000640A004348353A202564207C2025640A31
:100F6000004348343A202564207C2025640A00434D
:100F700048333A202564207C2025640A0043483207
:100F80003A202564207C2025640A004348313A2019
:100F90002564207C2025640A00503A2025342E3315
:100FA000662C20493A25342E33662C20443A2534C9
:100FB0002E33662C20494D41583A256C640A004670
:100FC0006C69676874206D6F6465730A004D6167B2
:100FD000206F6666736574733A2025342E34662C50
:100FE0002025342E34662C2025342E3466004D61A5
:100FF00067204465633A2025342E34660A00436F27
:101000006D706173730A00494D550A006D696E3A3F
:101010002025640A6D61783A2025640A6372756937
:1010200073653A2025640A6661696C736166655F61
:10103000656E61626C65643A2025640A6661696C5C
:10104000736166655F76616C75653A20256400544E
:1010500068726F74746C650A0058545241434B3A7D
:101060002025342E32660A58545241434B20616E7B
:10107000676C653A2025640A50495443485F4D41E6
:10108000583A20256C640058547261636B0A0073EF
:101090006F6E6172207468726F74746C653A0A00C6
:1010A0006261726F207468726F74746C653A0A00C2
:1010B0006C6F6E673A0A004E61763A0A6C61743A58
:1010C0000A0059617720443A2025342E33660A0AF3
:1010D000005374616220443A2025342E33660A009E
:1010E0007961773A0A0070697463683A0A000A53B2
:1010F000746162696C697A653A0A726F6C6C3A0A5B
:10110000007961773A0A0070697463683A0A0041AD
:1011100063726F3A0A726F6C6C3A0A004761696ECB
:10112000730A00526164696F0A006672616D65201E
:10113000282564290048455841202B0059362000B5
:10114000484558412058005452492000506C75734E
:1011500020005820004672616D650A0046572056EF
:10116000657273696F6E2025640A00536F6E617239
:101170000A000A4750530A006D61683A202564004E
:1011800043757272656E74200A00636F6D6D616ED7
:101190006420233A2025642069643A2564206F7016
:1011A0003A25642070313A25642070323A256C6407
:1011B0002070333A256C642070343A256C64200A20
:1011C000000A20547970652027726164696F2720B6
:1011D000746F20636F6E666967757265206E6F77D6
:1011E0002E0A0A000A215761726E696E672C2079F7
:1011F0006F757220726164696F206973206E6F74FD
:1012000020636F6E6669677572656421005365744B
:101210007570204D6F64650A0A0A003C6E6176693C
:10122000676174653E205750206572726F72202D81
:101230002064697374616E6365203C2030004C6FDC
:1012400077204261747465727921006F7574206F24
:101250006620636F6D6D616E64732100526561631A
:1012600068656420686F6D65007665726966795F90
:101270006D7573743A204C4F495445522074696D12
:101280006520636F6D706C657465004572726F7276
:101290002045423A2025640A004572726F72205040
:1012A0003A2025640A005241573A004D4F443A0013
:1012B0004154543A2025642C2025642C2025750A9D
:1012C00000434D443A00504D3A004354554E2C20B3
:1012D00025642C2025642C2025642C2025642C20BA
:1012E00025642C2025642C2025642C2025312E34C7
:1012F000662C2025312E34662C2025312E34662C88
:101300002025642C2025642C2025640A0043555296
:10131000523A2025642C20256C642C2025342E3450
:10132000662C2025342E34662C2025640A00475074
:10133000532C20256C642C2025642C2025642C2023
:1013400025342E37662C2025342E37662C20253464
:101350002E34662C2025342E34662C2025342E3451
:10136000662C2025342E34660A004E54554E2C200F
:1013700025642C2025642C2025642C2025642C2019
:1013800025642C2025642C2025642C2025642C2009
:1013900025642C2025642C2025640A003C7374618C
:1013A00072745F6E65775F6C6F673E204C6F67731A
:1013B0002066756C6C00666C6967687420706C617F
:1013C0006E20726563656976656400616374696F38
:1013D0006E20726563656976656400636F6D706F1A
:1013E0006E656E74206964206D69736D61746368E5
:1013F00000776179706F696E7420726563656976D4
:10140000652074696D656F757400776179706F69B7
:101410006E742073656E642074696D656F757400F9
:10142000253033753A25733A20006E6F7420666F4D
:10143000756E6400253033753A252D33322E3332E4
:10144000733A2000756E6B6E6F776E2074797065DD
:10145000006E6F7420666F756E640025733A20000D
:101460006D697373696E67206E616D65206F7220A0
:1014700076616C7565003F3F00256400256400259A
:101480006C640025660025660065786974006865EF
:101490006C700044454300434F4D504153535F002F
:1014A000245047434D442C31362C302C302C302CDA
:1014B000302C302A36410D0A0024505542582C3425
:1014C000312C312C303030332C303030312C33381B
:1014D0003430302C302A32360024505352463130CA
:1014E000302C302C33383430302C382C312C302AFE
:1014F00033430020536952462000204D544B312E77
:101500003620002075626C6F782000204D544B31DE
:101510002E3420006661696C65642C2072657472DB
:1015200079696E67004F4B0020002A00496E69748C
:1015300020416363656C002A00496E697420477915
:10154000726F006E616E00696E660000407A10F383
:101550005A00A0724E18090010A5D4E80000E876E1
:1015600048170000E40B54020000CA9A3B00000038
:10157000E1F505000080969800000040420F000051
:1015800000A08601000000102700000000E8030012
:101590000000006400000000000A000000000001DC
:1015A00000000000002C76D888DC674F0823DFC1DC
:1015B000DFAE59E1B1B796E5E3E453C63AE6519997
:1015C0007696E8E6C28426EB898C9B62ED407C6FC0
:1015D000FCEFBC9C9F40F2BAA56FA5F490055A2A77
:1015E000F75C936B6CF9676DC11BFCE0E40D47FE83
:1015F000F520E6B500D0ED902E0300943577050078
:1016000080841E080000204E0A000000C80C3333FE
:1016100033330F986E12831141EF8D2114893BE60D
:101620005516CFFEE6DB18D1844B381BF77C1D9096
:101630001DA4BBE424203284725E228100C9F124FF
:10164000ECA1E53D2700002100240027002A002D01
:10165000003000330001010000040107010A01000D
:10166000002200250028002B002E0031003400024B
:10167000010000050108010B0100002000230026E5
:101680000029002C002F0032000001000003010699
:1016900001090105050505070508080808020202F9
:1016A000020A0A08080404040401010101010101FD
:1016B000010303030303030303040707070C0C0CD4
:1016C0000C0C0C0C0C0202020206060606060606AC
:1016D000060B0B0B0B0B0B0B0B0102102020080849
:1016E0001020401020408002010201080402010184
:1016F000020408102040808040201008040201806D
:1017000004020180402010080402010804020101C3
:1017100002040810204080010204081020408000CC
:1017200000090A02080B0C0D070603040100000063
:1017300000000000000000000000000000000000A9
:101740000000000000000000000000100F0E00006C
:101750000000000000000000000000000000000089
:101760000000000000494E46494E4954594E414E32
:10177000CDCCCC3D0AD7233C17B7D13877CC2B3210
:101780009595E6241FB14F0A000020410000C84291
:1017900000401C4620BCBE4CCA1B0E5AAEC59D74F0
:1017A00002345A8A9692E1C29DD0FB338F92112463
:1017B0001FBECFEFD1E2DEBFCDBF17E0A0E0B2E0A9
:1017C000ECE2F4EC01E00BBF02C007900D92A634EE
:1017D000B107D9F719E1A6E4B7E001C01D92AD3910
:1017E000B107E1F717E1CAEAD7E104C02297FE0189
:1017F0000E94CEDBC03AD107C9F70E9418D30C94DF
:1018000009E20C940000283008F027E03327DA01C1
:10181000990F311D87FD916000966105710539F4BE
:1018200032602E5F3D9330E32A95E1F708959F3FA4
:1018300030F080387105610509F03C5F3C5F3D93F5
:10184000913008F08068911DDF93CF931F930F9321
:10185000FF92EF92192F987F9695E92F969596957E
:10186000E90FFF27EB55FA4E99273327EE24FF2483
:10187000A701E70105900894079428F4360FE71EA6
:10188000F81E491F511D660F771F881F991F069468
:10189000A1F70590079428F4E70EF81E491F561F7C
:1018A000C11D770F881F991F661F0694A1F7059029
:1018B000079428F4F80E491F561FC71FD11D880F23
:1018C000991F661F771F0694A1F70590079420F4CF
:1018D000490F561FC71FD81F990F661F771F881FF4
:1018E0000694A9F784911095177041F0D695C79585
:1018F00057954795F794E7941A95C1F7EBE4F5E10E
:1019000068941590159135916591959105907FE2B8
:101910007395E118F10A430B560BC90BD009C0F7B8
:10192000E10CF11E431F561FC91FD01D7EF47033FA
:1019300011F48A95E6CFE894015030F0080F0AF4CC
:101940000027021708F4202F2395022F7A3328F05E
:1019500079E37D932A95E9F710C07D932A9589F65E
:10196000069497956795379517951794E118F10A9E
:10197000430B560BC90BD00998F023957E917395B4
:101980007A3308F070E37C932013B8F77E9170618E
:101990007D9330F0839571E37D9370E32A95E1F7B1
:1019A0001124EF90FF900F911F91CF91DF91992714
:1019B00087FD90950895FA01AA27283051F120312A
:1019C00081F1E8946F936E7F6E5F7F4F8F4F9F4FD3
:1019D000AF4FB1E03ED0B4E03CD0670F781F891F15
:1019E0009A1FA11D680F791F8A1F911DA11D6A0FE3
:1019F000711D811D911DA11D20D009F468943F9196
:101A00002AE0269F11243019305D3193DEF6CF0194
:101A10000895462F4770405D4193B3E00FD0C9F75A
:101A2000F6CF462F4F70405D4A3318F0495D31FDC7
:101A30004052419302D0A9F7EACFB4E0A69597951A
:101A4000879577956795BA95C9F7009761057105F0
:101A500008959B01AC010A2E06945795479537953A
:101A60002795BA95C9F7620F731F841F951FA01D94
:101A70000895EF92FF920F93DF93CF93CDB7DEB728
:101A800060970FB6F894DEBF0FBECDBFA82F00231E
:101A900009F461C07E010894E11CF11C88E0F701A3
:101AA00011928A95E9F729833A834B835C836D838E
:101AB0007E83AF83988780E2801BE82FFF27E7FDB6
:101AC000F0954D815E816F817885181684F01D86B2
:101AD0001E861F86188A882799278E1B9F0B04C095
:101AE00076956795579547958A95D2F728C0202F08
:101AF000332727FD3095DB01CA01022E04C0B695BD
:101B0000A795979587950A94D2F78D879E87AF877B
:101B1000B88B04C0440F551F661F771FEA95D2F794
:101B200089819A81AB81BC8104C0B695A7959795B0
:101B300087952A95D2F7482B592B6A2B7B2B4987FF
:101B40005A876B877C8729853A854B855C856D85AF
:101B50007E85AF8598898A2F60960FB6F894DEBF90
:101B60000FBECDBFCF91DF910F91FF90EF90089501
:101B7000CF93DF93FC01EB014230510570F0638598
:101B800074858585968520E030E040E854E40E9425
:101B90004BDA0E9493D87983688382E090E0DF91EA
:101BA000CF910895CF93DF93EC01FB0142305105B3
:101BB00018F420E030E012C06081718180E090E094
:101BC0000E94BFD820E030E040E85AE30E944BDAA0
:101BD0006B877C878D879E8722E030E0C901DF918B
:101BE000CF910895009719F00197C1F40CC0E091CE
:101BF000D718F091D818A081B1812D913C91CF01D7
:101C0000F90109950895E091D918F091DA18A081A9
:101C1000B1812D913C91CF01F90109950895EF9281
:101C2000FF920F931F93CF93DF93EC0108836A8396
:101C30004B83822F90E0880F991FFC01A3E0EE0FE9
:101C4000FF1FAA95E1F7E81BF90BEB58FC4E8185C5
:101C50008983822F90E0880F991FDC0163E0AA0F2F
:101C6000BB1F6A95E1F7A81BB90BAB58BC4E822F7E
:101C700090E0880F991FFC0143E0EE0FFF1F4A958B
:101C8000E1F7E81BF90BEB58FC4E81858F5F199645
:101C90008C93DE0135E0E32EF12CE00EF11E6FEFA8
:101CA0007FEFE0E0F0E01EC02D912627822F829585
:101CB000807F822790E0382F2227AC01440F551FE8
:101CC000440F551F440F551F24273527672F7727AB
:101CD0006227732724E0959587952A95E1F7682771
:101CE00079273196EE15FF05FCF2CC5FDE4F699344
:101CF00078839801295F3F4FC901CDB7DEB7E6E091
:101D00000C94BDDBFC01DC01AC5FBE4F8C91EB5F42
:101D1000FE4F6827262F2295207F262730E0522F5E
:101D20004427C90163E0880F991F6A95E1F74827A6
:101D30005927808190E04827592784E035952795D9
:101D40008A95E1F7422753274C9350830895F90170
:101D5000E40FF11D292F33274427552720839C01A9
:101D6000552737FD5095452F2183272F382F492F91
:101D7000552747FD5A952283638384E008957F9217
:101D80008F929F92AF92BF92CF92DF92EF92FF928B
:101D90000F931F93722E132FD42EC52EB62EA72E5F
:101DA000982E892EE00EF11C08E30E94390DF701F0
:101DB0002083272D312F4D2D5C2D6B2D7A2D892DD4
:101DC000982D00E30E94390DF7012183272D312F33
:101DD0004D2D5C2D6B2D7A2D892D982D08E20E94BA
:101DE000390DF7012283272D312F4D2D5C2D6B2DC1
:101DF0007A2D892D982D00E20E94390DF701238359
:101E0000272D312F4D2D5C2D6B2D7A2D892D982D61
:101E100008E10E94390DF7012483272D312F4D2D24
:101E20005C2D6B2D7A2D892D982D00E10E94390DA6
:101E3000F7012583272D312F4D2D5C2D6B2D7A2D0C
:101E4000892D982D08E00E94390DF70126837782AD
:101E500088E01F910F91FF90EF90DF90CF90BF909F
:101E6000AF909F908F907F9008950E94A70E089545
:101E7000A0E0B0E0EEE3FFE00C949FDB8C01EB010F
:101E800065E50E94F20DC80168810E94F20DC8014B
:101E900069810E94F20DC8016A810E94F20DC80199
:101EA0006B810E94F20DC8016C810E94F20D6E01DF
:101EB000EE24FF2408C0C801F60164810E94F20DDF
:101EC0000894E11CF11C0894C11CD11C888190E08D
:101ED000E816F90680F3CC5FDE4FC80169910E94D5
:101EE000F20DC80168810E94F20DCDB7DEB7E8E0BF
:101EF0000C94BBDBA6E0B1E0E0E8FFE00C949FDBD4
:101F0000D82EC92E50913C0570913D0588E28D83F5
:101F10006E834F83388729877E010894E11CF11C6A
:101F2000C701652F472F2D2D04E010E00E940F0EF2
:101F30008D2D9C2DB7010E94380FCA5FDE4FE8E05F
:101F40000C94BBDBA6E0B1E0E8EAFFE00C949FDB79
:101F5000D82EC92E20913C0540913D058AE28D8303
:101F60007E836F837E010894E11CF11CC701622F00
:101F70002D2D02E010E00E940F0E8D2D9C2DB7013B
:101F80000E94380FCA5FDE4FE8E00C94BBDBA6E08E
:101F9000B1E0EDECFFE00C949FDBD82EC92E309120
:101FA0003C0550913D058FE28D836E834F832887DA
:101FB0007E010894E11CF11CC701632F452F2D2DD4
:101FC00003E010E00E940F0E8D2D9C2DB7010E94A2
:101FD000380FCA5FDE4FE8E00C94BBDB1F920F9214
:101FE0000FB60F920BB60F9211242F933F934F937E
:101FF0008F939F93EF93FF934091C6002091971882
:10200000309198182F5F3F4F80919B1890919C18AA
:10201000282339238091991890919A182817390705
:1020200079F08091971890919818E0919D18F0910F
:102030009E18E80FF91F4083309398182093971843
:10204000FF91EF919F918F914F913F912F910F9021
:102050000BBE0F900FBE0F901F9018951F920F92FE
:102060000FB60F920BB60F9211242F933F938F93BD
:102070009F93EF93FF932091B9183091BA188091F4
:10208000B7189091B81828173907E9F08091B91856
:102090009091BA18E091BD18F091BE18E80FF91FA1
:1020A00080818093C6008091B9189091BA180196EA
:1020B0002091BB183091BC18822393239093BA18B7
:1020C0008093B91810C02091B7183091B81880913A
:1020D000B9189091BA182817390729F48091C100CE
:1020E0008F7D8093C100FF91EF919F918F913F91E0
:1020F0002F910F900BBE0F900FBE0F901F90189551
:102100001F920F920FB60F920BB60F9211242F93BE
:102110003F934F938F939F93EF93FF934091CE0004
:1021200020919F183091A0182F5F3F4F8091A318E6
:102130009091A418282339238091A1189091A21876
:102140002817390779F080919F189091A018E09195
:10215000A518F091A618E80FF91F40833093A01836
:1021600020939F18FF91EF919F918F914F913F91F5
:102170002F910F900BBE0F900FBE0F901F901895D0
:102180001F920F920FB60F920BB60F9211242F933E
:102190003F938F939F93EF93FF932091C1183091BA
:1021A000C2188091BF189091C01828173907E9F01C
:1021B0008091C1189091C218E091C518F091C6188D
:1021C000E80FF91F80818093CE008091C118909113
:1021D000C21801962091C3183091C418822393230A
:1021E0009093C2188093C11810C02091BF183091ED
:1021F000C0188091C1189091C2182817390729F486
:102200008091C9008F7D8093C900FF91EF919F91CC
:102210008F913F912F910F900BBE0F900FBE0F909B
:102220001F9018951F920F920FB60F920BB60F9238
:1022300011242F933F934F938F939F93EF93FF938B
:10224000409136012091AF183091B0182F5F3F4F69
:102250008091B3189091B418282339238091B11834
:102260009091B2182817390779F08091AF189091A2
:10227000B018E091B518F091B618E80FF91F408337
:102280003093B0182093AF18FF91EF919F918F91E9
:102290004F913F912F910F900BBE0F900FBE0F905B
:1022A0001F9018951F920F920FB60F920BB60F92B8
:1022B00011242F933F938F939F93EF93FF9320913C
:1022C000D1183091D2188091CF189091D01828173A
:1022D0003907E9F08091D1189091D218E091D51882
:1022E000F091D618E80FF91F808180933601809114
:1022F000D1189091D21801962091D3183091D4180A
:10230000822393239093D2188093D11810C02091E8
:10231000CF183091D0188091D1189091D2182817E9
:10232000390729F4809131018F7D80933101FF912C
:10233000EF919F918F913F912F910F900BBE0F9036
:102340000FBE0F901F901895809140138F5F809360
:102350004013823008F46BC01092401380917309CF
:1023600090917409893C91059CF52091E21230917D
:10237000E3124091E4125091E5128091D3129091B2
:10238000D412A091D512B091D61280599140A0409C
:10239000B0402350304040405040281739074A078A
:1023A0005B0714F49C01AD01DA01C9012436310543
:1023B0004105510524F484E690E0A0E0B0E080936C
:1023C000E2129093E312A093E412B093E512089501
:1023D0008D5B924064F18091E2129091E312A091A2
:1023E000E412B091E5120396A11DB11D8093E21293
:1023F0009093E312A093E412B093E5122091D312CC
:102400003091D4124091D5125091D61220573E4FA0
:102410004F4F5F4F281739074A075B0744F4209353
:10242000E2123093E3124093E4125093E5120895C0
:10243000AF92BF92CF92DF92EF92FF920F931F93D2
:102440005B016C01E0905912F0905A1200915B12FE
:1024500010915C1222273327A901261B370B480B4A
:10246000590BE216F306040715071CF4DA01C9013B
:102470000DC0DC01CB01782F692F9A2F8B2FEA1426
:10248000FB040C051D0534F4D801C701782F692F12
:102490009A2F8B2F7093591260935A1290935B125C
:1024A00080935C1280915D1290915E12A0915F12F8
:1024B000B091601282179307A407B5074CF0A601EC
:1024C00095018A159B05AC05BD0514F49C01AD0171
:1024D00020935D1230935E1240935F12509360120E
:1024E0001F910F91FF90EF90DF90CF90BF90AF9032
:1024F0000895EF92FF920F931F936091F2047091F1
:10250000F3048091F4049091F5042091EE0430914D
:10251000EF044091F0045091F1040E944BDA7B01EA
:102520008C0120E030E040E05FE30E941FD8882368
:1025300024F4E0E070E080EC0DC0C801B70120E0B9
:1025400030E040E85FE30E94FBD918162CF4E0E08D
:1025500070E080E86FE30AC060E070E080E090E443
:10256000A80197010E9441D7E62F692F2E2F372F00
:10257000482F562FB901CA011F910F91FF90EF907C
:102580000895EF92FF920F931F930E9479127B019F
:102590008C0160916D1270916E12882777FD809585
:1025A000982F0E94C1D8A80197010E944BDA0E947F
:1025B0008ED8CB011616170614F081E090E09093A8
:1025C0007809809377091F910F91FF90EF900895FC
:1025D000EF92FF920F931F930E9479127B018C015F
:1025E0006091730970917409882777FD8095982F01
:1025F0000E94C1D8A80197010E944BDA0E948ED890
:1026000070937809609377091F910F91FF90EF9075
:102610000895FC011586148688EE93E093AB82AB97
:1026200095AB84AB13AE12AE15AE14AE17AE16AEAC
:10263000E05CFF4F1192119211921192119211923E
:1026400011921192118210820895FC0171836083AE
:1026500087E06634780739F47093D8186093D718F8
:102660001386128608C07093DA186093D91881E037
:1026700090E0938782871382128208952091E2125C
:102680003091E3124091E4125091E5128091A6122C
:102690009091A712A091A812B091A9128217930746
:1026A000A407B50774F48091D3129091D412A0912D
:1026B000D512B091D612281739074A075B07C4F420
:1026C0000DC08091D3129091D412A091D512B091E7
:1026D000D61282179307A407B50754F41092A212DA
:1026E0001092A3121092A4121092A51281E00895E4
:1026F00080E0089580910E13813021F480910B01C8
:1027000084600AC0882321F480910B018B7F04C070
:1027100080910B0194E0892780930B01089520910B
:10272000030A3091040AC9018F5C944082389105F4
:1027300010F481E00895C9018155954082389105D2
:1027400010F482E00895C901835D954082389105B7
:1027500010F483E00895C9018555964081389105AC
:1027600010F484E00895265D364014F480E0089566
:1027700085E008958091E1089091E2081816190605
:102780007CF46091961070919710809198109091C0
:10279000991020E030E040E85FE30E9442D710C08B
:1027A000892BB1F0609196107091971080919810DC
:1027B0009091991020E030E040E85FE30E9441D71B
:1027C000609396107093971080939810909399103F
:1027D00080912A0990912B0918161906BCF4609172
:1027E000921070919310809194109091951020E028
:1027F00030E040E85FE30E9442D76093921070930C
:10280000931080939410909395100895892BB1F0B4
:102810006091921070919310809194109091951006
:1028200020E030E040E85FE30E9441D760939210DF
:1028300070939310809394109093951008958091C5
:10284000730990917409892B91F58091BC0990913D
:10285000BD092FE0813A9207DCF0809174138A3031
:1028600010F181E08093DC118AE0809374138091F1
:10287000A6109091A710A091A810B091A9108093D4
:102880000F1290931012A0931112B0931212089588
:102890008056904F64F4809174138A3020F0109227
:1028A000DC118AE001C08F5F809374130895109249
:1028B000741308952091E9113091EA114091EB11C0
:1028C0005091EC1180914D1290914E12A0914F12A7
:1028D000B0915012281B390B4A0B5B0B213586E453
:1028E000380780E0480780E058072CF0205A3C4821
:1028F000404050400CC0203B99EB39079FEF4907FF
:102900009FEF590724F4205633474F4F5F4F80E025
:10291000B90137FF03C0709561957F4F61517742D0
:102920000CF081E0089560918D1270918E1280916B
:102930008F129091901224E630E040E050E00E9427
:1029400012DB693027E0720720E0820720E092075F
:1029500024F068E077E080E090E0683F28EF7207BD
:102960002FEF82072FEF920724F468EF78EF8FEFB5
:102970009FEF0E94C1D82091AA0D3091AB0D4091DC
:10298000AC0D5091AD0D0E944BDA0E948ED8609331
:10299000651270936612809367129093681208957F
:1029A0006F927F928F929F92AF92BF92CF92DF925F
:1029B000EF92FF920F931F93A0908D12B0908E1202
:1029C000C0908F12D09090126090AA0D7090AB0DB5
:1029D0008090AC0D9090AD0DE091480FF091490FB3
:1029E000E688F788008D118D8091F3119091F41194
:1029F000AA2797FDA095BA2FA8019701281B390B8C
:102A00004A0B5B0BCA01B9010E94C1D820916A0E22
:102A100030916B0E40916C0E50916D0E0E944BDA0E
:102A20000E948ED8F092F411E092F31138EF683FD3
:102A300073074CF448EFE42E48EFF42E4FEF042FC9
:102A40004FEF142F0BC047E06930740714F068E0B3
:102A500077E07B010027F7FC0095102FC601B50138
:102A600024E630E040E050E00E9412DB693057E09D
:102A7000750750E0850750E0950724F068E077E09F
:102A800080E090E0683F28EF72072FEF82072FEF7A
:102A9000920724F468EF78EF8FEF9FEF0E94C1D880
:102AA000A40193010E944BDA0E948ED86E197F090F
:102AB000800B910B6093651270936612809367127E
:102AC000909368121F910F91FF90EF90DF90CF903D
:102AD000BF90AF909F908F907F906F9008952091BE
:102AE000E5113091E6114091E7115091E811809184
:102AF000A6109091A710A091A810B091A910281B22
:102B0000390B4A0B5B0B213586E4380780E0480718
:102B100080E058072CF0205A3C48404050400CC000
:102B2000203B89EB38078FEF48078FEF580724F4D5
:102B3000205633474F4F5F4F209315123093161294
:102B4000409317125093181208952091E911309173
:102B5000EA114091EB115091EC118091ED1190919F
:102B6000EE11A091EF11B091F011281B390B4A0B17
:102B70005B0B213586E4380780E0480780E0580782
:102B80002CF0205A3C48404050400CC0203B89EB80
:102B900038078FEF48078FEF580724F42056334744
:102BA0004F4F5F4FC90137FF03C0909581959F4FED
:102BB0009C01442737FD4095542FB901CA0108955F
:102BC0002091DF083091E008809103099091040979
:102BD000281B390B253631051CF08AE080937213CF
:102BE0002C593F4F1CF486EF80937213809172131F
:102BF00018161CF48150809372138091721387FF12
:102C000003C08F5F8093721380917213813021F023
:102C10008F3F11F080E00895811181E00895FC015B
:102C2000DB01452B11F083858C9381E090E00895C2
:102C3000DC01FB01452B19F080811B968C9381E010
:102C400090E00895FC016385772767FD7095872FD5
:102C5000972F0E94C1D80895FC01DB014230510535
:102C600020F0838594858D939C9382E090E0089575
:102C7000DC01FB014230510530F0808191811C96CE
:102C80009C938E931B9782E090E00895FC016385EE
:102C90007485882777FD8095982F0E94C1D8089564
:102CA000FC012385348545855685B901CA010895FF
:102CB000CF93DF93FC01EB014430510540F0838555
:102CC0009485A585B68588839983AA83BB8384E090
:102CD00090E0DF91CF910895CF93DF93EC01FB015A
:102CE0004430510540F080819181A281B3818B876E
:102CF0009C87AD87BE8784E090E0DF91CF910895F7
:102D000080917612882379F48091730990917409E7
:102D1000893C910544F090933808809337088CE201
:102D200098E00E94CB8D08951092C8078DEB97E034
:102D30000E94CB8D1092F6111092F71110920C1385
:102D4000089584E791E090936F0880936E0883E67E
:102D500098E00E94CB8D0895882319F084E261E009
:102D600002C084E260E00E94DCD608958091DC110C
:102D70009091E311813081F480E0992309F481E09E
:102D80008093E311882319F085E261E002C085E2B7
:102D900060E00E94DCD60895992339F481E08093A5
:102DA000E31185E261E00E94DCD60895E091480FCE
:102DB000F091490F81A992A98130910539F00297CC
:102DC000F9F483E261E00E94DCD6089587A18823AC
:102DD000D9F090E08091E411882309F491E0909378
:102DE000E411992319F083E260E002C083E261E01C
:102DF0000E94DCD6E091480FF091490F17A2089588
:102E000083E260E00E94DCD6089500D000D086E422
:102E100097E0EDB7FEB79283818384E396E09483D5
:102E200083830E9417C60F900F900F900F9080E041
:102E3000089500D000D086E497E0EDB7FEB7928306
:102E4000818386EE97E0948383830E9417C60F9058
:102E50000F900F900F9080E0089500D000D086E48E
:102E600097E0EDB7FEB7928381838CEC99E0948371
:102E700083830E9417C60F900F900F900F900895B4
:102E800000D000D086E497E0EDB7FEB7928381834F
:102E900084EB9DE0948383830E9417C60F900F906C
:102EA0000F900F9008950E94401768EE73E080E045
:102EB00090E00E94DED58AE697E00E948EC6892BBC
:102EC00089F084E261E00E94DCD68AE697E00E9405
:102ED000A4C6682F88E597E00E9405C784E260E0F9
:102EE0000E94DCD688E597E00E948EC6892B89F087
:102EF00083E261E00E94DCD688E597E00E94A4C6E8
:102F0000682F8AE697E00E9405C783E260E00E948E
:102F1000DCD686E497E00E948EC6181619065CF689
:102F200080E008950E94401768EE73E080E090E032
:102F30000E94DED500D000D086E497E0EDB7FEB762
:102F4000928381838FE295E0948383830E9417C6E6
:102F50000F900F900F900F908AE697E00E948EC618
:102F6000892B49F08AE697E00E94A4C6682F8AE67A
:102F700097E00E9405C786E497E00E948EC6181667
:102F8000190654F780E00895EF92FF920F931F9374
:102F9000CF93DF930E94401768EE73E080E090E0EB
:102FA0000E94DED556EFE52E55E0F52E0BEE15E02E
:102FB000C6E4D7E000D000D0EDB7FEB7D283C1831E
:102FC000F482E3820E9417C680910B018460809393
:102FD0000B010F900F900F900F9068EB7BE080E05B
:102FE00090E00E94DED5CE010E948EC6181619060A
:102FF000FCF000D000D0EDB7FEB7D283C1831483BC
:1030000003830E9417C680910B018B7F80930B0175
:103010000F900F900F900F9068EB7BE080E090E0B6
:103020000E94DED5CE010E948EC61816190614F62F
:1030300080E0CDB7DEB7E6E00C94BDDB8DB79EB780
:1030400040970FB6F8949EBF0FBE8DBFEDB7FEB789
:10305000319686E497E0ADB7BEB712969C938E93F7
:10306000119782EA9EE093838283809186109091EB
:103070008710A0918810B091891084839583A683CE
:10308000B78380918A1090918B10A0918C10B09191
:103090008D1080879187A287B38780918E10909141
:1030A0008F10A0919010B091911084879587A6877A
:1030B000B7870E9417C68DB79EB740960FB6F89493
:1030C0009EBF0FBE8DBF08958DB79EB740970FB6B8
:1030D000F8949EBF0FBE8DBFEDB7FEB7319686E464
:1030E00097E0ADB7BEB712969C938E93119785EC7F
:1030F0009EE0938382838091921090919310A0918F
:103100009410B091951084839583A683B7838091A2
:10311000961090919710A0919810B0919910808777
:103120009187A287B38780919A1090919B10A0916C
:103130009C10B0919D1084879587A687B7870E94C1
:1031400017C68DB79EB740960FB6F8949EBF0FBEB8
:103150008DBF089526E437E0882349F000D000D0E1
:10316000EDB7FEB73283218384EF9EE008C000D024
:1031700000D0EDB7FEB73283218380EF9EE09483C9
:1031800083830E9417C686E497E0EDB7FEB792836B
:10319000818389EE9EE0948383830E9417C60F90FB
:1031A0000F900F900F90089500D000D086E497E024
:1031B000EDB7FEB7928381838EE09FE09483838393
:1031C0000E9417C60F900F900F900F9008950F93C5
:1031D0001F938DB79EB708970FB6F8949EBF0FBE8A
:1031E0008DBFEDB7FEB7319606E417E0ADB7BEB7B9
:1031F00012961C930E9311978BE89FE09383828322
:103200008091F6089091F708958384838091100946
:1032100090911109978386830E9417C6EDB7FEB778
:103220003196ADB7BEB712961C930E9311978DE7EA
:103230009FE09383828380913F0990914009958319
:1032400084838091590990915A09978386830E94BB
:1032500017C6EDB7FEB73196ADB7BEB712961C9341
:103260000E9311978FE69FE0938382838091880964
:1032700090918909958384838091A2099091A309F3
:10328000978386830E9417C6EDB7FEB73196ADB718
:10329000BEB712961C930E93119781E69FE093831D
:1032A00082838091D1099091D20995838483809102
:1032B000EB099091EC09978386830E9417C6EDB7BE
:1032C000FEB73196ADB7BEB712961C930E93119709
:1032D00083E59FE09383828380911A0A90911B0A71
:1032E000958384838091340A9091350A97838683ED
:1032F0000E9417C6EDB7FEB73196ADB7BEB71296AE
:103300001C930E93119785E49FE0938382838091B1
:10331000630A9091640A9583848380917D0A9091D9
:103320007E0A978386830E9417C6EDB7FEB7319653
:10333000ADB7BEB712961C930E93119787E39FE02B
:10334000938382838091AC0A9091AD0A95838483A4
:103350008091C60A9091C70A978386830E9417C6F8
:10336000EDB7FEB73196ADB7BEB712961C930E936C
:10337000119789E29FE0938382838091F50A90916F
:10338000F60A9583848380910F0B9091100B97839D
:1033900086830E9417C68DB79EB708960FB6F8941D
:1033A0009EBF0FBE8DBF1F910F910895CF93DF93E6
:1033B000FC018DB79EB744970FB6F8949EBF0FBE21
:1033C0008DBF2DB73EB72F5F3F4F86E497E0ADB777
:1033D000BEB712969C938E93119789E99FE0E901FD
:1033E0009B838A8386899789A08DB18D8C839D83E9
:1033F000AE83BF8385A196A1A7A1B0A58887998731
:10340000AA87BB8784A995A9A6A9B7A98C879D87F8
:10341000AE87BF87ED5BFF4F80819181AA2797FD23
:10342000A095BA2FF901808B918BA28BB38B0E9450
:1034300017C68DB79EB744960FB6F8949EBF0FBEC1
:103440008DBFDF91CF910895A0E0B0E0EAE2FAE10C
:103450000C949DDBE9E2AE2EE5E0BE2E73E2C72EB2
:1034600075E0D72E00E010E066E4E62E67E0F62E69
:1034700000D000D000D0EDB7FEB73196ADB7BEB7E3
:103480001296FC92EE921197B382A2821583048366
:103490000E9417C6C0E0D0E08DB79EB706960FB663
:1034A000F8949EBF0FBE8DBFCE01800F911F0E946A
:1034B00021E000D000D000D0EDB7FEB73196ADB717
:1034C000BEB71296FC92EE921197D382C282848389
:1034D00015820E9417C621968DB79EB706960FB625
:1034E000F8949EBF0FBE8DBFC031D105E9F6C7016C
:1034F0000E9449D4005F1F4F90E10030190709F086
:10350000B7CF80E0CDB7DEB7EAE00C94B9DBA0E03E
:10351000B0E0EDE8FAE10C9495DB8091D3088823C4
:1035200009F4A3C00E944017F0E62F2EF5E03F2ECD
:10353000C6E4D7E06AEF70E080E090E00E94DED55C
:1035400082E79FE00E94DC9582E79FE040E050E048
:1035500060E070E08A019B010E9406A182E79FE083
:103560000E94F798FC0140845184628473848480B3
:103570009580A680B780C080D180E280F380609182
:103580007A0F70917B0F80917C0F90917D0F21EECF
:103590003EE245E652E40E944BDA20E030E048EC9F
:1035A00052E40E944BDA0E948ED8613A2CE87207EE
:1035B00020E0820720E092072CF0605A7C4880408F
:1035C000904006C097FF04C0605673478F4F9F4FCF
:1035D000EDB7FEB77A970FB6F894FEBF0FBEEDBFFA
:1035E0000DB71EB70F5F1F4FD283C183F80133821F
:1035F000228224E630E040E050E00E947ADBF801CD
:1036000024833583468357838091740F9091750F7F
:10361000918780878091760F9091770F938782872B
:103620008091780F9091790F95878487C686D78689
:10363000E08AF18A828A938AA48AB58A468A578A5E
:10364000608E718E0E9417C62DB73EB7265E3F4F23
:103650000FB6F8943EBF0FBE2DBFCE010E948EC69E
:10366000181619060CF066CF15C000D000D086E4FD
:1036700097E0EDB7FEB79283818386E595E094836A
:1036800083830E9417C60F900F900F900F9080E0D9
:103690000E94AA1880E0CDB7DEB7E2E10C94B1DB5E
:1036A0000F931F9309EC17E1409188095091890904
:1036B000C80160E00E94B089409188095091890951
:1036C000C80161E00E94B089409188095091890940
:1036D000C80162E00E94B08940918809509189092F
:1036E000C80163E00E94B08940918809509189091E
:1036F000C80166E00E94B08940918809509189090B
:10370000C80167E00E94B0891F910F9108956091F0
:103710000E13615040910F135091101389EC97E1F3
:103720000E94B089089510923613109235131092AA
:10373000251310922413109226131092271310921F
:1037400028131092291310922B1310922A130E94FF
:10375000AAD5609320137093211380932213909322
:103760002313089580919C1290919D12892B09F446
:103770005CC00E94AAD52091961230919712409178
:10378000981250919912621B730B840B950B209128
:103790009A1230919B12442737FD4095542F62179F
:1037A00073078407950708F440C037C001979093CA
:1037B0009D1280939C1280919C1290919D12892B56
:1037C000A1F10E94AAD560939612709397128093EC
:1037D00098129093991260919512862F845084309C
:1037E00088F480919C1280FF05C040919E125091F8
:1037F0009F1204C04091A0125091A11289EC97E150
:103800000E94B08980919512853079F480910B01E6
:1038100094E0892780930B01089580919C129091E8
:103820009D121816190614F2C6CF089585E08093EC
:10383000951210929612109297121092981210925E
:103840009912609113137091141380911513909134
:1038500016130E94C1D820E030E04AEF53E40E94E2
:103860004BDA0E948ED870939B1260939A128091CB
:103870000F1390911013A0911113B0911213880F90
:10388000991FAA1FBB1F90939D1280939C120E94A8
:10389000B21B08951F9310910E131150109395129F
:1038A0001F5F812F8550843008F05BC01092961204
:1038B0001092971210929812109299126091171309
:1038C000709118138091191390911A130E94C1D806
:1038D00020E030E04AEF53E40E944BDA0E948ED899
:1038E00070939B1260939A1280911313909114130A
:1038F000A0911513B0911613880F991FAA1FBB1F13
:1039000090939D1280939C1280910F1390911013AD
:1039100090939F1280939E12153079F0163018F410
:103920001430E9F405C0163069F01730C1F40FC047
:103930008091270A9091280A0EC08091700A909178
:10394000710A09C08091B90A9091BA0A04C08091A5
:10395000020B9091030B9093A1128093A0120E94EE
:10396000B21B1F910895CF92DF92FF920F931F9386
:10397000CF93DF930E9440178AE49FE00E94A98BB7
:1039800068EE73E080E090E00E94DED500D000D0C9
:1039900006E417E0ADB7BEB712961C930E931197CD
:1039A0008EE596E014969C938E9313970E9417C60B
:1039B0000F900F900F900F9068EE73E080E090E012
:1039C0000E94DED548E5C42E46E0D42EC0E0D0E00B
:1039D000F02E012F21C08AE49FE06C2F0E947A8B89
:1039E00000D000D000D0EDB7FEB73196ADB7BEB76E
:1039F0001196FC92119712960C93D382C2829583F2
:103A000084830E9417C62196EDB7FEB736960FB68F
:103A1000F894FEBF0FBEEDBFC930D105E4F286E4D5
:103A200097E00E9449D464E170E080E090E00E9459
:103A3000DED586E497E00E948EC6181619061CF0A3
:103A4000C0E0D0E0E9CF80E0DF91CF911F910F91EE
:103A5000FF90DF90CF900895A0E0B0E0E2E3FDE1B9
:103A60000C949FDB0E94401768EE73E080E090E0CA
:103A70000E94DED563E6C62E66E0D62E56E4E52E1D
:103A800057E0F52E6DE471E080E090E00E94DED515
:103A90000E94D6168091480F9091490F0E9433BC26
:103AA000C091480FD091490F8DA1882309F440C0DF
:103AB0008DB79EB742970FB6F8949EBF0FBE8DBFCD
:103AC0000DB71EB70F5F1F4FEDB7FEB7F282E18251
:103AD000F801D382C2828A859B85AC85BD858483AB
:103AE0009583A683B7838E859F85A889B9898087AA
:103AF0009187A287B3876A897B898C899D8924E60F
:103B000030E040E050E00E947ADBF80124873587FE
:103B1000468757878CA1808B118A0E9417C68DB764
:103B20009EB742960FB6F8949EBF0FBE8DBF06C0DB
:103B300086E497E060E072E00E9454D386E497E068
:103B40000E948EC6181619060CF09CCF80E0CDB7E7
:103B5000DEB7E8E00C94BBDBCF93DF93C0E0D0E0AE
:103B600086E497E062E072E00E9454D32196C83266
:103B7000D105B1F786E497E064E072E00E947AD460
:103B8000DF91CF910895CF93DF93EC0107C0219788
:103B900086E497E064E072E00E947AD41C161D0669
:103BA000B4F3DF91CF91089500D000D086E497E080
:103BB000EDB7FEB79283818387E090E1948383839E
:103BC0000E9417C60F900F900F900F900E94AC1D8F
:103BD0000E941E180E94641882E090E00E94C31D9B
:103BE00008950F931F9300D000D006E417E0ADB7FF
:103BF000BEB712961C930E9311978FE490E1149622
:103C00009C938E9313970E9417C60F900F900F905E
:103C10000F900E94AC1DEDB7FEB73E970FB6F8941B
:103C2000FEBF0FBEEDBF3196ADB7BEB712961C9367
:103C30000E9311978CE090E1938382838091F80733
:103C40009091F907958384838091050890910608E7
:103C50009783868380913708909138089187808771
:103C600080911208992787FD90959387828780918C
:103C70002A0890912B08958784870E9417C6EDB774
:103C8000FEB73E960FB6F894FEBF0FBEEDBF82E0C2
:103C900090E00E94C31D1F910F9108950F931F93F1
:103CA00000D000D006E417E0ADB7BEB712961C9363
:103CB0000E93119787E890E114969C938E93139737
:103CC0000E9417C60F900F900F900F900E94AC1D8E
:103CD000EDB7FEB73E970FB6F894FEBF0FBEEDBF2F
:103CE0003196ADB7BEB712961C930E93119789E526
:103CF00090E1938382838091940790919507A0919E
:103D00009607B091970784839583A683B7838091A4
:103D1000A3079091A4079187808780916108909173
:103D20006208AA2797FDA095BA2F82879387A48758
:103D3000B5870E9417C6EDB7FEB73E960FB6F8944A
:103D4000FEBF0FBEEDBF82E090E00E94C31D1F9139
:103D50000F9108950F931F9300D000D006E417E051
:103D6000ADB7BEB712961C930E9311978CE191E1FB
:103D700014969C938E9313970E9417C60F900F90E2
:103D80000F900F900E94AC1D00D000D0EDB7FEB791
:103D9000128301838FE091E1948383830E9417C68D
:103DA0000F900F900F900F908EEA9BE00E94D61913
:103DB00000D000D0ADB7BEB712961C930E931197EA
:103DC00087E091E114969C938E9313970E9417C6F7
:103DD0000F900F900F900F908FEF9BE00E94D619DD
:103DE00000D000D0EDB7FEB71283018381E091E1EE
:103DF000948383830E9417C60F900F900F900F90AB
:103E000080E59CE00E94D61900D000D0ADB7BEB7C7
:103E100012961C930E9311978EEE90E114969C933C
:103E20008E9313970E9417C60F900F900F900F90CC
:103E300081EA9CE00E94D61900D000D0EDB7FEB711
:103E40001283018386EE90E1948383830E9417C6D8
:103E50000F900F900F900F9082EF9CE00E94D61968
:103E600000D000D0ADB7BEB712961C930E93119739
:103E700080EE90E114969C938E9313970E9417C640
:103E80000F900F900F900F9083E49DE00E94D61941
:103E9000EDB7FEB738970FB6F894FEBF0FBEEDBF73
:103EA0003196ADB7BEB712961C930E93119781ED64
:103EB00090E1938382838091340F9091350FA0918C
:103EC000360FB091370F84839583A683B7830E9402
:103ED00017C6EDB7FEB73196ADB7BEB712961C93B5
:103EE0000E93119782EC90E1938382838091430F2C
:103EF0009091440FA091450FB091460F8483958314
:103F0000A683B7830E9417C60F900F900F900F9053
:103F1000EDB7FEB71283018387EB90E1948383832F
:103F20000E9417C60F900F900F900F9084E99DE0AC
:103F30000E94D61900D000D0ADB7BEB712961C9320
:103F40000E93119780EB90E114969C938E931397A8
:103F50000E9417C60F900F900F900F9085EE9DE076
:103F60000E94D61900D000D0EDB7FEB712830183AE
:103F700080EA90E1948383830E9417C60F900F908C
:103F80000F900F9087E89EE00E94D61900D000D0D5
:103F9000ADB7BEB712961C930E9311978FE890E1C0
:103FA00014969C938E9313970E9417C60F900F90B0
:103FB0000F900F9088ED9EE00E94D61982E090E06D
:103FC0000E94C31D1F910F91089500D000D086E478
:103FD00097E0EDB7FEB79283818383E291E194830A
:103FE00083830E9417C60F900F900F900F900E942E
:103FF000AC1D0E94E71882E090E00E94C31D089566
:10400000CF93DF9300D000D0C6E4D7E0ADB7BEB702
:104010001296DC93CE93119785E591E114969C93CB
:104020008E9313970E9417C60F900F900F900F90CA
:104030000E94AC1D8091A208813049F400D000D0CC
:10404000EDB7FEB7D283C18382E591E12FC088230B
:1040500059F400D000D0ADB7BEB71296DC93CE9322
:1040600011978CE491E131C0823049F400D000D046
:10407000EDB7FEB7D283C18387E491E117C08330E7
:1040800059F400D000D0ADB7BEB71296DC93CE93F2
:10409000119780E491E119C0843059F400D000D028
:1040A000EDB7FEB7D283C1838CE391E19483838320
:1040B00010C08530A1F400D000D0ADB7BEB71296C5
:1040C000DC93CE93119785E391E114969C938E93A4
:1040D00013970E9417C60F900F900F900F9000D06B
:1040E00000D000D0EDB7FEB7319686E497E0ADB7CB
:1040F000BEB712969C938E9311978AE291E19383B7
:1041000082838091A208992787FD90959583848367
:104110000E9417C6EDB7FEB736960FB6F894FEBFED
:104120000FBEEDBF82E090E00E94C31DDF91CF91F2
:104130000895CF93DF93FB01C285D385CE016BEB4E
:1041400078E00E9441DD892B19F41092A20842C048
:10415000CE0169EB78E00E9441DD892B11F481E00A
:1041600023C0CE0165EB78E00E9441DD892B11F47C
:1041700082E01AC0CE016FEA78E00E9441DD892B0F
:1041800011F483E011C0CE016CEA78E00E9441DDB9
:10419000892B11F484E008C0CE0166EA78E00E9421
:1041A00041DD892B21F485E08093A20813C000D063
:1041B00000D086E497E0EDB7FEB79283818386E86E
:1041C00098E0948383830E9417C60F900F900F90FE
:1041D0000F9004C087E998E00E94CB8D0E940020D8
:1041E00080E0DF91CF91089500D000D000D0EDB7EE
:1041F000FEB7319686E497E0ADB7BEB712969C93B2
:104200008E9311978CE591E1938382838091870748
:1042100090918807958384830E9417C68DB79EB7B7
:1042200006960FB6F8949EBF0FBE8DBF0E94AC1DC0
:1042300082E090E00E94C31D089500D000D086E483
:1042400097E0EDB7FEB79283818382E791E1948393
:1042500083830E9417C60F900F900F900F900E94BB
:10426000AC1D80914E130E94AA1882E090E00E943B
:10427000C31D08950F931F9300D000D006E417E0EC
:10428000ADB7BEB712961C930E93119780E891E1DB
:1042900014969C938E9313970E9417C60F900F90BD
:1042A0000F900F900E94AC1D8091BA080E94AA182E
:1042B00000D000D000D0EDB7FEB73196ADB7BEB795
:1042C00012961C930E93119788E791E19383828352
:1042D0008091C6089091C708958384830E9417C671
:1042E000EDB7FEB736960FB6F894FEBF0FBEEDBF22
:1042F00082E090E00E94C31D1F910F9108950F93DB
:104300001F93CF93DF93FB018B01065F1F4FC28585
:10431000D385CE0163E878E00E9441DD892B21F44A
:1043200081E08093BA0809C0CE016FE778E00E946F
:1043300041DD892B29F41092BA088FEA98E010C069
:10434000F80182819381A481B5818B309105A1050B
:10435000B1054CF09093C7088093C6088BEB98E0AA
:104360000E94CB8D12C000D000D086E497E0EDB75C
:10437000FEB79283818386E698E0948383830E94CC
:1043800017C60F900F900F900F900E943A2180E077
:10439000DF91CF911F910F910895FF920F931F937B
:1043A000F62E00D000D000D0EDB7FEB7319606E46F
:1043B00017E0ADB7BEB712961C930E93119720E28B
:1043C0003FE033832283848315820E9417C68DB712
:1043D0009EB706960FB6F8949EBF0FBE8DBFEF2D09
:1043E000F0E0EE0FFF1FEB52FB4F60817181C801BF
:1043F0000E947AD41F910F91FF900895CF93DF937D
:1044000000D000D086E497E0EDB7FEB792838183B9
:104410008FEB9FE0948383830E9417C60F900F90C9
:104420000F900F900E94AC1DC0E0D0E0FE01E05B59
:10443000F74F8C2F60810E94CD212196C630D10587
:10444000A9F782E090E00E94C31DDF91CF9108950B
:1044500086E497E065E072E00E9454D30E94AAD5FA
:104460002091A6123091A7124091A8125091A91242
:10447000621B730B840B950B2091A2123091A31237
:104480004091A4125091A5122617370748075907E3
:1044900080F486E497E069E072E00E947AD410929A
:1044A000A2121092A3121092A4121092A51281E0EF
:1044B000089586E497E06BE072E00E947AD480E091
:1044C0000895EF92FF920F931F9386E497E06DE0BB
:1044D00072E00E947AD481E0809307058091611296
:1044E00090916212A0916312B0916412809377123E
:1044F00090937812A0937912B0937A120E94AAD561
:1045000060937B1270937C1280937D1290937E1245
:1045100010910E1310938B120091171300938C12AD
:1045200060911313709114138091151390911613C9
:1045300024E630E040E050E00E9412DB70938A12E3
:1045400060938912672B31F480E797E190938A1288
:1045500080938912112319F48FEF80938B1200231B
:10456000B9F060910F137091101380911113909115
:10457000121324E630E040E050E00E9412DB60932A
:10458000851270938612809387129093881274C05C
:1045900060910F1370911013809111139091121369
:1045A00024E630E040E050E00E9412DB7B018C0109
:1045B000609381127093821280938312909384127D
:1045C00080918B122091771230917812409179125C
:1045D00050917A128130C1F4D801C701821B930B2C
:1045E000A40BB50B2E153F054007510724F080564C
:1045F0009347AF4FBF4F8093851290938612A0933D
:104600008712B093881215C0E216F3060407150747
:1046100024F0205633474F4F5F4F2E193F09400B70
:10462000510B20938512309386124093871250933A
:1046300088128091851290918612A0918712B09174
:104640008812813A2CE8920720E0A20720E0B20706
:104650002CF0805A9C48A040B04006C0B7FF04C070
:1046600080569347AF4FBF4F809385129093861229
:10467000A0938712B09388122091891230918A12E8
:10468000442737FD4095542F609185127091861212
:1046900080918712909188120E947ADBCA01B90139
:1046A00028EE33E040E050E00E9412DB709380126D
:1046B00060937F121F910F91FF90EF9008958EE508
:1046C00090E10E94C2C10E9464180E94D41D80E043
:1046D00008950F931F93CF93DF93EB010A851B85FA
:1046E000C80167E679E00E9441DD892B09F448C1E1
:1046F000C8016DE579E00E9441DD892B89F5FE0155
:10470000749686819781A085B1858093B70C90932C
:10471000B80CA093B90CB093BA0C86819781A08590
:10472000B1858093080D9093090DA0930A0DB09365
:104730000B0D8CA19DA1AEA1BFA18093340F9093CE
:10474000350FA093360FB093370F89E29FE00E9498
:10475000CB8D81EA9CE00E94ECCD82EF9CE00EC103
:10476000C80169E579E00E9441DD892B09F58A8D50
:104770009B8DAC8DBD8D8093590D90935A0DA09358
:104780005B0DB0935C0D83E49DE00E94ECCD8CA1A9
:104790009DA1AEA1BFA18093430F9093440FA0931E
:1047A000450FB093460F88E39FE00E94CB8DE8C091
:1047B000C80165E579E00E9441DD892B09F063C0FD
:1047C000BE016C5E7F4FFB0186819781A085B1851C
:1047D0008093AA0D9093AB0DA093AC0DB093AD0D4B
:1047E000AE01425E5F4FFA0186819781A085B18557
:1047F0008093B90D9093BA0DA093BB0DB093BC0DEF
:10480000FE01B896228133813093D80D2093D70DC5
:1048100037FF08C088279927821B930B9093D80DE8
:104820008093D70DEB018E819F81A885B9858093F8
:10483000FB0D9093FC0DA093FD0DB093FE0DEA01CE
:104840008E819F81A885B98580930A0E90930B0E67
:10485000A0930C0EB0930D0E628173817093290E9C
:104860006093280E77FF08C088279927861B970B2F
:104870009093290E8093280E85EE9DE00E94ECCD4A
:1048800084E99DE07BC0C80160E579E00E9441DDDC
:10489000892BB9F58A8D9B8DAC8DBD8D80939D0E36
:1048A00090939E0EA0939F0EB093A00E8CA19DA1FD
:1048B000AEA1BFA18093AC0E9093AD0EA093AE0EAF
:1048C000B093AF0E80E090E0A0E0B0E08093BB0E2C
:1048D0009093BC0EA093BD0EB093BE0E6AA57BA5AF
:1048E0007093CB0E6093CA0E77FF08C08827992774
:1048F000861B970B9093CB0E8093CA0E87E89EE0A1
:104900003DC0C8016AE479E00E9441DD892BC1F510
:104910008A8D9B8DAC8DBD8D8093EE0E9093EF0EA6
:10492000A093F00EB093F10E8CA19DA1AEA1BFA1FA
:104930008093FD0E9093FE0EA093FF0EB093000F98
:104940008EA59FA5A8A9B9A980930C0F90930D0FD0
:10495000A0930E0FB0930F0F6CA97DA970931C0F3D
:1049600060931B0F77FF08C088279927861B970B3A
:1049700090931C0F80931B0F88ED9EE00E94ECCD5E
:104980000E94AA1EDF91CF911F910F91089500D030
:1049900000D086E497E0EDB7FEB79283818384E987
:1049A00099E0948383830E9417C60F900F900F9015
:1049B0000F9086E497E00E94A4C6FFEF8F3F9F0709
:1049C000C1F38937910529F08935910511F08FEFF1
:1049D00008950E94918E00D000D086E497E0EDB754
:1049E000FEB7928381838FE699E0948383830E944C
:1049F00017C60F900F900F900F9068EE73E080E055
:104A000090E00E94DED5FFCFEF92FF920F931F93AD
:104A1000CF93DF937B018230A1F000D000D086E4F9
:104A200097E0EDB7FEB7928381838FE69AE0948397
:104A300083830E9417C68FEF0F900F900F900F90F7
:104A400081C0FB0102851385C8016BE67AE00E94F4
:104A50002EDD892B19F4CFEFDFEF53C0C8016DE5D0
:104A60007AE00E942EDDC0E0D0E0892B11F4C1E095
:104A7000D0E0C80160E57AE00E942EDD892B09F4C0
:104A8000C260C8016CE47AE00E942EDD892B09F433
:104A9000C460C80169E47AE00E942EDD892B09F424
:104AA000C860C80164E47AE00E942EDD892B09F415
:104AB000C061C8016FE37AE00E942EDD892B09F402
:104AC000C062C8016AE37AE00E942EDD892B09F4F6
:104AD000C064C80166E37AE00E942EDD892B09F4E8
:104AE000C068C80162E37AE00E942EDD892B09F4D8
:104AF000D160C8016AE27AE00E942EDD892B09F4B8
:104B0000D260F7018081918163E27AE00E942EDD1C
:104B1000892B39F480916E0890916F08C82BD92B9E
:104B200008C0C095D09580916E0890916F08C823F9
:104B3000D923D0936F08C0936E0883E698E00E9453
:104B4000CB8D80E0CDB7DEB7E6E00C94BDDBFF9205
:104B50000F931F93F82E06E818E1C80163EA0E943C
:104B600025C4C80165E90E9425C4C80163E00E940C
:104B700025C4C8016F2D0E9425C4C8016AEB0E949C
:104B800025C41F910F91FF900895EF92FF920F930C
:104B90001F93CF93DF93E0EAEE2EEAE0FE2ECAE009
:104BA000D0E006E417E000D000D000D0EDB7FEB7AB
:104BB0003196ADB7BEB712961C930E931197F38240
:104BC000E282D583C4830E9417C6EDB7FEB736963E
:104BD0000FB6F894FEBF0FBEEDBF68EE73E080E045
:104BE00090E00E94DED52197F1F600D000D0ADB75D
:104BF000BEB712961C930E9311978FE89AE0149605
:104C00009C938E9313970E9417C6C1E0D0E00F903B
:104C10000F900F900F9086E898E1BE010E947BC331
:104C20002196B0E1C030DB07B1F786E898E161E09A
:104C300070E00E946FC386E898E163EA0E9425C491
:104C400086E898E165E90E9425C486E898E160EF6E
:104C50000E9425C486E898E160E00E9425C486E8A9
:104C600098E16AEB0E9425C486E898E10E949DC401
:104C700000D000D086E497E0EDB7FEB79283818341
:104C800081E89AE0948383830E9417C60F900F9067
:104C90000F900F90CDB7DEB7E6E00C94BDDBCF925E
:104CA000DF92EF92FF920F937C016B01BA01A90191
:104CB000202F0E9437908DEB95E0F7019183808340
:104CC000D486C38680912418909125180D969093D0
:104CD0002518809324180F91FF90EF90DF90CF90CC
:104CE0000895EF92FF920F931F937C01162FBA0144
:104CF000A901202F0E9437908BEC95E0F70191835A
:104D00008083138780912418909125180C96909396
:104D10002518809324181F910F91FF90EF9008950C
:104D20004630510540F0DC011B96FB0186E0019006
:104D30000D928150E1F786E090E00895FC01463045
:104D4000510538F0DB013B9686E001900D928150D1
:104D5000E1F786E090E008954831510540F0DC012C
:104D60001B96FB0188E101900D928150E1F788E1EB
:104D700090E00895FC014831510538F0DB013B9685
:104D800088E101900D928150E1F788E190E008956B
:104D90004C30510540F0DC011B96FB018CE001908A
:104DA0000D928150E1F78CE090E00895FC014C30C9
:104DB000510538F0DB013B968CE001900D9281505B
:104DC000E1F78CE090E008954432510540F0DC01B9
:104DD0001B96FB0184E201900D928150E1F784E281
:104DE00090E00895FC014432510538F0DB013B9618
:104DF00084E201900D928150E1F784E290E0089501
:104E0000A6E0B1E0E6E0F7E20C9495DB682E292EEF
:104E100059016A0148015E2C7F2C30903C0540907E
:104E20003D0586E18D83DE011696FB018FE0019042
:104E30000D928150E1F7F6E0EF2EF12CEC0EFD1E05
:104E4000C601B5014FE097010E94350F082F10E011
:104E5000E82FE15FF0E0D701AE0FBF1F9C92DE01AB
:104E60001796EA0FFB1F80828F5E90E0E80EF91E16
:104E7000F7017082A80FB91F5C920D5E1F4F7E0173
:104E80000894E11CF11CC701632D442D262D0E94BE
:104E90000F0E862D922DB7010E94380FCA5FDE4F8C
:104EA000E2E10C94B1DBA6E0B1E0E9E5F7E20C94B5
:104EB0009FDBD82EC92E10913C0570913D058EEFD9
:104EC0008D836E83DE011796FA0182E301900D92C5
:104ED0008150E1F77E010894E11CF11CC701612FAC
:104EE000472F2D2D03E310E00E940F0E8D2D9C2DDA
:104EF000B7010E94380FCA5FDE4FE8E00C94BBDBBD
:104F0000A3E3B0E0E6E8F7E20C94A5DBDE0112963D
:104F10009E012C5C3F4FFA014F5F5F4FE491ED9390
:104F2000A217B307C1F7FC0182859385AE014E5FDE
:104F30005F4F0E945327E396E2E00C94C1DB80911F
:104F4000E007992787FD9095A92FB92F20918D1201
:104F500030918E1240918F125091901282179307C8
:104F6000A407B50714F480E0089584E591E161E0B9
:104F70004CE552E10E94802781E008950E94AAD565
:104F8000209151123091521240915312509154126B
:104F9000621B730B840B950B2091551230915612A6
:104FA0004091571250915812261737074807590752
:104FB00010F080E0089584E591E161E049E652E176
:104FC0000E94802781E0089590913C05891711F097
:104FD00081E0089580913D05681711F480E00895FF
:104FE00084E591E161E04BED53E10E94802780E090
:104FF0000895A0E0B0E0EFEFF7E20C949DDB742F92
:10500000052F5901C82EDD24C601880F991FDC0128
:1050100043E0AA0FBB1F4A95E1F7A81BB90BAB5899
:10502000BC4E15968D919C9116970197099758F152
:105030001C9211961C921197F60133E0EE0FFF1FA0
:105040003A95E1F7EC19FD09EE0FFF1FE958FC4E08
:10505000108213961C92139714961C92149716960E
:105060001C921E92159717961C9217971D961C92CC
:105070001E921C971B961C921E921A9718961C92B1
:10508000189719961C9286E091E0C89EA001C99ECF
:10509000500DD89E500D112443555C4EF60193E0FF
:1050A000EE0FFF1F9A95E1F7EC19FD09EE0FFF1FB8
:1050B000E958FC4E1082C601880F991FFC01A3E03D
:1050C000EE0FFF1FAA95E1F7E81BF90BEB58FC4E1A
:1050D0000580F681E02DEA30F10508F0C0C1EE58F8
:1050E000FF4FEC010C94CCDB653509F0B8C1C6016B
:1050F000880F991FFC0123E0EE0FFF1F2A95E1F7AF
:10510000E81BF90BEB58FC4E82E090E09683858318
:105110002FEF3FEF86E091E0C89EF001C99EF00DB1
:10512000D89EF00D1124E355FC4EEC5FFE4F219309
:10513000308395C186E091E0C89EF001C99EF00DD4
:10514000D89EF00D1124E355FC4E60838E01B3E030
:10515000000F111FBA95E1F70C1B1D0B0B581C4ECD
:10516000D80117961C92CA010E94820E84E090E03A
:10517000F8011BC086E091E0C89EF001C99EF00DC9
:10518000D89EF00D1124E355FC4E6183CA010E94A4
:10519000820EFE01A3E0EE0FFF1FAA95E1F7EC1BC4
:1051A000FD0BEB58FC4E83E090E09683858357C15E
:1051B00083E890E0C89EF001C99EF00DD89EF00DE6
:1051C0001124EE0FFF1FE155FC4E6083CA010E94BF
:1051D000820EFE0133E0EE0FFF1F3A95E1F7EC1B64
:1051E000FD0BEB58FC4E85E090E0DFCF86E091E0D0
:1051F000C89EF001C99EF00DD89EF00D1124E35514
:10520000FC4E6383CA010E94820EFE0123E0EE0F72
:10521000FF1F2A95E1F7EC1BFD0BEB58FC4E86E0D7
:1052200090E0C3CF86E091E0C89E8001C99E100D3A
:10523000D89E100D112403551C4ED80114966C9362
:10524000CA010E94820EF8018081E601CC0FDD1FA9
:10525000882359F4FE01B3E0EE0FFF1FBA95E1F782
:10526000EC1BFD0BEB58FC4E39C0FE01A3E0EE0F2A
:10527000FF1FAA95E1F7EC1BFD0BEB58FC4E87E0F6
:1052800090E093CF7C01F3E0EE0CFF1CFA95E1F780
:10529000E81AF90A85E793E1E80EF91ED701179697
:1052A0002C91179786E091E0C89E8001C99E100D51
:1052B000D89E100D112403551C4EF801E20FF11D6C
:1052C00065832F5F17962C93CA010E94820EF70107
:1052D0009781D8018C91981709F0C1C088E090E0BF
:1052E00064CF86E091E0C89E9001C99E300DD89EA3
:1052F000300D112423553C4EA9014C5F5E4FFA013D
:105300008081E601CC0FDD1F6817B1F1DE0173E08B
:10531000AA0FBB1F7A95E1F7AC1BBD0BAB58BC4E77
:1053200014968C9114978F5F14968C931497F601B2
:1053300093E0EE0FFF1F9A95E1F7EC19FD09EE0FD0
:10534000FF1FE958FC4E108281E090E016969C9376
:105350008E931597653509F082C082E090E016962D
:105360009C938E9315978FEF9FEFDA018C93F90141
:10537000EB5FFE4F908373C0FE01B3E0EE0FFF1FA3
:10538000BA95E1F7EC1BFD0BEB58FC4E89E090E081
:105390000CCF86E091E0C89E9001C99E300DD89E4A
:1053A000300D112423553C4EA5E0EA2EA1E0FA2E43
:1053B000E20EF31EF7018081E601CC0FDD1FD6015E
:1053C000E3E0AA0FBB1FEA95E1F7681739F1FE0188
:1053D00053E0EE0FFF1F5A95E1F7EC1BFD0BEB5866
:1053E000FC4E84818F5F8483AC19BD09AA0FBB1F5B
:1053F000A958BC4E1C9281E090E096838583653568
:1054000071F582E090E0968385838FEF9FEFF9013D
:10541000EC5FFE4F8083D7019C9321C0AC19BD097E
:10542000AA0FBB1FA958BC4E81E08C93FE0183E0FC
:10543000EE0FFF1F8A95E1F7EC1BFD0BEB58FC4EBE
:1054400081E090E096838583272F302FC901DC010E
:10545000FA0186E091E001900D920197E1F7F601E3
:10546000B3E0EE0FFF1FBA95E1F7EC19FD09EE0F5F
:10547000FF1FE958FC4E80818130C1F5C601880FBD
:10548000991FDC0163E0AA0FBB1F6A95E1F7A81B17
:10549000B90BAB58BC4E86E091E0C89EF001C99EA6
:1054A000F00DD89EF00D1124E355FC4E8181189625
:1054B0008C9318971A968D919C911B97892B21F4A8
:1054C0001D961C921E921C97C601880F991FFC0105
:1054D00043E0EE0FFF1F4A95E1F7E81BF90BEB588D
:1054E000FC4E82859385019693878287C601880F3B
:1054F000991FFC0123E0EE0FFF1F2A95E1F7E81B3F
:10550000F90BEB58FC4E80858F5FD50118968C9374
:105510001897828593851B969C938E931A97848106
:105520001C968C931C971D961C921482F601B3E076
:10553000EE0FFF1FBA95E1F7EC19FD09EE0FFF1F03
:10554000E958FC4E8081CDB7DEB7EAE00C94B9DBB8
:10555000FC018FEA95E091838083CF010E94848FC4
:105560000895FC018DEB95E091838083CF010E942B
:10557000848F0895FC018BEC95E091838083CF01AB
:105580000E94848F0895FC0187EE95E091838083CB
:10559000CF010E94848F0895FC0187EE95E09183EE
:1055A0008083CF010E94848F0895FC0185EF95E0F0
:1055B00091838083CF010E94848F0895FC0183E052
:1055C00096E091838083CF010E94848F0895FC012F
:1055D00081E196E091838083CF010E94848F0895BA
:1055E0000F931F938C01C8960E94B12AC801899617
:1055F0000E94CC2AC8014A960E94CC2AC8010B9668
:105600000E94CC2A8CE396E0F80191838083C80144
:105610000E94848F1F910F9108950F931F938C0107
:10562000C1960E94B12AC80184960E94B12AC8017D
:1056300047960E94B12A8CE396E0F801918380831B
:10564000C8010E94848F1F910F9108950F931F939B
:105650008C018FEA95E0F80191838083C8010E9454
:10566000848FC8010E9403941F910F9108950F9396
:105670001F938C018DEB95E0F80191838083C80125
:105680000E94848FC8010E9403941F910F91089576
:105690000F931F938C018BEC95E0F801918380832D
:1056A000C8010E94848FC8010E9403941F910F912A
:1056B00008950F931F938C0187EE95E0F801918375
:1056C0008083C8010E94848FC8010E9403941F91A7
:1056D0000F9108950F931F938C0187EE95E0F801C9
:1056E00091838083C8010E94848FC8010E94039423
:1056F0001F910F9108950F931F938C0185EF95E0F3
:10570000F80191838083C8010E94848FC8010E94A0
:1057100003941F910F9108950F931F938C0183E0C1
:1057200096E0F80191838083C8010E94848FC801AC
:105730000E9403941F910F9108950F931F938C0162
:1057400081E196E0F80191838083C8010E94848FF3
:10575000C8010E9403941F910F910895A0E0B0E04A
:10576000E4EBFBE20C94A0DBEC017A0124E00E9464
:1057700037908CE396E099838883809124189091E8
:1057800025180B969093251880932418188A1F8645
:105790001C2FDD2EE114F10419F420E030E002C0EA
:1057A00024EE3CE0CE014796612F7D2D40E050E095
:1057B00000E00E94FA8F8DEB95E0988F8F8B8CED37
:1057C00095E09BA38AA380912418909125180D96AB
:1057D0009093251880932418E114F10419F420E023
:1057E00030E002C02FED3CE0CE018496612F7D2D8C
:1057F00041E050E000E00E94FA8F8DEB95E09DA320
:105800008CA38CED95E098AB8FA780912418909194
:1058100025180D969093251880932418E114F1040F
:1058200019F420E030E002C02BED3CE0CE01C1963F
:10583000612F7D2D42E050E000E00E94FA8F8DEB59
:1058400095E09AAB89AB8CED95E09DAF8CAF8091E4
:105850002418909125180D9690932518809324185C
:10586000EE9680E090E0A0E8BFE389939993A99336
:10587000B99381E089938883229681E090E09983AF
:105880008883CDB7DEB7E7E00C94BCDB6F927F92E4
:105890008F929F92AF92BF92CF92EF92FF920F930F
:1058A0001F935C013801490197010C2D0E94FA8F6A
:1058B000F50163867486858696868091241890917A
:1058C000251829ED35E0318320834E9690932518D5
:1058D000809324181F910F91FF90EF90CF90BF906D
:1058E000AF909F908F907F906F9008952F923F92EE
:1058F0004F925F926F927F928F929F92AF92BF92E0
:10590000CF92DF92EF92FF920F931F935C014901B8
:1059100038012701160124E00E9437908CE396E0BD
:10592000F5019183808380912418909125180B961E
:105930009093251880932418F4010081118122810D
:105940003381C5010B96B50140E050E0A1EFEA2E8E
:10595000ACE0FA2ECC240E94462CF3010081118188
:1059600022813381C5014A96B50141E050E0FFEE46
:10597000EF2EFCE0FF2E0E94462CF20100811181E7
:1059800022813381C5018996B50142E050E0EDEEF8
:10599000EE2EECE0FE2E0E94462CF101E080F1801C
:1059A000C501C896B50143E050E028EE3CE000E0B8
:1059B0000E94FA8F8DEB95E0F50191AF80AF83E403
:1059C00090E0A80EB91EF501F182E08280912418C2
:1059D000909125180D9690932518809324181F9167
:1059E0000F91FF90EF90DF90CF90BF90AF909F907E
:1059F0008F907F906F905F904F903F902F90089581
:105A0000AAE9B0E0E6E0FDE20C9495DB5C0165E01C
:105A100070E040E050E020E030E000E00E944F26DF
:105A2000C5010D9660EA70E041ED5CE020E00E9467
:105A30003790E7EEF5E0D5011E96FC93EE931D97A7
:105A400080E090E0AAEFB3E4F501808F918FA28F00
:105A5000B38F80912418909125180F969093251854
:105A600080932418C5014C9660EA7FE041EA50E03B
:105A700024EC3CE00E944F26C501899660E04CED85
:105A800050E02CEB3CE00E947126C501C59660E019
:105A90004DED50E023EB3CE00E947126C5018F5B89
:105AA0009F4F60E04EED50E02AEA3CE00E947126F4
:105AB000C501835B9F4F60E04FED50E02CE93CE077
:105AC0000E947126C501875A9F4F63E040EE50E067
:105AD00022E93CE00E947126C5018B599F4F6AE084
