:100000000C94C00B0C94EC0B0C94EC0B0C94EC0BC0
:100010000C94EC0B0C94EC0B0C94EC0B0C94EC0B84
:100020000C94EC0B0C94EC0B0C94EC0B0C94EC0B74
:100030000C94EC0B0C94EC0B0C94EC0B0C9485874F
:100040000C94EC0B0C94EC0B0C94EC0B0C94EC0B54
:100050000C94EC0B0C94EC0B0C94EC0B0C941AD34E
:100060000C94EC0B0C94D90F0C9419100C94EC0B11
:100070000C94EC0B0C94EC0B0C94EC0B0C94EC0B24
:100080000C94EC0B0C94EC0B0C94EC0B0C94EC0B14
:100090000C946B100C94AB100C94EC0B0C947DCF67
:1000A0000C94EC0B0C94FF850C94EC0B0C94EC0B67
:1000B0000C94EC0B0C94EC0B0C94EC0B0C94EC0BE4
:1000C0000C94EC0B0C94EC0B0C94EC0B0C94EC0BD4
:1000D0000C94EC0B0C94EC0B0C94FD100C943D1157
:1000E0000C94EC0BD627D627FC273A281C28582836
:1000F0007428A428D3282B299372B972C572D77299
:10010000E072AA7BE972AA7BAA7BAA7BF572FE72D7
:1001100007733773357335733573437335733973B9
:100120003573357346734E7348734B73357335733C
:1001300035733573357335733573357335734E7366
:100140003573507376867B86808685868A868F8611
:10015000948699869E86A386A886E6B7E1B7EAB715
:10016000EEB7FBB713B838B848B87CB977B980B9DF
:1001700088B9ACB9B7B9CEB9EAB9F1B957D45AD43C
:100180004DD451D493D45ED462D468D46CD470D49A
:1001900076D47AD47ED484D488D48ED4036EDB36DD
:1001A0003D9A9999993DABAAAA2A3E000000803F4A
:1001B000084AD73B3BCE016E84BCBFFDC12F3D6CCE
:1001C00074319ABD56833DDA3D00C77F11BED9E434
:1001D000BB4C3E916BAAAABE000000803F072C7A60
:1001E000A5BA6CC590DA3B9365FC8BBC53F810FD47
:1001F0003C5692834DBD879D3AB63DCBC9BF5BBE91
:1002000073DA0FC93F05A84CCDB2D44EB93836A920
:10021000020C50B9918688083CA6AAAA2ABE000002
:1002200000803F08000000BE922449123EABAAAAFB
:100230002ABECDCCCC4C3E00000080BEABAAAAAA00
:100240003E00000000BF000000803F0000000000F2
:10025000084178D3BB4387D1133D190E3CC3BD423F
:1002600082AD2B3E68EC8276BED98FE1A93E4C80F0
:10027000EFFFBE01C4FF7F3F00000000004C6F672E
:100280000064756D7000000000000000000000D6E2
:100290005E65726173650000000000000000006888
:1002A00025656E61626C650000000000000000A71B
:1002B0002464697361626C6500000000000000A79F
:1002C0002468656C7000000000000000000000E67B
:1002D00016736574757000657261736500000000C7
:1002E0000000000000BD35726573657400000000F9
:1002F00000000000006A24726164696F0000000061
:100300000000000000C53E6D6F746F727300000046
:100310000000000000731B65736300000000000014
:100320000000000000B8166C6576656C00000000E7
:10033000000000000060246D6F6465730000000021
:1003400000000000006F3E62617474657279000005
:100350000000000000D823736F6E6172000000007F
:1003600000000000005335636F6D7061737300000F
:10037000000000000095366465636C696E61746905
:100380006F6E000000813673686F77000000000018
:1003900000000000005936414320322E302E352017
:1003A00042657461006C6F6773000000000000001C
:1003B000000000CA3473657475700000000000000E
:1003C0000000007C347465737400000000000000BD
:1003D000000000653468656C7000000000000000DB
:1003E000000000A416746573740070776D0000003F
:1003F0000000000000000000FD3D726164696F00B4
:100400000000000000000000913D6661696C7361AE
:100410006665000000000000933C677073000000F8
:1004200000000000000000001B2061646300000069
:100430000000000000000000A31F696D75000000AF
:100440000000000000000000687F62617474657243
:100450007900000000000000901674756E650000C1
:100460000000000000000000673C7472690000009A
:100470000000000000000000043C63757272656EAD
:1004800074000000000000007B3B72656C61790025
:1004900000000000000000006617776179706F6946
:1004A0006E747300000000001F50616C74697475F5
:1004B0006465000000000000C839636F6D706173EF
:1004C00073000000000000000C1A786265650000EF
:1004D00000000000000000003417656564756D7051
:1004E0000000000000000000AB19726177677073B4
:1004F00000000000000000000C176D697373696F45
:100500006E00000000000000B7507770002025301A
:10051000327800253034783A00426567696E205899
:1005200042656520582D4354552052616E67652001
:10053000616E64205253534920546573743A0A0023
:10054000436F6D706173733A200048656164696E32
:10055000673A20256C642C2058595A3A2025642C7F
:100560002025642C2025642C0958595A6F66663A58
:100570002025362E32662C2025362E32662C20255C
:10058000362E32660A00425F616C743A2025642C74
:1005900020535F616C743A2025640A004869742016
:1005A0007261646975733A2025640A0025642077B6
:1005B0006179706F696E74730A006F662025646DCF
:1005C0000A000A00486F6C6420616C746974756479
:1005D00065200052656C6179206F66660A0052657D
:1005E0006C6179206F6E0A00563A2025342E3466ED
:1005F0002C20413A2025342E34662C206D41683A57
:100600002025342E34660A00696E7075743A2025F0
:1006100064096F757470757425640A006469736188
:10062000626C65640A004E6F7420656E61626C6571
:10063000640A00723A20256C6409703A20256C64C3
:100640000920793A20256C640A00693A256409007A
:100650004144430A004C61743A20256C642C204CC0
:100660006F6E20256C642C20416C743A20256C64DC
:100670006D2C2023736174733A2025640A004C4F5B
:100680005320636175736564206E6F206368616ECB
:10069000676520696E2041434D2E0A005448524F31
:1006A00054544C45204641494C5341464520414312
:1006B000544956415445443A2025642C2000434F68
:1006C0004E54524F4C204D4F4445204348414E47D5
:1006D00045443A20005448524F54544C4520434816
:1006E000414E474544202564200A00556E706C75C4
:1006F0006720626174746572792C207468726F74FB
:10070000746C6520696E206E65757472616C2C2046
:100710007475726E206F666620726164696F2E0A4E
:1007200000494E2020313A20256409323A202564C0
:1007300009333A20256409343A20256409353A20E2
:10074000256409363A20256409373A2025640A00D1
:10075000494E3A20313A20256409323A202564096D
:10076000333A20256409343A20256409353A202596
:100770006409363A20256409373A20256409383A55
:100780002025640A00436F6D6D616E64733A0A2020
:10079000206C6F67730A202073657475700A2020BF
:1007A000746573740A0A4D6F7665207468652073EA
:1007B0006C6964652073776974636820616E642076
:1007C000726573657420746F20464C592E0A0A00B6
:1007D0000A4F7074696F6E733A5B6F6E2C6F66664A
:1007E0005D0A006F6666006F6E000A4F7074696F75
:1007F0006E733A5B6F6E2C206F66665D0A006F66E3
:1008000066006F6E000A4F7074696F6E733A203025
:100810002D34000A4D6F766520524320746F676750
:100820006C652073776974636820746F20656163F9
:100830006820706F736974696F6E20746F206564CF
:1008400069742C206D6F76652061696C65726F6EBE
:1008500020737469636B20746F2073656C656374B7
:10086000206D6F6465732E000A556E706C75672C71
:10087000207468656E20706C75672D696E206261EA
:1008800074746572793B2043616C6962726174654E
:1008900020455343732E0A20507265737320456EB2
:1008A00074657220746F2063616E63656C2E0A003C
:1008B0000A4D6F766520616C6C20636F6E74726F89
:1008C0006C7320746F20656163682065787472654D
:1008D0006D652E2048697420456E74657220746FB2
:1008E00020736176653A20000A464143544F5259BD
:1008F00020524553455420636F6D706C65746520BC
:100900002D207265626F6F742041504D000A275987
:1009100027202B20456E74657220746F20666163FA
:10092000746F72792072657365742C20616E792002
:100930006F74686572206B657920746F2061626FD7
:1009400072743A0A000A436F6D6D616E64733A0AFD
:10095000202064756D70203C6E3E202065726173AE
:10096000652028616C6C206C6F6773290A202065F4
:100970006E61626C65203C6E616D653E207C20611D
:100980006C6C0A202064697361626C65203C6E6146
:100990006D653E207C20616C6C0A0A00656E6162A8
:1009A0006C650043555252454E5400434D4400522D
:1009B0004157004D4F4445004E54554E0043545549
:1009C0004E00504D00475053004154544954554433
:1009D000455F4D45440041545449545544455F4694
:1009E00041535400616C6C006D697373696E6720CC
:1009F0006C6F6720747970650A000A4C6F67206518
:100A000072617365642E0A000A45726173696E67CC
:100A1000206C6F672E2E2E0A00446F6E650A00440C
:100A2000756D70696E67204C6F67206E756D6265BD
:100A3000722025642C20202020737461727420257C
:100A4000642C202020656E642025640A00626164A5
:100A5000206C6F67206E756D6265720A0059415790
:100A60005F44414D50005354425F44414D50005447
:100A700048525F534F4E5F005448525F4241525FAD
:100A8000004E41565F57505F004E41565F4C4F4EEF
:100A90005F004E41565F4C41545F005354425F59D2
:100AA00041575F005354425F5049545F00535442D2
:100AB0005F524C4C5F004143525F5941575F0041C8
:100AC00043525F5049545F004143525F524C4C5F68
:100AD000005243385F005243375F005243365F0095
:100AE0005243355F005243345F005243335F00523C
:100AF00043325F005243315F00455343004D41474D
:100B00005F454E41424C4500424154545F43415081
:100B1000414349545900424154545F4D4F4E49544A
:100B20004F5200534F4E41525F454E41424C45009B
:100B3000414C545F484F4C445F52544C00474E4424
:100B40005F4142535F505245535300474E445F54F8
:100B5000454D50004C4F475F4249544D41534B0067
:100B600050495443485F4D415800464C494748540A
:100B70005F4D4F444553005452494D5F5448524FC6
:100B800054544C45005448525F46535F56414C55AF
:100B900045005448525F46535F414354494F4E000D
:100BA0005448525F4641494C5341464500544852CF
:100BB0005F4D4158005448525F4D494E004C4F49DB
:100BC0005445525F5241444955530057505F52417A
:100BD000444955530057505F4D5553545F494E4457
:100BE00045580057505F494E4445580057505F5490
:100BF0004F54414C0057505F4D4F4445005854529C
:100C000041434B5F414E474C45005854524B5F4760
:100C100041494E004D4158005452494D004D494EF6
:100C200000494D415800440049005000494D555F6E
:100C300053454E534F525F43414C004C6F67202346
:100C40002025642C20202020737461727420256478
:100C50002C202020656E642025640A000A2564206B
:100C60006C6F67730A000A4E6F206C6F67730A001F
:100C700043555252454E540020255300434D4400E5
:100C80002025530052415700202553004D4F444525
:100C900000202553004E54554E0020255300435448
:100CA000554E0020255300504D002025530047503D
:100CB00053002025530041545449545544455F4D39
:100CC0004544002025530041545449545544455F40
:100CD0004641535400202553006E6F6E65006C6FC3
:100CE000677320656E61626C65643A2000486974C0
:100CF00020456E74657220746F20657869742E0AC1
:100D00000A0054657374204D6F64650A0A004752E7
:100D10004F554E44205354415254000A456E746559
:100D200072696E6720696E74657261637469766555
:100D3000207365747570206D6F64652E2E2E0A0AFF
:100D400054797065202768656C702720746F206C5B
:100D500069737420636F6D6D616E64732C202765F9
:100D60007869742720746F206C6561766520612036
:100D70007375626D656E752E0A5669736974207499
:100D800068652027736574757027206D656E752002
:100D9000666F722066697273742D74696D65206365
:100DA0006F6E66696775726174696F6E2E0A0A00EC
:100DB000506C656173652052756E20536574757053
:100DC0002E2E2E0A000A0A496E69742041434D0AEC
:100DD0000A52414D3A20256C750A004779726F20FE
:100DE0006F6666736574733A2025342E32662C2044
:100DF00025342E32662C2025342E32660A004163BB
:100E000063656C206F6666736574733A2025342EB3
:100E100032662C2025342E32662C2025342E326664
:100E20000A0061626C65640A0064697300656E00A3
:100E3000646F6E650A000A45726173696E672045CA
:100E40004550524F4D0A000A536176656420536540
:100E50007474696E67730A0A00506F732025643AD0
:100E600020004348373A202564207C2025640A006E
:100E70004348363A202564207C2025640A004348F4
:100E8000353A202564207C2025640A004348343A02
:100E9000202564207C2025640A004348333A20251D
:100EA00064207C2025640A004348323A20256420CF
:100EB0007C2025640A004348313A202564207C20A8
:100EC00025640A00503A2025342E32662C20493AF7
:100ED00025342E32662C20443A25342E32662C20BE
:100EE000494D41583A256C640A00466C696768743C
:100EF000206D6F6465730A004D6167206F666673CD
:100F00006574733A2025342E34662C2025342E3413
:100F1000662C2025342E3466004D616720446563BD
:100F20003A2025342E34660A00436F6D7061737366
:100F30000A00494D550A006D696E3A2025640A6D14
:100F400061783A2025640A6372756973653A2025D1
:100F5000640A6661696C736166655F656E61626C87
:100F600065643A2025640A6661696C736166655F31
:100F700076616C75653A202564005468726F7474EC
:100F80006C650A0058545241434B3A2025342E32A6
:100F9000660A58545241434B20616E676C653A2093
:100FA00025640A50495443485F4D41583A20256C06
:100FB000640058547261636B0A00736F6E61722033
:100FC0007468726F74746C653A0A006261726F20A3
:100FD0007468726F74746C653A0A006C6F6E673A6D
:100FE0000A004E61763A0A6C61743A0A00596177D8
:100FF00020443A2025342E33660A0A005374616275
:1010000020443A2025342E33660A007961773A0A63
:101010000070697463683A0A000A53746162696C0B
:10102000697A653A0A726F6C6C3A0A007961773AAC
:101030000A0070697463683A0A004163726F3A0A81
:10104000726F6C6C3A0A004761696E730A005261F4
:1010500064696F0A00506C7573206672616D650A71
:10106000004672616D650A004657205665727369C5
:101070006F6E2025640A00536F6E61720A000A4782
:1010800050530A00636F6D6D616E6420233A202512
:10109000642069643A2564206F703A2564207031B9
:1010A0003A25642070323A256C642070333A256CFE
:1010B000642070343A256C64200A00766F6C747377
:1010C00020616E6420637572006261747420766FB3
:1010D0006C747300342063656C6C7300332063653B
:1010E0006C6C73000A42617474204D6F696E746F8A
:1010F000720A000A20547970652027726164696F52
:101100002720746F20636F6E666967757265206E45
:101110006F772E0A0A000A215761726E696E672C7A
:1011200020796F757220726164696F206973206E17
:101130006F7420636F6E6669677572656421005312
:1011400065747570204D6F64650A0A0A003C6E6113
:101150007669676174653E205750206572726F72C0
:10116000202D2064697374616E6365203C2030001B
:101170004C6F77204261747465727921006F7574C9
:10118000206F6620636F6D6D616E647321006F75F3
:1011900074206F6620636F6D6D616E6473210065EE
:1011A00072726F723A206E6F6E2D4E617620636D93
:1011B00064005265616368656420686F6D65004511
:1011C00072726F722045423A2025640A004572729D
:1011D0006F722052656164696E67205061636B6550
:1011E000743A2025640A005241572C004D4F443A6E
:1011F000004154542C2025642C2025642C20257576
:101200000A00434D442C2025642C2025642C2025E5
:10121000642C2025642C2025642C20256C642C2033
:10122000256C642C20256C640A00504D2C0043541E
:10123000554E2C2025642C2025642C2025642C2040
:1012400025642C2025642C2025642C2025642C204A
:1012500025312E34662C2025642C2025642C202555
:10126000642C2025642C2025640A00435552523AF0
:101270002025642C20256C642C2025342E34662CEB
:101280002025342E34662C2025640A004750532C28
:1012900020256C642C2025642C2025642C202534EA
:1012A0002E37662C2025342E37662C2025342E34FC
:1012B000662C2025342E34662C2025342E34662CC2
:1012C0002025640A004E54554E2C2025642C2025E0
:1012D000642C2025642C2025642C2025642C2025BA
:1012E000642C2025642C2025642C2025642C2025AA
:1012F000642C2025642C2025642C2025642C20259A
:101300006C642C2025342E34662C2025342E346633
:101310002C2025342E34662C2025342E34660A00E9
:101320003C73746172745F6E65775F6C6F673E20AB
:101330004C6F67732066756C6C00666C69676874C7
:1013400020706C616E20726563656976656400610A
:101350006374696F6E2072656365697665643A20AF
:1013600000636F6D706F6E656E74206964206D69C7
:10137000736D6174636800776179706F696E742052
:10138000726563656976652074696D656F75740053
:10139000776179706F696E742073656E642074690B
:1013A0006D656F757400455854524133004558546B
:1013B0005241320045585452413100504F53495424
:1013C000494F4E005241575F4354524C0052435FC5
:1013D0004348414E004558545F53544154005241D4
:1013E000575F53454E53005352335F005352305FA3
:1013F00000253033753A25733A20006E6F742066ED
:101400006F756E6400253033753A252D33322E33D7
:1014100032733A2000756E6B6E6F776E2074797040
:1014200065006E6F7420666F756E640025733A20D8
:10143000006D697373696E67206E616D65206F72F0
:101440002076616C7565003F3F00256400256400CF
:10145000256C64002566002566006578697400685F
:10146000656C700044454300434F4D504153535FFA
:1014700000245047434D442C31362C302C302C3036
:101480002C302C302A36410D0A0024505542582C5D
:1014900034312C312C303030332C303030312C334F
:1014A000383430302C302A323600245053524631F2
:1014B00030302C302C33383430302C382C312C3028
:1014C0002A33430020536952462000204D544B31AB
:1014D0002E3620002075626C6F782000204D544B12
:1014E000312E3420006661696C65642C207265744D
:1014F0007279696E67004F4B0020002A00496E69BF
:101500007420416363656C002A00496E697420474A
:1015100079726F006E616E00696E660000407A102D
:10152000F35A00A0724E18090010A5D4E80000E894
:101530007648170000E40B54020000CA9A3B0000F2
:1015400000E1F505000080969800000040420F0081
:101550000000A08601000000102700000000E80342
:10156000000000006400000000000A00000000000D
:101570000100000000002C76D888DC674F0823DFCC
:10158000C1DFAE59E1B1B796E5E3E453C63AE6519F
:10159000997696E8E6C28426EB898C9B62ED407CC6
:1015A0006FFCEFBC9C9F40F2BAA56FA5F490055A62
:1015B0002AF75C936B6CF9676DC11BFCE0E40D4787
:1015C000FEF520E6B500D0ED902E030094357705AA
:1015D0000080841E080000204E0A000000C80C3362
:1015E0003333330F986E12831141EF8D2114893BF1
:1015F000E65516CFFEE6DB18D1844B381BF77C1D71
:10160000901DA4BBE424203284725E228100C9F1C3
:1016100024ECA1E53D2700002100240027002A003A
:101620002D003000330001010000040107010A0110
:1016300000002200250028002B002E00310034007D
:1016400002010000050108010B0100002000230039
:10165000260029002C002F003200000100000301A9
:101660000601090105050505070508080808020225
:1016700002020A0A0808040404040101010101012C
:1016800001010303030303030303040707070C0C0F
:101690000C0C0C0C0C0C02020202060606060606D6
:1016A00006060B0B0B0B0B0B0B0B0102102020087B
:1016B00008102040102040800201020108040201AD
:1016C000010204081020408080402010080402011C
:1016D0008004020180402010080402010804020175
:1016E00001020408102040800102040810204080FC
:1016F0000000090A02080B0C0D0706030401000094
:1017000000000000000000000000000000000000D9
:10171000000000000000000000000000100F0E009C
:1017200000000000000000000000000000000000B9
:10173000000000000000494E46494E4954594E41B0
:101740004ECDCCCC3D0AD7233C17B7D13877CC2B24
:10175000329595E6241FB14F0A000020410000C8D1
:101760004200401C4620BCBE4CCA1B0E5AAEC59D52
:1017700074000334FA86378FC5C081CEFC33308FB6
:1017800011241FBECFEFD1E2DEBFCDBF00E00CBF02
:1017900017E0A0E0B2E0ECE9FFEB01E00BBF02C014
:1017A00007900D92A237B107D9F718E1A2E7B7E089
:1017B00001C01D92A238B107E1F717E1CCE7D7E1EC
:1017C00004C02297FE010E9486D9C237D107C9F70B
:1017D0000E94FCD00C94C1DF0C940000283008F06B
:1017E00027E03327DA01990F311D87FD91600096BC
:1017F0006105710539F432602E5F3D9330E32A951F
:10180000E1F708959F3F30F080387105610509F0D8
:101810003C5F3C5F3D93913008F08068911DDF9301
:10182000CF931F930F93FF92EF92192F987F969566
:10183000E92F96959695E90FFF27EA58FA4E9927D2
:101840003327EE24FF24A701E701059008940794AD
:1018500028F4360FE71EF81E491F511D660F771F2B
:10186000881F991F0694A1F70590079428F4E70EA6
:10187000F81E491F561FC11D770F881F991F661F2D
:101880000694A1F70590079428F4F80E491F561FF7
:10189000C71FD11D880F991F661F771F0694A1F7D8
:1018A0000590079420F4490F561FC71FD81F990FA2
:1018B000661F771F881F0694A9F7849110951770EB
:1018C00041F0D695C79557954795F794E7941A95A3
:1018D000C1F7ECE1F5E168941590159135916591AA
:1018E000959105907FE27395E118F10A430B560B31
:1018F000C90BD009C0F7E10CF11E431F561FC91FC9
:10190000D01D7EF4703311F48A95E6CFE89401502F
:1019100030F0080F0AF40027021708F4202F23954F
:10192000022F7A3328F079E37D932A95E9F710C0E6
:101930007D932A9589F6069497956795379517951F
:101940001794E118F10A430B560BC90BD00998F014
:1019500023957E9173957A3308F070E37C9320137E
:10196000B8F77E9170617D9330F0839571E37D933C
:1019700070E32A95E1F71124EF90FF900F911F91EA
:10198000CF91DF91992787FD90950895FA01AA27B5
:10199000283051F1203181F1E8946F936E7F6E5FB2
:1019A0007F4F8F4F9F4FAF4FB1E03ED0B4E03CD060
:1019B000670F781F891F9A1FA11D680F791F8A1F43
:1019C000911DA11D6A0F711D811D911DA11D20D0AA
:1019D00009F468943F912AE0269F11243019305D64
:1019E0003193DEF6CF010895462F4770405D419355
:1019F000B3E00FD0C9F7F6CF462F4F70405D4A33A2
:101A000018F0495D31FD4052419302D0A9F7EACF69
:101A1000B4E0A6959795879577956795BA95C9F798
:101A200000976105710508959B01AC010A2E06948B
:101A30005795479537952795BA95C9F7620F731F44
:101A4000841F951FA01D0895EF92FF920F93DF93BF
:101A5000CF93CDB7DEB760970FB6F894DEBF0FBE59
:101A6000CDBFA82F002309F461C07E010894E11CBA
:101A7000F11C88E0F70111928A95E9F729833A83EE
:101A80004B835C836D837E83AF83988780E2801B6A
:101A9000E82FFF27E7FDF0954D815E816F81788506
:101AA000181684F01D861E861F86188A8827992797
:101AB0008E1B9F0B04C076956795579547958A9521
:101AC000D2F728C0202F332727FD3095DB01CA012C
:101AD000022E04C0B695A795979587950A94D2F7DC
:101AE0008D879E87AF87B88B04C0440F551F661F34
:101AF000771FEA95D2F789819A81AB81BC8104C0B6
:101B0000B695A795979587952A95D2F7482B592B87
:101B10006A2B7B2B49875A876B877C8729853A8577
:101B20004B855C856D857E85AF8598898A2F60960B
:101B30000FB6F894DEBF0FBECDBFCF91DF910F91EE
:101B4000FF90EF900895CF93DF93FC01EB014230BB
:101B5000510570F0638574858585968520E030E0B9
:101B600040E854E40E9403D80E944BD679836883EE
:101B700082E090E0DF91CF910895CF93DF93EC0165
:101B8000FB014230510518F420E030E012C06081C2
:101B9000718180E090E00E9477D620E030E040E85C
:101BA0005AE30E9403D86B877C878D879E8722E04B
:101BB00030E0C901DF91CF910895009719F00197A6
:101BC000C1F40CC0E091BC17F091BD17A081B181A8
:101BD0002D913C91CF01F90119950895E091BE171F
:101BE000F091BF17A081B1812D913C91CF01F901F6
:101BF00019950895EF92FF920F931F93CF93DF9360
:101C0000EC0108836A834B83822F90E0880F991F31
:101C1000FC01A3E0EE0FFF1FAA95E1F7E81BF90B0B
:101C2000EE57FB4E81858983822F90E0880F991FA4
:101C3000DC0163E0AA0FBB1F6A95E1F7A81BB90B93
:101C4000AE57BB4E822F90E0880F991FFC0143E0F6
:101C5000EE0FFF1F4A95E1F7E81BF90BEE57FB4E1D
:101C600081858F5F19968C93DE0135E0E32EF12C90
:101C7000E00EF11E6FEF7FEFE0E0F0E01EC02D916F
:101C80002627822F8295807F822790E0382F222777
:101C9000AC01440F551F440F551F440F551F2427F7
:101CA0003527672F77276227732724E09595879537
:101CB0002A95E1F7682779273196EE15FF05FCF2A2
:101CC000CC5FDE4F699378839801295F3F4FC9014C
:101CD000CDB7DEB7E6E00C9475D9FC01DC01AC5F52
:101CE000BE4F8C91EB5FFE4F6827262F2295207FF9
:101CF000262730E0522F4427C90163E0880F991F3F
:101D00006A95E1F748275927808190E048275927AD
:101D100084E0359527958A95E1F7422753274C9320
:101D200050830895F901E40FF11D292F332744272B
:101D3000552720839C01552737FD5095452F21833A
:101D4000272F382F492F552747FD5A952283638324
:101D500084E008957F928F929F92AF92BF92CF922C
:101D6000DF92EF92FF920F931F93722E132FD42EB8
:101D7000C52EB62EA72E982E892EE00EF11C08E354
:101D80000E94240DF7012083272D312F4D2D5C2D2E
:101D90006B2D7A2D892D982D00E30E94240DF701DB
:101DA0002183272D312F4D2D5C2D6B2D7A2D892DE3
:101DB000982D08E20E94240DF7012283272D312F50
:101DC0004D2D5C2D6B2D7A2D892D982D00E20E94D2
:101DD000240DF7012383272D312F4D2D5C2D6B2DE5
:101DE0007A2D892D982D08E10E94240DF701248376
:101DF000272D312F4D2D5C2D6B2D7A2D892D982D72
:101E000000E10E94240DF7012583272D312F4D2D50
:101E10005C2D6B2D7A2D892D982D08E00E94240DC4
:101E2000F7012683778288E01F910F91FF90EF9052
:101E3000DF90CF90BF90AF909F908F907F9008954C
:101E40000E94920E0895A0E0B0E0E9E2FFE00C9459
:101E500057D98C01EB0165E50E94DD0DC801688151
:101E60000E94DD0DC80169810E94DD0DC8016A81F3
:101E70000E94DD0DC8016B810E94DD0DC8016C81DF
:101E80000E94DD0D6E01EE24FF2408C0C801F6019A
:101E900064810E94DD0D0894E11CF11C0894C11CB2
:101EA000D11C888190E0E816F90680F3CC5FDE4F04
:101EB000C80169910E94DD0DC80168810E94DD0D95
:101EC000CDB7DEB7E8E00C9473D9A6E0B1E0EBE65D
:101ED000FFE00C9457D9D82EC92E5091640570910B
:101EE000650588E28D836E834F83388729877E015D
:101EF0000894E11CF11CC701652F472F2D2D04E02C
:101F000010E00E94FA0D8D2D9C2DB7010E94230F29
:101F1000CA5FDE4FE8E00C9473D9A6E0B1E0E3E9D4
:101F2000FFE00C9457D9D82EC92E2091640540911A
:101F300065058AE28D837E836F837E010894E11CB0
:101F4000F11CC701622F2D2D02E010E00E94FA0D56
:101F50008D2D9C2DB7010E94230FCA5FDE4FE8E054
:101F60000C9473D9A6E0B1E0E8EBFFE00C9457D9EC
:101F7000D82EC92E30916405509165058FE28D836E
:101F80006E834F8328877E010894E11CF11CC701F2
:101F9000632F452F2D2D03E010E00E94FA0D8D2DAB
:101FA0009C2DB7010E94230FCA5FDE4FE8E00C941E
:101FB00073D91F920F920FB60F920BB60F92112486
:101FC0002F933F934F938F939F93EF93FF93409162
:101FD000C60020917C1730917D172F5F3F4F809175
:101FE0008017909181172823392380917E17909133
:101FF0007F172817390779F080917C1790917D170A
:10200000E0918217F0918317E80FF91F4083309316
:102010007D1720937C17FF91EF919F918F914F91A6
:102020003F912F910F900BBE0F900FBE0F901F90FE
:1020300018951F920F920FB60F920BB60F921124A4
:102040002F933F938F939F93EF93FF9320919E172E
:1020500030919F1780919C1790919D1728173907F1
:10206000E9F080919E1790919F17E091A217F0914F
:10207000A317E80FF91F80818093C60080919E17F7
:1020800090919F1701962091A0173091A11782235C
:10209000932390939F1780939E1710C020919C17B5
:1020A00030919D1780919E1790919F17281739079F
:1020B00029F48091C1008F7D8093C100FF91EF9141
:1020C0009F918F913F912F910F900BBE0F900FBE5C
:1020D0000F901F9018951F920F920FB60F920BB68C
:1020E0000F9211242F933F934F938F939F93EF93CE
:1020F000FF934091CE0020918417309185172F5F78
:102100003F4F809188179091891728233923809118
:102110008617909187172817390779F080918417CF
:1021200090918517E0918A17F0918B17E80FF91FAE
:1021300040833093851720938417FF91EF919F91EF
:102140008F914F913F912F910F900BBE0F900FBE2B
:102150000F901F9018951F920F920FB60F920BB60B
:102160000F9211242F933F938F939F93EF93FF939D
:102170002091A6173091A7178091A4179091A517C9
:1021800028173907E9F08091A6179091A717E091D9
:10219000AA17F091AB17E80FF91F80818093CE004A
:1021A0008091A6179091A71701962091A8173091BA
:1021B000A917822393239093A7178093A61710C083
:1021C0002091A4173091A5178091A6179091A71779
:1021D0002817390729F48091C9008F7D8093C900A1
:1021E000FF91EF919F918F913F912F910F900BBE97
:1021F0000F900FBE0F901F9018951F920F920FB661
:102200000F920BB60F9211242F933F934F938F93FE
:102210009F93EF93FF934091360120919417309153
:1022200095172F5F3F4F809198179091991728230A
:10223000392380919617909197172817390779F0CD
:102240008091941790919517E0919A17F0919B17B0
:10225000E80FF91F40833093951720939417FF914F
:10226000EF919F918F914F913F912F910F900BBEC6
:102270000F900FBE0F901F9018951F920F920FB6E0
:102280000F920BB60F9211242F933F938F939F932E
:10229000EF93FF932091B6173091B7178091B41741
:1022A0009091B51728173907E9F08091B6179091EA
:1022B000B717E091BA17F091BB17E80FF91F8081AB
:1022C000809336018091B6179091B71701962091AF
:1022D000B8173091B917822393239093B71780933F
:1022E000B61710C02091B4173091B5178091B6176A
:1022F0009091B7172817390729F4809131018F7D04
:1023000080933101FF91EF919F918F913F912F9198
:102310000F900BBE0F900FBE0F901F9018958091DD
:102320004E148F5F80934E14823008F46BC010926D
:102330004E148091930990919409893C91059CF5E4
:102340002091EF133091F0134091F1135091F2135B
:102350008091E0139091E113A091E213B091E31307
:1023600080599140A040B040235030404040504000
:10237000281739074A075B0714F49C01AD01DA01FD
:10238000C901243631054105510524F484E690E065
:10239000A0E0B0E08093EF139093F013A093F113BB
:1023A000B093F21308958D5B924064F18091EF1326
:1023B0009091F013A091F113B091F2130396A11D27
:1023C000B11D8093EF139093F013A093F113B0938A
:1023D000F2132091E0133091E1134091E2135091F8
:1023E000E31320573E4F4F4F5F4F281739074A07D7
:1023F0005B0744F42093EF133093F0134093F113F1
:102400005093F2130895AF92BF92CF92DF92EF9262
:10241000FF920F931F935B016C01E0906713F090A4
:1024200068130091691310916A1322273327A901B9
:10243000261B370B480B590BE216F306040715074A
:102440001CF4DA01C9010DC0DC01CB01782F692F22
:102450009A2F8B2FEA14FB040C051D0534F4D801C8
:10246000C701782F692F9A2F8B2F70936713609372
:1024700068139093691380936A1380916B13909102
:102480006C13A0916D13B0916E1382179307A4077C
:10249000B5074CF0A60195018A159B05AC05BD0555
:1024A00014F49C01AD0120936B1330936C13409393
:1024B0006D1350936E131F910F91FF90EF90DF906B
:1024C000CF90BF90AF900895EF92FF920F931F931C
:1024D0006091120570911305809114059091150576
:1024E00020910E0530910F05409110055091110576
:1024F0000E9403D87B018C0120E030E040E05FE3E4
:102500000E94D7D5882324F4E0E070E080EC0DC071
:10251000C801B70120E030E040E85FE30E94B3D794
:1025200018162CF4E0E070E080E86FE30AC060E089
:1025300070E080E090E4A80197010E94F9D4E62FB2
:10254000692F2E2F372F482F562FB901CA011F91FF
:102550000F91FF90EF900895EF92FF920F931F93CA
:102560000E9464127B018C0160917B1370917C133B
:10257000882777FD8095982F0E9479D6A80197012A
:102580000E9403D80E9446D6CB011616170614F0F7
:1025900081E090E090939809809397091F910F91A3
:1025A000FF90EF900895EF92FF920F931F930E9478
:1025B00064127B018C0160919309709194098827C2
:1025C00077FD8095982F0E9479D6A80197010E94E7
:1025D00003D80E9446D670939809609397091F917B
:1025E0000F91FF90EF900895FC017183608387E065
:1025F0006237780739F47093BD176093BC17138660
:10260000128608C07093BF176093BE1781E090E0F8
:10261000938782871382128208952091EF1330915D
:10262000F0134091F1135091F2138091B3139091F4
:10263000B413A091B513B091B61382179307A407F2
:10264000B50774F48091E0139091E113A091E21327
:10265000B091E313281739074A075B07C4F40DC08C
:102660008091E0139091E113A091E213B091E313F4
:1026700082179307A407B50754F41092AF13109272
:10268000B0131092B1131092B21381E0089580E05C
:10269000089580911B1480932F05833049F4ABEF8C
:1026A000B3E1E9E1F4E18FE001900D928150E1F7AF
:1026B000089580911B14813021F480910B01846076
:1026C0000AC0882321F480910B018B7F04C0809184
:1026D0000B0194E0892780930B0108952091230A30
:1026E0003091240AC9018F5C94408238910510F41E
:1026F00081E00895C901815595408238910510F413
:1027000082E00895C901835D95408238910510F4F7
:1027100083E00895C901855596408138910510F4EC
:1027200084E00895265D364014F480E0089585E045
:1027300008958091930990919409892B91F5809146
:10274000DC099091DD092FE0813A9207DCF080915D
:1027500081148A3010F181E08093EC128AE080933A
:1027600081148091631190916411A0916511B091D1
:10277000661180931D1390931E13A0931F13B093A3
:10278000201308958056904F64F4809181148A300C
:1027900020F01092EC128AE001C08F5F80938114C8
:1027A00008951092811408952091F7123091F81233
:1027B0004091F9125091FA1280915B1390915C1341
:1027C000A0915D13B0915E13281B390B4A0B5B0B74
:1027D000213586E4380780E0480780E058072CF070
:1027E000205A3C48404050400CC0203B99EB3907F0
:1027F0009FEF49079FEF590724F4205633474F4F67
:102800005F4F80E0B90137FF03C0709561957F4F3E
:10281000615177420CF081E0089560919A137091B4
:102820009B1380919C1390919D1324E630E040E02F
:1028300050E00E94CAD8693027E0720720E0820782
:1028400020E0920724F068E077E080E090E0683FC5
:1028500028EF72072FEF82072FEF920724F468EF1B
:1028600078EF8FEF9FEF0E9479D62091CA0D3091BB
:10287000CB0D4091CC0D5091CD0D0E9403D80E94FC
:1028800046D660937313709374138093751390936B
:10289000761308956F927F928F929F92AF92BF921C
:1028A000CF92DF92EF92FF920F931F93A0909A1313
:1028B000B0909B13C0909C13D0909D136090CA0D54
:1028C0007090CB0D8090CC0D9090CD0DE091680F65
:1028D000F091690FE688F788008D118D80910113C2
:1028E00090910213AA2797FDA095BA2FA8019701EE
:1028F000281B390B4A0B5B0BCA01B9010E9479D620
:1029000020918A0E30918B0E40918C0E50918D0E3D
:102910000E9403D80E9446D6F0920213E09201135F
:1029200038EF683F73074CF438EFE32E38EFF32E9F
:102930003FEF032F3FEF132F0BC047E069307407C1
:1029400014F068E077E07B010027F7FC0095102F7A
:10295000C601B50124E630E040E050E00E94CAD84C
:10296000693057E0750750E0850750E0950724F07F
:1029700068E077E080E090E00E9479D6A4019301BE
:102980000E9403D80E9446D66E197F09800B910BD6
:1029900060937313709374138093751390937613ED
:1029A0001F910F91FF90EF90DF90CF90BF90AF906D
:1029B0009F908F907F906F9008952091F3123091A7
:1029C000F4124091F5125091F6128091631190919A
:1029D0006411A0916511B0916611281B390B4A0B47
:1029E0005B0B213586E4380780E0480780E0580714
:1029F0002CF0205A3C48404050400CC0203B89EB12
:102A000038078FEF48078FEF580724F420563347D5
:102A10004F4F5F4F2093231330932413409325137C
:102A20005093261308952091F7123091F812409197
:102A3000F9125091FA128091FB129091FC12A09120
:102A4000FD12B091FE12281B390B4A0B5B0B21358E
:102A500086E4380780E0480780E058072CF0205AC9
:102A60003C48404050400CC0203B89EB38078FEF7A
:102A700048078FEF580724F4205633474F4F5F4FD6
:102A8000C90137FF03C0909581959F4F9C01442752
:102A900037FD4095542FB901CA0108952091FF08D0
:102AA000309100098091230990912409281B390B4A
:102AB000253631051CF08AE0809380142C593F4F55
:102AC0001CF486EF809380148091801418161CF4F7
:102AD0008150809380148091801487FF03C08F5FA2
:102AE0008093801480918014813021F08F3F11F009
:102AF00080E00895811181E00895FC01DB01452B00
:102B000011F083858C9381E090E00895DC01FB0156
:102B1000452B19F080811B968C9381E090E00895FD
:102B2000FC016385772767FD7095872F972F0E949B
:102B300079D60895FC01DB014230510520F08385F0
:102B400094858D939C9382E090E00895DC01FB01D5
:102B50004230510530F0808191811C969C938E9378
:102B60001B9782E090E00895FC01638574858827B7
:102B700077FD8095982F0E9479D60895FC012385D2
:102B8000348545855685B901CA010895CF93DF93F1
:102B9000FC01EB014430510540F083859485A58507
:102BA000B68588839983AA83BB8384E090E0DF9114
:102BB000CF910895CF93DF93EC01FB014430510591
:102BC00040F080819181A281B3818B879C87AD8702
:102BD000BE8784E090E0DF91CF91089580919309C2
:102BE00090919409893C910544F0909364088093F6
:102BF000630888E598E00E946B8A08951092F407B4
:102C000089EE97E00E946B8A1092041310920513CC
:102C10001092191408958EE491E090938F08809398
:102C20008E0883E898E00E946B8A089580917F1453
:102C30008F5F80937F148150833011F410927F1442
:102C400080917F14813059F0813018F08230C1F4C6
:102C50000FC083E260E00E9494D485E205C085E263
:102C600060E00E9494D484E261E00E9494D40895CC
:102C700084E260E00E9494D483E261E00E9494D4F4
:102C800008958091EC129091F112813081F480E0EE
:102C9000992309F481E08093F112882319F085E2E9
:102CA00061E002C085E260E00E9494D40895992317
:102CB00039F481E08093F11285E261E00E9494D4BE
:102CC0000895E091680FF091690F81A992A9813070
:102CD000910539F00297F9F483E261E00E9494D4FF
:102CE000089587A18823D9F090E08091F21288237B
:102CF00009F491E09093F212992319F083E260E0D5
:102D000002C083E261E00E9494D4E091680FF091E8
:102D1000690F17A2089583E260E00E9494D4089599
:102D200000D00F9282E797E0EDB7FEB792838183E0
:102D300086E296E0948383830E94FBC30F900F90FA
:102D40000F900F9080E0089500D00F9282E797E0F7
:102D5000EDB7FEB79283818385E897E09483838300
:102D60000E94FBC30F900F900F900F9080E008958A
:102D700000D00F9282E797E0EDB7FEB79283818390
:102D800088E698E0948383830E94FBC381E080936C
:102D9000F3080F900F900F900F9088EE98E00E942C
:102DA0006B8A64E170E080E090E00E9496D382E755
:102DB00097E00E9472C4181619069CF71092F30847
:102DC00088EE98E00E946B8A80E0089500D00F9210
:102DD00082E797E0EDB7FEB79283818385E499E0BF
:102DE000948383830E94FBC30F900F900F900F90EA
:102DF000089500D00F9282E797E0EDB7FEB7928377
:102E000081838DEE9CE0948383830E94FBC30F90AB
:102E10000F900F900F9008950E94F91668EE73E0DE
:102E200080E090E00E9496D384E897E00E9472C40C
:102E3000892B89F084E261E00E9494D484E897E0D1
:102E40000E9488C4682F82E797E00E94E9C484E268
:102E500060E00E9494D482E797E00E9472C4181642
:102E6000190614F780E008950E94F91668EE73E0E1
:102E700080E090E00E9496D300D00F9282E797E026
:102E8000EDB7FEB79283818389E195E094838383D4
:102E90000E94FBC30F900F900F900F9086E997E070
:102EA0000E9472C4892B49F086E997E00E9488C489
:102EB000682F86E997E00E94E9C482E797E00E94C4
:102EC00072C41816190654F780E00895EF92FF9225
:102ED0000F931F93CF93DF930E94F91668EE73E070
:102EE00080E090E00E9496D34EEDE42E45E0F42E73
:102EF00003ED15E0C2E7D7E000D00F92EDB7FEB7C3
:102F0000D283C183F482E3820E94FBC380910B01D0
:102F1000846080930B010F900F900F900F9068EBDF
:102F20007BE080E090E00E9496D3CE010E9472C4C4
:102F300018161906FCF000D00F92EDB7FEB7D28339
:102F4000C183148303830E94FBC380910B018B7F99
:102F500080930B010F900F900F900F9068EB7BE028
:102F600080E090E00E9496D3CE010E9472C41816B1
:102F7000190614F680E0CDB7DEB7E6E00C9475D9FB
:102F80008DB79EB740970FB6F8949EBF0FBE8DBF0A
:102F9000EDB7FEB7319682E797E0ADB7BEB71296B0
:102FA0009C938E9311978BED9DE093838283809108
:102FB000431190914411A0914511B0914611848321
:102FC0009583A683B7838091471190914811A09172
:102FD0004911B0914A1180879187A287B387809168
:102FE0004B1190914C11A0914D11B0914E118487CD
:102FF0009587A687B7870E94FBC38DB79EB740967B
:103000000FB6F8949EBF0FBE8DBF08958DB79EB7C3
:1030100040970FB6F8949EBF0FBE8DBFEDB7FEB7B9
:10302000319682E797E0ADB7BEB712969C938E9328
:1030300011978EEF9DE09383828380914F11909141
:103040005011A0915111B091521184839583A683A0
:10305000B7838091531190915411A0915511B09163
:10306000561180879187A287B387809157119091DD
:103070005811A0915911B0915A1184879587A6874C
:10308000B7870E94FBC38DB79EB740960FB6F894E2
:103090009EBF0FBE8DBF089522E737E0882349F019
:1030A00000D00F92EDB7FEB7328321838DE29EE010
:1030B00008C000D00F92EDB7FEB73283218389E2BA
:1030C0009EE0948383830E94FBC382E797E0EDB781
:1030D000FEB79283818382E29EE0948383830E9481
:1030E000FBC30F900F900F900F90089500D00F9298
:1030F00082E797E0EDB7FEB79283818387E49EE095
:10310000948383830E94FBC30F900F900F900F90C6
:1031100008950F931F938DB79EB708970FB6F89435
:103120009EBF0FBE8DBFEDB7FEB7319602E717E029
:10313000ADB7BEB712961C930E93119786EB9EE027
:1031400093838283809116099091170995838483D4
:103150008091300990913109978386830E94FBC347
:10316000EDB7FEB73196ADB7BEB712961C930E936E
:10317000119788EA9EE09383828380915F09909102
:103180006009958384838091790990917A09978366
:1031900086830E94FBC3EDB7FEB73196ADB7BEB7CD
:1031A00012961C930E9311978AE99EE09383828373
:1031B0008091A8099091A909958384838091C2097F
:1031C0009091C309978386830E94FBC3EDB7FEB736
:1031D0003196ADB7BEB712961C930E9311978CE83B
:1031E0009EE0938382838091F1099091F209958307
:1031F000848380910B0A90910C0A978386830E94A6
:10320000FBC3EDB7FEB73196ADB7BEB712961C93B0
:103210000E9311978EE79EE09383828380913A0A02
:1032200090913B0A958384838091540A9091550A2A
:10323000978386830E94FBC3EDB7FEB73196ADB787
:10324000BEB712961C930E93119780E79EE093836E
:1032500082838091830A9091840A958384838091EC
:103260009D0A90919E0A978386830E94FBC3EDB7C7
:10327000FEB73196ADB7BEB712961C930E93119759
:1032800082E69EE0938382838091CC0A9091CD0A5E
:10329000958384838091E60A9091E70A97838683D9
:1032A0000E94FBC38DB79EB708960FB6F8949EBFD9
:1032B0000FBE8DBF1F910F910895CF93DF93FC0137
:1032C0008DB79EB744970FB6F8949EBF0FBE8DBFC3
:1032D0002DB73EB72F5F3F4F82E797E0ADB7BEB740
:1032E00012969C938E93119784EC9EE0E9019B8348
:1032F0008A8386899789A08DB18D8C839D83AE83C7
:10330000BF8385A196A1A7A1B0A588879987AA8721
:10331000BB8784A995A9A6A9B7A98C879D87AE87E5
:10332000BF87ED5BFF4F80819181AA2797FDA09514
:10333000BA2FF901808B918BA28BB38B0E94FBC3B8
:103340008DB79EB744960FB6F8949EBF0FBE8DBF43
:10335000DF91CF910895A0E0B0E0E1EBF9E10C94AA
:1033600055D973E1A72E75E0B72E6DE0C62E65E046
:10337000D62E00E010E052E7E52E57E0F52E00D003
:1033800000D0EDB7FEB73196ADB7BEB71296FC923E
:10339000EE921197B382A282158304830E94FBC32D
:1033A000C0E0D0E08DB79EB706960FB6F8949EBFEA
:1033B0000FBE8DBFCE01800F911F0E94D9DD00D0BE
:1033C00000D0EDB7FEB73196ADB7BEB71296FC92FE
:1033D000EE921197D382C282848315820E94FBC32E
:1033E00021968DB79EB706960FB6F8949EBF0FBE76
:1033F0008DBFC031D105F1F6C7010E941BD2005F1D
:103400001F4F90E10030190709F0B9CF80E0CDB728
:10341000DEB7EAE00C9471D9A0E0B0E0E2E1FAE1B5
:103420000C944DD98091E708882309F4A3C00E9429
:10343000F916EAE42E2EE5E03E2EC2E7D7E06AEF69
:1034400070E080E090E00E9496D382E99FE00E94C5
:103450007A9282E99FE040E050E060E070E08A010B
:103460009B010E94EC9E82E99FE00E949595FC01E1
:10347000408451846284738484809580A680B78060
:10348000C080D180E280F38060919A0F70919B0F91
:1034900080919C0F90919D0F21EE3EE245E652E413
:1034A0000E9403D820E030E048EC52E40E9403D8A8
:1034B0000E9446D6613A2CE8720720E0820720E09D
:1034C00092072CF0605A7C488040904006C097FFDD
:1034D00004C0605673478F4F9F4FEDB7FEB77A9782
:1034E0000FB6F894FEBF0FBEEDBF0DB71EB70F5F4E
:1034F0001F4FD283C183F8013382228224E630E059
:1035000040E050E00E9432D9F8012483358346839D
:1035100057838091940F9091950F91878087809128
:10352000960F9091970F938782878091980F909133
:10353000990F95878487C686D786E08AF18A828A22
:10354000938AA48AB58A468A578A608E718E0E94B1
:10355000FBC32DB73EB7265E3F4F0FB6F8943EBF74
:103560000FBE2DBFCE010E9472C4181619060CF0B2
:1035700066CF15C000D00F9282E797E0EDB7FEB797
:103580009283818380E495E0948383830E94FBC3CC
:103590000F900F900F900F9080E00E944C1880E0E9
:1035A000CDB7DEB7E2E10C9469D90F931F930EEA11
:1035B00016E14091A8095091A909C80160E00E9454
:1035C0005E864091A8095091A909C80161E00E9456
:1035D0005E864091A8095091A909C80162E00E9445
:1035E0005E864091A8095091A909C80163E00E9434
:1035F0005E864091A8095091A909C80166E00E9421
:103600005E864091A8095091A909C80167E00E940F
:103610005E861F910F9108950F931F930EEA16E196
:103620004091A8095091A909C80160E00E945E86F6
:103630004091A8095091A9094E5C5F4FC80162E012
:103640000E945E8668EE73E080E090E00E9496D370
:103650004091A8095091A909C80162E00E945E86C4
:103660004091A8095091A9094E5C5F4FC80160E0E4
:103670000E945E8668EE73E080E090E00E9496D340
:103680004091A8095091A909C80160E00E945E8696
:103690004091A8095091A9094E5C5F4FC80163E0B1
:1036A0000E945E8668EE73E080E090E00E9496D310
:1036B0004091A8095091A909C80163E00E945E8663
:1036C0004091A8095091A9094E5C5F4FC80161E083
:1036D0000E945E8668EE73E080E090E00E9496D3E0
:1036E0001F910F9108950E940C1B82E797E00E94A2
:1036F00072C418161906BCF71092F30888EE98E009
:103700000E946B8A80E008958091930990919409BA
:10371000181619061CF481E08093ED124091A80957
:103720005091A909E0EDF2E14193519382E1E03E2D
:10373000F807D1F78EEA96E160E00E945E8640913C
:10374000A8095091A9098EEA96E161E00E945E867F
:103750004091A8095091A9098EEA96E162E00E9481
:103760005E864091A8095091A9098EEA96E163E02E
:103770000E945E86089560911B14615040911C1454
:1037800050911D148EEA96E10E945E860895109273
:103790003F1410923E141092321410923114109271
:1037A0003414109233140E9462D360932D147093DA
:1037B0002E1480932F149093301408958091A913A0
:1037C0009091AA13892B09F45CC00E9462D32091C6
:1037D000A3133091A4134091A5135091A613621B1B
:1037E000730B840B950B2091A7133091A8134427DA
:1037F00037FD4095542F621773078407950708F427
:1038000040C037C001979093AA138093A913809169
:10381000A9139091AA13892BA1F10E9462D36093FE
:10382000A3137093A4138093A5139093A613609190
:10383000A213862F8450843088F48091A91380FFCE
:1038400005C04091AB135091AC1304C04091AD132F
:103850005091AE138EEA96E10E945E868091A2138B
:10386000853079F480910B0194E0892780930B01D6
:1038700008958091A9139091AA131816190614F2AD
:10388000C6CF089585E08093A2131092A3131092DF
:10389000A4131092A5131092A61360912014709196
:1038A000211480912214909123140E9479D620E053
:1038B00030E04AEF53E40E9403D80E9446D670934A
:1038C000A8136093A71380911C1490911D14A091CC
:1038D0001E14B0911F14880F991FAA1FBB1F90932D
:1038E000AA138093A9130E94DE1B08951F931091C1
:1038F0001B1411501093A2131F5F812F8550843029
:1039000008F05BC01092A3131092A4131092A51399
:103910001092A6136091241470912514809126149E
:10392000909127140E9479D620E030E04AEF53E4CA
:103930000E9403D80E9446D67093A8136093A713E1
:103940008091201490912114A0912214B0912314FD
:10395000880F991FAA1FBB1F9093AA138093A913C6
:1039600080911C1490911D149093AC138093AB1311
:10397000153079F0163018F41430E9F405C016301B
:1039800069F01730C1F40FC08091470A9091480A3E
:103990000EC08091900A9091910A09C08091D90A35
:1039A0009091DA0A04C08091220B9091230B90939E
:1039B000AE138093AD130E94DE1B1F9108956F928A
:1039C0007F928F929F92AF92BF92CF92DF92EF92AF
:1039D000FF920F931F930E9462D32091881330911E
:1039E000891340918A1350918B13621B730B840BC4
:1039F000950B20918C1330918D13442737FD409502
:103A0000542F261737074807590790F480918E13D3
:103A100090918F13A0919013B091911380936F1395
:103A200090937013A0937113B093721381E079C0D7
:103A30000E9462D37B018C01609184137091851385
:103A400080918613909187130E9479D63B014C0197
:103A500060919213709193138091941390919513A8
:103A60000E9479D65B016C01809188139091891333
:103A7000A0918A13B0918B13E81AF90A0A0B1B0B59
:103A8000C801B7010E9477D67B018C0160918C132D
:103A900070918D13882777FD8095982F0E9479D695
:103AA0009B01AC01C801B7010E94DED59B01AC01AE
:103AB000C601B5010E9403D87B018C016091981367
:103AC00070E0882777FD8095982F0E9479D69B011A
:103AD000AC01C801B7010E9403D89B01AC01C4012D
:103AE000B3010E94FAD40E9446D6613A2CE87207CC
:103AF00020E0820720E092072CF0605A7C4880404A
:103B0000904006C097FF04C0605673478F4F9F4F89
:103B100060936F137093701380937113909372136B
:103B200080E01F910F91FF90EF90DF90CF90BF90BA
:103B3000AF909F908F907F906F9008950E9462D376
:103B40002091B3133091B4134091B5135091B61333
:103B5000621B730B840B950B2091AF133091B01344
:103B60004091B1135091B2132617370748075907F0
:103B700010F080E008951092AF131092B0131092DD
:103B8000B1131092B21381E0089580910713813729
:103B900061F1823718F4803771F505C0823731F052
:103BA000833749F525C00E949E1D089520919A13E0
:103BB00030919B1340919C1350919D138091AF13B2
:103BC0009091B013A091B113B091B2132817390797
:103BD0004A075B0784F41092AF131092B01310924F
:103BE000B1131092B21381E008950E940D1308954D
:103BF0000E94DF1C089580E00895EF92FF920F93DA
:103C00001F9310922F0580916F1390917013A091C4
:103C10007113B09172138093841390938513A093C2
:103C20008613B09387130E9462D3609388137093B6
:103C3000891380938A1390938B1310911B14109304
:103C4000981300912414009399136091201470919B
:103C50002114809122149091231424E630E040E056
:103C600050E00E94CAD87093971360939613672B05
:103C700031F480E797E19093971380939613112383
:103C800019F48FEF809398130023B9F060911C14FE
:103C900070911D1480911E1490911F1424E630E041
:103CA00040E050E00E94CAD860939213709393133F
:103CB000809394139093951374C060911C14709129
:103CC0001D1480911E1490911F1424E630E040E0F2
:103CD00050E00E94CAD87B018C0160938E137093D0
:103CE0008F13809390139093911380919813209148
:103CF000841330918513409186135091871381303E
:103D0000C1F4D801C701821B930BA40BB50B2E1570
:103D10003F054007510724F080569347AF4FBF4FF0
:103D20008093921390939313A0939413B09395134D
:103D300015C0E216F3060407150724F02056334792
:103D40004F4F5F4F2E193F09400B510B2093921399
:103D5000309393134093941350939513809192133F
:103D600090919313A0919413B0919513813A2CE8FC
:103D7000920720E0A20720E0B2072CF0805A9C486E
:103D8000A040B04006C0B7FF04C080569347AF4F75
:103D9000BF4F8093921390939313A0939413B09377
:103DA00095132091961330919713442737FD409532
:103DB000542F60919213709193138091941390916A
:103DC00095130E9432D9CA01B90128EE33E040E0D0
:103DD00050E00E94CAD870938D1360938C131F918A
:103DE0000F91FF90EF9008950E9462D3E0E0209140
:103DF0005F13309160134091611350916213621B05
:103E0000730B840B950B20916313309164134091D5
:103E1000651350916613261737074807590708F4AA
:103E2000E1E08E2F0895AF92BF92CF92DF92EF9292
:103E3000FF920F931F93E090BB13F090BC1300917F
:103E4000BD131091BE130E9462D32091B71330911D
:103E5000B8134091B9135091BA13621B730B840BC2
:103E6000950B24E130E040E050E00E9410D9E21AC6
:103E7000F30A040B150BE092EF13F092F01300938A
:103E8000F1131093F213A090E013B090E113C090DF
:103E9000E213D090E3136091551370915613809103
:103EA0005713909158136A197B098C099D090E9438
:103EB00079D62DEC3CEC4CE45EE30E9403D87B0108
:103EC0008C016091591370915A13882777FD809562
:103ED000982F0E9479D62DEC3CEC4CE45FE30E94D5
:103EE00003D89B01AC01C801B7010E94FAD40E941B
:103EF00046D69B0170935A1360935913A0925513A1
:103F0000B0925613C0925713D09258138091C208A2
:103F1000882349F080914D1390914E1388971CF49B
:103F200081E080935413121613061CF081E08093F5
:103F3000541380E01F910F91FF90EF90DF90CF908E
:103F4000BF90AF900895CF92DF92FF920F931F938F
:103F5000CF93DF930E94F9168AE69FE00E9449887A
:103F600068EE73E080E090E00E9496D300D00F925C
:103F700002E717E0ADB7BEB712961C930E931197E8
:103F800080E596E014969C938E9313970E94FBC352
:103F90000F900F900F900F9068EE73E080E090E02C
:103FA0000E9496D33AE4C32E36E0D32EC0E0D0E090
:103FB000F02E012F20C08AE69FE06C2F0E941A8805
:103FC00000D000D0EDB7FEB73196ADB7BEB71196B1
:103FD000FC92119712960C93D382C28295838483AC
:103FE0000E94FBC32196EDB7FEB736960FB6F89444
:103FF000FEBF0FBEEDBFC930D105ECF282E797E0FE
:104000000E941BD264E170E080E090E00E9496D3B1
:1040100082E797E00E9472C4181619061CF0C0E0EF
:10402000D0E0E9CF80E0DF91CF911F910F91FF9019
:10403000DF90CF900895A0E0B0E0E1E2F0E20C94D0
:1040400057D90E94F91668EE73E080E090E00E9474
:1040500096D355E5C52E56E0D52E42E7E42E47E02F
:10406000F42E6DE471E080E090E00E9496D30E940F
:1040700061168091680F9091690F0E9417BAC091E4
:10408000680FD091690F8DA1882309F440C08DB7C6
:104090009EB742970FB6F8949EBF0FBE8DBF0DB767
:1040A0001EB70F5F1F4FEDB7FEB7F282E182F80136
:1040B000D382C2828A859B85AC85BD8584839583A6
:1040C000A683B7838E859F85A889B98980879187C4
:1040D000A287B3876A897B898C899D8924E630E031
:1040E00040E050E00E9432D9F801248735874687A6
:1040F00057878CA1808B118A0E94FBC38DB79EB716
:1041000042960FB6F8949EBF0FBE8DBF06C082E7E1
:1041100097E060E072E00E9438D182E797E00E9469
:1041200072C4181619060CF09CCF80E0CDB7DEB72C
:10413000E8E00C9473D9CF93DF93C0E0D0E082E73E
:1041400097E062E072E00E9438D12196C832D10532
:10415000B1F782E797E064E072E00E9432D2DF912B
:10416000CF910895CF93DF93EC0107C0219782E7A9
:1041700097E064E072E00E9432D21C161D06B4F390
:10418000DF91CF91089500D00F9282E797E0EDB7CD
:10419000FEB79283818382E39FE0948383830E94AE
:1041A000FBC30F900F900F900F900E949B200E94D6
:1041B000C0170E94061882E090E00E94B220089585
:1041C0000F931F9300D00F9202E717E0ADB7BEB771
:1041D00012961C930E9311978AE79FE014969C9376
:1041E0008E9313970E94FBC30F900F900F900F9028
:1041F0000E949B20EDB7FEB73E970FB6F894FEBF26
:104200000FBEEDBF3196ADB7BEB712961C930E939D
:10421000119787E39FE09383828380912408909194
:104220002508958384838091310890913208978383
:10423000868380916308909164089187808780913C
:104240003E08992787FD909593878287809156082D
:1042500090915708958784870E94FBC3EDB7FEB7FE
:104260003E960FB6F894FEBF0FBEEDBF82E090E021
:104270000E94B2201F910F9108950F931F9300D0B9
:104280000F9202E717E0ADB7BEB712961C930E93DC
:10429000119782EB9FE014969C938E9313970E9444
:1042A000FBC30F900F900F900F900E949B20EDB7D3
:1042B000FEB73E970FB6F894FEBF0FBEEDBF319626
:1042C000ADB7BEB712961C930E93119784E89FE08A
:1042D000938382838091C0079091C107A091C20708
:1042E000B091C30784839583A683B7838091CF075A
:1042F0009091D00791878087809181089091820862
:10430000AA2797FDA095BA2F82879387A487B587A0
:104310000E94FBC3EDB7FEB73E960FB6F894FEBF02
:104320000FBEEDBF82E090E00E94B2201F910F917E
:1043300008950F931F9300D00F9202E717E0ADB7D7
:10434000BEB712961C930E93119787E490E11496D2
:104350009C938E9313970E94FBC30F900F900F9026
:104360000F900E949B2000D00F92EDB7FEB71283F2
:1043700001838AE390E1948383830E94FBC30F90BF
:104380000F900F900F908EEC9BE00E945D1900D073
:104390000F92ADB7BEB712961C930E93119782E39E
:1043A00090E114969C938E9313970E94FBC30F90F9
:1043B0000F900F900F908FE19CE00E945D1900D04C
:1043C0000F92EDB7FEB7128301838CE290E19483E4
:1043D00083830E94FBC30F900F900F900F9080E794
:1043E0009CE00E945D1900D00F92ADB7BEB7129647
:1043F0001C930E93119789E190E114969C938E93F0
:1044000013970E94FBC30F900F900F900F9081ECB9
:104410009CE00E945D1900D00F92EDB7FEB71283A9
:10442000018381E190E1948383830E94FBC30F9019
:104430000F900F900F9082E19DE00E945D1900D0D7
:104440000F92ADB7BEB712961C930E9311978BE0E7
:1044500090E114969C938E9313970E94FBC30F9048
:104460000F900F900F9083E69DE00E945D19EDB7CD
:10447000FEB738970FB6F894FEBF0FBEEDBF31966A
:10448000ADB7BEB712961C930E9311978CEF9FE0B9
:10449000938382838091540F9091550FA091560F72
:1044A000B091570F84839583A683B7830E94FBC383
:1044B000EDB7FEB73196ADB7BEB712961C930E930B
:1044C00011978DEE9FE0938382838091630F90918B
:1044D000640FA091650FB091660F84839583A683C6
:1044E000B7830E94FBC30F900F900F900F90EDB712
:1044F000FEB71283018382EE9FE0948383830E9440
:10450000FBC30F900F900F900F9084EB9DE00E94E3
:104510005D1900D00F92ADB7BEB712961C930E93E3
:1045200011978BED9FE014969C938E9313970E94A6
:10453000FBC30F900F900F900F9085E09EE00E94BC
:104540005D1900D00F92EDB7FEB7128301838BEC9B
:104550009FE0948383830E94FBC30F900F900F9082
:104560000F9087EA9EE00E945D1900D00F92ADB7D0
:10457000BEB712961C930E9311978AEB9FE0149688
:104580009C938E9313970E94FBC30F900F900F90F4
:104590000F9088EF9EE00E945D1982E090E00E94FB
:1045A000B2201F910F91089500D00F9282E797E0FB
:1045B000EDB7FEB7928381838EE490E19483838389
:1045C0000E94FBC30F900F900F900F900E949B20B2
:1045D0000E94891882E090E00E94B22008950F9313
:1045E0001F9300D00F9202E717E0EDB7FEB71283DA
:1045F000018381E690E1948383830E94FBC30F9043
:104600000F900F900F900E949B2000D00F92EDB75B
:10461000FEB71283018385E590E1948383830E9432
:10462000FBC30F900F900F900F9082E090E00E94DC
:10463000B2201F910F91089500D000D0EDB7FEB7C2
:10464000319682E797E0ADB7BEB712969C938E93F2
:10465000119788E690E1938382838091B3079091CC
:10466000B407958384830E94FBC38DB79EB70696DB
:104670000FB6F8949EBF0FBE8DBF0E949B2082E0B4
:1046800090E00E94B220089500D00F9282E797E058
:10469000EDB7FEB7928381838EE790E194838383A5
:1046A0000E94FBC30F900F900F900F900E949B20D1
:1046B00080915C140E944C1882E090E00E94B2202D
:1046C000089500D00F9282E797E0EDB7FEB792838E
:1046D000818384EE90E1948383830E94FBC30F90D7
:1046E0000F900F900F900E949B208091CE088823FE
:1046F00011F40E944C188091CE08813091F400D0C2
:104700000F9282E797E0EDB7FEB7928381838CED3D
:1047100090E1948383830E94FBC30F900F900F90CE
:104720000F908091CE08823091F400D00F9282E7F2
:1047300097E0EDB7FEB79283818384ED90E1948397
:1047400083830E94FBC30F900F900F900F90809176
:10475000CE08833091F400D00F9282E797E0EDB756
:10476000FEB79283818389EC90E1948383830E94D6
:10477000FBC30F900F900F900F908091CE08843064
:1047800091F400D00F9282E797E0EDB7FEB79283E5
:1047900081838BEB90E1948383830E94FBC30F9012
:1047A0000F900F900F9082E090E00E94B220089549
:1047B000FB0184859585A685B78585309105A10582
:1047C000B10538F48093CE0883EC98E00E946B8AA0
:1047D00012C000D00F9282E797E0EDB7FEB7928348
:1047E000818385E098E0948383830E94FBC30F90CC
:1047F0000F900F900F900E94612380E00895FF9228
:104800000F931F93F62E00D000D0EDB7FEB7319670
:1048100002E717E0ADB7BEB712961C930E9311973F
:1048200029E53EE033832283848315820E94FBC303
:104830008DB79EB706960FB6F8949EBF0FBE8DBF7C
:10484000EF2DF0E0EE0FFF1FEB50FB4F6081718109
:10485000C8010E9432D21F910F91FF900895CF930B
:10486000DF9300D00F9282E797E0EDB7FEB7928317
:1048700081838AEE9EE0948383830E94FBC30F9022
:104880000F900F900F900E949B20C0E0D0E0FE019F
:10489000E059F74F8C2F60810E94FF232196C6308C
:1048A000D105A9F782E090E00E94B220DF91CF917C
:1048B000089582E797E065E072E00E9432D20895A1
:1048C0008BE191E10E94A6BF0E9406180E94C320BE
:1048D00080E0089500D00F9282E797E0EDB7FEB731
:1048E000928381838DE099E0948383830E94FBC34C
:1048F0000F900F900F900F9082E797E00E9488C46E
:10490000FFEF8F3F9F07C1F38937910529F0893564
:10491000910511F08FEF08950E94318B00D00F9216
:1049200082E797E0EDB7FEB79283818388EE98E047
:10493000948383830E94FBC30F900F900F900F907E
:1049400068EE73E080E090E00E9496D3FFCFEF9294
:10495000FF920F931F93CF93DF937B018230A1F0DF
:1049600000D00F9282E797E0EDB7FEB79283818384
:1049700088EE99E0948383830E94FBC38FEF0F90AE
:104980000F900F900F9081C0FB0102851385C80125
:1049900064EE79E00E94E6DA892B19F4CFEFDFEFBD
:1049A00053C0C80166ED79E00E94E6DAC0E0D0E0CD
:1049B000892B11F4C1E0D0E0C80169EC79E00E94D4
:1049C000E6DA892B09F4C260C80165EC79E00E943F
:1049D000E6DA892B09F4C460C80162EC79E00E9430
:1049E000E6DA892B09F4C860C8016DEB79E00E9412
:1049F000E6DA892B09F4C061C80168EB79E00E940E
:104A0000E6DA892B09F4C062C80163EB79E00E9401
:104A1000E6DA892B09F4C064C8016FEA79E00E94E4
:104A2000E6DA892B09F4C068C8016BEA79E00E94D4
:104A3000E6DA892B09F4D160C80163EA79E00E94C3
:104A4000E6DA892B09F4D260F701808191816CE963
:104A500079E00E94E6DA892B39F480918E089091F2
:104A60008F08C82BD92B08C0C095D09580918E088F
:104A700090918F08C823D923D0938F08C0938E08B4
:104A800083E898E00E946B8A80E0CDB7DEB7E6E06D
:104A90000C9475D9FF920F931F93F82E0BE617E134
:104AA000C80163EA0E9409C2C80165E90E9409C2FF
:104AB000C80163E00E9409C2C8016F2D0E9409C2AB
:104AC000C8016AEB0E9409C21F910F91FF900895DF
:104AD000CF93DF9300D00F9282E797E0EDB7FEB758
:104AE0009283818388E09AE0948383830E94FBC34E
:104AF000C1E0D0E00F900F900F900F908BE697E100
:104B0000BE010E945FC12196F0E1C030DF07B1F71E
:104B10008BE697E161E070E00E9453C18BE697E17C
:104B200063EA0E9409C28BE697E165E90E9409C227
:104B30008BE697E160EF0E9409C28BE697E160E0A7
:104B40000E9409C28BE697E16AEB0E9409C28BE6DC
:104B500097E10E9481C200D00F9282E797E0EDB703
:104B6000FEB7928381838AEF99E0948383830E94C6
:104B7000FBC30F900F900F900F90DF91CF9108958E
:104B8000CF92DF92EF92FF920F937C016B01BA01FB
:104B9000A901202F0E94D78C85EE95E0F701918323
:104BA0008083D486C3868091091790910A170D9649
:104BB00090930A17809309170F91FF90EF90DF9061
:104BC000CF900895EF92FF920F931F937C01162FC1
:104BD000BA01A901202F0E94D78C83EF95E0F7013D
:104BE0009183808313878091091790910A170C96FF
:104BF00090930A17809309171F910F91FF90EF90E0
:104C000008950F931F938C0124600E94D78C84E633
:104C100096E0F801918380838091091790910A179B
:104C20000B9690930A17809309171F910F9108957F
:104C30004630510540F0DC011B96FB0186E00190F7
:104C40000D928150E1F786E090E00895FC01463036
:104C5000510538F0DB013B9686E001900D928150C2
:104C6000E1F786E090E008954831510540F0DC011D
:104C70001B96FB0188E101900D928150E1F788E1DC
:104C800090E00895FC014831510538F0DB013B9676
:104C900088E101900D928150E1F788E190E008955C
:104CA0004C30510540F0DC011B96FB018CE001907B
:104CB0000D928150E1F78CE090E00895FC014C30BA
:104CC000510538F0DB013B968CE001900D9281504C
:104CD000E1F78CE090E008954432510540F0DC01AA
:104CE0001B96FB0184E201900D928150E1F784E272
:104CF00090E00895FC014432510538F0DB013B9609
:104D000084E201900D928150E1F784E290E00895F1
:104D1000A6E0B1E0EEE8F6E20C944DD9682E292E1B
:104D200059016A0148015E2C7F2C30906405409047
:104D3000650586E18D83DE011696FB018FE001900B
:104D40000D928150E1F776E0E72EF12CEC0EFD1E7E
:104D5000C601B5014FE097010E94200F082F10E017
:104D6000E82FE15FF0E0D701AE0FBF1F9C92DE019C
:104D70001796EA0FFB1F80828F5E90E0E80EF91E07
:104D8000F7017082A80FB91F5C920D5E1F4F7E0164
:104D90000894E11CF11CC701632D442D262D0E94AF
:104DA000FA0D862D922DB7010E94230FCA5FDE4FA8
:104DB000E2E10C9469D9A6E0B1E0E1EEF6E20C94F0
:104DC00057D9D82EC92E10916405709165058EEFC4
:104DD0008D836E83DE011796FA0182E301900D92B6
:104DE0008150E1F77E010894E11CF11CC701612F9D
:104DF000472F2D2D03E310E00E94FA0D8D2D9C2DE1
:104E0000B7010E94230FCA5FDE4FE8E00C9473D90C
:104E1000A3E3B0E0EEE0F7E20C945DD9DE01129678
:104E20009E012C5C3F4FFA014F5F5F4FE491ED9381
:104E3000A217B307C1F7FC0182859385AE014E5FCF
:104E40005F4F0E94DB26E396E2E00C9479D98091D3
:104E50000C08992787FD9095A92FB92F20919A13B7
:104E600030919B1340919C1350919D13821793078F
:104E7000A407B50714F480E0089581E192E161E0B0
:104E800042EB51E10E94082781E00895909164056A
:104E9000891711F081E0089580916505681711F474
:104EA00080E0089581E192E161E041E653E10E94F2
:104EB000082780E00895A0E0B0E0E1E6F7E20C9476
:104EC00055D9742F052F5901C82EDD24C601880F2E
:104ED000991FDC0143E0AA0FBB1F4A95E1F7A81B0D
:104EE000B90BAE57BB4E15968D919C9116970197B5
:104EF000099758F11C9211961C921197F60133E014
:104F0000EE0FFF1F3A95E1F7EC19FD09EE0FFF1FB9
:104F1000EC57FB4E108213961C92139714961C921A
:104F2000149716961C921E92159717961C92179717
:104F30001D961C921E921C971B961C921E921A97ED
:104F400018961C92189719961C9286E091E0C89EBC
:104F5000A001C99E500DD89E500D112442565B4EA3
:104F6000F60193E0EE0FFF1F9A95E1F7EC19FD09AA
:104F7000EE0FFF1FEC57FB4E1082C601880F991FE2
:104F8000FC01A3E0EE0FFF1FAA95E1F7E81BF90B68
:104F9000EE57FB4E0580F681E02DEA30F10508F072
:104FA000C0C1EE58FF4FEC010C9484D9653509F06F
:104FB000B8C1C601880F991FFC0123E0EE0FFF1F47
:104FC0002A95E1F7E81BF90BEE57FB4E82E090E0E3
:104FD000968385832FEF3FEF86E091E0C89EF00136
:104FE000C99EF00DD89EF00D1124E256FB4EEC5FE9
:104FF000FE4F2193308395C186E091E0C89EF00179
:10500000C99EF00DD89EF00D1124E256FB4E608330
:105010008E01B3E0000F111FBA95E1F70C1B1D0BB9
:105020000E571B4ED80117961C92CA010E946D0E96
:1050300084E090E0F8011BC086E091E0C89EF0019A
:10504000C99EF00DD89EF00D1124E256FB4E6183EF
:10505000CA010E946D0EFE01A3E0EE0FFF1FAA958C
:10506000E1F7EC1BFD0BEE57FB4E83E090E09683DF
:10507000858357C183E890E0C89EF001C99EF00D7A
:10508000D89EF00D1124EE0FFF1FE056FB4E6083FB
:10509000CA010E946D0EFE0133E0EE0FFF1F3A952C
:1050A000E1F7EC1BFD0BEE57FB4E85E090E0DFCF08
:1050B00086E091E0C89EF001C99EF00DD89EF00DEB
:1050C0001124E256FB4E6383CA010E946D0EFE015D
:1050D00023E0EE0FFF1F2A95E1F7EC1BFD0BEE57C7
:1050E000FB4E86E090E0C3CF86E091E0C89E800151
:1050F000C99E100DD89E100D112402561B4ED801CA
:1051000014966C93CA010E946D0EF8018081E6012D
:10511000CC0FDD1F882359F4FE01B3E0EE0FFF1F13
:10512000BA95E1F7EC1BFD0BEE57FB4E39C0FE01C3
:10513000A3E0EE0FFF1FAA95E1F7EC1BFD0BEE5766
:10514000FB4E87E090E093CF7C01F3E0EE0CFF1C78
:10515000FA95E1F7E81AF90A82E894E1E80EF91EF7
:10516000D70117962C91179786E091E0C89E800191
:10517000C99E100DD89E100D112402561B4EF80129
:10518000E20FF11D65832F5F17962C93CA010E94D1
:105190006D0EF7019781D8018C91981709F0C1C065
:1051A00088E090E064CF86E091E0C89E9001C99EBF
:1051B000300DD89E300D112422563B4EA9014C5F74
:1051C0005E4FFA018081E601CC0FDD1F6817B1F157
:1051D000DE0173E0AA0FBB1F7A95E1F7AC1BBD0B94
:1051E000AE57BB4E14968C9114978F5F14968C9388
:1051F0001497F60193E0EE0FFF1F9A95E1F7EC1973
:10520000FD09EE0FFF1FEC57FB4E108281E090E08E
:1052100016969C938E931597653509F082C082E0AF
:1052200090E016969C938E9315978FEF9FEFDA017F
:105230008C93F901EB5FFE4F908373C0FE01B3E0E6
:10524000EE0FFF1FBA95E1F7EC1BFD0BEE57FB4E7F
:1052500089E090E00CCF86E091E0C89E9001C99E65
:10526000300DD89E300D112422563B4EA5E0EA2E7B
:10527000A1E0FA2EE20EF31EF7018081E601CC0FC9
:10528000DD1FD601E3E0AA0FBB1FEA95E1F768171F
:1052900039F1FE0153E0EE0FFF1F5A95E1F7EC1BC9
:1052A000FD0BEE57FB4E84818F5F8483AC19BD09E3
:1052B000AA0FBB1FAC57BB4E1C9281E090E09683B7
:1052C0008583653571F582E090E0968385838FEF65
:1052D0009FEFF901EC5FFE4F8083D7019C9321C0C3
:1052E000AC19BD09AA0FBB1FAC57BB4E81E08C9314
:1052F000FE0183E0EE0FFF1F8A95E1F7EC1BFD0B2B
:10530000EE57FB4E81E090E096838583272F302F68
:10531000C901DC01FA0186E091E001900D9201974C
:10532000E1F7F601B3E0EE0FFF1FBA95E1F7EC19D4
:10533000FD09EE0FFF1FEC57FB4E80818130C1F558
:10534000C601880F991FDC0163E0AA0FBB1F6A9595
:10535000E1F7A81BB90BAE57BB4E86E091E0C89EA3
:10536000F001C99EF00DD89EF00D1124E256FB4EBF
:10537000818118968C9318971A968D919C911B9702
:10538000892B21F41D961C921E921C97C601880F32
:10539000991FFC0143E0EE0FFF1F4A95E1F7E81B60
:1053A000F90BEE57FB4E8285938501969387828792
:1053B000C601880F991FFC0123E0EE0FFF1F2A95FD
:1053C000E1F7E81BF90BEE57FB4E80858F5FD501A7
:1053D00018968C931897828593851B969C938E9331
:1053E0001A9784811C968C931C971D961C9214828C
:1053F000F601B3E0EE0FFF1FBA95E1F7EC19FD09D6
:10540000EE0FFF1FEC57FB4E8081CDB7DEB7EAE011
:105410000C9471D9FC0187ED95E091838083CF01D5
:105420000E94248C0895FC0185EE95E09183808391
:10543000CF010E94248C0895FC0183EF95E09183B5
:105440008083CF010E94248C0895FC018FE096E0B8
:1054500091838083CF010E94248C0895FC018FE00A
:1054600096E091838083CF010E94248C0895FC01F3
:105470008DE196E091838083CF010E94248C089572
:105480000F931F938C0180579F4F0E94132AC801CE
:105490008D579F4F0E94132AC8018A589F4F0E9420
:1054A000132AC80187599F4F0E94132AC801845AA2
:1054B0009F4F0E94132AC801815B9F4F0E94132AAD
:1054C000C8018E5B9F4F0E94132AC801C5960E9497
:1054D000132A84E696E0F80193A782A7C8018A966A
:1054E0000E94248C1F910F9108950F931F938C019C
:1054F000C8960E94132AC80189960E942E2AC801C4
:105500004A960E942E2AC8010B960E942E2A84E6F3
:1055100096E0F80191838083C8010E94248C1F913A
:105520000F9108950F931F938C01C1960E94132A27
:10553000C80184960E94132AC80147960E94132A24
:1055400084E696E0F80191838083C8010E94248C50
:105550001F910F910895FC018BE296E09183808367
:10556000CF010E94248C0895FC0189E396E0918389
:105570008083CF010E94248C08950F931F938C0188
:1055800087ED95E0F80191838083C8010E94248C07
:10559000C8010E94A2901F910F9108950F931F932D
:1055A0008C0185EE95E0F80191838083C8010E940B
:1055B000248CC8010E94A2901F910F9108950F930F
:1055C0001F938C0183EF95E0F80191838083C801DC
:1055D0000E94248CC8010E94A2901F910F910895EF
:1055E0000F931F938C018FE096E0F80191838083E5
:1055F000C8010E94248CC8010E94A2901F910F91A3
:1056000008950F931F938C018FE096E0F80191832A
:105610008083C8010E94248CC8010E94A2901F911F
:105620000F9108950F931F938C018DE196E0F8017F
:1056300091838083C8010E94248CC8010E94A2909B
:105640001F910F9108950F931F938C018BE296E0A9
:10565000F80191838083C8010E94248CC8010E94B4
:10566000A2901F910F9108950F931F938C0189E3CE
:1056700096E0F80191838083C8010E94248CC801C0
:105680000E94A2901F910F910895AF92BF92CF9266
:10569000DF92EF920F931F936C01590198010E2D29
:1056A0000E949A8C85EE95E0F60191838083B48602
:1056B000A3868091091790910A170D9690930A1767
:1056C000809309171F910F91EF90DF90CF90BF90BB
:1056D000AF900895A0E0B0E0E0E7FBE20C9456D96B
:1056E000EC016A01F82EBD2E20E00E940126188AE6
:1056F0001F86C114D10419F400E010E002C00DE1CE
:105700001CE0CE0147966F2D7B2D40E050E02CED44
:1057100035E0EE240E94452BC114D10419F400E0B9
:1057200010E002C008E11CE0CE0184966F2D7B2DB5
:1057300041E050E02CED35E0EE240E94452BC114F1
:10574000D10419F400E010E002C004E11CE0CE0135
:10575000C1966F2D7B2D42E050E02CED35E0EE241C
:105760000E94452BEE9680E090E0A0E8BFE389938D
:105770009993A993B99381E089938883229681E0D4
:1057800090E099838883CDB7DEB7E9E00C9472D9B5
:10579000CF92DF92EF920F931F93CF93DF93EC01A1
:1057A0001D861C8688EE93E09BA38AA39DA38CA3F1
:1057B000EAE2CE2ED12CCC0EDD1E6E36710519F428
:1057C0004CEE53E102C047EE53E1C60120E00E94D7
:1057D0000126CE01C596B60140E050E020E030E061
:1057E0000EED13E1EE240E94452BCE018E5B9F4F00
:1057F000B60141E050E020E030E005ED13E10E9409
:10580000452BCE01815B9F4FB60142E050E020E086
:1058100030E00DEC13E10E94452BCE01845A9F4FDE
:10582000B60143E050E020E030E004EC13E10E94D8
:10583000452BCE0187599F4FB60144E050E020E050
:1058400030E00BEB13E10E94452BCE018A589F4FAD
:10585000B60145E050E020E030E004EB13E10E94A7
:10586000452BCE018D579F4FB60146E050E020E01A
:1058700030E00DEA13E10E94452BCE0180579F4F87
:10588000B60147E050E020E030E006EA13E10E9474
:10589000452BDF91CF911F910F91EF90DF90CF902B
:1058A00008956F927F928F929F92AF92BF92CF9204
:1058B000EF92FF920F931F935C013801490197010A
:1058C0000C2D0E949A8CF5016386748685869686D7
:1058D0008091091790910A1721E036E031832083E7
:1058E0004E9690930A17809309171F910F91FF907E
:1058F000EF90CF90BF90AF909F908F907F906F90E0
:1059000008952F923F924F925F926F927F928F9263
:105910009F92AF92BF92CF92DF92EF92FF920F933E
:105920001F935C01490138012701160120E00E9404
:105930000126F4010081118122813381C5010B967A
:10594000B50140E050E0EAE2EE2EECE0FE2ECC2481
:105950000E94512CF3010081118122813381C50104
:105960004A96B50141E050E0B8E2EB2EBCE0FB2ED8
:105970000E94512CF2010081118122813381C501E5
:105980008996B50142E050E0A6E2EA2EACE0FA2E9C
:105990000E94512CF10120813181C501C896B501C9
:1059A00043E050E001E21CE0EE240E94452B1F91F1
:1059B0000F91FF90EF90DF90CF90BF90AF909F90AE
:1059C0008F907F906F905F904F903F902F900895B1
:1059D000AAE9B0E0EEEEFCE20C944DD95C0167E080
:1059E00070E040E050E020E030E000E00E94C025A0
:1059F000C5010D9660EA70E04AE05CE020E00E949C
:105A0000D78CEFE0F6E0D5011E96FC93EE931D9740
:105A100080E090E0AAEFB3E4F501808F918FA28F30
:105A2000B38F8091091790910A170F9690930A17D8
:105A300080930917C5014C9660EA7FE041EA50E087
:105A40002DEF3BE00E94C025C501899660E04CED3A
:105A500050E025EF3BE00E94E225C501C59660E0DD
:105A60004DED50E02CEE3BE00E94E225C5018F5B3E
:105A70009F4F60E04EED50E023EE3BE00E94E225B8
:105A8000C501835B9F4F60E04FED50E025ED3BE0AB
:105A90000E94E225C501875A9F4F63E040EE50E027
:105AA0002BEC3BE00E94E225C5018B599F4F6AE039
:105AB00041EE50E02DEB3BE00E94E225C5018F58FE
:105AC0009F4F60E070E04EEB50E025EB3BE00E9422
:105AD000C025C50182589F4F68EE73E04FEB50E040
