:100000000C94270C0C94540C0C94540C0C94540C1D
:100010000C94540C0C94540C0C94540C0C94540CE0
:100020000C94540C0C9419BB0C94540C0C9478A69E
:100030000C94540C0C94540C0C94540C0C94540CC0
:100040000C94540C0C94540C0C94540C0C94540CB0
:100050000C94540C0C94540C0C94540C0C94D6E545
:100060000C94540C0C9457160C9497160C94540C36
:100070000C94540C0C94540C0C94540C0C94540C80
:100080000C94540C0C94540C0C94540C0C94540C70
:100090000C94540C0C94540C0C94540C0C9448B9BF
:1000A0000C94540C0C94540C0C94540C0C94540C50
:1000B0000C94540C0C94540C0C94540C0C94E5BA01
:1000C0000C94AFA70C94540C0C94FEBA0C94E91643
:1000D0000C9429170C94540C0C947B170C94BB179C
:1000E0000C94540C99B36FB3A6B3ACB3B3B3B9B318
:1000F000D5B3F1B39FB3FDB399B3A6B3ACB3B3B368
:10010000B9B377B389B391B3CFB3FDB3F1B3FDB353
:10011000FDB3FDB3FDB3FDB3EBB3FDB37FB3036E2E
:10012000DB363D9A9999993DABAAAA2A3E00000078
:10013000803F084AD73B3BCE016E84BCBFFDC12F38
:100140003D6C74319ABD56833DDA3D00C77F11BEC8
:10015000D9E4BB4C3E916BAAAABE000000803F07C9
:100160002C7AA5BA6CC590DA3B9365FC8BBC53F82E
:1001700010FD3C5692834DBD879D3AB63DCBC9BF1D
:100180005BBE73DA0FC93F05A84CCDB2D44EB93867
:1001900036A9020C50B9918688083CA6AAAA2ABEA4
:1001A000000000803F08000000BE922449123EABD0
:1001B000AAAA2ABECDCCCC4C3E00000080BEABAA81
:1001C000AAAA3E00000000BF000000803F0000001F
:1001D0000000084178D3BB4387D1133D190E3CC3BF
:1001E000BD4282AD2B3E68EC8276BED98FE1A93E3E
:1001F0004C80EFFFBE01C4FF7F3F00000000004CB9
:100200006F670064756D7000000000000000000062
:10021000004C6A6572617365000000000000000018
:1002200000AD31656E61626C650000000000000089
:1002300000083164697361626C65000000000000B1
:1002400000083168656C70000000000000000000CC
:1002500000361C736574757000657261736500000B
:1002600000000000000000FF1D726573657400004F
:1002700000000000000000CB30726164696F000074
:1002800000000000000000BD4E6672616D65000058
:1002900000000000000000A6296D6F746F727300EB
:1002A000000000000000009821657363000000005A
:1002B00000000000000000081C6C6576656C000002
:1002C00000000000000000C1306D6F646573000025
:1002D00000000000000000674E626174746572796E
:1002E00000000000000000982A736F6E6172000029
:1002F000000000000000005542636F6D7061737371
:10030000000000000000008E436465636C696E614C
:1003100074696F6E0000007A4373686F77000000A5
:10032000000000000000005243414320322E302ED6
:1003300031312042657461006C6F6773000000000A
:10034000000000000000AF4173657475700000008C
:10035000000000000000614174657374000000003B
:100360000000000000004A4168656C700000000059
:10037000000000000000F41B746573740070776D5A
:100380000000000000000000000000F54D726164F4
:10039000696F000000000000000000894D6661697F
:1003A0006C73616665000000000000814C6770732B
:1003B0000000000000000000000000D1266164631E
:1003C00000000000000000000000005926696D7563
:1003D0000000000000000000000000C9916261748C
:1003E0007465727900000000000000E01B74756EF7
:1003F0006500000000000000000000554C747269A8
:100400000000000000000000000000F24B63757265
:1004100072656E7400000000000000694B72656C2C
:100420006179000000000000000000B61C776179CF
:10043000706F696E74730000000000D22D616C74DF
:100440006974756465000000000000D548636F6D35
:100450007061737300000000000000A71F786265E0
:100460006500000000000000000000841C65656459
:10047000756D700000000000000000381F72617789
:1004800067707300000000000000005C1C6D697361
:1004900073696F6E000000000000006A2E77700024
:1004A000202530327800253034783A00426567697B
:1004B0006E205842656520582D4354552052616E78
:1004C000676520616E6420525353492054657374EC
:1004D0003A0A00436F6D706173733A20004865619A
:1004E00064696E673A20256C642C2058595A3A206A
:1004F00025642C2025642C2025642C0958595A6F1A
:1005000066663A2025362E32662C2025362E326637
:100510002C2025362E32660A00425F616C743A2028
:1005200025642C20535F616C743A2025640A0048CE
:100530006974207261646975733A2025640A002524
:100540006420776179706F696E74730A006F66203A
:1005500025646D0A000A00486F6C6420616C746940
:1005600074756465200052656C6179206F66660A57
:100570000052656C6179206F6E0A00563A2025346E
:100580002E34662C20413A2025342E34662C206DE2
:1005900041683A2025342E34660A00696E707574FD
:1005A0003A202564096F757470757425640A0064B7
:1005B000697361626C65640A004E6F7420656E61D8
:1005C000626C65640A00723A20256C6409703A20F6
:1005D000256C640920793A20256C640A00693A2563
:1005E0006409004144430A004C61743A20256C645C
:1005F0002C204C6F6E20256C642C20416C743A20AA
:10060000256C646D2C2023736174733A2025640A71
:10061000004C4F5320636175736564206E6F2063D7
:1006200068616E676520696E2041434D2E0A005453
:1006300048524F54544C45204641494C534146453D
:10064000204143544956415445443A2025642C20C6
:1006500000434F4E54524F4C204D4F444520434889
:10066000414E4745443A20005448524F54544C455B
:10067000204348414E474544202564200A00556EDA
:10068000706C756720626174746572792C2074686F
:10069000726F74746C6520696E206E65757472611A
:1006A0006C2C207475726E206F66662072616469AE
:1006B0006F2E0A00494E2020313A20256409323A33
:1006C00020256409333A20256409343A2025640939
:1006D000353A20256409363A20256409373A202521
:1006E000640A00494E3A20313A20256409323A2002
:1006F000256409333A20256409343A2025640935F4
:100700003A20256409363A20256409373A202564C1
:1007100009383A2025640A00436F6D6D616E647379
:100720003A0A20206C6F67730A2020736574757015
:100730000A2020746573740A0A4D6F766520746808
:100740006520736C696465207377697463682061E0
:100750006E6420726573657420746F20464C592E48
:100760000A0A000A4F7074696F6E733A5B6F6E2CE1
:100770006F66662C6F6666736574735D0A00486504
:100780006164696E673A20256C642C2058595A3A86
:100790002025642C2025642C2025642C0958595AC6
:1007A0006F66663A2025362E32662C2025362E328C
:1007B000662C2025362E32660A006F6666736574D5
:1007C00073006F6666006F6E000A4F7074696F6E1B
:1007D000733A5B6F6E2C206F66665D0A006F66660B
:1007E000006F6E000A4F7074696F6E733A20302D7F
:1007F00034000A4D6F766520524320746F67676C32
:10080000652073776974636820746F20656163681D
:1008100020706F736974696F6E20746F20656469EE
:10082000742C206D6F76652061696C65726F6E2027
:10083000737469636B20746F2073656C65637420D7
:100840006D6F6465732E000A556E706C75672C2091
:100850007468656E20706C75672D696E20626174B6
:10086000746572793B2043616C69627261746520C2
:10087000455343732E0A20507265737320456E747E
:10088000657220746F2063616E63656C2E0A000AC6
:100890004F7074696F6E733A5B782C705D0A0070EC
:1008A0000078000A4D6F766520616C6C20636F6E76
:1008B00074726F6C7320746F206561636820657853
:1008C0007472656D652E2048697420456E7465727A
:1008D00020746F20736176653A20000A46414354C4
:1008E0004F525920524553455420636F6D706C65CB
:1008F0007465202D207265626F6F742041504D0029
:100900000A275927202B20456E74657220746F20AA
:10091000666163746F72792072657365742C2061EF
:100920006E79206F74686572206B657920746F2012
:1009300061626F72743A0A000A436F6D6D616E6492
:10094000733A0A202064756D70203C6E3E2020654D
:10095000726173652028616C6C206C6F6773290A63
:100960002020656E61626C65203C6E616D653E2085
:100970007C20616C6C0A202064697361626C652064
:100980003C6E616D653E207C20616C6C0A0A0065DE
:100990006E61626C650043555252454E5400434DA2
:1009A0004400524157004D4F4445004E54554E00AF
:1009B0004354554E00504D00475053004154544944
:1009C000545544455F4D45440041545449545544A1
:1009D000455F4641535400616C6C006D69737369E7
:1009E0006E67206C6F6720747970650A000A4C6F1F
:1009F00067206572617365642E0A000A457261732F
:100A0000696E67206C6F672E2E2E0A00626164206B
:100A10006C6F6720232025640A005448525F534FAF
:100A20004E5F005448525F4241525F004E41565F54
:100A300057505F004E41565F4C4F4E5F004E41563F
:100A40005F4C41545F005354425F5941575F00531C
:100A500054425F5049545F005354425F524C4C5FC4
:100A6000004143525F5941575F004143525F504933
:100A7000545F004143525F524C4C5F005243385F19
:100A8000005243375F005243365F005243355F00E8
:100A90005243345F005243335F005243325F00528F
:100AA00043315F004652414D4500455343004D419F
:100AB000475F454E41424C4500424154545F4341DB
:100AC00050414349545900424154545F4D4F4E499F
:100AD000544F5200534F4E41525F454E41424C4598
:100AE00000414C545F484F4C445F52544C00474EB9
:100AF000445F4142535F505245535300474E445F59
:100B000054454D50004C4F475F4249544D41534B63
:100B10000050495443485F4D415800464C494748AE
:100B2000545F4D4F444553005452494D5F54485211
:100B30004F54544C45005448525F46535F56414C05
:100B40005545005448525F46535F414354494F4E08
:100B5000005448525F4641494C5341464500544871
:100B6000525F4D4158005448525F4D494E004C4F22
:100B7000495445525F5241444955530057505F52C2
:100B800041444955530057505F4D5553545F494EAA
:100B90004445580057505F494E4445580057505FF0
:100BA000544F54414C0057505F4D4F4445005854EA
:100BB0005241434B5F414E474C45005854524B5FA6
:100BC0004741494E004D4158005452494D004D494E
:100BD0004E00494D415800440049005000494D55D0
:100BE0005F53454E534F525F43414C004C6F67205B
:100BF000232025642C20202020737461727420250A
:100C0000642C202020656E642025640A000A256477
:100C1000206C6F67730A000A4E6F206C6F67730A4F
:100C2000002043555252454E540020434D4400206D
:100C300052415700204E54554E00204354554E000B
:100C400020504D00204750530020415454495455E2
:100C500044455F4D45440020415454495455444552
:100C60005F46415354006E6F6E65006C6F67732072
:100C7000656E61626C65643A200048697420456E57
:100C800074657220746F20657869742E0A0A0054A6
:100C9000657374204D6F64650A0A0047524F554EC4
:100CA00044205354415254000A456E746572696E73
:100CB0006720696E74657261637469766520736517
:100CC000747570206D6F64652E2E2E0A0A5479702B
:100CD00065202768656C702720746F206C697374B9
:100CE00020636F6D6D616E64732C20276578697465
:100CF0002720746F206C65617665206120737562B2
:100D00006D656E752E0A5669736974207468652066
:100D100027736574757027206D656E7520666F7218
:100D20002066697273742D74696D6520636F6E66D9
:100D3000696775726174696F6E2E0A0A00506C657E
:100D40006173652052756E2053657475702E2E2E5A
:100D50000A000A0A496E69742041434D0A0A524149
:100D60004D3A20256C750A004779726F206F6666D0
:100D7000736574733A2025342E32662C2025342E68
:100D800032662C2025342E32660A00416363656C7E
:100D9000206F6666736574733A2025342E32662C94
:100DA0002025342E32662C2025342E32660A00612E
:100DB000626C65640A0064697300656E00646F6E3E
:100DC000650A000A45726173696E67204545505295
:100DD0004F4D0A000A536176656420536574746947
:100DE0006E67730A0A00506F732025643A2000432F
:100DF00048373A202564207C2025640A0043483681
:100E00003A202564207C2025640A004348353A2096
:100E10002564207C2025640A004348343A20256458
:100E2000207C2025640A004348333A202564207C36
:100E30002025640A004348323A202564207C20257E
:100E4000640A004348313A202564207C2025640A46
:100E500000503A2025342E32662C20493A25342E73
:100E600032662C20443A25342E32662C20494D41DE
:100E7000583A256C640A00466C69676874206D6F87
:100E80006465730A004D6167206F666673657473ED
:100E90003A2025342E34662C2025342E34662C201E
:100EA00025342E3466004D6167204465633A202561
:100EB000342E34660A00436F6D706173730A004903
:100EC0004D550A006D696E3A2025640A6D61783AC5
:100ED0002025640A6372756973653A2025640A6681
:100EE00061696C736166655F656E61626C65643AC9
:100EF0002025640A6661696C736166655F76616C62
:100F000075653A202564005468726F74746C650AC4
:100F10000058545241434B3A2025342E32660A5829
:100F2000545241434B20616E676C653A2025640A38
:100F300050495443485F4D41583A20256C6400584D
:100F4000547261636B0A00736F6E61722074687211
:100F50006F74746C653A0A006261726F2074687213
:100F60006F74746C653A0A006C6F6E673A0A004ED3
:100F700061763A0A6C61743A0A007961773A0A003C
:100F800070697463683A0A000A53746162696C6933
:100F90007A653A0A726F6C6C3A0A007961773A0A9C
:100FA0000070697463683A0A004163726F3A0A72AA
:100FB0006F6C6C3A0A004761696E730A0052616493
:100FC000696F0A002B206D6F64650A0058206D6FF1
:100FD00064650A004F637461206672616D650A0082
:100FE0004672616D650A0046572056657273696FD7
:100FF0006E2025640A00536F6E61720A000A475022
:10100000530A00636F6D6D616E6420233A2025647E
:101010002069643A2564206F703A25642070313A63
:1010200025642070323A256C642070333A256C6454
:101030002070343A256C64200A00766F6C7473203B
:10104000616E6420637572006261747420766F6CE7
:10105000747300342063656C6C7300332063656CBB
:101060006C73000A42617474204D6F696E746F7204
:101070000A000A20547970652027726164696F271D
:1010800020746F20636F6E666967757265206E6F7E
:10109000772E0A0A000A215761726E696E672C204A
:1010A000796F757220726164696F206973206E6F49
:1010B0007420636F6E66696775726564210053659D
:1010C000747570204D6F64650A0A0A003C6E617683
:1010D00069676174653E205750206572726F722097
:1010E0002D2064697374616E6365203C2030004C70
:1010F0006F77204261747465727921006F75742076
:101100006F6620636F6D6D616E647321006F75741F
:10111000206F6620636F6D6D616E64732100657270
:10112000726F723A206E6F6E2D4E617620636D6421
:10113000005265616368656420686F6D6500457283
:10114000726F722045423A2025640A004572726F20
:10115000722052656164696E67205061636B6574CB
:101160003A2025640A005241572C002C2025640A9D
:10117000004D4F443A004154542C2025642C202526
:10118000642C2025750A00434D442C2025642C2016
:1011900025642C2025642C2025642C2025642C20FB
:1011A000256C642C20256C642C20256C640A00506E
:1011B0004D2C004354554E2C2025642C2025642CA6
:1011C0002025642C2025642C2025642C2025642CCB
:1011D0002025312E34662C2025642C2025642C20DB
:1011E00025642C2025642C2025642C2025640A00ED
:1011F0004E54554E2C2025642C2025642C2025642B
:101200002C2025640A00435552523A2025642C2094
:10121000256C642C2025342E34662C2025342E3465
:10122000662C2025640A004750532C20256C642C22
:101230002025642C2025642C2025342E37662C2074
:1012400025342E37662C2025342E34662C20253468
:101250002E34662C2025642C2025640A003C7374EF
:101260006172745F6E65775F6C6F673E204C6F676D
:10127000732066756C6C00666C6967687420706CAE
:10128000616E207265636569766564006163746987
:101290006F6E2072656365697665643A2000636FDE
:1012A0006D706F6E656E74206964206D69736D6119
:1012B00074636800776179706F696E74207265631A
:1012C000656976652074696D656F757400776179FD
:1012D000706F696E742073656E642074696D656FDC
:1012E00075740045585452413300455854524132A8
:1012F0000045585452413100504F534954494F4EC4
:10130000005241575F4354524C0052435F4348419F
:101310004E004558545F53544154005241575F5357
:10132000454E53005352335F005352305F0000402C
:101330007A10F35A00A0724E18090010A5D4E800E4
:1013400000E87648170000E40B54020000CA9A3BFC
:10135000000000E1F5050000809698000000404282
:101360000F000000A0860100000010270000000010
:10137000E803000000006400000000000A00000014
:1013800000000100000000002C76D888DC674F08C0
:1013900023DFC1DFAE59E1B1B796E5E3E453C63AC6
:1013A000E651997696E8E6C28426EB898C9B62ED3D
:1013B000407C6FFCEFBC9C9F40F2BAA56FA5F490F7
:1013C000055A2AF75C936B6CF9676DC11BFCE0E46E
:1013D0000D47FEF520E6B500D0ED902E03009435C4
:1013E00077050080841E080000204E0A000000C817
:1013F0000C333333330F986E12831141EF8D211468
:10140000893BE65516CFFEE6DB18D1844B381BF737
:101410007C1D901DA4BBE424203284725E228100D6
:10142000C9F124ECA1E53D276E616E00696E66008E
:10143000253033753A25733A20006E6F7420666F3D
:10144000756E6400253033753A252D33322E3332D4
:10145000733A2000756E6B6E6F776E2074797065CD
:10146000006E6F7420666F756E640025733A2000FD
:101470006D697373696E67206E616D65206F722090
:1014800076616C7565003F3F00256400256400258A
:101490006C640025660025660065786974006865DF
:1014A0006C7000245047434D442C31362C302C3086
:1014B0002C302C302C302A36410D0A002450554255
:1014C000582C34312C312C303030332C30303031FA
:1014D0002C33383430302C302A32360024505352DA
:1014E000463130302C302C33383430302C382C31DD
:1014F0002C302A33430020536952462000204D549B
:101500004B312E3620002075626C6F782000204D04
:10151000544B312E3420006661696C65642C207256
:1015200065747279696E67004F4B002450535246C0
:101530003130332C302C302C312C312A32350D0AFD
:1015400024505352463130332C312C302C302C3136
:101550002A32350D0A24505352463130332C322C66
:10156000302C302C312A32360D0A24505352463159
:1015700030332C332C302C302C312A32370D0A24C6
:10158000505352463130332C342C302C312C312AEC
:1015900032300D0A24505352463130332C352C3022
:1015A0002C312C312A32300D0A245053524631301E
:1015B000332C362C302C302C312A32320D0A245068
:1015C0005352463130332C382C302C302C312A32C7
:1015D000430D0A24505352463135312C312A3346BB
:1015E0000D0A24505352463130362C32312A3046BF
:1015F0000D0A0024504D544B3331342C302C302CF8
:10160000312C312C302C302C302C302C302C302CF8
:10161000302C302C302C302C302C302C302A3238DE
:101620000D0A24504D544B3333302C302A32450DA3
:101630000A24504D544B3331332C312A32450D0A94
:1016400024504D544B3330312C322A32450D0A0090
:1016500024505542582C34302C6767612C302C3183
:101660002C302C302C302C302A37420D0A24505587
:1016700042582C34302C7674672C302C312C302C82
:10168000302C302C302A37460D0A24505542582C25
:1016900034302C726D632C302C302C302C302C30AC
:1016A0002C302A36370D0A004750524D4300475020
:1016B0004747410047505654470044454300434F75
:1016C0004D504153535F0020002A00496E69742039
:1016D000416363656C002A00496E69742047797222
:1016E0006F0000002100240027002A002D00300098
:1016F000330001010000040107010A01000022007B
:10170000250028002B002E003100340002010000CB
:10171000050108010B01000020002300260029001C
:101720002C002F0032000001000003010601090116
:1017300005050505070508080808020202020A0A4D
:10174000080804040404010101010101010103036B
:10175000030303030303040707070C0C0C0C0C0C16
:101760000C0C0202020206060606060606060B0B13
:101770000B0B0B0B0B0B0102102020080810204054
:101780001020408002010201080402010102040845
:1017900010204080804020100804020180040201D3
:1017A000804020100804020108040201010204081C
:1017B0001020408001020408102040800000090A27
:1017C00002080B0C0D0706030401000000000000D6
:1017D0000000000000000000000000000000000009
:1017E0000000000000000000100F0E0000000000CC
:1017F00000000000000000000000000000000000E9
:101800000000494E46494E4954594E414ECDCCCC2C
:101810003D0AD7233C17B7D13877CC2B329595E6C4
:10182000241FB14F0A000020410000C84200401CA4
:101830004620BCBE4CCA1B0E5AAEC59D7400E84083
:1018400012A3C4A84DB8DCBADCBEE1400BA311243E
:101850001FBECFEFD1E2DEBFCDBF00E00CBF18E06E
:10186000A0E0B2E0E4EFFDED01E00BBF02C00790A5
:101870000D92AC34B107D9F71BBE1AE1ACE4B8E065
:1018800001C01D92AC37B107E1F718E1CAE4D8E115
:1018900004C02297FE010E949FEECE33D107C9F704
:1018A0000E940FE80C94EDEE0C940000283008F034
:1018B00027E03327DA01990F311D87FD91600096EB
:1018C0006105710539F432602E5F3D9330E32A954E
:1018D000E1F708959F3F30F080387105610509F008
:1018E0003C5F3C5F3D93913008F08068911DDF9331
:1018F000CF931F930F93FF92EF92192F987F969596
:10190000E92F96959695E90FFF27E857FC4E992702
:101910003327EE24FF24A701E701059008940794DC
:1019200028F4360FE71EF81E491F511D660F771F5A
:10193000881F991F0694A1F70590079428F4E70ED5
:10194000F81E491F561FC11D770F881F991F661F5C
:101950000694A1F70590079428F4F80E491F561F26
:10196000C71FD11D880F991F661F771F0694A1F707
:101970000590079420F4490F561FC71FD81F990FD1
:10198000661F771F881F0694A9F78491109517701A
:1019900041F0D695C79557954795F794E7941A95D2
:1019A000C1F7EEE2F3E168941590159135916591D8
:1019B000959105907FE27395E118F10A430B560B60
:1019C000C90BD009C0F7E10CF11E431F561FC91FF8
:1019D000D01D7EF4703311F48A95E6CFE89401505F
:1019E00030F0080F0AF40027021708F4202F23957F
:1019F000022F7A3328F079E37D932A95E9F710C016
:101A00007D932A9589F6069497956795379517954E
:101A10001794E118F10A430B560BC90BD00998F043
:101A200023957E9173957A3308F070E37C932013AD
:101A3000B8F77E9170617D9330F0839571E37D936B
:101A400070E32A95E1F71124EF90FF900F911F9119
:101A5000CF91DF91992787FD90950895FA01AA27E4
:101A6000283051F1203181F1E8946F936E7F6E5FE1
:101A70007F4F8F4F9F4FAF4FB1E03ED0B4E03CD08F
:101A8000670F781F891F9A1FA11D680F791F8A1F72
:101A9000911DA11D6A0F711D811D911DA11D20D0D9
:101AA00009F468943F912AE0269F11243019305D93
:101AB0003193DEF6CF010895462F4770405D419384
:101AC000B3E00FD0C9F7F6CF462F4F70405D4A33D1
:101AD00018F0495D31FD4052419302D0A9F7EACF99
:101AE000B4E0A6959795879577956795BA95C9F7C8
:101AF00000976105710508959B01AC010A2E0694BB
:101B00005795479537952795BA95C9F7620F731F73
:101B1000841F951FA01D0895EF92FF920F93DF93EE
:101B2000CF93CDB7DEB760970FB6F894DEBF0FBE88
:101B3000CDBFA82F002309F461C07E010894E11CE9
:101B4000F11C88E0F70111928A95E9F729833A831D
:101B50004B835C836D837E83AF83988780E2801B99
:101B6000E82FFF27E7FDF0954D815E816F81788535
:101B7000181684F01D861E861F86188A88279927C6
:101B80008E1B9F0B04C076956795579547958A9550
:101B9000D2F728C0202F332727FD3095DB01CA015B
:101BA000022E04C0B695A795979587950A94D2F70B
:101BB0008D879E87AF87B88B04C0440F551F661F63
:101BC000771FEA95D2F789819A81AB81BC8104C0E5
:101BD000B695A795979587952A95D2F7482B592BB7
:101BE0006A2B7B2B49875A876B877C8729853A85A7
:101BF0004B855C856D857E85AF8598898A2F60963B
:101C00000FB6F894DEBF0FBECDBFCF91DF910F911D
:101C1000FF90EF9008950F931F93CF93DF93689FEA
:101C20008001699F100D789F100D1124C8010E943A
:101C3000270EEC01009729F060E070E0A8010E94F7
:101C4000A50FCE01DF91CF911F910F910895CF93F2
:101C5000DF93BC018230910510F462E070E0A09146
:101C6000781AB091791AED01E0E0F0E040E050E040
:101C700021C0888199818617970769F48A819B81A1
:101C8000309719F09383828304C09093791A8093DC
:101C9000781AFE0134C06817790738F441155105E8
:101CA00019F08417950708F4AC01FE018A819B8125
:101CB0009C01E9012097E9F641155105A9F1CA01F6
:101CC000861B970B049708F4BA01E0E0F0E02AC005
:101CD0008D919C91119784179507F9F464177507F6
:101CE00081F412968D919C911397309719F09383FC
:101CF000828304C09093791A8093781AFD013296FA
:101D00004CC0CA01861B970BFD01E80FF91F6193B8
:101D1000719302978D939C9340C0FD0182819381C2
:101D20009C01D9011097A1F68091761A9091771AAB
:101D3000892B41F480912F05909130059093771A6B
:101D40008093761A40913105509132054115510525
:101D500041F44DB75EB780912D0590912E05481B3B
:101D6000590B2091761A3091771ACA01821B930B76
:101D70008617970780F0AB014E5F5F4F841795077A
:101D800050F0420F531F5093771A4093761AF9017F
:101D90006193719302C0E0E0F0E0CF01DF91CF9159
:101DA0000895CF93DF93009709F450C0EC01229778
:101DB0001B821A82A091781AB091791A109709F1B2
:101DC00040E050E0AC17BD0708F1BB83AA83FE01D9
:101DD00021913191E20FF31FAE17BF0779F48D9176
:101DE0009C911197280F391F2E5F3F4F398328830D
:101DF00012968D919C9113979B838A83411551056F
:101E000071F4D093791AC093781A20C012968D91EC
:101E10009C911397AD01009711F0DC01D3CFFA012B
:101E2000D383C28321913191E20FF31FCE17DF07D5
:101E300069F488819981280F391F2E5F3F4FFA017D
:101E4000318320838A819B8193838283DF91CF9129
:101E50000895662777270C9417121F93FC01992782
:101E60008827BC01E89411911032E9F3193010F081
:101E70001E30C8F31B3251F01D3249F4689406C07D
:101E80000E940110610F711D811D911D1191105350
:101E90001A30B0F33EF490958095709561957F4F20
:101EA0008F4F9F4F1F910895FB01DC018D9181346D
:101EB0001CF08B350CF4805E659161341CF06B3541
:101EC0000CF4605E861B611189F3990B0895FB0188
:101ED000DC018D91059080190110D9F3990B0895BB
:101EE000DC01FB010D904115510529F0002019F08E
:101EF00041505040F7CF11979D01281B390B4115D8
:101F0000510571F04150504005904115510531F097
:101F1000002021F00D9241505040F6CF1C92319795
:101F200005900020E9F73197C9018E0F9F1F861B8E
:101F3000970B0895FC010590615070400110D8F78F
:101F4000809590958E0F9F1F0895DC0101C06D93C1
:101F500041505040E0F70895FB01DC018D91019064
:101F600080190110D9F3990B0895FB01DC01415050
:101F7000504048F001900D920020C9F701C01D9219
:101F800041505040E0F70895FC01615070400190CD
:101F90000110D8F7809590958E0F9F1F0895009798
:101FA00031F4DA018D919C91009709F40EC0DC01A7
:101FB000FB013D912191222319F03217C9F3FACF89
:101FC000332331F4DA011D921C9288279927089552
:101FD0001197AF93BF93FB013D912191321771F49B
:101FE000332321F488279927119702C01E92119656
:101FF000FA01A193B0839F918F910895222369F7ED
:10200000EACF592F482F372F262F660F771F881FAB
:10201000991F660F771F881F991F620F731F841FF8
:10202000951F660F771F881F991F0895AEE0B0E0D7
:10203000ECE1F0E10C94C4EE0E891F8986E08C83FC
:102040001A8309838FEF9FE79E838D839E01265E0F
:102050003F4FCE010196688D798DA9010E943A10FB
:102060002F813885020F131FF80110822E96E4E0AD
:102070000C94E0EEABE0B0E0E0E4F0E10C94B6EEFE
:102080003C012B015A01FC0117821682838181FDDC
:1020900003C06FEF7FEFC6C19AE0892E1E0108943E
:1020A000211C311CF3012381F20123FD859123FFC3
:1020B00081912F01882309F4B2C1853239F423FDBF
:1020C000859123FF81912F01853229F490E0B3019E
:1020D0000E948F13E7CF982FFF24EE249924FFE16D
:1020E000FF15D0F09B3269F09C3228F4903259F001
:1020F000933291F40EC09D3249F0903369F441E07F
:1021000024C052E0F52A84E0F82A28C098E0F92A91
:1021100025C0E0E1FE2A22C0F7FC29C0892F8053A8
:102120008A3070F4F6FE05C0989C902C1124980E0D
:1021300015C0E89CE02C1124E80EF0E2FF2A0EC046
:102140009E3229F4F6FC6BC140E4F42A07C09C36A9
:1021500019F450E8F52A02C0983649F4F20123FD3B
:10216000959123FF91912F01992309F0B8CF892FE1
:102170008554833018F08052833038F444E050E0C6
:10218000A40EB51E5FE359830FC0933631F0933729
:1021900079F0933509F056C020C0F501808189831C
:1021A00042E050E0A40EB51E610101E010E012C053
:1021B000F501C080D180F6FC03C06FEF7FEF02C055
:1021C000692D70E042E050E0A40EB51EC6010E94E9
:1021D000C40F8C015FE7F52214C0F501C080D180E7
:1021E000F6FC03C06FEF7FEF02C0692D70E042E0A4
:1021F00050E0A40EB51EC6010E949A0F8C0150E853
:10220000F52AF3FE07C01AC080E290E0B3010E94F5
:102210008F13EA948E2D90E008171907A8F30EC0CB
:10222000F601F7FC8591F7FE81916F0190E0B30113
:102230000E948F13E110EA9401501040011511051E
:1022400079F7EAC0943611F0993669F5F7FE08C0BF
:10225000F501208131814281538184E090E00AC000
:10226000F501808191819C01442737FD4095542FD1
:1022700082E090E0A80EB91E9FE6F92257FF09C040
:1022800050954095309521953F4F4F4F5F4FE0E877
:10229000FE2ACA01B901A1012AE030E00E942E0DF8
:1022A000D82ED21840C0953729F41F2D1F7E2AE062
:1022B00030E01DC01F2D197F9F3661F0903720F44C
:1022C000983509F0ACC00FC0903739F0983709F055
:1022D000A6C004C028E030E00AC0106114FD1460FC
:1022E00020E130E004C014FD166020E132E017FF69
:1022F00008C0F501608171818281938144E050E0E2
:1023000008C0F50180819181BC0180E090E042E04D
:1023100050E0A40EB51EA1010E942E0DD82ED21899
:102320008FE7F82EF122F6FE0BC05EEFF522D914EE
:1023300038F4F4FE07C0F2FC05C08FEEF82202C0AC
:102340001D2D01C0192DF4FE0DC0FE01ED0DF11D76
:102350008081803319F499EEF92208C01F5FF2FEE4
:1023600005C003C08F2D867809F01F5F0F2DF3FC89
:1023700014C0F0FE0FC01E1510F09D2C0BC09D2C3C
:102380009E0C911A1E2D06C080E290E0B3010E94BF
:102390008F131F5F1E15C0F304C01E1510F4E11A41
:1023A00001C0EE2404FF0FC080E390E0B3010E945F
:1023B0008F1302FF1DC001FD03C088E790E00EC02F
:1023C00088E590E00BC0802F867891F001FF02C075
:1023D0008BE201C080E2F7FC8DE290E0B3010E9445
:1023E0008F1306C080E390E0B3010E948F139A948C
:1023F000D914C0F3DA94F101ED0DF11D808190E064
:10240000B3010E948F13DD20A9F706C080E290E09F
:10241000B3010E948F13EA94EE20C1F743CEF3017B
:1024200066817781CB012B96E2E10C94D2EEA0E09D
:10243000B0E0EDE1F2E10C94BCEEEC015B01611562
:10244000710519F0FB0191838083F9908F2D90E045
:102450000E94ABEE892BC9F7FDE2FF1621F4F9903B
:10246000EE24E39405C02BE2F21609F4F990EE2471
:102470008E0101501040C80162E078E143E050E075
:102480000E947713892B01F58E010E5F1F4FC80143
:1024900065E078E145E050E00E947713892B19F45C
:1024A0008E01095F1F4FA114B10419F0F5011183CA
:1024B0000083E0FC04C070E090E080E814C070E0AD
:1024C00090E080E86FEF08C1C8016AE078E143E07E
:1024D00050E00E947713892B69F4A114B10429F408
:1024E00070E090E080EC6FE7F7C02296F501D183B1
:1024F000C083F6CF8824992440E050E060E070E08B
:10250000EF2DE053EA30A0F5F2E0EF2A8E2D90E0B7
:102510009C0128703070E2FE06C0232B79F50894E8
:10252000811C911C2BC0232B19F008948108910861
:10253000DB01CA0112E0880F991FAA1FBB1F1A9561
:10254000D1F7480F591F6A1F7B1F440F551F661F85
:10255000771F4E0F511D611D711D483929E9520722
:1025600029E9620729E1720748F084E0E82A06C0F9
:10257000EE3F31F4E3FC39C098E0E92AF990C0CF8E
:10258000E53311F0E53189F529912D3219F4E0E1B7
:10259000EE2A05C02B3219F081E090E003C02991AA
:1025A00082E090E0E22FE053EA3018F0C81BD90B2C
:1025B0001CC020E030E0FCE020383F075CF4C9019B
:1025C000880F991F880F991F280F391F220F331F5B
:1025D0002E0F311DE991E053EA3068F3E4FE03C0A9
:1025E000309521953F4F820E931ECE2CDD24E1FEC7
:1025F00007C0A114B10421F02197F501D183C08354
:10260000CB01BA010E94B0EB7B018C01F3E0CF2239
:10261000DD2423E0C216D10421F417FB109517F92D
:10262000109557016801C801B70120E030E040E093
:1026300050E00E9410EB882309F44AC097FE0DC0B9
:1026400021E2E22E28E1F22E909481949108939455
:10265000C0E2D0E000E010E012C099E3E92E98E17A
:10266000F92EF6CFF7012591359145915491C60188
:10267000B5010E9445ED5B016C018C1A9D0A8C1618
:102680009D0684F7D595C7950F5F1F4F063011053E
:1026900029F08CEF9FEFE80EF91EF1CFC501D601AE
:1026A0007C018D018C2D880F8D2D881F8F3F51F05F
:1026B000C601B50120E030E040E050E00E9410EBA0
:1026C000882331F482E290E090937B1A80937A1A07
:1026D0007E2D9F2D802F612F272F392F482F562F8A
:1026E000B901CA01CDB7DEB7ECE00C94D8EEFB011E
:1026F000DC014150504088F08D9181341CF08B35C5
:102700000CF4805E659161341CF06B350CF4605EF6
:10271000861B611171F3990B0895881BFCCF0F93F1
:102720001F93CF93DF938C01EB018B8181FF1BC043
:1027300082FF0DC02E813F818C819D812817390732
:1027400064F4E881F9810193F983E88306C0E885A0
:10275000F985802F1995892B31F48E819F810196FF
:102760009F838E8302C00FEF1FEFC801DF91CF91CF
:102770001F910F9108959C01F999FECF32BD21BDA3
:10278000F89A60B5F999FECF2F5F3F4F32BD21BD5A
:1027900021503040F89A70B5F999FECF2E5F3F4F27
:1027A00032BD21BD22503040F89A80B5F999FECF54
:1027B0002D5F3F4F32BD21BDF89A90B508959C0121
:1027C000F999FECF1FBA32BD21BD40BD0FB6F894B6
:1027D000FA9AF99A0FBEF999FECF1FBA2F5F3F4FB1
:1027E00032BD21BD2150304050BD0FB6F894FA9A49
:1027F000F99A0FBEF999FECF1FBA2E5F3F4F32BD37
:1028000021BD2250304060BD0FB6F894FA9AF99A73
:102810000FBEF999FECF1FBA2D5F3F4F32BD21BDCC
:1028200070BD0FB6F894FA9AF99A0FBE0895CF9337
:10283000DF93FC01EB014230510570F06385748534
:102840008585968520E030E040E854E40E9445ED1F
:102850000E9484EB7983688382E090E0DF91CF91DE
:102860000895CF93DF93EC01FB014230510518F43A
:1028700020E030E012C06081718180E090E00E9431
:10288000B0EB20E030E040E85AE30E9445ED6B8772
:102890007C878D879E8722E030E0C901DF91CF9150
:1028A0000895009719F00197C1F40CC0E091691ADE
:1028B000F0916A1AA081B1812D913C91CF01F9016B
:1028C00019950895E0916B1AF0916C1AA081B1816D
:1028D0002D913C91CF01F90119950895EF92FF9246
:1028E0000F931F93CF93DF93EC0108836A834B838D
:1028F000822F90E0880F991FFC01A3E0EE0FFF1FCD
:10290000AA95E1F7E81BF90BE550FA4E818589831A
:10291000822F90E0880F991FDC0163E0AA0FBB1F94
:102920006A95E1F7A81BB90BA550BA4E822F90E02B
:10293000880F991FFC0143E0EE0FFF1F4A95E1F756
:10294000E81BF90BE550FA4E81858F5F19968C9341
:10295000DE0135E0E32EF12CE00EF11E6FEF7FEF8C
:10296000E0E0F0E01EC02D912627822F8295807F27
:10297000822790E0382F2227AC01440F551F440FC7
:10298000551F440F551F24273527672F77276227A8
:10299000732724E0959587952A95E1F7682779278D
:1029A0003196EE15FF05FCF2CC5FDE4F699378831C
:1029B0009801295F3F4FC901DF91CF911F910F917E
:1029C000FF90EF9008957F928F929F92AF92BF9267
:1029D000CF92DF92EF92FF920F931F93722E132FDD
:1029E000D42EC52EB62EA72E982E892EE00EF11CC1
:1029F00008E30E948C0DF7012083272D312F4D2DE8
:102A00005C2D6B2D7A2D892D982D00E30E948C0D65
:102A1000F7012183272D312F4D2D5C2D6B2D7A2D24
:102A2000892D982D08E20E948C0DF7012283272D15
:102A3000312F4D2D5C2D6B2D7A2D892D982D00E297
:102A40000E948C0DF7012383272D312F4D2D5C2DF6
:102A50006B2D7A2D892D982D08E10E948C0DF701A0
:102A60002483272D312F4D2D5C2D6B2D7A2D892D13
:102A7000982D00E10E948C0DF7012583272D312F21
:102A80004D2D5C2D6B2D7A2D892D982D08E00E94FF
:102A90008C0DF7012683778288E01F910F91FF90BC
:102AA000EF90DF90CF90BF90AF909F908F907F90EE
:102AB0000895CF92DF92EF92FF920F931F93CF93DF
:102AC000DF938C01EB0165E50E945114C801688118
:102AD0000E945114C80169810E945114C8016A8181
:102AE0000E945114C8016B810E945114C8016C816D
:102AF0000E9451146E01EE24FF2408C0C801F601A3
:102B000064810E9451140894E11CF11C0894C11CBA
:102B1000D11C888190E0E816F90680F3CC5FDE4F87
:102B2000C80169910E945114C80168810E94511422
:102B3000DF91CF911F910F91FF90EF90DF90CF9099
:102B40000895CF92DF92EF92FF920F931F93DF933E
:102B5000CF93CDB7DEB7C650D1400FB6F894DEBFE5
:102B60000FBECDBFD82EC92E5091D2057091D3057E
:102B700088E28D836E834F83388729877E0108948E
:102B8000E11CF11CC701652F472F2D2D04E010E03B
:102B90000E946E148D2D9C2DB7010E945915CA5F9D
:102BA000DE4F0FB6F894DEBF0FBECDBFCF91DF91E1
:102BB0001F910F91FF90EF90DF90CF900895CF92EB
:102BC000DF92EF92FF920F931F93DF93CF93CDB7D6
:102BD000DEB7C650D1400FB6F894DEBF0FBECDBFF2
:102BE000D82EC92E2091D2054091D3058AE28D833B
:102BF0007E836F837E010894E11CF11CC701622F64
:102C00002D2D02E010E00E946E148D2D9C2DB70139
:102C10000E945915CA5FDE4F0FB6F894DEBF0FBE93
:102C2000CDBFCF91DF911F910F91FF90EF90DF907B
:102C3000CF900895CF92DF92EF92FF920F931F9360
:102C4000DF93CF93CDB7DEB7C650D1400FB6F8941F
:102C5000DEBF0FBECDBFD82EC92E3091D205509108
:102C6000D3058FE28D836E834F8328877E0108947E
:102C7000E11CF11CC701632F452F2D2D03E010E04F
:102C80000E946E148D2D9C2DB7010E945915CA5FAC
:102C9000DE4F0FB6F894DEBF0FBECDBFCF91DF91F0
:102CA0001F910F91FF90EF90DF90CF9008951F92AA
:102CB0000F920FB60F920BB60F9211242F933F93E2
:102CC0004F938F939F93EF93FF934091C600209172
:102CD0002318309124182F5F3F4F8091271890912F
:102CE0002818282339238091251890912618281711
:102CF000390779F08091231890912418E0912918D0
:102D0000F0912A18E80FF91F40833093241820937C
:102D10002318FF91EF919F918F914F913F912F91A8
:102D20000F900BBE0F900FBE0F901F9018951F9223
:102D30000F920FB60F920BB60F9211242F933F9361
:102D40008F939F93EF93FF932091451830914618EE
:102D5000809143189091441828173907E9F0809121
:102D6000451890914618E0914918F0914A18E80FDB
:102D7000F91F80818093C600809145189091461874
:102D800001962091471830914818822393239093FD
:102D900046188093451810C020914318309144186C
:102DA00080914518909146182817390729F4809189
:102DB000C1008F7D8093C100FF91EF919F918F9112
:102DC0003F912F910F900BBE0F900FBE0F901F9051
:102DD00018951F920F920FB60F920BB60F921124F7
:102DE0002F933F934F938F939F93EF93FF93409134
:102DF000D60020913318309134182F5F3F4F8091C7
:102E000037189091381828233923809135189091DC
:102E100036182817390779F08091331890913418B3
:102E2000E0913918F0913A18E80FF91F4083309378
:102E3000341820933318FF91EF919F918F914F9108
:102E40003F912F910F900BBE0F900FBE0F901F90D0
:102E500018951F920F920FB60F920BB60F92112476
:102E60002F933F938F939F93EF93FF932091551848
:102E7000309156188091531890915418281739079B
:102E8000E9F08091551890915618E0915918F091F9
:102E90005A18E80FF91F80818093D6008091551849
:102EA0009091561801962091571830915818822306
:102EB0009323909356188093551810C0209153185F
:102EC0003091541880915518909156182817390749
:102ED00029F48091D1008F7D8093D100FF91EF91F3
:102EE0009F918F913F912F910F900BBE0F900FBE2E
:102EF0000F901F9018951F920F920FB60F920BB65E
:102F00000F9211242F933F934F938F939F93EF939F
:102F1000FF934091360120913B1830913C182F5F70
:102F20003F4F80913F18909140182823392380917A
:102F30003D1890913E182817390779F080913B1879
:102F400090913C18E0914118F0914218E80FF91F58
:102F5000408330933C1820933B18FF91EF919F9151
:102F60008F914F913F912F910F900BBE0F900FBEFD
:102F70000F901F9018951F920F920FB60F920BB6DD
:102F80000F9211242F933F938F939F93EF93FF936F
:102F900020915D1830915E1880915B1890915C18BB
:102FA00028173907E9F080915D1890915E18E0913B
:102FB0006118F0916218E80FF91F80818093360143
:102FC00080915D1890915E18019620915F18309164
:102FD00060188223932390935E1880935D1810C02D
:102FE00020915B1830915C1880915D1890915E186B
:102FF0002817390729F4809131018F7D80933101A1
:10300000FF91EF919F918F913F912F910F900BBE68
:103010000F900FBE0F901F901895809128158F5F0D
:1030200080932815823008F46BC010922815809187
:10303000790A90917A0A893C91059CF52091C914EE
:103040003091CA144091CB145091CC148091BA1491
:103050009091BB14A091BC14B091BD1480599140C3
:10306000A040B0402350304040405040281739071E
:103070004A075B0714F49C01AD01DA01C90124364B
:1030800031054105510524F484E690E0A0E0B0E06C
:103090008093C9149093CA14A093CB14B093CC140A
:1030A00008958D5B924064F18091C9149091CA1487
:1030B000A091CB14B091CC140396A11DB11D8093A7
:1030C000C9149093CA14A093CB14B093CC1420913C
:1030D000BA143091BB144091BC145091BD142057C8
:1030E0003E4F4F4F5F4F281739074A075B0744F49D
:1030F0002093C9143093CA144093CB145093CC142A
:103100000895AF92BF92CF92DF92EF92FF920F930A
:103110001F935B016C01E0904114F0904214009108
:1031200043141091441422273327A901261B370B7F
:10313000480B590BE216F306040715071CF4DA01D5
:10314000C9010DC0DC01CB01782F692F9A2F8B2F7D
:10315000EA14FB040C051D0534F4D801C701782FCF
:10316000692F9A2F8B2F7093411460934214909380
:103170004314809344148091451490914614A09177
:103180004714B091481482179307A407B5074CF071
:10319000A60195018A159B05AC05BD0514F49C019B
:1031A000AD01209345143093461440934714509337
:1031B00048141F910F91FF90EF90DF90CF90BF9038
:1031C000AF9008953F924F925F926F927F928F924D
:1031D0009F92AF92BF92CF92DF92EF92FF920F93A6
:1031E0001F93DF93CF93CDB7DEB72F970FB6F89429
:1031F000DEBF0FBECDBFFA2DA982EB2DBA82CB82E6
:10320000DC82ED82FE820F83188729873A874B87FD
:103210005C876D877E878F873C2C4C815D816E81BA
:103220007F81A884B984CA84DB844C845D846E84E5
:103230007F8497FE03C020E030E00BC08091C2087D
:10324000A82FBB27A7FDB0959401A815B9050CF4CC
:103250009D01890184E0000F111F8A95E1F7021B8F
:10326000130B00501C4FF999FECF1FBA12BD01BDC0
:10327000F0BD0FB6F894FA9AF99A0FBEC801AA27C2
:1032800097FDA095BA2F0196A11DB11DF999FECF0A
:103290001FBA92BD81BDE0BD0FB6F894FA9AF99AB3
:1032A0000FBE7C018D010894E11CF11C011D111D54
:1032B000F999FECF1FBAF2BCE1BC30BC0FB6F8944E
:1032C000FA9AF99A0FBE0894E11CF11C011D111D18
:1032D000C7010E94DF1384E090E0A0E0B0E0E80EB8
:1032E000F91E0A1F1B1FC701B601A5010E94DF13AB
:1032F00084E090E0A0E0B0E0E80EF91E0A1F1B1F7A
:10330000C701B301A2010E94DF132F960FB6F894F4
:10331000DEBF0FBECDBFCF91DF911F910F91FF9008
:10332000EF90DF90CF90BF90AF909F908F907F9065
:103330006F905F904F903F9008952091090B3091CE
:103340000A0BC9018F5C94408238910510F481E02A
:103350000895C901815595408238910510F482E0A5
:103360000895C901835D95408238910510F483E08A
:103370000895C901855596408138910510F484E07F
:103380000895265D364014F480E0089585E00895A0
:103390008091790A90917A0A892B91F58091C20ADD
:1033A0009091C30A2FE0813A9207DCF08091E715F3
:1033B0008A3010F181E08093C8138AE08093E7158A
:1033C00080913F1290914012A0914112B09142120F
:1033D0008093F7139093F813A093F913B093FA1313
:1033E00008958056904F64F48091E7158A3020F05C
:1033F0001092C8138AE001C08F5F8093E71508958B
:103400001092E71508952F923F924F925F926F921C
:103410007F928F929F92AF92BF92CF92DF92EF9264
:10342000FF920F931F93DF93CF9300D00F92CDB7EE
:10343000DEB76091511470915214809153149091A1
:1034400054140E94B2EB3B014C018091E713909120
:10345000E813A091E913B091EA1389839A83AB83AF
:10346000BC8360914D1470914E1480914F149091D3
:1034700050140E94B2EB1B012C01E0905605F09015
:1034800057050091580510915905C401B3012981D0
:103490003A814B815C810E9445ED5B016C01C20168
:1034A000B101A80197010E9445ED9B01AC01C60145
:1034B000B5010E9433EA0E947FEB60934114709340
:1034C0004214809343149093441417FB109517F9FA
:1034D0001095C401B301A80197010E9445ED7B013D
:1034E0008C01C201B10129813A814B815C810E942A
:1034F00045ED9B01AC01C801B7010E9433EA0E946F
:103500007FEB609345147093461480934714909317
:1035100048140F900F900F900F90CF91DF911F9153
:103520000F91FF90EF90DF90CF90BF90AF909F9062
:103530008F907F906F905F904F903F902F90089565
:103540002091E5093091E6098091090A90910A0AD3
:10355000281B390B253631051CF08AE08093E615CF
:103560002C593F4F1CF486EF8093E6158091E615A9
:1035700018161CF481508093E6158091E61587FF9C
:1035800003C08F5F8093E6158091E615813021F0AE
:103590008F3F11F080E00895811181E00895FC01D2
:1035A000DB01452B11F083858C9381E090E0089539
:1035B000DC01FB01452B19F080811B968C9381E087
:1035C00090E00895FC016385772767FD7095872F4C
:1035D000972F0E94B2EB0895FC01DB0142305105A8
:1035E00020F0838594858D939C9382E090E00895EC
:1035F000DC01FB014230510530F0808191811C9645
:103600009C938E931B9782E090E00895FC01638564
:103610007485882777FD8095982F0E94B2EB0895D6
:10362000FC012385348545855685B901CA01089575
:10363000CF93DF93FC01EB014430510540F08385CB
:103640009485A585B68588839983AA83BB8384E006
:1036500090E0DF91CF910895CF93DF93EC01FB01D0
:103660004430510540F080819181A281B3818B87E4
:103670009C87AD87BE8784E090E0DF91CF9108956D
:103680008091790A90917A0A893C910544F090934F
:103690003E0980933D0982E399E00E94019E0895CE
:1036A0001092CE0883EC98E00E94019E1092DE13E7
:1036B0001092DF131092F31408951092690910927A
:1036C00068098DE599E00E94019E08958091E515B5
:1036D0008F5F8093E5158150833011F41092E515CA
:1036E0008091E515813059F0813018F08230C1F4B5
:1036F0000FC08EE160E00E94DAE78DE005C08DE04A
:1037000060E00E94DAE78FE161E00E94DAE7089565
:103710008FE160E00E94DAE78EE161E00E94DAE783
:1037200008958091C8139091CD13813081F480E089
:10373000992309F481E08093CD13882319F08DE05B
:1037400061E002C08DE060E00E94DAE7089599230D
:1037500039F481E08093CD138DE061E00E94DAE7D7
:103760000895E0913010F091311081A992A9813033
:10377000910539F00297F9F48EE161E00E94DAE7F1
:10378000089587A18823D9F090E08091CE138823F3
:1037900009F491E09093CE13992319F08EE160E043
:1037A00002C08EE161E00E94DAE7E0913010F09112
:1037B000311017A208958EE160E00E94DAE70895C3
:1037C00000D00F928CE498E0EDB7FEB7928381832E
:1037D00089EB95E0948383830E94D9940F900F9096
:1037E0000F900F9080E0089500D00F928CE498E045
:1037F000EDB7FEB79283818388E197E0948383835A
:103800000E94D9940F900F900F900F9080E0089530
:1038100000D00F928CE498E0EDB7FEB792838183DD
:1038200087E498E0948383830E94D99481E0809315
:10383000CD090F900F900F900F9082EC99E00E94AD
:10384000019E64E170E080E090E00E9452E68CE42A
:1038500098E00E944A95181619069CF71092CD0917
:1038600082EC99E00E94019E80E0089500D00F92C2
:103870008CE498E0EDB7FEB79283818388E399E00A
:10388000948383830E94D9940F900F900F900F9090
:10389000089500D00F928CE498E0EDB7FEB79283C4
:1038A00081838AE79CE0948383830E94D9940F905C
:1038B0000F900F900F9008950E94491C68EE73E0DE
:1038C00080E090E00E9452E68EE598E00E944A95E2
:1038D000892B89F08FE161E00E94DAE78EE598E0BC
:1038E0000E946095682F8CE498E00E94C1958FE15A
:1038F00060E00E94DAE78CE498E00E944A9518168E
:10390000190614F780E008950E94491C68EE73E0E0
:1039100080E090E00E9452E600D00F928CE498E0A4
:10392000EDB7FEB7928381838CEA94E0948383831E
:103930000E94D9940F900F900F900F9080E798E01D
:103940000E944A95892B49F080E798E00E94609593
:10395000682F80E798E00E94C1958CE498E00E946F
:103960004A951816190654F780E00895EF92FF92D1
:103970000F931F93CF93DF930E94491C68EE73E06F
:1039800080E090E00E9452E691E7E92E95E0F92E62
:1039900006E615E0CCE4D8E000D00F92EDB7FEB714
:1039A000D283C183F482E3820E94D99480910B0177
:1039B000846080930B010F900F900F900F9068EB35
:1039C0007BE080E090E00E9452E6CE010E944A95A2
:1039D00018161906FCF000D00F92EDB7FEB7D2838F
:1039E000C183148303830E94D99480910B018B7F40
:1039F00080930B010F900F900F900F9068EB7BE07E
:103A000080E090E00E9452E6CE010E944A9518168E
:103A1000190614F680E0DF91CF911F910F91FF906E
:103A2000EF9008958DB79EB740970FB6F8949EBF5C
:103A30000FBE8DBFEDB7FEB731968CE498E0ADB701
:103A4000BEB712969C938E93119788E69DE0938360
:103A5000828380911F1290912012A0912112B09127
:103A6000221284839583A683B78380912312909139
:103A70002412A0912512B091261280879187A287E7
:103A8000B3878091271290912812A0912912B091AA
:103A90002A1284879587A687B7870E94D9948DB705
:103AA0009EB740960FB6F8949EBF0FBE8DBF089587
:103AB0008DB79EB740970FB6F8949EBF0FBE8DBFCF
:103AC000EDB7FEB731968CE498E0ADB7BEB712966D
:103AD0009C938E9311978BE89DE0938382838091D2
:103AE0002B1290912C12A0912D12B0912E12848342
:103AF0009583A683B78380912F1290913012A09165
:103B00003112B091321280879187A287B38780915A
:103B1000331290913412A0913512B09136128487ED
:103B20009587A687B7870E94D9948DB79EB7409690
:103B30000FB6F8949EBF0FBE8DBF08952CE438E0F9
:103B4000882349F000D00F92EDB7FEB7328321836E
:103B50008AEB9DE008C000D00F92EDB7FEB732832C
:103B6000218386EB9DE0948383830E94D9948CE427
:103B700098E0EDB7FEB7928381838FEA9DE094834E
:103B800083830E94D9940F900F900F900F90089507
:103B900000D00F928CE498E0EDB7FEB7928381835A
:103BA00083EC9DE0948383830E94D99480E090E02D
:103BB0000F900F900F900F90F999FECF1FBA92BD02
:103BC00081BD10BC0FB6F894FA9AF99A0FBE01960F
:103BD000F0E180309F0781F700D00F928CE498E0ED
:103BE000EDB7FEB7928381838DEB9DE09483838351
:103BF0000E94D9940F900F900F900F9008950E94FB
:103C0000C81D80E0089500D00F928CE498E0EDB7D5
:103C1000FEB79283818384ED9DE0948383830E9429
:103C2000D9940F900F900F900F9008950F931F93BA
:103C30008DB79EB708970FB6F8949EBF0FBE8DBF85
:103C4000EDB7FEB731960CE418E0ADB7BEB71296EB
:103C50001C930E93119783E49EE09383828380915B
:103C6000FC099091FD09958384838091160A9091B7
:103C7000170A978386830E94D994EDB7FEB73196D1
:103C8000ADB7BEB712961C930E93119785E39EE0D5
:103C9000938382838091450A9091460A9583848319
:103CA00080915F0A9091600A978386830E94D994DD
:103CB000EDB7FEB73196ADB7BEB712961C930E9313
:103CC000119787E29EE09383828380918E0A909180
:103CD0008F0A958384838091A80A9091A90A97837B
:103CE00086830E94D994EDB7FEB73196ADB7BEB7C3
:103CF00012961C930E93119789E19EE09383828321
:103D00008091D70A9091D80A958384838091F10A93
:103D10009091F20A978386830E94D994EDB7FEB7FB
:103D20003196ADB7BEB712961C930E9311978BE0E8
:103D30009EE0938382838091200B9091210B958349
:103D4000848380913A0B90913B0B978386830E94EA
:103D5000D994EDB7FEB73196ADB7BEB712961C93A6
:103D60000E9311978DEF9DE0938382838091690B71
:103D700090916A0B958384838091830B9091840B3F
:103D8000978386830E94D994EDB7FEB73196ADB77D
:103D9000BEB712961C930E9311978FEE9DE09383FE
:103DA00082838091B20B9091B30B95838483809131
:103DB000CC0B9091CD0B978386830E94D9948DB7BD
:103DC0009EB708960FB6F8949EBF0FBE8DBF1F9189
:103DD0000F910895CF93DF93FC018DB79EB7449761
:103DE0000FB6F8949EBF0FBE8DBF2DB73EB72F5FA5
:103DF0003F4F8CE498E0ADB7BEB712969C938E937C
:103E0000119781E59EE0E9019B838A8386899789E2
:103E1000A08DB18D8C839D83AE83BF8385A196A138
:103E2000A7A1B0A588879987AA87BB8784A995A9E8
:103E3000A6A9B7A98C879D87AE87BF87ED5BFF4F8B
:103E400080819181AA2797FDA095BA2FF901808BD7
:103E5000918BA28BB38B0E94D9948DB79EB7449659
:103E60000FB6F8949EBF0FBE8DBFDF91CF9108951E
:103E7000AF92BF92CF92DF92EF92FF920F931F9378
:103E8000CF93DF9346EAA42E44E0B42E30EAC32E4B
:103E900034E0D32E00E010E02CE4E22E28E0F22EF5
:103EA00000D000D0EDB7FEB73196ADB7BEB71296D1
:103EB000FC92EE921197B382A282158304830E9432
:103EC000D994C0E0D0E08DB79EB706960FB6F894AF
:103ED0009EBF0FBE8DBFF999FECFCE01800F911FFF
:103EE00092BD81BDF89A80B500D000D0EDB7FEB785
:103EF0003196ADB7BEB71296FC92EE921197D3826F
:103F0000C282848315820E94D99421968DB79EB770
:103F100006960FB6F8949EBF0FBE8DBFC031D10577
:103F2000D1F6C7010E945BE9005F1F4F90E10030AE
:103F3000190709F0B5CF80E0DF91CF911F910F9164
:103F4000FF90EF90DF90CF90BF90AF9008952F92A9
:103F50003F924F925F926F927F928F929F92AF9219
:103F6000BF92CF92DF92EF92FF920F931F93CF9366
:103F7000DF938091C109882309F4A3C00E94491CE2
:103F80005DED252E54E0352ECCE4D8E06AEF70E0EC
:103F900080E090E00E9452E68EE690E10E94D8C058
:103FA0008EE690E140E050E060E070E08A019B0125
:103FB0000E94B2C58EE690E10E9432C4FC014084AA
:103FC00051846284738484809580A680B780C08089
:103FD000D180E280F38060917610709177108091AB
:103FE00078109091791021EE3EE245E652E40E946D
:103FF00045ED20E030E048EC52E40E9445ED0E949F
:104000007FEB613A2CE8720720E0820720E09207FC
:104010002CF0605A7C488040904006C097FF04C056
:10402000605673478F4F9F4FEDB7FEB77A970FB625
:10403000F894FEBF0FBEEDBF0DB71EB70F5F1F4F49
:10404000D283C183F8013382228224E630E040E04B
:1040500050E00E946EEEF801248335834683578337
:10406000809170109091711091878087809172106B
:10407000909173109387828780917410909175103E
:1040800095878487C686D786E08AF18A828A938A52
:10409000A48AB58A468A578A608E718E0E94D99406
:1040A0002DB73EB7265E3F4F0FB6F8943EBF0FBE0A
:1040B0002DBFCE010E944A95181619060CF066CF46
:1040C00015C000D00F928CE498E0EDB7FEB7928354
:1040D000818383ED94E0948383830E94D9940F902D
:1040E0000F900F900F9080E00E949E1D80E0DF9166
:1040F000CF911F910F91FF90EF90DF90CF90BF90E5
:10410000AF909F908F907F906F905F904F903F9077
:104110002F9008950F931F9308EF18E140918E0A96
:1041200050918F0AC80160E00E9416A840918E0A43
:1041300050918F0AC80161E00E9416A840918E0A32
:1041400050918F0AC80162E00E9416A840918E0A21
:1041500050918F0AC80163E00E9416A840918E0A10
:1041600050918F0AC80166E00E9416A840918E0AFD
:1041700050918F0AC80167E00E9416A840918E0AEC
:1041800050918F0AC80169E00E9416A840918E0ADA
:1041900050918F0AC8016AE00E9416A81F910F91E2
:1041A00008950F931F9308EF18E140918E0A5091E4
:1041B0008F0AC80161E00E9416A840918E0A5091B2
:1041C0008F0A4E5C5F4FC80162E00E9416A868EE3D
:1041D00073E080E090E00E9452E640918E0A509198
:1041E0008F0AC80162E00E9416A840918E0A509181
:1041F0008F0A4E5C5F4FC80166E00E9416A868EE09
:1042000073E080E090E00E9452E640918E0A509167
:104210008F0AC80166E00E9416A840918E0A50914C
:104220008F0A4E5C5F4FC80160E00E9416A868EEDE
:1042300073E080E090E00E9452E640918E0A509137
:104240008F0AC80160E00E9416A840918E0A509122
:104250008F0A4E5C5F4FC80163E00E9416A868EEAB
:1042600073E080E090E00E9452E640918E0A509107
:104270008F0AC80163E00E9416A840918E0A5091EF
:104280008F0A4E5C5F4FC80167E00E9416A868EE77
:1042900073E080E090E00E9452E640918E0A5091D7
:1042A0008F0AC80167E00E9416A840918E0A5091BB
:1042B0008F0A4E5C5F4FC80169E00E9416A868EE45
:1042C00073E080E090E00E9452E640918E0A5091A7
:1042D0008F0AC80169E00E9416A840918E0A509189
:1042E0008F0A4E5C5F4FC8016AE00E9416A868EE14
:1042F00073E080E090E00E9452E640918E0A509177
:104300008F0AC8016AE00E9416A840918E0A509157
:104310008F0A4E5C5F4FC80161E00E9416A868EEEC
:1043200073E080E090E00E9452E61F910F910895A3
:104330000E94D1208CE498E00E944A951816190634
:10434000BCF71092CD0982EC99E00E94019E80E0BA
:1043500008958091790A90917A0A181619061CF42A
:1043600081E08093C91340918E0A50918F0AECEA44
:10437000F3E14193519383E1E23CF807D1F788EFF1
:1043800098E160E00E9416A840918E0A50918F0A31
:1043900088EF98E161E00E9416A840918E0A509142
:1043A0008F0A88EF98E162E00E9416A840918E0A79
:1043B00050918F0A88EF98E163E00E9416A840911F
:1043C0008E0A50918F0A88EF98E166E00E9416A845
:1043D00040918E0A50918F0A88EF98E167E00E9421
:1043E00016A840918E0A50918F0A88EF98E169E0F3
:1043F0000E9416A840918E0A50918F0A88EF98E18A
:104400006AE00E9416A808956091F51461504091E9
:10441000F6145091F71488EF98E10E9416A80895B9
:10442000EF92FF920F931F9363E3E62E6CE0F62E5C
:1044300080913B1290913C12909581959F4F909363
:10444000340C8093330CC70141970E946DE408EF50
:1044500018E14091370C5091380CC80164E00E947B
:1044600016A88091371290913812909581959F4FA0
:1044700090937D0C80937C0CC701C8960E946DE4DC
:104480004091800C5091810CC80165E00E9416A8F3
:104490001F910F91FF90EF900895109219151092AF
:1044A000181510920C1510920B1510920E151092F3
:1044B0000D150E941EE660930715709308158093F2
:1044C000091590930A15089580918314909184148E
:1044D000892B09F45CC00E941EE620917D14309166
:1044E0007E1440917F1450918014621B730B840BD7
:1044F000950B2091811430918214442737FD40950B
:10450000542F621773078407950708F440C037C01B
:1045100001979093841480938314809183149091D5
:104520008414892BA1F10E941EE660937D14709380
:104530007E1480937F149093801460917C14862F56
:104540008450843088F48091831480FF05C04091AA
:1045500085145091861404C040918714509188149A
:1045600088EF98E10E9416A880917C14853079F438
:1045700080910B0194E0892780930B01089580912D
:104580008314909184141816190614F2C6CF089556
:1045900085E080937C1410927D1410927E1410920A
:1045A0007F14109280146091FA147091FB14809122
:1045B000FC149091FD140E94B2EB20E030E04AEF31
:1045C00053E40E9445ED0E947FEB70938214609348
:1045D00081148091F6149091F714A091F814B09181
:1045E000F914880F991FAA1FBB1F909384148093FE
:1045F00083140E94642208951F931091F5141150A2
:1046000010937C141F5F812F8550843008F05BC0AD
:1046100010927D1410927E1410927F1410928014C8
:104620006091FE147091FF14809100159091011516
:104630000E94B2EB20E030E04AEF53E40E9445EDE7
:104640000E947FEB70938214609381148091FA141E
:104650009091FB14A091FC14B091FD14880F991F48
:10466000AA1FBB1F90938414809383148091F61427
:104670009091F7149093861480938514153079F0F7
:10468000163018F41430E9F405C0163069F017300C
:10469000C1F40FC080912D0B90912E0B0EC0809114
:1046A000760B9091770B09C08091BF0B9091C00B56
:1046B00004C08091080C9091090C90938814809309
:1046C00087140E9464221F9108956F927F928F92A7
:1046D0009F92AF92BF92CF92DF92EF92FF920F9391
:1046E0001F930E941EE62091621430916314409142
:1046F000641450916514621B730B840B950B20910D
:10470000661430916714442737FD4095542F2617BF
:1047100037074807590790F48091681490916914FD
:10472000A0916A14B0916B148093491490934A1429
:10473000A0934B14B0934C1481E079C00E941EE604
:104740007B018C0160915E1470915F148091601404
:10475000909161140E94B2EB3B014C0160916C148A
:1047600070916D1480916E1490916F140E94B2EB51
:104770005B016C018091621490916314A0916414A8
:10478000B0916514E81AF90A0A0B1B0BC801B701AE
:104790000E94B0EB7B018C016091661470916714EC
:1047A000882777FD8095982F0E94B2EB9B01AC0182
:1047B000C801B7010E9417EB9B01AC01C601B5010E
:1047C0000E9445ED7B018C016091721470E0882796
:1047D00077FD8095982F0E94B2EB9B01AC01C80138
:1047E000B7010E9445ED9B01AC01C401B3010E94D9
:1047F00033EA0E947FEB613A2CE8720720E08207DF
:1048000020E092072CF0605A7C488040904006C01F
:1048100097FF04C0605673478F4F9F4F60934914B2
:1048200070934A1480934B1490934C1480E01F9122
:104830000F91FF90EF90DF90CF90BF90AF909F903F
:104840008F907F906F9008950E941EE620918D14A6
:1048500030918E1440918F1450919014621B730B01
:10486000840B950B2091891430918A1440918B14FC
:1048700050918C14261737074807590710F080E02D
:1048800008951092891410928A1410928B14109229
:104890008C1481E008958091E113813729F18237EA
:1048A00020F4803709F05DC006C0823739F08337C5
:1048B00009F057C053C00E94242408952091741415
:1048C0003091751440917614509177148091891429
:1048D00090918A14A0918B14B0918C1428173907E9
:1048E0004A075B078CF13DC02091C9143091CA146E
:1048F0004091CB145091CC1480918D1490918E14D2
:10490000A0918F14B091901482179307A407B50754
:1049100074F48091BA149091BB14A091BC14B0911E
:10492000BD14281739074A075B0774F01AC0809135
:10493000BA149091BB14A091BC14B091BD1482170D
:104940009307A407B5076CF41092891410928A1487
:1049500010928B1410928C1481E008950E946523AC
:10496000089580E00895EF92FF920F931F931092A5
:104970006F058091491490914A14A0914B14B09105
:104980004C1480935E1490935F14A0936014B093C2
:1049900061140E941EE66093621470936314809306
:1049A0006414909365141091F5141093721400918F
:1049B000FE14009373146091FA147091FB148091AB
:1049C000FC149091FD1424E630E040E050E00E9499
:1049D0001AEE7093711460937014672B31F480E7B2
:1049E00097E19093711480937014112319F48FEF51
:1049F000809372140023B9F06091F6147091F7144B
:104A00008091F8149091F91424E630E040E050E0F1
:104A10000E941AEE60936C1470936D1480936E1460
:104A200090936F1474C06091F6147091F714809194
:104A3000F8149091F91424E630E040E050E00E9430
:104A40001AEE7B018C016093681470936914809353
:104A50006A1490936B148091721420915E143091BB
:104A60005F1440916014509161148130C1F4D801F9
:104A7000C701821B930BA40BB50B2E153F054007F6
:104A8000510724F080569347AF4FBF4F80936C146B
:104A900090936D14A0936E14B0936F1415C0E2162A
:104AA000F3060407150724F0205633474F4F5F4F96
:104AB0002E193F09400B510B20936C1430936D1449
:104AC00040936E1450936F1480916C1490916D14F8
:104AD000A0916E14B0916F14813A2CE8920720E0F7
:104AE000A20720E0B2072CF0805A9C48A040B040BA
:104AF00006C0B7FF04C080569347AF4FBF4F8093A7
:104B00006C1490936D14A0936E14B0936F14209155
:104B1000701430917114442737FD4095542F6091E3
:104B20006C1470916D1480916E1490916F140E94AA
:104B30006EEECA01B90128EE33E040E050E00E9479
:104B40001AEE70936714609366141F910F91FF9093
:104B5000EF9008950E941EE6E0E020913914309114
:104B60003A1440913B1450913C14621B730B840B1C
:104B7000950B20913D1430913E1440913F1450917B
:104B80004014261737074807590708F4E1E08E2F2D
:104B90000895AF92BF92CF92DF92EF92FF920F9360
:104BA0001F93E0909514F090961400919714109133
:104BB00098140E941EE62091911430919214409115
:104BC000931450919414621B730B840B950B24E186
:104BD00030E040E050E00E944CEEE21AF30A040B91
:104BE000150BE092C914F092CA140093CB141093E1
:104BF000CC14A090BA14B090BB14C090BC14D09048
:104C0000BD1460912F1470913014809131149091E3
:104C100032146A197B098C099D090E94B2EB2DECB4
:104C20003CEC4CE45EE30E9445ED7B018C0160911D
:104C3000331470913414882777FD8095982F0E9443
:104C4000B2EB2DEC3CEC4CE45FE30E9445ED9B01A4
:104C5000AC01C801B7010E9433EA0E947FEB9B01BF
:104C60007093341460933314A0922F14B0923014C4
:104C7000C0923114D092321480919C09882349F05B
:104C8000809127149091281488971CF481E08093D8
:104C90002E14121613061CF081E080932E1480E06F
:104CA0001F910F91FF90EF90DF90CF90BF90AF904A
:104CB0000895CF92DF92FF920F931F93CF93DF93CC
:104CC0000E94491C82E390E10E94ACBC68EE73E054
:104CD00080E090E00E9452E600D00F920CE418E0D1
:104CE000ADB7BEB712961C930E93119783EE95E065
:104CF00014969C938E9313970E94D9940F900F90C3
:104D00000F900F9068EE73E080E090E00E9452E612
:104D1000FDEDCF2EF5E0DF2EC0E0D0E0F02E012F2C
:104D200020C082E390E16C2F0E9438BC00D000D0FC
:104D3000EDB7FEB73196ADB7BEB71196FC9211979D
:104D400012960C93D382C282958384830E94D99455
:104D50002196EDB7FEB736960FB6F894FEBF0FBE9C
:104D6000EDBFC930D105ECF28CE498E00E945BE91C
:104D700064E170E080E090E00E9452E68CE498E00C
:104D80000E944A95181619061CF0C0E0D0E0E9CF41
:104D900080E0DF91CF911F910F91FF90DF90CF9036
:104DA0000895CF92DF92EF92FF920F931F93CF93CC
:104DB000DF930E94491C68EE73E080E090E00E945F
:104DC00052E6B8EECB2EB5E0DB2EACE4EA2EA8E03E
:104DD000FA2E6DE471E080E090E00E9452E60E94BD
:104DE000B11B80913010909131100E94F2B7C091A8
:104DF0003010D09131108DA1882309F445C08DB7B2
:104E00009EB742970FB6F8949EBF0FBE8DBF0DB7E9
:104E10001EB70F5F1F4FEDB7FEB7F282E182F801B8
:104E2000D382C2828A859B85AC85BD858483958328
:104E3000A683B7838E859F85A889B9898087918746
:104E4000A287B3876A897B898C899D8924E630E0B3
:104E500040E050E00E946EEEF801248735874687D7
:104E600057878CA1808B118A0E94D994E0913010D1
:104E7000F091311015A28DB79EB742960FB6F894F7
:104E80009EBF0FBE8DBF06C08CE498E060E072E06C
:104E90000E944DE88CE498E00E944A951816190685
:104EA0000CF097CF80E0DF91CF911F910F91FF9091
:104EB000EF90DF90CF900895CF93DF93C0E0D0E0E4
:104EC0008CE498E062E072E00E944DE82196C832DE
:104ED000D105B1F78CE498E064E072E00E9472E9D9
:104EE000DF91CF910895CF93DF93EC0107C0219715
:104EF0008CE498E064E072E00E9472E91C161D06E2
:104F0000B4F3DF91CF91089500D00F928CE498E034
:104F1000EDB7FEB7928381838FEB9EE0948383830A
:104F20000E94D9940F900F900F900F900E945C27D1
:104F30000E94121D0E94581D82E090E00E9473277B
:104F400008950F931F9300D00F920CE418E0ADB7B3
:104F5000BEB712961C930E93119787E09FE01496AC
:104F60009C938E9313970E94D9940F900F900F905B
:104F70000F900E945C27EDB7FEB73E970FB6F894EE
:104F8000FEBF0FBEEDBF3196ADB7BEB712961C93F4
:104F90000E93119784EC9EE0938382838091FE08A8
:104FA0009091FF089583848380910B0990910C095F
:104FB0009783868380913D0990913E0991878087F0
:104FC00080911809992787FD909593878287809112
:104FD000300990913109958784870E94D994EDB763
:104FE000FEB73E960FB6F894FEBF0FBEEDBF82E04F
:104FF00090E00E9473271F910F9108950F931F93C4
:1050000000D00F920CE418E0ADB7BEB712961C9317
:105010000E9311978FE39FE014969C938E931397B2
:105020000E94D9940F900F900F900F900E945C27D0
:10503000EDB7FEB73E970FB6F894FEBF0FBEEDBFBB
:105040003196ADB7BEB712961C930E93119781E1BE
:105050009FE09383828380919A0890919B08A0910E
:105060009C08B0919D0884839583A683B783809123
:10507000A9089091AA089187808780915B099091F7
:105080005C09AA2797FDA095BA2F82879387A487EA
:10509000B5870E94D994EDB7FEB73E960FB6F89447
:1050A000FEBF0FBEEDBF82E090E00E9473271F910C
:1050B0000F9108950F931F9300D00F920CE418E006
:1050C000EDB7FEB71283018386EB9FE09483838361
:1050D0000E94D9940F900F900F900F900E945C2720
:1050E00000D00F92EDB7FEB71283018389EA9FE0EB
:1050F000948383830E94D9940F900F900F900F9008
:1051000084EB9CE00E94EA1E00D00F92EDB7FEB740
:105110001283018381EA9FE0948383830E94D99460
:105120000F900F900F900F9085E09DE00E94EA1E77
:1051300000D00F92EDB7FEB7128301838BE99FE099
:10514000948383830E94D9940F900F900F900F90B7
:1051500086E59DE00E94EA1E00D00F92EDB7FEB7F3
:105160001283018388E89FE0948383830E94D9940B
:105170000F900F900F900F9087EA9DE00E94EA1E1B
:1051800000D00F92EDB7FEB71283018380E89FE055
:10519000948383830E94D9940F900F900F900F9067
:1051A00088EF9DE00E94EA1E00D00F92EDB7FEB797
:1051B000128301838AE79FE0948383830E94D994BA
:1051C0000F900F900F900F9089E49EE00E94EA1ECE
:1051D00000D00F92EDB7FEB7128301838FE69FE0F8
:1051E000948383830E94D9940F900F900F900F9017
:1051F0008AE99EE00E94EA1E00D00F92EDB7FEB74A
:105200001283018388E69FE0948383830E94D9946C
:105210000F900F900F900F908BEE9EE00E94EA1E71
:1052200000D00F92EDB7FEB71283018388E59FE0AF
:10523000948383830E94D9940F900F900F900F90C6
:105240008DE89FE00E94EA1E00D00F92EDB7FEB7F6
:105250001283018387E49FE0948383830E94D9941F
:105260000F900F900F900F908EED9FE00E94EA1E1E
:1052700082E090E00E9473271F910F91089500D063
:105280000F928CE498E0EDB7FEB7928381838DEBAB
:105290009FE0948383830E94D9940F900F900F9086
:1052A0000F900E945C270E94161E82E090E00E94F0
:1052B00073270895CF93DF9300D00F92CCE4D8E00A
:1052C000EDB7FEB7D283C18380EE9FE094838383E2
:1052D0000E94D9940F900F900F900F900E945C271E
:1052E00000D00F92EDB7FEB7D283C18384ED9FE06B
:1052F000948383830E94D9948091D9090F900F9051
:105300000F900F90813049F400D00F92EDB7FEB7A7
:10531000D283C1838CEC9FE00AC0882381F400D043
:105320000F92EDB7FEB7D283C18384EC9FE09483E4
:1053300083830E94D9940F900F900F900F9082E07A
:1053400090E00E947327DF91CF910895CF93DF9370
:10535000FB01C285D385CE0161EA78E00E94670F28
:10536000892B21F481E08093D90909C0CE016FE92E
:1053700078E00E94670F892B39F41092D9098EECDE
:1053800099E00E94019E12C000D00F928CE498E038
:10539000EDB7FEB7928381838FE898E0948383838F
:1053A0000E94D9940F900F900F900F900E945A294D
:1053B00080E0DF91CF91089500D000D0EDB7FEB727
:1053C00031968CE498E0ADB7BEB712969C938E935D
:1053D000119787EE9FE09383828380918D0890914F
:1053E0008E08958384830E94D9948DB79EB70696C4
:1053F0000FB6F8949EBF0FBE8DBF0E945C2782E05F
:1054000090E00E947327089500D00F928CE498E0FA
:10541000EDB7FEB7928381838DEF9FE09483838302
:105420000E94D9940F900F900F900F900E945C27CC
:1054300080913E150E949E1D82E090E00E9473279D
:10544000089500D00F928CE498E0EDB7FEB79283F8
:10545000818383E690E1948383830E94D9940F90A3
:105460000F900F900F900E945C278091A8098823CD
:1054700011F40E949E1D8091A809813091F400D002
:105480000F928CE498E0EDB7FEB7928381838BE5B1
:1054900090E1948383830E94D9940F900F900F9092
:1054A0000F908091A809823091F400D00F928CE483
:1054B00098E0EDB7FEB79283818383E590E1948312
:1054C00083830E94D9940F900F900F900F9080913A
:1054D000A809833091F400D00F928CE498E0EDB7E6
:1054E000FEB79283818388E490E1948383830E9452
:1054F000D9940F900F900F900F908091A80984304D
:1055000091F400D00F928CE498E0EDB7FEB792834F
:1055100081838AE390E1948383830E94D9940F90DE
:105520000F900F900F9082E090E00E9473270895F3
:10553000FB0184859585A685B78585309105A105F4
:10554000B10538F48093A8098DE999E00E94019E85
:1055500012C000D00F928CE498E0EDB7FEB79283B2
:10556000818384EE97E0948383830E94D9940F9083
:105570000F900F900F900E94212A80E00895FF92D3
:105580000F931F93F62E00D000D0EDB7FEB73196E3
:105590000CE418E0ADB7BEB712961C930E931197AA
:1055A00026EE3DE033832283848315820E94D994C2
:1055B0008DB79EB706960FB6F8949EBF0FBE8DBFEF
:1055C000EF2DF0E0EE0FFF1FEB5CFA4F6081718171
:1055D000C8010E9472E91F910F91FF900895CF9327
:1055E000DF9300D00F928CE498E0EDB7FEB7928382
:1055F000818387E79EE0948383830E94D9940F90F0
:105600000F900F900F900E945C27C0E0D0E0FE0149
:10561000E65BF64F8C2F60810E94BF2A2196C63030
:10562000D105A9F782E090E00E947327DF91CF9126
:1056300008958CE498E065E072E00E9472E90895B4
:105640008F929F92AF92BF92CF92DF92EF92FF9292
:105650000F931F938CE498E064E172E00E9472E97A
:1056600003C0CF010E94F2B7E0913010F0913110E9
:1056700085A18823B1F386A1882399F380E18093E3
:10568000991486859785A089B1898093A4149093F5
:10569000A514A093A614B093A71482859385A4851E
:1056A000B5858093A0149093A114A093A214B093F5
:1056B000A31482899389A489B589B7FF04C080E0C7
:1056C00090E0A0E0B0E080939C1490939D14A09390
:1056D0009E14B0939F1481E080930615A5EDB4E16C
:1056E000E9E9F4E18FE001900D928150E1F7A0909B
:1056F0009914B0909A14C0909B14D0909C14E09090
:105700009D14F0909E1400919F141091A01420916C
:10571000A1143091A2144091A3145091A41460914B
:10572000A5147091A6148091A714882499240E942E
:10573000E2188DB79EB748970FB6F8949EBF0FBE7C
:105740008DBFEDB7FEB731968CE498E0ADB7BEB72C
:1057500012969C938E93119783E090E193838283BA
:1057600015821482809199148683178280919A14ED
:105770008087118680919B148287138680919C1468
:1057800090919D14A0919E14B0919F148487958749
:10579000A687B7878091A0149091A114A091A2141C
:1057A000B091A314808B918BA28BB38B8091A414A6
:1057B0009091A514A091A614B091A714848B958BF9
:1057C000A68BB78B0E94D994A8EAB4E1E9E9F4E189
:1057D0008FE001900D928150E1F7A6ECB4E1E8EA88
:1057E000F4E18FE001900D928150E1F78DB79EB703
:1057F00048960FB6F8949EBF0FBE8DBF1F910F91B4
:10580000FF90EF90DF90CF90BF90AF909F908F90E0
:1058100008958091F514813019F40E94202B089589
:1058200080E1809399148091FE149091FF14A091CF
:105830000015B09101158093A4149093A514A09322
:10584000A614B093A7148091FA149091FB14A09120
:10585000FC14B091FD148093A0149093A114A09314
:10586000A214B093A3148091F6149091F714A09110
:10587000F814B091F914B7FF04C080E090E0A0E004
:10588000B0E080939C1490939D14A0939E14B093C9
:105890009F1481E08093061508959F92AF92BF9266
:1058A000CF92DF92EF92FF920F931F93CF93DF93EC
:1058B000EC018B018091C208992787FD909586178E
:1058C000970744F48CE498E06FE272E00E9472E97A
:1058D00018828AC08CE498E063E372E00E9472E967
:1058E000980194E0220F331F9A95E1F7201B310BAA
:1058F00020503C4FF999FECF32BD21BDF89A80B5BA
:105900008883C901AA2797FDA095BA2F0196A11DEA
:10591000B11DF999FECF92BD81BDF89A90B49982DC
:105920007C018D010894E11CF11C011D111DF999E8
:10593000FECFF2BCE1BCF89A80B58A830894E11CE2
:10594000F11C011D111DC7010E94BB136B837C83D9
:105950008D839E8384E090E0A0E0B0E0E80EF91E25
:105960000A1F1B1FC7010E94BB135B016C01AF82A2
:10597000B886C986DA8684E090E0A0E0B0E0E80E60
:10598000F91E0A1F1B1FC7010E94BB137B018C015C
:10599000EB86FC860D871E878CE498E066E372E058
:1059A0000E9472E994FE20C08091A0149091A114ED
:1059B000A091A214B091A314A80EB91ECA1EDB1E9A
:1059C000AF82B886C986DA868091A4149091A51416
:1059D000A091A614B091A714E80EF91E0A1F1B1F70
:1059E000EB86FC860D871E87CE01DF91CF911F913C
:1059F0000F91FF90EF90DF90CF90BF90AF909F906E
:105A000008959F92AF92BF92CF92DF92EF92FF9252
:105A10000F931F93DF93CF93CDB7DEB72F970FB6BA
:105A2000F894DEBF0FBECDBF182F33E0E32E30E178
:105A3000F32E8F3F09F05EC0C7019E2CE92EFF2494
:105A40005E010894A11CB11C2CE4C22E28E0D22EC9
:105A500045C0C501B8010E944D2C8DB79EB748972F
:105A60000FB6F8949EBF0FBE8DBFEDB7FEB731964F
:105A7000ADB7BEB71296DC92CE9211979282E382B6
:105A8000158304838981868317828A8180871186A2
:105A90008B81828713868C819D81AE81BF818487B3
:105AA0009587A687B78788859985AA85BB85808BCA
:105AB000918BA28BB38B8C859D85AE85BF85848BA6
:105AC000958BA68BB78B0E94D994F3948DB79EB714
:105AD00048960FB6F8949EBF0FBE8DBF0F2D10E0F5
